{
	"data": {
		"bytecode": {
			"linkReferences": {},
			"object": "608060405234801561001057600080fd5b5060018060003373ffffffffffffffffffffffffffffffffffffffff1673ffffffffffffffffffffffffffffffffffffffff16815260200190815260200160002060006101000a81548160ff0219169083151502179055506153bd806100776000396000f3fe60806040523480156200001157600080fd5b5060043610620000ac5760003560e01c8063a2ed365b116200006f578063a2ed365b1462000193578063b12bde42146200019f578063e22ac15014620001d5578063e4b6096914620001f5578063fe4524b3146200022b57620000ac565b806309008e4e14620000b15780633b9dce0514620000e7578063544d1fd014620001075780636b845265146200012757806381a6520a146200015d575b600080fd5b620000cf6004803603810190620000c9919062000c0e565b62000261565b604051620000de919062000ee0565b60405180910390f35b620001056004803603810190620000ff919062000a7a565b620002a1565b005b6200012560048036038101906200011f919062000b10565b620002fb565b005b6200014560048036038101906200013f919062000b57565b6200039e565b60405162000154919062000dfb565b60405180910390f35b6200017b600480360381019062000175919062000ade565b620003d1565b6040516200018a919062000dfb565b60405180910390f35b6200019d62000404565b005b620001bd6004803603810190620001b7919062000c40565b62000444565b604051620001cc919062000e82565b60405180910390f35b620001f36004803603810190620001ed919062000b89565b620004d7565b005b6200021360048036038101906200020d919062000b57565b6200091a565b60405162000222919062000ec3565b60405180910390f35b62000249600480360381019062000243919062000a7a565b6200094d565b60405162000258919062000ea6565b60405180910390f35b600081815481106200027257600080fd5b906000526020600020016000915054906101000a900473ffffffffffffffffffffffffffffffffffffffff1681565b60018060008373ffffffffffffffffffffffffffffffffffffffff1673ffffffffffffffffffffffffffffffffffffffff16815260200190815260200160002060006101000a81548160ff02191690831515021790555050565b8173ffffffffffffffffffffffffffffffffffffffff166323b872dd308368056bc75e2d631000006040518463ffffffff1660e01b8152600401620003439392919062000e18565b602060405180830381600087803b1580156200035e57600080fd5b505af115801562000373573d6000803e3d6000fd5b505050506040513d601f19601f8201168201806040525081019062000399919062000aac565b505050565b60036020528060005260406000206000915054906101000a900473ffffffffffffffffffffffffffffffffffffffff1681565b60046020528060005260406000206000915054906101000a900473ffffffffffffffffffffffffffffffffffffffff1681565b7f582be06aeedebe4c8a1518dba7a1c7622e40cbfbcdbe2569af5b826e7a16190d6000805490506040516200043a919062000fc5565b60405180910390a1565b60606000805480602002602001604051908101604052809291908181526020018280548015620004ca57602002820191906000526020600020905b8160009054906101000a900473ffffffffffffffffffffffffffffffffffffffff1673ffffffffffffffffffffffffffffffffffffffff16815260200190600101908083116200047f575b5050505050905092915050565b60011515600160003373ffffffffffffffffffffffffffffffffffffffff1673ffffffffffffffffffffffffffffffffffffffff16815260200190815260200160002060009054906101000a900460ff161515146200056d576040517f08c379a0000000000000000000000000000000000000000000000000000000008152600401620005649062000fa3565b60405180910390fd5b600082823060405162000580906200096d565b6200058e9392919062000efd565b604051809103906000f080158015620005ab573d6000803e3d6000fd5b509050600083833384604051620005c2906200097b565b620005d1949392919062000f48565b604051809103906000f080158015620005ee573d6000803e3d6000fd5b5090508173ffffffffffffffffffffffffffffffffffffffff16633950935182683635c9adc5dea000006040518363ffffffff1660e01b81526004016200063792919062000e55565b602060405180830381600087803b1580156200065257600080fd5b505af115801562000667573d6000803e3d6000fd5b505050506040513d601f19601f820116820180604052508101906200068d919062000aac565b508173ffffffffffffffffffffffffffffffffffffffff16633950935130683635c9adc5dea000006040518363ffffffff1660e01b8152600401620006d492919062000e55565b602060405180830381600087803b158015620006ef57600080fd5b505af115801562000704573d6000803e3d6000fd5b505050506040513d601f19601f820116820180604052508101906200072a919062000aac565b5081600260008373ffffffffffffffffffffffffffffffffffffffff1673ffffffffffffffffffffffffffffffffffffffff16815260200190815260200160002060006101000a81548173ffffffffffffffffffffffffffffffffffffffff021916908373ffffffffffffffffffffffffffffffffffffffff16021790555033600360008373ffffffffffffffffffffffffffffffffffffffff1673ffffffffffffffffffffffffffffffffffffffff16815260200190815260200160002060006101000a81548173ffffffffffffffffffffffffffffffffffffffff021916908373ffffffffffffffffffffffffffffffffffffffff16021790555033600460008473ffffffffffffffffffffffffffffffffffffffff1673ffffffffffffffffffffffffffffffffffffffff16815260200190815260200160002060006101000a81548173ffffffffffffffffffffffffffffffffffffffff021916908373ffffffffffffffffffffffffffffffffffffffff1602179055506000819080600181540180825580915050600190039060005260206000200160009091909190916101000a81548173ffffffffffffffffffffffffffffffffffffffff021916908373ffffffffffffffffffffffffffffffffffffffff160217905550620009148282620002fb565b50505050565b60026020528060005260406000206000915054906101000a900473ffffffffffffffffffffffffffffffffffffffff1681565b60016020528060005260406000206000915054906101000a900460ff1681565b6123a380620012fb83390190565b611cea806200369e83390190565b6000620009a06200099a846200100b565b62000fe2565b905082815260208101848484011115620009bf57620009be6200122f565b5b620009cc84828562001180565b509392505050565b600081359050620009e58162001278565b92915050565b600081519050620009fc8162001292565b92915050565b60008135905062000a1381620012ac565b92915050565b60008135905062000a2a81620012c6565b92915050565b600082601f83011262000a485762000a476200122a565b5b813562000a5a84826020860162000989565b91505092915050565b60008135905062000a7481620012e0565b92915050565b60006020828403121562000a935762000a9262001239565b5b600062000aa384828501620009d4565b91505092915050565b60006020828403121562000ac55762000ac462001239565b5b600062000ad584828501620009eb565b91505092915050565b60006020828403121562000af75762000af662001239565b5b600062000b078482850162000a02565b91505092915050565b6000806040838503121562000b2a5762000b2962001239565b5b600062000b3a8582860162000a02565b925050602062000b4d8582860162000a19565b9150509250929050565b60006020828403121562000b705762000b6f62001239565b5b600062000b808482850162000a19565b91505092915050565b6000806040838503121562000ba35762000ba262001239565b5b600083013567ffffffffffffffff81111562000bc45762000bc362001234565b5b62000bd28582860162000a30565b925050602083013567ffffffffffffffff81111562000bf65762000bf562001234565b5b62000c048582860162000a30565b9150509250929050565b60006020828403121562000c275762000c2662001239565b5b600062000c378482850162000a63565b91505092915050565b6000806040838503121562000c5a5762000c5962001239565b5b600062000c6a8582860162000a63565b925050602062000c7d8582860162000a63565b9150509250929050565b600062000c95838362000d3e565b60208301905092915050565b62000cac8162001096565b82525050565b600062000cbf8262001051565b62000ccb818562001074565b935062000cd88362001041565b8060005b8381101562000d0f57815162000cf3888262000c87565b975062000d008362001067565b92505060018101905062000cdc565b5085935050505092915050565b62000d2781620010aa565b82525050565b62000d388162001108565b82525050565b62000d49816200111c565b82525050565b62000d5a816200111c565b82525050565b62000d6b8162001130565b82525050565b62000d7c8162001144565b82525050565b600062000d8f826200105c565b62000d9b818562001085565b935062000dad8185602086016200118f565b62000db8816200123e565b840191505092915050565b600062000dd2601a8362001085565b915062000ddf826200124f565b602082019050919050565b62000df581620010fe565b82525050565b600060208201905062000e12600083018462000ca1565b92915050565b600060608201905062000e2f600083018662000ca1565b62000e3e602083018562000ca1565b62000e4d604083018462000d71565b949350505050565b600060408201905062000e6c600083018562000ca1565b62000e7b602083018462000d60565b9392505050565b6000602082019050818103600083015262000e9e818462000cb2565b905092915050565b600060208201905062000ebd600083018462000d1c565b92915050565b600060208201905062000eda600083018462000d2d565b92915050565b600060208201905062000ef7600083018462000d4f565b92915050565b6000606082019050818103600083015262000f19818662000d82565b9050818103602083015262000f2f818562000d82565b905062000f40604083018462000ca1565b949350505050565b6000608082019050818103600083015262000f64818762000d82565b9050818103602083015262000f7a818662000d82565b905062000f8b604083018562000ca1565b62000f9a606083018462000d2d565b95945050505050565b6000602082019050818103600083015262000fbe8162000dc3565b9050919050565b600060208201905062000fdc600083018462000dea565b92915050565b600062000fee62001001565b905062000ffc8282620011c5565b919050565b6000604051905090565b600067ffffffffffffffff821115620010295762001028620011fb565b5b62001034826200123e565b9050602081019050919050565b6000819050602082019050919050565b600081519050919050565b600081519050919050565b6000602082019050919050565b600082825260208201905092915050565b600082825260208201905092915050565b6000620010a382620010de565b9050919050565b60008115159050919050565b6000620010c38262001096565b9050919050565b6000620010d78262001096565b9050919050565b600073ffffffffffffffffffffffffffffffffffffffff82169050919050565b6000819050919050565b6000620011158262001158565b9050919050565b6000620011298262001158565b9050919050565b60006200113d82620010fe565b9050919050565b60006200115182620010fe565b9050919050565b600062001165826200116c565b9050919050565b60006200117982620010de565b9050919050565b82818337600083830152505050565b60005b83811015620011af57808201518184015260208101905062001192565b83811115620011bf576000848401525b50505050565b620011d0826200123e565b810181811067ffffffffffffffff82111715620011f257620011f1620011fb565b5b80604052505050565b7f4e487b7100000000000000000000000000000000000000000000000000000000600052604160045260246000fd5b600080fd5b600080fd5b600080fd5b600080fd5b6000601f19601f8301169050919050565b7f4e6f7420616464656420617320612044414f2043726561746f72000000000000600082015250565b620012838162001096565b81146200128f57600080fd5b50565b6200129d81620010aa565b8114620012a957600080fd5b50565b620012b781620010b6565b8114620012c357600080fd5b50565b620012d181620010ca565b8114620012dd57600080fd5b50565b620012eb81620010fe565b8114620012f757600080fd5b5056fe60806040523480156200001157600080fd5b50604051620023a3380380620023a3833981810160405281019062000037919062000549565b828281600390805190602001906200005192919062000404565b5080600490805190602001906200006a92919062000404565b5050506200008d62000081620000d460201b60201c565b620000dc60201b60201c565b620000cb81620000a2620001a260201b60201c565b600a620000b09190620007cb565b6103e8620000bf919062000908565b620001ab60201b60201c565b50505062000b81565b600033905090565b6000600560009054906101000a900473ffffffffffffffffffffffffffffffffffffffff16905081600560006101000a81548173ffffffffffffffffffffffffffffffffffffffff021916908373ffffffffffffffffffffffffffffffffffffffff1602179055508173ffffffffffffffffffffffffffffffffffffffff168173ffffffffffffffffffffffffffffffffffffffff167f8be0079c531659141344cd1fd0a4f28419497f9722a3daafe3b4186f6b6457e060405160405180910390a35050565b60006012905090565b620001bb620001d160201b60201c565b620001cd82826200026260201b60201c565b5050565b620001e1620000d460201b60201c565b73ffffffffffffffffffffffffffffffffffffffff1662000207620003d060201b60201c565b73ffffffffffffffffffffffffffffffffffffffff161462000260576040517f08c379a0000000000000000000000000000000000000000000000000000000008152600401620002579062000642565b60405180910390fd5b565b600073ffffffffffffffffffffffffffffffffffffffff168273ffffffffffffffffffffffffffffffffffffffff161415620002d5576040517f08c379a0000000000000000000000000000000000000000000000000000000008152600401620002cc9062000664565b60405180910390fd5b620002e960008383620003fa60201b60201c565b8060026000828254620002fd919062000713565b92505081905550806000808473ffffffffffffffffffffffffffffffffffffffff1673ffffffffffffffffffffffffffffffffffffffff168152602001908152602001600020600082825401925050819055508173ffffffffffffffffffffffffffffffffffffffff16600073ffffffffffffffffffffffffffffffffffffffff167fddf252ad1be2c89b69c2b068fc378daa952ba7f163c4a11628f55a4df523b3ef83604051620003b0919062000686565b60405180910390a3620003cc60008383620003ff60201b60201c565b5050565b6000600560009054906101000a900473ffffffffffffffffffffffffffffffffffffffff16905090565b505050565b505050565b8280546200041290620009ea565b90600052602060002090601f01602090048101928262000436576000855562000482565b82601f106200045157805160ff191683800117855562000482565b8280016001018555821562000482579182015b828111156200048157825182559160200191906001019062000464565b5b50905062000491919062000495565b5090565b5b80821115620004b057600081600090555060010162000496565b5090565b6000620004cb620004c584620006cc565b620006a3565b905082815260208101848484011115620004ea57620004e962000ae8565b5b620004f7848285620009b4565b509392505050565b600081519050620005108162000b67565b92915050565b600082601f8301126200052e576200052d62000ae3565b5b815162000540848260208601620004b4565b91505092915050565b60008060006060848603121562000565576200056462000af2565b5b600084015167ffffffffffffffff81111562000586576200058562000aed565b5b620005948682870162000516565b935050602084015167ffffffffffffffff811115620005b857620005b762000aed565b5b620005c68682870162000516565b9250506040620005d986828701620004ff565b9150509250925092565b6000620005f260208362000702565b9150620005ff8262000b15565b602082019050919050565b600062000619601f8362000702565b9150620006268262000b3e565b602082019050919050565b6200063c816200099d565b82525050565b600060208201905081810360008301526200065d81620005e3565b9050919050565b600060208201905081810360008301526200067f816200060a565b9050919050565b60006020820190506200069d600083018462000631565b92915050565b6000620006af620006c2565b9050620006bd828262000a20565b919050565b6000604051905090565b600067ffffffffffffffff821115620006ea57620006e962000ab4565b5b620006f58262000af7565b9050602081019050919050565b600082825260208201905092915050565b600062000720826200099d565b91506200072d836200099d565b9250827fffffffffffffffffffffffffffffffffffffffffffffffffffffffffffffffff0382111562000765576200076462000a56565b5b828201905092915050565b6000808291508390505b6001851115620007c2578086048111156200079a576200079962000a56565b5b6001851615620007aa5780820291505b8081029050620007ba8562000b08565b94506200077a565b94509492505050565b6000620007d8826200099d565b9150620007e583620009a7565b9250620008147fffffffffffffffffffffffffffffffffffffffffffffffffffffffffffffffff84846200081c565b905092915050565b6000826200082e576001905062000901565b816200083e576000905062000901565b8160018114620008575760028114620008625762000898565b600191505062000901565b60ff84111562000877576200087662000a56565b5b8360020a91508482111562000891576200089062000a56565b5b5062000901565b5060208310610133831016604e8410600b8410161715620008d25782820a905083811115620008cc57620008cb62000a56565b5b62000901565b620008e1848484600162000770565b92509050818404811115620008fb57620008fa62000a56565b5b81810290505b9392505050565b600062000915826200099d565b915062000922836200099d565b9250817fffffffffffffffffffffffffffffffffffffffffffffffffffffffffffffffff04831182151516156200095e576200095d62000a56565b5b828202905092915050565b600062000976826200097d565b9050919050565b600073ffffffffffffffffffffffffffffffffffffffff82169050919050565b6000819050919050565b600060ff82169050919050565b60005b83811015620009d4578082015181840152602081019050620009b7565b83811115620009e4576000848401525b50505050565b6000600282049050600182168062000a0357607f821691505b6020821081141562000a1a5762000a1962000a85565b5b50919050565b62000a2b8262000af7565b810181811067ffffffffffffffff8211171562000a4d5762000a4c62000ab4565b5b80604052505050565b7f4e487b7100000000000000000000000000000000000000000000000000000000600052601160045260246000fd5b7f4e487b7100000000000000000000000000000000000000000000000000000000600052602260045260246000fd5b7f4e487b7100000000000000000000000000000000000000000000000000000000600052604160045260246000fd5b600080fd5b600080fd5b600080fd5b600080fd5b6000601f19601f8301169050919050565b60008160011c9050919050565b7f4f776e61626c653a2063616c6c6572206973206e6f7420746865206f776e6572600082015250565b7f45524332303a206d696e7420746f20746865207a65726f206164647265737300600082015250565b62000b728162000969565b811462000b7e57600080fd5b50565b6118128062000b916000396000f3fe608060405234801561001057600080fd5b50600436106100f55760003560e01c806370a0823111610097578063a457c2d711610066578063a457c2d714610276578063a9059cbb146102a6578063dd62ed3e146102d6578063f2fde38b14610306576100f5565b806370a0823114610200578063715018a6146102305780638da5cb5b1461023a57806395d89b4114610258576100f5565b806323b872dd116100d357806323b872dd14610166578063313ce5671461019657806339509351146101b457806340c10f19146101e4576100f5565b806306fdde03146100fa578063095ea7b31461011857806318160ddd14610148575b600080fd5b610102610322565b60405161010f91906111d2565b60405180910390f35b610132600480360381019061012d9190610f89565b6103b4565b60405161013f91906111b7565b60405180910390f35b6101506103d7565b60405161015d9190611334565b60405180910390f35b610180600480360381019061017b9190610f36565b6103e1565b60405161018d91906111b7565b60405180910390f35b61019e610410565b6040516101ab919061134f565b60405180910390f35b6101ce60048036038101906101c99190610f89565b610419565b6040516101db91906111b7565b60405180910390f35b6101fe60048036038101906101f99190610f89565b610450565b005b61021a60048036038101906102159190610ec9565b610466565b6040516102279190611334565b60405180910390f35b6102386104ae565b005b6102426104c2565b60405161024f919061119c565b60405180910390f35b6102606104ec565b60405161026d91906111d2565b60405180910390f35b610290600480360381019061028b9190610f89565b61057e565b60405161029d91906111b7565b60405180910390f35b6102c060048036038101906102bb9190610f89565b6105f5565b6040516102cd91906111b7565b60405180910390f35b6102f060048036038101906102eb9190610ef6565b610618565b6040516102fd9190611334565b60405180910390f35b610320600480360381019061031b9190610ec9565b61069f565b005b60606003805461033190611464565b80601f016020809104026020016040519081016040528092919081815260200182805461035d90611464565b80156103aa5780601f1061037f576101008083540402835291602001916103aa565b820191906000526020600020905b81548152906001019060200180831161038d57829003601f168201915b5050505050905090565b6000806103bf610723565b90506103cc81858561072b565b600191505092915050565b6000600254905090565b6000806103ec610723565b90506103f98582856108f6565b610404858585610982565b60019150509392505050565b60006012905090565b600080610424610723565b90506104458185856104368589610618565b6104409190611386565b61072b565b600191505092915050565b610458610bfa565b6104628282610c78565b5050565b60008060008373ffffffffffffffffffffffffffffffffffffffff1673ffffffffffffffffffffffffffffffffffffffff168152602001908152602001600020549050919050565b6104b6610bfa565b6104c06000610dcf565b565b6000600560009054906101000a900473ffffffffffffffffffffffffffffffffffffffff16905090565b6060600480546104fb90611464565b80601f016020809104026020016040519081016040528092919081815260200182805461052790611464565b80156105745780601f1061054957610100808354040283529160200191610574565b820191906000526020600020905b81548152906001019060200180831161055757829003601f168201915b5050505050905090565b600080610589610723565b905060006105978286610618565b9050838110156105dc576040517f08c379a00000000000000000000000000000000000000000000000000000000081526004016105d3906112f4565b60405180910390fd5b6105e9828686840361072b565b60019250505092915050565b600080610600610723565b905061060d818585610982565b600191505092915050565b6000600160008473ffffffffffffffffffffffffffffffffffffffff1673ffffffffffffffffffffffffffffffffffffffff16815260200190815260200160002060008373ffffffffffffffffffffffffffffffffffffffff1673ffffffffffffffffffffffffffffffffffffffff16815260200190815260200160002054905092915050565b6106a7610bfa565b600073ffffffffffffffffffffffffffffffffffffffff168173ffffffffffffffffffffffffffffffffffffffff161415610717576040517f08c379a000000000000000000000000000000000000000000000000000000000815260040161070e90611214565b60405180910390fd5b61072081610dcf565b50565b600033905090565b600073ffffffffffffffffffffffffffffffffffffffff168373ffffffffffffffffffffffffffffffffffffffff16141561079b576040517f08c379a0000000000000000000000000000000000000000000000000000000008152600401610792906112d4565b60405180910390fd5b600073ffffffffffffffffffffffffffffffffffffffff168273ffffffffffffffffffffffffffffffffffffffff16141561080b576040517f08c379a000000000000000000000000000000000000000000000000000000000815260040161080290611234565b60405180910390fd5b80600160008573ffffffffffffffffffffffffffffffffffffffff1673ffffffffffffffffffffffffffffffffffffffff16815260200190815260200160002060008473ffffffffffffffffffffffffffffffffffffffff1673ffffffffffffffffffffffffffffffffffffffff168152602001908152602001600020819055508173ffffffffffffffffffffffffffffffffffffffff168373ffffffffffffffffffffffffffffffffffffffff167f8c5be1e5ebec7d5bd14f71427d1e84f3dd0314c0f7b2291e5b200ac8c7c3b925836040516108e99190611334565b60405180910390a3505050565b60006109028484610618565b90507fffffffffffffffffffffffffffffffffffffffffffffffffffffffffffffffff811461097c578181101561096e576040517f08c379a000000000000000000000000000000000000000000000000000000000815260040161096590611254565b60405180910390fd5b61097b848484840361072b565b5b50505050565b600073ffffffffffffffffffffffffffffffffffffffff168373ffffffffffffffffffffffffffffffffffffffff1614156109f2576040517f08c379a00000000000000000000000000000000000000000000000000000000081526004016109e9906112b4565b60405180910390fd5b600073ffffffffffffffffffffffffffffffffffffffff168273ffffffffffffffffffffffffffffffffffffffff161415610a62576040517f08c379a0000000000000000000000000000000000000000000000000000000008152600401610a59906111f4565b60405180910390fd5b610a6d838383610e95565b60008060008573ffffffffffffffffffffffffffffffffffffffff1673ffffffffffffffffffffffffffffffffffffffff16815260200190815260200160002054905081811015610af3576040517f08c379a0000000000000000000000000000000000000000000000000000000008152600401610aea90611274565b60405180910390fd5b8181036000808673ffffffffffffffffffffffffffffffffffffffff1673ffffffffffffffffffffffffffffffffffffffff16815260200190815260200160002081905550816000808573ffffffffffffffffffffffffffffffffffffffff1673ffffffffffffffffffffffffffffffffffffffff168152602001908152602001600020600082825401925050819055508273ffffffffffffffffffffffffffffffffffffffff168473ffffffffffffffffffffffffffffffffffffffff167fddf252ad1be2c89b69c2b068fc378daa952ba7f163c4a11628f55a4df523b3ef84604051610be19190611334565b60405180910390a3610bf4848484610e9a565b50505050565b610c02610723565b73ffffffffffffffffffffffffffffffffffffffff16610c206104c2565b73ffffffffffffffffffffffffffffffffffffffff1614610c76576040517f08c379a0000000000000000000000000000000000000000000000000000000008152600401610c6d90611294565b60405180910390fd5b565b600073ffffffffffffffffffffffffffffffffffffffff168273ffffffffffffffffffffffffffffffffffffffff161415610ce8576040517f08c379a0000000000000000000000000000000000000000000000000000000008152600401610cdf90611314565b60405180910390fd5b610cf460008383610e95565b8060026000828254610d069190611386565b92505081905550806000808473ffffffffffffffffffffffffffffffffffffffff1673ffffffffffffffffffffffffffffffffffffffff168152602001908152602001600020600082825401925050819055508173ffffffffffffffffffffffffffffffffffffffff16600073ffffffffffffffffffffffffffffffffffffffff167fddf252ad1be2c89b69c2b068fc378daa952ba7f163c4a11628f55a4df523b3ef83604051610db79190611334565b60405180910390a3610dcb60008383610e9a565b5050565b6000600560009054906101000a900473ffffffffffffffffffffffffffffffffffffffff16905081600560006101000a81548173ffffffffffffffffffffffffffffffffffffffff021916908373ffffffffffffffffffffffffffffffffffffffff1602179055508173ffffffffffffffffffffffffffffffffffffffff168173ffffffffffffffffffffffffffffffffffffffff167f8be0079c531659141344cd1fd0a4f28419497f9722a3daafe3b4186f6b6457e060405160405180910390a35050565b505050565b505050565b600081359050610eae816117ae565b92915050565b600081359050610ec3816117c5565b92915050565b600060208284031215610edf57610ede6114f4565b5b6000610eed84828501610e9f565b91505092915050565b60008060408385031215610f0d57610f0c6114f4565b5b6000610f1b85828601610e9f565b9250506020610f2c85828601610e9f565b9150509250929050565b600080600060608486031215610f4f57610f4e6114f4565b5b6000610f5d86828701610e9f565b9350506020610f6e86828701610e9f565b9250506040610f7f86828701610eb4565b9150509250925092565b60008060408385031215610fa057610f9f6114f4565b5b6000610fae85828601610e9f565b9250506020610fbf85828601610eb4565b9150509250929050565b610fd2816113dc565b82525050565b610fe1816113ee565b82525050565b6000610ff28261136a565b610ffc8185611375565b935061100c818560208601611431565b611015816114f9565b840191505092915050565b600061102d602383611375565b91506110388261150a565b604082019050919050565b6000611050602683611375565b915061105b82611559565b604082019050919050565b6000611073602283611375565b915061107e826115a8565b604082019050919050565b6000611096601d83611375565b91506110a1826115f7565b602082019050919050565b60006110b9602683611375565b91506110c482611620565b604082019050919050565b60006110dc602083611375565b91506110e78261166f565b602082019050919050565b60006110ff602583611375565b915061110a82611698565b604082019050919050565b6000611122602483611375565b915061112d826116e7565b604082019050919050565b6000611145602583611375565b915061115082611736565b604082019050919050565b6000611168601f83611375565b915061117382611785565b602082019050919050565b6111878161141a565b82525050565b61119681611424565b82525050565b60006020820190506111b16000830184610fc9565b92915050565b60006020820190506111cc6000830184610fd8565b92915050565b600060208201905081810360008301526111ec8184610fe7565b905092915050565b6000602082019050818103600083015261120d81611020565b9050919050565b6000602082019050818103600083015261122d81611043565b9050919050565b6000602082019050818103600083015261124d81611066565b9050919050565b6000602082019050818103600083015261126d81611089565b9050919050565b6000602082019050818103600083015261128d816110ac565b9050919050565b600060208201905081810360008301526112ad816110cf565b9050919050565b600060208201905081810360008301526112cd816110f2565b9050919050565b600060208201905081810360008301526112ed81611115565b9050919050565b6000602082019050818103600083015261130d81611138565b9050919050565b6000602082019050818103600083015261132d8161115b565b9050919050565b6000602082019050611349600083018461117e565b92915050565b6000602082019050611364600083018461118d565b92915050565b600081519050919050565b600082825260208201905092915050565b60006113918261141a565b915061139c8361141a565b9250827fffffffffffffffffffffffffffffffffffffffffffffffffffffffffffffffff038211156113d1576113d0611496565b5b828201905092915050565b60006113e7826113fa565b9050919050565b60008115159050919050565b600073ffffffffffffffffffffffffffffffffffffffff82169050919050565b6000819050919050565b600060ff82169050919050565b60005b8381101561144f578082015181840152602081019050611434565b8381111561145e576000848401525b50505050565b6000600282049050600182168061147c57607f821691505b602082108114156114905761148f6114c5565b5b50919050565b7f4e487b7100000000000000000000000000000000000000000000000000000000600052601160045260246000fd5b7f4e487b7100000000000000000000000000000000000000000000000000000000600052602260045260246000fd5b600080fd5b6000601f19601f8301169050919050565b7f45524332303a207472616e7366657220746f20746865207a65726f206164647260008201527f6573730000000000000000000000000000000000000000000000000000000000602082015250565b7f4f776e61626c653a206e6577206f776e657220697320746865207a65726f206160008201527f6464726573730000000000000000000000000000000000000000000000000000602082015250565b7f45524332303a20617070726f766520746f20746865207a65726f20616464726560008201527f7373000000000000000000000000000000000000000000000000000000000000602082015250565b7f45524332303a20696e73756666696369656e7420616c6c6f77616e6365000000600082015250565b7f45524332303a207472616e7366657220616d6f756e742065786365656473206260008201527f616c616e63650000000000000000000000000000000000000000000000000000602082015250565b7f4f776e61626c653a2063616c6c6572206973206e6f7420746865206f776e6572600082015250565b7f45524332303a207472616e736665722066726f6d20746865207a65726f20616460008201527f6472657373000000000000000000000000000000000000000000000000000000602082015250565b7f45524332303a20617070726f76652066726f6d20746865207a65726f2061646460008201527f7265737300000000000000000000000000000000000000000000000000000000602082015250565b7f45524332303a2064656372656173656420616c6c6f77616e63652062656c6f7760008201527f207a65726f000000000000000000000000000000000000000000000000000000602082015250565b7f45524332303a206d696e7420746f20746865207a65726f206164647265737300600082015250565b6117b7816113dc565b81146117c257600080fd5b50565b6117ce8161141a565b81146117d957600080fd5b5056fea2646970667358221220b11731c237ab0960a3ca2b3a1ae083e59ffc93b60a13563dd4ef7166a78e146f64736f6c6343000807003360806040523480156200001157600080fd5b5060405162001cea38038062001cea833981810160405281019062000037919062000295565b83600090805190602001906200004f92919062000139565b5082600190805190602001906200006892919062000139565b5080600760006101000a81548173ffffffffffffffffffffffffffffffffffffffff021916908373ffffffffffffffffffffffffffffffffffffffff160217905550683635c9adc5dea00000600560008473ffffffffffffffffffffffffffffffffffffffff1673ffffffffffffffffffffffffffffffffffffffff1681526020019081526020016000206000828254620001049190620003a4565b92505081905550683635c9adc5dea0000060066000828254620001289190620003a4565b9250508190555050505050620005db565b828054620001479062000489565b90600052602060002090601f0160209004810192826200016b5760008555620001b7565b82601f106200018657805160ff1916838001178555620001b7565b82800160010185558215620001b7579182015b82811115620001b657825182559160200191906001019062000199565b5b509050620001c69190620001ca565b5090565b5b80821115620001e5576000816000905550600101620001cb565b5090565b600062000200620001fa846200036e565b62000345565b9050828152602081018484840111156200021f576200021e62000587565b5b6200022c84828562000453565b509392505050565b6000815190506200024581620005a7565b92915050565b6000815190506200025c81620005c1565b92915050565b600082601f8301126200027a576200027962000582565b5b81516200028c848260208601620001e9565b91505092915050565b60008060008060808587031215620002b257620002b162000591565b5b600085015167ffffffffffffffff811115620002d357620002d26200058c565b5b620002e18782880162000262565b945050602085015167ffffffffffffffff8111156200030557620003046200058c565b5b620003138782880162000262565b9350506040620003268782880162000234565b925050606062000339878288016200024b565b91505092959194509250565b60006200035162000364565b90506200035f8282620004bf565b919050565b6000604051905090565b600067ffffffffffffffff8211156200038c576200038b62000553565b5b620003978262000596565b9050602081019050919050565b6000620003b18262000449565b9150620003be8362000449565b9250827fffffffffffffffffffffffffffffffffffffffffffffffffffffffffffffffff03821115620003f657620003f5620004f5565b5b828201905092915050565b60006200040e8262000429565b9050919050565b6000620004228262000401565b9050919050565b600073ffffffffffffffffffffffffffffffffffffffff82169050919050565b6000819050919050565b60005b838110156200047357808201518184015260208101905062000456565b8381111562000483576000848401525b50505050565b60006002820490506001821680620004a257607f821691505b60208210811415620004b957620004b862000524565b5b50919050565b620004ca8262000596565b810181811067ffffffffffffffff82111715620004ec57620004eb62000553565b5b80604052505050565b7f4e487b7100000000000000000000000000000000000000000000000000000000600052601160045260246000fd5b7f4e487b7100000000000000000000000000000000000000000000000000000000600052602260045260246000fd5b7f4e487b7100000000000000000000000000000000000000000000000000000000600052604160045260246000fd5b600080fd5b600080fd5b600080fd5b600080fd5b6000601f19601f8301169050919050565b620005b28162000401565b8114620005be57600080fd5b50565b620005cc8162000415565b8114620005d857600080fd5b50565b6116ff80620005eb6000396000f3fe608060405234801561001057600080fd5b50600436106100a95760003560e01c8063943e821611610071578063943e8216146101585780639af12816146101745780639f2524ee146101a4578063b6b55f25146101d4578063ce7c2ac2146101f0578063fc0c546a14610220576100a9565b8063013cf08b146100ae5780632ab09d14146100e45780632e1a7d4d146101025780633a98ef391461011e57806349c2a1a61461013c575b600080fd5b6100c860048036038101906100c39190610e4a565b61023e565b6040516100db97969594939291906110f8565b60405180910390f35b6100ec610335565b6040516100f991906110dd565b60405180910390f35b61011c60048036038101906101179190610e4a565b61033b565b005b61012661052b565b60405161013391906110dd565b60405180910390f35b61015660048036038101906101519190610e01565b610531565b005b610172600480360381019061016d9190610e77565b610709565b005b61018e60048036038101906101899190610d67565b610a16565b60405161019b9190611027565b60405180910390f35b6101be60048036038101906101b99190610d94565b610a36565b6040516101cb9190611027565b60405180910390f35b6101ee60048036038101906101e99190610e4a565b610a65565b005b61020a60048036038101906102059190610d67565b610bc2565b60405161021791906110dd565b60405180910390f35b610228610bda565b6040516102359190611042565b60405180910390f35b60036020528060005260406000206000915090508060000154908060010160009054906101000a900473ffffffffffffffffffffffffffffffffffffffff169080600201805461028d906113da565b80601f01602080910402602001604051908101604052809291908181526020018280546102b9906113da565b80156103065780601f106102db57610100808354040283529160200191610306565b820191906000526020600020905b8154815290600101906020018083116102e957829003601f168201915b5050505050908060030154908060040154908060050154908060060160009054906101000a900460ff16905087565b60085481565b670de0b6b3a76400008161034f9190611267565b600560003373ffffffffffffffffffffffffffffffffffffffff1673ffffffffffffffffffffffffffffffffffffffff1681526020019081526020016000205410156103d0576040517f08c379a00000000000000000000000000000000000000000000000000000000081526004016103c79061109d565b60405180910390fd5b670de0b6b3a7640000816103e49190611267565b600560003373ffffffffffffffffffffffffffffffffffffffff1673ffffffffffffffffffffffffffffffffffffffff168152602001908152602001600020600082825461043291906112c1565b92505081905550670de0b6b3a76400008161044d9190611267565b6006600082825461045e91906112c1565b92505081905550600760009054906101000a900473ffffffffffffffffffffffffffffffffffffffff1673ffffffffffffffffffffffffffffffffffffffff1663a9059cbb33670de0b6b3a7640000846104b89190611267565b6040518363ffffffff1660e01b81526004016104d5929190610ffe565b602060405180830381600087803b1580156104ef57600080fd5b505af1158015610503573d6000803e3d6000fd5b505050506040513d601f19601f820116820180604052508101906105279190610dd4565b5050565b60065481565b674563918244f40000600560003373ffffffffffffffffffffffffffffffffffffffff1673ffffffffffffffffffffffffffffffffffffffff1681526020019081526020016000205410156105bb576040517f08c379a00000000000000000000000000000000000000000000000000000000081526004016105b29061107d565b60405180910390fd5b6040518060e0016040528060085481526020013373ffffffffffffffffffffffffffffffffffffffff1681526020018281526020014281526020016000815260200160008152602001600280811115610617576106166114e4565b5b8152506003600060085481526020019081526020016000206000820151816000015560208201518160010160006101000a81548173ffffffffffffffffffffffffffffffffffffffff021916908373ffffffffffffffffffffffffffffffffffffffff160217905550604082015181600201908051906020019061069c929190610c00565b50606082015181600301556080820151816004015560a0820151816005015560c08201518160060160006101000a81548160ff021916908360028111156106e6576106e56114e4565b5b0217905550905050600860008154809291906107019061143d565b919050555050565b600060036000848152602001908152602001600020905060001515600460003373ffffffffffffffffffffffffffffffffffffffff1673ffffffffffffffffffffffffffffffffffffffff168152602001908152602001600020600085815260200190815260200160002060009054906101000a900460ff161515146107c4576040517f08c379a00000000000000000000000000000000000000000000000000000000081526004016107bb9061105d565b60405180910390fd5b62093a8081600301546107d791906111e0565b421115610819576040517f08c379a0000000000000000000000000000000000000000000000000000000008152600401610810906110bd565b60405180910390fd5b6001600460003373ffffffffffffffffffffffffffffffffffffffff1673ffffffffffffffffffffffffffffffffffffffff168152602001908152602001600020600085815260200190815260200160002060006101000a81548160ff02191690831515021790555060006001811115610896576108956114e4565b5b8260018111156108a9576108a86114e4565b5b141561096257600560003373ffffffffffffffffffffffffffffffffffffffff1673ffffffffffffffffffffffffffffffffffffffff1681526020019081526020016000205481600401600082825461090291906111e0565b9250508190555060326006546064836004015461091f9190611267565b6109299190611236565b111561095d5760008160060160006101000a81548160ff02191690836002811115610957576109566114e4565b5b02179055505b610a11565b600560003373ffffffffffffffffffffffffffffffffffffffff1673ffffffffffffffffffffffffffffffffffffffff168152602001908152602001600020548160050160008282546109b591906111e0565b925050819055506032600654606483600501546109d29190611267565b6109dc9190611236565b1115610a105760018160060160006101000a81548160ff02191690836002811115610a0a57610a096114e4565b5b02179055505b5b505050565b60026020528060005260406000206000915054906101000a900460ff1681565b60046020528160005260406000206020528060005260406000206000915091509054906101000a900460ff1681565b670de0b6b3a764000081610a799190611267565b600560003373ffffffffffffffffffffffffffffffffffffffff1673ffffffffffffffffffffffffffffffffffffffff1681526020019081526020016000206000828254610ac791906111e0565b92505081905550670de0b6b3a764000081610ae29190611267565b60066000828254610af391906111e0565b92505081905550600760009054906101000a900473ffffffffffffffffffffffffffffffffffffffff1673ffffffffffffffffffffffffffffffffffffffff166323b872dd3330670de0b6b3a764000085610b4e9190611267565b6040518463ffffffff1660e01b8152600401610b6c93929190610fc7565b602060405180830381600087803b158015610b8657600080fd5b505af1158015610b9a573d6000803e3d6000fd5b505050506040513d601f19601f82011682018060405250810190610bbe9190610dd4565b5050565b60056020528060005260406000206000915090505481565b600760009054906101000a900473ffffffffffffffffffffffffffffffffffffffff1681565b828054610c0c906113da565b90600052602060002090601f016020900481019282610c2e5760008555610c75565b82601f10610c4757805160ff1916838001178555610c75565b82800160010185558215610c75579182015b82811115610c74578251825591602001919060010190610c59565b5b509050610c829190610c86565b5090565b5b80821115610c9f576000816000905550600101610c87565b5090565b6000610cb6610cb184611193565b61116e565b905082815260208101848484011115610cd257610cd1611576565b5b610cdd848285611398565b509392505050565b600081359050610cf481611674565b92915050565b600081519050610d098161168b565b92915050565b600081359050610d1e816116a2565b92915050565b600082601f830112610d3957610d38611571565b5b8135610d49848260208601610ca3565b91505092915050565b600081359050610d61816116b2565b92915050565b600060208284031215610d7d57610d7c611580565b5b6000610d8b84828501610ce5565b91505092915050565b60008060408385031215610dab57610daa611580565b5b6000610db985828601610ce5565b9250506020610dca85828601610d52565b9150509250929050565b600060208284031215610dea57610de9611580565b5b6000610df884828501610cfa565b91505092915050565b600060208284031215610e1757610e16611580565b5b600082013567ffffffffffffffff811115610e3557610e3461157b565b5b610e4184828501610d24565b91505092915050565b600060208284031215610e6057610e5f611580565b5b6000610e6e84828501610d52565b91505092915050565b60008060408385031215610e8e57610e8d611580565b5b6000610e9c85828601610d52565b9250506020610ead85828601610d0f565b9150509250929050565b610ec0816112f5565b82525050565b610ecf81611307565b82525050565b610ede81611350565b82525050565b610eed81611362565b82525050565b6000610efe826111c4565b610f0881856111cf565b9350610f188185602086016113a7565b610f2181611585565b840191505092915050565b6000610f39600d836111cf565b9150610f4482611596565b602082019050919050565b6000610f5c6026836111cf565b9150610f67826115bf565b604082019050919050565b6000610f7f6011836111cf565b9150610f8a8261160e565b602082019050919050565b6000610fa26015836111cf565b9150610fad82611637565b602082019050919050565b610fc181611346565b82525050565b6000606082019050610fdc6000830186610eb7565b610fe96020830185610eb7565b610ff66040830184610fb8565b949350505050565b60006040820190506110136000830185610eb7565b6110206020830184610fb8565b9392505050565b600060208201905061103c6000830184610ec6565b92915050565b60006020820190506110576000830184610ed5565b92915050565b6000602082019050818103600083015261107681610f2c565b9050919050565b6000602082019050818103600083015261109681610f4f565b9050919050565b600060208201905081810360008301526110b681610f72565b9050919050565b600060208201905081810360008301526110d681610f95565b9050919050565b60006020820190506110f26000830184610fb8565b92915050565b600060e08201905061110d600083018a610fb8565b61111a6020830189610eb7565b818103604083015261112c8188610ef3565b905061113b6060830187610fb8565b6111486080830186610fb8565b61115560a0830185610fb8565b61116260c0830184610ee4565b98975050505050505050565b6000611178611189565b9050611184828261140c565b919050565b6000604051905090565b600067ffffffffffffffff8211156111ae576111ad611542565b5b6111b782611585565b9050602081019050919050565b600081519050919050565b600082825260208201905092915050565b60006111eb82611346565b91506111f683611346565b9250827fffffffffffffffffffffffffffffffffffffffffffffffffffffffffffffffff0382111561122b5761122a611486565b5b828201905092915050565b600061124182611346565b915061124c83611346565b92508261125c5761125b6114b5565b5b828204905092915050565b600061127282611346565b915061127d83611346565b9250817fffffffffffffffffffffffffffffffffffffffffffffffffffffffffffffffff04831182151516156112b6576112b5611486565b5b828202905092915050565b60006112cc82611346565b91506112d783611346565b9250828210156112ea576112e9611486565b5b828203905092915050565b600061130082611326565b9050919050565b60008115159050919050565b600081905061132182611660565b919050565b600073ffffffffffffffffffffffffffffffffffffffff82169050919050565b6000819050919050565b600061135b82611374565b9050919050565b600061136d82611313565b9050919050565b600061137f82611386565b9050919050565b600061139182611326565b9050919050565b82818337600083830152505050565b60005b838110156113c55780820151818401526020810190506113aa565b838111156113d4576000848401525b50505050565b600060028204905060018216806113f257607f821691505b6020821081141561140657611405611513565b5b50919050565b61141582611585565b810181811067ffffffffffffffff8211171561143457611433611542565b5b80604052505050565b600061144882611346565b91507fffffffffffffffffffffffffffffffffffffffffffffffffffffffffffffffff82141561147b5761147a611486565b5b600182019050919050565b7f4e487b7100000000000000000000000000000000000000000000000000000000600052601160045260246000fd5b7f4e487b7100000000000000000000000000000000000000000000000000000000600052601260045260246000fd5b7f4e487b7100000000000000000000000000000000000000000000000000000000600052602160045260246000fd5b7f4e487b7100000000000000000000000000000000000000000000000000000000600052602260045260246000fd5b7f4e487b7100000000000000000000000000000000000000000000000000000000600052604160045260246000fd5b600080fd5b600080fd5b600080fd5b600080fd5b6000601f19601f8301169050919050565b7f616c726561647920766f74656400000000000000000000000000000000000000600082015250565b7f4e6f7420656e6f7567682073686172657320746f20637265617465206120707260008201527f6f706f73616c0000000000000000000000000000000000000000000000000000602082015250565b7f4e6f7420656e6f75676820736861726573000000000000000000000000000000600082015250565b7f566f74696e6720706572696f64206973206f7665720000000000000000000000600082015250565b60038110611671576116706114e4565b5b50565b61167d816112f5565b811461168857600080fd5b50565b61169481611307565b811461169f57600080fd5b50565b600281106116af57600080fd5b50565b6116bb81611346565b81146116c657600080fd5b5056fea264697066735822122039861d779aa1802309b6d85e1f467ac905fc948cd1019e386df8900f19bf0bee64736f6c63430008070033a2646970667358221220ee5de021262cedc06122572d4b80e008ea4eeb547b78301116f7396eee20895664736f6c63430008070033",
			"opcodes": "PUSH1 0x80 PUSH1 0x40 MSTORE CALLVALUE DUP1 ISZERO PUSH2 0x10 JUMPI PUSH1 0x0 DUP1 REVERT JUMPDEST POP PUSH1 0x1 DUP1 PUSH1 0x0 CALLER PUSH20 0xFFFFFFFFFFFFFFFFFFFFFFFFFFFFFFFFFFFFFFFF AND PUSH20 0xFFFFFFFFFFFFFFFFFFFFFFFFFFFFFFFFFFFFFFFF AND DUP2 MSTORE PUSH1 0x20 ADD SWAP1 DUP2 MSTORE PUSH1 0x20 ADD PUSH1 0x0 KECCAK256 PUSH1 0x0 PUSH2 0x100 EXP DUP2 SLOAD DUP2 PUSH1 0xFF MUL NOT AND SWAP1 DUP4 ISZERO ISZERO MUL OR SWAP1 SSTORE POP PUSH2 0x53BD DUP1 PUSH2 0x77 PUSH1 0x0 CODECOPY PUSH1 0x0 RETURN INVALID PUSH1 0x80 PUSH1 0x40 MSTORE CALLVALUE DUP1 ISZERO PUSH3 0x11 JUMPI PUSH1 0x0 DUP1 REVERT JUMPDEST POP PUSH1 0x4 CALLDATASIZE LT PUSH3 0xAC JUMPI PUSH1 0x0 CALLDATALOAD PUSH1 0xE0 SHR DUP1 PUSH4 0xA2ED365B GT PUSH3 0x6F JUMPI DUP1 PUSH4 0xA2ED365B EQ PUSH3 0x193 JUMPI DUP1 PUSH4 0xB12BDE42 EQ PUSH3 0x19F JUMPI DUP1 PUSH4 0xE22AC150 EQ PUSH3 0x1D5 JUMPI DUP1 PUSH4 0xE4B60969 EQ PUSH3 0x1F5 JUMPI DUP1 PUSH4 0xFE4524B3 EQ PUSH3 0x22B JUMPI PUSH3 0xAC JUMP JUMPDEST DUP1 PUSH4 0x9008E4E EQ PUSH3 0xB1 JUMPI DUP1 PUSH4 0x3B9DCE05 EQ PUSH3 0xE7 JUMPI DUP1 PUSH4 0x544D1FD0 EQ PUSH3 0x107 JUMPI DUP1 PUSH4 0x6B845265 EQ PUSH3 0x127 JUMPI DUP1 PUSH4 0x81A6520A EQ PUSH3 0x15D JUMPI JUMPDEST PUSH1 0x0 DUP1 REVERT JUMPDEST PUSH3 0xCF PUSH1 0x4 DUP1 CALLDATASIZE SUB DUP2 ADD SWAP1 PUSH3 0xC9 SWAP2 SWAP1 PUSH3 0xC0E JUMP JUMPDEST PUSH3 0x261 JUMP JUMPDEST PUSH1 0x40 MLOAD PUSH3 0xDE SWAP2 SWAP1 PUSH3 0xEE0 JUMP JUMPDEST PUSH1 0x40 MLOAD DUP1 SWAP2 SUB SWAP1 RETURN JUMPDEST PUSH3 0x105 PUSH1 0x4 DUP1 CALLDATASIZE SUB DUP2 ADD SWAP1 PUSH3 0xFF SWAP2 SWAP1 PUSH3 0xA7A JUMP JUMPDEST PUSH3 0x2A1 JUMP JUMPDEST STOP JUMPDEST PUSH3 0x125 PUSH1 0x4 DUP1 CALLDATASIZE SUB DUP2 ADD SWAP1 PUSH3 0x11F SWAP2 SWAP1 PUSH3 0xB10 JUMP JUMPDEST PUSH3 0x2FB JUMP JUMPDEST STOP JUMPDEST PUSH3 0x145 PUSH1 0x4 DUP1 CALLDATASIZE SUB DUP2 ADD SWAP1 PUSH3 0x13F SWAP2 SWAP1 PUSH3 0xB57 JUMP JUMPDEST PUSH3 0x39E JUMP JUMPDEST PUSH1 0x40 MLOAD PUSH3 0x154 SWAP2 SWAP1 PUSH3 0xDFB JUMP JUMPDEST PUSH1 0x40 MLOAD DUP1 SWAP2 SUB SWAP1 RETURN JUMPDEST PUSH3 0x17B PUSH1 0x4 DUP1 CALLDATASIZE SUB DUP2 ADD SWAP1 PUSH3 0x175 SWAP2 SWAP1 PUSH3 0xADE JUMP JUMPDEST PUSH3 0x3D1 JUMP JUMPDEST PUSH1 0x40 MLOAD PUSH3 0x18A SWAP2 SWAP1 PUSH3 0xDFB JUMP JUMPDEST PUSH1 0x40 MLOAD DUP1 SWAP2 SUB SWAP1 RETURN JUMPDEST PUSH3 0x19D PUSH3 0x404 JUMP JUMPDEST STOP JUMPDEST PUSH3 0x1BD PUSH1 0x4 DUP1 CALLDATASIZE SUB DUP2 ADD SWAP1 PUSH3 0x1B7 SWAP2 SWAP1 PUSH3 0xC40 JUMP JUMPDEST PUSH3 0x444 JUMP JUMPDEST PUSH1 0x40 MLOAD PUSH3 0x1CC SWAP2 SWAP1 PUSH3 0xE82 JUMP JUMPDEST PUSH1 0x40 MLOAD DUP1 SWAP2 SUB SWAP1 RETURN JUMPDEST PUSH3 0x1F3 PUSH1 0x4 DUP1 CALLDATASIZE SUB DUP2 ADD SWAP1 PUSH3 0x1ED SWAP2 SWAP1 PUSH3 0xB89 JUMP JUMPDEST PUSH3 0x4D7 JUMP JUMPDEST STOP JUMPDEST PUSH3 0x213 PUSH1 0x4 DUP1 CALLDATASIZE SUB DUP2 ADD SWAP1 PUSH3 0x20D SWAP2 SWAP1 PUSH3 0xB57 JUMP JUMPDEST PUSH3 0x91A JUMP JUMPDEST PUSH1 0x40 MLOAD PUSH3 0x222 SWAP2 SWAP1 PUSH3 0xEC3 JUMP JUMPDEST PUSH1 0x40 MLOAD DUP1 SWAP2 SUB SWAP1 RETURN JUMPDEST PUSH3 0x249 PUSH1 0x4 DUP1 CALLDATASIZE SUB DUP2 ADD SWAP1 PUSH3 0x243 SWAP2 SWAP1 PUSH3 0xA7A JUMP JUMPDEST PUSH3 0x94D JUMP JUMPDEST PUSH1 0x40 MLOAD PUSH3 0x258 SWAP2 SWAP1 PUSH3 0xEA6 JUMP JUMPDEST PUSH1 0x40 MLOAD DUP1 SWAP2 SUB SWAP1 RETURN JUMPDEST PUSH1 0x0 DUP2 DUP2 SLOAD DUP2 LT PUSH3 0x272 JUMPI PUSH1 0x0 DUP1 REVERT JUMPDEST SWAP1 PUSH1 0x0 MSTORE PUSH1 0x20 PUSH1 0x0 KECCAK256 ADD PUSH1 0x0 SWAP2 POP SLOAD SWAP1 PUSH2 0x100 EXP SWAP1 DIV PUSH20 0xFFFFFFFFFFFFFFFFFFFFFFFFFFFFFFFFFFFFFFFF AND DUP2 JUMP JUMPDEST PUSH1 0x1 DUP1 PUSH1 0x0 DUP4 PUSH20 0xFFFFFFFFFFFFFFFFFFFFFFFFFFFFFFFFFFFFFFFF AND PUSH20 0xFFFFFFFFFFFFFFFFFFFFFFFFFFFFFFFFFFFFFFFF AND DUP2 MSTORE PUSH1 0x20 ADD SWAP1 DUP2 MSTORE PUSH1 0x20 ADD PUSH1 0x0 KECCAK256 PUSH1 0x0 PUSH2 0x100 EXP DUP2 SLOAD DUP2 PUSH1 0xFF MUL NOT AND SWAP1 DUP4 ISZERO ISZERO MUL OR SWAP1 SSTORE POP POP JUMP JUMPDEST DUP2 PUSH20 0xFFFFFFFFFFFFFFFFFFFFFFFFFFFFFFFFFFFFFFFF AND PUSH4 0x23B872DD ADDRESS DUP4 PUSH9 0x56BC75E2D63100000 PUSH1 0x40 MLOAD DUP5 PUSH4 0xFFFFFFFF AND PUSH1 0xE0 SHL DUP2 MSTORE PUSH1 0x4 ADD PUSH3 0x343 SWAP4 SWAP3 SWAP2 SWAP1 PUSH3 0xE18 JUMP JUMPDEST PUSH1 0x20 PUSH1 0x40 MLOAD DUP1 DUP4 SUB DUP2 PUSH1 0x0 DUP8 DUP1 EXTCODESIZE ISZERO DUP1 ISZERO PUSH3 0x35E JUMPI PUSH1 0x0 DUP1 REVERT JUMPDEST POP GAS CALL ISZERO DUP1 ISZERO PUSH3 0x373 JUMPI RETURNDATASIZE PUSH1 0x0 DUP1 RETURNDATACOPY RETURNDATASIZE PUSH1 0x0 REVERT JUMPDEST POP POP POP POP PUSH1 0x40 MLOAD RETURNDATASIZE PUSH1 0x1F NOT PUSH1 0x1F DUP3 ADD AND DUP3 ADD DUP1 PUSH1 0x40 MSTORE POP DUP2 ADD SWAP1 PUSH3 0x399 SWAP2 SWAP1 PUSH3 0xAAC JUMP JUMPDEST POP POP POP JUMP JUMPDEST PUSH1 0x3 PUSH1 0x20 MSTORE DUP1 PUSH1 0x0 MSTORE PUSH1 0x40 PUSH1 0x0 KECCAK256 PUSH1 0x0 SWAP2 POP SLOAD SWAP1 PUSH2 0x100 EXP SWAP1 DIV PUSH20 0xFFFFFFFFFFFFFFFFFFFFFFFFFFFFFFFFFFFFFFFF AND DUP2 JUMP JUMPDEST PUSH1 0x4 PUSH1 0x20 MSTORE DUP1 PUSH1 0x0 MSTORE PUSH1 0x40 PUSH1 0x0 KECCAK256 PUSH1 0x0 SWAP2 POP SLOAD SWAP1 PUSH2 0x100 EXP SWAP1 DIV PUSH20 0xFFFFFFFFFFFFFFFFFFFFFFFFFFFFFFFFFFFFFFFF AND DUP2 JUMP JUMPDEST PUSH32 0x582BE06AEEDEBE4C8A1518DBA7A1C7622E40CBFBCDBE2569AF5B826E7A16190D PUSH1 0x0 DUP1 SLOAD SWAP1 POP PUSH1 0x40 MLOAD PUSH3 0x43A SWAP2 SWAP1 PUSH3 0xFC5 JUMP JUMPDEST PUSH1 0x40 MLOAD DUP1 SWAP2 SUB SWAP1 LOG1 JUMP JUMPDEST PUSH1 0x60 PUSH1 0x0 DUP1 SLOAD DUP1 PUSH1 0x20 MUL PUSH1 0x20 ADD PUSH1 0x40 MLOAD SWAP1 DUP2 ADD PUSH1 0x40 MSTORE DUP1 SWAP3 SWAP2 SWAP1 DUP2 DUP2 MSTORE PUSH1 0x20 ADD DUP3 DUP1 SLOAD DUP1 ISZERO PUSH3 0x4CA JUMPI PUSH1 0x20 MUL DUP3 ADD SWAP2 SWAP1 PUSH1 0x0 MSTORE PUSH1 0x20 PUSH1 0x0 KECCAK256 SWAP1 JUMPDEST DUP2 PUSH1 0x0 SWAP1 SLOAD SWAP1 PUSH2 0x100 EXP SWAP1 DIV PUSH20 0xFFFFFFFFFFFFFFFFFFFFFFFFFFFFFFFFFFFFFFFF AND PUSH20 0xFFFFFFFFFFFFFFFFFFFFFFFFFFFFFFFFFFFFFFFF AND DUP2 MSTORE PUSH1 0x20 ADD SWAP1 PUSH1 0x1 ADD SWAP1 DUP1 DUP4 GT PUSH3 0x47F JUMPI JUMPDEST POP POP POP POP POP SWAP1 POP SWAP3 SWAP2 POP POP JUMP JUMPDEST PUSH1 0x1 ISZERO ISZERO PUSH1 0x1 PUSH1 0x0 CALLER PUSH20 0xFFFFFFFFFFFFFFFFFFFFFFFFFFFFFFFFFFFFFFFF AND PUSH20 0xFFFFFFFFFFFFFFFFFFFFFFFFFFFFFFFFFFFFFFFF AND DUP2 MSTORE PUSH1 0x20 ADD SWAP1 DUP2 MSTORE PUSH1 0x20 ADD PUSH1 0x0 KECCAK256 PUSH1 0x0 SWAP1 SLOAD SWAP1 PUSH2 0x100 EXP SWAP1 DIV PUSH1 0xFF AND ISZERO ISZERO EQ PUSH3 0x56D JUMPI PUSH1 0x40 MLOAD PUSH32 0x8C379A000000000000000000000000000000000000000000000000000000000 DUP2 MSTORE PUSH1 0x4 ADD PUSH3 0x564 SWAP1 PUSH3 0xFA3 JUMP JUMPDEST PUSH1 0x40 MLOAD DUP1 SWAP2 SUB SWAP1 REVERT JUMPDEST PUSH1 0x0 DUP3 DUP3 ADDRESS PUSH1 0x40 MLOAD PUSH3 0x580 SWAP1 PUSH3 0x96D JUMP JUMPDEST PUSH3 0x58E SWAP4 SWAP3 SWAP2 SWAP1 PUSH3 0xEFD JUMP JUMPDEST PUSH1 0x40 MLOAD DUP1 SWAP2 SUB SWAP1 PUSH1 0x0 CREATE DUP1 ISZERO DUP1 ISZERO PUSH3 0x5AB JUMPI RETURNDATASIZE PUSH1 0x0 DUP1 RETURNDATACOPY RETURNDATASIZE PUSH1 0x0 REVERT JUMPDEST POP SWAP1 POP PUSH1 0x0 DUP4 DUP4 CALLER DUP5 PUSH1 0x40 MLOAD PUSH3 0x5C2 SWAP1 PUSH3 0x97B JUMP JUMPDEST PUSH3 0x5D1 SWAP5 SWAP4 SWAP3 SWAP2 SWAP1 PUSH3 0xF48 JUMP JUMPDEST PUSH1 0x40 MLOAD DUP1 SWAP2 SUB SWAP1 PUSH1 0x0 CREATE DUP1 ISZERO DUP1 ISZERO PUSH3 0x5EE JUMPI RETURNDATASIZE PUSH1 0x0 DUP1 RETURNDATACOPY RETURNDATASIZE PUSH1 0x0 REVERT JUMPDEST POP SWAP1 POP DUP2 PUSH20 0xFFFFFFFFFFFFFFFFFFFFFFFFFFFFFFFFFFFFFFFF AND PUSH4 0x39509351 DUP3 PUSH9 0x3635C9ADC5DEA00000 PUSH1 0x40 MLOAD DUP4 PUSH4 0xFFFFFFFF AND PUSH1 0xE0 SHL DUP2 MSTORE PUSH1 0x4 ADD PUSH3 0x637 SWAP3 SWAP2 SWAP1 PUSH3 0xE55 JUMP JUMPDEST PUSH1 0x20 PUSH1 0x40 MLOAD DUP1 DUP4 SUB DUP2 PUSH1 0x0 DUP8 DUP1 EXTCODESIZE ISZERO DUP1 ISZERO PUSH3 0x652 JUMPI PUSH1 0x0 DUP1 REVERT JUMPDEST POP GAS CALL ISZERO DUP1 ISZERO PUSH3 0x667 JUMPI RETURNDATASIZE PUSH1 0x0 DUP1 RETURNDATACOPY RETURNDATASIZE PUSH1 0x0 REVERT JUMPDEST POP POP POP POP PUSH1 0x40 MLOAD RETURNDATASIZE PUSH1 0x1F NOT PUSH1 0x1F DUP3 ADD AND DUP3 ADD DUP1 PUSH1 0x40 MSTORE POP DUP2 ADD SWAP1 PUSH3 0x68D SWAP2 SWAP1 PUSH3 0xAAC JUMP JUMPDEST POP DUP2 PUSH20 0xFFFFFFFFFFFFFFFFFFFFFFFFFFFFFFFFFFFFFFFF AND PUSH4 0x39509351 ADDRESS PUSH9 0x3635C9ADC5DEA00000 PUSH1 0x40 MLOAD DUP4 PUSH4 0xFFFFFFFF AND PUSH1 0xE0 SHL DUP2 MSTORE PUSH1 0x4 ADD PUSH3 0x6D4 SWAP3 SWAP2 SWAP1 PUSH3 0xE55 JUMP JUMPDEST PUSH1 0x20 PUSH1 0x40 MLOAD DUP1 DUP4 SUB DUP2 PUSH1 0x0 DUP8 DUP1 EXTCODESIZE ISZERO DUP1 ISZERO PUSH3 0x6EF JUMPI PUSH1 0x0 DUP1 REVERT JUMPDEST POP GAS CALL ISZERO DUP1 ISZERO PUSH3 0x704 JUMPI RETURNDATASIZE PUSH1 0x0 DUP1 RETURNDATACOPY RETURNDATASIZE PUSH1 0x0 REVERT JUMPDEST POP POP POP POP PUSH1 0x40 MLOAD RETURNDATASIZE PUSH1 0x1F NOT PUSH1 0x1F DUP3 ADD AND DUP3 ADD DUP1 PUSH1 0x40 MSTORE POP DUP2 ADD SWAP1 PUSH3 0x72A SWAP2 SWAP1 PUSH3 0xAAC JUMP JUMPDEST POP DUP2 PUSH1 0x2 PUSH1 0x0 DUP4 PUSH20 0xFFFFFFFFFFFFFFFFFFFFFFFFFFFFFFFFFFFFFFFF AND PUSH20 0xFFFFFFFFFFFFFFFFFFFFFFFFFFFFFFFFFFFFFFFF AND DUP2 MSTORE PUSH1 0x20 ADD SWAP1 DUP2 MSTORE PUSH1 0x20 ADD PUSH1 0x0 KECCAK256 PUSH1 0x0 PUSH2 0x100 EXP DUP2 SLOAD DUP2 PUSH20 0xFFFFFFFFFFFFFFFFFFFFFFFFFFFFFFFFFFFFFFFF MUL NOT AND SWAP1 DUP4 PUSH20 0xFFFFFFFFFFFFFFFFFFFFFFFFFFFFFFFFFFFFFFFF AND MUL OR SWAP1 SSTORE POP CALLER PUSH1 0x3 PUSH1 0x0 DUP4 PUSH20 0xFFFFFFFFFFFFFFFFFFFFFFFFFFFFFFFFFFFFFFFF AND PUSH20 0xFFFFFFFFFFFFFFFFFFFFFFFFFFFFFFFFFFFFFFFF AND DUP2 MSTORE PUSH1 0x20 ADD SWAP1 DUP2 MSTORE PUSH1 0x20 ADD PUSH1 0x0 KECCAK256 PUSH1 0x0 PUSH2 0x100 EXP DUP2 SLOAD DUP2 PUSH20 0xFFFFFFFFFFFFFFFFFFFFFFFFFFFFFFFFFFFFFFFF MUL NOT AND SWAP1 DUP4 PUSH20 0xFFFFFFFFFFFFFFFFFFFFFFFFFFFFFFFFFFFFFFFF AND MUL OR SWAP1 SSTORE POP CALLER PUSH1 0x4 PUSH1 0x0 DUP5 PUSH20 0xFFFFFFFFFFFFFFFFFFFFFFFFFFFFFFFFFFFFFFFF AND PUSH20 0xFFFFFFFFFFFFFFFFFFFFFFFFFFFFFFFFFFFFFFFF AND DUP2 MSTORE PUSH1 0x20 ADD SWAP1 DUP2 MSTORE PUSH1 0x20 ADD PUSH1 0x0 KECCAK256 PUSH1 0x0 PUSH2 0x100 EXP DUP2 SLOAD DUP2 PUSH20 0xFFFFFFFFFFFFFFFFFFFFFFFFFFFFFFFFFFFFFFFF MUL NOT AND SWAP1 DUP4 PUSH20 0xFFFFFFFFFFFFFFFFFFFFFFFFFFFFFFFFFFFFFFFF AND MUL OR SWAP1 SSTORE POP PUSH1 0x0 DUP2 SWAP1 DUP1 PUSH1 0x1 DUP2 SLOAD ADD DUP1 DUP3 SSTORE DUP1 SWAP2 POP POP PUSH1 0x1 SWAP1 SUB SWAP1 PUSH1 0x0 MSTORE PUSH1 0x20 PUSH1 0x0 KECCAK256 ADD PUSH1 0x0 SWAP1 SWAP2 SWAP1 SWAP2 SWAP1 SWAP2 PUSH2 0x100 EXP DUP2 SLOAD DUP2 PUSH20 0xFFFFFFFFFFFFFFFFFFFFFFFFFFFFFFFFFFFFFFFF MUL NOT AND SWAP1 DUP4 PUSH20 0xFFFFFFFFFFFFFFFFFFFFFFFFFFFFFFFFFFFFFFFF AND MUL OR SWAP1 SSTORE POP PUSH3 0x914 DUP3 DUP3 PUSH3 0x2FB JUMP JUMPDEST POP POP POP POP JUMP JUMPDEST PUSH1 0x2 PUSH1 0x20 MSTORE DUP1 PUSH1 0x0 MSTORE PUSH1 0x40 PUSH1 0x0 KECCAK256 PUSH1 0x0 SWAP2 POP SLOAD SWAP1 PUSH2 0x100 EXP SWAP1 DIV PUSH20 0xFFFFFFFFFFFFFFFFFFFFFFFFFFFFFFFFFFFFFFFF AND DUP2 JUMP JUMPDEST PUSH1 0x1 PUSH1 0x20 MSTORE DUP1 PUSH1 0x0 MSTORE PUSH1 0x40 PUSH1 0x0 KECCAK256 PUSH1 0x0 SWAP2 POP SLOAD SWAP1 PUSH2 0x100 EXP SWAP1 DIV PUSH1 0xFF AND DUP2 JUMP JUMPDEST PUSH2 0x23A3 DUP1 PUSH3 0x12FB DUP4 CODECOPY ADD SWAP1 JUMP JUMPDEST PUSH2 0x1CEA DUP1 PUSH3 0x369E DUP4 CODECOPY ADD SWAP1 JUMP JUMPDEST PUSH1 0x0 PUSH3 0x9A0 PUSH3 0x99A DUP5 PUSH3 0x100B JUMP JUMPDEST PUSH3 0xFE2 JUMP JUMPDEST SWAP1 POP DUP3 DUP2 MSTORE PUSH1 0x20 DUP2 ADD DUP5 DUP5 DUP5 ADD GT ISZERO PUSH3 0x9BF JUMPI PUSH3 0x9BE PUSH3 0x122F JUMP JUMPDEST JUMPDEST PUSH3 0x9CC DUP5 DUP3 DUP6 PUSH3 0x1180 JUMP JUMPDEST POP SWAP4 SWAP3 POP POP POP JUMP JUMPDEST PUSH1 0x0 DUP2 CALLDATALOAD SWAP1 POP PUSH3 0x9E5 DUP2 PUSH3 0x1278 JUMP JUMPDEST SWAP3 SWAP2 POP POP JUMP JUMPDEST PUSH1 0x0 DUP2 MLOAD SWAP1 POP PUSH3 0x9FC DUP2 PUSH3 0x1292 JUMP JUMPDEST SWAP3 SWAP2 POP POP JUMP JUMPDEST PUSH1 0x0 DUP2 CALLDATALOAD SWAP1 POP PUSH3 0xA13 DUP2 PUSH3 0x12AC JUMP JUMPDEST SWAP3 SWAP2 POP POP JUMP JUMPDEST PUSH1 0x0 DUP2 CALLDATALOAD SWAP1 POP PUSH3 0xA2A DUP2 PUSH3 0x12C6 JUMP JUMPDEST SWAP3 SWAP2 POP POP JUMP JUMPDEST PUSH1 0x0 DUP3 PUSH1 0x1F DUP4 ADD SLT PUSH3 0xA48 JUMPI PUSH3 0xA47 PUSH3 0x122A JUMP JUMPDEST JUMPDEST DUP2 CALLDATALOAD PUSH3 0xA5A DUP5 DUP3 PUSH1 0x20 DUP7 ADD PUSH3 0x989 JUMP JUMPDEST SWAP2 POP POP SWAP3 SWAP2 POP POP JUMP JUMPDEST PUSH1 0x0 DUP2 CALLDATALOAD SWAP1 POP PUSH3 0xA74 DUP2 PUSH3 0x12E0 JUMP JUMPDEST SWAP3 SWAP2 POP POP JUMP JUMPDEST PUSH1 0x0 PUSH1 0x20 DUP3 DUP5 SUB SLT ISZERO PUSH3 0xA93 JUMPI PUSH3 0xA92 PUSH3 0x1239 JUMP JUMPDEST JUMPDEST PUSH1 0x0 PUSH3 0xAA3 DUP5 DUP3 DUP6 ADD PUSH3 0x9D4 JUMP JUMPDEST SWAP2 POP POP SWAP3 SWAP2 POP POP JUMP JUMPDEST PUSH1 0x0 PUSH1 0x20 DUP3 DUP5 SUB SLT ISZERO PUSH3 0xAC5 JUMPI PUSH3 0xAC4 PUSH3 0x1239 JUMP JUMPDEST JUMPDEST PUSH1 0x0 PUSH3 0xAD5 DUP5 DUP3 DUP6 ADD PUSH3 0x9EB JUMP JUMPDEST SWAP2 POP POP SWAP3 SWAP2 POP POP JUMP JUMPDEST PUSH1 0x0 PUSH1 0x20 DUP3 DUP5 SUB SLT ISZERO PUSH3 0xAF7 JUMPI PUSH3 0xAF6 PUSH3 0x1239 JUMP JUMPDEST JUMPDEST PUSH1 0x0 PUSH3 0xB07 DUP5 DUP3 DUP6 ADD PUSH3 0xA02 JUMP JUMPDEST SWAP2 POP POP SWAP3 SWAP2 POP POP JUMP JUMPDEST PUSH1 0x0 DUP1 PUSH1 0x40 DUP4 DUP6 SUB SLT ISZERO PUSH3 0xB2A JUMPI PUSH3 0xB29 PUSH3 0x1239 JUMP JUMPDEST JUMPDEST PUSH1 0x0 PUSH3 0xB3A DUP6 DUP3 DUP7 ADD PUSH3 0xA02 JUMP JUMPDEST SWAP3 POP POP PUSH1 0x20 PUSH3 0xB4D DUP6 DUP3 DUP7 ADD PUSH3 0xA19 JUMP JUMPDEST SWAP2 POP POP SWAP3 POP SWAP3 SWAP1 POP JUMP JUMPDEST PUSH1 0x0 PUSH1 0x20 DUP3 DUP5 SUB SLT ISZERO PUSH3 0xB70 JUMPI PUSH3 0xB6F PUSH3 0x1239 JUMP JUMPDEST JUMPDEST PUSH1 0x0 PUSH3 0xB80 DUP5 DUP3 DUP6 ADD PUSH3 0xA19 JUMP JUMPDEST SWAP2 POP POP SWAP3 SWAP2 POP POP JUMP JUMPDEST PUSH1 0x0 DUP1 PUSH1 0x40 DUP4 DUP6 SUB SLT ISZERO PUSH3 0xBA3 JUMPI PUSH3 0xBA2 PUSH3 0x1239 JUMP JUMPDEST JUMPDEST PUSH1 0x0 DUP4 ADD CALLDATALOAD PUSH8 0xFFFFFFFFFFFFFFFF DUP2 GT ISZERO PUSH3 0xBC4 JUMPI PUSH3 0xBC3 PUSH3 0x1234 JUMP JUMPDEST JUMPDEST PUSH3 0xBD2 DUP6 DUP3 DUP7 ADD PUSH3 0xA30 JUMP JUMPDEST SWAP3 POP POP PUSH1 0x20 DUP4 ADD CALLDATALOAD PUSH8 0xFFFFFFFFFFFFFFFF DUP2 GT ISZERO PUSH3 0xBF6 JUMPI PUSH3 0xBF5 PUSH3 0x1234 JUMP JUMPDEST JUMPDEST PUSH3 0xC04 DUP6 DUP3 DUP7 ADD PUSH3 0xA30 JUMP JUMPDEST SWAP2 POP POP SWAP3 POP SWAP3 SWAP1 POP JUMP JUMPDEST PUSH1 0x0 PUSH1 0x20 DUP3 DUP5 SUB SLT ISZERO PUSH3 0xC27 JUMPI PUSH3 0xC26 PUSH3 0x1239 JUMP JUMPDEST JUMPDEST PUSH1 0x0 PUSH3 0xC37 DUP5 DUP3 DUP6 ADD PUSH3 0xA63 JUMP JUMPDEST SWAP2 POP POP SWAP3 SWAP2 POP POP JUMP JUMPDEST PUSH1 0x0 DUP1 PUSH1 0x40 DUP4 DUP6 SUB SLT ISZERO PUSH3 0xC5A JUMPI PUSH3 0xC59 PUSH3 0x1239 JUMP JUMPDEST JUMPDEST PUSH1 0x0 PUSH3 0xC6A DUP6 DUP3 DUP7 ADD PUSH3 0xA63 JUMP JUMPDEST SWAP3 POP POP PUSH1 0x20 PUSH3 0xC7D DUP6 DUP3 DUP7 ADD PUSH3 0xA63 JUMP JUMPDEST SWAP2 POP POP SWAP3 POP SWAP3 SWAP1 POP JUMP JUMPDEST PUSH1 0x0 PUSH3 0xC95 DUP4 DUP4 PUSH3 0xD3E JUMP JUMPDEST PUSH1 0x20 DUP4 ADD SWAP1 POP SWAP3 SWAP2 POP POP JUMP JUMPDEST PUSH3 0xCAC DUP2 PUSH3 0x1096 JUMP JUMPDEST DUP3 MSTORE POP POP JUMP JUMPDEST PUSH1 0x0 PUSH3 0xCBF DUP3 PUSH3 0x1051 JUMP JUMPDEST PUSH3 0xCCB DUP2 DUP6 PUSH3 0x1074 JUMP JUMPDEST SWAP4 POP PUSH3 0xCD8 DUP4 PUSH3 0x1041 JUMP JUMPDEST DUP1 PUSH1 0x0 JUMPDEST DUP4 DUP2 LT ISZERO PUSH3 0xD0F JUMPI DUP2 MLOAD PUSH3 0xCF3 DUP9 DUP3 PUSH3 0xC87 JUMP JUMPDEST SWAP8 POP PUSH3 0xD00 DUP4 PUSH3 0x1067 JUMP JUMPDEST SWAP3 POP POP PUSH1 0x1 DUP2 ADD SWAP1 POP PUSH3 0xCDC JUMP JUMPDEST POP DUP6 SWAP4 POP POP POP POP SWAP3 SWAP2 POP POP JUMP JUMPDEST PUSH3 0xD27 DUP2 PUSH3 0x10AA JUMP JUMPDEST DUP3 MSTORE POP POP JUMP JUMPDEST PUSH3 0xD38 DUP2 PUSH3 0x1108 JUMP JUMPDEST DUP3 MSTORE POP POP JUMP JUMPDEST PUSH3 0xD49 DUP2 PUSH3 0x111C JUMP JUMPDEST DUP3 MSTORE POP POP JUMP JUMPDEST PUSH3 0xD5A DUP2 PUSH3 0x111C JUMP JUMPDEST DUP3 MSTORE POP POP JUMP JUMPDEST PUSH3 0xD6B DUP2 PUSH3 0x1130 JUMP JUMPDEST DUP3 MSTORE POP POP JUMP JUMPDEST PUSH3 0xD7C DUP2 PUSH3 0x1144 JUMP JUMPDEST DUP3 MSTORE POP POP JUMP JUMPDEST PUSH1 0x0 PUSH3 0xD8F DUP3 PUSH3 0x105C JUMP JUMPDEST PUSH3 0xD9B DUP2 DUP6 PUSH3 0x1085 JUMP JUMPDEST SWAP4 POP PUSH3 0xDAD DUP2 DUP6 PUSH1 0x20 DUP7 ADD PUSH3 0x118F JUMP JUMPDEST PUSH3 0xDB8 DUP2 PUSH3 0x123E JUMP JUMPDEST DUP5 ADD SWAP2 POP POP SWAP3 SWAP2 POP POP JUMP JUMPDEST PUSH1 0x0 PUSH3 0xDD2 PUSH1 0x1A DUP4 PUSH3 0x1085 JUMP JUMPDEST SWAP2 POP PUSH3 0xDDF DUP3 PUSH3 0x124F JUMP JUMPDEST PUSH1 0x20 DUP3 ADD SWAP1 POP SWAP2 SWAP1 POP JUMP JUMPDEST PUSH3 0xDF5 DUP2 PUSH3 0x10FE JUMP JUMPDEST DUP3 MSTORE POP POP JUMP JUMPDEST PUSH1 0x0 PUSH1 0x20 DUP3 ADD SWAP1 POP PUSH3 0xE12 PUSH1 0x0 DUP4 ADD DUP5 PUSH3 0xCA1 JUMP JUMPDEST SWAP3 SWAP2 POP POP JUMP JUMPDEST PUSH1 0x0 PUSH1 0x60 DUP3 ADD SWAP1 POP PUSH3 0xE2F PUSH1 0x0 DUP4 ADD DUP7 PUSH3 0xCA1 JUMP JUMPDEST PUSH3 0xE3E PUSH1 0x20 DUP4 ADD DUP6 PUSH3 0xCA1 JUMP JUMPDEST PUSH3 0xE4D PUSH1 0x40 DUP4 ADD DUP5 PUSH3 0xD71 JUMP JUMPDEST SWAP5 SWAP4 POP POP POP POP JUMP JUMPDEST PUSH1 0x0 PUSH1 0x40 DUP3 ADD SWAP1 POP PUSH3 0xE6C PUSH1 0x0 DUP4 ADD DUP6 PUSH3 0xCA1 JUMP JUMPDEST PUSH3 0xE7B PUSH1 0x20 DUP4 ADD DUP5 PUSH3 0xD60 JUMP JUMPDEST SWAP4 SWAP3 POP POP POP JUMP JUMPDEST PUSH1 0x0 PUSH1 0x20 DUP3 ADD SWAP1 POP DUP2 DUP2 SUB PUSH1 0x0 DUP4 ADD MSTORE PUSH3 0xE9E DUP2 DUP5 PUSH3 0xCB2 JUMP JUMPDEST SWAP1 POP SWAP3 SWAP2 POP POP JUMP JUMPDEST PUSH1 0x0 PUSH1 0x20 DUP3 ADD SWAP1 POP PUSH3 0xEBD PUSH1 0x0 DUP4 ADD DUP5 PUSH3 0xD1C JUMP JUMPDEST SWAP3 SWAP2 POP POP JUMP JUMPDEST PUSH1 0x0 PUSH1 0x20 DUP3 ADD SWAP1 POP PUSH3 0xEDA PUSH1 0x0 DUP4 ADD DUP5 PUSH3 0xD2D JUMP JUMPDEST SWAP3 SWAP2 POP POP JUMP JUMPDEST PUSH1 0x0 PUSH1 0x20 DUP3 ADD SWAP1 POP PUSH3 0xEF7 PUSH1 0x0 DUP4 ADD DUP5 PUSH3 0xD4F JUMP JUMPDEST SWAP3 SWAP2 POP POP JUMP JUMPDEST PUSH1 0x0 PUSH1 0x60 DUP3 ADD SWAP1 POP DUP2 DUP2 SUB PUSH1 0x0 DUP4 ADD MSTORE PUSH3 0xF19 DUP2 DUP7 PUSH3 0xD82 JUMP JUMPDEST SWAP1 POP DUP2 DUP2 SUB PUSH1 0x20 DUP4 ADD MSTORE PUSH3 0xF2F DUP2 DUP6 PUSH3 0xD82 JUMP JUMPDEST SWAP1 POP PUSH3 0xF40 PUSH1 0x40 DUP4 ADD DUP5 PUSH3 0xCA1 JUMP JUMPDEST SWAP5 SWAP4 POP POP POP POP JUMP JUMPDEST PUSH1 0x0 PUSH1 0x80 DUP3 ADD SWAP1 POP DUP2 DUP2 SUB PUSH1 0x0 DUP4 ADD MSTORE PUSH3 0xF64 DUP2 DUP8 PUSH3 0xD82 JUMP JUMPDEST SWAP1 POP DUP2 DUP2 SUB PUSH1 0x20 DUP4 ADD MSTORE PUSH3 0xF7A DUP2 DUP7 PUSH3 0xD82 JUMP JUMPDEST SWAP1 POP PUSH3 0xF8B PUSH1 0x40 DUP4 ADD DUP6 PUSH3 0xCA1 JUMP JUMPDEST PUSH3 0xF9A PUSH1 0x60 DUP4 ADD DUP5 PUSH3 0xD2D JUMP JUMPDEST SWAP6 SWAP5 POP POP POP POP POP JUMP JUMPDEST PUSH1 0x0 PUSH1 0x20 DUP3 ADD SWAP1 POP DUP2 DUP2 SUB PUSH1 0x0 DUP4 ADD MSTORE PUSH3 0xFBE DUP2 PUSH3 0xDC3 JUMP JUMPDEST SWAP1 POP SWAP2 SWAP1 POP JUMP JUMPDEST PUSH1 0x0 PUSH1 0x20 DUP3 ADD SWAP1 POP PUSH3 0xFDC PUSH1 0x0 DUP4 ADD DUP5 PUSH3 0xDEA JUMP JUMPDEST SWAP3 SWAP2 POP POP JUMP JUMPDEST PUSH1 0x0 PUSH3 0xFEE PUSH3 0x1001 JUMP JUMPDEST SWAP1 POP PUSH3 0xFFC DUP3 DUP3 PUSH3 0x11C5 JUMP JUMPDEST SWAP2 SWAP1 POP JUMP JUMPDEST PUSH1 0x0 PUSH1 0x40 MLOAD SWAP1 POP SWAP1 JUMP JUMPDEST PUSH1 0x0 PUSH8 0xFFFFFFFFFFFFFFFF DUP3 GT ISZERO PUSH3 0x1029 JUMPI PUSH3 0x1028 PUSH3 0x11FB JUMP JUMPDEST JUMPDEST PUSH3 0x1034 DUP3 PUSH3 0x123E JUMP JUMPDEST SWAP1 POP PUSH1 0x20 DUP2 ADD SWAP1 POP SWAP2 SWAP1 POP JUMP JUMPDEST PUSH1 0x0 DUP2 SWAP1 POP PUSH1 0x20 DUP3 ADD SWAP1 POP SWAP2 SWAP1 POP JUMP JUMPDEST PUSH1 0x0 DUP2 MLOAD SWAP1 POP SWAP2 SWAP1 POP JUMP JUMPDEST PUSH1 0x0 DUP2 MLOAD SWAP1 POP SWAP2 SWAP1 POP JUMP JUMPDEST PUSH1 0x0 PUSH1 0x20 DUP3 ADD SWAP1 POP SWAP2 SWAP1 POP JUMP JUMPDEST PUSH1 0x0 DUP3 DUP3 MSTORE PUSH1 0x20 DUP3 ADD SWAP1 POP SWAP3 SWAP2 POP POP JUMP JUMPDEST PUSH1 0x0 DUP3 DUP3 MSTORE PUSH1 0x20 DUP3 ADD SWAP1 POP SWAP3 SWAP2 POP POP JUMP JUMPDEST PUSH1 0x0 PUSH3 0x10A3 DUP3 PUSH3 0x10DE JUMP JUMPDEST SWAP1 POP SWAP2 SWAP1 POP JUMP JUMPDEST PUSH1 0x0 DUP2 ISZERO ISZERO SWAP1 POP SWAP2 SWAP1 POP JUMP JUMPDEST PUSH1 0x0 PUSH3 0x10C3 DUP3 PUSH3 0x1096 JUMP JUMPDEST SWAP1 POP SWAP2 SWAP1 POP JUMP JUMPDEST PUSH1 0x0 PUSH3 0x10D7 DUP3 PUSH3 0x1096 JUMP JUMPDEST SWAP1 POP SWAP2 SWAP1 POP JUMP JUMPDEST PUSH1 0x0 PUSH20 0xFFFFFFFFFFFFFFFFFFFFFFFFFFFFFFFFFFFFFFFF DUP3 AND SWAP1 POP SWAP2 SWAP1 POP JUMP JUMPDEST PUSH1 0x0 DUP2 SWAP1 POP SWAP2 SWAP1 POP JUMP JUMPDEST PUSH1 0x0 PUSH3 0x1115 DUP3 PUSH3 0x1158 JUMP JUMPDEST SWAP1 POP SWAP2 SWAP1 POP JUMP JUMPDEST PUSH1 0x0 PUSH3 0x1129 DUP3 PUSH3 0x1158 JUMP JUMPDEST SWAP1 POP SWAP2 SWAP1 POP JUMP JUMPDEST PUSH1 0x0 PUSH3 0x113D DUP3 PUSH3 0x10FE JUMP JUMPDEST SWAP1 POP SWAP2 SWAP1 POP JUMP JUMPDEST PUSH1 0x0 PUSH3 0x1151 DUP3 PUSH3 0x10FE JUMP JUMPDEST SWAP1 POP SWAP2 SWAP1 POP JUMP JUMPDEST PUSH1 0x0 PUSH3 0x1165 DUP3 PUSH3 0x116C JUMP JUMPDEST SWAP1 POP SWAP2 SWAP1 POP JUMP JUMPDEST PUSH1 0x0 PUSH3 0x1179 DUP3 PUSH3 0x10DE JUMP JUMPDEST SWAP1 POP SWAP2 SWAP1 POP JUMP JUMPDEST DUP3 DUP2 DUP4 CALLDATACOPY PUSH1 0x0 DUP4 DUP4 ADD MSTORE POP POP POP JUMP JUMPDEST PUSH1 0x0 JUMPDEST DUP4 DUP2 LT ISZERO PUSH3 0x11AF JUMPI DUP1 DUP3 ADD MLOAD DUP2 DUP5 ADD MSTORE PUSH1 0x20 DUP2 ADD SWAP1 POP PUSH3 0x1192 JUMP JUMPDEST DUP4 DUP2 GT ISZERO PUSH3 0x11BF JUMPI PUSH1 0x0 DUP5 DUP5 ADD MSTORE JUMPDEST POP POP POP POP JUMP JUMPDEST PUSH3 0x11D0 DUP3 PUSH3 0x123E JUMP JUMPDEST DUP2 ADD DUP2 DUP2 LT PUSH8 0xFFFFFFFFFFFFFFFF DUP3 GT OR ISZERO PUSH3 0x11F2 JUMPI PUSH3 0x11F1 PUSH3 0x11FB JUMP JUMPDEST JUMPDEST DUP1 PUSH1 0x40 MSTORE POP POP POP JUMP JUMPDEST PUSH32 0x4E487B7100000000000000000000000000000000000000000000000000000000 PUSH1 0x0 MSTORE PUSH1 0x41 PUSH1 0x4 MSTORE PUSH1 0x24 PUSH1 0x0 REVERT JUMPDEST PUSH1 0x0 DUP1 REVERT JUMPDEST PUSH1 0x0 DUP1 REVERT JUMPDEST PUSH1 0x0 DUP1 REVERT JUMPDEST PUSH1 0x0 DUP1 REVERT JUMPDEST PUSH1 0x0 PUSH1 0x1F NOT PUSH1 0x1F DUP4 ADD AND SWAP1 POP SWAP2 SWAP1 POP JUMP JUMPDEST PUSH32 0x4E6F7420616464656420617320612044414F2043726561746F72000000000000 PUSH1 0x0 DUP3 ADD MSTORE POP JUMP JUMPDEST PUSH3 0x1283 DUP2 PUSH3 0x1096 JUMP JUMPDEST DUP2 EQ PUSH3 0x128F JUMPI PUSH1 0x0 DUP1 REVERT JUMPDEST POP JUMP JUMPDEST PUSH3 0x129D DUP2 PUSH3 0x10AA JUMP JUMPDEST DUP2 EQ PUSH3 0x12A9 JUMPI PUSH1 0x0 DUP1 REVERT JUMPDEST POP JUMP JUMPDEST PUSH3 0x12B7 DUP2 PUSH3 0x10B6 JUMP JUMPDEST DUP2 EQ PUSH3 0x12C3 JUMPI PUSH1 0x0 DUP1 REVERT JUMPDEST POP JUMP JUMPDEST PUSH3 0x12D1 DUP2 PUSH3 0x10CA JUMP JUMPDEST DUP2 EQ PUSH3 0x12DD JUMPI PUSH1 0x0 DUP1 REVERT JUMPDEST POP JUMP JUMPDEST PUSH3 0x12EB DUP2 PUSH3 0x10FE JUMP JUMPDEST DUP2 EQ PUSH3 0x12F7 JUMPI PUSH1 0x0 DUP1 REVERT JUMPDEST POP JUMP INVALID PUSH1 0x80 PUSH1 0x40 MSTORE CALLVALUE DUP1 ISZERO PUSH3 0x11 JUMPI PUSH1 0x0 DUP1 REVERT JUMPDEST POP PUSH1 0x40 MLOAD PUSH3 0x23A3 CODESIZE SUB DUP1 PUSH3 0x23A3 DUP4 CODECOPY DUP2 DUP2 ADD PUSH1 0x40 MSTORE DUP2 ADD SWAP1 PUSH3 0x37 SWAP2 SWAP1 PUSH3 0x549 JUMP JUMPDEST DUP3 DUP3 DUP2 PUSH1 0x3 SWAP1 DUP1 MLOAD SWAP1 PUSH1 0x20 ADD SWAP1 PUSH3 0x51 SWAP3 SWAP2 SWAP1 PUSH3 0x404 JUMP JUMPDEST POP DUP1 PUSH1 0x4 SWAP1 DUP1 MLOAD SWAP1 PUSH1 0x20 ADD SWAP1 PUSH3 0x6A SWAP3 SWAP2 SWAP1 PUSH3 0x404 JUMP JUMPDEST POP POP POP PUSH3 0x8D PUSH3 0x81 PUSH3 0xD4 PUSH1 0x20 SHL PUSH1 0x20 SHR JUMP JUMPDEST PUSH3 0xDC PUSH1 0x20 SHL PUSH1 0x20 SHR JUMP JUMPDEST PUSH3 0xCB DUP2 PUSH3 0xA2 PUSH3 0x1A2 PUSH1 0x20 SHL PUSH1 0x20 SHR JUMP JUMPDEST PUSH1 0xA PUSH3 0xB0 SWAP2 SWAP1 PUSH3 0x7CB JUMP JUMPDEST PUSH2 0x3E8 PUSH3 0xBF SWAP2 SWAP1 PUSH3 0x908 JUMP JUMPDEST PUSH3 0x1AB PUSH1 0x20 SHL PUSH1 0x20 SHR JUMP JUMPDEST POP POP POP PUSH3 0xB81 JUMP JUMPDEST PUSH1 0x0 CALLER SWAP1 POP SWAP1 JUMP JUMPDEST PUSH1 0x0 PUSH1 0x5 PUSH1 0x0 SWAP1 SLOAD SWAP1 PUSH2 0x100 EXP SWAP1 DIV PUSH20 0xFFFFFFFFFFFFFFFFFFFFFFFFFFFFFFFFFFFFFFFF AND SWAP1 POP DUP2 PUSH1 0x5 PUSH1 0x0 PUSH2 0x100 EXP DUP2 SLOAD DUP2 PUSH20 0xFFFFFFFFFFFFFFFFFFFFFFFFFFFFFFFFFFFFFFFF MUL NOT AND SWAP1 DUP4 PUSH20 0xFFFFFFFFFFFFFFFFFFFFFFFFFFFFFFFFFFFFFFFF AND MUL OR SWAP1 SSTORE POP DUP2 PUSH20 0xFFFFFFFFFFFFFFFFFFFFFFFFFFFFFFFFFFFFFFFF AND DUP2 PUSH20 0xFFFFFFFFFFFFFFFFFFFFFFFFFFFFFFFFFFFFFFFF AND PUSH32 0x8BE0079C531659141344CD1FD0A4F28419497F9722A3DAAFE3B4186F6B6457E0 PUSH1 0x40 MLOAD PUSH1 0x40 MLOAD DUP1 SWAP2 SUB SWAP1 LOG3 POP POP JUMP JUMPDEST PUSH1 0x0 PUSH1 0x12 SWAP1 POP SWAP1 JUMP JUMPDEST PUSH3 0x1BB PUSH3 0x1D1 PUSH1 0x20 SHL PUSH1 0x20 SHR JUMP JUMPDEST PUSH3 0x1CD DUP3 DUP3 PUSH3 0x262 PUSH1 0x20 SHL PUSH1 0x20 SHR JUMP JUMPDEST POP POP JUMP JUMPDEST PUSH3 0x1E1 PUSH3 0xD4 PUSH1 0x20 SHL PUSH1 0x20 SHR JUMP JUMPDEST PUSH20 0xFFFFFFFFFFFFFFFFFFFFFFFFFFFFFFFFFFFFFFFF AND PUSH3 0x207 PUSH3 0x3D0 PUSH1 0x20 SHL PUSH1 0x20 SHR JUMP JUMPDEST PUSH20 0xFFFFFFFFFFFFFFFFFFFFFFFFFFFFFFFFFFFFFFFF AND EQ PUSH3 0x260 JUMPI PUSH1 0x40 MLOAD PUSH32 0x8C379A000000000000000000000000000000000000000000000000000000000 DUP2 MSTORE PUSH1 0x4 ADD PUSH3 0x257 SWAP1 PUSH3 0x642 JUMP JUMPDEST PUSH1 0x40 MLOAD DUP1 SWAP2 SUB SWAP1 REVERT JUMPDEST JUMP JUMPDEST PUSH1 0x0 PUSH20 0xFFFFFFFFFFFFFFFFFFFFFFFFFFFFFFFFFFFFFFFF AND DUP3 PUSH20 0xFFFFFFFFFFFFFFFFFFFFFFFFFFFFFFFFFFFFFFFF AND EQ ISZERO PUSH3 0x2D5 JUMPI PUSH1 0x40 MLOAD PUSH32 0x8C379A000000000000000000000000000000000000000000000000000000000 DUP2 MSTORE PUSH1 0x4 ADD PUSH3 0x2CC SWAP1 PUSH3 0x664 JUMP JUMPDEST PUSH1 0x40 MLOAD DUP1 SWAP2 SUB SWAP1 REVERT JUMPDEST PUSH3 0x2E9 PUSH1 0x0 DUP4 DUP4 PUSH3 0x3FA PUSH1 0x20 SHL PUSH1 0x20 SHR JUMP JUMPDEST DUP1 PUSH1 0x2 PUSH1 0x0 DUP3 DUP3 SLOAD PUSH3 0x2FD SWAP2 SWAP1 PUSH3 0x713 JUMP JUMPDEST SWAP3 POP POP DUP2 SWAP1 SSTORE POP DUP1 PUSH1 0x0 DUP1 DUP5 PUSH20 0xFFFFFFFFFFFFFFFFFFFFFFFFFFFFFFFFFFFFFFFF AND PUSH20 0xFFFFFFFFFFFFFFFFFFFFFFFFFFFFFFFFFFFFFFFF AND DUP2 MSTORE PUSH1 0x20 ADD SWAP1 DUP2 MSTORE PUSH1 0x20 ADD PUSH1 0x0 KECCAK256 PUSH1 0x0 DUP3 DUP3 SLOAD ADD SWAP3 POP POP DUP2 SWAP1 SSTORE POP DUP2 PUSH20 0xFFFFFFFFFFFFFFFFFFFFFFFFFFFFFFFFFFFFFFFF AND PUSH1 0x0 PUSH20 0xFFFFFFFFFFFFFFFFFFFFFFFFFFFFFFFFFFFFFFFF AND PUSH32 0xDDF252AD1BE2C89B69C2B068FC378DAA952BA7F163C4A11628F55A4DF523B3EF DUP4 PUSH1 0x40 MLOAD PUSH3 0x3B0 SWAP2 SWAP1 PUSH3 0x686 JUMP JUMPDEST PUSH1 0x40 MLOAD DUP1 SWAP2 SUB SWAP1 LOG3 PUSH3 0x3CC PUSH1 0x0 DUP4 DUP4 PUSH3 0x3FF PUSH1 0x20 SHL PUSH1 0x20 SHR JUMP JUMPDEST POP POP JUMP JUMPDEST PUSH1 0x0 PUSH1 0x5 PUSH1 0x0 SWAP1 SLOAD SWAP1 PUSH2 0x100 EXP SWAP1 DIV PUSH20 0xFFFFFFFFFFFFFFFFFFFFFFFFFFFFFFFFFFFFFFFF AND SWAP1 POP SWAP1 JUMP JUMPDEST POP POP POP JUMP JUMPDEST POP POP POP JUMP JUMPDEST DUP3 DUP1 SLOAD PUSH3 0x412 SWAP1 PUSH3 0x9EA JUMP JUMPDEST SWAP1 PUSH1 0x0 MSTORE PUSH1 0x20 PUSH1 0x0 KECCAK256 SWAP1 PUSH1 0x1F ADD PUSH1 0x20 SWAP1 DIV DUP2 ADD SWAP3 DUP3 PUSH3 0x436 JUMPI PUSH1 0x0 DUP6 SSTORE PUSH3 0x482 JUMP JUMPDEST DUP3 PUSH1 0x1F LT PUSH3 0x451 JUMPI DUP1 MLOAD PUSH1 0xFF NOT AND DUP4 DUP1 ADD OR DUP6 SSTORE PUSH3 0x482 JUMP JUMPDEST DUP3 DUP1 ADD PUSH1 0x1 ADD DUP6 SSTORE DUP3 ISZERO PUSH3 0x482 JUMPI SWAP2 DUP3 ADD JUMPDEST DUP3 DUP2 GT ISZERO PUSH3 0x481 JUMPI DUP3 MLOAD DUP3 SSTORE SWAP2 PUSH1 0x20 ADD SWAP2 SWAP1 PUSH1 0x1 ADD SWAP1 PUSH3 0x464 JUMP JUMPDEST JUMPDEST POP SWAP1 POP PUSH3 0x491 SWAP2 SWAP1 PUSH3 0x495 JUMP JUMPDEST POP SWAP1 JUMP JUMPDEST JUMPDEST DUP1 DUP3 GT ISZERO PUSH3 0x4B0 JUMPI PUSH1 0x0 DUP2 PUSH1 0x0 SWAP1 SSTORE POP PUSH1 0x1 ADD PUSH3 0x496 JUMP JUMPDEST POP SWAP1 JUMP JUMPDEST PUSH1 0x0 PUSH3 0x4CB PUSH3 0x4C5 DUP5 PUSH3 0x6CC JUMP JUMPDEST PUSH3 0x6A3 JUMP JUMPDEST SWAP1 POP DUP3 DUP2 MSTORE PUSH1 0x20 DUP2 ADD DUP5 DUP5 DUP5 ADD GT ISZERO PUSH3 0x4EA JUMPI PUSH3 0x4E9 PUSH3 0xAE8 JUMP JUMPDEST JUMPDEST PUSH3 0x4F7 DUP5 DUP3 DUP6 PUSH3 0x9B4 JUMP JUMPDEST POP SWAP4 SWAP3 POP POP POP JUMP JUMPDEST PUSH1 0x0 DUP2 MLOAD SWAP1 POP PUSH3 0x510 DUP2 PUSH3 0xB67 JUMP JUMPDEST SWAP3 SWAP2 POP POP JUMP JUMPDEST PUSH1 0x0 DUP3 PUSH1 0x1F DUP4 ADD SLT PUSH3 0x52E JUMPI PUSH3 0x52D PUSH3 0xAE3 JUMP JUMPDEST JUMPDEST DUP2 MLOAD PUSH3 0x540 DUP5 DUP3 PUSH1 0x20 DUP7 ADD PUSH3 0x4B4 JUMP JUMPDEST SWAP2 POP POP SWAP3 SWAP2 POP POP JUMP JUMPDEST PUSH1 0x0 DUP1 PUSH1 0x0 PUSH1 0x60 DUP5 DUP7 SUB SLT ISZERO PUSH3 0x565 JUMPI PUSH3 0x564 PUSH3 0xAF2 JUMP JUMPDEST JUMPDEST PUSH1 0x0 DUP5 ADD MLOAD PUSH8 0xFFFFFFFFFFFFFFFF DUP2 GT ISZERO PUSH3 0x586 JUMPI PUSH3 0x585 PUSH3 0xAED JUMP JUMPDEST JUMPDEST PUSH3 0x594 DUP7 DUP3 DUP8 ADD PUSH3 0x516 JUMP JUMPDEST SWAP4 POP POP PUSH1 0x20 DUP5 ADD MLOAD PUSH8 0xFFFFFFFFFFFFFFFF DUP2 GT ISZERO PUSH3 0x5B8 JUMPI PUSH3 0x5B7 PUSH3 0xAED JUMP JUMPDEST JUMPDEST PUSH3 0x5C6 DUP7 DUP3 DUP8 ADD PUSH3 0x516 JUMP JUMPDEST SWAP3 POP POP PUSH1 0x40 PUSH3 0x5D9 DUP7 DUP3 DUP8 ADD PUSH3 0x4FF JUMP JUMPDEST SWAP2 POP POP SWAP3 POP SWAP3 POP SWAP3 JUMP JUMPDEST PUSH1 0x0 PUSH3 0x5F2 PUSH1 0x20 DUP4 PUSH3 0x702 JUMP JUMPDEST SWAP2 POP PUSH3 0x5FF DUP3 PUSH3 0xB15 JUMP JUMPDEST PUSH1 0x20 DUP3 ADD SWAP1 POP SWAP2 SWAP1 POP JUMP JUMPDEST PUSH1 0x0 PUSH3 0x619 PUSH1 0x1F DUP4 PUSH3 0x702 JUMP JUMPDEST SWAP2 POP PUSH3 0x626 DUP3 PUSH3 0xB3E JUMP JUMPDEST PUSH1 0x20 DUP3 ADD SWAP1 POP SWAP2 SWAP1 POP JUMP JUMPDEST PUSH3 0x63C DUP2 PUSH3 0x99D JUMP JUMPDEST DUP3 MSTORE POP POP JUMP JUMPDEST PUSH1 0x0 PUSH1 0x20 DUP3 ADD SWAP1 POP DUP2 DUP2 SUB PUSH1 0x0 DUP4 ADD MSTORE PUSH3 0x65D DUP2 PUSH3 0x5E3 JUMP JUMPDEST SWAP1 POP SWAP2 SWAP1 POP JUMP JUMPDEST PUSH1 0x0 PUSH1 0x20 DUP3 ADD SWAP1 POP DUP2 DUP2 SUB PUSH1 0x0 DUP4 ADD MSTORE PUSH3 0x67F DUP2 PUSH3 0x60A JUMP JUMPDEST SWAP1 POP SWAP2 SWAP1 POP JUMP JUMPDEST PUSH1 0x0 PUSH1 0x20 DUP3 ADD SWAP1 POP PUSH3 0x69D PUSH1 0x0 DUP4 ADD DUP5 PUSH3 0x631 JUMP JUMPDEST SWAP3 SWAP2 POP POP JUMP JUMPDEST PUSH1 0x0 PUSH3 0x6AF PUSH3 0x6C2 JUMP JUMPDEST SWAP1 POP PUSH3 0x6BD DUP3 DUP3 PUSH3 0xA20 JUMP JUMPDEST SWAP2 SWAP1 POP JUMP JUMPDEST PUSH1 0x0 PUSH1 0x40 MLOAD SWAP1 POP SWAP1 JUMP JUMPDEST PUSH1 0x0 PUSH8 0xFFFFFFFFFFFFFFFF DUP3 GT ISZERO PUSH3 0x6EA JUMPI PUSH3 0x6E9 PUSH3 0xAB4 JUMP JUMPDEST JUMPDEST PUSH3 0x6F5 DUP3 PUSH3 0xAF7 JUMP JUMPDEST SWAP1 POP PUSH1 0x20 DUP2 ADD SWAP1 POP SWAP2 SWAP1 POP JUMP JUMPDEST PUSH1 0x0 DUP3 DUP3 MSTORE PUSH1 0x20 DUP3 ADD SWAP1 POP SWAP3 SWAP2 POP POP JUMP JUMPDEST PUSH1 0x0 PUSH3 0x720 DUP3 PUSH3 0x99D JUMP JUMPDEST SWAP2 POP PUSH3 0x72D DUP4 PUSH3 0x99D JUMP JUMPDEST SWAP3 POP DUP3 PUSH32 0xFFFFFFFFFFFFFFFFFFFFFFFFFFFFFFFFFFFFFFFFFFFFFFFFFFFFFFFFFFFFFFFF SUB DUP3 GT ISZERO PUSH3 0x765 JUMPI PUSH3 0x764 PUSH3 0xA56 JUMP JUMPDEST JUMPDEST DUP3 DUP3 ADD SWAP1 POP SWAP3 SWAP2 POP POP JUMP JUMPDEST PUSH1 0x0 DUP1 DUP3 SWAP2 POP DUP4 SWAP1 POP JUMPDEST PUSH1 0x1 DUP6 GT ISZERO PUSH3 0x7C2 JUMPI DUP1 DUP7 DIV DUP2 GT ISZERO PUSH3 0x79A JUMPI PUSH3 0x799 PUSH3 0xA56 JUMP JUMPDEST JUMPDEST PUSH1 0x1 DUP6 AND ISZERO PUSH3 0x7AA JUMPI DUP1 DUP3 MUL SWAP2 POP JUMPDEST DUP1 DUP2 MUL SWAP1 POP PUSH3 0x7BA DUP6 PUSH3 0xB08 JUMP JUMPDEST SWAP5 POP PUSH3 0x77A JUMP JUMPDEST SWAP5 POP SWAP5 SWAP3 POP POP POP JUMP JUMPDEST PUSH1 0x0 PUSH3 0x7D8 DUP3 PUSH3 0x99D JUMP JUMPDEST SWAP2 POP PUSH3 0x7E5 DUP4 PUSH3 0x9A7 JUMP JUMPDEST SWAP3 POP PUSH3 0x814 PUSH32 0xFFFFFFFFFFFFFFFFFFFFFFFFFFFFFFFFFFFFFFFFFFFFFFFFFFFFFFFFFFFFFFFF DUP5 DUP5 PUSH3 0x81C JUMP JUMPDEST SWAP1 POP SWAP3 SWAP2 POP POP JUMP JUMPDEST PUSH1 0x0 DUP3 PUSH3 0x82E JUMPI PUSH1 0x1 SWAP1 POP PUSH3 0x901 JUMP JUMPDEST DUP2 PUSH3 0x83E JUMPI PUSH1 0x0 SWAP1 POP PUSH3 0x901 JUMP JUMPDEST DUP2 PUSH1 0x1 DUP2 EQ PUSH3 0x857 JUMPI PUSH1 0x2 DUP2 EQ PUSH3 0x862 JUMPI PUSH3 0x898 JUMP JUMPDEST PUSH1 0x1 SWAP2 POP POP PUSH3 0x901 JUMP JUMPDEST PUSH1 0xFF DUP5 GT ISZERO PUSH3 0x877 JUMPI PUSH3 0x876 PUSH3 0xA56 JUMP JUMPDEST JUMPDEST DUP4 PUSH1 0x2 EXP SWAP2 POP DUP5 DUP3 GT ISZERO PUSH3 0x891 JUMPI PUSH3 0x890 PUSH3 0xA56 JUMP JUMPDEST JUMPDEST POP PUSH3 0x901 JUMP JUMPDEST POP PUSH1 0x20 DUP4 LT PUSH2 0x133 DUP4 LT AND PUSH1 0x4E DUP5 LT PUSH1 0xB DUP5 LT AND OR ISZERO PUSH3 0x8D2 JUMPI DUP3 DUP3 EXP SWAP1 POP DUP4 DUP2 GT ISZERO PUSH3 0x8CC JUMPI PUSH3 0x8CB PUSH3 0xA56 JUMP JUMPDEST JUMPDEST PUSH3 0x901 JUMP JUMPDEST PUSH3 0x8E1 DUP5 DUP5 DUP5 PUSH1 0x1 PUSH3 0x770 JUMP JUMPDEST SWAP3 POP SWAP1 POP DUP2 DUP5 DIV DUP2 GT ISZERO PUSH3 0x8FB JUMPI PUSH3 0x8FA PUSH3 0xA56 JUMP JUMPDEST JUMPDEST DUP2 DUP2 MUL SWAP1 POP JUMPDEST SWAP4 SWAP3 POP POP POP JUMP JUMPDEST PUSH1 0x0 PUSH3 0x915 DUP3 PUSH3 0x99D JUMP JUMPDEST SWAP2 POP PUSH3 0x922 DUP4 PUSH3 0x99D JUMP JUMPDEST SWAP3 POP DUP2 PUSH32 0xFFFFFFFFFFFFFFFFFFFFFFFFFFFFFFFFFFFFFFFFFFFFFFFFFFFFFFFFFFFFFFFF DIV DUP4 GT DUP3 ISZERO ISZERO AND ISZERO PUSH3 0x95E JUMPI PUSH3 0x95D PUSH3 0xA56 JUMP JUMPDEST JUMPDEST DUP3 DUP3 MUL SWAP1 POP SWAP3 SWAP2 POP POP JUMP JUMPDEST PUSH1 0x0 PUSH3 0x976 DUP3 PUSH3 0x97D JUMP JUMPDEST SWAP1 POP SWAP2 SWAP1 POP JUMP JUMPDEST PUSH1 0x0 PUSH20 0xFFFFFFFFFFFFFFFFFFFFFFFFFFFFFFFFFFFFFFFF DUP3 AND SWAP1 POP SWAP2 SWAP1 POP JUMP JUMPDEST PUSH1 0x0 DUP2 SWAP1 POP SWAP2 SWAP1 POP JUMP JUMPDEST PUSH1 0x0 PUSH1 0xFF DUP3 AND SWAP1 POP SWAP2 SWAP1 POP JUMP JUMPDEST PUSH1 0x0 JUMPDEST DUP4 DUP2 LT ISZERO PUSH3 0x9D4 JUMPI DUP1 DUP3 ADD MLOAD DUP2 DUP5 ADD MSTORE PUSH1 0x20 DUP2 ADD SWAP1 POP PUSH3 0x9B7 JUMP JUMPDEST DUP4 DUP2 GT ISZERO PUSH3 0x9E4 JUMPI PUSH1 0x0 DUP5 DUP5 ADD MSTORE JUMPDEST POP POP POP POP JUMP JUMPDEST PUSH1 0x0 PUSH1 0x2 DUP3 DIV SWAP1 POP PUSH1 0x1 DUP3 AND DUP1 PUSH3 0xA03 JUMPI PUSH1 0x7F DUP3 AND SWAP2 POP JUMPDEST PUSH1 0x20 DUP3 LT DUP2 EQ ISZERO PUSH3 0xA1A JUMPI PUSH3 0xA19 PUSH3 0xA85 JUMP JUMPDEST JUMPDEST POP SWAP2 SWAP1 POP JUMP JUMPDEST PUSH3 0xA2B DUP3 PUSH3 0xAF7 JUMP JUMPDEST DUP2 ADD DUP2 DUP2 LT PUSH8 0xFFFFFFFFFFFFFFFF DUP3 GT OR ISZERO PUSH3 0xA4D JUMPI PUSH3 0xA4C PUSH3 0xAB4 JUMP JUMPDEST JUMPDEST DUP1 PUSH1 0x40 MSTORE POP POP POP JUMP JUMPDEST PUSH32 0x4E487B7100000000000000000000000000000000000000000000000000000000 PUSH1 0x0 MSTORE PUSH1 0x11 PUSH1 0x4 MSTORE PUSH1 0x24 PUSH1 0x0 REVERT JUMPDEST PUSH32 0x4E487B7100000000000000000000000000000000000000000000000000000000 PUSH1 0x0 MSTORE PUSH1 0x22 PUSH1 0x4 MSTORE PUSH1 0x24 PUSH1 0x0 REVERT JUMPDEST PUSH32 0x4E487B7100000000000000000000000000000000000000000000000000000000 PUSH1 0x0 MSTORE PUSH1 0x41 PUSH1 0x4 MSTORE PUSH1 0x24 PUSH1 0x0 REVERT JUMPDEST PUSH1 0x0 DUP1 REVERT JUMPDEST PUSH1 0x0 DUP1 REVERT JUMPDEST PUSH1 0x0 DUP1 REVERT JUMPDEST PUSH1 0x0 DUP1 REVERT JUMPDEST PUSH1 0x0 PUSH1 0x1F NOT PUSH1 0x1F DUP4 ADD AND SWAP1 POP SWAP2 SWAP1 POP JUMP JUMPDEST PUSH1 0x0 DUP2 PUSH1 0x1 SHR SWAP1 POP SWAP2 SWAP1 POP JUMP JUMPDEST PUSH32 0x4F776E61626C653A2063616C6C6572206973206E6F7420746865206F776E6572 PUSH1 0x0 DUP3 ADD MSTORE POP JUMP JUMPDEST PUSH32 0x45524332303A206D696E7420746F20746865207A65726F206164647265737300 PUSH1 0x0 DUP3 ADD MSTORE POP JUMP JUMPDEST PUSH3 0xB72 DUP2 PUSH3 0x969 JUMP JUMPDEST DUP2 EQ PUSH3 0xB7E JUMPI PUSH1 0x0 DUP1 REVERT JUMPDEST POP JUMP JUMPDEST PUSH2 0x1812 DUP1 PUSH3 0xB91 PUSH1 0x0 CODECOPY PUSH1 0x0 RETURN INVALID PUSH1 0x80 PUSH1 0x40 MSTORE CALLVALUE DUP1 ISZERO PUSH2 0x10 JUMPI PUSH1 0x0 DUP1 REVERT JUMPDEST POP PUSH1 0x4 CALLDATASIZE LT PUSH2 0xF5 JUMPI PUSH1 0x0 CALLDATALOAD PUSH1 0xE0 SHR DUP1 PUSH4 0x70A08231 GT PUSH2 0x97 JUMPI DUP1 PUSH4 0xA457C2D7 GT PUSH2 0x66 JUMPI DUP1 PUSH4 0xA457C2D7 EQ PUSH2 0x276 JUMPI DUP1 PUSH4 0xA9059CBB EQ PUSH2 0x2A6 JUMPI DUP1 PUSH4 0xDD62ED3E EQ PUSH2 0x2D6 JUMPI DUP1 PUSH4 0xF2FDE38B EQ PUSH2 0x306 JUMPI PUSH2 0xF5 JUMP JUMPDEST DUP1 PUSH4 0x70A08231 EQ PUSH2 0x200 JUMPI DUP1 PUSH4 0x715018A6 EQ PUSH2 0x230 JUMPI DUP1 PUSH4 0x8DA5CB5B EQ PUSH2 0x23A JUMPI DUP1 PUSH4 0x95D89B41 EQ PUSH2 0x258 JUMPI PUSH2 0xF5 JUMP JUMPDEST DUP1 PUSH4 0x23B872DD GT PUSH2 0xD3 JUMPI DUP1 PUSH4 0x23B872DD EQ PUSH2 0x166 JUMPI DUP1 PUSH4 0x313CE567 EQ PUSH2 0x196 JUMPI DUP1 PUSH4 0x39509351 EQ PUSH2 0x1B4 JUMPI DUP1 PUSH4 0x40C10F19 EQ PUSH2 0x1E4 JUMPI PUSH2 0xF5 JUMP JUMPDEST DUP1 PUSH4 0x6FDDE03 EQ PUSH2 0xFA JUMPI DUP1 PUSH4 0x95EA7B3 EQ PUSH2 0x118 JUMPI DUP1 PUSH4 0x18160DDD EQ PUSH2 0x148 JUMPI JUMPDEST PUSH1 0x0 DUP1 REVERT JUMPDEST PUSH2 0x102 PUSH2 0x322 JUMP JUMPDEST PUSH1 0x40 MLOAD PUSH2 0x10F SWAP2 SWAP1 PUSH2 0x11D2 JUMP JUMPDEST PUSH1 0x40 MLOAD DUP1 SWAP2 SUB SWAP1 RETURN JUMPDEST PUSH2 0x132 PUSH1 0x4 DUP1 CALLDATASIZE SUB DUP2 ADD SWAP1 PUSH2 0x12D SWAP2 SWAP1 PUSH2 0xF89 JUMP JUMPDEST PUSH2 0x3B4 JUMP JUMPDEST PUSH1 0x40 MLOAD PUSH2 0x13F SWAP2 SWAP1 PUSH2 0x11B7 JUMP JUMPDEST PUSH1 0x40 MLOAD DUP1 SWAP2 SUB SWAP1 RETURN JUMPDEST PUSH2 0x150 PUSH2 0x3D7 JUMP JUMPDEST PUSH1 0x40 MLOAD PUSH2 0x15D SWAP2 SWAP1 PUSH2 0x1334 JUMP JUMPDEST PUSH1 0x40 MLOAD DUP1 SWAP2 SUB SWAP1 RETURN JUMPDEST PUSH2 0x180 PUSH1 0x4 DUP1 CALLDATASIZE SUB DUP2 ADD SWAP1 PUSH2 0x17B SWAP2 SWAP1 PUSH2 0xF36 JUMP JUMPDEST PUSH2 0x3E1 JUMP JUMPDEST PUSH1 0x40 MLOAD PUSH2 0x18D SWAP2 SWAP1 PUSH2 0x11B7 JUMP JUMPDEST PUSH1 0x40 MLOAD DUP1 SWAP2 SUB SWAP1 RETURN JUMPDEST PUSH2 0x19E PUSH2 0x410 JUMP JUMPDEST PUSH1 0x40 MLOAD PUSH2 0x1AB SWAP2 SWAP1 PUSH2 0x134F JUMP JUMPDEST PUSH1 0x40 MLOAD DUP1 SWAP2 SUB SWAP1 RETURN JUMPDEST PUSH2 0x1CE PUSH1 0x4 DUP1 CALLDATASIZE SUB DUP2 ADD SWAP1 PUSH2 0x1C9 SWAP2 SWAP1 PUSH2 0xF89 JUMP JUMPDEST PUSH2 0x419 JUMP JUMPDEST PUSH1 0x40 MLOAD PUSH2 0x1DB SWAP2 SWAP1 PUSH2 0x11B7 JUMP JUMPDEST PUSH1 0x40 MLOAD DUP1 SWAP2 SUB SWAP1 RETURN JUMPDEST PUSH2 0x1FE PUSH1 0x4 DUP1 CALLDATASIZE SUB DUP2 ADD SWAP1 PUSH2 0x1F9 SWAP2 SWAP1 PUSH2 0xF89 JUMP JUMPDEST PUSH2 0x450 JUMP JUMPDEST STOP JUMPDEST PUSH2 0x21A PUSH1 0x4 DUP1 CALLDATASIZE SUB DUP2 ADD SWAP1 PUSH2 0x215 SWAP2 SWAP1 PUSH2 0xEC9 JUMP JUMPDEST PUSH2 0x466 JUMP JUMPDEST PUSH1 0x40 MLOAD PUSH2 0x227 SWAP2 SWAP1 PUSH2 0x1334 JUMP JUMPDEST PUSH1 0x40 MLOAD DUP1 SWAP2 SUB SWAP1 RETURN JUMPDEST PUSH2 0x238 PUSH2 0x4AE JUMP JUMPDEST STOP JUMPDEST PUSH2 0x242 PUSH2 0x4C2 JUMP JUMPDEST PUSH1 0x40 MLOAD PUSH2 0x24F SWAP2 SWAP1 PUSH2 0x119C JUMP JUMPDEST PUSH1 0x40 MLOAD DUP1 SWAP2 SUB SWAP1 RETURN JUMPDEST PUSH2 0x260 PUSH2 0x4EC JUMP JUMPDEST PUSH1 0x40 MLOAD PUSH2 0x26D SWAP2 SWAP1 PUSH2 0x11D2 JUMP JUMPDEST PUSH1 0x40 MLOAD DUP1 SWAP2 SUB SWAP1 RETURN JUMPDEST PUSH2 0x290 PUSH1 0x4 DUP1 CALLDATASIZE SUB DUP2 ADD SWAP1 PUSH2 0x28B SWAP2 SWAP1 PUSH2 0xF89 JUMP JUMPDEST PUSH2 0x57E JUMP JUMPDEST PUSH1 0x40 MLOAD PUSH2 0x29D SWAP2 SWAP1 PUSH2 0x11B7 JUMP JUMPDEST PUSH1 0x40 MLOAD DUP1 SWAP2 SUB SWAP1 RETURN JUMPDEST PUSH2 0x2C0 PUSH1 0x4 DUP1 CALLDATASIZE SUB DUP2 ADD SWAP1 PUSH2 0x2BB SWAP2 SWAP1 PUSH2 0xF89 JUMP JUMPDEST PUSH2 0x5F5 JUMP JUMPDEST PUSH1 0x40 MLOAD PUSH2 0x2CD SWAP2 SWAP1 PUSH2 0x11B7 JUMP JUMPDEST PUSH1 0x40 MLOAD DUP1 SWAP2 SUB SWAP1 RETURN JUMPDEST PUSH2 0x2F0 PUSH1 0x4 DUP1 CALLDATASIZE SUB DUP2 ADD SWAP1 PUSH2 0x2EB SWAP2 SWAP1 PUSH2 0xEF6 JUMP JUMPDEST PUSH2 0x618 JUMP JUMPDEST PUSH1 0x40 MLOAD PUSH2 0x2FD SWAP2 SWAP1 PUSH2 0x1334 JUMP JUMPDEST PUSH1 0x40 MLOAD DUP1 SWAP2 SUB SWAP1 RETURN JUMPDEST PUSH2 0x320 PUSH1 0x4 DUP1 CALLDATASIZE SUB DUP2 ADD SWAP1 PUSH2 0x31B SWAP2 SWAP1 PUSH2 0xEC9 JUMP JUMPDEST PUSH2 0x69F JUMP JUMPDEST STOP JUMPDEST PUSH1 0x60 PUSH1 0x3 DUP1 SLOAD PUSH2 0x331 SWAP1 PUSH2 0x1464 JUMP JUMPDEST DUP1 PUSH1 0x1F ADD PUSH1 0x20 DUP1 SWAP2 DIV MUL PUSH1 0x20 ADD PUSH1 0x40 MLOAD SWAP1 DUP2 ADD PUSH1 0x40 MSTORE DUP1 SWAP3 SWAP2 SWAP1 DUP2 DUP2 MSTORE PUSH1 0x20 ADD DUP3 DUP1 SLOAD PUSH2 0x35D SWAP1 PUSH2 0x1464 JUMP JUMPDEST DUP1 ISZERO PUSH2 0x3AA JUMPI DUP1 PUSH1 0x1F LT PUSH2 0x37F JUMPI PUSH2 0x100 DUP1 DUP4 SLOAD DIV MUL DUP4 MSTORE SWAP2 PUSH1 0x20 ADD SWAP2 PUSH2 0x3AA JUMP JUMPDEST DUP3 ADD SWAP2 SWAP1 PUSH1 0x0 MSTORE PUSH1 0x20 PUSH1 0x0 KECCAK256 SWAP1 JUMPDEST DUP2 SLOAD DUP2 MSTORE SWAP1 PUSH1 0x1 ADD SWAP1 PUSH1 0x20 ADD DUP1 DUP4 GT PUSH2 0x38D JUMPI DUP3 SWAP1 SUB PUSH1 0x1F AND DUP3 ADD SWAP2 JUMPDEST POP POP POP POP POP SWAP1 POP SWAP1 JUMP JUMPDEST PUSH1 0x0 DUP1 PUSH2 0x3BF PUSH2 0x723 JUMP JUMPDEST SWAP1 POP PUSH2 0x3CC DUP2 DUP6 DUP6 PUSH2 0x72B JUMP JUMPDEST PUSH1 0x1 SWAP2 POP POP SWAP3 SWAP2 POP POP JUMP JUMPDEST PUSH1 0x0 PUSH1 0x2 SLOAD SWAP1 POP SWAP1 JUMP JUMPDEST PUSH1 0x0 DUP1 PUSH2 0x3EC PUSH2 0x723 JUMP JUMPDEST SWAP1 POP PUSH2 0x3F9 DUP6 DUP3 DUP6 PUSH2 0x8F6 JUMP JUMPDEST PUSH2 0x404 DUP6 DUP6 DUP6 PUSH2 0x982 JUMP JUMPDEST PUSH1 0x1 SWAP2 POP POP SWAP4 SWAP3 POP POP POP JUMP JUMPDEST PUSH1 0x0 PUSH1 0x12 SWAP1 POP SWAP1 JUMP JUMPDEST PUSH1 0x0 DUP1 PUSH2 0x424 PUSH2 0x723 JUMP JUMPDEST SWAP1 POP PUSH2 0x445 DUP2 DUP6 DUP6 PUSH2 0x436 DUP6 DUP10 PUSH2 0x618 JUMP JUMPDEST PUSH2 0x440 SWAP2 SWAP1 PUSH2 0x1386 JUMP JUMPDEST PUSH2 0x72B JUMP JUMPDEST PUSH1 0x1 SWAP2 POP POP SWAP3 SWAP2 POP POP JUMP JUMPDEST PUSH2 0x458 PUSH2 0xBFA JUMP JUMPDEST PUSH2 0x462 DUP3 DUP3 PUSH2 0xC78 JUMP JUMPDEST POP POP JUMP JUMPDEST PUSH1 0x0 DUP1 PUSH1 0x0 DUP4 PUSH20 0xFFFFFFFFFFFFFFFFFFFFFFFFFFFFFFFFFFFFFFFF AND PUSH20 0xFFFFFFFFFFFFFFFFFFFFFFFFFFFFFFFFFFFFFFFF AND DUP2 MSTORE PUSH1 0x20 ADD SWAP1 DUP2 MSTORE PUSH1 0x20 ADD PUSH1 0x0 KECCAK256 SLOAD SWAP1 POP SWAP2 SWAP1 POP JUMP JUMPDEST PUSH2 0x4B6 PUSH2 0xBFA JUMP JUMPDEST PUSH2 0x4C0 PUSH1 0x0 PUSH2 0xDCF JUMP JUMPDEST JUMP JUMPDEST PUSH1 0x0 PUSH1 0x5 PUSH1 0x0 SWAP1 SLOAD SWAP1 PUSH2 0x100 EXP SWAP1 DIV PUSH20 0xFFFFFFFFFFFFFFFFFFFFFFFFFFFFFFFFFFFFFFFF AND SWAP1 POP SWAP1 JUMP JUMPDEST PUSH1 0x60 PUSH1 0x4 DUP1 SLOAD PUSH2 0x4FB SWAP1 PUSH2 0x1464 JUMP JUMPDEST DUP1 PUSH1 0x1F ADD PUSH1 0x20 DUP1 SWAP2 DIV MUL PUSH1 0x20 ADD PUSH1 0x40 MLOAD SWAP1 DUP2 ADD PUSH1 0x40 MSTORE DUP1 SWAP3 SWAP2 SWAP1 DUP2 DUP2 MSTORE PUSH1 0x20 ADD DUP3 DUP1 SLOAD PUSH2 0x527 SWAP1 PUSH2 0x1464 JUMP JUMPDEST DUP1 ISZERO PUSH2 0x574 JUMPI DUP1 PUSH1 0x1F LT PUSH2 0x549 JUMPI PUSH2 0x100 DUP1 DUP4 SLOAD DIV MUL DUP4 MSTORE SWAP2 PUSH1 0x20 ADD SWAP2 PUSH2 0x574 JUMP JUMPDEST DUP3 ADD SWAP2 SWAP1 PUSH1 0x0 MSTORE PUSH1 0x20 PUSH1 0x0 KECCAK256 SWAP1 JUMPDEST DUP2 SLOAD DUP2 MSTORE SWAP1 PUSH1 0x1 ADD SWAP1 PUSH1 0x20 ADD DUP1 DUP4 GT PUSH2 0x557 JUMPI DUP3 SWAP1 SUB PUSH1 0x1F AND DUP3 ADD SWAP2 JUMPDEST POP POP POP POP POP SWAP1 POP SWAP1 JUMP JUMPDEST PUSH1 0x0 DUP1 PUSH2 0x589 PUSH2 0x723 JUMP JUMPDEST SWAP1 POP PUSH1 0x0 PUSH2 0x597 DUP3 DUP7 PUSH2 0x618 JUMP JUMPDEST SWAP1 POP DUP4 DUP2 LT ISZERO PUSH2 0x5DC JUMPI PUSH1 0x40 MLOAD PUSH32 0x8C379A000000000000000000000000000000000000000000000000000000000 DUP2 MSTORE PUSH1 0x4 ADD PUSH2 0x5D3 SWAP1 PUSH2 0x12F4 JUMP JUMPDEST PUSH1 0x40 MLOAD DUP1 SWAP2 SUB SWAP1 REVERT JUMPDEST PUSH2 0x5E9 DUP3 DUP7 DUP7 DUP5 SUB PUSH2 0x72B JUMP JUMPDEST PUSH1 0x1 SWAP3 POP POP POP SWAP3 SWAP2 POP POP JUMP JUMPDEST PUSH1 0x0 DUP1 PUSH2 0x600 PUSH2 0x723 JUMP JUMPDEST SWAP1 POP PUSH2 0x60D DUP2 DUP6 DUP6 PUSH2 0x982 JUMP JUMPDEST PUSH1 0x1 SWAP2 POP POP SWAP3 SWAP2 POP POP JUMP JUMPDEST PUSH1 0x0 PUSH1 0x1 PUSH1 0x0 DUP5 PUSH20 0xFFFFFFFFFFFFFFFFFFFFFFFFFFFFFFFFFFFFFFFF AND PUSH20 0xFFFFFFFFFFFFFFFFFFFFFFFFFFFFFFFFFFFFFFFF AND DUP2 MSTORE PUSH1 0x20 ADD SWAP1 DUP2 MSTORE PUSH1 0x20 ADD PUSH1 0x0 KECCAK256 PUSH1 0x0 DUP4 PUSH20 0xFFFFFFFFFFFFFFFFFFFFFFFFFFFFFFFFFFFFFFFF AND PUSH20 0xFFFFFFFFFFFFFFFFFFFFFFFFFFFFFFFFFFFFFFFF AND DUP2 MSTORE PUSH1 0x20 ADD SWAP1 DUP2 MSTORE PUSH1 0x20 ADD PUSH1 0x0 KECCAK256 SLOAD SWAP1 POP SWAP3 SWAP2 POP POP JUMP JUMPDEST PUSH2 0x6A7 PUSH2 0xBFA JUMP JUMPDEST PUSH1 0x0 PUSH20 0xFFFFFFFFFFFFFFFFFFFFFFFFFFFFFFFFFFFFFFFF AND DUP2 PUSH20 0xFFFFFFFFFFFFFFFFFFFFFFFFFFFFFFFFFFFFFFFF AND EQ ISZERO PUSH2 0x717 JUMPI PUSH1 0x40 MLOAD PUSH32 0x8C379A000000000000000000000000000000000000000000000000000000000 DUP2 MSTORE PUSH1 0x4 ADD PUSH2 0x70E SWAP1 PUSH2 0x1214 JUMP JUMPDEST PUSH1 0x40 MLOAD DUP1 SWAP2 SUB SWAP1 REVERT JUMPDEST PUSH2 0x720 DUP2 PUSH2 0xDCF JUMP JUMPDEST POP JUMP JUMPDEST PUSH1 0x0 CALLER SWAP1 POP SWAP1 JUMP JUMPDEST PUSH1 0x0 PUSH20 0xFFFFFFFFFFFFFFFFFFFFFFFFFFFFFFFFFFFFFFFF AND DUP4 PUSH20 0xFFFFFFFFFFFFFFFFFFFFFFFFFFFFFFFFFFFFFFFF AND EQ ISZERO PUSH2 0x79B JUMPI PUSH1 0x40 MLOAD PUSH32 0x8C379A000000000000000000000000000000000000000000000000000000000 DUP2 MSTORE PUSH1 0x4 ADD PUSH2 0x792 SWAP1 PUSH2 0x12D4 JUMP JUMPDEST PUSH1 0x40 MLOAD DUP1 SWAP2 SUB SWAP1 REVERT JUMPDEST PUSH1 0x0 PUSH20 0xFFFFFFFFFFFFFFFFFFFFFFFFFFFFFFFFFFFFFFFF AND DUP3 PUSH20 0xFFFFFFFFFFFFFFFFFFFFFFFFFFFFFFFFFFFFFFFF AND EQ ISZERO PUSH2 0x80B JUMPI PUSH1 0x40 MLOAD PUSH32 0x8C379A000000000000000000000000000000000000000000000000000000000 DUP2 MSTORE PUSH1 0x4 ADD PUSH2 0x802 SWAP1 PUSH2 0x1234 JUMP JUMPDEST PUSH1 0x40 MLOAD DUP1 SWAP2 SUB SWAP1 REVERT JUMPDEST DUP1 PUSH1 0x1 PUSH1 0x0 DUP6 PUSH20 0xFFFFFFFFFFFFFFFFFFFFFFFFFFFFFFFFFFFFFFFF AND PUSH20 0xFFFFFFFFFFFFFFFFFFFFFFFFFFFFFFFFFFFFFFFF AND DUP2 MSTORE PUSH1 0x20 ADD SWAP1 DUP2 MSTORE PUSH1 0x20 ADD PUSH1 0x0 KECCAK256 PUSH1 0x0 DUP5 PUSH20 0xFFFFFFFFFFFFFFFFFFFFFFFFFFFFFFFFFFFFFFFF AND PUSH20 0xFFFFFFFFFFFFFFFFFFFFFFFFFFFFFFFFFFFFFFFF AND DUP2 MSTORE PUSH1 0x20 ADD SWAP1 DUP2 MSTORE PUSH1 0x20 ADD PUSH1 0x0 KECCAK256 DUP2 SWAP1 SSTORE POP DUP2 PUSH20 0xFFFFFFFFFFFFFFFFFFFFFFFFFFFFFFFFFFFFFFFF AND DUP4 PUSH20 0xFFFFFFFFFFFFFFFFFFFFFFFFFFFFFFFFFFFFFFFF AND PUSH32 0x8C5BE1E5EBEC7D5BD14F71427D1E84F3DD0314C0F7B2291E5B200AC8C7C3B925 DUP4 PUSH1 0x40 MLOAD PUSH2 0x8E9 SWAP2 SWAP1 PUSH2 0x1334 JUMP JUMPDEST PUSH1 0x40 MLOAD DUP1 SWAP2 SUB SWAP1 LOG3 POP POP POP JUMP JUMPDEST PUSH1 0x0 PUSH2 0x902 DUP5 DUP5 PUSH2 0x618 JUMP JUMPDEST SWAP1 POP PUSH32 0xFFFFFFFFFFFFFFFFFFFFFFFFFFFFFFFFFFFFFFFFFFFFFFFFFFFFFFFFFFFFFFFF DUP2 EQ PUSH2 0x97C JUMPI DUP2 DUP2 LT ISZERO PUSH2 0x96E JUMPI PUSH1 0x40 MLOAD PUSH32 0x8C379A000000000000000000000000000000000000000000000000000000000 DUP2 MSTORE PUSH1 0x4 ADD PUSH2 0x965 SWAP1 PUSH2 0x1254 JUMP JUMPDEST PUSH1 0x40 MLOAD DUP1 SWAP2 SUB SWAP1 REVERT JUMPDEST PUSH2 0x97B DUP5 DUP5 DUP5 DUP5 SUB PUSH2 0x72B JUMP JUMPDEST JUMPDEST POP POP POP POP JUMP JUMPDEST PUSH1 0x0 PUSH20 0xFFFFFFFFFFFFFFFFFFFFFFFFFFFFFFFFFFFFFFFF AND DUP4 PUSH20 0xFFFFFFFFFFFFFFFFFFFFFFFFFFFFFFFFFFFFFFFF AND EQ ISZERO PUSH2 0x9F2 JUMPI PUSH1 0x40 MLOAD PUSH32 0x8C379A000000000000000000000000000000000000000000000000000000000 DUP2 MSTORE PUSH1 0x4 ADD PUSH2 0x9E9 SWAP1 PUSH2 0x12B4 JUMP JUMPDEST PUSH1 0x40 MLOAD DUP1 SWAP2 SUB SWAP1 REVERT JUMPDEST PUSH1 0x0 PUSH20 0xFFFFFFFFFFFFFFFFFFFFFFFFFFFFFFFFFFFFFFFF AND DUP3 PUSH20 0xFFFFFFFFFFFFFFFFFFFFFFFFFFFFFFFFFFFFFFFF AND EQ ISZERO PUSH2 0xA62 JUMPI PUSH1 0x40 MLOAD PUSH32 0x8C379A000000000000000000000000000000000000000000000000000000000 DUP2 MSTORE PUSH1 0x4 ADD PUSH2 0xA59 SWAP1 PUSH2 0x11F4 JUMP JUMPDEST PUSH1 0x40 MLOAD DUP1 SWAP2 SUB SWAP1 REVERT JUMPDEST PUSH2 0xA6D DUP4 DUP4 DUP4 PUSH2 0xE95 JUMP JUMPDEST PUSH1 0x0 DUP1 PUSH1 0x0 DUP6 PUSH20 0xFFFFFFFFFFFFFFFFFFFFFFFFFFFFFFFFFFFFFFFF AND PUSH20 0xFFFFFFFFFFFFFFFFFFFFFFFFFFFFFFFFFFFFFFFF AND DUP2 MSTORE PUSH1 0x20 ADD SWAP1 DUP2 MSTORE PUSH1 0x20 ADD PUSH1 0x0 KECCAK256 SLOAD SWAP1 POP DUP2 DUP2 LT ISZERO PUSH2 0xAF3 JUMPI PUSH1 0x40 MLOAD PUSH32 0x8C379A000000000000000000000000000000000000000000000000000000000 DUP2 MSTORE PUSH1 0x4 ADD PUSH2 0xAEA SWAP1 PUSH2 0x1274 JUMP JUMPDEST PUSH1 0x40 MLOAD DUP1 SWAP2 SUB SWAP1 REVERT JUMPDEST DUP2 DUP2 SUB PUSH1 0x0 DUP1 DUP7 PUSH20 0xFFFFFFFFFFFFFFFFFFFFFFFFFFFFFFFFFFFFFFFF AND PUSH20 0xFFFFFFFFFFFFFFFFFFFFFFFFFFFFFFFFFFFFFFFF AND DUP2 MSTORE PUSH1 0x20 ADD SWAP1 DUP2 MSTORE PUSH1 0x20 ADD PUSH1 0x0 KECCAK256 DUP2 SWAP1 SSTORE POP DUP2 PUSH1 0x0 DUP1 DUP6 PUSH20 0xFFFFFFFFFFFFFFFFFFFFFFFFFFFFFFFFFFFFFFFF AND PUSH20 0xFFFFFFFFFFFFFFFFFFFFFFFFFFFFFFFFFFFFFFFF AND DUP2 MSTORE PUSH1 0x20 ADD SWAP1 DUP2 MSTORE PUSH1 0x20 ADD PUSH1 0x0 KECCAK256 PUSH1 0x0 DUP3 DUP3 SLOAD ADD SWAP3 POP POP DUP2 SWAP1 SSTORE POP DUP3 PUSH20 0xFFFFFFFFFFFFFFFFFFFFFFFFFFFFFFFFFFFFFFFF AND DUP5 PUSH20 0xFFFFFFFFFFFFFFFFFFFFFFFFFFFFFFFFFFFFFFFF AND PUSH32 0xDDF252AD1BE2C89B69C2B068FC378DAA952BA7F163C4A11628F55A4DF523B3EF DUP5 PUSH1 0x40 MLOAD PUSH2 0xBE1 SWAP2 SWAP1 PUSH2 0x1334 JUMP JUMPDEST PUSH1 0x40 MLOAD DUP1 SWAP2 SUB SWAP1 LOG3 PUSH2 0xBF4 DUP5 DUP5 DUP5 PUSH2 0xE9A JUMP JUMPDEST POP POP POP POP JUMP JUMPDEST PUSH2 0xC02 PUSH2 0x723 JUMP JUMPDEST PUSH20 0xFFFFFFFFFFFFFFFFFFFFFFFFFFFFFFFFFFFFFFFF AND PUSH2 0xC20 PUSH2 0x4C2 JUMP JUMPDEST PUSH20 0xFFFFFFFFFFFFFFFFFFFFFFFFFFFFFFFFFFFFFFFF AND EQ PUSH2 0xC76 JUMPI PUSH1 0x40 MLOAD PUSH32 0x8C379A000000000000000000000000000000000000000000000000000000000 DUP2 MSTORE PUSH1 0x4 ADD PUSH2 0xC6D SWAP1 PUSH2 0x1294 JUMP JUMPDEST PUSH1 0x40 MLOAD DUP1 SWAP2 SUB SWAP1 REVERT JUMPDEST JUMP JUMPDEST PUSH1 0x0 PUSH20 0xFFFFFFFFFFFFFFFFFFFFFFFFFFFFFFFFFFFFFFFF AND DUP3 PUSH20 0xFFFFFFFFFFFFFFFFFFFFFFFFFFFFFFFFFFFFFFFF AND EQ ISZERO PUSH2 0xCE8 JUMPI PUSH1 0x40 MLOAD PUSH32 0x8C379A000000000000000000000000000000000000000000000000000000000 DUP2 MSTORE PUSH1 0x4 ADD PUSH2 0xCDF SWAP1 PUSH2 0x1314 JUMP JUMPDEST PUSH1 0x40 MLOAD DUP1 SWAP2 SUB SWAP1 REVERT JUMPDEST PUSH2 0xCF4 PUSH1 0x0 DUP4 DUP4 PUSH2 0xE95 JUMP JUMPDEST DUP1 PUSH1 0x2 PUSH1 0x0 DUP3 DUP3 SLOAD PUSH2 0xD06 SWAP2 SWAP1 PUSH2 0x1386 JUMP JUMPDEST SWAP3 POP POP DUP2 SWAP1 SSTORE POP DUP1 PUSH1 0x0 DUP1 DUP5 PUSH20 0xFFFFFFFFFFFFFFFFFFFFFFFFFFFFFFFFFFFFFFFF AND PUSH20 0xFFFFFFFFFFFFFFFFFFFFFFFFFFFFFFFFFFFFFFFF AND DUP2 MSTORE PUSH1 0x20 ADD SWAP1 DUP2 MSTORE PUSH1 0x20 ADD PUSH1 0x0 KECCAK256 PUSH1 0x0 DUP3 DUP3 SLOAD ADD SWAP3 POP POP DUP2 SWAP1 SSTORE POP DUP2 PUSH20 0xFFFFFFFFFFFFFFFFFFFFFFFFFFFFFFFFFFFFFFFF AND PUSH1 0x0 PUSH20 0xFFFFFFFFFFFFFFFFFFFFFFFFFFFFFFFFFFFFFFFF AND PUSH32 0xDDF252AD1BE2C89B69C2B068FC378DAA952BA7F163C4A11628F55A4DF523B3EF DUP4 PUSH1 0x40 MLOAD PUSH2 0xDB7 SWAP2 SWAP1 PUSH2 0x1334 JUMP JUMPDEST PUSH1 0x40 MLOAD DUP1 SWAP2 SUB SWAP1 LOG3 PUSH2 0xDCB PUSH1 0x0 DUP4 DUP4 PUSH2 0xE9A JUMP JUMPDEST POP POP JUMP JUMPDEST PUSH1 0x0 PUSH1 0x5 PUSH1 0x0 SWAP1 SLOAD SWAP1 PUSH2 0x100 EXP SWAP1 DIV PUSH20 0xFFFFFFFFFFFFFFFFFFFFFFFFFFFFFFFFFFFFFFFF AND SWAP1 POP DUP2 PUSH1 0x5 PUSH1 0x0 PUSH2 0x100 EXP DUP2 SLOAD DUP2 PUSH20 0xFFFFFFFFFFFFFFFFFFFFFFFFFFFFFFFFFFFFFFFF MUL NOT AND SWAP1 DUP4 PUSH20 0xFFFFFFFFFFFFFFFFFFFFFFFFFFFFFFFFFFFFFFFF AND MUL OR SWAP1 SSTORE POP DUP2 PUSH20 0xFFFFFFFFFFFFFFFFFFFFFFFFFFFFFFFFFFFFFFFF AND DUP2 PUSH20 0xFFFFFFFFFFFFFFFFFFFFFFFFFFFFFFFFFFFFFFFF AND PUSH32 0x8BE0079C531659141344CD1FD0A4F28419497F9722A3DAAFE3B4186F6B6457E0 PUSH1 0x40 MLOAD PUSH1 0x40 MLOAD DUP1 SWAP2 SUB SWAP1 LOG3 POP POP JUMP JUMPDEST POP POP POP JUMP JUMPDEST POP POP POP JUMP JUMPDEST PUSH1 0x0 DUP2 CALLDATALOAD SWAP1 POP PUSH2 0xEAE DUP2 PUSH2 0x17AE JUMP JUMPDEST SWAP3 SWAP2 POP POP JUMP JUMPDEST PUSH1 0x0 DUP2 CALLDATALOAD SWAP1 POP PUSH2 0xEC3 DUP2 PUSH2 0x17C5 JUMP JUMPDEST SWAP3 SWAP2 POP POP JUMP JUMPDEST PUSH1 0x0 PUSH1 0x20 DUP3 DUP5 SUB SLT ISZERO PUSH2 0xEDF JUMPI PUSH2 0xEDE PUSH2 0x14F4 JUMP JUMPDEST JUMPDEST PUSH1 0x0 PUSH2 0xEED DUP5 DUP3 DUP6 ADD PUSH2 0xE9F JUMP JUMPDEST SWAP2 POP POP SWAP3 SWAP2 POP POP JUMP JUMPDEST PUSH1 0x0 DUP1 PUSH1 0x40 DUP4 DUP6 SUB SLT ISZERO PUSH2 0xF0D JUMPI PUSH2 0xF0C PUSH2 0x14F4 JUMP JUMPDEST JUMPDEST PUSH1 0x0 PUSH2 0xF1B DUP6 DUP3 DUP7 ADD PUSH2 0xE9F JUMP JUMPDEST SWAP3 POP POP PUSH1 0x20 PUSH2 0xF2C DUP6 DUP3 DUP7 ADD PUSH2 0xE9F JUMP JUMPDEST SWAP2 POP POP SWAP3 POP SWAP3 SWAP1 POP JUMP JUMPDEST PUSH1 0x0 DUP1 PUSH1 0x0 PUSH1 0x60 DUP5 DUP7 SUB SLT ISZERO PUSH2 0xF4F JUMPI PUSH2 0xF4E PUSH2 0x14F4 JUMP JUMPDEST JUMPDEST PUSH1 0x0 PUSH2 0xF5D DUP7 DUP3 DUP8 ADD PUSH2 0xE9F JUMP JUMPDEST SWAP4 POP POP PUSH1 0x20 PUSH2 0xF6E DUP7 DUP3 DUP8 ADD PUSH2 0xE9F JUMP JUMPDEST SWAP3 POP POP PUSH1 0x40 PUSH2 0xF7F DUP7 DUP3 DUP8 ADD PUSH2 0xEB4 JUMP JUMPDEST SWAP2 POP POP SWAP3 POP SWAP3 POP SWAP3 JUMP JUMPDEST PUSH1 0x0 DUP1 PUSH1 0x40 DUP4 DUP6 SUB SLT ISZERO PUSH2 0xFA0 JUMPI PUSH2 0xF9F PUSH2 0x14F4 JUMP JUMPDEST JUMPDEST PUSH1 0x0 PUSH2 0xFAE DUP6 DUP3 DUP7 ADD PUSH2 0xE9F JUMP JUMPDEST SWAP3 POP POP PUSH1 0x20 PUSH2 0xFBF DUP6 DUP3 DUP7 ADD PUSH2 0xEB4 JUMP JUMPDEST SWAP2 POP POP SWAP3 POP SWAP3 SWAP1 POP JUMP JUMPDEST PUSH2 0xFD2 DUP2 PUSH2 0x13DC JUMP JUMPDEST DUP3 MSTORE POP POP JUMP JUMPDEST PUSH2 0xFE1 DUP2 PUSH2 0x13EE JUMP JUMPDEST DUP3 MSTORE POP POP JUMP JUMPDEST PUSH1 0x0 PUSH2 0xFF2 DUP3 PUSH2 0x136A JUMP JUMPDEST PUSH2 0xFFC DUP2 DUP6 PUSH2 0x1375 JUMP JUMPDEST SWAP4 POP PUSH2 0x100C DUP2 DUP6 PUSH1 0x20 DUP7 ADD PUSH2 0x1431 JUMP JUMPDEST PUSH2 0x1015 DUP2 PUSH2 0x14F9 JUMP JUMPDEST DUP5 ADD SWAP2 POP POP SWAP3 SWAP2 POP POP JUMP JUMPDEST PUSH1 0x0 PUSH2 0x102D PUSH1 0x23 DUP4 PUSH2 0x1375 JUMP JUMPDEST SWAP2 POP PUSH2 0x1038 DUP3 PUSH2 0x150A JUMP JUMPDEST PUSH1 0x40 DUP3 ADD SWAP1 POP SWAP2 SWAP1 POP JUMP JUMPDEST PUSH1 0x0 PUSH2 0x1050 PUSH1 0x26 DUP4 PUSH2 0x1375 JUMP JUMPDEST SWAP2 POP PUSH2 0x105B DUP3 PUSH2 0x1559 JUMP JUMPDEST PUSH1 0x40 DUP3 ADD SWAP1 POP SWAP2 SWAP1 POP JUMP JUMPDEST PUSH1 0x0 PUSH2 0x1073 PUSH1 0x22 DUP4 PUSH2 0x1375 JUMP JUMPDEST SWAP2 POP PUSH2 0x107E DUP3 PUSH2 0x15A8 JUMP JUMPDEST PUSH1 0x40 DUP3 ADD SWAP1 POP SWAP2 SWAP1 POP JUMP JUMPDEST PUSH1 0x0 PUSH2 0x1096 PUSH1 0x1D DUP4 PUSH2 0x1375 JUMP JUMPDEST SWAP2 POP PUSH2 0x10A1 DUP3 PUSH2 0x15F7 JUMP JUMPDEST PUSH1 0x20 DUP3 ADD SWAP1 POP SWAP2 SWAP1 POP JUMP JUMPDEST PUSH1 0x0 PUSH2 0x10B9 PUSH1 0x26 DUP4 PUSH2 0x1375 JUMP JUMPDEST SWAP2 POP PUSH2 0x10C4 DUP3 PUSH2 0x1620 JUMP JUMPDEST PUSH1 0x40 DUP3 ADD SWAP1 POP SWAP2 SWAP1 POP JUMP JUMPDEST PUSH1 0x0 PUSH2 0x10DC PUSH1 0x20 DUP4 PUSH2 0x1375 JUMP JUMPDEST SWAP2 POP PUSH2 0x10E7 DUP3 PUSH2 0x166F JUMP JUMPDEST PUSH1 0x20 DUP3 ADD SWAP1 POP SWAP2 SWAP1 POP JUMP JUMPDEST PUSH1 0x0 PUSH2 0x10FF PUSH1 0x25 DUP4 PUSH2 0x1375 JUMP JUMPDEST SWAP2 POP PUSH2 0x110A DUP3 PUSH2 0x1698 JUMP JUMPDEST PUSH1 0x40 DUP3 ADD SWAP1 POP SWAP2 SWAP1 POP JUMP JUMPDEST PUSH1 0x0 PUSH2 0x1122 PUSH1 0x24 DUP4 PUSH2 0x1375 JUMP JUMPDEST SWAP2 POP PUSH2 0x112D DUP3 PUSH2 0x16E7 JUMP JUMPDEST PUSH1 0x40 DUP3 ADD SWAP1 POP SWAP2 SWAP1 POP JUMP JUMPDEST PUSH1 0x0 PUSH2 0x1145 PUSH1 0x25 DUP4 PUSH2 0x1375 JUMP JUMPDEST SWAP2 POP PUSH2 0x1150 DUP3 PUSH2 0x1736 JUMP JUMPDEST PUSH1 0x40 DUP3 ADD SWAP1 POP SWAP2 SWAP1 POP JUMP JUMPDEST PUSH1 0x0 PUSH2 0x1168 PUSH1 0x1F DUP4 PUSH2 0x1375 JUMP JUMPDEST SWAP2 POP PUSH2 0x1173 DUP3 PUSH2 0x1785 JUMP JUMPDEST PUSH1 0x20 DUP3 ADD SWAP1 POP SWAP2 SWAP1 POP JUMP JUMPDEST PUSH2 0x1187 DUP2 PUSH2 0x141A JUMP JUMPDEST DUP3 MSTORE POP POP JUMP JUMPDEST PUSH2 0x1196 DUP2 PUSH2 0x1424 JUMP JUMPDEST DUP3 MSTORE POP POP JUMP JUMPDEST PUSH1 0x0 PUSH1 0x20 DUP3 ADD SWAP1 POP PUSH2 0x11B1 PUSH1 0x0 DUP4 ADD DUP5 PUSH2 0xFC9 JUMP JUMPDEST SWAP3 SWAP2 POP POP JUMP JUMPDEST PUSH1 0x0 PUSH1 0x20 DUP3 ADD SWAP1 POP PUSH2 0x11CC PUSH1 0x0 DUP4 ADD DUP5 PUSH2 0xFD8 JUMP JUMPDEST SWAP3 SWAP2 POP POP JUMP JUMPDEST PUSH1 0x0 PUSH1 0x20 DUP3 ADD SWAP1 POP DUP2 DUP2 SUB PUSH1 0x0 DUP4 ADD MSTORE PUSH2 0x11EC DUP2 DUP5 PUSH2 0xFE7 JUMP JUMPDEST SWAP1 POP SWAP3 SWAP2 POP POP JUMP JUMPDEST PUSH1 0x0 PUSH1 0x20 DUP3 ADD SWAP1 POP DUP2 DUP2 SUB PUSH1 0x0 DUP4 ADD MSTORE PUSH2 0x120D DUP2 PUSH2 0x1020 JUMP JUMPDEST SWAP1 POP SWAP2 SWAP1 POP JUMP JUMPDEST PUSH1 0x0 PUSH1 0x20 DUP3 ADD SWAP1 POP DUP2 DUP2 SUB PUSH1 0x0 DUP4 ADD MSTORE PUSH2 0x122D DUP2 PUSH2 0x1043 JUMP JUMPDEST SWAP1 POP SWAP2 SWAP1 POP JUMP JUMPDEST PUSH1 0x0 PUSH1 0x20 DUP3 ADD SWAP1 POP DUP2 DUP2 SUB PUSH1 0x0 DUP4 ADD MSTORE PUSH2 0x124D DUP2 PUSH2 0x1066 JUMP JUMPDEST SWAP1 POP SWAP2 SWAP1 POP JUMP JUMPDEST PUSH1 0x0 PUSH1 0x20 DUP3 ADD SWAP1 POP DUP2 DUP2 SUB PUSH1 0x0 DUP4 ADD MSTORE PUSH2 0x126D DUP2 PUSH2 0x1089 JUMP JUMPDEST SWAP1 POP SWAP2 SWAP1 POP JUMP JUMPDEST PUSH1 0x0 PUSH1 0x20 DUP3 ADD SWAP1 POP DUP2 DUP2 SUB PUSH1 0x0 DUP4 ADD MSTORE PUSH2 0x128D DUP2 PUSH2 0x10AC JUMP JUMPDEST SWAP1 POP SWAP2 SWAP1 POP JUMP JUMPDEST PUSH1 0x0 PUSH1 0x20 DUP3 ADD SWAP1 POP DUP2 DUP2 SUB PUSH1 0x0 DUP4 ADD MSTORE PUSH2 0x12AD DUP2 PUSH2 0x10CF JUMP JUMPDEST SWAP1 POP SWAP2 SWAP1 POP JUMP JUMPDEST PUSH1 0x0 PUSH1 0x20 DUP3 ADD SWAP1 POP DUP2 DUP2 SUB PUSH1 0x0 DUP4 ADD MSTORE PUSH2 0x12CD DUP2 PUSH2 0x10F2 JUMP JUMPDEST SWAP1 POP SWAP2 SWAP1 POP JUMP JUMPDEST PUSH1 0x0 PUSH1 0x20 DUP3 ADD SWAP1 POP DUP2 DUP2 SUB PUSH1 0x0 DUP4 ADD MSTORE PUSH2 0x12ED DUP2 PUSH2 0x1115 JUMP JUMPDEST SWAP1 POP SWAP2 SWAP1 POP JUMP JUMPDEST PUSH1 0x0 PUSH1 0x20 DUP3 ADD SWAP1 POP DUP2 DUP2 SUB PUSH1 0x0 DUP4 ADD MSTORE PUSH2 0x130D DUP2 PUSH2 0x1138 JUMP JUMPDEST SWAP1 POP SWAP2 SWAP1 POP JUMP JUMPDEST PUSH1 0x0 PUSH1 0x20 DUP3 ADD SWAP1 POP DUP2 DUP2 SUB PUSH1 0x0 DUP4 ADD MSTORE PUSH2 0x132D DUP2 PUSH2 0x115B JUMP JUMPDEST SWAP1 POP SWAP2 SWAP1 POP JUMP JUMPDEST PUSH1 0x0 PUSH1 0x20 DUP3 ADD SWAP1 POP PUSH2 0x1349 PUSH1 0x0 DUP4 ADD DUP5 PUSH2 0x117E JUMP JUMPDEST SWAP3 SWAP2 POP POP JUMP JUMPDEST PUSH1 0x0 PUSH1 0x20 DUP3 ADD SWAP1 POP PUSH2 0x1364 PUSH1 0x0 DUP4 ADD DUP5 PUSH2 0x118D JUMP JUMPDEST SWAP3 SWAP2 POP POP JUMP JUMPDEST PUSH1 0x0 DUP2 MLOAD SWAP1 POP SWAP2 SWAP1 POP JUMP JUMPDEST PUSH1 0x0 DUP3 DUP3 MSTORE PUSH1 0x20 DUP3 ADD SWAP1 POP SWAP3 SWAP2 POP POP JUMP JUMPDEST PUSH1 0x0 PUSH2 0x1391 DUP3 PUSH2 0x141A JUMP JUMPDEST SWAP2 POP PUSH2 0x139C DUP4 PUSH2 0x141A JUMP JUMPDEST SWAP3 POP DUP3 PUSH32 0xFFFFFFFFFFFFFFFFFFFFFFFFFFFFFFFFFFFFFFFFFFFFFFFFFFFFFFFFFFFFFFFF SUB DUP3 GT ISZERO PUSH2 0x13D1 JUMPI PUSH2 0x13D0 PUSH2 0x1496 JUMP JUMPDEST JUMPDEST DUP3 DUP3 ADD SWAP1 POP SWAP3 SWAP2 POP POP JUMP JUMPDEST PUSH1 0x0 PUSH2 0x13E7 DUP3 PUSH2 0x13FA JUMP JUMPDEST SWAP1 POP SWAP2 SWAP1 POP JUMP JUMPDEST PUSH1 0x0 DUP2 ISZERO ISZERO SWAP1 POP SWAP2 SWAP1 POP JUMP JUMPDEST PUSH1 0x0 PUSH20 0xFFFFFFFFFFFFFFFFFFFFFFFFFFFFFFFFFFFFFFFF DUP3 AND SWAP1 POP SWAP2 SWAP1 POP JUMP JUMPDEST PUSH1 0x0 DUP2 SWAP1 POP SWAP2 SWAP1 POP JUMP JUMPDEST PUSH1 0x0 PUSH1 0xFF DUP3 AND SWAP1 POP SWAP2 SWAP1 POP JUMP JUMPDEST PUSH1 0x0 JUMPDEST DUP4 DUP2 LT ISZERO PUSH2 0x144F JUMPI DUP1 DUP3 ADD MLOAD DUP2 DUP5 ADD MSTORE PUSH1 0x20 DUP2 ADD SWAP1 POP PUSH2 0x1434 JUMP JUMPDEST DUP4 DUP2 GT ISZERO PUSH2 0x145E JUMPI PUSH1 0x0 DUP5 DUP5 ADD MSTORE JUMPDEST POP POP POP POP JUMP JUMPDEST PUSH1 0x0 PUSH1 0x2 DUP3 DIV SWAP1 POP PUSH1 0x1 DUP3 AND DUP1 PUSH2 0x147C JUMPI PUSH1 0x7F DUP3 AND SWAP2 POP JUMPDEST PUSH1 0x20 DUP3 LT DUP2 EQ ISZERO PUSH2 0x1490 JUMPI PUSH2 0x148F PUSH2 0x14C5 JUMP JUMPDEST JUMPDEST POP SWAP2 SWAP1 POP JUMP JUMPDEST PUSH32 0x4E487B7100000000000000000000000000000000000000000000000000000000 PUSH1 0x0 MSTORE PUSH1 0x11 PUSH1 0x4 MSTORE PUSH1 0x24 PUSH1 0x0 REVERT JUMPDEST PUSH32 0x4E487B7100000000000000000000000000000000000000000000000000000000 PUSH1 0x0 MSTORE PUSH1 0x22 PUSH1 0x4 MSTORE PUSH1 0x24 PUSH1 0x0 REVERT JUMPDEST PUSH1 0x0 DUP1 REVERT JUMPDEST PUSH1 0x0 PUSH1 0x1F NOT PUSH1 0x1F DUP4 ADD AND SWAP1 POP SWAP2 SWAP1 POP JUMP JUMPDEST PUSH32 0x45524332303A207472616E7366657220746F20746865207A65726F2061646472 PUSH1 0x0 DUP3 ADD MSTORE PUSH32 0x6573730000000000000000000000000000000000000000000000000000000000 PUSH1 0x20 DUP3 ADD MSTORE POP JUMP JUMPDEST PUSH32 0x4F776E61626C653A206E6577206F776E657220697320746865207A65726F2061 PUSH1 0x0 DUP3 ADD MSTORE PUSH32 0x6464726573730000000000000000000000000000000000000000000000000000 PUSH1 0x20 DUP3 ADD MSTORE POP JUMP JUMPDEST PUSH32 0x45524332303A20617070726F766520746F20746865207A65726F206164647265 PUSH1 0x0 DUP3 ADD MSTORE PUSH32 0x7373000000000000000000000000000000000000000000000000000000000000 PUSH1 0x20 DUP3 ADD MSTORE POP JUMP JUMPDEST PUSH32 0x45524332303A20696E73756666696369656E7420616C6C6F77616E6365000000 PUSH1 0x0 DUP3 ADD MSTORE POP JUMP JUMPDEST PUSH32 0x45524332303A207472616E7366657220616D6F756E7420657863656564732062 PUSH1 0x0 DUP3 ADD MSTORE PUSH32 0x616C616E63650000000000000000000000000000000000000000000000000000 PUSH1 0x20 DUP3 ADD MSTORE POP JUMP JUMPDEST PUSH32 0x4F776E61626C653A2063616C6C6572206973206E6F7420746865206F776E6572 PUSH1 0x0 DUP3 ADD MSTORE POP JUMP JUMPDEST PUSH32 0x45524332303A207472616E736665722066726F6D20746865207A65726F206164 PUSH1 0x0 DUP3 ADD MSTORE PUSH32 0x6472657373000000000000000000000000000000000000000000000000000000 PUSH1 0x20 DUP3 ADD MSTORE POP JUMP JUMPDEST PUSH32 0x45524332303A20617070726F76652066726F6D20746865207A65726F20616464 PUSH1 0x0 DUP3 ADD MSTORE PUSH32 0x7265737300000000000000000000000000000000000000000000000000000000 PUSH1 0x20 DUP3 ADD MSTORE POP JUMP JUMPDEST PUSH32 0x45524332303A2064656372656173656420616C6C6F77616E63652062656C6F77 PUSH1 0x0 DUP3 ADD MSTORE PUSH32 0x207A65726F000000000000000000000000000000000000000000000000000000 PUSH1 0x20 DUP3 ADD MSTORE POP JUMP JUMPDEST PUSH32 0x45524332303A206D696E7420746F20746865207A65726F206164647265737300 PUSH1 0x0 DUP3 ADD MSTORE POP JUMP JUMPDEST PUSH2 0x17B7 DUP2 PUSH2 0x13DC JUMP JUMPDEST DUP2 EQ PUSH2 0x17C2 JUMPI PUSH1 0x0 DUP1 REVERT JUMPDEST POP JUMP JUMPDEST PUSH2 0x17CE DUP2 PUSH2 0x141A JUMP JUMPDEST DUP2 EQ PUSH2 0x17D9 JUMPI PUSH1 0x0 DUP1 REVERT JUMPDEST POP JUMP INVALID LOG2 PUSH5 0x6970667358 0x22 SLT KECCAK256 0xB1 OR BALANCE 0xC2 CALLDATACOPY 0xAB MULMOD PUSH1 0xA3 0xCA 0x2B GASPRICE BYTE 0xE0 DUP4 0xE5 SWAP16 0xFC SWAP4 0xB6 EXP SGT JUMP RETURNDATASIZE 0xD4 0xEF PUSH18 0x66A78E146F64736F6C634300080700336080 PUSH1 0x40 MSTORE CALLVALUE DUP1 ISZERO PUSH3 0x11 JUMPI PUSH1 0x0 DUP1 REVERT JUMPDEST POP PUSH1 0x40 MLOAD PUSH3 0x1CEA CODESIZE SUB DUP1 PUSH3 0x1CEA DUP4 CODECOPY DUP2 DUP2 ADD PUSH1 0x40 MSTORE DUP2 ADD SWAP1 PUSH3 0x37 SWAP2 SWAP1 PUSH3 0x295 JUMP JUMPDEST DUP4 PUSH1 0x0 SWAP1 DUP1 MLOAD SWAP1 PUSH1 0x20 ADD SWAP1 PUSH3 0x4F SWAP3 SWAP2 SWAP1 PUSH3 0x139 JUMP JUMPDEST POP DUP3 PUSH1 0x1 SWAP1 DUP1 MLOAD SWAP1 PUSH1 0x20 ADD SWAP1 PUSH3 0x68 SWAP3 SWAP2 SWAP1 PUSH3 0x139 JUMP JUMPDEST POP DUP1 PUSH1 0x7 PUSH1 0x0 PUSH2 0x100 EXP DUP2 SLOAD DUP2 PUSH20 0xFFFFFFFFFFFFFFFFFFFFFFFFFFFFFFFFFFFFFFFF MUL NOT AND SWAP1 DUP4 PUSH20 0xFFFFFFFFFFFFFFFFFFFFFFFFFFFFFFFFFFFFFFFF AND MUL OR SWAP1 SSTORE POP PUSH9 0x3635C9ADC5DEA00000 PUSH1 0x5 PUSH1 0x0 DUP5 PUSH20 0xFFFFFFFFFFFFFFFFFFFFFFFFFFFFFFFFFFFFFFFF AND PUSH20 0xFFFFFFFFFFFFFFFFFFFFFFFFFFFFFFFFFFFFFFFF AND DUP2 MSTORE PUSH1 0x20 ADD SWAP1 DUP2 MSTORE PUSH1 0x20 ADD PUSH1 0x0 KECCAK256 PUSH1 0x0 DUP3 DUP3 SLOAD PUSH3 0x104 SWAP2 SWAP1 PUSH3 0x3A4 JUMP JUMPDEST SWAP3 POP POP DUP2 SWAP1 SSTORE POP PUSH9 0x3635C9ADC5DEA00000 PUSH1 0x6 PUSH1 0x0 DUP3 DUP3 SLOAD PUSH3 0x128 SWAP2 SWAP1 PUSH3 0x3A4 JUMP JUMPDEST SWAP3 POP POP DUP2 SWAP1 SSTORE POP POP POP POP POP PUSH3 0x5DB JUMP JUMPDEST DUP3 DUP1 SLOAD PUSH3 0x147 SWAP1 PUSH3 0x489 JUMP JUMPDEST SWAP1 PUSH1 0x0 MSTORE PUSH1 0x20 PUSH1 0x0 KECCAK256 SWAP1 PUSH1 0x1F ADD PUSH1 0x20 SWAP1 DIV DUP2 ADD SWAP3 DUP3 PUSH3 0x16B JUMPI PUSH1 0x0 DUP6 SSTORE PUSH3 0x1B7 JUMP JUMPDEST DUP3 PUSH1 0x1F LT PUSH3 0x186 JUMPI DUP1 MLOAD PUSH1 0xFF NOT AND DUP4 DUP1 ADD OR DUP6 SSTORE PUSH3 0x1B7 JUMP JUMPDEST DUP3 DUP1 ADD PUSH1 0x1 ADD DUP6 SSTORE DUP3 ISZERO PUSH3 0x1B7 JUMPI SWAP2 DUP3 ADD JUMPDEST DUP3 DUP2 GT ISZERO PUSH3 0x1B6 JUMPI DUP3 MLOAD DUP3 SSTORE SWAP2 PUSH1 0x20 ADD SWAP2 SWAP1 PUSH1 0x1 ADD SWAP1 PUSH3 0x199 JUMP JUMPDEST JUMPDEST POP SWAP1 POP PUSH3 0x1C6 SWAP2 SWAP1 PUSH3 0x1CA JUMP JUMPDEST POP SWAP1 JUMP JUMPDEST JUMPDEST DUP1 DUP3 GT ISZERO PUSH3 0x1E5 JUMPI PUSH1 0x0 DUP2 PUSH1 0x0 SWAP1 SSTORE POP PUSH1 0x1 ADD PUSH3 0x1CB JUMP JUMPDEST POP SWAP1 JUMP JUMPDEST PUSH1 0x0 PUSH3 0x200 PUSH3 0x1FA DUP5 PUSH3 0x36E JUMP JUMPDEST PUSH3 0x345 JUMP JUMPDEST SWAP1 POP DUP3 DUP2 MSTORE PUSH1 0x20 DUP2 ADD DUP5 DUP5 DUP5 ADD GT ISZERO PUSH3 0x21F JUMPI PUSH3 0x21E PUSH3 0x587 JUMP JUMPDEST JUMPDEST PUSH3 0x22C DUP5 DUP3 DUP6 PUSH3 0x453 JUMP JUMPDEST POP SWAP4 SWAP3 POP POP POP JUMP JUMPDEST PUSH1 0x0 DUP2 MLOAD SWAP1 POP PUSH3 0x245 DUP2 PUSH3 0x5A7 JUMP JUMPDEST SWAP3 SWAP2 POP POP JUMP JUMPDEST PUSH1 0x0 DUP2 MLOAD SWAP1 POP PUSH3 0x25C DUP2 PUSH3 0x5C1 JUMP JUMPDEST SWAP3 SWAP2 POP POP JUMP JUMPDEST PUSH1 0x0 DUP3 PUSH1 0x1F DUP4 ADD SLT PUSH3 0x27A JUMPI PUSH3 0x279 PUSH3 0x582 JUMP JUMPDEST JUMPDEST DUP2 MLOAD PUSH3 0x28C DUP5 DUP3 PUSH1 0x20 DUP7 ADD PUSH3 0x1E9 JUMP JUMPDEST SWAP2 POP POP SWAP3 SWAP2 POP POP JUMP JUMPDEST PUSH1 0x0 DUP1 PUSH1 0x0 DUP1 PUSH1 0x80 DUP6 DUP8 SUB SLT ISZERO PUSH3 0x2B2 JUMPI PUSH3 0x2B1 PUSH3 0x591 JUMP JUMPDEST JUMPDEST PUSH1 0x0 DUP6 ADD MLOAD PUSH8 0xFFFFFFFFFFFFFFFF DUP2 GT ISZERO PUSH3 0x2D3 JUMPI PUSH3 0x2D2 PUSH3 0x58C JUMP JUMPDEST JUMPDEST PUSH3 0x2E1 DUP8 DUP3 DUP9 ADD PUSH3 0x262 JUMP JUMPDEST SWAP5 POP POP PUSH1 0x20 DUP6 ADD MLOAD PUSH8 0xFFFFFFFFFFFFFFFF DUP2 GT ISZERO PUSH3 0x305 JUMPI PUSH3 0x304 PUSH3 0x58C JUMP JUMPDEST JUMPDEST PUSH3 0x313 DUP8 DUP3 DUP9 ADD PUSH3 0x262 JUMP JUMPDEST SWAP4 POP POP PUSH1 0x40 PUSH3 0x326 DUP8 DUP3 DUP9 ADD PUSH3 0x234 JUMP JUMPDEST SWAP3 POP POP PUSH1 0x60 PUSH3 0x339 DUP8 DUP3 DUP9 ADD PUSH3 0x24B JUMP JUMPDEST SWAP2 POP POP SWAP3 SWAP6 SWAP2 SWAP5 POP SWAP3 POP JUMP JUMPDEST PUSH1 0x0 PUSH3 0x351 PUSH3 0x364 JUMP JUMPDEST SWAP1 POP PUSH3 0x35F DUP3 DUP3 PUSH3 0x4BF JUMP JUMPDEST SWAP2 SWAP1 POP JUMP JUMPDEST PUSH1 0x0 PUSH1 0x40 MLOAD SWAP1 POP SWAP1 JUMP JUMPDEST PUSH1 0x0 PUSH8 0xFFFFFFFFFFFFFFFF DUP3 GT ISZERO PUSH3 0x38C JUMPI PUSH3 0x38B PUSH3 0x553 JUMP JUMPDEST JUMPDEST PUSH3 0x397 DUP3 PUSH3 0x596 JUMP JUMPDEST SWAP1 POP PUSH1 0x20 DUP2 ADD SWAP1 POP SWAP2 SWAP1 POP JUMP JUMPDEST PUSH1 0x0 PUSH3 0x3B1 DUP3 PUSH3 0x449 JUMP JUMPDEST SWAP2 POP PUSH3 0x3BE DUP4 PUSH3 0x449 JUMP JUMPDEST SWAP3 POP DUP3 PUSH32 0xFFFFFFFFFFFFFFFFFFFFFFFFFFFFFFFFFFFFFFFFFFFFFFFFFFFFFFFFFFFFFFFF SUB DUP3 GT ISZERO PUSH3 0x3F6 JUMPI PUSH3 0x3F5 PUSH3 0x4F5 JUMP JUMPDEST JUMPDEST DUP3 DUP3 ADD SWAP1 POP SWAP3 SWAP2 POP POP JUMP JUMPDEST PUSH1 0x0 PUSH3 0x40E DUP3 PUSH3 0x429 JUMP JUMPDEST SWAP1 POP SWAP2 SWAP1 POP JUMP JUMPDEST PUSH1 0x0 PUSH3 0x422 DUP3 PUSH3 0x401 JUMP JUMPDEST SWAP1 POP SWAP2 SWAP1 POP JUMP JUMPDEST PUSH1 0x0 PUSH20 0xFFFFFFFFFFFFFFFFFFFFFFFFFFFFFFFFFFFFFFFF DUP3 AND SWAP1 POP SWAP2 SWAP1 POP JUMP JUMPDEST PUSH1 0x0 DUP2 SWAP1 POP SWAP2 SWAP1 POP JUMP JUMPDEST PUSH1 0x0 JUMPDEST DUP4 DUP2 LT ISZERO PUSH3 0x473 JUMPI DUP1 DUP3 ADD MLOAD DUP2 DUP5 ADD MSTORE PUSH1 0x20 DUP2 ADD SWAP1 POP PUSH3 0x456 JUMP JUMPDEST DUP4 DUP2 GT ISZERO PUSH3 0x483 JUMPI PUSH1 0x0 DUP5 DUP5 ADD MSTORE JUMPDEST POP POP POP POP JUMP JUMPDEST PUSH1 0x0 PUSH1 0x2 DUP3 DIV SWAP1 POP PUSH1 0x1 DUP3 AND DUP1 PUSH3 0x4A2 JUMPI PUSH1 0x7F DUP3 AND SWAP2 POP JUMPDEST PUSH1 0x20 DUP3 LT DUP2 EQ ISZERO PUSH3 0x4B9 JUMPI PUSH3 0x4B8 PUSH3 0x524 JUMP JUMPDEST JUMPDEST POP SWAP2 SWAP1 POP JUMP JUMPDEST PUSH3 0x4CA DUP3 PUSH3 0x596 JUMP JUMPDEST DUP2 ADD DUP2 DUP2 LT PUSH8 0xFFFFFFFFFFFFFFFF DUP3 GT OR ISZERO PUSH3 0x4EC JUMPI PUSH3 0x4EB PUSH3 0x553 JUMP JUMPDEST JUMPDEST DUP1 PUSH1 0x40 MSTORE POP POP POP JUMP JUMPDEST PUSH32 0x4E487B7100000000000000000000000000000000000000000000000000000000 PUSH1 0x0 MSTORE PUSH1 0x11 PUSH1 0x4 MSTORE PUSH1 0x24 PUSH1 0x0 REVERT JUMPDEST PUSH32 0x4E487B7100000000000000000000000000000000000000000000000000000000 PUSH1 0x0 MSTORE PUSH1 0x22 PUSH1 0x4 MSTORE PUSH1 0x24 PUSH1 0x0 REVERT JUMPDEST PUSH32 0x4E487B7100000000000000000000000000000000000000000000000000000000 PUSH1 0x0 MSTORE PUSH1 0x41 PUSH1 0x4 MSTORE PUSH1 0x24 PUSH1 0x0 REVERT JUMPDEST PUSH1 0x0 DUP1 REVERT JUMPDEST PUSH1 0x0 DUP1 REVERT JUMPDEST PUSH1 0x0 DUP1 REVERT JUMPDEST PUSH1 0x0 DUP1 REVERT JUMPDEST PUSH1 0x0 PUSH1 0x1F NOT PUSH1 0x1F DUP4 ADD AND SWAP1 POP SWAP2 SWAP1 POP JUMP JUMPDEST PUSH3 0x5B2 DUP2 PUSH3 0x401 JUMP JUMPDEST DUP2 EQ PUSH3 0x5BE JUMPI PUSH1 0x0 DUP1 REVERT JUMPDEST POP JUMP JUMPDEST PUSH3 0x5CC DUP2 PUSH3 0x415 JUMP JUMPDEST DUP2 EQ PUSH3 0x5D8 JUMPI PUSH1 0x0 DUP1 REVERT JUMPDEST POP JUMP JUMPDEST PUSH2 0x16FF DUP1 PUSH3 0x5EB PUSH1 0x0 CODECOPY PUSH1 0x0 RETURN INVALID PUSH1 0x80 PUSH1 0x40 MSTORE CALLVALUE DUP1 ISZERO PUSH2 0x10 JUMPI PUSH1 0x0 DUP1 REVERT JUMPDEST POP PUSH1 0x4 CALLDATASIZE LT PUSH2 0xA9 JUMPI PUSH1 0x0 CALLDATALOAD PUSH1 0xE0 SHR DUP1 PUSH4 0x943E8216 GT PUSH2 0x71 JUMPI DUP1 PUSH4 0x943E8216 EQ PUSH2 0x158 JUMPI DUP1 PUSH4 0x9AF12816 EQ PUSH2 0x174 JUMPI DUP1 PUSH4 0x9F2524EE EQ PUSH2 0x1A4 JUMPI DUP1 PUSH4 0xB6B55F25 EQ PUSH2 0x1D4 JUMPI DUP1 PUSH4 0xCE7C2AC2 EQ PUSH2 0x1F0 JUMPI DUP1 PUSH4 0xFC0C546A EQ PUSH2 0x220 JUMPI PUSH2 0xA9 JUMP JUMPDEST DUP1 PUSH4 0x13CF08B EQ PUSH2 0xAE JUMPI DUP1 PUSH4 0x2AB09D14 EQ PUSH2 0xE4 JUMPI DUP1 PUSH4 0x2E1A7D4D EQ PUSH2 0x102 JUMPI DUP1 PUSH4 0x3A98EF39 EQ PUSH2 0x11E JUMPI DUP1 PUSH4 0x49C2A1A6 EQ PUSH2 0x13C JUMPI JUMPDEST PUSH1 0x0 DUP1 REVERT JUMPDEST PUSH2 0xC8 PUSH1 0x4 DUP1 CALLDATASIZE SUB DUP2 ADD SWAP1 PUSH2 0xC3 SWAP2 SWAP1 PUSH2 0xE4A JUMP JUMPDEST PUSH2 0x23E JUMP JUMPDEST PUSH1 0x40 MLOAD PUSH2 0xDB SWAP8 SWAP7 SWAP6 SWAP5 SWAP4 SWAP3 SWAP2 SWAP1 PUSH2 0x10F8 JUMP JUMPDEST PUSH1 0x40 MLOAD DUP1 SWAP2 SUB SWAP1 RETURN JUMPDEST PUSH2 0xEC PUSH2 0x335 JUMP JUMPDEST PUSH1 0x40 MLOAD PUSH2 0xF9 SWAP2 SWAP1 PUSH2 0x10DD JUMP JUMPDEST PUSH1 0x40 MLOAD DUP1 SWAP2 SUB SWAP1 RETURN JUMPDEST PUSH2 0x11C PUSH1 0x4 DUP1 CALLDATASIZE SUB DUP2 ADD SWAP1 PUSH2 0x117 SWAP2 SWAP1 PUSH2 0xE4A JUMP JUMPDEST PUSH2 0x33B JUMP JUMPDEST STOP JUMPDEST PUSH2 0x126 PUSH2 0x52B JUMP JUMPDEST PUSH1 0x40 MLOAD PUSH2 0x133 SWAP2 SWAP1 PUSH2 0x10DD JUMP JUMPDEST PUSH1 0x40 MLOAD DUP1 SWAP2 SUB SWAP1 RETURN JUMPDEST PUSH2 0x156 PUSH1 0x4 DUP1 CALLDATASIZE SUB DUP2 ADD SWAP1 PUSH2 0x151 SWAP2 SWAP1 PUSH2 0xE01 JUMP JUMPDEST PUSH2 0x531 JUMP JUMPDEST STOP JUMPDEST PUSH2 0x172 PUSH1 0x4 DUP1 CALLDATASIZE SUB DUP2 ADD SWAP1 PUSH2 0x16D SWAP2 SWAP1 PUSH2 0xE77 JUMP JUMPDEST PUSH2 0x709 JUMP JUMPDEST STOP JUMPDEST PUSH2 0x18E PUSH1 0x4 DUP1 CALLDATASIZE SUB DUP2 ADD SWAP1 PUSH2 0x189 SWAP2 SWAP1 PUSH2 0xD67 JUMP JUMPDEST PUSH2 0xA16 JUMP JUMPDEST PUSH1 0x40 MLOAD PUSH2 0x19B SWAP2 SWAP1 PUSH2 0x1027 JUMP JUMPDEST PUSH1 0x40 MLOAD DUP1 SWAP2 SUB SWAP1 RETURN JUMPDEST PUSH2 0x1BE PUSH1 0x4 DUP1 CALLDATASIZE SUB DUP2 ADD SWAP1 PUSH2 0x1B9 SWAP2 SWAP1 PUSH2 0xD94 JUMP JUMPDEST PUSH2 0xA36 JUMP JUMPDEST PUSH1 0x40 MLOAD PUSH2 0x1CB SWAP2 SWAP1 PUSH2 0x1027 JUMP JUMPDEST PUSH1 0x40 MLOAD DUP1 SWAP2 SUB SWAP1 RETURN JUMPDEST PUSH2 0x1EE PUSH1 0x4 DUP1 CALLDATASIZE SUB DUP2 ADD SWAP1 PUSH2 0x1E9 SWAP2 SWAP1 PUSH2 0xE4A JUMP JUMPDEST PUSH2 0xA65 JUMP JUMPDEST STOP JUMPDEST PUSH2 0x20A PUSH1 0x4 DUP1 CALLDATASIZE SUB DUP2 ADD SWAP1 PUSH2 0x205 SWAP2 SWAP1 PUSH2 0xD67 JUMP JUMPDEST PUSH2 0xBC2 JUMP JUMPDEST PUSH1 0x40 MLOAD PUSH2 0x217 SWAP2 SWAP1 PUSH2 0x10DD JUMP JUMPDEST PUSH1 0x40 MLOAD DUP1 SWAP2 SUB SWAP1 RETURN JUMPDEST PUSH2 0x228 PUSH2 0xBDA JUMP JUMPDEST PUSH1 0x40 MLOAD PUSH2 0x235 SWAP2 SWAP1 PUSH2 0x1042 JUMP JUMPDEST PUSH1 0x40 MLOAD DUP1 SWAP2 SUB SWAP1 RETURN JUMPDEST PUSH1 0x3 PUSH1 0x20 MSTORE DUP1 PUSH1 0x0 MSTORE PUSH1 0x40 PUSH1 0x0 KECCAK256 PUSH1 0x0 SWAP2 POP SWAP1 POP DUP1 PUSH1 0x0 ADD SLOAD SWAP1 DUP1 PUSH1 0x1 ADD PUSH1 0x0 SWAP1 SLOAD SWAP1 PUSH2 0x100 EXP SWAP1 DIV PUSH20 0xFFFFFFFFFFFFFFFFFFFFFFFFFFFFFFFFFFFFFFFF AND SWAP1 DUP1 PUSH1 0x2 ADD DUP1 SLOAD PUSH2 0x28D SWAP1 PUSH2 0x13DA JUMP JUMPDEST DUP1 PUSH1 0x1F ADD PUSH1 0x20 DUP1 SWAP2 DIV MUL PUSH1 0x20 ADD PUSH1 0x40 MLOAD SWAP1 DUP2 ADD PUSH1 0x40 MSTORE DUP1 SWAP3 SWAP2 SWAP1 DUP2 DUP2 MSTORE PUSH1 0x20 ADD DUP3 DUP1 SLOAD PUSH2 0x2B9 SWAP1 PUSH2 0x13DA JUMP JUMPDEST DUP1 ISZERO PUSH2 0x306 JUMPI DUP1 PUSH1 0x1F LT PUSH2 0x2DB JUMPI PUSH2 0x100 DUP1 DUP4 SLOAD DIV MUL DUP4 MSTORE SWAP2 PUSH1 0x20 ADD SWAP2 PUSH2 0x306 JUMP JUMPDEST DUP3 ADD SWAP2 SWAP1 PUSH1 0x0 MSTORE PUSH1 0x20 PUSH1 0x0 KECCAK256 SWAP1 JUMPDEST DUP2 SLOAD DUP2 MSTORE SWAP1 PUSH1 0x1 ADD SWAP1 PUSH1 0x20 ADD DUP1 DUP4 GT PUSH2 0x2E9 JUMPI DUP3 SWAP1 SUB PUSH1 0x1F AND DUP3 ADD SWAP2 JUMPDEST POP POP POP POP POP SWAP1 DUP1 PUSH1 0x3 ADD SLOAD SWAP1 DUP1 PUSH1 0x4 ADD SLOAD SWAP1 DUP1 PUSH1 0x5 ADD SLOAD SWAP1 DUP1 PUSH1 0x6 ADD PUSH1 0x0 SWAP1 SLOAD SWAP1 PUSH2 0x100 EXP SWAP1 DIV PUSH1 0xFF AND SWAP1 POP DUP8 JUMP JUMPDEST PUSH1 0x8 SLOAD DUP2 JUMP JUMPDEST PUSH8 0xDE0B6B3A7640000 DUP2 PUSH2 0x34F SWAP2 SWAP1 PUSH2 0x1267 JUMP JUMPDEST PUSH1 0x5 PUSH1 0x0 CALLER PUSH20 0xFFFFFFFFFFFFFFFFFFFFFFFFFFFFFFFFFFFFFFFF AND PUSH20 0xFFFFFFFFFFFFFFFFFFFFFFFFFFFFFFFFFFFFFFFF AND DUP2 MSTORE PUSH1 0x20 ADD SWAP1 DUP2 MSTORE PUSH1 0x20 ADD PUSH1 0x0 KECCAK256 SLOAD LT ISZERO PUSH2 0x3D0 JUMPI PUSH1 0x40 MLOAD PUSH32 0x8C379A000000000000000000000000000000000000000000000000000000000 DUP2 MSTORE PUSH1 0x4 ADD PUSH2 0x3C7 SWAP1 PUSH2 0x109D JUMP JUMPDEST PUSH1 0x40 MLOAD DUP1 SWAP2 SUB SWAP1 REVERT JUMPDEST PUSH8 0xDE0B6B3A7640000 DUP2 PUSH2 0x3E4 SWAP2 SWAP1 PUSH2 0x1267 JUMP JUMPDEST PUSH1 0x5 PUSH1 0x0 CALLER PUSH20 0xFFFFFFFFFFFFFFFFFFFFFFFFFFFFFFFFFFFFFFFF AND PUSH20 0xFFFFFFFFFFFFFFFFFFFFFFFFFFFFFFFFFFFFFFFF AND DUP2 MSTORE PUSH1 0x20 ADD SWAP1 DUP2 MSTORE PUSH1 0x20 ADD PUSH1 0x0 KECCAK256 PUSH1 0x0 DUP3 DUP3 SLOAD PUSH2 0x432 SWAP2 SWAP1 PUSH2 0x12C1 JUMP JUMPDEST SWAP3 POP POP DUP2 SWAP1 SSTORE POP PUSH8 0xDE0B6B3A7640000 DUP2 PUSH2 0x44D SWAP2 SWAP1 PUSH2 0x1267 JUMP JUMPDEST PUSH1 0x6 PUSH1 0x0 DUP3 DUP3 SLOAD PUSH2 0x45E SWAP2 SWAP1 PUSH2 0x12C1 JUMP JUMPDEST SWAP3 POP POP DUP2 SWAP1 SSTORE POP PUSH1 0x7 PUSH1 0x0 SWAP1 SLOAD SWAP1 PUSH2 0x100 EXP SWAP1 DIV PUSH20 0xFFFFFFFFFFFFFFFFFFFFFFFFFFFFFFFFFFFFFFFF AND PUSH20 0xFFFFFFFFFFFFFFFFFFFFFFFFFFFFFFFFFFFFFFFF AND PUSH4 0xA9059CBB CALLER PUSH8 0xDE0B6B3A7640000 DUP5 PUSH2 0x4B8 SWAP2 SWAP1 PUSH2 0x1267 JUMP JUMPDEST PUSH1 0x40 MLOAD DUP4 PUSH4 0xFFFFFFFF AND PUSH1 0xE0 SHL DUP2 MSTORE PUSH1 0x4 ADD PUSH2 0x4D5 SWAP3 SWAP2 SWAP1 PUSH2 0xFFE JUMP JUMPDEST PUSH1 0x20 PUSH1 0x40 MLOAD DUP1 DUP4 SUB DUP2 PUSH1 0x0 DUP8 DUP1 EXTCODESIZE ISZERO DUP1 ISZERO PUSH2 0x4EF JUMPI PUSH1 0x0 DUP1 REVERT JUMPDEST POP GAS CALL ISZERO DUP1 ISZERO PUSH2 0x503 JUMPI RETURNDATASIZE PUSH1 0x0 DUP1 RETURNDATACOPY RETURNDATASIZE PUSH1 0x0 REVERT JUMPDEST POP POP POP POP PUSH1 0x40 MLOAD RETURNDATASIZE PUSH1 0x1F NOT PUSH1 0x1F DUP3 ADD AND DUP3 ADD DUP1 PUSH1 0x40 MSTORE POP DUP2 ADD SWAP1 PUSH2 0x527 SWAP2 SWAP1 PUSH2 0xDD4 JUMP JUMPDEST POP POP JUMP JUMPDEST PUSH1 0x6 SLOAD DUP2 JUMP JUMPDEST PUSH8 0x4563918244F40000 PUSH1 0x5 PUSH1 0x0 CALLER PUSH20 0xFFFFFFFFFFFFFFFFFFFFFFFFFFFFFFFFFFFFFFFF AND PUSH20 0xFFFFFFFFFFFFFFFFFFFFFFFFFFFFFFFFFFFFFFFF AND DUP2 MSTORE PUSH1 0x20 ADD SWAP1 DUP2 MSTORE PUSH1 0x20 ADD PUSH1 0x0 KECCAK256 SLOAD LT ISZERO PUSH2 0x5BB JUMPI PUSH1 0x40 MLOAD PUSH32 0x8C379A000000000000000000000000000000000000000000000000000000000 DUP2 MSTORE PUSH1 0x4 ADD PUSH2 0x5B2 SWAP1 PUSH2 0x107D JUMP JUMPDEST PUSH1 0x40 MLOAD DUP1 SWAP2 SUB SWAP1 REVERT JUMPDEST PUSH1 0x40 MLOAD DUP1 PUSH1 0xE0 ADD PUSH1 0x40 MSTORE DUP1 PUSH1 0x8 SLOAD DUP2 MSTORE PUSH1 0x20 ADD CALLER PUSH20 0xFFFFFFFFFFFFFFFFFFFFFFFFFFFFFFFFFFFFFFFF AND DUP2 MSTORE PUSH1 0x20 ADD DUP3 DUP2 MSTORE PUSH1 0x20 ADD TIMESTAMP DUP2 MSTORE PUSH1 0x20 ADD PUSH1 0x0 DUP2 MSTORE PUSH1 0x20 ADD PUSH1 0x0 DUP2 MSTORE PUSH1 0x20 ADD PUSH1 0x2 DUP1 DUP2 GT ISZERO PUSH2 0x617 JUMPI PUSH2 0x616 PUSH2 0x14E4 JUMP JUMPDEST JUMPDEST DUP2 MSTORE POP PUSH1 0x3 PUSH1 0x0 PUSH1 0x8 SLOAD DUP2 MSTORE PUSH1 0x20 ADD SWAP1 DUP2 MSTORE PUSH1 0x20 ADD PUSH1 0x0 KECCAK256 PUSH1 0x0 DUP3 ADD MLOAD DUP2 PUSH1 0x0 ADD SSTORE PUSH1 0x20 DUP3 ADD MLOAD DUP2 PUSH1 0x1 ADD PUSH1 0x0 PUSH2 0x100 EXP DUP2 SLOAD DUP2 PUSH20 0xFFFFFFFFFFFFFFFFFFFFFFFFFFFFFFFFFFFFFFFF MUL NOT AND SWAP1 DUP4 PUSH20 0xFFFFFFFFFFFFFFFFFFFFFFFFFFFFFFFFFFFFFFFF AND MUL OR SWAP1 SSTORE POP PUSH1 0x40 DUP3 ADD MLOAD DUP2 PUSH1 0x2 ADD SWAP1 DUP1 MLOAD SWAP1 PUSH1 0x20 ADD SWAP1 PUSH2 0x69C SWAP3 SWAP2 SWAP1 PUSH2 0xC00 JUMP JUMPDEST POP PUSH1 0x60 DUP3 ADD MLOAD DUP2 PUSH1 0x3 ADD SSTORE PUSH1 0x80 DUP3 ADD MLOAD DUP2 PUSH1 0x4 ADD SSTORE PUSH1 0xA0 DUP3 ADD MLOAD DUP2 PUSH1 0x5 ADD SSTORE PUSH1 0xC0 DUP3 ADD MLOAD DUP2 PUSH1 0x6 ADD PUSH1 0x0 PUSH2 0x100 EXP DUP2 SLOAD DUP2 PUSH1 0xFF MUL NOT AND SWAP1 DUP4 PUSH1 0x2 DUP2 GT ISZERO PUSH2 0x6E6 JUMPI PUSH2 0x6E5 PUSH2 0x14E4 JUMP JUMPDEST JUMPDEST MUL OR SWAP1 SSTORE POP SWAP1 POP POP PUSH1 0x8 PUSH1 0x0 DUP2 SLOAD DUP1 SWAP3 SWAP2 SWAP1 PUSH2 0x701 SWAP1 PUSH2 0x143D JUMP JUMPDEST SWAP2 SWAP1 POP SSTORE POP POP JUMP JUMPDEST PUSH1 0x0 PUSH1 0x3 PUSH1 0x0 DUP5 DUP2 MSTORE PUSH1 0x20 ADD SWAP1 DUP2 MSTORE PUSH1 0x20 ADD PUSH1 0x0 KECCAK256 SWAP1 POP PUSH1 0x0 ISZERO ISZERO PUSH1 0x4 PUSH1 0x0 CALLER PUSH20 0xFFFFFFFFFFFFFFFFFFFFFFFFFFFFFFFFFFFFFFFF AND PUSH20 0xFFFFFFFFFFFFFFFFFFFFFFFFFFFFFFFFFFFFFFFF AND DUP2 MSTORE PUSH1 0x20 ADD SWAP1 DUP2 MSTORE PUSH1 0x20 ADD PUSH1 0x0 KECCAK256 PUSH1 0x0 DUP6 DUP2 MSTORE PUSH1 0x20 ADD SWAP1 DUP2 MSTORE PUSH1 0x20 ADD PUSH1 0x0 KECCAK256 PUSH1 0x0 SWAP1 SLOAD SWAP1 PUSH2 0x100 EXP SWAP1 DIV PUSH1 0xFF AND ISZERO ISZERO EQ PUSH2 0x7C4 JUMPI PUSH1 0x40 MLOAD PUSH32 0x8C379A000000000000000000000000000000000000000000000000000000000 DUP2 MSTORE PUSH1 0x4 ADD PUSH2 0x7BB SWAP1 PUSH2 0x105D JUMP JUMPDEST PUSH1 0x40 MLOAD DUP1 SWAP2 SUB SWAP1 REVERT JUMPDEST PUSH3 0x93A80 DUP2 PUSH1 0x3 ADD SLOAD PUSH2 0x7D7 SWAP2 SWAP1 PUSH2 0x11E0 JUMP JUMPDEST TIMESTAMP GT ISZERO PUSH2 0x819 JUMPI PUSH1 0x40 MLOAD PUSH32 0x8C379A000000000000000000000000000000000000000000000000000000000 DUP2 MSTORE PUSH1 0x4 ADD PUSH2 0x810 SWAP1 PUSH2 0x10BD JUMP JUMPDEST PUSH1 0x40 MLOAD DUP1 SWAP2 SUB SWAP1 REVERT JUMPDEST PUSH1 0x1 PUSH1 0x4 PUSH1 0x0 CALLER PUSH20 0xFFFFFFFFFFFFFFFFFFFFFFFFFFFFFFFFFFFFFFFF AND PUSH20 0xFFFFFFFFFFFFFFFFFFFFFFFFFFFFFFFFFFFFFFFF AND DUP2 MSTORE PUSH1 0x20 ADD SWAP1 DUP2 MSTORE PUSH1 0x20 ADD PUSH1 0x0 KECCAK256 PUSH1 0x0 DUP6 DUP2 MSTORE PUSH1 0x20 ADD SWAP1 DUP2 MSTORE PUSH1 0x20 ADD PUSH1 0x0 KECCAK256 PUSH1 0x0 PUSH2 0x100 EXP DUP2 SLOAD DUP2 PUSH1 0xFF MUL NOT AND SWAP1 DUP4 ISZERO ISZERO MUL OR SWAP1 SSTORE POP PUSH1 0x0 PUSH1 0x1 DUP2 GT ISZERO PUSH2 0x896 JUMPI PUSH2 0x895 PUSH2 0x14E4 JUMP JUMPDEST JUMPDEST DUP3 PUSH1 0x1 DUP2 GT ISZERO PUSH2 0x8A9 JUMPI PUSH2 0x8A8 PUSH2 0x14E4 JUMP JUMPDEST JUMPDEST EQ ISZERO PUSH2 0x962 JUMPI PUSH1 0x5 PUSH1 0x0 CALLER PUSH20 0xFFFFFFFFFFFFFFFFFFFFFFFFFFFFFFFFFFFFFFFF AND PUSH20 0xFFFFFFFFFFFFFFFFFFFFFFFFFFFFFFFFFFFFFFFF AND DUP2 MSTORE PUSH1 0x20 ADD SWAP1 DUP2 MSTORE PUSH1 0x20 ADD PUSH1 0x0 KECCAK256 SLOAD DUP2 PUSH1 0x4 ADD PUSH1 0x0 DUP3 DUP3 SLOAD PUSH2 0x902 SWAP2 SWAP1 PUSH2 0x11E0 JUMP JUMPDEST SWAP3 POP POP DUP2 SWAP1 SSTORE POP PUSH1 0x32 PUSH1 0x6 SLOAD PUSH1 0x64 DUP4 PUSH1 0x4 ADD SLOAD PUSH2 0x91F SWAP2 SWAP1 PUSH2 0x1267 JUMP JUMPDEST PUSH2 0x929 SWAP2 SWAP1 PUSH2 0x1236 JUMP JUMPDEST GT ISZERO PUSH2 0x95D JUMPI PUSH1 0x0 DUP2 PUSH1 0x6 ADD PUSH1 0x0 PUSH2 0x100 EXP DUP2 SLOAD DUP2 PUSH1 0xFF MUL NOT AND SWAP1 DUP4 PUSH1 0x2 DUP2 GT ISZERO PUSH2 0x957 JUMPI PUSH2 0x956 PUSH2 0x14E4 JUMP JUMPDEST JUMPDEST MUL OR SWAP1 SSTORE POP JUMPDEST PUSH2 0xA11 JUMP JUMPDEST PUSH1 0x5 PUSH1 0x0 CALLER PUSH20 0xFFFFFFFFFFFFFFFFFFFFFFFFFFFFFFFFFFFFFFFF AND PUSH20 0xFFFFFFFFFFFFFFFFFFFFFFFFFFFFFFFFFFFFFFFF AND DUP2 MSTORE PUSH1 0x20 ADD SWAP1 DUP2 MSTORE PUSH1 0x20 ADD PUSH1 0x0 KECCAK256 SLOAD DUP2 PUSH1 0x5 ADD PUSH1 0x0 DUP3 DUP3 SLOAD PUSH2 0x9B5 SWAP2 SWAP1 PUSH2 0x11E0 JUMP JUMPDEST SWAP3 POP POP DUP2 SWAP1 SSTORE POP PUSH1 0x32 PUSH1 0x6 SLOAD PUSH1 0x64 DUP4 PUSH1 0x5 ADD SLOAD PUSH2 0x9D2 SWAP2 SWAP1 PUSH2 0x1267 JUMP JUMPDEST PUSH2 0x9DC SWAP2 SWAP1 PUSH2 0x1236 JUMP JUMPDEST GT ISZERO PUSH2 0xA10 JUMPI PUSH1 0x1 DUP2 PUSH1 0x6 ADD PUSH1 0x0 PUSH2 0x100 EXP DUP2 SLOAD DUP2 PUSH1 0xFF MUL NOT AND SWAP1 DUP4 PUSH1 0x2 DUP2 GT ISZERO PUSH2 0xA0A JUMPI PUSH2 0xA09 PUSH2 0x14E4 JUMP JUMPDEST JUMPDEST MUL OR SWAP1 SSTORE POP JUMPDEST JUMPDEST POP POP POP JUMP JUMPDEST PUSH1 0x2 PUSH1 0x20 MSTORE DUP1 PUSH1 0x0 MSTORE PUSH1 0x40 PUSH1 0x0 KECCAK256 PUSH1 0x0 SWAP2 POP SLOAD SWAP1 PUSH2 0x100 EXP SWAP1 DIV PUSH1 0xFF AND DUP2 JUMP JUMPDEST PUSH1 0x4 PUSH1 0x20 MSTORE DUP2 PUSH1 0x0 MSTORE PUSH1 0x40 PUSH1 0x0 KECCAK256 PUSH1 0x20 MSTORE DUP1 PUSH1 0x0 MSTORE PUSH1 0x40 PUSH1 0x0 KECCAK256 PUSH1 0x0 SWAP2 POP SWAP2 POP SWAP1 SLOAD SWAP1 PUSH2 0x100 EXP SWAP1 DIV PUSH1 0xFF AND DUP2 JUMP JUMPDEST PUSH8 0xDE0B6B3A7640000 DUP2 PUSH2 0xA79 SWAP2 SWAP1 PUSH2 0x1267 JUMP JUMPDEST PUSH1 0x5 PUSH1 0x0 CALLER PUSH20 0xFFFFFFFFFFFFFFFFFFFFFFFFFFFFFFFFFFFFFFFF AND PUSH20 0xFFFFFFFFFFFFFFFFFFFFFFFFFFFFFFFFFFFFFFFF AND DUP2 MSTORE PUSH1 0x20 ADD SWAP1 DUP2 MSTORE PUSH1 0x20 ADD PUSH1 0x0 KECCAK256 PUSH1 0x0 DUP3 DUP3 SLOAD PUSH2 0xAC7 SWAP2 SWAP1 PUSH2 0x11E0 JUMP JUMPDEST SWAP3 POP POP DUP2 SWAP1 SSTORE POP PUSH8 0xDE0B6B3A7640000 DUP2 PUSH2 0xAE2 SWAP2 SWAP1 PUSH2 0x1267 JUMP JUMPDEST PUSH1 0x6 PUSH1 0x0 DUP3 DUP3 SLOAD PUSH2 0xAF3 SWAP2 SWAP1 PUSH2 0x11E0 JUMP JUMPDEST SWAP3 POP POP DUP2 SWAP1 SSTORE POP PUSH1 0x7 PUSH1 0x0 SWAP1 SLOAD SWAP1 PUSH2 0x100 EXP SWAP1 DIV PUSH20 0xFFFFFFFFFFFFFFFFFFFFFFFFFFFFFFFFFFFFFFFF AND PUSH20 0xFFFFFFFFFFFFFFFFFFFFFFFFFFFFFFFFFFFFFFFF AND PUSH4 0x23B872DD CALLER ADDRESS PUSH8 0xDE0B6B3A7640000 DUP6 PUSH2 0xB4E SWAP2 SWAP1 PUSH2 0x1267 JUMP JUMPDEST PUSH1 0x40 MLOAD DUP5 PUSH4 0xFFFFFFFF AND PUSH1 0xE0 SHL DUP2 MSTORE PUSH1 0x4 ADD PUSH2 0xB6C SWAP4 SWAP3 SWAP2 SWAP1 PUSH2 0xFC7 JUMP JUMPDEST PUSH1 0x20 PUSH1 0x40 MLOAD DUP1 DUP4 SUB DUP2 PUSH1 0x0 DUP8 DUP1 EXTCODESIZE ISZERO DUP1 ISZERO PUSH2 0xB86 JUMPI PUSH1 0x0 DUP1 REVERT JUMPDEST POP GAS CALL ISZERO DUP1 ISZERO PUSH2 0xB9A JUMPI RETURNDATASIZE PUSH1 0x0 DUP1 RETURNDATACOPY RETURNDATASIZE PUSH1 0x0 REVERT JUMPDEST POP POP POP POP PUSH1 0x40 MLOAD RETURNDATASIZE PUSH1 0x1F NOT PUSH1 0x1F DUP3 ADD AND DUP3 ADD DUP1 PUSH1 0x40 MSTORE POP DUP2 ADD SWAP1 PUSH2 0xBBE SWAP2 SWAP1 PUSH2 0xDD4 JUMP JUMPDEST POP POP JUMP JUMPDEST PUSH1 0x5 PUSH1 0x20 MSTORE DUP1 PUSH1 0x0 MSTORE PUSH1 0x40 PUSH1 0x0 KECCAK256 PUSH1 0x0 SWAP2 POP SWAP1 POP SLOAD DUP2 JUMP JUMPDEST PUSH1 0x7 PUSH1 0x0 SWAP1 SLOAD SWAP1 PUSH2 0x100 EXP SWAP1 DIV PUSH20 0xFFFFFFFFFFFFFFFFFFFFFFFFFFFFFFFFFFFFFFFF AND DUP2 JUMP JUMPDEST DUP3 DUP1 SLOAD PUSH2 0xC0C SWAP1 PUSH2 0x13DA JUMP JUMPDEST SWAP1 PUSH1 0x0 MSTORE PUSH1 0x20 PUSH1 0x0 KECCAK256 SWAP1 PUSH1 0x1F ADD PUSH1 0x20 SWAP1 DIV DUP2 ADD SWAP3 DUP3 PUSH2 0xC2E JUMPI PUSH1 0x0 DUP6 SSTORE PUSH2 0xC75 JUMP JUMPDEST DUP3 PUSH1 0x1F LT PUSH2 0xC47 JUMPI DUP1 MLOAD PUSH1 0xFF NOT AND DUP4 DUP1 ADD OR DUP6 SSTORE PUSH2 0xC75 JUMP JUMPDEST DUP3 DUP1 ADD PUSH1 0x1 ADD DUP6 SSTORE DUP3 ISZERO PUSH2 0xC75 JUMPI SWAP2 DUP3 ADD JUMPDEST DUP3 DUP2 GT ISZERO PUSH2 0xC74 JUMPI DUP3 MLOAD DUP3 SSTORE SWAP2 PUSH1 0x20 ADD SWAP2 SWAP1 PUSH1 0x1 ADD SWAP1 PUSH2 0xC59 JUMP JUMPDEST JUMPDEST POP SWAP1 POP PUSH2 0xC82 SWAP2 SWAP1 PUSH2 0xC86 JUMP JUMPDEST POP SWAP1 JUMP JUMPDEST JUMPDEST DUP1 DUP3 GT ISZERO PUSH2 0xC9F JUMPI PUSH1 0x0 DUP2 PUSH1 0x0 SWAP1 SSTORE POP PUSH1 0x1 ADD PUSH2 0xC87 JUMP JUMPDEST POP SWAP1 JUMP JUMPDEST PUSH1 0x0 PUSH2 0xCB6 PUSH2 0xCB1 DUP5 PUSH2 0x1193 JUMP JUMPDEST PUSH2 0x116E JUMP JUMPDEST SWAP1 POP DUP3 DUP2 MSTORE PUSH1 0x20 DUP2 ADD DUP5 DUP5 DUP5 ADD GT ISZERO PUSH2 0xCD2 JUMPI PUSH2 0xCD1 PUSH2 0x1576 JUMP JUMPDEST JUMPDEST PUSH2 0xCDD DUP5 DUP3 DUP6 PUSH2 0x1398 JUMP JUMPDEST POP SWAP4 SWAP3 POP POP POP JUMP JUMPDEST PUSH1 0x0 DUP2 CALLDATALOAD SWAP1 POP PUSH2 0xCF4 DUP2 PUSH2 0x1674 JUMP JUMPDEST SWAP3 SWAP2 POP POP JUMP JUMPDEST PUSH1 0x0 DUP2 MLOAD SWAP1 POP PUSH2 0xD09 DUP2 PUSH2 0x168B JUMP JUMPDEST SWAP3 SWAP2 POP POP JUMP JUMPDEST PUSH1 0x0 DUP2 CALLDATALOAD SWAP1 POP PUSH2 0xD1E DUP2 PUSH2 0x16A2 JUMP JUMPDEST SWAP3 SWAP2 POP POP JUMP JUMPDEST PUSH1 0x0 DUP3 PUSH1 0x1F DUP4 ADD SLT PUSH2 0xD39 JUMPI PUSH2 0xD38 PUSH2 0x1571 JUMP JUMPDEST JUMPDEST DUP2 CALLDATALOAD PUSH2 0xD49 DUP5 DUP3 PUSH1 0x20 DUP7 ADD PUSH2 0xCA3 JUMP JUMPDEST SWAP2 POP POP SWAP3 SWAP2 POP POP JUMP JUMPDEST PUSH1 0x0 DUP2 CALLDATALOAD SWAP1 POP PUSH2 0xD61 DUP2 PUSH2 0x16B2 JUMP JUMPDEST SWAP3 SWAP2 POP POP JUMP JUMPDEST PUSH1 0x0 PUSH1 0x20 DUP3 DUP5 SUB SLT ISZERO PUSH2 0xD7D JUMPI PUSH2 0xD7C PUSH2 0x1580 JUMP JUMPDEST JUMPDEST PUSH1 0x0 PUSH2 0xD8B DUP5 DUP3 DUP6 ADD PUSH2 0xCE5 JUMP JUMPDEST SWAP2 POP POP SWAP3 SWAP2 POP POP JUMP JUMPDEST PUSH1 0x0 DUP1 PUSH1 0x40 DUP4 DUP6 SUB SLT ISZERO PUSH2 0xDAB JUMPI PUSH2 0xDAA PUSH2 0x1580 JUMP JUMPDEST JUMPDEST PUSH1 0x0 PUSH2 0xDB9 DUP6 DUP3 DUP7 ADD PUSH2 0xCE5 JUMP JUMPDEST SWAP3 POP POP PUSH1 0x20 PUSH2 0xDCA DUP6 DUP3 DUP7 ADD PUSH2 0xD52 JUMP JUMPDEST SWAP2 POP POP SWAP3 POP SWAP3 SWAP1 POP JUMP JUMPDEST PUSH1 0x0 PUSH1 0x20 DUP3 DUP5 SUB SLT ISZERO PUSH2 0xDEA JUMPI PUSH2 0xDE9 PUSH2 0x1580 JUMP JUMPDEST JUMPDEST PUSH1 0x0 PUSH2 0xDF8 DUP5 DUP3 DUP6 ADD PUSH2 0xCFA JUMP JUMPDEST SWAP2 POP POP SWAP3 SWAP2 POP POP JUMP JUMPDEST PUSH1 0x0 PUSH1 0x20 DUP3 DUP5 SUB SLT ISZERO PUSH2 0xE17 JUMPI PUSH2 0xE16 PUSH2 0x1580 JUMP JUMPDEST JUMPDEST PUSH1 0x0 DUP3 ADD CALLDATALOAD PUSH8 0xFFFFFFFFFFFFFFFF DUP2 GT ISZERO PUSH2 0xE35 JUMPI PUSH2 0xE34 PUSH2 0x157B JUMP JUMPDEST JUMPDEST PUSH2 0xE41 DUP5 DUP3 DUP6 ADD PUSH2 0xD24 JUMP JUMPDEST SWAP2 POP POP SWAP3 SWAP2 POP POP JUMP JUMPDEST PUSH1 0x0 PUSH1 0x20 DUP3 DUP5 SUB SLT ISZERO PUSH2 0xE60 JUMPI PUSH2 0xE5F PUSH2 0x1580 JUMP JUMPDEST JUMPDEST PUSH1 0x0 PUSH2 0xE6E DUP5 DUP3 DUP6 ADD PUSH2 0xD52 JUMP JUMPDEST SWAP2 POP POP SWAP3 SWAP2 POP POP JUMP JUMPDEST PUSH1 0x0 DUP1 PUSH1 0x40 DUP4 DUP6 SUB SLT ISZERO PUSH2 0xE8E JUMPI PUSH2 0xE8D PUSH2 0x1580 JUMP JUMPDEST JUMPDEST PUSH1 0x0 PUSH2 0xE9C DUP6 DUP3 DUP7 ADD PUSH2 0xD52 JUMP JUMPDEST SWAP3 POP POP PUSH1 0x20 PUSH2 0xEAD DUP6 DUP3 DUP7 ADD PUSH2 0xD0F JUMP JUMPDEST SWAP2 POP POP SWAP3 POP SWAP3 SWAP1 POP JUMP JUMPDEST PUSH2 0xEC0 DUP2 PUSH2 0x12F5 JUMP JUMPDEST DUP3 MSTORE POP POP JUMP JUMPDEST PUSH2 0xECF DUP2 PUSH2 0x1307 JUMP JUMPDEST DUP3 MSTORE POP POP JUMP JUMPDEST PUSH2 0xEDE DUP2 PUSH2 0x1350 JUMP JUMPDEST DUP3 MSTORE POP POP JUMP JUMPDEST PUSH2 0xEED DUP2 PUSH2 0x1362 JUMP JUMPDEST DUP3 MSTORE POP POP JUMP JUMPDEST PUSH1 0x0 PUSH2 0xEFE DUP3 PUSH2 0x11C4 JUMP JUMPDEST PUSH2 0xF08 DUP2 DUP6 PUSH2 0x11CF JUMP JUMPDEST SWAP4 POP PUSH2 0xF18 DUP2 DUP6 PUSH1 0x20 DUP7 ADD PUSH2 0x13A7 JUMP JUMPDEST PUSH2 0xF21 DUP2 PUSH2 0x1585 JUMP JUMPDEST DUP5 ADD SWAP2 POP POP SWAP3 SWAP2 POP POP JUMP JUMPDEST PUSH1 0x0 PUSH2 0xF39 PUSH1 0xD DUP4 PUSH2 0x11CF JUMP JUMPDEST SWAP2 POP PUSH2 0xF44 DUP3 PUSH2 0x1596 JUMP JUMPDEST PUSH1 0x20 DUP3 ADD SWAP1 POP SWAP2 SWAP1 POP JUMP JUMPDEST PUSH1 0x0 PUSH2 0xF5C PUSH1 0x26 DUP4 PUSH2 0x11CF JUMP JUMPDEST SWAP2 POP PUSH2 0xF67 DUP3 PUSH2 0x15BF JUMP JUMPDEST PUSH1 0x40 DUP3 ADD SWAP1 POP SWAP2 SWAP1 POP JUMP JUMPDEST PUSH1 0x0 PUSH2 0xF7F PUSH1 0x11 DUP4 PUSH2 0x11CF JUMP JUMPDEST SWAP2 POP PUSH2 0xF8A DUP3 PUSH2 0x160E JUMP JUMPDEST PUSH1 0x20 DUP3 ADD SWAP1 POP SWAP2 SWAP1 POP JUMP JUMPDEST PUSH1 0x0 PUSH2 0xFA2 PUSH1 0x15 DUP4 PUSH2 0x11CF JUMP JUMPDEST SWAP2 POP PUSH2 0xFAD DUP3 PUSH2 0x1637 JUMP JUMPDEST PUSH1 0x20 DUP3 ADD SWAP1 POP SWAP2 SWAP1 POP JUMP JUMPDEST PUSH2 0xFC1 DUP2 PUSH2 0x1346 JUMP JUMPDEST DUP3 MSTORE POP POP JUMP JUMPDEST PUSH1 0x0 PUSH1 0x60 DUP3 ADD SWAP1 POP PUSH2 0xFDC PUSH1 0x0 DUP4 ADD DUP7 PUSH2 0xEB7 JUMP JUMPDEST PUSH2 0xFE9 PUSH1 0x20 DUP4 ADD DUP6 PUSH2 0xEB7 JUMP JUMPDEST PUSH2 0xFF6 PUSH1 0x40 DUP4 ADD DUP5 PUSH2 0xFB8 JUMP JUMPDEST SWAP5 SWAP4 POP POP POP POP JUMP JUMPDEST PUSH1 0x0 PUSH1 0x40 DUP3 ADD SWAP1 POP PUSH2 0x1013 PUSH1 0x0 DUP4 ADD DUP6 PUSH2 0xEB7 JUMP JUMPDEST PUSH2 0x1020 PUSH1 0x20 DUP4 ADD DUP5 PUSH2 0xFB8 JUMP JUMPDEST SWAP4 SWAP3 POP POP POP JUMP JUMPDEST PUSH1 0x0 PUSH1 0x20 DUP3 ADD SWAP1 POP PUSH2 0x103C PUSH1 0x0 DUP4 ADD DUP5 PUSH2 0xEC6 JUMP JUMPDEST SWAP3 SWAP2 POP POP JUMP JUMPDEST PUSH1 0x0 PUSH1 0x20 DUP3 ADD SWAP1 POP PUSH2 0x1057 PUSH1 0x0 DUP4 ADD DUP5 PUSH2 0xED5 JUMP JUMPDEST SWAP3 SWAP2 POP POP JUMP JUMPDEST PUSH1 0x0 PUSH1 0x20 DUP3 ADD SWAP1 POP DUP2 DUP2 SUB PUSH1 0x0 DUP4 ADD MSTORE PUSH2 0x1076 DUP2 PUSH2 0xF2C JUMP JUMPDEST SWAP1 POP SWAP2 SWAP1 POP JUMP JUMPDEST PUSH1 0x0 PUSH1 0x20 DUP3 ADD SWAP1 POP DUP2 DUP2 SUB PUSH1 0x0 DUP4 ADD MSTORE PUSH2 0x1096 DUP2 PUSH2 0xF4F JUMP JUMPDEST SWAP1 POP SWAP2 SWAP1 POP JUMP JUMPDEST PUSH1 0x0 PUSH1 0x20 DUP3 ADD SWAP1 POP DUP2 DUP2 SUB PUSH1 0x0 DUP4 ADD MSTORE PUSH2 0x10B6 DUP2 PUSH2 0xF72 JUMP JUMPDEST SWAP1 POP SWAP2 SWAP1 POP JUMP JUMPDEST PUSH1 0x0 PUSH1 0x20 DUP3 ADD SWAP1 POP DUP2 DUP2 SUB PUSH1 0x0 DUP4 ADD MSTORE PUSH2 0x10D6 DUP2 PUSH2 0xF95 JUMP JUMPDEST SWAP1 POP SWAP2 SWAP1 POP JUMP JUMPDEST PUSH1 0x0 PUSH1 0x20 DUP3 ADD SWAP1 POP PUSH2 0x10F2 PUSH1 0x0 DUP4 ADD DUP5 PUSH2 0xFB8 JUMP JUMPDEST SWAP3 SWAP2 POP POP JUMP JUMPDEST PUSH1 0x0 PUSH1 0xE0 DUP3 ADD SWAP1 POP PUSH2 0x110D PUSH1 0x0 DUP4 ADD DUP11 PUSH2 0xFB8 JUMP JUMPDEST PUSH2 0x111A PUSH1 0x20 DUP4 ADD DUP10 PUSH2 0xEB7 JUMP JUMPDEST DUP2 DUP2 SUB PUSH1 0x40 DUP4 ADD MSTORE PUSH2 0x112C DUP2 DUP9 PUSH2 0xEF3 JUMP JUMPDEST SWAP1 POP PUSH2 0x113B PUSH1 0x60 DUP4 ADD DUP8 PUSH2 0xFB8 JUMP JUMPDEST PUSH2 0x1148 PUSH1 0x80 DUP4 ADD DUP7 PUSH2 0xFB8 JUMP JUMPDEST PUSH2 0x1155 PUSH1 0xA0 DUP4 ADD DUP6 PUSH2 0xFB8 JUMP JUMPDEST PUSH2 0x1162 PUSH1 0xC0 DUP4 ADD DUP5 PUSH2 0xEE4 JUMP JUMPDEST SWAP9 SWAP8 POP POP POP POP POP POP POP POP JUMP JUMPDEST PUSH1 0x0 PUSH2 0x1178 PUSH2 0x1189 JUMP JUMPDEST SWAP1 POP PUSH2 0x1184 DUP3 DUP3 PUSH2 0x140C JUMP JUMPDEST SWAP2 SWAP1 POP JUMP JUMPDEST PUSH1 0x0 PUSH1 0x40 MLOAD SWAP1 POP SWAP1 JUMP JUMPDEST PUSH1 0x0 PUSH8 0xFFFFFFFFFFFFFFFF DUP3 GT ISZERO PUSH2 0x11AE JUMPI PUSH2 0x11AD PUSH2 0x1542 JUMP JUMPDEST JUMPDEST PUSH2 0x11B7 DUP3 PUSH2 0x1585 JUMP JUMPDEST SWAP1 POP PUSH1 0x20 DUP2 ADD SWAP1 POP SWAP2 SWAP1 POP JUMP JUMPDEST PUSH1 0x0 DUP2 MLOAD SWAP1 POP SWAP2 SWAP1 POP JUMP JUMPDEST PUSH1 0x0 DUP3 DUP3 MSTORE PUSH1 0x20 DUP3 ADD SWAP1 POP SWAP3 SWAP2 POP POP JUMP JUMPDEST PUSH1 0x0 PUSH2 0x11EB DUP3 PUSH2 0x1346 JUMP JUMPDEST SWAP2 POP PUSH2 0x11F6 DUP4 PUSH2 0x1346 JUMP JUMPDEST SWAP3 POP DUP3 PUSH32 0xFFFFFFFFFFFFFFFFFFFFFFFFFFFFFFFFFFFFFFFFFFFFFFFFFFFFFFFFFFFFFFFF SUB DUP3 GT ISZERO PUSH2 0x122B JUMPI PUSH2 0x122A PUSH2 0x1486 JUMP JUMPDEST JUMPDEST DUP3 DUP3 ADD SWAP1 POP SWAP3 SWAP2 POP POP JUMP JUMPDEST PUSH1 0x0 PUSH2 0x1241 DUP3 PUSH2 0x1346 JUMP JUMPDEST SWAP2 POP PUSH2 0x124C DUP4 PUSH2 0x1346 JUMP JUMPDEST SWAP3 POP DUP3 PUSH2 0x125C JUMPI PUSH2 0x125B PUSH2 0x14B5 JUMP JUMPDEST JUMPDEST DUP3 DUP3 DIV SWAP1 POP SWAP3 SWAP2 POP POP JUMP JUMPDEST PUSH1 0x0 PUSH2 0x1272 DUP3 PUSH2 0x1346 JUMP JUMPDEST SWAP2 POP PUSH2 0x127D DUP4 PUSH2 0x1346 JUMP JUMPDEST SWAP3 POP DUP2 PUSH32 0xFFFFFFFFFFFFFFFFFFFFFFFFFFFFFFFFFFFFFFFFFFFFFFFFFFFFFFFFFFFFFFFF DIV DUP4 GT DUP3 ISZERO ISZERO AND ISZERO PUSH2 0x12B6 JUMPI PUSH2 0x12B5 PUSH2 0x1486 JUMP JUMPDEST JUMPDEST DUP3 DUP3 MUL SWAP1 POP SWAP3 SWAP2 POP POP JUMP JUMPDEST PUSH1 0x0 PUSH2 0x12CC DUP3 PUSH2 0x1346 JUMP JUMPDEST SWAP2 POP PUSH2 0x12D7 DUP4 PUSH2 0x1346 JUMP JUMPDEST SWAP3 POP DUP3 DUP3 LT ISZERO PUSH2 0x12EA JUMPI PUSH2 0x12E9 PUSH2 0x1486 JUMP JUMPDEST JUMPDEST DUP3 DUP3 SUB SWAP1 POP SWAP3 SWAP2 POP POP JUMP JUMPDEST PUSH1 0x0 PUSH2 0x1300 DUP3 PUSH2 0x1326 JUMP JUMPDEST SWAP1 POP SWAP2 SWAP1 POP JUMP JUMPDEST PUSH1 0x0 DUP2 ISZERO ISZERO SWAP1 POP SWAP2 SWAP1 POP JUMP JUMPDEST PUSH1 0x0 DUP2 SWAP1 POP PUSH2 0x1321 DUP3 PUSH2 0x1660 JUMP JUMPDEST SWAP2 SWAP1 POP JUMP JUMPDEST PUSH1 0x0 PUSH20 0xFFFFFFFFFFFFFFFFFFFFFFFFFFFFFFFFFFFFFFFF DUP3 AND SWAP1 POP SWAP2 SWAP1 POP JUMP JUMPDEST PUSH1 0x0 DUP2 SWAP1 POP SWAP2 SWAP1 POP JUMP JUMPDEST PUSH1 0x0 PUSH2 0x135B DUP3 PUSH2 0x1374 JUMP JUMPDEST SWAP1 POP SWAP2 SWAP1 POP JUMP JUMPDEST PUSH1 0x0 PUSH2 0x136D DUP3 PUSH2 0x1313 JUMP JUMPDEST SWAP1 POP SWAP2 SWAP1 POP JUMP JUMPDEST PUSH1 0x0 PUSH2 0x137F DUP3 PUSH2 0x1386 JUMP JUMPDEST SWAP1 POP SWAP2 SWAP1 POP JUMP JUMPDEST PUSH1 0x0 PUSH2 0x1391 DUP3 PUSH2 0x1326 JUMP JUMPDEST SWAP1 POP SWAP2 SWAP1 POP JUMP JUMPDEST DUP3 DUP2 DUP4 CALLDATACOPY PUSH1 0x0 DUP4 DUP4 ADD MSTORE POP POP POP JUMP JUMPDEST PUSH1 0x0 JUMPDEST DUP4 DUP2 LT ISZERO PUSH2 0x13C5 JUMPI DUP1 DUP3 ADD MLOAD DUP2 DUP5 ADD MSTORE PUSH1 0x20 DUP2 ADD SWAP1 POP PUSH2 0x13AA JUMP JUMPDEST DUP4 DUP2 GT ISZERO PUSH2 0x13D4 JUMPI PUSH1 0x0 DUP5 DUP5 ADD MSTORE JUMPDEST POP POP POP POP JUMP JUMPDEST PUSH1 0x0 PUSH1 0x2 DUP3 DIV SWAP1 POP PUSH1 0x1 DUP3 AND DUP1 PUSH2 0x13F2 JUMPI PUSH1 0x7F DUP3 AND SWAP2 POP JUMPDEST PUSH1 0x20 DUP3 LT DUP2 EQ ISZERO PUSH2 0x1406 JUMPI PUSH2 0x1405 PUSH2 0x1513 JUMP JUMPDEST JUMPDEST POP SWAP2 SWAP1 POP JUMP JUMPDEST PUSH2 0x1415 DUP3 PUSH2 0x1585 JUMP JUMPDEST DUP2 ADD DUP2 DUP2 LT PUSH8 0xFFFFFFFFFFFFFFFF DUP3 GT OR ISZERO PUSH2 0x1434 JUMPI PUSH2 0x1433 PUSH2 0x1542 JUMP JUMPDEST JUMPDEST DUP1 PUSH1 0x40 MSTORE POP POP POP JUMP JUMPDEST PUSH1 0x0 PUSH2 0x1448 DUP3 PUSH2 0x1346 JUMP JUMPDEST SWAP2 POP PUSH32 0xFFFFFFFFFFFFFFFFFFFFFFFFFFFFFFFFFFFFFFFFFFFFFFFFFFFFFFFFFFFFFFFF DUP3 EQ ISZERO PUSH2 0x147B JUMPI PUSH2 0x147A PUSH2 0x1486 JUMP JUMPDEST JUMPDEST PUSH1 0x1 DUP3 ADD SWAP1 POP SWAP2 SWAP1 POP JUMP JUMPDEST PUSH32 0x4E487B7100000000000000000000000000000000000000000000000000000000 PUSH1 0x0 MSTORE PUSH1 0x11 PUSH1 0x4 MSTORE PUSH1 0x24 PUSH1 0x0 REVERT JUMPDEST PUSH32 0x4E487B7100000000000000000000000000000000000000000000000000000000 PUSH1 0x0 MSTORE PUSH1 0x12 PUSH1 0x4 MSTORE PUSH1 0x24 PUSH1 0x0 REVERT JUMPDEST PUSH32 0x4E487B7100000000000000000000000000000000000000000000000000000000 PUSH1 0x0 MSTORE PUSH1 0x21 PUSH1 0x4 MSTORE PUSH1 0x24 PUSH1 0x0 REVERT JUMPDEST PUSH32 0x4E487B7100000000000000000000000000000000000000000000000000000000 PUSH1 0x0 MSTORE PUSH1 0x22 PUSH1 0x4 MSTORE PUSH1 0x24 PUSH1 0x0 REVERT JUMPDEST PUSH32 0x4E487B7100000000000000000000000000000000000000000000000000000000 PUSH1 0x0 MSTORE PUSH1 0x41 PUSH1 0x4 MSTORE PUSH1 0x24 PUSH1 0x0 REVERT JUMPDEST PUSH1 0x0 DUP1 REVERT JUMPDEST PUSH1 0x0 DUP1 REVERT JUMPDEST PUSH1 0x0 DUP1 REVERT JUMPDEST PUSH1 0x0 DUP1 REVERT JUMPDEST PUSH1 0x0 PUSH1 0x1F NOT PUSH1 0x1F DUP4 ADD AND SWAP1 POP SWAP2 SWAP1 POP JUMP JUMPDEST PUSH32 0x616C726561647920766F74656400000000000000000000000000000000000000 PUSH1 0x0 DUP3 ADD MSTORE POP JUMP JUMPDEST PUSH32 0x4E6F7420656E6F7567682073686172657320746F206372656174652061207072 PUSH1 0x0 DUP3 ADD MSTORE PUSH32 0x6F706F73616C0000000000000000000000000000000000000000000000000000 PUSH1 0x20 DUP3 ADD MSTORE POP JUMP JUMPDEST PUSH32 0x4E6F7420656E6F75676820736861726573000000000000000000000000000000 PUSH1 0x0 DUP3 ADD MSTORE POP JUMP JUMPDEST PUSH32 0x566F74696E6720706572696F64206973206F7665720000000000000000000000 PUSH1 0x0 DUP3 ADD MSTORE POP JUMP JUMPDEST PUSH1 0x3 DUP2 LT PUSH2 0x1671 JUMPI PUSH2 0x1670 PUSH2 0x14E4 JUMP JUMPDEST JUMPDEST POP JUMP JUMPDEST PUSH2 0x167D DUP2 PUSH2 0x12F5 JUMP JUMPDEST DUP2 EQ PUSH2 0x1688 JUMPI PUSH1 0x0 DUP1 REVERT JUMPDEST POP JUMP JUMPDEST PUSH2 0x1694 DUP2 PUSH2 0x1307 JUMP JUMPDEST DUP2 EQ PUSH2 0x169F JUMPI PUSH1 0x0 DUP1 REVERT JUMPDEST POP JUMP JUMPDEST PUSH1 0x2 DUP2 LT PUSH2 0x16AF JUMPI PUSH1 0x0 DUP1 REVERT JUMPDEST POP JUMP JUMPDEST PUSH2 0x16BB DUP2 PUSH2 0x1346 JUMP JUMPDEST DUP2 EQ PUSH2 0x16C6 JUMPI PUSH1 0x0 DUP1 REVERT JUMPDEST POP JUMP INVALID LOG2 PUSH5 0x6970667358 0x22 SLT KECCAK256 CODECOPY DUP7 SAR PUSH24 0x9AA1802309B6D85E1F467AC905FC948CD1019E386DF8900F NOT 0xBF SIGNEXTEND 0xEE PUSH5 0x736F6C6343 STOP ADDMOD SMOD STOP CALLER LOG2 PUSH5 0x6970667358 0x22 SLT KECCAK256 0xEE 0x5D 0xE0 0x21 0x26 0x2C 0xED 0xC0 PUSH2 0x2257 0x2D 0x4B DUP1 0xE0 ADDMOD 0xEA 0x4E 0xEB SLOAD PUSH28 0x78301116F7396EEE20895664736F6C63430008070033000000000000 "
		},
		"gasEstimates": {
			"creation": {
				"codeDepositCost": "4287400",
				"executionCost": "29303",
				"totalCost": "4316703"
			},
			"external": {
				"_child_daos(uint256)": "5043",
				"addCreator(address)": "24835",
				"allFoundations(uint256,uint256)": "infinite",
				"createDAO(string,string)": "infinite",
				"createDAO2(address,address)": "infinite",
				"dao_first_yk(address)": "infinite",
				"dao_tokens(address)": "infinite",
				"getChildCount()": "3443",
				"is_a_dao_creator(address)": "2933",
				"token_first_yk(address)": "infinite"
			}
		},
		"methodIdentifiers": {
			"_child_daos(uint256)": "09008e4e",
			"addCreator(address)": "3b9dce05",
			"allFoundations(uint256,uint256)": "b12bde42",
			"createDAO(string,string)": "e22ac150",
			"createDAO2(address,address)": "544d1fd0",
			"dao_first_yk(address)": "6b845265",
			"dao_tokens(address)": "e4b60969",
			"getChildCount()": "a2ed365b",
			"is_a_dao_creator(address)": "fe4524b3",
			"token_first_yk(address)": "81a6520a"
		}
	},
	"abi": [
		{
			"inputs": [],
			"stateMutability": "nonpayable",
			"type": "constructor"
		},
		{
			"anonymous": false,
			"inputs": [
				{
					"indexed": false,
					"internalType": "uint256",
					"name": "num",
					"type": "uint256"
				}
			],
			"name": "num_contracts",
			"type": "event"
		},
		{
			"inputs": [
				{
					"internalType": "uint256",
					"name": "",
					"type": "uint256"
				}
			],
			"name": "_child_daos",
			"outputs": [
				{
					"internalType": "contract MyDAO",
					"name": "",
					"type": "address"
				}
			],
			"stateMutability": "view",
			"type": "function"
		},
		{
			"inputs": [
				{
					"internalType": "address",
					"name": "input_creator",
					"type": "address"
				}
			],
			"name": "addCreator",
			"outputs": [],
			"stateMutability": "nonpayable",
			"type": "function"
		},
		{
			"inputs": [
				{
					"internalType": "uint256",
					"name": "limit",
					"type": "uint256"
				},
				{
					"internalType": "uint256",
					"name": "offset",
					"type": "uint256"
				}
			],
			"name": "allFoundations",
			"outputs": [
				{
					"internalType": "contract MyDAO[]",
					"name": "coll",
					"type": "address[]"
				}
			],
			"stateMutability": "view",
			"type": "function"
		},
		{
			"inputs": [
				{
					"internalType": "string",
					"name": "dao_name",
					"type": "string"
				},
				{
					"internalType": "string",
					"name": "dao_symbol",
					"type": "string"
				}
			],
			"name": "createDAO",
			"outputs": [],
			"stateMutability": "nonpayable",
			"type": "function"
		},
		{
			"inputs": [
				{
					"internalType": "contract ERC20",
					"name": "in_token",
					"type": "address"
				},
				{
					"internalType": "contract MyDAO",
					"name": "in_dao",
					"type": "address"
				}
			],
			"name": "createDAO2",
			"outputs": [],
			"stateMutability": "nonpayable",
			"type": "function"
		},
		{
			"inputs": [
				{
					"internalType": "contract MyDAO",
					"name": "",
					"type": "address"
				}
			],
			"name": "dao_first_yk",
			"outputs": [
				{
					"internalType": "address",
					"name": "",
					"type": "address"
				}
			],
			"stateMutability": "view",
			"type": "function"
		},
		{
			"inputs": [
				{
					"internalType": "contract MyDAO",
					"name": "",
					"type": "address"
				}
			],
			"name": "dao_tokens",
			"outputs": [
				{
					"internalType": "contract ERC20",
					"name": "",
					"type": "address"
				}
			],
			"stateMutability": "view",
			"type": "function"
		},
		{
			"inputs": [],
			"name": "getChildCount",
			"outputs": [],
			"stateMutability": "nonpayable",
			"type": "function"
		},
		{
			"inputs": [
				{
					"internalType": "address",
					"name": "",
					"type": "address"
				}
			],
			"name": "is_a_dao_creator",
			"outputs": [
				{
					"internalType": "bool",
					"name": "",
					"type": "bool"
				}
			],
			"stateMutability": "view",
			"type": "function"
		},
		{
			"inputs": [
				{
					"internalType": "contract ERC20",
					"name": "",
					"type": "address"
				}
			],
			"name": "token_first_yk",
			"outputs": [
				{
					"internalType": "address",
					"name": "",
					"type": "address"
				}
			],
			"stateMutability": "view",
			"type": "function"
		}
	]
}