{
  "contractName": "DAOFactory",
  "abi": [
    {
      "inputs": [
        {
          "internalType": "address",
          "name": "myCreator",
          "type": "address"
        }
      ],
      "stateMutability": "nonpayable",
      "type": "constructor"
    },
    {
      "inputs": [
        {
          "internalType": "uint256",
          "name": "",
          "type": "uint256"
        }
      ],
      "name": "all_daos",
      "outputs": [
        {
          "internalType": "contract MyDAO",
          "name": "",
          "type": "address"
        }
      ],
      "stateMutability": "view",
      "type": "function"
    },
    {
      "inputs": [
        {
          "internalType": "contract MyDAO",
          "name": "",
          "type": "address"
        }
      ],
      "name": "child_parent",
      "outputs": [
        {
          "internalType": "contract MyDAO",
          "name": "",
          "type": "address"
        }
      ],
      "stateMutability": "view",
      "type": "function"
    },
    {
      "inputs": [
        {
          "internalType": "contract MyDAO",
          "name": "",
          "type": "address"
        }
      ],
      "name": "dao_exists",
      "outputs": [
        {
          "internalType": "bool",
          "name": "",
          "type": "bool"
        }
      ],
      "stateMutability": "view",
      "type": "function"
    },
    {
      "inputs": [
        {
          "internalType": "contract MyDAO",
          "name": "",
          "type": "address"
        }
      ],
      "name": "dao_first_yk",
      "outputs": [
        {
          "internalType": "address",
          "name": "",
          "type": "address"
        }
      ],
      "stateMutability": "view",
      "type": "function"
    },
    {
      "inputs": [
        {
          "internalType": "contract MyDAO",
          "name": "",
          "type": "address"
        }
      ],
      "name": "dao_tokens_voter",
      "outputs": [
        {
          "internalType": "contract ISUToken",
          "name": "",
          "type": "address"
        }
      ],
      "stateMutability": "view",
      "type": "function"
    },
    {
      "inputs": [
        {
          "internalType": "contract MyDAO",
          "name": "",
          "type": "address"
        }
      ],
      "name": "dao_tokens_yk",
      "outputs": [
        {
          "internalType": "contract ISUToken",
          "name": "",
          "type": "address"
        }
      ],
      "stateMutability": "view",
      "type": "function"
    },
    {
      "inputs": [
        {
          "internalType": "address",
          "name": "",
          "type": "address"
        }
      ],
      "name": "is_a_dao_creator",
      "outputs": [
        {
          "internalType": "bool",
          "name": "",
          "type": "bool"
        }
      ],
      "stateMutability": "view",
      "type": "function"
    },
    {
      "inputs": [],
      "name": "next_dao_id",
      "outputs": [
        {
          "internalType": "uint256",
          "name": "",
          "type": "uint256"
        }
      ],
      "stateMutability": "view",
      "type": "function"
    },
    {
      "inputs": [
        {
          "internalType": "contract MyDAO",
          "name": "",
          "type": "address"
        }
      ],
      "name": "num_children",
      "outputs": [
        {
          "internalType": "uint256",
          "name": "",
          "type": "uint256"
        }
      ],
      "stateMutability": "view",
      "type": "function"
    },
    {
      "inputs": [
        {
          "internalType": "contract MyDAO",
          "name": "",
          "type": "address"
        },
        {
          "internalType": "uint256",
          "name": "",
          "type": "uint256"
        }
      ],
      "name": "parent_child_daos",
      "outputs": [
        {
          "internalType": "contract MyDAO",
          "name": "",
          "type": "address"
        }
      ],
      "stateMutability": "view",
      "type": "function"
    },
    {
      "inputs": [
        {
          "internalType": "contract ISUToken",
          "name": "",
          "type": "address"
        }
      ],
      "name": "token_first_yk",
      "outputs": [
        {
          "internalType": "address",
          "name": "",
          "type": "address"
        }
      ],
      "stateMutability": "view",
      "type": "function"
    },
    {
      "inputs": [],
      "name": "top_dao",
      "outputs": [
        {
          "internalType": "address",
          "name": "",
          "type": "address"
        }
      ],
      "stateMutability": "view",
      "type": "function"
    },
    {
      "inputs": [
        {
          "internalType": "string",
          "name": "dao_name",
          "type": "string"
        },
        {
          "internalType": "string",
          "name": "dao_description",
          "type": "string"
        },
        {
          "internalType": "string",
          "name": "yk_token_name",
          "type": "string"
        },
        {
          "internalType": "string",
          "name": "yk_token_symbol",
          "type": "string"
        },
        {
          "internalType": "string",
          "name": "voter_token_name",
          "type": "string"
        },
        {
          "internalType": "string",
          "name": "voter_token_symbol",
          "type": "string"
        }
      ],
      "name": "createDAOTop",
      "outputs": [],
      "stateMutability": "nonpayable",
      "type": "function"
    },
    {
      "inputs": [
        {
          "internalType": "contract MyDAO",
          "name": "parent",
          "type": "address"
        },
        {
          "internalType": "string",
          "name": "dao_name",
          "type": "string"
        },
        {
          "internalType": "string",
          "name": "dao_description",
          "type": "string"
        },
        {
          "internalType": "string",
          "name": "yk_token_name",
          "type": "string"
        },
        {
          "internalType": "string",
          "name": "yk_token_symbol",
          "type": "string"
        },
        {
          "internalType": "string",
          "name": "voter_token_name",
          "type": "string"
        },
        {
          "internalType": "string",
          "name": "voter_token_symbol",
          "type": "string"
        }
      ],
      "name": "createChildDAO",
      "outputs": [],
      "stateMutability": "nonpayable",
      "type": "function"
    },
    {
      "inputs": [
        {
          "internalType": "contract MyDAO",
          "name": "to_be_minted",
          "type": "address"
        },
        {
          "internalType": "uint256",
          "name": "amount",
          "type": "uint256"
        },
        {
          "internalType": "address",
          "name": "sender",
          "type": "address"
        }
      ],
      "name": "mint_dao_yk",
      "outputs": [],
      "stateMutability": "nonpayable",
      "type": "function"
    },
    {
      "inputs": [
        {
          "internalType": "contract MyDAO",
          "name": "to_be_minted",
          "type": "address"
        },
        {
          "internalType": "uint256",
          "name": "amount",
          "type": "uint256"
        },
        {
          "internalType": "address",
          "name": "sender",
          "type": "address"
        }
      ],
      "name": "mint_dao_voter",
      "outputs": [],
      "stateMutability": "nonpayable",
      "type": "function"
    },
    {
      "inputs": [
        {
          "internalType": "address",
          "name": "input_creator",
          "type": "address"
        }
      ],
      "name": "addCreator",
      "outputs": [],
      "stateMutability": "nonpayable",
      "type": "function"
    },
    {
      "inputs": [
        {
          "internalType": "contract MyDAO",
          "name": "mydao",
          "type": "address"
        }
      ],
      "name": "getParentDAO",
      "outputs": [
        {
          "internalType": "contract MyDAO",
          "name": "",
          "type": "address"
        }
      ],
      "stateMutability": "view",
      "type": "function"
    },
    {
      "inputs": [
        {
          "internalType": "uint256",
          "name": "id",
          "type": "uint256"
        }
      ],
      "name": "getCurrentDAO",
      "outputs": [
        {
          "internalType": "contract MyDAO",
          "name": "",
          "type": "address"
        }
      ],
      "stateMutability": "view",
      "type": "function"
    },
    {
      "inputs": [
        {
          "internalType": "contract MyDAO",
          "name": "to_be_deleted",
          "type": "address"
        },
        {
          "internalType": "address",
          "name": "sender",
          "type": "address"
        }
      ],
      "name": "delete_DAO",
      "outputs": [],
      "stateMutability": "nonpayable",
      "type": "function"
    }
  ],
  "bytecode": "0x60806040523480156200001157600080fd5b5060405162009bbc38038062009bbc833981810160405281019062000037919062000149565b80600c60006101000a81548173ffffffffffffffffffffffffffffffffffffffff021916908373ffffffffffffffffffffffffffffffffffffffff1602179055506001600360003373ffffffffffffffffffffffffffffffffffffffff1673ffffffffffffffffffffffffffffffffffffffff16815260200190815260200160002060006101000a81548160ff0219169083151502179055506000600b81905550506200017b565b600080fd5b600073ffffffffffffffffffffffffffffffffffffffff82169050919050565b60006200011182620000e4565b9050919050565b620001238162000104565b81146200012f57600080fd5b50565b600081519050620001438162000118565b92915050565b600060208284031215620001625762000161620000df565b5b6000620001728482850162000132565b91505092915050565b619a31806200018b6000396000f3fe60806040523480156200001157600080fd5b5060043610620001485760003560e01c80636d61d4c911620000bd578063af26fc49116200007b578063af26fc4914620003e1578063ba15cdd91462000401578063eff1f44f1462000437578063f5a353d1146200046d578063fe4524b314620004a35762000148565b80636d61d4c914620002fd5780637a57c0ff146200033357806381a6520a146200036957806383bef7a9146200039f578063958c02b414620003bf5762000148565b80634c9a7fa3116200010b5780634c9a7fa3146200022f57806350ee8e8f14620002515780635a76df3414620002715780635ab178d914620002915780636b84526514620002c75762000148565b8063205cdcff146200014d5780632345a8f0146200016d5780632c36b4b414620001a35780633b9dce0514620001d95780633efb7ae214620001f9575b600080fd5b6200016b600480360381019062000165919062002b04565b620004d9565b005b6200018b600480360381019062000185919062002b60565b620006f5565b6040516200019a919062002bfd565b60405180910390f35b620001c16004803603810190620001bb919062002b60565b62000728565b604051620001d0919062002c3f565b60405180910390f35b620001f76004803603810190620001f1919062002c5c565b62000791565b005b62000217600480360381019062000211919062002c8e565b620007ec565b60405162000226919062002c3f565b60405180910390f35b620002396200081f565b60405162000248919062002cd1565b60405180910390f35b6200026f600480360381019062000269919062002b04565b62000843565b005b6200028f600480360381019062000289919062002e50565b62000a5f565b005b620002af6004803603810190620002a9919062002b60565b620013f9565b604051620002be919062002c3f565b60405180910390f35b620002e56004803603810190620002df919062002b60565b6200142c565b604051620002f4919062002cd1565b60405180910390f35b6200031b600480360381019062000315919062002b60565b6200145f565b6040516200032a919062002bfd565b60405180910390f35b6200035160048036038101906200034b919062002c8e565b62001492565b60405162000360919062002c3f565b60405180910390f35b62000387600480360381019062000381919062002feb565b620014cf565b60405162000396919062002cd1565b60405180910390f35b620003bd6004803603810190620003b791906200301d565b62001502565b005b620003c962001e4c565b604051620003d8919062003075565b60405180910390f35b620003ff6004803603810190620003f9919062003092565b62001e52565b005b6200041f600480360381019062000419919062002b60565b62002956565b6040516200042e91906200321c565b60405180910390f35b6200045560048036038101906200044f919062002b60565b62002976565b60405162000464919062003075565b60405180910390f35b6200048b600480360381019062000485919062003239565b6200298e565b6040516200049a919062002c3f565b60405180910390f35b620004c16004803603810190620004bb919062002c5c565b620029dd565b604051620004d091906200321c565b60405180910390f35b8273ffffffffffffffffffffffffffffffffffffffff1663a47eb7cf826040518263ffffffff1660e01b815260040162000514919062002cd1565b602060405180830381865afa15801562000532573d6000803e3d6000fd5b505050506040513d601f19601f82011682018060405250810190620005589190620032b1565b6200059a576040517f08c379a0000000000000000000000000000000000000000000000000000000008152600401620005919062003344565b60405180910390fd5b8273ffffffffffffffffffffffffffffffffffffffff163373ffffffffffffffffffffffffffffffffffffffff16146200060b576040517f08c379a00000000000000000000000000000000000000000000000000000000081526004016200060290620033b6565b60405180910390fd5b600460008473ffffffffffffffffffffffffffffffffffffffff1673ffffffffffffffffffffffffffffffffffffffff16815260200190815260200160002060009054906101000a900473ffffffffffffffffffffffffffffffffffffffff1673ffffffffffffffffffffffffffffffffffffffff166340c10f1984670de0b6b3a7640000856200069d919062003407565b6040518363ffffffff1660e01b8152600401620006bc92919062003468565b600060405180830381600087803b158015620006d757600080fd5b505af1158015620006ec573d6000803e3d6000fd5b50505050505050565b60046020528060005260406000206000915054906101000a900473ffffffffffffffffffffffffffffffffffffffff1681565b6000600960008373ffffffffffffffffffffffffffffffffffffffff1673ffffffffffffffffffffffffffffffffffffffff16815260200190815260200160002060009054906101000a900473ffffffffffffffffffffffffffffffffffffffff169050919050565b6001600360008373ffffffffffffffffffffffffffffffffffffffff1673ffffffffffffffffffffffffffffffffffffffff16815260200190815260200160002060006101000a81548160ff02191690831515021790555050565b600a6020528060005260406000206000915054906101000a900473ffffffffffffffffffffffffffffffffffffffff1681565b60008054906101000a900473ffffffffffffffffffffffffffffffffffffffff1681565b8273ffffffffffffffffffffffffffffffffffffffff1663a47eb7cf826040518263ffffffff1660e01b81526004016200087e919062002cd1565b602060405180830381865afa1580156200089c573d6000803e3d6000fd5b505050506040513d601f19601f82011682018060405250810190620008c29190620032b1565b62000904576040517f08c379a0000000000000000000000000000000000000000000000000000000008152600401620008fb9062003344565b60405180910390fd5b8273ffffffffffffffffffffffffffffffffffffffff163373ffffffffffffffffffffffffffffffffffffffff161462000975576040517f08c379a00000000000000000000000000000000000000000000000000000000081526004016200096c90620033b6565b60405180910390fd5b600560008473ffffffffffffffffffffffffffffffffffffffff1673ffffffffffffffffffffffffffffffffffffffff16815260200190815260200160002060009054906101000a900473ffffffffffffffffffffffffffffffffffffffff1673ffffffffffffffffffffffffffffffffffffffff166340c10f1984670de0b6b3a76400008562000a07919062003407565b6040518363ffffffff1660e01b815260040162000a2692919062003468565b600060405180830381600087803b15801562000a4157600080fd5b505af115801562000a56573d6000803e3d6000fd5b50505050505050565b60011515600360003373ffffffffffffffffffffffffffffffffffffffff1673ffffffffffffffffffffffffffffffffffffffff16815260200190815260200160002060009054906101000a900460ff1615151462000af5576040517f08c379a000000000000000000000000000000000000000000000000000000000815260040162000aec90620034e5565b60405180910390fd5b600c60009054906101000a900473ffffffffffffffffffffffffffffffffffffffff1673ffffffffffffffffffffffffffffffffffffffff1663a0769659858585856040518563ffffffff1660e01b815260040162000b58949392919062003589565b60408051808303816000875af115801562000b77573d6000803e3d6000fd5b505050506040513d601f19601f8201168201806040525081019062000b9d919062003609565b600d6000600e60008491906101000a81548173ffffffffffffffffffffffffffffffffffffffff021916908373ffffffffffffffffffffffffffffffffffffffff1602179055508391906101000a81548173ffffffffffffffffffffffffffffffffffffffff021916908373ffffffffffffffffffffffffffffffffffffffff16021790555050506000600d60009054906101000a900473ffffffffffffffffffffffffffffffffffffffff1690506000600e60009054906101000a900473ffffffffffffffffffffffffffffffffffffffff16905060008888600b543386863060405162000c8c90620029fd565b62000c9e979695949392919062003675565b604051809103906000f08015801562000cbb573d6000803e3d6000fd5b5090508273ffffffffffffffffffffffffffffffffffffffff16633950935182683635c9adc5dea000006040518363ffffffff1660e01b815260040162000d0492919062003743565b6020604051808303816000875af115801562000d24573d6000803e3d6000fd5b505050506040513d601f19601f8201168201806040525081019062000d4a9190620032b1565b508273ffffffffffffffffffffffffffffffffffffffff16633950935130683635c9adc5dea000006040518363ffffffff1660e01b815260040162000d9192919062003743565b6020604051808303816000875af115801562000db1573d6000803e3d6000fd5b505050506040513d601f19601f8201168201806040525081019062000dd79190620032b1565b508173ffffffffffffffffffffffffffffffffffffffff16633950935182683635c9adc5dea000006040518363ffffffff1660e01b815260040162000e1e92919062003743565b6020604051808303816000875af115801562000e3e573d6000803e3d6000fd5b505050506040513d601f19601f8201168201806040525081019062000e649190620032b1565b508173ffffffffffffffffffffffffffffffffffffffff16633950935130683635c9adc5dea000006040518363ffffffff1660e01b815260040162000eab92919062003743565b6020604051808303816000875af115801562000ecb573d6000803e3d6000fd5b505050506040513d601f19601f8201168201806040525081019062000ef19190620032b1565b508273ffffffffffffffffffffffffffffffffffffffff16638749e2bb826040518263ffffffff1660e01b815260040162000f2d919062002cd1565b600060405180830381600087803b15801562000f4857600080fd5b505af115801562000f5d573d6000803e3d6000fd5b505050508173ffffffffffffffffffffffffffffffffffffffff16638749e2bb826040518263ffffffff1660e01b815260040162000f9c919062002cd1565b600060405180830381600087803b15801562000fb757600080fd5b505af115801562000fcc573d6000803e3d6000fd5b5050505082600460008373ffffffffffffffffffffffffffffffffffffffff1673ffffffffffffffffffffffffffffffffffffffff16815260200190815260200160002060006101000a81548173ffffffffffffffffffffffffffffffffffffffff021916908373ffffffffffffffffffffffffffffffffffffffff16021790555081600560008373ffffffffffffffffffffffffffffffffffffffff1673ffffffffffffffffffffffffffffffffffffffff16815260200190815260200160002060006101000a81548173ffffffffffffffffffffffffffffffffffffffff021916908373ffffffffffffffffffffffffffffffffffffffff16021790555033600660008373ffffffffffffffffffffffffffffffffffffffff1673ffffffffffffffffffffffffffffffffffffffff16815260200190815260200160002060006101000a81548173ffffffffffffffffffffffffffffffffffffffff021916908373ffffffffffffffffffffffffffffffffffffffff16021790555033600760008573ffffffffffffffffffffffffffffffffffffffff1673ffffffffffffffffffffffffffffffffffffffff16815260200190815260200160002060006101000a81548173ffffffffffffffffffffffffffffffffffffffff021916908373ffffffffffffffffffffffffffffffffffffffff160217905550806000806101000a81548173ffffffffffffffffffffffffffffffffffffffff021916908373ffffffffffffffffffffffffffffffffffffffff1602179055506001600860008373ffffffffffffffffffffffffffffffffffffffff1673ffffffffffffffffffffffffffffffffffffffff16815260200190815260200160002060006101000a81548160ff0219169083151502179055508173ffffffffffffffffffffffffffffffffffffffff166323b872dd3083683635c9adc5dea000006040518463ffffffff1660e01b8152600401620012a89392919062003770565b6020604051808303816000875af1158015620012c8573d6000803e3d6000fd5b505050506040513d601f19601f82011682018060405250810190620012ee9190620032b1565b508273ffffffffffffffffffffffffffffffffffffffff166323b872dd3083683635c9adc5dea000006040518463ffffffff1660e01b8152600401620013379392919062003770565b6020604051808303816000875af115801562001357573d6000803e3d6000fd5b505050506040513d601f19601f820116820180604052508101906200137d9190620032b1565b5080600a6000600b54815260200190815260200160002060006101000a81548173ffffffffffffffffffffffffffffffffffffffff021916908373ffffffffffffffffffffffffffffffffffffffff1602179055506001600b6000828254620013e79190620037ad565b92505081905550505050505050505050565b60096020528060005260406000206000915054906101000a900473ffffffffffffffffffffffffffffffffffffffff1681565b60066020528060005260406000206000915054906101000a900473ffffffffffffffffffffffffffffffffffffffff1681565b60056020528060005260406000206000915054906101000a900473ffffffffffffffffffffffffffffffffffffffff1681565b6000600a600083815260200190815260200160002060009054906101000a900473ffffffffffffffffffffffffffffffffffffffff169050919050565b60076020528060005260406000206000915054906101000a900473ffffffffffffffffffffffffffffffffffffffff1681565b8173ffffffffffffffffffffffffffffffffffffffff1663a47eb7cf826040518263ffffffff1660e01b81526004016200153d919062002cd1565b602060405180830381865afa1580156200155b573d6000803e3d6000fd5b505050506040513d601f19601f82011682018060405250810190620015819190620032b1565b80620015b857503073ffffffffffffffffffffffffffffffffffffffff163373ffffffffffffffffffffffffffffffffffffffff16145b80620015ef57508173ffffffffffffffffffffffffffffffffffffffff163373ffffffffffffffffffffffffffffffffffffffff16145b62001631576040517f08c379a0000000000000000000000000000000000000000000000000000000008152600401620016289062003344565b60405180910390fd5b8173ffffffffffffffffffffffffffffffffffffffff163373ffffffffffffffffffffffffffffffffffffffff1614620016a2576040517f08c379a00000000000000000000000000000000000000000000000000000000081526004016200169990620033b6565b60405180910390fd5b60005b600160008473ffffffffffffffffffffffffffffffffffffffff1673ffffffffffffffffffffffffffffffffffffffff16815260200190815260200160002080549050811015620017e657600160008473ffffffffffffffffffffffffffffffffffffffff1673ffffffffffffffffffffffffffffffffffffffff16815260200190815260200160002081815481106200174457620017436200380a565b5b9060005260206000200160009054906101000a900473ffffffffffffffffffffffffffffffffffffffff1673ffffffffffffffffffffffffffffffffffffffff166319f339616040518163ffffffff1660e01b8152600401600060405180830381600087803b158015620017b757600080fd5b505af1158015620017cc573d6000803e3d6000fd5b505050508080620017dd9062003839565b915050620016a5565b5060005b60016000600960008673ffffffffffffffffffffffffffffffffffffffff1673ffffffffffffffffffffffffffffffffffffffff16815260200190815260200160002060009054906101000a900473ffffffffffffffffffffffffffffffffffffffff1673ffffffffffffffffffffffffffffffffffffffff1673ffffffffffffffffffffffffffffffffffffffff1681526020019081526020016000208054905081101562001d29578273ffffffffffffffffffffffffffffffffffffffff1660016000600960008773ffffffffffffffffffffffffffffffffffffffff1673ffffffffffffffffffffffffffffffffffffffff16815260200190815260200160002060009054906101000a900473ffffffffffffffffffffffffffffffffffffffff1673ffffffffffffffffffffffffffffffffffffffff1673ffffffffffffffffffffffffffffffffffffffff16815260200190815260200160002082815481106200195e576200195d6200380a565b5b9060005260206000200160009054906101000a900473ffffffffffffffffffffffffffffffffffffffff1673ffffffffffffffffffffffffffffffffffffffff160362001d135760016000600960008673ffffffffffffffffffffffffffffffffffffffff1673ffffffffffffffffffffffffffffffffffffffff16815260200190815260200160002060009054906101000a900473ffffffffffffffffffffffffffffffffffffffff1673ffffffffffffffffffffffffffffffffffffffff1673ffffffffffffffffffffffffffffffffffffffff1681526020019081526020016000206001806000600960008873ffffffffffffffffffffffffffffffffffffffff1673ffffffffffffffffffffffffffffffffffffffff16815260200190815260200160002060009054906101000a900473ffffffffffffffffffffffffffffffffffffffff1673ffffffffffffffffffffffffffffffffffffffff1673ffffffffffffffffffffffffffffffffffffffff1681526020019081526020016000208054905062001af2919062003886565b8154811062001b065762001b056200380a565b5b9060005260206000200160009054906101000a900473ffffffffffffffffffffffffffffffffffffffff1660016000600960008773ffffffffffffffffffffffffffffffffffffffff1673ffffffffffffffffffffffffffffffffffffffff16815260200190815260200160002060009054906101000a900473ffffffffffffffffffffffffffffffffffffffff1673ffffffffffffffffffffffffffffffffffffffff1673ffffffffffffffffffffffffffffffffffffffff168152602001908152602001600020828154811062001be45762001be36200380a565b5b9060005260206000200160006101000a81548173ffffffffffffffffffffffffffffffffffffffff021916908373ffffffffffffffffffffffffffffffffffffffff16021790555060016000600960008673ffffffffffffffffffffffffffffffffffffffff1673ffffffffffffffffffffffffffffffffffffffff16815260200190815260200160002060009054906101000a900473ffffffffffffffffffffffffffffffffffffffff1673ffffffffffffffffffffffffffffffffffffffff1673ffffffffffffffffffffffffffffffffffffffff16815260200190815260200160002080548062001cdd5762001cdc620038c1565b5b6001900381819060005260206000200160006101000a81549073ffffffffffffffffffffffffffffffffffffffff021916905590555b808062001d209062003839565b915050620017ea565b506000600860008473ffffffffffffffffffffffffffffffffffffffff1673ffffffffffffffffffffffffffffffffffffffff16815260200190815260200160002060006101000a81548160ff021916908315150217905550600080600a60008573ffffffffffffffffffffffffffffffffffffffff16634b4967e86040518163ffffffff1660e01b8152600401602060405180830381865afa15801562001dd5573d6000803e3d6000fd5b505050506040513d601f19601f8201168201806040525081019062001dfb919062003907565b815260200190815260200160002060006101000a81548173ffffffffffffffffffffffffffffffffffffffff021916908373ffffffffffffffffffffffffffffffffffffffff160217905550505050565b600b5481565b600115158773ffffffffffffffffffffffffffffffffffffffff1663a47eb7cf336040518263ffffffff1660e01b815260040162001e91919062002cd1565b602060405180830381865afa15801562001eaf573d6000803e3d6000fd5b505050506040513d601f19601f8201168201806040525081019062001ed59190620032b1565b15151462001f1a576040517f08c379a000000000000000000000000000000000000000000000000000000000815260040162001f119062003989565b60405180910390fd5b600c60009054906101000a900473ffffffffffffffffffffffffffffffffffffffff1673ffffffffffffffffffffffffffffffffffffffff1663a0769659858585856040518563ffffffff1660e01b815260040162001f7d949392919062003589565b60408051808303816000875af115801562001f9c573d6000803e3d6000fd5b505050506040513d601f19601f8201168201806040525081019062001fc2919062003609565b600d6000600e60008491906101000a81548173ffffffffffffffffffffffffffffffffffffffff021916908373ffffffffffffffffffffffffffffffffffffffff1602179055508391906101000a81548173ffffffffffffffffffffffffffffffffffffffff021916908373ffffffffffffffffffffffffffffffffffffffff16021790555050506000600d60009054906101000a900473ffffffffffffffffffffffffffffffffffffffff1690506000600e60009054906101000a900473ffffffffffffffffffffffffffffffffffffffff16905060008888600b5433868630604051620020b190620029fd565b620020c3979695949392919062003675565b604051809103906000f080158015620020e0573d6000803e3d6000fd5b5090508273ffffffffffffffffffffffffffffffffffffffff16633950935182683635c9adc5dea000006040518363ffffffff1660e01b81526004016200212992919062003743565b6020604051808303816000875af115801562002149573d6000803e3d6000fd5b505050506040513d601f19601f820116820180604052508101906200216f9190620032b1565b508273ffffffffffffffffffffffffffffffffffffffff16633950935130683635c9adc5dea000006040518363ffffffff1660e01b8152600401620021b692919062003743565b6020604051808303816000875af1158015620021d6573d6000803e3d6000fd5b505050506040513d601f19601f82011682018060405250810190620021fc9190620032b1565b508173ffffffffffffffffffffffffffffffffffffffff16633950935182683635c9adc5dea000006040518363ffffffff1660e01b81526004016200224392919062003743565b6020604051808303816000875af115801562002263573d6000803e3d6000fd5b505050506040513d601f19601f82011682018060405250810190620022899190620032b1565b508173ffffffffffffffffffffffffffffffffffffffff16633950935130683635c9adc5dea000006040518363ffffffff1660e01b8152600401620022d092919062003743565b6020604051808303816000875af1158015620022f0573d6000803e3d6000fd5b505050506040513d601f19601f82011682018060405250810190620023169190620032b1565b508273ffffffffffffffffffffffffffffffffffffffff16638749e2bb826040518263ffffffff1660e01b815260040162002352919062002cd1565b600060405180830381600087803b1580156200236d57600080fd5b505af115801562002382573d6000803e3d6000fd5b505050508173ffffffffffffffffffffffffffffffffffffffff16638749e2bb826040518263ffffffff1660e01b8152600401620023c1919062002cd1565b600060405180830381600087803b158015620023dc57600080fd5b505af1158015620023f1573d6000803e3d6000fd5b5050505082600460008373ffffffffffffffffffffffffffffffffffffffff1673ffffffffffffffffffffffffffffffffffffffff16815260200190815260200160002060006101000a81548173ffffffffffffffffffffffffffffffffffffffff021916908373ffffffffffffffffffffffffffffffffffffffff16021790555081600560008373ffffffffffffffffffffffffffffffffffffffff1673ffffffffffffffffffffffffffffffffffffffff16815260200190815260200160002060006101000a81548173ffffffffffffffffffffffffffffffffffffffff021916908373ffffffffffffffffffffffffffffffffffffffff16021790555033600660008373ffffffffffffffffffffffffffffffffffffffff1673ffffffffffffffffffffffffffffffffffffffff16815260200190815260200160002060006101000a81548173ffffffffffffffffffffffffffffffffffffffff021916908373ffffffffffffffffffffffffffffffffffffffff16021790555033600760008573ffffffffffffffffffffffffffffffffffffffff1673ffffffffffffffffffffffffffffffffffffffff16815260200190815260200160002060006101000a81548173ffffffffffffffffffffffffffffffffffffffff021916908373ffffffffffffffffffffffffffffffffffffffff1602179055506001600860008373ffffffffffffffffffffffffffffffffffffffff1673ffffffffffffffffffffffffffffffffffffffff16815260200190815260200160002060006101000a81548160ff021916908315150217905550600160008b73ffffffffffffffffffffffffffffffffffffffff1673ffffffffffffffffffffffffffffffffffffffff168152602001908152602001600020819080600181540180825580915050600190039060005260206000200160009091909190916101000a81548173ffffffffffffffffffffffffffffffffffffffff021916908373ffffffffffffffffffffffffffffffffffffffff1602179055506001600260008c73ffffffffffffffffffffffffffffffffffffffff1673ffffffffffffffffffffffffffffffffffffffff1681526020019081526020016000206000828254620027379190620037ad565b9250508190555089600960008373ffffffffffffffffffffffffffffffffffffffff1673ffffffffffffffffffffffffffffffffffffffff16815260200190815260200160002060006101000a81548173ffffffffffffffffffffffffffffffffffffffff021916908373ffffffffffffffffffffffffffffffffffffffff1602179055508173ffffffffffffffffffffffffffffffffffffffff166323b872dd3083683635c9adc5dea000006040518463ffffffff1660e01b8152600401620028049392919062003770565b6020604051808303816000875af115801562002824573d6000803e3d6000fd5b505050506040513d601f19601f820116820180604052508101906200284a9190620032b1565b508273ffffffffffffffffffffffffffffffffffffffff166323b872dd3083683635c9adc5dea000006040518463ffffffff1660e01b8152600401620028939392919062003770565b6020604051808303816000875af1158015620028b3573d6000803e3d6000fd5b505050506040513d601f19601f82011682018060405250810190620028d99190620032b1565b5080600a6000600b54815260200190815260200160002060006101000a81548173ffffffffffffffffffffffffffffffffffffffff021916908373ffffffffffffffffffffffffffffffffffffffff1602179055506001600b6000828254620029439190620037ad565b9250508190555050505050505050505050565b60086020528060005260406000206000915054906101000a900460ff1681565b60026020528060005260406000206000915090505481565b60016020528160005260406000208181548110620029ab57600080fd5b906000526020600020016000915091509054906101000a900473ffffffffffffffffffffffffffffffffffffffff1681565b60036020528060005260406000206000915054906101000a900460ff1681565b61605080620039ac83390190565b6000604051905090565b600080fd5b600080fd5b600073ffffffffffffffffffffffffffffffffffffffff82169050919050565b600062002a4c8262002a1f565b9050919050565b600062002a608262002a3f565b9050919050565b62002a728162002a53565b811462002a7e57600080fd5b50565b60008135905062002a928162002a67565b92915050565b6000819050919050565b62002aad8162002a98565b811462002ab957600080fd5b50565b60008135905062002acd8162002aa2565b92915050565b62002ade8162002a3f565b811462002aea57600080fd5b50565b60008135905062002afe8162002ad3565b92915050565b60008060006060848603121562002b205762002b1f62002a15565b5b600062002b308682870162002a81565b935050602062002b438682870162002abc565b925050604062002b568682870162002aed565b9150509250925092565b60006020828403121562002b795762002b7862002a15565b5b600062002b898482850162002a81565b91505092915050565b6000819050919050565b600062002bbd62002bb762002bb18462002a1f565b62002b92565b62002a1f565b9050919050565b600062002bd18262002b9c565b9050919050565b600062002be58262002bc4565b9050919050565b62002bf78162002bd8565b82525050565b600060208201905062002c14600083018462002bec565b92915050565b600062002c278262002bc4565b9050919050565b62002c398162002c1a565b82525050565b600060208201905062002c56600083018462002c2e565b92915050565b60006020828403121562002c755762002c7462002a15565b5b600062002c858482850162002aed565b91505092915050565b60006020828403121562002ca75762002ca662002a15565b5b600062002cb78482850162002abc565b91505092915050565b62002ccb8162002a3f565b82525050565b600060208201905062002ce8600083018462002cc0565b92915050565b600080fd5b600080fd5b6000601f19601f8301169050919050565b7f4e487b7100000000000000000000000000000000000000000000000000000000600052604160045260246000fd5b62002d438262002cf8565b810181811067ffffffffffffffff8211171562002d655762002d6462002d09565b5b80604052505050565b600062002d7a62002a0b565b905062002d88828262002d38565b919050565b600067ffffffffffffffff82111562002dab5762002daa62002d09565b5b62002db68262002cf8565b9050602081019050919050565b82818337600083830152505050565b600062002de962002de38462002d8d565b62002d6e565b90508281526020810184848401111562002e085762002e0762002cf3565b5b62002e1584828562002dc3565b509392505050565b600082601f83011262002e355762002e3462002cee565b5b813562002e4784826020860162002dd2565b91505092915050565b60008060008060008060c0878903121562002e705762002e6f62002a15565b5b600087013567ffffffffffffffff81111562002e915762002e9062002a1a565b5b62002e9f89828a0162002e1d565b965050602087013567ffffffffffffffff81111562002ec35762002ec262002a1a565b5b62002ed189828a0162002e1d565b955050604087013567ffffffffffffffff81111562002ef55762002ef462002a1a565b5b62002f0389828a0162002e1d565b945050606087013567ffffffffffffffff81111562002f275762002f2662002a1a565b5b62002f3589828a0162002e1d565b935050608087013567ffffffffffffffff81111562002f595762002f5862002a1a565b5b62002f6789828a0162002e1d565b92505060a087013567ffffffffffffffff81111562002f8b5762002f8a62002a1a565b5b62002f9989828a0162002e1d565b9150509295509295509295565b600062002fb38262002a3f565b9050919050565b62002fc58162002fa6565b811462002fd157600080fd5b50565b60008135905062002fe58162002fba565b92915050565b60006020828403121562003004576200300362002a15565b5b6000620030148482850162002fd4565b91505092915050565b6000806040838503121562003037576200303662002a15565b5b6000620030478582860162002a81565b92505060206200305a8582860162002aed565b9150509250929050565b6200306f8162002a98565b82525050565b60006020820190506200308c600083018462003064565b92915050565b600080600080600080600060e0888a031215620030b457620030b362002a15565b5b6000620030c48a828b0162002a81565b975050602088013567ffffffffffffffff811115620030e857620030e762002a1a565b5b620030f68a828b0162002e1d565b965050604088013567ffffffffffffffff8111156200311a576200311962002a1a565b5b620031288a828b0162002e1d565b955050606088013567ffffffffffffffff8111156200314c576200314b62002a1a565b5b6200315a8a828b0162002e1d565b945050608088013567ffffffffffffffff8111156200317e576200317d62002a1a565b5b6200318c8a828b0162002e1d565b93505060a088013567ffffffffffffffff811115620031b057620031af62002a1a565b5b620031be8a828b0162002e1d565b92505060c088013567ffffffffffffffff811115620031e257620031e162002a1a565b5b620031f08a828b0162002e1d565b91505092959891949750929550565b60008115159050919050565b6200321681620031ff565b82525050565b60006020820190506200323360008301846200320b565b92915050565b6000806040838503121562003253576200325262002a15565b5b6000620032638582860162002a81565b9250506020620032768582860162002abc565b9150509250929050565b6200328b81620031ff565b81146200329757600080fd5b50565b600081519050620032ab8162003280565b92915050565b600060208284031215620032ca57620032c962002a15565b5b6000620032da848285016200329a565b91505092915050565b600082825260208201905092915050565b7f4e6f7420594b206f662073656c65637465642044414f00000000000000000000600082015250565b60006200332c601683620032e3565b91506200333982620032f4565b602082019050919050565b600060208201905081810360008301526200335f816200331d565b9050919050565b7f446f6e2774206576656e20747279000000000000000000000000000000000000600082015250565b60006200339e600e83620032e3565b9150620033ab8262003366565b602082019050919050565b60006020820190508181036000830152620033d1816200338f565b9050919050565b7f4e487b7100000000000000000000000000000000000000000000000000000000600052601160045260246000fd5b6000620034148262002a98565b9150620034218362002a98565b9250817fffffffffffffffffffffffffffffffffffffffffffffffffffffffffffffffff04831182151516156200345d576200345c620033d8565b5b828202905092915050565b60006040820190506200347f600083018562002cc0565b6200348e602083018462003064565b9392505050565b7f4e6f7420616464656420617320612044414f2043726561746f72000000000000600082015250565b6000620034cd601a83620032e3565b9150620034da8262003495565b602082019050919050565b600060208201905081810360008301526200350081620034be565b9050919050565b600081519050919050565b60005b838110156200353257808201518184015260208101905062003515565b8381111562003542576000848401525b50505050565b6000620035558262003507565b620035618185620032e3565b93506200357381856020860162003512565b6200357e8162002cf8565b840191505092915050565b60006080820190508181036000830152620035a5818762003548565b90508181036020830152620035bb818662003548565b90508181036040830152620035d1818562003548565b90508181036060830152620035e7818462003548565b905095945050505050565b600081519050620036038162002ad3565b92915050565b6000806040838503121562003623576200362262002a15565b5b60006200363385828601620035f2565b92505060206200364685828601620035f2565b9150509250929050565b60006200365d8262002bc4565b9050919050565b6200366f8162003650565b82525050565b600060e082019050818103600083015262003691818a62003548565b90508181036020830152620036a7818962003548565b9050620036b8604083018862003064565b620036c7606083018762002cc0565b620036d6608083018662002bec565b620036e560a083018562002bec565b620036f460c083018462003664565b98975050505050505050565b6000819050919050565b60006200372b620037256200371f8462003700565b62002b92565b62002a98565b9050919050565b6200373d816200370a565b82525050565b60006040820190506200375a600083018562002cc0565b62003769602083018462003732565b9392505050565b600060608201905062003787600083018662002cc0565b62003796602083018562002cc0565b620037a5604083018462003732565b949350505050565b6000620037ba8262002a98565b9150620037c78362002a98565b9250827fffffffffffffffffffffffffffffffffffffffffffffffffffffffffffffffff03821115620037ff57620037fe620033d8565b5b828201905092915050565b7f4e487b7100000000000000000000000000000000000000000000000000000000600052603260045260246000fd5b6000620038468262002a98565b91507fffffffffffffffffffffffffffffffffffffffffffffffffffffffffffffffff82036200387b576200387a620033d8565b5b600182019050919050565b6000620038938262002a98565b9150620038a08362002a98565b925082821015620038b657620038b5620033d8565b5b828203905092915050565b7f4e487b7100000000000000000000000000000000000000000000000000000000600052603160045260246000fd5b600081519050620039018162002aa2565b92915050565b60006020828403121562003920576200391f62002a15565b5b60006200393084828501620038f0565b91505092915050565b7f4e6f74206120594b206f6620706172656e742044414f00000000000000000000600082015250565b600062003971601683620032e3565b91506200397e8262003939565b602082019050919050565b60006020820190508181036000830152620039a48162003962565b905091905056fe60806040523480156200001157600080fd5b506040516200605038038062006050833981810160405281019062000037919062000577565b80600360006101000a81548173ffffffffffffffffffffffffffffffffffffffff021916908373ffffffffffffffffffffffffffffffffffffffff16021790555086600090805190602001906200009092919062000200565b50846002819055508560019080519060200190620000b092919062000200565b5082600b60006101000a81548173ffffffffffffffffffffffffffffffffffffffff021916908373ffffffffffffffffffffffffffffffffffffffff16021790555081600a60006101000a81548173ffffffffffffffffffffffffffffffffffffffff021916908373ffffffffffffffffffffffffffffffffffffffff160217905550670de0b6b3a7640000600960008673ffffffffffffffffffffffffffffffffffffffff1673ffffffffffffffffffffffffffffffffffffffff16815260200190815260200160002060008282546200018c919062000697565b92505081905550670de0b6b3a7640000600860008673ffffffffffffffffffffffffffffffffffffffff1673ffffffffffffffffffffffffffffffffffffffff1681526020019081526020016000206000828254620001ec919062000697565b925050819055505050505050505062000758565b8280546200020e9062000723565b90600052602060002090601f0160209004810192826200023257600085556200027e565b82601f106200024d57805160ff19168380011785556200027e565b828001600101855582156200027e579182015b828111156200027d57825182559160200191906001019062000260565b5b5090506200028d919062000291565b5090565b5b80821115620002ac57600081600090555060010162000292565b5090565b6000604051905090565b600080fd5b600080fd5b600080fd5b600080fd5b6000601f19601f8301169050919050565b7f4e487b7100000000000000000000000000000000000000000000000000000000600052604160045260246000fd5b6200031982620002ce565b810181811067ffffffffffffffff821117156200033b576200033a620002df565b5b80604052505050565b600062000350620002b0565b90506200035e82826200030e565b919050565b600067ffffffffffffffff821115620003815762000380620002df565b5b6200038c82620002ce565b9050602081019050919050565b60005b83811015620003b95780820151818401526020810190506200039c565b83811115620003c9576000848401525b50505050565b6000620003e6620003e08462000363565b62000344565b905082815260208101848484011115620004055762000404620002c9565b5b6200041284828562000399565b509392505050565b600082601f830112620004325762000431620002c4565b5b815162000444848260208601620003cf565b91505092915050565b6000819050919050565b62000462816200044d565b81146200046e57600080fd5b50565b600081519050620004828162000457565b92915050565b600073ffffffffffffffffffffffffffffffffffffffff82169050919050565b6000620004b58262000488565b9050919050565b620004c781620004a8565b8114620004d357600080fd5b50565b600081519050620004e781620004bc565b92915050565b6000620004fa82620004a8565b9050919050565b6200050c81620004ed565b81146200051857600080fd5b50565b6000815190506200052c8162000501565b92915050565b60006200053f82620004a8565b9050919050565b620005518162000532565b81146200055d57600080fd5b50565b600081519050620005718162000546565b92915050565b600080600080600080600060e0888a031215620005995762000598620002ba565b5b600088015167ffffffffffffffff811115620005ba57620005b9620002bf565b5b620005c88a828b016200041a565b975050602088015167ffffffffffffffff811115620005ec57620005eb620002bf565b5b620005fa8a828b016200041a565b96505060406200060d8a828b0162000471565b9550506060620006208a828b01620004d6565b9450506080620006338a828b016200051b565b93505060a0620006468a828b016200051b565b92505060c0620006598a828b0162000560565b91505092959891949750929550565b7f4e487b7100000000000000000000000000000000000000000000000000000000600052601160045260246000fd5b6000620006a4826200044d565b9150620006b1836200044d565b9250827fffffffffffffffffffffffffffffffffffffffffffffffffffffffffffffffff03821115620006e957620006e862000668565b5b828201905092915050565b7f4e487b7100000000000000000000000000000000000000000000000000000000600052602260045260246000fd5b600060028204905060018216806200073c57607f821691505b602082108103620007525762000751620006f4565b5b50919050565b6158e880620007686000396000f3fe608060405234801561001057600080fd5b50600436106102695760003560e01c80638661fa7011610151578063c1bff3e0116100c3578063dd3bf85c11610087578063dd3bf85c146106e7578063e5c28c9014610705578063e937688214610735578063f08c03bc14610753578063f70e51a71461076f578063f9b8a27a1461078d57610269565b8063c1bff3e014610631578063cf5265d81461064d578063d25129c414610657578063d8c6bc2114610687578063d978ffba146106b757610269565b8063a2ded95011610115578063a2ded95014610573578063a38b39d41461058f578063a44b21ae146105ab578063a47eb7cf146105c7578063a9a2a4a3146105f7578063bdf52c221461062757610269565b80638661fa70146104bd5780638a19ab35146104d95780638f7c59d0146104f55780639d92c108146105255780639f2524ee1461054357610269565b806342b9d7e4116101ea57806362b25fc6116101ae57806362b25fc61461042357806364944d4d1461044157806371df56051461044b57806375fd83771461047b5780637b93e652146104975780637e11a556146104a157610269565b806342b9d7e414610391578063451abcec146103ad5780634a9f1575146103cb5780634b4967e8146103d5578063560d09b6146103f357610269565b806319f339611161023157806319f339611461031557806323ee2c831461031f5780632ab09d141461033b5780632c14ed1714610359578063339a9e591461037557610269565b8063013cf08b1461026e57806307e25f27146102a557806310742870146102c1578063114d7756146102dd57806314e72f43146102f9575b600080fd5b61028860048036038101906102839190613fc6565b6107a9565b60405161029c989796959493929190614153565b60405180910390f35b6102bf60048036038101906102ba9190613fc6565b6109b6565b005b6102db60048036038101906102d69190614212565b6109f8565b005b6102f760048036038101906102f29190614212565b610ae2565b005b610313600480360381019061030e919061423f565b610b86565b005b61031d610c3b565b005b6103396004803603810190610334919061423f565b610e94565b005b610343610f9d565b604051610350919061427f565b60405180910390f35b610373600480360381019061036e9190613fc6565b610fa3565b005b61038f600480360381019061038a9190614212565b610fe5565b005b6103ab60048036038101906103a69190613fc6565b611089565b005b6103b5611247565b6040516103c291906143a6565b60405180910390f35b6103d3611382565b005b6103dd611460565b6040516103ea919061427f565b60405180910390f35b61040d60048036038101906104089190613fc6565b61146a565b60405161041a919061427f565b60405180910390f35b61042b611493565b60405161043891906143a6565b60405180910390f35b6104496115ce565b005b61046560048036038101906104609190614212565b6116ac565b604051610472919061427f565b60405180910390f35b6104956004803603810190610490919061423f565b6116c4565b005b61049f611849565b005b6104bb60048036038101906104b6919061423f565b6118ea565b005b6104d760048036038101906104d291906146a6565b6119f3565b005b6104f360048036038101906104ee9190613fc6565b61205b565b005b61050f600480360381019061050a9190613fc6565b612206565b60405161051c91906143a6565b60405180910390f35b61052d61238d565b60405161053a9190614731565b60405180910390f35b61055d6004803603810190610558919061423f565b61241b565b60405161056a919061476e565b60405180910390f35b61058d60048036038101906105889190613fc6565b61244a565b005b6105a960048036038101906105a49190614212565b61248c565b005b6105c560048036038101906105c09190614789565b612576565b005b6105e160048036038101906105dc9190614212565b612cdb565b6040516105ee919061476e565b60405180910390f35b610611600480360381019061060c919061423f565b6130b0565b60405161061e919061427f565b60405180910390f35b61062f6130d5565b005b61064b60048036038101906106469190614828565b613176565b005b6106556134a7565b005b610671600480360381019061066c9190613fc6565b6136b8565b60405161067e91906149e3565b60405180910390f35b6106a1600480360381019061069c9190614212565b6137b3565b6040516106ae919061427f565b60405180910390f35b6106d160048036038101906106cc9190613fc6565b6137cb565b6040516106de9190614731565b60405180910390f35b6106ef613879565b6040516106fc9190614a64565b60405180910390f35b61071f600480360381019061071a919061423f565b61389f565b60405161072c919061476e565b60405180910390f35b61073d6138ce565b60405161074a9190614731565b60405180910390f35b61076d6004803603810190610768919061423f565b61395c565b005b610777613ae1565b6040516107849190614a64565b60405180910390f35b6107a760048036038101906107a2919061423f565b613b07565b005b60046020528060005260406000206000915090508060000154908060010160009054906101000a900473ffffffffffffffffffffffffffffffffffffffff16908060020180546107f890614aae565b80601f016020809104026020016040519081016040528092919081815260200182805461082490614aae565b80156108715780601f1061084657610100808354040283529160200191610871565b820191906000526020600020905b81548152906001019060200180831161085457829003601f168201915b50505050509080600301805461088690614aae565b80601f01602080910402602001604051908101604052809291908181526020018280546108b290614aae565b80156108ff5780601f106108d4576101008083540402835291602001916108ff565b820191906000526020600020905b8154815290600101906020018083116108e257829003601f168201915b5050505050908060040154908060070160009054906101000a900460ff169080600801549080600901805461093390614aae565b80601f016020809104026020016040519081016040528092919081815260200182805461095f90614aae565b80156109ac5780601f10610981576101008083540402835291602001916109ac565b820191906000526020600020905b81548152906001019060200180831161098f57829003601f168201915b5050505050905088565b60016004600083815260200190815260200160002060070160006101000a81548160ff021916908360028111156109f0576109ef6140dc565b5b021790555050565b610a0133612cdb565b610a40576040517f08c379a0000000000000000000000000000000000000000000000000000000008152600401610a3790614b2b565b60405180910390fd5b600b60009054906101000a900473ffffffffffffffffffffffffffffffffffffffff1673ffffffffffffffffffffffffffffffffffffffff16635dc73582826040518263ffffffff1660e01b8152600401610a9b9190614b4b565b6020604051808303816000875af1158015610aba573d6000803e3d6000fd5b505050506040513d601f19601f82011682018060405250810190610ade9190614b92565b5050565b600b60009054906101000a900473ffffffffffffffffffffffffffffffffffffffff1673ffffffffffffffffffffffffffffffffffffffff1663b1d1ea9782336040518363ffffffff1660e01b8152600401610b3f929190614bbf565b6020604051808303816000875af1158015610b5e573d6000803e3d6000fd5b505050506040513d601f19601f82011682018060405250810190610b829190614b92565b5050565b610b8f33612cdb565b610bce576040517f08c379a0000000000000000000000000000000000000000000000000000000008152600401610bc590614c34565b60405180910390fd5b670de0b6b3a764000081610be29190614c83565b600960008473ffffffffffffffffffffffffffffffffffffffff1673ffffffffffffffffffffffffffffffffffffffff1681526020019081526020016000206000828254610c309190614cdd565b925050819055505050565b610c4433612cdb565b80610c9c5750600360009054906101000a900473ffffffffffffffffffffffffffffffffffffffff1673ffffffffffffffffffffffffffffffffffffffff163373ffffffffffffffffffffffffffffffffffffffff16145b610cdb576040517f08c379a0000000000000000000000000000000000000000000000000000000008152600401610cd290614da5565b60405180910390fd5b600a60009054906101000a900473ffffffffffffffffffffffffffffffffffffffff1673ffffffffffffffffffffffffffffffffffffffff1663c3b639b66040518163ffffffff1660e01b81526004016020604051808303816000875af1158015610d4a573d6000803e3d6000fd5b505050506040513d601f19601f82011682018060405250810190610d6e9190614b92565b50600360009054906101000a900473ffffffffffffffffffffffffffffffffffffffff1673ffffffffffffffffffffffffffffffffffffffff166383bef7a930336040518363ffffffff1660e01b8152600401610dcc929190614de6565b600060405180830381600087803b158015610de657600080fd5b505af1158015610dfa573d6000803e3d6000fd5b50505050600b60009054906101000a900473ffffffffffffffffffffffffffffffffffffffff1673ffffffffffffffffffffffffffffffffffffffff1663c3b639b66040518163ffffffff1660e01b81526004016020604051808303816000875af1158015610e6d573d6000803e3d6000fd5b505050506040513d601f19601f82011682018060405250810190610e919190614b92565b50565b610e9d33612cdb565b610edc576040517f08c379a0000000000000000000000000000000000000000000000000000000008152600401610ed390614c34565b60405180910390fd5b600a60009054906101000a900473ffffffffffffffffffffffffffffffffffffffff1673ffffffffffffffffffffffffffffffffffffffff16638da9e67783670de0b6b3a764000084610f2f9190614c83565b6040518363ffffffff1660e01b8152600401610f4c929190614e0f565b6020604051808303816000875af1158015610f6b573d6000803e3d6000fd5b505050506040513d601f19601f82011682018060405250810190610f8f9190614b92565b50610f9981613bbc565b5050565b600c5481565b60026004600083815260200190815260200160002060070160006101000a81548160ff02191690836002811115610fdd57610fdc6140dc565b5b021790555050565b600a60009054906101000a900473ffffffffffffffffffffffffffffffffffffffff1673ffffffffffffffffffffffffffffffffffffffff1663b1d1ea9782336040518363ffffffff1660e01b8152600401611042929190614bbf565b6020604051808303816000875af1158015611061573d6000803e3d6000fd5b505050506040513d601f19601f820116820180604052508101906110859190614b92565b5050565b670de0b6b3a76400008161109d9190614c83565b600860003373ffffffffffffffffffffffffffffffffffffffff1673ffffffffffffffffffffffffffffffffffffffff16815260200190815260200160002054101561111e576040517f08c379a000000000000000000000000000000000000000000000000000000000815260040161111590614e84565b60405180910390fd5b670de0b6b3a7640000816111329190614c83565b600860003373ffffffffffffffffffffffffffffffffffffffff1673ffffffffffffffffffffffffffffffffffffffff16815260200190815260200160002060008282546111809190614ea4565b92505081905550600a60009054906101000a900473ffffffffffffffffffffffffffffffffffffffff1673ffffffffffffffffffffffffffffffffffffffff16638da9e67733670de0b6b3a7640000846111da9190614c83565b6040518363ffffffff1660e01b81526004016111f7929190614e0f565b6020604051808303816000875af1158015611216573d6000803e3d6000fd5b505050506040513d601f19601f8201168201806040525081019061123a9190614b92565b5061124481613bbc565b50565b60606000600c5467ffffffffffffffff811115611267576112666143cd565b5b60405190808252806020026020018201604052801561129a57816020015b60608152602001906001900390816112855790505b50905060005b600c5481101561137a576004600082815260200190815260200160002060030180546112cb90614aae565b80601f01602080910402602001604051908101604052809291908181526020018280546112f790614aae565b80156113445780601f1061131957610100808354040283529160200191611344565b820191906000526020600020905b81548152906001019060200180831161132757829003601f168201915b505050505082828151811061135c5761135b614ed8565b5b6020026020010181905250808061137290614f07565b9150506112a0565b508091505090565b61138b33612cdb565b6113ca576040517f08c379a00000000000000000000000000000000000000000000000000000000081526004016113c190614b2b565b60405180910390fd5b600b60009054906101000a900473ffffffffffffffffffffffffffffffffffffffff1673ffffffffffffffffffffffffffffffffffffffff1663c3b639b66040518163ffffffff1660e01b81526004016020604051808303816000875af1158015611439573d6000803e3d6000fd5b505050506040513d601f19601f8201168201806040525081019061145d9190614b92565b50565b6000600254905090565b600080600090506004600084815260200190815260200160002060080154905080915050919050565b60606000600c5467ffffffffffffffff8111156114b3576114b26143cd565b5b6040519080825280602002602001820160405280156114e657816020015b60608152602001906001900390816114d15790505b50905060005b600c548110156115c65760046000828152602001908152602001600020600201805461151790614aae565b80601f016020809104026020016040519081016040528092919081815260200182805461154390614aae565b80156115905780601f1061156557610100808354040283529160200191611590565b820191906000526020600020905b81548152906001019060200180831161157357829003601f168201915b50505050508282815181106115a8576115a7614ed8565b5b602002602001018190525080806115be90614f07565b9150506114ec565b508091505090565b6115d733612cdb565b611616576040517f08c379a000000000000000000000000000000000000000000000000000000000815260040161160d90614b2b565b60405180910390fd5b600a60009054906101000a900473ffffffffffffffffffffffffffffffffffffffff1673ffffffffffffffffffffffffffffffffffffffff1663c3b639b66040518163ffffffff1660e01b81526004016020604051808303816000875af1158015611685573d6000803e3d6000fd5b505050506040513d601f19601f820116820180604052508101906116a99190614b92565b50565b60096020528060005260406000206000915090505481565b600b60009054906101000a900473ffffffffffffffffffffffffffffffffffffffff1673ffffffffffffffffffffffffffffffffffffffff1663a95bbced836040518263ffffffff1660e01b815260040161171f9190614b4b565b602060405180830381865afa15801561173c573d6000803e3d6000fd5b505050506040513d601f19601f820116820180604052508101906117609190614f64565b8111156117a2576040517f08c379a000000000000000000000000000000000000000000000000000000000815260040161179990614fdd565b60405180910390fd5b600b60009054906101000a900473ffffffffffffffffffffffffffffffffffffffff1673ffffffffffffffffffffffffffffffffffffffff1663490169348333846040518463ffffffff1660e01b815260040161180193929190614ffd565b6020604051808303816000875af1158015611820573d6000803e3d6000fd5b505050506040513d601f19601f820116820180604052508101906118449190614b92565b505050565b600a60009054906101000a900473ffffffffffffffffffffffffffffffffffffffff1673ffffffffffffffffffffffffffffffffffffffff1663396473f7336040518263ffffffff1660e01b81526004016118a49190614b4b565b6020604051808303816000875af11580156118c3573d6000803e3d6000fd5b505050506040513d601f19601f820116820180604052508101906118e79190614b92565b50565b6118f333612cdb565b611932576040517f08c379a000000000000000000000000000000000000000000000000000000000815260040161192990614c34565b60405180910390fd5b600b60009054906101000a900473ffffffffffffffffffffffffffffffffffffffff1673ffffffffffffffffffffffffffffffffffffffff16638da9e67783670de0b6b3a7640000846119859190614c83565b6040518363ffffffff1660e01b81526004016119a2929190614e0f565b6020604051808303816000875af11580156119c1573d6000803e3d6000fd5b505050506040513d601f19601f820116820180604052508101906119e59190614b92565b506119ef81613c50565b5050565b600060046000858152602001908152602001600020905060001515600560003373ffffffffffffffffffffffffffffffffffffffff1673ffffffffffffffffffffffffffffffffffffffff168152602001908152602001600020600086815260200190815260200160002060009054906101000a900460ff16151514611aae576040517f08c379a0000000000000000000000000000000000000000000000000000000008152600401611aa590615080565b60405180910390fd5b6000600a60009054906101000a900473ffffffffffffffffffffffffffffffffffffffff1673ffffffffffffffffffffffffffffffffffffffff166370a08231336040518263ffffffff1660e01b8152600401611b0b9190614b4b565b602060405180830381865afa158015611b28573d6000803e3d6000fd5b505050506040513d601f19601f82011682018060405250810190611b4c9190614f64565b11611b8c576040517f08c379a0000000000000000000000000000000000000000000000000000000008152600401611b8390615112565b60405180910390fd5b62093a808160040154611b9f9190614cdd565b421115611be1576040517f08c379a0000000000000000000000000000000000000000000000000000000008152600401611bd89061517e565b60405180910390fd5b600280811115611bf457611bf36140dc565b5b6004600086815260200190815260200160002060070160009054906101000a900460ff166002811115611c2a57611c296140dc565b5b14611c6a576040517f08c379a0000000000000000000000000000000000000000000000000000000008152600401611c61906151ea565b60405180910390fd5b6000805b8351811015611cb257838181518110611c8a57611c89614ed8565b5b602002602001015182611c9d9190614cdd565b91508080611caa90614f07565b915050611c6e565b508160080154811115611cc457600080fd5b6000805b8360050180549050811015611de05760005b8651811015611dcc57611daf856005018381548110611cfc57611cfb614ed8565b5b906000526020600020018054611d1190614aae565b80601f0160208091040260200160405190810160405280929190818152602001828054611d3d90614aae565b8015611d8a5780601f10611d5f57610100808354040283529160200191611d8a565b820191906000526020600020905b815481529060010190602001808311611d6d57829003601f168201915b5050505050888381518110611da257611da1614ed8565b5b6020026020010151613ce4565b15611db957600192505b8080611dc490614f07565b915050611cda565b508080611dd890614f07565b915050611cc8565b506001151581151514611df257600080fd5b60005b8360050180549050811015611f5a5760005b8651811015611f4657611edc856005018381548110611e2957611e28614ed8565b5b906000526020600020018054611e3e90614aae565b80601f0160208091040260200160405190810160405280929190818152602001828054611e6a90614aae565b8015611eb75780601f10611e8c57610100808354040283529160200191611eb7565b820191906000526020600020905b815481529060010190602001808311611e9a57829003601f168201915b5050505050888381518110611ecf57611ece614ed8565b5b6020026020010151613ce4565b15611f3357858181518110611ef457611ef3614ed8565b5b6020026020010151856006018381548110611f1257611f11614ed8565b5b906000526020600020016000828254611f2b9190614cdd565b925050819055505b8080611f3e90614f07565b915050611e07565b508080611f5290614f07565b915050611df5565b506001600560003373ffffffffffffffffffffffffffffffffffffffff1673ffffffffffffffffffffffffffffffffffffffff168152602001908152602001600020600088815260200190815260200160002060006101000a81548160ff021916908315150217905550600a60009054906101000a900473ffffffffffffffffffffffffffffffffffffffff1673ffffffffffffffffffffffffffffffffffffffff1663fc13d51887336040518363ffffffff1660e01b815260040161202192919061520a565b600060405180830381600087803b15801561203b57600080fd5b505af115801561204f573d6000803e3d6000fd5b50505050505050505050565b80600960003373ffffffffffffffffffffffffffffffffffffffff1673ffffffffffffffffffffffffffffffffffffffff1681526020019081526020016000205410156120dd576040517f08c379a00000000000000000000000000000000000000000000000000000000081526004016120d490614e84565b60405180910390fd5b670de0b6b3a7640000816120f19190614c83565b600960003373ffffffffffffffffffffffffffffffffffffffff1673ffffffffffffffffffffffffffffffffffffffff168152602001908152602001600020600082825461213f9190614ea4565b92505081905550600b60009054906101000a900473ffffffffffffffffffffffffffffffffffffffff1673ffffffffffffffffffffffffffffffffffffffff16638da9e67733670de0b6b3a7640000846121999190614c83565b6040518363ffffffff1660e01b81526004016121b6929190614e0f565b6020604051808303816000875af11580156121d5573d6000803e3d6000fd5b505050506040513d601f19601f820116820180604052508101906121f99190614b92565b5061220381613c50565b50565b60606000600460008481526020019081526020016000206005018054905067ffffffffffffffff81111561223d5761223c6143cd565b5b60405190808252806020026020018201604052801561227057816020015b606081526020019060019003908161225b5790505b50905060005b6004600085815260200190815260200160002060050180549050811015612383576004600085815260200190815260200160002060050181815481106122bf576122be614ed8565b5b9060005260206000200180546122d490614aae565b80601f016020809104026020016040519081016040528092919081815260200182805461230090614aae565b801561234d5780601f106123225761010080835404028352916020019161234d565b820191906000526020600020905b81548152906001019060200180831161233057829003601f168201915b505050505082828151811061236557612364614ed8565b5b6020026020010181905250808061237b90614f07565b915050612276565b5080915050919050565b6001805461239a90614aae565b80601f01602080910402602001604051908101604052809291908181526020018280546123c690614aae565b80156124135780601f106123e857610100808354040283529160200191612413565b820191906000526020600020905b8154815290600101906020018083116123f657829003601f168201915b505050505081565b60056020528160005260406000206020528060005260406000206000915091509054906101000a900460ff1681565b60006004600083815260200190815260200160002060070160006101000a81548160ff02191690836002811115612484576124836140dc565b5b021790555050565b61249533612cdb565b6124d4576040517f08c379a00000000000000000000000000000000000000000000000000000000081526004016124cb90614b2b565b60405180910390fd5b600a60009054906101000a900473ffffffffffffffffffffffffffffffffffffffff1673ffffffffffffffffffffffffffffffffffffffff16635dc73582826040518263ffffffff1660e01b815260040161252f9190614b4b565b6020604051808303816000875af115801561254e573d6000803e3d6000fd5b505050506040513d601f19601f820116820180604052508101906125729190614b92565b5050565b600060046000868152602001908152602001600020905060001515600560003373ffffffffffffffffffffffffffffffffffffffff1673ffffffffffffffffffffffffffffffffffffffff168152602001908152602001600020600087815260200190815260200160002060009054906101000a900460ff16151514612631576040517f08c379a000000000000000000000000000000000000000000000000000000000815260040161262890615080565b60405180910390fd5b670de0b6b3a7640000600a60009054906101000a900473ffffffffffffffffffffffffffffffffffffffff1673ffffffffffffffffffffffffffffffffffffffff166370a08231336040518263ffffffff1660e01b81526004016126959190614b4b565b602060405180830381865afa1580156126b2573d6000803e3d6000fd5b505050506040513d601f19601f820116820180604052508101906126d69190614f64565b6126e09190615262565b821115612722576040517f08c379a000000000000000000000000000000000000000000000000000000000815260040161271990615305565b60405180910390fd5b6000600a60009054906101000a900473ffffffffffffffffffffffffffffffffffffffff1673ffffffffffffffffffffffffffffffffffffffff166370a08231336040518263ffffffff1660e01b815260040161277f9190614b4b565b602060405180830381865afa15801561279c573d6000803e3d6000fd5b505050506040513d601f19601f820116820180604052508101906127c09190614f64565b11612800576040517f08c379a00000000000000000000000000000000000000000000000000000000081526004016127f790615397565b60405180910390fd5b62093a8081600401546128139190614cdd565b421115612855576040517f08c379a000000000000000000000000000000000000000000000000000000000815260040161284c9061517e565b60405180910390fd5b600280811115612868576128676140dc565b5b6004600087815260200190815260200160002060070160009054906101000a900460ff16600281111561289e5761289d6140dc565b5b146128de576040517f08c379a00000000000000000000000000000000000000000000000000000000081526004016128d5906151ea565b60405180910390fd5b6000805b8451811015612926578481815181106128fe576128fd614ed8565b5b6020026020010151826129119190614cdd565b9150808061291e90614f07565b9150506128e2565b50816008015481111561293857600080fd5b6000805b8360050180549050811015612a545760005b8751811015612a4057612a238560050183815481106129705761296f614ed8565b5b90600052602060002001805461298590614aae565b80601f01602080910402602001604051908101604052809291908181526020018280546129b190614aae565b80156129fe5780601f106129d3576101008083540402835291602001916129fe565b820191906000526020600020905b8154815290600101906020018083116129e157829003601f168201915b5050505050898381518110612a1657612a15614ed8565b5b6020026020010151613ce4565b15612a2d57600192505b8080612a3890614f07565b91505061294e565b508080612a4c90614f07565b91505061293c565b506001151581151514612a6657600080fd5b60005b8360050180549050811015612bd95760005b8751811015612bc557612b50856005018381548110612a9d57612a9c614ed8565b5b906000526020600020018054612ab290614aae565b80601f0160208091040260200160405190810160405280929190818152602001828054612ade90614aae565b8015612b2b5780601f10612b0057610100808354040283529160200191612b2b565b820191906000526020600020905b815481529060010190602001808311612b0e57829003601f168201915b5050505050898381518110612b4357612b42614ed8565b5b6020026020010151613ce4565b15612bb25785878281518110612b6957612b68614ed8565b5b6020026020010151612b7b9190614c83565b856006018381548110612b9157612b90614ed8565b5b906000526020600020016000828254612baa9190614cdd565b925050819055505b8080612bbd90614f07565b915050612a7b565b508080612bd190614f07565b915050612a69565b506001600560003373ffffffffffffffffffffffffffffffffffffffff1673ffffffffffffffffffffffffffffffffffffffff168152602001908152602001600020600089815260200190815260200160002060006101000a81548160ff021916908315150217905550600a60009054906101000a900473ffffffffffffffffffffffffffffffffffffffff1673ffffffffffffffffffffffffffffffffffffffff1663fc13d51888336040518363ffffffff1660e01b8152600401612ca092919061520a565b600060405180830381600087803b158015612cba57600080fd5b505af1158015612cce573d6000803e3d6000fd5b5050505050505050505050565b60006001600b60009054906101000a900473ffffffffffffffffffffffffffffffffffffffff1673ffffffffffffffffffffffffffffffffffffffff166370a08231846040518263ffffffff1660e01b8152600401612d3a9190614b4b565b602060405180830381865afa158015612d57573d6000803e3d6000fd5b505050506040513d601f19601f82011682018060405250810190612d7b9190614f64565b10612d8957600190506130ab565b6000600360009054906101000a900473ffffffffffffffffffffffffffffffffffffffff1673ffffffffffffffffffffffffffffffffffffffff16637a57c0ff6002546040518263ffffffff1660e01b8152600401612de8919061427f565b602060405180830381865afa158015612e05573d6000803e3d6000fd5b505050506040513d601f19601f82011682018060405250810190612e2991906153f5565b90506000600360009054906101000a900473ffffffffffffffffffffffffffffffffffffffff1673ffffffffffffffffffffffffffffffffffffffff16632c36b4b4836040518263ffffffff1660e01b8152600401612e889190615422565b602060405180830381865afa158015612ea5573d6000803e3d6000fd5b505050506040513d601f19601f82011682018060405250810190612ec991906153f5565b905060005b600073ffffffffffffffffffffffffffffffffffffffff168273ffffffffffffffffffffffffffffffffffffffff16146130a457670de0b6b3a76400008273ffffffffffffffffffffffffffffffffffffffff1663f70e51a76040518163ffffffff1660e01b8152600401602060405180830381865afa158015612f56573d6000803e3d6000fd5b505050506040513d601f19601f82011682018060405250810190612f7a919061547b565b73ffffffffffffffffffffffffffffffffffffffff166370a08231876040518263ffffffff1660e01b8152600401612fb29190614b4b565b602060405180830381865afa158015612fcf573d6000803e3d6000fd5b505050506040513d601f19601f82011682018060405250810190612ff39190614f64565b1061300157600190506130a4565b600360009054906101000a900473ffffffffffffffffffffffffffffffffffffffff1673ffffffffffffffffffffffffffffffffffffffff16632c36b4b4836040518263ffffffff1660e01b815260040161305c9190615422565b602060405180830381865afa158015613079573d6000803e3d6000fd5b505050506040513d601f19601f8201168201806040525081019061309d91906153f5565b9150612ece565b8093505050505b919050565b6007602052816000526040600020602052806000526040600020600091509150505481565b600b60009054906101000a900473ffffffffffffffffffffffffffffffffffffffff1673ffffffffffffffffffffffffffffffffffffffff1663396473f7336040518263ffffffff1660e01b81526004016131309190614b4b565b6020604051808303816000875af115801561314f573d6000803e3d6000fd5b505050506040513d601f19601f820116820180604052508101906131739190614b92565b50565b61317f33612cdb565b6131be576040517f08c379a00000000000000000000000000000000000000000000000000000000081526004016131b59061551a565b60405180910390fd5b606060008203613205576040518060400160405280600681526020017f6e6f726d616c00000000000000000000000000000000000000000000000000008152509050613247565b60018203613246576040518060400160405280600881526020017f776569676874656400000000000000000000000000000000000000000000000081525090505b5b604051806101400160405280600c5481526020013373ffffffffffffffffffffffffffffffffffffffff1681526020018881526020018781526020014281526020018681526020018581526020016002808111156132a8576132a76140dc565b5b81526020018481526020018281525060046000600c5481526020019081526020016000206000820151816000015560208201518160010160006101000a81548173ffffffffffffffffffffffffffffffffffffffff021916908373ffffffffffffffffffffffffffffffffffffffff1602179055506040820151816002019080519060200190613339929190613dc8565b506060820151816003019080519060200190613356929190613dc8565b506080820151816004015560a082015181600501908051906020019061337d929190613e4e565b5060c082015181600601908051906020019061339a929190613eae565b5060e08201518160070160006101000a81548160ff021916908360028111156133c6576133c56140dc565b5b021790555061010082015181600801556101208201518160090190805190602001906133f3929190613dc8565b50905050600c600081548092919061340a90614f07565b9190505550600a60009054906101000a900473ffffffffffffffffffffffffffffffffffffffff1673ffffffffffffffffffffffffffffffffffffffff1663a19dea70600c546040518263ffffffff1660e01b815260040161346c919061427f565b600060405180830381600087803b15801561348657600080fd5b505af115801561349a573d6000803e3d6000fd5b5050505050505050505050565b60005b600c548110156136b5576002808111156134c7576134c66140dc565b5b6004600083815260200190815260200160002060070160009054906101000a900460ff1660028111156134fd576134fc6140dc565b5b1461359257600a60009054906101000a900473ffffffffffffffffffffffffffffffffffffffff1673ffffffffffffffffffffffffffffffffffffffff1663ff2b5fa182336040518363ffffffff1660e01b815260040161355f92919061520a565b600060405180830381600087803b15801561357957600080fd5b505af115801561358d573d6000803e3d6000fd5b505050505b7f4c42442933829b3de657efc6a23fbe895206dd2453c5a00c3e26d2e969f8272760046000838152602001908152602001600020600001546004600084815260200190815260200160002060010160009054906101000a900473ffffffffffffffffffffffffffffffffffffffff16600460008581526020019081526020016000206002016004600086815260200190815260200160002060030160046000878152602001908152602001600020600501600460008881526020019081526020016000206006016004600089815260200190815260200160002060080154600460008a815260200190815260200160002060090160405161369a9897969594939291906157da565b60405180910390a180806136ad90614f07565b9150506134aa565b50565b60606000600460008481526020019081526020016000206006018054905067ffffffffffffffff8111156136ef576136ee6143cd565b5b60405190808252806020026020018201604052801561371d5781602001602082028036833780820191505090505b50905060005b60046000858152602001908152602001600020600601805490508110156137a95760046000858152602001908152602001600020600601818154811061376c5761376b614ed8565b5b906000526020600020015482828151811061378a57613789614ed8565b5b60200260200101818152505080806137a190614f07565b915050613723565b5080915050919050565b60086020528060005260406000206000915090505481565b606060006004600084815260200190815260200160002060090180546137f090614aae565b80601f016020809104026020016040519081016040528092919081815260200182805461381c90614aae565b80156138695780601f1061383e57610100808354040283529160200191613869565b820191906000526020600020905b81548152906001019060200180831161384c57829003601f168201915b5050505050905080915050919050565b600a60009054906101000a900473ffffffffffffffffffffffffffffffffffffffff1681565b60066020528160005260406000206020528060005260406000206000915091509054906101000a900460ff1681565b600080546138db90614aae565b80601f016020809104026020016040519081016040528092919081815260200182805461390790614aae565b80156139545780601f1061392957610100808354040283529160200191613954565b820191906000526020600020905b81548152906001019060200180831161393757829003601f168201915b505050505081565b600a60009054906101000a900473ffffffffffffffffffffffffffffffffffffffff1673ffffffffffffffffffffffffffffffffffffffff1663a95bbced836040518263ffffffff1660e01b81526004016139b79190614b4b565b602060405180830381865afa1580156139d4573d6000803e3d6000fd5b505050506040513d601f19601f820116820180604052508101906139f89190614f64565b811115613a3a576040517f08c379a0000000000000000000000000000000000000000000000000000000008152600401613a3190614fdd565b60405180910390fd5b600a60009054906101000a900473ffffffffffffffffffffffffffffffffffffffff1673ffffffffffffffffffffffffffffffffffffffff1663490169348333846040518463ffffffff1660e01b8152600401613a9993929190614ffd565b6020604051808303816000875af1158015613ab8573d6000803e3d6000fd5b505050506040513d601f19601f82011682018060405250810190613adc9190614b92565b505050565b600b60009054906101000a900473ffffffffffffffffffffffffffffffffffffffff1681565b613b1033612cdb565b613b4f576040517f08c379a0000000000000000000000000000000000000000000000000000000008152600401613b4690614c34565b60405180910390fd5b670de0b6b3a764000081613b639190614c83565b600860008473ffffffffffffffffffffffffffffffffffffffff1673ffffffffffffffffffffffffffffffffffffffff1681526020019081526020016000206000828254613bb19190614cdd565b925050819055505050565b600360009054906101000a900473ffffffffffffffffffffffffffffffffffffffff1673ffffffffffffffffffffffffffffffffffffffff166350ee8e8f3083336040518463ffffffff1660e01b8152600401613c1b9392919061587b565b600060405180830381600087803b158015613c3557600080fd5b505af1158015613c49573d6000803e3d6000fd5b5050505050565b600360009054906101000a900473ffffffffffffffffffffffffffffffffffffffff1673ffffffffffffffffffffffffffffffffffffffff1663205cdcff3083336040518463ffffffff1660e01b8152600401613caf9392919061587b565b600060405180830381600087803b158015613cc957600080fd5b505af1158015613cdd573d6000803e3d6000fd5b5050505050565b600080839050600083905060008251905081518114613d095760009350505050613dc2565b60005b81811015613db957828181518110613d2757613d26614ed8565b5b602001015160f81c60f81b7effffffffffffffffffffffffffffffffffffffffffffffffffffffffffffff1916848281518110613d6757613d66614ed8565b5b602001015160f81c60f81b7effffffffffffffffffffffffffffffffffffffffffffffffffffffffffffff191614613da6576000945050505050613dc2565b8080613db190614f07565b915050613d0c565b50600193505050505b92915050565b828054613dd490614aae565b90600052602060002090601f016020900481019282613df65760008555613e3d565b82601f10613e0f57805160ff1916838001178555613e3d565b82800160010185558215613e3d579182015b82811115613e3c578251825591602001919060010190613e21565b5b509050613e4a9190613efb565b5090565b828054828255906000526020600020908101928215613e9d579160200282015b82811115613e9c578251829080519060200190613e8c929190613dc8565b5091602001919060010190613e6e565b5b509050613eaa9190613f18565b5090565b828054828255906000526020600020908101928215613eea579160200282015b82811115613ee9578251825591602001919060010190613ece565b5b509050613ef79190613efb565b5090565b5b80821115613f14576000816000905550600101613efc565b5090565b5b80821115613f385760008181613f2f9190613f3c565b50600101613f19565b5090565b508054613f4890614aae565b6000825580601f10613f5a5750613f79565b601f016020900490600052602060002090810190613f789190613efb565b5b50565b6000604051905090565b600080fd5b600080fd5b6000819050919050565b613fa381613f90565b8114613fae57600080fd5b50565b600081359050613fc081613f9a565b92915050565b600060208284031215613fdc57613fdb613f86565b5b6000613fea84828501613fb1565b91505092915050565b613ffc81613f90565b82525050565b600073ffffffffffffffffffffffffffffffffffffffff82169050919050565b600061402d82614002565b9050919050565b61403d81614022565b82525050565b600081519050919050565b600082825260208201905092915050565b60005b8381101561407d578082015181840152602081019050614062565b8381111561408c576000848401525b50505050565b6000601f19601f8301169050919050565b60006140ae82614043565b6140b8818561404e565b93506140c881856020860161405f565b6140d181614092565b840191505092915050565b7f4e487b7100000000000000000000000000000000000000000000000000000000600052602160045260246000fd5b6003811061411c5761411b6140dc565b5b50565b600081905061412d8261410b565b919050565b600061413d8261411f565b9050919050565b61414d81614132565b82525050565b600061010082019050614169600083018b613ff3565b614176602083018a614034565b818103604083015261418881896140a3565b9050818103606083015261419c81886140a3565b90506141ab6080830187613ff3565b6141b860a0830186614144565b6141c560c0830185613ff3565b81810360e08301526141d781846140a3565b90509998505050505050505050565b6141ef81614022565b81146141fa57600080fd5b50565b60008135905061420c816141e6565b92915050565b60006020828403121561422857614227613f86565b5b6000614236848285016141fd565b91505092915050565b6000806040838503121561425657614255613f86565b5b6000614264858286016141fd565b925050602061427585828601613fb1565b9150509250929050565b60006020820190506142946000830184613ff3565b92915050565b600081519050919050565b600082825260208201905092915050565b6000819050602082019050919050565b600082825260208201905092915050565b60006142e282614043565b6142ec81856142c6565b93506142fc81856020860161405f565b61430581614092565b840191505092915050565b600061431c83836142d7565b905092915050565b6000602082019050919050565b600061433c8261429a565b61434681856142a5565b935083602082028501614358856142b6565b8060005b8581101561439457848403895281516143758582614310565b945061438083614324565b925060208a0199505060018101905061435c565b50829750879550505050505092915050565b600060208201905081810360008301526143c08184614331565b905092915050565b600080fd5b7f4e487b7100000000000000000000000000000000000000000000000000000000600052604160045260246000fd5b61440582614092565b810181811067ffffffffffffffff82111715614424576144236143cd565b5b80604052505050565b6000614437613f7c565b905061444382826143fc565b919050565b600067ffffffffffffffff821115614463576144626143cd565b5b602082029050602081019050919050565b600080fd5b600080fd5b600067ffffffffffffffff821115614499576144986143cd565b5b6144a282614092565b9050602081019050919050565b82818337600083830152505050565b60006144d16144cc8461447e565b61442d565b9050828152602081018484840111156144ed576144ec614479565b5b6144f88482856144af565b509392505050565b600082601f830112614515576145146143c8565b5b81356145258482602086016144be565b91505092915050565b600061454161453c84614448565b61442d565b9050808382526020820190506020840283018581111561456457614563614474565b5b835b818110156145ab57803567ffffffffffffffff811115614589576145886143c8565b5b8086016145968982614500565b85526020850194505050602081019050614566565b5050509392505050565b600082601f8301126145ca576145c96143c8565b5b81356145da84826020860161452e565b91505092915050565b600067ffffffffffffffff8211156145fe576145fd6143cd565b5b602082029050602081019050919050565b600061462261461d846145e3565b61442d565b9050808382526020820190506020840283018581111561464557614644614474565b5b835b8181101561466e578061465a8882613fb1565b845260208401935050602081019050614647565b5050509392505050565b600082601f83011261468d5761468c6143c8565b5b813561469d84826020860161460f565b91505092915050565b6000806000606084860312156146bf576146be613f86565b5b60006146cd86828701613fb1565b935050602084013567ffffffffffffffff8111156146ee576146ed613f8b565b5b6146fa868287016145b5565b925050604084013567ffffffffffffffff81111561471b5761471a613f8b565b5b61472786828701614678565b9150509250925092565b6000602082019050818103600083015261474b81846140a3565b905092915050565b60008115159050919050565b61476881614753565b82525050565b6000602082019050614783600083018461475f565b92915050565b600080600080608085870312156147a3576147a2613f86565b5b60006147b187828801613fb1565b945050602085013567ffffffffffffffff8111156147d2576147d1613f8b565b5b6147de878288016145b5565b935050604085013567ffffffffffffffff8111156147ff576147fe613f8b565b5b61480b87828801614678565b925050606061481c87828801613fb1565b91505092959194509250565b60008060008060008060c0878903121561484557614844613f86565b5b600087013567ffffffffffffffff81111561486357614862613f8b565b5b61486f89828a01614500565b965050602087013567ffffffffffffffff8111156148905761488f613f8b565b5b61489c89828a01614500565b955050604087013567ffffffffffffffff8111156148bd576148bc613f8b565b5b6148c989828a016145b5565b945050606087013567ffffffffffffffff8111156148ea576148e9613f8b565b5b6148f689828a01614678565b935050608061490789828a01613fb1565b92505060a061491889828a01613fb1565b9150509295509295509295565b600081519050919050565b600082825260208201905092915050565b6000819050602082019050919050565b61495a81613f90565b82525050565b600061496c8383614951565b60208301905092915050565b6000602082019050919050565b600061499082614925565b61499a8185614930565b93506149a583614941565b8060005b838110156149d65781516149bd8882614960565b97506149c883614978565b9250506001810190506149a9565b5085935050505092915050565b600060208201905081810360008301526149fd8184614985565b905092915050565b6000819050919050565b6000614a2a614a25614a2084614002565b614a05565b614002565b9050919050565b6000614a3c82614a0f565b9050919050565b6000614a4e82614a31565b9050919050565b614a5e81614a43565b82525050565b6000602082019050614a796000830184614a55565b92915050565b7f4e487b7100000000000000000000000000000000000000000000000000000000600052602260045260246000fd5b60006002820490506001821680614ac657607f821691505b602082108103614ad957614ad8614a7f565b5b50919050565b7f646f6573206e6f74206861766520796b2070726976696c696765730000000000600082015250565b6000614b15601b8361404e565b9150614b2082614adf565b602082019050919050565b60006020820190508181036000830152614b4481614b08565b9050919050565b6000602082019050614b606000830184614034565b92915050565b614b6f81614753565b8114614b7a57600080fd5b50565b600081519050614b8c81614b66565b92915050565b600060208284031215614ba857614ba7613f86565b5b6000614bb684828501614b7d565b91505092915050565b6000604082019050614bd46000830185614034565b614be16020830184614034565b9392505050565b7f4e6f74206120594b000000000000000000000000000000000000000000000000600082015250565b6000614c1e60088361404e565b9150614c2982614be8565b602082019050919050565b60006020820190508181036000830152614c4d81614c11565b9050919050565b7f4e487b7100000000000000000000000000000000000000000000000000000000600052601160045260246000fd5b6000614c8e82613f90565b9150614c9983613f90565b9250817fffffffffffffffffffffffffffffffffffffffffffffffffffffffffffffffff0483118215151615614cd257614cd1614c54565b5b828202905092915050565b6000614ce882613f90565b9150614cf383613f90565b9250827fffffffffffffffffffffffffffffffffffffffffffffffffffffffffffffffff03821115614d2857614d27614c54565b5b828201905092915050565b7f646f6573206e6f74206861766520796b2070726976696c69676573206f72206960008201527f73206e6f7420666163746f727900000000000000000000000000000000000000602082015250565b6000614d8f602d8361404e565b9150614d9a82614d33565b604082019050919050565b60006020820190508181036000830152614dbe81614d82565b9050919050565b6000614dd082614a31565b9050919050565b614de081614dc5565b82525050565b6000604082019050614dfb6000830185614dd7565b614e086020830184614034565b9392505050565b6000604082019050614e246000830185614034565b614e316020830184613ff3565b9392505050565b7f4e6f7420656e6f75676820736861726573000000000000000000000000000000600082015250565b6000614e6e60118361404e565b9150614e7982614e38565b602082019050919050565b60006020820190508181036000830152614e9d81614e61565b9050919050565b6000614eaf82613f90565b9150614eba83613f90565b925082821015614ecd57614ecc614c54565b5b828203905092915050565b7f4e487b7100000000000000000000000000000000000000000000000000000000600052603260045260246000fd5b6000614f1282613f90565b91507fffffffffffffffffffffffffffffffffffffffffffffffffffffffffffffffff8203614f4457614f43614c54565b5b600182019050919050565b600081519050614f5e81613f9a565b92915050565b600060208284031215614f7a57614f79613f86565b5b6000614f8884828501614f4f565b91505092915050565b7f6e6f7420656e6f756768206465627420736f6d65686f77000000000000000000600082015250565b6000614fc760178361404e565b9150614fd282614f91565b602082019050919050565b60006020820190508181036000830152614ff681614fba565b9050919050565b60006060820190506150126000830186614034565b61501f6020830185614034565b61502c6040830184613ff3565b949350505050565b7f616c726561647920766f74656400000000000000000000000000000000000000600082015250565b600061506a600d8361404e565b915061507582615034565b602082019050919050565b600060208201905081810360008301526150998161505d565b9050919050565b7f4e6f7420656e6f7567682073686172657320746f20766f7465206f6e2061207060008201527f726f706f73616c00000000000000000000000000000000000000000000000000602082015250565b60006150fc60278361404e565b9150615107826150a0565b604082019050919050565b6000602082019050818103600083015261512b816150ef565b9050919050565b7f566f74696e6720706572696f64206973206f7665720000000000000000000000600082015250565b600061516860158361404e565b915061517382615132565b602082019050919050565b600060208201905081810360008301526151978161515b565b9050919050565b7f566f74696e6720706572696f642069732066696e697368656400000000000000600082015250565b60006151d460198361404e565b91506151df8261519e565b602082019050919050565b60006020820190508181036000830152615203816151c7565b9050919050565b600060408201905061521f6000830185613ff3565b61522c6020830184614034565b9392505050565b7f4e487b7100000000000000000000000000000000000000000000000000000000600052601260045260246000fd5b600061526d82613f90565b915061527883613f90565b92508261528857615287615233565b5b828204905092915050565b7f446f6e74206861766520656e6f75676820746f6b656e7320286368616e67652060008201527f7765696768742900000000000000000000000000000000000000000000000000602082015250565b60006152ef60278361404e565b91506152fa82615293565b604082019050919050565b6000602082019050818103600083015261531e816152e2565b9050919050565b7f446f6e74206861766520656e6f75676820746f6b656e7320286c69746572616c60008201527f6c79203029000000000000000000000000000000000000000000000000000000602082015250565b600061538160258361404e565b915061538c82615325565b604082019050919050565b600060208201905081810360008301526153b081615374565b9050919050565b60006153c282614022565b9050919050565b6153d2816153b7565b81146153dd57600080fd5b50565b6000815190506153ef816153c9565b92915050565b60006020828403121561540b5761540a613f86565b5b6000615419848285016153e0565b91505092915050565b60006020820190506154376000830184614dd7565b92915050565b600061544882614022565b9050919050565b6154588161543d565b811461546357600080fd5b50565b6000815190506154758161544f565b92915050565b60006020828403121561549157615490613f86565b5b600061549f84828501615466565b91505092915050565b7f4e6f7420656e6f7567682073686172657320746f20637265617465206120707260008201527f6f706f73616c0000000000000000000000000000000000000000000000000000602082015250565b600061550460268361404e565b915061550f826154a8565b604082019050919050565b60006020820190508181036000830152615533816154f7565b9050919050565b60008190508160005260206000209050919050565b6000815461555c81614aae565b615566818661404e565b945060018216600081146155815760018114615593576155c6565b60ff19831686526020860193506155c6565b61559c8561553a565b60005b838110156155be5781548189015260018201915060208101905061559f565b808801955050505b50505092915050565b600081549050919050565b60008190508160005260206000209050919050565b600081546155fc81614aae565b61560681866142c6565b94506001821660008114615621576001811461563357615666565b60ff1983168652602086019350615666565b61563c8561553a565b60005b8381101561565e5781548189015260018201915060208101905061563f565b808801955050505b50505092915050565b600061567b83836155ef565b905092915050565b6000600182019050919050565b600061569b826155cf565b6156a581856142a5565b9350836020820285016156b7856155da565b8060005b858110156156f2578484038952816156d3858261566f565b94506156de83615683565b925060208a019950506001810190506156bb565b50829750879550505050505092915050565b600081549050919050565b60008190508160005260206000209050919050565b60008160001c9050919050565b6000819050919050565b600061574e61574983615724565b615731565b9050919050565b6000615761825461573b565b9050919050565b6000600182019050919050565b600061578082615704565b61578a8185614930565b93506157958361570f565b8060005b838110156157cd576157aa82615755565b6157b48882614960565b97506157bf83615768565b925050600181019050615799565b5085935050505092915050565b6000610100820190506157f0600083018b613ff3565b6157fd602083018a614034565b818103604083015261580f818961554f565b90508181036060830152615823818861554f565b905081810360808301526158378187615690565b905081810360a083015261584b8186615775565b905061585a60c0830185613ff3565b81810360e083015261586c818461554f565b90509998505050505050505050565b60006060820190506158906000830186614dd7565b61589d6020830185613ff3565b6158aa6040830184614034565b94935050505056fea2646970667358221220a948132cf46458d669d9976557a67d6a51be62d2c7269fa689f6041f962aa78364736f6c634300080d0033a2646970667358221220c7f37ad57b64222de67752a445bbfd9a9ce7e71c6db0c7fdc40273851123d05364736f6c634300080d0033",
  "immutableReferences": {},
  "source": "// SPDX-License-Identifier: GPL-3.0\r\npragma solidity >=0.7.0 <0.9.0;\r\npragma experimental ABIEncoderV2;\r\n//import \"./DAO.sol\";\r\nimport \"./newDAO1.sol\";\r\nimport \"./itoken.sol\";\r\nimport \"./icreator.sol\";\r\n\r\ncontract DAOFactory {\r\n    address public top_dao;\r\n    mapping(MyDAO => MyDAO[]) public parent_child_daos;\r\n    mapping(MyDAO => uint) public num_children;\r\n    //MyDAO[] public _child_daos;\r\n    //address[] public dao_creators_top;\r\n    mapping(address => bool) public is_a_dao_creator;\r\n    mapping(MyDAO => ISUToken) public dao_tokens_yk;\r\n    mapping(MyDAO => ISUToken) public dao_tokens_voter;\r\n    mapping(MyDAO => address) public dao_first_yk; // for an edge case \r\n    mapping(ISUToken => address) public token_first_yk;\r\n    mapping(MyDAO => bool) public dao_exists;\r\n    mapping (MyDAO => MyDAO) public child_parent;\r\n    //event num_contracts(uint num);\r\n    mapping(uint256 => MyDAO) public all_daos;\r\n    uint256 public next_dao_id; \r\n    icreator my_creator;\r\n    address private yk_token_address;\r\n    address private voter_token_address;\r\n    \r\n    constructor(address myCreator) {\r\n        my_creator = icreator(myCreator);\r\n        is_a_dao_creator[msg.sender] = true;   \r\n        next_dao_id = 0;\r\n    }\r\n\r\n    //so first the dao and the token will be created, factory will have the tokens and dao will have the allowance to use \r\n    //these tokens, the yk will be able to withdraw, send and deposit yk_tokens\r\n    function createDAOTop( string memory dao_name,  string memory dao_description, string memory yk_token_name, string memory yk_token_symbol, string memory voter_token_name, string memory voter_token_symbol) public {\r\n        require(is_a_dao_creator[msg.sender] == true, 'Not added as a DAO Creator');\r\n        //line below mints 1000 tokens to this factory, also makes factory the owner of these tokens\r\n \r\n        //ISUToken yk_token = new ISUToken(yk_token_name, yk_token_symbol, address(this));\r\n        //ISUToken voter_token = new ISUToken(voter_token_name, voter_token_symbol, address(this));\r\n\r\n        (yk_token_address, voter_token_address) = my_creator.createToken(yk_token_name,yk_token_symbol,  voter_token_name,  voter_token_symbol);\r\n\r\n        ISUToken yk_token = ISUToken(yk_token_address);\r\n        ISUToken voter_token = ISUToken(voter_token_address);\r\n        MyDAO c = new MyDAO(dao_name, dao_description,next_dao_id, msg.sender, yk_token, voter_token, this);\r\n        //token.mint(address(c), 1000*10**18);\r\n        //with this function my dao can use the tokens my factory has however it wishes, it is currently only 1000, can add mint later\r\n        yk_token.increaseAllowance(address(c), 1000* 10**18);\r\n        yk_token.increaseAllowance(address(this), 1000* 10**18);\r\n        voter_token.increaseAllowance(address(c), 1000* 10**18);\r\n        voter_token.increaseAllowance(address(this), 1000* 10**18);\r\n        yk_token.assignDAO( address(c));\r\n        voter_token.assignDAO( address(c));\r\n        //we save which dao has which yk tokens and which voter tokens\r\n\r\n        dao_tokens_yk[c] = yk_token;\r\n        dao_tokens_voter[c] = voter_token;\r\n        dao_first_yk[c] = msg.sender;\r\n        token_first_yk[yk_token] = msg.sender;\r\n        top_dao = address(c);\r\n        dao_exists[c] = true;\r\n\r\n        //tokens are minted to factory right, we are sending them to dao so they can utilize it.\r\n        voter_token.transferFrom(address(this), address(c), 1000 * 10**18);\r\n        yk_token.transferFrom(address(this), address(c), (1000 * 10 ** 18));\r\n        all_daos[next_dao_id] = c;\r\n\r\n\r\n\r\n        next_dao_id += 1;\r\n    }\r\n\r\n\r\n    function createChildDAO( MyDAO parent, string memory dao_name,  string memory dao_description, string memory yk_token_name, string memory yk_token_symbol, string memory voter_token_name, string memory voter_token_symbol) public {\r\n        require(parent.has_yk_priviliges(msg.sender) == true, 'Not a YK of parent DAO');\r\n        //line below mints 1000 tokens to this factory, also makes factory the owner of these tokens\r\n \r\n\r\n        (yk_token_address, voter_token_address) = my_creator.createToken(yk_token_name,yk_token_symbol,  voter_token_name,  voter_token_symbol);\r\n        ISUToken yk_token = ISUToken(yk_token_address);\r\n        ISUToken voter_token = ISUToken(voter_token_address);\r\n        MyDAO c = new MyDAO(dao_name, dao_description,next_dao_id, msg.sender, yk_token, voter_token, this);\r\n        //token.mint(address(c), 1000*10**18);\r\n        //with this function my dao can use the tokens my factory has however it wishes, it is currently only 1000, can add mint later\r\n        yk_token.increaseAllowance(address(c), 1000* 10**18);\r\n        yk_token.increaseAllowance(address(this), 1000* 10**18);\r\n        voter_token.increaseAllowance(address(c), 1000* 10**18);\r\n        voter_token.increaseAllowance(address(this), 1000* 10**18);\r\n        //check if assignDAO works with interface\r\n        yk_token.assignDAO( address(c));\r\n        voter_token.assignDAO( address(c));\r\n        //we save which dao has which yk tokens and which voter tokens\r\n\r\n        dao_tokens_yk[c] = yk_token;\r\n        dao_tokens_voter[c] = voter_token;\r\n        dao_first_yk[c] = msg.sender;\r\n        token_first_yk[yk_token] = msg.sender;\r\n        //top_dao = address(c);\r\n        dao_exists[c] = true;\r\n        parent_child_daos[parent].push(c);\r\n        num_children[parent] += 1;\r\n        child_parent[c] = parent;\r\n        \r\n        \r\n\r\n        //tokens are minted to factory right, we are sending them to dao so they can utilize it.\r\n        voter_token.transferFrom(address(this), address(c), 1000 * 10**18);\r\n        yk_token.transferFrom(address(this), address(c), (1000 * 10 ** 18));\r\n\r\n\r\n\r\n\r\n        all_daos[next_dao_id] = c;\r\n        next_dao_id += 1;\r\n    }\r\n\r\n    function mint_dao_yk(MyDAO to_be_minted, uint amount, address sender) public {\r\n        require(to_be_minted.has_yk_priviliges(sender), \"Not YK of selected DAO\");\r\n        //make sure the one who sends this is dao\r\n        require(msg.sender == address(to_be_minted), \"Don't even try\");\r\n        dao_tokens_yk[to_be_minted].mint(address(to_be_minted), amount*10**18);\r\n    }\r\n\r\n    function mint_dao_voter(MyDAO to_be_minted, uint amount, address sender) public {\r\n        require(to_be_minted.has_yk_priviliges(sender), \"Not YK of selected DAO\");\r\n        //make sure the one who sends this is dao\r\n        require(msg.sender == address(to_be_minted), \"Don't even try\");\r\n        dao_tokens_voter[to_be_minted].mint(address(to_be_minted), amount*10**18);\r\n    }\r\n\r\n   \r\n\r\n\r\n    function addCreator(address input_creator) public\r\n    {\r\n        is_a_dao_creator[input_creator] = true;\r\n    }\r\n    function getParentDAO(MyDAO mydao)  public view returns (MyDAO){\r\n        return child_parent[mydao];\r\n\r\n    }\r\n    function getCurrentDAO(uint256 id)  public view returns (MyDAO){\r\n        return all_daos[id];\r\n\r\n    }\r\n\r\n\r\n\r\n    function delete_DAO(MyDAO to_be_deleted, address sender) public {\r\n        require(to_be_deleted.has_yk_priviliges(sender) || msg.sender == address(this) || msg.sender == address(to_be_deleted), \"Not YK of selected DAO\");\r\n        //make sure the one who sends this is dao\r\n        require(msg.sender == address(to_be_deleted), \"Don't even try\");\r\n\r\n\r\n        \r\n        for (uint i = 0 ; i < parent_child_daos[to_be_deleted].length; i++){\r\n            parent_child_daos[to_be_deleted][i].delete_this_dao();            \r\n        }\r\n        for ( uint i = 0; i < parent_child_daos[child_parent[to_be_deleted]].length; i++){\r\n            if( parent_child_daos[child_parent[to_be_deleted]][i]== to_be_deleted){\r\n                //user_delegations[to][i];\r\n                //string element = myArray[index];\r\n                parent_child_daos[child_parent[to_be_deleted]][i] = parent_child_daos[child_parent[to_be_deleted]][parent_child_daos[child_parent[to_be_deleted]].length - 1];\r\n                parent_child_daos[child_parent[to_be_deleted]].pop();\r\n\r\n                \r\n            }\r\n\r\n        }        \r\n        dao_exists[to_be_deleted] = false;\r\n        MyDAO c;\r\n        all_daos[ to_be_deleted.getDaoid()] = c;\r\n    }\r\n\r\n}",
  "sourcePath": "D:\\Projects\\DAOO\\SU_Govern\\contract_for_front_end\\ui_sol_deneme2\\ui_sol_deneme\\sol_ui\\blockchain1\\contracts\\newFactory1.sol",
  "compiler": {
    "name": "solc",
    "version": "0.8.13+commit.abaa5c0e.Emscripten.clang"
  },
  "schemaVersion": "3.4.7",
  "updatedAt": "2022-12-26T20:03:16.897Z",
  "devdoc": {
    "kind": "dev",
    "methods": {},
    "version": 1
  },
  "userdoc": {
    "kind": "user",
    "methods": {},
    "version": 1
  }
}