{
  "contractName": "DAOFactory",
  "abi": [
    {
      "inputs": [
        {
          "internalType": "address",
          "name": "myCreator",
          "type": "address"
        }
      ],
      "stateMutability": "nonpayable",
      "type": "constructor"
    },
    {
      "inputs": [
        {
          "internalType": "uint256",
          "name": "",
          "type": "uint256"
        }
      ],
      "name": "all_daos",
      "outputs": [
        {
          "internalType": "contract MyDAO",
          "name": "",
          "type": "address"
        }
      ],
      "stateMutability": "view",
      "type": "function"
    },
    {
      "inputs": [
        {
          "internalType": "contract MyDAO",
          "name": "",
          "type": "address"
        }
      ],
      "name": "child_parent",
      "outputs": [
        {
          "internalType": "contract MyDAO",
          "name": "",
          "type": "address"
        }
      ],
      "stateMutability": "view",
      "type": "function"
    },
    {
      "inputs": [
        {
          "internalType": "contract MyDAO",
          "name": "",
          "type": "address"
        }
      ],
      "name": "dao_exists",
      "outputs": [
        {
          "internalType": "bool",
          "name": "",
          "type": "bool"
        }
      ],
      "stateMutability": "view",
      "type": "function"
    },
    {
      "inputs": [
        {
          "internalType": "contract MyDAO",
          "name": "",
          "type": "address"
        }
      ],
      "name": "dao_first_yk",
      "outputs": [
        {
          "internalType": "address",
          "name": "",
          "type": "address"
        }
      ],
      "stateMutability": "view",
      "type": "function"
    },
    {
      "inputs": [
        {
          "internalType": "contract MyDAO",
          "name": "",
          "type": "address"
        }
      ],
      "name": "dao_tokens_voter",
      "outputs": [
        {
          "internalType": "contract ISUToken",
          "name": "",
          "type": "address"
        }
      ],
      "stateMutability": "view",
      "type": "function"
    },
    {
      "inputs": [
        {
          "internalType": "contract MyDAO",
          "name": "",
          "type": "address"
        }
      ],
      "name": "dao_tokens_yk",
      "outputs": [
        {
          "internalType": "contract ISUToken",
          "name": "",
          "type": "address"
        }
      ],
      "stateMutability": "view",
      "type": "function"
    },
    {
      "inputs": [
        {
          "internalType": "address",
          "name": "",
          "type": "address"
        }
      ],
      "name": "is_a_dao_creator",
      "outputs": [
        {
          "internalType": "bool",
          "name": "",
          "type": "bool"
        }
      ],
      "stateMutability": "view",
      "type": "function"
    },
    {
      "inputs": [],
      "name": "next_dao_id",
      "outputs": [
        {
          "internalType": "uint256",
          "name": "",
          "type": "uint256"
        }
      ],
      "stateMutability": "view",
      "type": "function"
    },
    {
      "inputs": [
        {
          "internalType": "contract MyDAO",
          "name": "",
          "type": "address"
        }
      ],
      "name": "num_children",
      "outputs": [
        {
          "internalType": "uint256",
          "name": "",
          "type": "uint256"
        }
      ],
      "stateMutability": "view",
      "type": "function"
    },
    {
      "inputs": [
        {
          "internalType": "contract MyDAO",
          "name": "",
          "type": "address"
        },
        {
          "internalType": "uint256",
          "name": "",
          "type": "uint256"
        }
      ],
      "name": "parent_child_daos",
      "outputs": [
        {
          "internalType": "contract MyDAO",
          "name": "",
          "type": "address"
        }
      ],
      "stateMutability": "view",
      "type": "function"
    },
    {
      "inputs": [
        {
          "internalType": "contract ISUToken",
          "name": "",
          "type": "address"
        }
      ],
      "name": "token_first_yk",
      "outputs": [
        {
          "internalType": "address",
          "name": "",
          "type": "address"
        }
      ],
      "stateMutability": "view",
      "type": "function"
    },
    {
      "inputs": [],
      "name": "top_dao",
      "outputs": [
        {
          "internalType": "address",
          "name": "",
          "type": "address"
        }
      ],
      "stateMutability": "view",
      "type": "function"
    },
    {
      "inputs": [
        {
          "internalType": "string",
          "name": "dao_name",
          "type": "string"
        },
        {
          "internalType": "string",
          "name": "dao_description",
          "type": "string"
        },
        {
          "internalType": "string",
          "name": "yk_token_name",
          "type": "string"
        },
        {
          "internalType": "string",
          "name": "yk_token_symbol",
          "type": "string"
        },
        {
          "internalType": "string",
          "name": "voter_token_name",
          "type": "string"
        },
        {
          "internalType": "string",
          "name": "voter_token_symbol",
          "type": "string"
        }
      ],
      "name": "createDAOTop",
      "outputs": [],
      "stateMutability": "nonpayable",
      "type": "function"
    },
    {
      "inputs": [
        {
          "internalType": "contract MyDAO",
          "name": "parent",
          "type": "address"
        },
        {
          "internalType": "string",
          "name": "dao_name",
          "type": "string"
        },
        {
          "internalType": "string",
          "name": "dao_description",
          "type": "string"
        },
        {
          "internalType": "string",
          "name": "yk_token_name",
          "type": "string"
        },
        {
          "internalType": "string",
          "name": "yk_token_symbol",
          "type": "string"
        },
        {
          "internalType": "string",
          "name": "voter_token_name",
          "type": "string"
        },
        {
          "internalType": "string",
          "name": "voter_token_symbol",
          "type": "string"
        }
      ],
      "name": "createChildDAO",
      "outputs": [],
      "stateMutability": "nonpayable",
      "type": "function"
    },
    {
      "inputs": [
        {
          "internalType": "contract MyDAO",
          "name": "to_be_minted",
          "type": "address"
        },
        {
          "internalType": "uint256",
          "name": "amount",
          "type": "uint256"
        },
        {
          "internalType": "address",
          "name": "sender",
          "type": "address"
        }
      ],
      "name": "mint_dao_yk",
      "outputs": [],
      "stateMutability": "nonpayable",
      "type": "function"
    },
    {
      "inputs": [
        {
          "internalType": "contract MyDAO",
          "name": "to_be_minted",
          "type": "address"
        },
        {
          "internalType": "uint256",
          "name": "amount",
          "type": "uint256"
        },
        {
          "internalType": "address",
          "name": "sender",
          "type": "address"
        }
      ],
      "name": "mint_dao_voter",
      "outputs": [],
      "stateMutability": "nonpayable",
      "type": "function"
    },
    {
      "inputs": [
        {
          "internalType": "address",
          "name": "input_creator",
          "type": "address"
        }
      ],
      "name": "addCreator",
      "outputs": [],
      "stateMutability": "nonpayable",
      "type": "function"
    },
    {
      "inputs": [
        {
          "internalType": "contract MyDAO",
          "name": "mydao",
          "type": "address"
        }
      ],
      "name": "getParentDAO",
      "outputs": [
        {
          "internalType": "contract MyDAO",
          "name": "",
          "type": "address"
        }
      ],
      "stateMutability": "view",
      "type": "function"
    },
    {
      "inputs": [
        {
          "internalType": "uint256",
          "name": "id",
          "type": "uint256"
        }
      ],
      "name": "getCurrentDAO",
      "outputs": [
        {
          "internalType": "contract MyDAO",
          "name": "",
          "type": "address"
        }
      ],
      "stateMutability": "view",
      "type": "function"
    }
  ],
  "bytecode": "0x60806040523480156200001157600080fd5b5060405162008da738038062008da7833981810160405281019062000037919062000149565b80600c60006101000a81548173ffffffffffffffffffffffffffffffffffffffff021916908373ffffffffffffffffffffffffffffffffffffffff1602179055506001600360003373ffffffffffffffffffffffffffffffffffffffff1673ffffffffffffffffffffffffffffffffffffffff16815260200190815260200160002060006101000a81548160ff0219169083151502179055506000600b81905550506200017b565b600080fd5b600073ffffffffffffffffffffffffffffffffffffffff82169050919050565b60006200011182620000e4565b9050919050565b620001238162000104565b81146200012f57600080fd5b50565b600081519050620001438162000118565b92915050565b600060208284031215620001625762000161620000df565b5b6000620001728482850162000132565b91505092915050565b618c1c806200018b6000396000f3fe60806040523480156200001157600080fd5b50600436106200013c5760003560e01c80636b84526511620000bd578063af26fc49116200007b578063af26fc4914620003b5578063ba15cdd914620003d5578063eff1f44f146200040b578063f5a353d11462000441578063fe4524b31462000477576200013c565b80636b84526514620002bb5780636d61d4c914620002f15780637a57c0ff146200032757806381a6520a146200035d578063958c02b41462000393576200013c565b80633efb7ae2116200010b5780633efb7ae214620001ed5780634c9a7fa3146200022357806350ee8e8f14620002455780635a76df3414620002655780635ab178d91462000285576200013c565b8063205cdcff14620001415780632345a8f014620001615780632c36b4b414620001975780633b9dce0514620001cd575b600080fd5b6200015f60048036038101906200015991906200218e565b620004ad565b005b6200017f6004803603810190620001799190620021ea565b620006c9565b6040516200018e919062002287565b60405180910390f35b620001b56004803603810190620001af9190620021ea565b620006fc565b604051620001c49190620022c9565b60405180910390f35b620001eb6004803603810190620001e59190620022e6565b62000765565b005b6200020b600480360381019062000205919062002318565b620007c0565b6040516200021a9190620022c9565b60405180910390f35b6200022d620007f3565b6040516200023c91906200235b565b60405180910390f35b6200026360048036038101906200025d91906200218e565b62000817565b005b6200028360048036038101906200027d9190620024da565b62000a33565b005b620002a360048036038101906200029d9190620021ea565b620013cd565b604051620002b29190620022c9565b60405180910390f35b620002d96004803603810190620002d39190620021ea565b62001400565b604051620002e891906200235b565b60405180910390f35b6200030f6004803603810190620003099190620021ea565b62001433565b6040516200031e919062002287565b60405180910390f35b6200034560048036038101906200033f919062002318565b62001466565b604051620003549190620022c9565b60405180910390f35b6200037b600480360381019062000375919062002675565b620014a3565b6040516200038a91906200235b565b60405180910390f35b6200039d620014d6565b604051620003ac9190620026b8565b60405180910390f35b620003d36004803603810190620003cd9190620026d5565b620014dc565b005b620003f36004803603810190620003ed9190620021ea565b62001fe0565b6040516200040291906200285f565b60405180910390f35b620004296004803603810190620004239190620021ea565b62002000565b604051620004389190620026b8565b60405180910390f35b6200045f60048036038101906200045991906200287c565b62002018565b6040516200046e9190620022c9565b60405180910390f35b6200049560048036038101906200048f9190620022e6565b62002067565b604051620004a491906200285f565b60405180910390f35b8273ffffffffffffffffffffffffffffffffffffffff1663a47eb7cf826040518263ffffffff1660e01b8152600401620004e891906200235b565b602060405180830381865afa15801562000506573d6000803e3d6000fd5b505050506040513d601f19601f820116820180604052508101906200052c9190620028f4565b6200056e576040517f08c379a0000000000000000000000000000000000000000000000000000000008152600401620005659062002987565b60405180910390fd5b8273ffffffffffffffffffffffffffffffffffffffff163373ffffffffffffffffffffffffffffffffffffffff1614620005df576040517f08c379a0000000000000000000000000000000000000000000000000000000008152600401620005d690620029f9565b60405180910390fd5b600460008473ffffffffffffffffffffffffffffffffffffffff1673ffffffffffffffffffffffffffffffffffffffff16815260200190815260200160002060009054906101000a900473ffffffffffffffffffffffffffffffffffffffff1673ffffffffffffffffffffffffffffffffffffffff166340c10f1984670de0b6b3a76400008562000671919062002a4a565b6040518363ffffffff1660e01b81526004016200069092919062002aab565b600060405180830381600087803b158015620006ab57600080fd5b505af1158015620006c0573d6000803e3d6000fd5b50505050505050565b60046020528060005260406000206000915054906101000a900473ffffffffffffffffffffffffffffffffffffffff1681565b6000600960008373ffffffffffffffffffffffffffffffffffffffff1673ffffffffffffffffffffffffffffffffffffffff16815260200190815260200160002060009054906101000a900473ffffffffffffffffffffffffffffffffffffffff169050919050565b6001600360008373ffffffffffffffffffffffffffffffffffffffff1673ffffffffffffffffffffffffffffffffffffffff16815260200190815260200160002060006101000a81548160ff02191690831515021790555050565b600a6020528060005260406000206000915054906101000a900473ffffffffffffffffffffffffffffffffffffffff1681565b60008054906101000a900473ffffffffffffffffffffffffffffffffffffffff1681565b8273ffffffffffffffffffffffffffffffffffffffff1663a47eb7cf826040518263ffffffff1660e01b81526004016200085291906200235b565b602060405180830381865afa15801562000870573d6000803e3d6000fd5b505050506040513d601f19601f82011682018060405250810190620008969190620028f4565b620008d8576040517f08c379a0000000000000000000000000000000000000000000000000000000008152600401620008cf9062002987565b60405180910390fd5b8273ffffffffffffffffffffffffffffffffffffffff163373ffffffffffffffffffffffffffffffffffffffff161462000949576040517f08c379a00000000000000000000000000000000000000000000000000000000081526004016200094090620029f9565b60405180910390fd5b600560008473ffffffffffffffffffffffffffffffffffffffff1673ffffffffffffffffffffffffffffffffffffffff16815260200190815260200160002060009054906101000a900473ffffffffffffffffffffffffffffffffffffffff1673ffffffffffffffffffffffffffffffffffffffff166340c10f1984670de0b6b3a764000085620009db919062002a4a565b6040518363ffffffff1660e01b8152600401620009fa92919062002aab565b600060405180830381600087803b15801562000a1557600080fd5b505af115801562000a2a573d6000803e3d6000fd5b50505050505050565b60011515600360003373ffffffffffffffffffffffffffffffffffffffff1673ffffffffffffffffffffffffffffffffffffffff16815260200190815260200160002060009054906101000a900460ff1615151462000ac9576040517f08c379a000000000000000000000000000000000000000000000000000000000815260040162000ac09062002b28565b60405180910390fd5b600c60009054906101000a900473ffffffffffffffffffffffffffffffffffffffff1673ffffffffffffffffffffffffffffffffffffffff1663a0769659858585856040518563ffffffff1660e01b815260040162000b2c949392919062002bcc565b60408051808303816000875af115801562000b4b573d6000803e3d6000fd5b505050506040513d601f19601f8201168201806040525081019062000b71919062002c4c565b600d6000600e60008491906101000a81548173ffffffffffffffffffffffffffffffffffffffff021916908373ffffffffffffffffffffffffffffffffffffffff1602179055508391906101000a81548173ffffffffffffffffffffffffffffffffffffffff021916908373ffffffffffffffffffffffffffffffffffffffff16021790555050506000600d60009054906101000a900473ffffffffffffffffffffffffffffffffffffffff1690506000600e60009054906101000a900473ffffffffffffffffffffffffffffffffffffffff16905060008888600b543386863060405162000c609062002087565b62000c72979695949392919062002cb8565b604051809103906000f08015801562000c8f573d6000803e3d6000fd5b5090508273ffffffffffffffffffffffffffffffffffffffff16633950935182683635c9adc5dea000006040518363ffffffff1660e01b815260040162000cd892919062002d86565b6020604051808303816000875af115801562000cf8573d6000803e3d6000fd5b505050506040513d601f19601f8201168201806040525081019062000d1e9190620028f4565b508273ffffffffffffffffffffffffffffffffffffffff16633950935130683635c9adc5dea000006040518363ffffffff1660e01b815260040162000d6592919062002d86565b6020604051808303816000875af115801562000d85573d6000803e3d6000fd5b505050506040513d601f19601f8201168201806040525081019062000dab9190620028f4565b508173ffffffffffffffffffffffffffffffffffffffff16633950935182683635c9adc5dea000006040518363ffffffff1660e01b815260040162000df292919062002d86565b6020604051808303816000875af115801562000e12573d6000803e3d6000fd5b505050506040513d601f19601f8201168201806040525081019062000e389190620028f4565b508173ffffffffffffffffffffffffffffffffffffffff16633950935130683635c9adc5dea000006040518363ffffffff1660e01b815260040162000e7f92919062002d86565b6020604051808303816000875af115801562000e9f573d6000803e3d6000fd5b505050506040513d601f19601f8201168201806040525081019062000ec59190620028f4565b508273ffffffffffffffffffffffffffffffffffffffff16638749e2bb826040518263ffffffff1660e01b815260040162000f0191906200235b565b600060405180830381600087803b15801562000f1c57600080fd5b505af115801562000f31573d6000803e3d6000fd5b505050508173ffffffffffffffffffffffffffffffffffffffff16638749e2bb826040518263ffffffff1660e01b815260040162000f7091906200235b565b600060405180830381600087803b15801562000f8b57600080fd5b505af115801562000fa0573d6000803e3d6000fd5b5050505082600460008373ffffffffffffffffffffffffffffffffffffffff1673ffffffffffffffffffffffffffffffffffffffff16815260200190815260200160002060006101000a81548173ffffffffffffffffffffffffffffffffffffffff021916908373ffffffffffffffffffffffffffffffffffffffff16021790555081600560008373ffffffffffffffffffffffffffffffffffffffff1673ffffffffffffffffffffffffffffffffffffffff16815260200190815260200160002060006101000a81548173ffffffffffffffffffffffffffffffffffffffff021916908373ffffffffffffffffffffffffffffffffffffffff16021790555033600660008373ffffffffffffffffffffffffffffffffffffffff1673ffffffffffffffffffffffffffffffffffffffff16815260200190815260200160002060006101000a81548173ffffffffffffffffffffffffffffffffffffffff021916908373ffffffffffffffffffffffffffffffffffffffff16021790555033600760008573ffffffffffffffffffffffffffffffffffffffff1673ffffffffffffffffffffffffffffffffffffffff16815260200190815260200160002060006101000a81548173ffffffffffffffffffffffffffffffffffffffff021916908373ffffffffffffffffffffffffffffffffffffffff160217905550806000806101000a81548173ffffffffffffffffffffffffffffffffffffffff021916908373ffffffffffffffffffffffffffffffffffffffff1602179055506001600860008373ffffffffffffffffffffffffffffffffffffffff1673ffffffffffffffffffffffffffffffffffffffff16815260200190815260200160002060006101000a81548160ff0219169083151502179055508173ffffffffffffffffffffffffffffffffffffffff166323b872dd3083683635c9adc5dea000006040518463ffffffff1660e01b81526004016200127c9392919062002db3565b6020604051808303816000875af11580156200129c573d6000803e3d6000fd5b505050506040513d601f19601f82011682018060405250810190620012c29190620028f4565b508273ffffffffffffffffffffffffffffffffffffffff166323b872dd3083683635c9adc5dea000006040518463ffffffff1660e01b81526004016200130b9392919062002db3565b6020604051808303816000875af11580156200132b573d6000803e3d6000fd5b505050506040513d601f19601f82011682018060405250810190620013519190620028f4565b5080600a6000600b54815260200190815260200160002060006101000a81548173ffffffffffffffffffffffffffffffffffffffff021916908373ffffffffffffffffffffffffffffffffffffffff1602179055506001600b6000828254620013bb919062002df0565b92505081905550505050505050505050565b60096020528060005260406000206000915054906101000a900473ffffffffffffffffffffffffffffffffffffffff1681565b60066020528060005260406000206000915054906101000a900473ffffffffffffffffffffffffffffffffffffffff1681565b60056020528060005260406000206000915054906101000a900473ffffffffffffffffffffffffffffffffffffffff1681565b6000600a600083815260200190815260200160002060009054906101000a900473ffffffffffffffffffffffffffffffffffffffff169050919050565b60076020528060005260406000206000915054906101000a900473ffffffffffffffffffffffffffffffffffffffff1681565b600b5481565b600115158773ffffffffffffffffffffffffffffffffffffffff1663a47eb7cf336040518263ffffffff1660e01b81526004016200151b91906200235b565b602060405180830381865afa15801562001539573d6000803e3d6000fd5b505050506040513d601f19601f820116820180604052508101906200155f9190620028f4565b151514620015a4576040517f08c379a00000000000000000000000000000000000000000000000000000000081526004016200159b9062002e9d565b60405180910390fd5b600c60009054906101000a900473ffffffffffffffffffffffffffffffffffffffff1673ffffffffffffffffffffffffffffffffffffffff1663a0769659858585856040518563ffffffff1660e01b815260040162001607949392919062002bcc565b60408051808303816000875af115801562001626573d6000803e3d6000fd5b505050506040513d601f19601f820116820180604052508101906200164c919062002c4c565b600d6000600e60008491906101000a81548173ffffffffffffffffffffffffffffffffffffffff021916908373ffffffffffffffffffffffffffffffffffffffff1602179055508391906101000a81548173ffffffffffffffffffffffffffffffffffffffff021916908373ffffffffffffffffffffffffffffffffffffffff16021790555050506000600d60009054906101000a900473ffffffffffffffffffffffffffffffffffffffff1690506000600e60009054906101000a900473ffffffffffffffffffffffffffffffffffffffff16905060008888600b54338686306040516200173b9062002087565b6200174d979695949392919062002cb8565b604051809103906000f0801580156200176a573d6000803e3d6000fd5b5090508273ffffffffffffffffffffffffffffffffffffffff16633950935182683635c9adc5dea000006040518363ffffffff1660e01b8152600401620017b392919062002d86565b6020604051808303816000875af1158015620017d3573d6000803e3d6000fd5b505050506040513d601f19601f82011682018060405250810190620017f99190620028f4565b508273ffffffffffffffffffffffffffffffffffffffff16633950935130683635c9adc5dea000006040518363ffffffff1660e01b81526004016200184092919062002d86565b6020604051808303816000875af115801562001860573d6000803e3d6000fd5b505050506040513d601f19601f82011682018060405250810190620018869190620028f4565b508173ffffffffffffffffffffffffffffffffffffffff16633950935182683635c9adc5dea000006040518363ffffffff1660e01b8152600401620018cd92919062002d86565b6020604051808303816000875af1158015620018ed573d6000803e3d6000fd5b505050506040513d601f19601f82011682018060405250810190620019139190620028f4565b508173ffffffffffffffffffffffffffffffffffffffff16633950935130683635c9adc5dea000006040518363ffffffff1660e01b81526004016200195a92919062002d86565b6020604051808303816000875af11580156200197a573d6000803e3d6000fd5b505050506040513d601f19601f82011682018060405250810190620019a09190620028f4565b508273ffffffffffffffffffffffffffffffffffffffff16638749e2bb826040518263ffffffff1660e01b8152600401620019dc91906200235b565b600060405180830381600087803b158015620019f757600080fd5b505af115801562001a0c573d6000803e3d6000fd5b505050508173ffffffffffffffffffffffffffffffffffffffff16638749e2bb826040518263ffffffff1660e01b815260040162001a4b91906200235b565b600060405180830381600087803b15801562001a6657600080fd5b505af115801562001a7b573d6000803e3d6000fd5b5050505082600460008373ffffffffffffffffffffffffffffffffffffffff1673ffffffffffffffffffffffffffffffffffffffff16815260200190815260200160002060006101000a81548173ffffffffffffffffffffffffffffffffffffffff021916908373ffffffffffffffffffffffffffffffffffffffff16021790555081600560008373ffffffffffffffffffffffffffffffffffffffff1673ffffffffffffffffffffffffffffffffffffffff16815260200190815260200160002060006101000a81548173ffffffffffffffffffffffffffffffffffffffff021916908373ffffffffffffffffffffffffffffffffffffffff16021790555033600660008373ffffffffffffffffffffffffffffffffffffffff1673ffffffffffffffffffffffffffffffffffffffff16815260200190815260200160002060006101000a81548173ffffffffffffffffffffffffffffffffffffffff021916908373ffffffffffffffffffffffffffffffffffffffff16021790555033600760008573ffffffffffffffffffffffffffffffffffffffff1673ffffffffffffffffffffffffffffffffffffffff16815260200190815260200160002060006101000a81548173ffffffffffffffffffffffffffffffffffffffff021916908373ffffffffffffffffffffffffffffffffffffffff1602179055506001600860008373ffffffffffffffffffffffffffffffffffffffff1673ffffffffffffffffffffffffffffffffffffffff16815260200190815260200160002060006101000a81548160ff021916908315150217905550600160008b73ffffffffffffffffffffffffffffffffffffffff1673ffffffffffffffffffffffffffffffffffffffff168152602001908152602001600020819080600181540180825580915050600190039060005260206000200160009091909190916101000a81548173ffffffffffffffffffffffffffffffffffffffff021916908373ffffffffffffffffffffffffffffffffffffffff1602179055506001600260008c73ffffffffffffffffffffffffffffffffffffffff1673ffffffffffffffffffffffffffffffffffffffff168152602001908152602001600020600082825462001dc1919062002df0565b9250508190555089600960008373ffffffffffffffffffffffffffffffffffffffff1673ffffffffffffffffffffffffffffffffffffffff16815260200190815260200160002060006101000a81548173ffffffffffffffffffffffffffffffffffffffff021916908373ffffffffffffffffffffffffffffffffffffffff1602179055508173ffffffffffffffffffffffffffffffffffffffff166323b872dd3083683635c9adc5dea000006040518463ffffffff1660e01b815260040162001e8e9392919062002db3565b6020604051808303816000875af115801562001eae573d6000803e3d6000fd5b505050506040513d601f19601f8201168201806040525081019062001ed49190620028f4565b508273ffffffffffffffffffffffffffffffffffffffff166323b872dd3083683635c9adc5dea000006040518463ffffffff1660e01b815260040162001f1d9392919062002db3565b6020604051808303816000875af115801562001f3d573d6000803e3d6000fd5b505050506040513d601f19601f8201168201806040525081019062001f639190620028f4565b5080600a6000600b54815260200190815260200160002060006101000a81548173ffffffffffffffffffffffffffffffffffffffff021916908373ffffffffffffffffffffffffffffffffffffffff1602179055506001600b600082825462001fcd919062002df0565b9250508190555050505050505050505050565b60086020528060005260406000206000915054906101000a900460ff1681565b60026020528060005260406000206000915090505481565b600160205281600052604060002081815481106200203557600080fd5b906000526020600020016000915091509054906101000a900473ffffffffffffffffffffffffffffffffffffffff1681565b60036020528060005260406000206000915054906101000a900460ff1681565b615d278062002ec083390190565b6000604051905090565b600080fd5b600080fd5b600073ffffffffffffffffffffffffffffffffffffffff82169050919050565b6000620020d682620020a9565b9050919050565b6000620020ea82620020c9565b9050919050565b620020fc81620020dd565b81146200210857600080fd5b50565b6000813590506200211c81620020f1565b92915050565b6000819050919050565b620021378162002122565b81146200214357600080fd5b50565b60008135905062002157816200212c565b92915050565b6200216881620020c9565b81146200217457600080fd5b50565b60008135905062002188816200215d565b92915050565b600080600060608486031215620021aa57620021a96200209f565b5b6000620021ba868287016200210b565b9350506020620021cd8682870162002146565b9250506040620021e08682870162002177565b9150509250925092565b6000602082840312156200220357620022026200209f565b5b600062002213848285016200210b565b91505092915050565b6000819050919050565b600062002247620022416200223b84620020a9565b6200221c565b620020a9565b9050919050565b60006200225b8262002226565b9050919050565b60006200226f826200224e565b9050919050565b620022818162002262565b82525050565b60006020820190506200229e600083018462002276565b92915050565b6000620022b1826200224e565b9050919050565b620022c381620022a4565b82525050565b6000602082019050620022e06000830184620022b8565b92915050565b600060208284031215620022ff57620022fe6200209f565b5b60006200230f8482850162002177565b91505092915050565b6000602082840312156200233157620023306200209f565b5b6000620023418482850162002146565b91505092915050565b6200235581620020c9565b82525050565b60006020820190506200237260008301846200234a565b92915050565b600080fd5b600080fd5b6000601f19601f8301169050919050565b7f4e487b7100000000000000000000000000000000000000000000000000000000600052604160045260246000fd5b620023cd8262002382565b810181811067ffffffffffffffff82111715620023ef57620023ee62002393565b5b80604052505050565b60006200240462002095565b9050620024128282620023c2565b919050565b600067ffffffffffffffff82111562002435576200243462002393565b5b620024408262002382565b9050602081019050919050565b82818337600083830152505050565b6000620024736200246d8462002417565b620023f8565b9050828152602081018484840111156200249257620024916200237d565b5b6200249f8482856200244d565b509392505050565b600082601f830112620024bf57620024be62002378565b5b8135620024d18482602086016200245c565b91505092915050565b60008060008060008060c08789031215620024fa57620024f96200209f565b5b600087013567ffffffffffffffff8111156200251b576200251a620020a4565b5b6200252989828a01620024a7565b965050602087013567ffffffffffffffff8111156200254d576200254c620020a4565b5b6200255b89828a01620024a7565b955050604087013567ffffffffffffffff8111156200257f576200257e620020a4565b5b6200258d89828a01620024a7565b945050606087013567ffffffffffffffff811115620025b157620025b0620020a4565b5b620025bf89828a01620024a7565b935050608087013567ffffffffffffffff811115620025e357620025e2620020a4565b5b620025f189828a01620024a7565b92505060a087013567ffffffffffffffff811115620026155762002614620020a4565b5b6200262389828a01620024a7565b9150509295509295509295565b60006200263d82620020c9565b9050919050565b6200264f8162002630565b81146200265b57600080fd5b50565b6000813590506200266f8162002644565b92915050565b6000602082840312156200268e576200268d6200209f565b5b60006200269e848285016200265e565b91505092915050565b620026b28162002122565b82525050565b6000602082019050620026cf6000830184620026a7565b92915050565b600080600080600080600060e0888a031215620026f757620026f66200209f565b5b6000620027078a828b016200210b565b975050602088013567ffffffffffffffff8111156200272b576200272a620020a4565b5b620027398a828b01620024a7565b965050604088013567ffffffffffffffff8111156200275d576200275c620020a4565b5b6200276b8a828b01620024a7565b955050606088013567ffffffffffffffff8111156200278f576200278e620020a4565b5b6200279d8a828b01620024a7565b945050608088013567ffffffffffffffff811115620027c157620027c0620020a4565b5b620027cf8a828b01620024a7565b93505060a088013567ffffffffffffffff811115620027f357620027f2620020a4565b5b620028018a828b01620024a7565b92505060c088013567ffffffffffffffff811115620028255762002824620020a4565b5b620028338a828b01620024a7565b91505092959891949750929550565b60008115159050919050565b620028598162002842565b82525050565b60006020820190506200287660008301846200284e565b92915050565b600080604083850312156200289657620028956200209f565b5b6000620028a6858286016200210b565b9250506020620028b98582860162002146565b9150509250929050565b620028ce8162002842565b8114620028da57600080fd5b50565b600081519050620028ee81620028c3565b92915050565b6000602082840312156200290d576200290c6200209f565b5b60006200291d84828501620028dd565b91505092915050565b600082825260208201905092915050565b7f4e6f7420594b206f662073656c65637465642044414f00000000000000000000600082015250565b60006200296f60168362002926565b91506200297c8262002937565b602082019050919050565b60006020820190508181036000830152620029a28162002960565b9050919050565b7f446f6e2774206576656e20747279000000000000000000000000000000000000600082015250565b6000620029e1600e8362002926565b9150620029ee82620029a9565b602082019050919050565b6000602082019050818103600083015262002a1481620029d2565b9050919050565b7f4e487b7100000000000000000000000000000000000000000000000000000000600052601160045260246000fd5b600062002a578262002122565b915062002a648362002122565b9250817fffffffffffffffffffffffffffffffffffffffffffffffffffffffffffffffff048311821515161562002aa05762002a9f62002a1b565b5b828202905092915050565b600060408201905062002ac260008301856200234a565b62002ad16020830184620026a7565b9392505050565b7f4e6f7420616464656420617320612044414f2043726561746f72000000000000600082015250565b600062002b10601a8362002926565b915062002b1d8262002ad8565b602082019050919050565b6000602082019050818103600083015262002b438162002b01565b9050919050565b600081519050919050565b60005b8381101562002b7557808201518184015260208101905062002b58565b8381111562002b85576000848401525b50505050565b600062002b988262002b4a565b62002ba4818562002926565b935062002bb681856020860162002b55565b62002bc18162002382565b840191505092915050565b6000608082019050818103600083015262002be8818762002b8b565b9050818103602083015262002bfe818662002b8b565b9050818103604083015262002c14818562002b8b565b9050818103606083015262002c2a818462002b8b565b905095945050505050565b60008151905062002c46816200215d565b92915050565b6000806040838503121562002c665762002c656200209f565b5b600062002c768582860162002c35565b925050602062002c898582860162002c35565b9150509250929050565b600062002ca0826200224e565b9050919050565b62002cb28162002c93565b82525050565b600060e082019050818103600083015262002cd4818a62002b8b565b9050818103602083015262002cea818962002b8b565b905062002cfb6040830188620026a7565b62002d0a60608301876200234a565b62002d19608083018662002276565b62002d2860a083018562002276565b62002d3760c083018462002ca7565b98975050505050505050565b6000819050919050565b600062002d6e62002d6862002d628462002d43565b6200221c565b62002122565b9050919050565b62002d808162002d4d565b82525050565b600060408201905062002d9d60008301856200234a565b62002dac602083018462002d75565b9392505050565b600060608201905062002dca60008301866200234a565b62002dd960208301856200234a565b62002de8604083018462002d75565b949350505050565b600062002dfd8262002122565b915062002e0a8362002122565b9250827fffffffffffffffffffffffffffffffffffffffffffffffffffffffffffffffff0382111562002e425762002e4162002a1b565b5b828201905092915050565b7f4e6f74206120594b206f6620706172656e742044414f00000000000000000000600082015250565b600062002e8560168362002926565b915062002e928262002e4d565b602082019050919050565b6000602082019050818103600083015262002eb88162002e76565b905091905056fe60806040523480156200001157600080fd5b5060405162005d2738038062005d27833981810160405281019062000037919062000577565b80600360006101000a81548173ffffffffffffffffffffffffffffffffffffffff021916908373ffffffffffffffffffffffffffffffffffffffff16021790555086600090805190602001906200009092919062000200565b50846002819055508560019080519060200190620000b092919062000200565b5082600b60006101000a81548173ffffffffffffffffffffffffffffffffffffffff021916908373ffffffffffffffffffffffffffffffffffffffff16021790555081600a60006101000a81548173ffffffffffffffffffffffffffffffffffffffff021916908373ffffffffffffffffffffffffffffffffffffffff160217905550670de0b6b3a7640000600960008673ffffffffffffffffffffffffffffffffffffffff1673ffffffffffffffffffffffffffffffffffffffff16815260200190815260200160002060008282546200018c919062000697565b92505081905550670de0b6b3a7640000600860008673ffffffffffffffffffffffffffffffffffffffff1673ffffffffffffffffffffffffffffffffffffffff1681526020019081526020016000206000828254620001ec919062000697565b925050819055505050505050505062000758565b8280546200020e9062000723565b90600052602060002090601f0160209004810192826200023257600085556200027e565b82601f106200024d57805160ff19168380011785556200027e565b828001600101855582156200027e579182015b828111156200027d57825182559160200191906001019062000260565b5b5090506200028d919062000291565b5090565b5b80821115620002ac57600081600090555060010162000292565b5090565b6000604051905090565b600080fd5b600080fd5b600080fd5b600080fd5b6000601f19601f8301169050919050565b7f4e487b7100000000000000000000000000000000000000000000000000000000600052604160045260246000fd5b6200031982620002ce565b810181811067ffffffffffffffff821117156200033b576200033a620002df565b5b80604052505050565b600062000350620002b0565b90506200035e82826200030e565b919050565b600067ffffffffffffffff821115620003815762000380620002df565b5b6200038c82620002ce565b9050602081019050919050565b60005b83811015620003b95780820151818401526020810190506200039c565b83811115620003c9576000848401525b50505050565b6000620003e6620003e08462000363565b62000344565b905082815260208101848484011115620004055762000404620002c9565b5b6200041284828562000399565b509392505050565b600082601f830112620004325762000431620002c4565b5b815162000444848260208601620003cf565b91505092915050565b6000819050919050565b62000462816200044d565b81146200046e57600080fd5b50565b600081519050620004828162000457565b92915050565b600073ffffffffffffffffffffffffffffffffffffffff82169050919050565b6000620004b58262000488565b9050919050565b620004c781620004a8565b8114620004d357600080fd5b50565b600081519050620004e781620004bc565b92915050565b6000620004fa82620004a8565b9050919050565b6200050c81620004ed565b81146200051857600080fd5b50565b6000815190506200052c8162000501565b92915050565b60006200053f82620004a8565b9050919050565b620005518162000532565b81146200055d57600080fd5b50565b600081519050620005718162000546565b92915050565b600080600080600080600060e0888a031215620005995762000598620002ba565b5b600088015167ffffffffffffffff811115620005ba57620005b9620002bf565b5b620005c88a828b016200041a565b975050602088015167ffffffffffffffff811115620005ec57620005eb620002bf565b5b620005fa8a828b016200041a565b96505060406200060d8a828b0162000471565b9550506060620006208a828b01620004d6565b9450506080620006338a828b016200051b565b93505060a0620006468a828b016200051b565b92505060c0620006598a828b0162000560565b91505092959891949750929550565b7f4e487b7100000000000000000000000000000000000000000000000000000000600052601160045260246000fd5b6000620006a4826200044d565b9150620006b1836200044d565b9250827fffffffffffffffffffffffffffffffffffffffffffffffffffffffffffffffff03821115620006e957620006e862000668565b5b828201905092915050565b7f4e487b7100000000000000000000000000000000000000000000000000000000600052602260045260246000fd5b600060028204905060018216806200073c57607f821691505b602082108103620007525762000751620006f4565b5b50919050565b6155bf80620007686000396000f3fe608060405234801561001057600080fd5b506004361061025e5760003560e01c80638a19ab3511610146578063c1bff3e0116100c3578063dd3bf85c11610087578063dd3bf85c146106d2578063e5c28c90146106f0578063e937688214610720578063f08c03bc1461073e578063f70e51a71461075a578063f9b8a27a146107785761025e565b8063c1bff3e01461061c578063cf5265d814610638578063d25129c414610642578063d8c6bc2114610672578063d978ffba146106a25761025e565b8063a38b39d41161010a578063a38b39d41461057a578063a44b21ae14610596578063a47eb7cf146105b2578063a9a2a4a3146105e2578063bdf52c22146106125761025e565b80638a19ab35146104c45780638f7c59d0146104e05780639d92c108146105105780639f2524ee1461052e578063a2ded9501461055e5761025e565b8063451abcec116101df57806364944d4d116101a357806364944d4d1461042c57806371df56051461043657806375fd8377146104665780637b93e652146104825780637e11a5561461048c5780638661fa70146104a85761025e565b8063451abcec146103985780634a9f1575146103b65780634b4967e8146103c0578063560d09b6146103de57806362b25fc61461040e5761025e565b806323ee2c831161022657806323ee2c831461030a5780632ab09d14146103265780632c14ed1714610344578063339a9e591461036057806342b9d7e41461037c5761025e565b8063013cf08b1461026357806307e25f271461029a57806310742870146102b6578063114d7756146102d257806314e72f43146102ee575b600080fd5b61027d60048036038101906102789190613d58565b610794565b604051610291989796959493929190613ee5565b60405180910390f35b6102b460048036038101906102af9190613d58565b6109a1565b005b6102d060048036038101906102cb9190613fa4565b6109e3565b005b6102ec60048036038101906102e79190613fa4565b610acd565b005b61030860048036038101906103039190613fd1565b610b71565b005b610324600480360381019061031f9190613fd1565b610c26565b005b61032e610d2f565b60405161033b9190614011565b60405180910390f35b61035e60048036038101906103599190613d58565b610d35565b005b61037a60048036038101906103759190613fa4565b610d77565b005b61039660048036038101906103919190613d58565b610e1b565b005b6103a0610fd9565b6040516103ad9190614138565b60405180910390f35b6103be611114565b005b6103c86111f2565b6040516103d59190614011565b60405180910390f35b6103f860048036038101906103f39190613d58565b6111fc565b6040516104059190614011565b60405180910390f35b610416611225565b6040516104239190614138565b60405180910390f35b610434611360565b005b610450600480360381019061044b9190613fa4565b61143e565b60405161045d9190614011565b60405180910390f35b610480600480360381019061047b9190613fd1565b611456565b005b61048a6115db565b005b6104a660048036038101906104a19190613fd1565b61167c565b005b6104c260048036038101906104bd9190614438565b611785565b005b6104de60048036038101906104d99190613d58565b611ded565b005b6104fa60048036038101906104f59190613d58565b611f98565b6040516105079190614138565b60405180910390f35b61051861211f565b60405161052591906144c3565b60405180910390f35b61054860048036038101906105439190613fd1565b6121ad565b6040516105559190614500565b60405180910390f35b61057860048036038101906105739190613d58565b6121dc565b005b610594600480360381019061058f9190613fa4565b61221e565b005b6105b060048036038101906105ab919061451b565b612308565b005b6105cc60048036038101906105c79190613fa4565b612a6d565b6040516105d99190614500565b60405180910390f35b6105fc60048036038101906105f79190613fd1565b612e42565b6040516106099190614011565b60405180910390f35b61061a612e67565b005b610636600480360381019061063191906145ba565b612f08565b005b610640613239565b005b61065c60048036038101906106579190613d58565b61344a565b6040516106699190614775565b60405180910390f35b61068c60048036038101906106879190613fa4565b613545565b6040516106999190614011565b60405180910390f35b6106bc60048036038101906106b79190613d58565b61355d565b6040516106c991906144c3565b60405180910390f35b6106da61360b565b6040516106e791906147f6565b60405180910390f35b61070a60048036038101906107059190613fd1565b613631565b6040516107179190614500565b60405180910390f35b610728613660565b60405161073591906144c3565b60405180910390f35b61075860048036038101906107539190613fd1565b6136ee565b005b610762613873565b60405161076f91906147f6565b60405180910390f35b610792600480360381019061078d9190613fd1565b613899565b005b60046020528060005260406000206000915090508060000154908060010160009054906101000a900473ffffffffffffffffffffffffffffffffffffffff16908060020180546107e390614840565b80601f016020809104026020016040519081016040528092919081815260200182805461080f90614840565b801561085c5780601f106108315761010080835404028352916020019161085c565b820191906000526020600020905b81548152906001019060200180831161083f57829003601f168201915b50505050509080600301805461087190614840565b80601f016020809104026020016040519081016040528092919081815260200182805461089d90614840565b80156108ea5780601f106108bf576101008083540402835291602001916108ea565b820191906000526020600020905b8154815290600101906020018083116108cd57829003601f168201915b5050505050908060040154908060070160009054906101000a900460ff169080600801549080600901805461091e90614840565b80601f016020809104026020016040519081016040528092919081815260200182805461094a90614840565b80156109975780601f1061096c57610100808354040283529160200191610997565b820191906000526020600020905b81548152906001019060200180831161097a57829003601f168201915b5050505050905088565b60016004600083815260200190815260200160002060070160006101000a81548160ff021916908360028111156109db576109da613e6e565b5b021790555050565b6109ec33612a6d565b610a2b576040517f08c379a0000000000000000000000000000000000000000000000000000000008152600401610a22906148bd565b60405180910390fd5b600b60009054906101000a900473ffffffffffffffffffffffffffffffffffffffff1673ffffffffffffffffffffffffffffffffffffffff16635dc73582826040518263ffffffff1660e01b8152600401610a8691906148dd565b6020604051808303816000875af1158015610aa5573d6000803e3d6000fd5b505050506040513d601f19601f82011682018060405250810190610ac99190614924565b5050565b600b60009054906101000a900473ffffffffffffffffffffffffffffffffffffffff1673ffffffffffffffffffffffffffffffffffffffff1663b1d1ea9782336040518363ffffffff1660e01b8152600401610b2a929190614951565b6020604051808303816000875af1158015610b49573d6000803e3d6000fd5b505050506040513d601f19601f82011682018060405250810190610b6d9190614924565b5050565b610b7a33612a6d565b610bb9576040517f08c379a0000000000000000000000000000000000000000000000000000000008152600401610bb0906149c6565b60405180910390fd5b670de0b6b3a764000081610bcd9190614a15565b600960008473ffffffffffffffffffffffffffffffffffffffff1673ffffffffffffffffffffffffffffffffffffffff1681526020019081526020016000206000828254610c1b9190614a6f565b925050819055505050565b610c2f33612a6d565b610c6e576040517f08c379a0000000000000000000000000000000000000000000000000000000008152600401610c65906149c6565b60405180910390fd5b600a60009054906101000a900473ffffffffffffffffffffffffffffffffffffffff1673ffffffffffffffffffffffffffffffffffffffff16638da9e67783670de0b6b3a764000084610cc19190614a15565b6040518363ffffffff1660e01b8152600401610cde929190614ac5565b6020604051808303816000875af1158015610cfd573d6000803e3d6000fd5b505050506040513d601f19601f82011682018060405250810190610d219190614924565b50610d2b8161394e565b5050565b600c5481565b60026004600083815260200190815260200160002060070160006101000a81548160ff02191690836002811115610d6f57610d6e613e6e565b5b021790555050565b600a60009054906101000a900473ffffffffffffffffffffffffffffffffffffffff1673ffffffffffffffffffffffffffffffffffffffff1663b1d1ea9782336040518363ffffffff1660e01b8152600401610dd4929190614951565b6020604051808303816000875af1158015610df3573d6000803e3d6000fd5b505050506040513d601f19601f82011682018060405250810190610e179190614924565b5050565b670de0b6b3a764000081610e2f9190614a15565b600860003373ffffffffffffffffffffffffffffffffffffffff1673ffffffffffffffffffffffffffffffffffffffff168152602001908152602001600020541015610eb0576040517f08c379a0000000000000000000000000000000000000000000000000000000008152600401610ea790614b3a565b60405180910390fd5b670de0b6b3a764000081610ec49190614a15565b600860003373ffffffffffffffffffffffffffffffffffffffff1673ffffffffffffffffffffffffffffffffffffffff1681526020019081526020016000206000828254610f129190614b5a565b92505081905550600a60009054906101000a900473ffffffffffffffffffffffffffffffffffffffff1673ffffffffffffffffffffffffffffffffffffffff16638da9e67733670de0b6b3a764000084610f6c9190614a15565b6040518363ffffffff1660e01b8152600401610f89929190614ac5565b6020604051808303816000875af1158015610fa8573d6000803e3d6000fd5b505050506040513d601f19601f82011682018060405250810190610fcc9190614924565b50610fd68161394e565b50565b60606000600c5467ffffffffffffffff811115610ff957610ff861415f565b5b60405190808252806020026020018201604052801561102c57816020015b60608152602001906001900390816110175790505b50905060005b600c5481101561110c5760046000828152602001908152602001600020600301805461105d90614840565b80601f016020809104026020016040519081016040528092919081815260200182805461108990614840565b80156110d65780601f106110ab576101008083540402835291602001916110d6565b820191906000526020600020905b8154815290600101906020018083116110b957829003601f168201915b50505050508282815181106110ee576110ed614b8e565b5b6020026020010181905250808061110490614bbd565b915050611032565b508091505090565b61111d33612a6d565b61115c576040517f08c379a0000000000000000000000000000000000000000000000000000000008152600401611153906148bd565b60405180910390fd5b600b60009054906101000a900473ffffffffffffffffffffffffffffffffffffffff1673ffffffffffffffffffffffffffffffffffffffff1663c3b639b66040518163ffffffff1660e01b81526004016020604051808303816000875af11580156111cb573d6000803e3d6000fd5b505050506040513d601f19601f820116820180604052508101906111ef9190614924565b50565b6000600254905090565b600080600090506004600084815260200190815260200160002060080154905080915050919050565b60606000600c5467ffffffffffffffff8111156112455761124461415f565b5b60405190808252806020026020018201604052801561127857816020015b60608152602001906001900390816112635790505b50905060005b600c54811015611358576004600082815260200190815260200160002060020180546112a990614840565b80601f01602080910402602001604051908101604052809291908181526020018280546112d590614840565b80156113225780601f106112f757610100808354040283529160200191611322565b820191906000526020600020905b81548152906001019060200180831161130557829003601f168201915b505050505082828151811061133a57611339614b8e565b5b6020026020010181905250808061135090614bbd565b91505061127e565b508091505090565b61136933612a6d565b6113a8576040517f08c379a000000000000000000000000000000000000000000000000000000000815260040161139f906148bd565b60405180910390fd5b600a60009054906101000a900473ffffffffffffffffffffffffffffffffffffffff1673ffffffffffffffffffffffffffffffffffffffff1663c3b639b66040518163ffffffff1660e01b81526004016020604051808303816000875af1158015611417573d6000803e3d6000fd5b505050506040513d601f19601f8201168201806040525081019061143b9190614924565b50565b60096020528060005260406000206000915090505481565b600b60009054906101000a900473ffffffffffffffffffffffffffffffffffffffff1673ffffffffffffffffffffffffffffffffffffffff1663a95bbced836040518263ffffffff1660e01b81526004016114b191906148dd565b602060405180830381865afa1580156114ce573d6000803e3d6000fd5b505050506040513d601f19601f820116820180604052508101906114f29190614c1a565b811115611534576040517f08c379a000000000000000000000000000000000000000000000000000000000815260040161152b90614c93565b60405180910390fd5b600b60009054906101000a900473ffffffffffffffffffffffffffffffffffffffff1673ffffffffffffffffffffffffffffffffffffffff1663490169348333846040518463ffffffff1660e01b815260040161159393929190614cb3565b6020604051808303816000875af11580156115b2573d6000803e3d6000fd5b505050506040513d601f19601f820116820180604052508101906115d69190614924565b505050565b600a60009054906101000a900473ffffffffffffffffffffffffffffffffffffffff1673ffffffffffffffffffffffffffffffffffffffff1663396473f7336040518263ffffffff1660e01b815260040161163691906148dd565b6020604051808303816000875af1158015611655573d6000803e3d6000fd5b505050506040513d601f19601f820116820180604052508101906116799190614924565b50565b61168533612a6d565b6116c4576040517f08c379a00000000000000000000000000000000000000000000000000000000081526004016116bb906149c6565b60405180910390fd5b600b60009054906101000a900473ffffffffffffffffffffffffffffffffffffffff1673ffffffffffffffffffffffffffffffffffffffff16638da9e67783670de0b6b3a7640000846117179190614a15565b6040518363ffffffff1660e01b8152600401611734929190614ac5565b6020604051808303816000875af1158015611753573d6000803e3d6000fd5b505050506040513d601f19601f820116820180604052508101906117779190614924565b50611781816139e2565b5050565b600060046000858152602001908152602001600020905060001515600560003373ffffffffffffffffffffffffffffffffffffffff1673ffffffffffffffffffffffffffffffffffffffff168152602001908152602001600020600086815260200190815260200160002060009054906101000a900460ff16151514611840576040517f08c379a000000000000000000000000000000000000000000000000000000000815260040161183790614d36565b60405180910390fd5b6000600a60009054906101000a900473ffffffffffffffffffffffffffffffffffffffff1673ffffffffffffffffffffffffffffffffffffffff166370a08231336040518263ffffffff1660e01b815260040161189d91906148dd565b602060405180830381865afa1580156118ba573d6000803e3d6000fd5b505050506040513d601f19601f820116820180604052508101906118de9190614c1a565b1161191e576040517f08c379a000000000000000000000000000000000000000000000000000000000815260040161191590614dc8565b60405180910390fd5b62093a8081600401546119319190614a6f565b421115611973576040517f08c379a000000000000000000000000000000000000000000000000000000000815260040161196a90614e34565b60405180910390fd5b60028081111561198657611985613e6e565b5b6004600086815260200190815260200160002060070160009054906101000a900460ff1660028111156119bc576119bb613e6e565b5b146119fc576040517f08c379a00000000000000000000000000000000000000000000000000000000081526004016119f390614ea0565b60405180910390fd5b6000805b8351811015611a4457838181518110611a1c57611a1b614b8e565b5b602002602001015182611a2f9190614a6f565b91508080611a3c90614bbd565b915050611a00565b508160080154811115611a5657600080fd5b6000805b8360050180549050811015611b725760005b8651811015611b5e57611b41856005018381548110611a8e57611a8d614b8e565b5b906000526020600020018054611aa390614840565b80601f0160208091040260200160405190810160405280929190818152602001828054611acf90614840565b8015611b1c5780601f10611af157610100808354040283529160200191611b1c565b820191906000526020600020905b815481529060010190602001808311611aff57829003601f168201915b5050505050888381518110611b3457611b33614b8e565b5b6020026020010151613a76565b15611b4b57600192505b8080611b5690614bbd565b915050611a6c565b508080611b6a90614bbd565b915050611a5a565b506001151581151514611b8457600080fd5b60005b8360050180549050811015611cec5760005b8651811015611cd857611c6e856005018381548110611bbb57611bba614b8e565b5b906000526020600020018054611bd090614840565b80601f0160208091040260200160405190810160405280929190818152602001828054611bfc90614840565b8015611c495780601f10611c1e57610100808354040283529160200191611c49565b820191906000526020600020905b815481529060010190602001808311611c2c57829003601f168201915b5050505050888381518110611c6157611c60614b8e565b5b6020026020010151613a76565b15611cc557858181518110611c8657611c85614b8e565b5b6020026020010151856006018381548110611ca457611ca3614b8e565b5b906000526020600020016000828254611cbd9190614a6f565b925050819055505b8080611cd090614bbd565b915050611b99565b508080611ce490614bbd565b915050611b87565b506001600560003373ffffffffffffffffffffffffffffffffffffffff1673ffffffffffffffffffffffffffffffffffffffff168152602001908152602001600020600088815260200190815260200160002060006101000a81548160ff021916908315150217905550600a60009054906101000a900473ffffffffffffffffffffffffffffffffffffffff1673ffffffffffffffffffffffffffffffffffffffff1663fc13d51887336040518363ffffffff1660e01b8152600401611db3929190614ec0565b600060405180830381600087803b158015611dcd57600080fd5b505af1158015611de1573d6000803e3d6000fd5b50505050505050505050565b80600960003373ffffffffffffffffffffffffffffffffffffffff1673ffffffffffffffffffffffffffffffffffffffff168152602001908152602001600020541015611e6f576040517f08c379a0000000000000000000000000000000000000000000000000000000008152600401611e6690614b3a565b60405180910390fd5b670de0b6b3a764000081611e839190614a15565b600960003373ffffffffffffffffffffffffffffffffffffffff1673ffffffffffffffffffffffffffffffffffffffff1681526020019081526020016000206000828254611ed19190614b5a565b92505081905550600b60009054906101000a900473ffffffffffffffffffffffffffffffffffffffff1673ffffffffffffffffffffffffffffffffffffffff16638da9e67733670de0b6b3a764000084611f2b9190614a15565b6040518363ffffffff1660e01b8152600401611f48929190614ac5565b6020604051808303816000875af1158015611f67573d6000803e3d6000fd5b505050506040513d601f19601f82011682018060405250810190611f8b9190614924565b50611f95816139e2565b50565b60606000600460008481526020019081526020016000206005018054905067ffffffffffffffff811115611fcf57611fce61415f565b5b60405190808252806020026020018201604052801561200257816020015b6060815260200190600190039081611fed5790505b50905060005b60046000858152602001908152602001600020600501805490508110156121155760046000858152602001908152602001600020600501818154811061205157612050614b8e565b5b90600052602060002001805461206690614840565b80601f016020809104026020016040519081016040528092919081815260200182805461209290614840565b80156120df5780601f106120b4576101008083540402835291602001916120df565b820191906000526020600020905b8154815290600101906020018083116120c257829003601f168201915b50505050508282815181106120f7576120f6614b8e565b5b6020026020010181905250808061210d90614bbd565b915050612008565b5080915050919050565b6001805461212c90614840565b80601f016020809104026020016040519081016040528092919081815260200182805461215890614840565b80156121a55780601f1061217a576101008083540402835291602001916121a5565b820191906000526020600020905b81548152906001019060200180831161218857829003601f168201915b505050505081565b60056020528160005260406000206020528060005260406000206000915091509054906101000a900460ff1681565b60006004600083815260200190815260200160002060070160006101000a81548160ff0219169083600281111561221657612215613e6e565b5b021790555050565b61222733612a6d565b612266576040517f08c379a000000000000000000000000000000000000000000000000000000000815260040161225d906148bd565b60405180910390fd5b600a60009054906101000a900473ffffffffffffffffffffffffffffffffffffffff1673ffffffffffffffffffffffffffffffffffffffff16635dc73582826040518263ffffffff1660e01b81526004016122c191906148dd565b6020604051808303816000875af11580156122e0573d6000803e3d6000fd5b505050506040513d601f19601f820116820180604052508101906123049190614924565b5050565b600060046000868152602001908152602001600020905060001515600560003373ffffffffffffffffffffffffffffffffffffffff1673ffffffffffffffffffffffffffffffffffffffff168152602001908152602001600020600087815260200190815260200160002060009054906101000a900460ff161515146123c3576040517f08c379a00000000000000000000000000000000000000000000000000000000081526004016123ba90614d36565b60405180910390fd5b670de0b6b3a7640000600a60009054906101000a900473ffffffffffffffffffffffffffffffffffffffff1673ffffffffffffffffffffffffffffffffffffffff166370a08231336040518263ffffffff1660e01b815260040161242791906148dd565b602060405180830381865afa158015612444573d6000803e3d6000fd5b505050506040513d601f19601f820116820180604052508101906124689190614c1a565b6124729190614f18565b8211156124b4576040517f08c379a00000000000000000000000000000000000000000000000000000000081526004016124ab90614fbb565b60405180910390fd5b6000600a60009054906101000a900473ffffffffffffffffffffffffffffffffffffffff1673ffffffffffffffffffffffffffffffffffffffff166370a08231336040518263ffffffff1660e01b815260040161251191906148dd565b602060405180830381865afa15801561252e573d6000803e3d6000fd5b505050506040513d601f19601f820116820180604052508101906125529190614c1a565b11612592576040517f08c379a00000000000000000000000000000000000000000000000000000000081526004016125899061504d565b60405180910390fd5b62093a8081600401546125a59190614a6f565b4211156125e7576040517f08c379a00000000000000000000000000000000000000000000000000000000081526004016125de90614e34565b60405180910390fd5b6002808111156125fa576125f9613e6e565b5b6004600087815260200190815260200160002060070160009054906101000a900460ff1660028111156126305761262f613e6e565b5b14612670576040517f08c379a000000000000000000000000000000000000000000000000000000000815260040161266790614ea0565b60405180910390fd5b6000805b84518110156126b8578481815181106126905761268f614b8e565b5b6020026020010151826126a39190614a6f565b915080806126b090614bbd565b915050612674565b5081600801548111156126ca57600080fd5b6000805b83600501805490508110156127e65760005b87518110156127d2576127b585600501838154811061270257612701614b8e565b5b90600052602060002001805461271790614840565b80601f016020809104026020016040519081016040528092919081815260200182805461274390614840565b80156127905780601f1061276557610100808354040283529160200191612790565b820191906000526020600020905b81548152906001019060200180831161277357829003601f168201915b50505050508983815181106127a8576127a7614b8e565b5b6020026020010151613a76565b156127bf57600192505b80806127ca90614bbd565b9150506126e0565b5080806127de90614bbd565b9150506126ce565b5060011515811515146127f857600080fd5b60005b836005018054905081101561296b5760005b8751811015612957576128e285600501838154811061282f5761282e614b8e565b5b90600052602060002001805461284490614840565b80601f016020809104026020016040519081016040528092919081815260200182805461287090614840565b80156128bd5780601f10612892576101008083540402835291602001916128bd565b820191906000526020600020905b8154815290600101906020018083116128a057829003601f168201915b50505050508983815181106128d5576128d4614b8e565b5b6020026020010151613a76565b1561294457858782815181106128fb576128fa614b8e565b5b602002602001015161290d9190614a15565b85600601838154811061292357612922614b8e565b5b90600052602060002001600082825461293c9190614a6f565b925050819055505b808061294f90614bbd565b91505061280d565b50808061296390614bbd565b9150506127fb565b506001600560003373ffffffffffffffffffffffffffffffffffffffff1673ffffffffffffffffffffffffffffffffffffffff168152602001908152602001600020600089815260200190815260200160002060006101000a81548160ff021916908315150217905550600a60009054906101000a900473ffffffffffffffffffffffffffffffffffffffff1673ffffffffffffffffffffffffffffffffffffffff1663fc13d51888336040518363ffffffff1660e01b8152600401612a32929190614ec0565b600060405180830381600087803b158015612a4c57600080fd5b505af1158015612a60573d6000803e3d6000fd5b5050505050505050505050565b60006001600b60009054906101000a900473ffffffffffffffffffffffffffffffffffffffff1673ffffffffffffffffffffffffffffffffffffffff166370a08231846040518263ffffffff1660e01b8152600401612acc91906148dd565b602060405180830381865afa158015612ae9573d6000803e3d6000fd5b505050506040513d601f19601f82011682018060405250810190612b0d9190614c1a565b10612b1b5760019050612e3d565b6000600360009054906101000a900473ffffffffffffffffffffffffffffffffffffffff1673ffffffffffffffffffffffffffffffffffffffff16637a57c0ff6002546040518263ffffffff1660e01b8152600401612b7a9190614011565b602060405180830381865afa158015612b97573d6000803e3d6000fd5b505050506040513d601f19601f82011682018060405250810190612bbb91906150ab565b90506000600360009054906101000a900473ffffffffffffffffffffffffffffffffffffffff1673ffffffffffffffffffffffffffffffffffffffff16632c36b4b4836040518263ffffffff1660e01b8152600401612c1a91906150f9565b602060405180830381865afa158015612c37573d6000803e3d6000fd5b505050506040513d601f19601f82011682018060405250810190612c5b91906150ab565b905060005b600073ffffffffffffffffffffffffffffffffffffffff168273ffffffffffffffffffffffffffffffffffffffff1614612e3657670de0b6b3a76400008273ffffffffffffffffffffffffffffffffffffffff1663f70e51a76040518163ffffffff1660e01b8152600401602060405180830381865afa158015612ce8573d6000803e3d6000fd5b505050506040513d601f19601f82011682018060405250810190612d0c9190615152565b73ffffffffffffffffffffffffffffffffffffffff166370a08231876040518263ffffffff1660e01b8152600401612d4491906148dd565b602060405180830381865afa158015612d61573d6000803e3d6000fd5b505050506040513d601f19601f82011682018060405250810190612d859190614c1a565b10612d935760019050612e36565b600360009054906101000a900473ffffffffffffffffffffffffffffffffffffffff1673ffffffffffffffffffffffffffffffffffffffff16632c36b4b4836040518263ffffffff1660e01b8152600401612dee91906150f9565b602060405180830381865afa158015612e0b573d6000803e3d6000fd5b505050506040513d601f19601f82011682018060405250810190612e2f91906150ab565b9150612c60565b8093505050505b919050565b6007602052816000526040600020602052806000526040600020600091509150505481565b600b60009054906101000a900473ffffffffffffffffffffffffffffffffffffffff1673ffffffffffffffffffffffffffffffffffffffff1663396473f7336040518263ffffffff1660e01b8152600401612ec291906148dd565b6020604051808303816000875af1158015612ee1573d6000803e3d6000fd5b505050506040513d601f19601f82011682018060405250810190612f059190614924565b50565b612f1133612a6d565b612f50576040517f08c379a0000000000000000000000000000000000000000000000000000000008152600401612f47906151f1565b60405180910390fd5b606060008203612f97576040518060400160405280600681526020017f6e6f726d616c00000000000000000000000000000000000000000000000000008152509050612fd9565b60018203612fd8576040518060400160405280600881526020017f776569676874656400000000000000000000000000000000000000000000000081525090505b5b604051806101400160405280600c5481526020013373ffffffffffffffffffffffffffffffffffffffff16815260200188815260200187815260200142815260200186815260200185815260200160028081111561303a57613039613e6e565b5b81526020018481526020018281525060046000600c5481526020019081526020016000206000820151816000015560208201518160010160006101000a81548173ffffffffffffffffffffffffffffffffffffffff021916908373ffffffffffffffffffffffffffffffffffffffff16021790555060408201518160020190805190602001906130cb929190613b5a565b5060608201518160030190805190602001906130e8929190613b5a565b506080820151816004015560a082015181600501908051906020019061310f929190613be0565b5060c082015181600601908051906020019061312c929190613c40565b5060e08201518160070160006101000a81548160ff0219169083600281111561315857613157613e6e565b5b02179055506101008201518160080155610120820151816009019080519060200190613185929190613b5a565b50905050600c600081548092919061319c90614bbd565b9190505550600a60009054906101000a900473ffffffffffffffffffffffffffffffffffffffff1673ffffffffffffffffffffffffffffffffffffffff1663a19dea70600c546040518263ffffffff1660e01b81526004016131fe9190614011565b600060405180830381600087803b15801561321857600080fd5b505af115801561322c573d6000803e3d6000fd5b5050505050505050505050565b60005b600c548110156134475760028081111561325957613258613e6e565b5b6004600083815260200190815260200160002060070160009054906101000a900460ff16600281111561328f5761328e613e6e565b5b1461332457600a60009054906101000a900473ffffffffffffffffffffffffffffffffffffffff1673ffffffffffffffffffffffffffffffffffffffff1663ff2b5fa182336040518363ffffffff1660e01b81526004016132f1929190614ec0565b600060405180830381600087803b15801561330b57600080fd5b505af115801561331f573d6000803e3d6000fd5b505050505b7f4c42442933829b3de657efc6a23fbe895206dd2453c5a00c3e26d2e969f8272760046000838152602001908152602001600020600001546004600084815260200190815260200160002060010160009054906101000a900473ffffffffffffffffffffffffffffffffffffffff16600460008581526020019081526020016000206002016004600086815260200190815260200160002060030160046000878152602001908152602001600020600501600460008881526020019081526020016000206006016004600089815260200190815260200160002060080154600460008a815260200190815260200160002060090160405161342c9897969594939291906154b1565b60405180910390a1808061343f90614bbd565b91505061323c565b50565b60606000600460008481526020019081526020016000206006018054905067ffffffffffffffff8111156134815761348061415f565b5b6040519080825280602002602001820160405280156134af5781602001602082028036833780820191505090505b50905060005b600460008581526020019081526020016000206006018054905081101561353b576004600085815260200190815260200160002060060181815481106134fe576134fd614b8e565b5b906000526020600020015482828151811061351c5761351b614b8e565b5b602002602001018181525050808061353390614bbd565b9150506134b5565b5080915050919050565b60086020528060005260406000206000915090505481565b6060600060046000848152602001908152602001600020600901805461358290614840565b80601f01602080910402602001604051908101604052809291908181526020018280546135ae90614840565b80156135fb5780601f106135d0576101008083540402835291602001916135fb565b820191906000526020600020905b8154815290600101906020018083116135de57829003601f168201915b5050505050905080915050919050565b600a60009054906101000a900473ffffffffffffffffffffffffffffffffffffffff1681565b60066020528160005260406000206020528060005260406000206000915091509054906101000a900460ff1681565b6000805461366d90614840565b80601f016020809104026020016040519081016040528092919081815260200182805461369990614840565b80156136e65780601f106136bb576101008083540402835291602001916136e6565b820191906000526020600020905b8154815290600101906020018083116136c957829003601f168201915b505050505081565b600a60009054906101000a900473ffffffffffffffffffffffffffffffffffffffff1673ffffffffffffffffffffffffffffffffffffffff1663a95bbced836040518263ffffffff1660e01b815260040161374991906148dd565b602060405180830381865afa158015613766573d6000803e3d6000fd5b505050506040513d601f19601f8201168201806040525081019061378a9190614c1a565b8111156137cc576040517f08c379a00000000000000000000000000000000000000000000000000000000081526004016137c390614c93565b60405180910390fd5b600a60009054906101000a900473ffffffffffffffffffffffffffffffffffffffff1673ffffffffffffffffffffffffffffffffffffffff1663490169348333846040518463ffffffff1660e01b815260040161382b93929190614cb3565b6020604051808303816000875af115801561384a573d6000803e3d6000fd5b505050506040513d601f19601f8201168201806040525081019061386e9190614924565b505050565b600b60009054906101000a900473ffffffffffffffffffffffffffffffffffffffff1681565b6138a233612a6d565b6138e1576040517f08c379a00000000000000000000000000000000000000000000000000000000081526004016138d8906149c6565b60405180910390fd5b670de0b6b3a7640000816138f59190614a15565b600860008473ffffffffffffffffffffffffffffffffffffffff1673ffffffffffffffffffffffffffffffffffffffff16815260200190815260200160002060008282546139439190614a6f565b925050819055505050565b600360009054906101000a900473ffffffffffffffffffffffffffffffffffffffff1673ffffffffffffffffffffffffffffffffffffffff166350ee8e8f3083336040518463ffffffff1660e01b81526004016139ad93929190615552565b600060405180830381600087803b1580156139c757600080fd5b505af11580156139db573d6000803e3d6000fd5b5050505050565b600360009054906101000a900473ffffffffffffffffffffffffffffffffffffffff1673ffffffffffffffffffffffffffffffffffffffff1663205cdcff3083336040518463ffffffff1660e01b8152600401613a4193929190615552565b600060405180830381600087803b158015613a5b57600080fd5b505af1158015613a6f573d6000803e3d6000fd5b5050505050565b600080839050600083905060008251905081518114613a9b5760009350505050613b54565b60005b81811015613b4b57828181518110613ab957613ab8614b8e565b5b602001015160f81c60f81b7effffffffffffffffffffffffffffffffffffffffffffffffffffffffffffff1916848281518110613af957613af8614b8e565b5b602001015160f81c60f81b7effffffffffffffffffffffffffffffffffffffffffffffffffffffffffffff191614613b38576000945050505050613b54565b8080613b4390614bbd565b915050613a9e565b50600193505050505b92915050565b828054613b6690614840565b90600052602060002090601f016020900481019282613b885760008555613bcf565b82601f10613ba157805160ff1916838001178555613bcf565b82800160010185558215613bcf579182015b82811115613bce578251825591602001919060010190613bb3565b5b509050613bdc9190613c8d565b5090565b828054828255906000526020600020908101928215613c2f579160200282015b82811115613c2e578251829080519060200190613c1e929190613b5a565b5091602001919060010190613c00565b5b509050613c3c9190613caa565b5090565b828054828255906000526020600020908101928215613c7c579160200282015b82811115613c7b578251825591602001919060010190613c60565b5b509050613c899190613c8d565b5090565b5b80821115613ca6576000816000905550600101613c8e565b5090565b5b80821115613cca5760008181613cc19190613cce565b50600101613cab565b5090565b508054613cda90614840565b6000825580601f10613cec5750613d0b565b601f016020900490600052602060002090810190613d0a9190613c8d565b5b50565b6000604051905090565b600080fd5b600080fd5b6000819050919050565b613d3581613d22565b8114613d4057600080fd5b50565b600081359050613d5281613d2c565b92915050565b600060208284031215613d6e57613d6d613d18565b5b6000613d7c84828501613d43565b91505092915050565b613d8e81613d22565b82525050565b600073ffffffffffffffffffffffffffffffffffffffff82169050919050565b6000613dbf82613d94565b9050919050565b613dcf81613db4565b82525050565b600081519050919050565b600082825260208201905092915050565b60005b83811015613e0f578082015181840152602081019050613df4565b83811115613e1e576000848401525b50505050565b6000601f19601f8301169050919050565b6000613e4082613dd5565b613e4a8185613de0565b9350613e5a818560208601613df1565b613e6381613e24565b840191505092915050565b7f4e487b7100000000000000000000000000000000000000000000000000000000600052602160045260246000fd5b60038110613eae57613ead613e6e565b5b50565b6000819050613ebf82613e9d565b919050565b6000613ecf82613eb1565b9050919050565b613edf81613ec4565b82525050565b600061010082019050613efb600083018b613d85565b613f08602083018a613dc6565b8181036040830152613f1a8189613e35565b90508181036060830152613f2e8188613e35565b9050613f3d6080830187613d85565b613f4a60a0830186613ed6565b613f5760c0830185613d85565b81810360e0830152613f698184613e35565b90509998505050505050505050565b613f8181613db4565b8114613f8c57600080fd5b50565b600081359050613f9e81613f78565b92915050565b600060208284031215613fba57613fb9613d18565b5b6000613fc884828501613f8f565b91505092915050565b60008060408385031215613fe857613fe7613d18565b5b6000613ff685828601613f8f565b925050602061400785828601613d43565b9150509250929050565b60006020820190506140266000830184613d85565b92915050565b600081519050919050565b600082825260208201905092915050565b6000819050602082019050919050565b600082825260208201905092915050565b600061407482613dd5565b61407e8185614058565b935061408e818560208601613df1565b61409781613e24565b840191505092915050565b60006140ae8383614069565b905092915050565b6000602082019050919050565b60006140ce8261402c565b6140d88185614037565b9350836020820285016140ea85614048565b8060005b85811015614126578484038952815161410785826140a2565b9450614112836140b6565b925060208a019950506001810190506140ee565b50829750879550505050505092915050565b6000602082019050818103600083015261415281846140c3565b905092915050565b600080fd5b7f4e487b7100000000000000000000000000000000000000000000000000000000600052604160045260246000fd5b61419782613e24565b810181811067ffffffffffffffff821117156141b6576141b561415f565b5b80604052505050565b60006141c9613d0e565b90506141d5828261418e565b919050565b600067ffffffffffffffff8211156141f5576141f461415f565b5b602082029050602081019050919050565b600080fd5b600080fd5b600067ffffffffffffffff82111561422b5761422a61415f565b5b61423482613e24565b9050602081019050919050565b82818337600083830152505050565b600061426361425e84614210565b6141bf565b90508281526020810184848401111561427f5761427e61420b565b5b61428a848285614241565b509392505050565b600082601f8301126142a7576142a661415a565b5b81356142b7848260208601614250565b91505092915050565b60006142d36142ce846141da565b6141bf565b905080838252602082019050602084028301858111156142f6576142f5614206565b5b835b8181101561433d57803567ffffffffffffffff81111561431b5761431a61415a565b5b8086016143288982614292565b855260208501945050506020810190506142f8565b5050509392505050565b600082601f83011261435c5761435b61415a565b5b813561436c8482602086016142c0565b91505092915050565b600067ffffffffffffffff8211156143905761438f61415f565b5b602082029050602081019050919050565b60006143b46143af84614375565b6141bf565b905080838252602082019050602084028301858111156143d7576143d6614206565b5b835b8181101561440057806143ec8882613d43565b8452602084019350506020810190506143d9565b5050509392505050565b600082601f83011261441f5761441e61415a565b5b813561442f8482602086016143a1565b91505092915050565b60008060006060848603121561445157614450613d18565b5b600061445f86828701613d43565b935050602084013567ffffffffffffffff8111156144805761447f613d1d565b5b61448c86828701614347565b925050604084013567ffffffffffffffff8111156144ad576144ac613d1d565b5b6144b98682870161440a565b9150509250925092565b600060208201905081810360008301526144dd8184613e35565b905092915050565b60008115159050919050565b6144fa816144e5565b82525050565b600060208201905061451560008301846144f1565b92915050565b6000806000806080858703121561453557614534613d18565b5b600061454387828801613d43565b945050602085013567ffffffffffffffff81111561456457614563613d1d565b5b61457087828801614347565b935050604085013567ffffffffffffffff81111561459157614590613d1d565b5b61459d8782880161440a565b92505060606145ae87828801613d43565b91505092959194509250565b60008060008060008060c087890312156145d7576145d6613d18565b5b600087013567ffffffffffffffff8111156145f5576145f4613d1d565b5b61460189828a01614292565b965050602087013567ffffffffffffffff81111561462257614621613d1d565b5b61462e89828a01614292565b955050604087013567ffffffffffffffff81111561464f5761464e613d1d565b5b61465b89828a01614347565b945050606087013567ffffffffffffffff81111561467c5761467b613d1d565b5b61468889828a0161440a565b935050608061469989828a01613d43565b92505060a06146aa89828a01613d43565b9150509295509295509295565b600081519050919050565b600082825260208201905092915050565b6000819050602082019050919050565b6146ec81613d22565b82525050565b60006146fe83836146e3565b60208301905092915050565b6000602082019050919050565b6000614722826146b7565b61472c81856146c2565b9350614737836146d3565b8060005b8381101561476857815161474f88826146f2565b975061475a8361470a565b92505060018101905061473b565b5085935050505092915050565b6000602082019050818103600083015261478f8184614717565b905092915050565b6000819050919050565b60006147bc6147b76147b284613d94565b614797565b613d94565b9050919050565b60006147ce826147a1565b9050919050565b60006147e0826147c3565b9050919050565b6147f0816147d5565b82525050565b600060208201905061480b60008301846147e7565b92915050565b7f4e487b7100000000000000000000000000000000000000000000000000000000600052602260045260246000fd5b6000600282049050600182168061485857607f821691505b60208210810361486b5761486a614811565b5b50919050565b7f646f6573206e6f74206861766520796b2070726976696c696765730000000000600082015250565b60006148a7601b83613de0565b91506148b282614871565b602082019050919050565b600060208201905081810360008301526148d68161489a565b9050919050565b60006020820190506148f26000830184613dc6565b92915050565b614901816144e5565b811461490c57600080fd5b50565b60008151905061491e816148f8565b92915050565b60006020828403121561493a57614939613d18565b5b60006149488482850161490f565b91505092915050565b60006040820190506149666000830185613dc6565b6149736020830184613dc6565b9392505050565b7f4e6f74206120594b000000000000000000000000000000000000000000000000600082015250565b60006149b0600883613de0565b91506149bb8261497a565b602082019050919050565b600060208201905081810360008301526149df816149a3565b9050919050565b7f4e487b7100000000000000000000000000000000000000000000000000000000600052601160045260246000fd5b6000614a2082613d22565b9150614a2b83613d22565b9250817fffffffffffffffffffffffffffffffffffffffffffffffffffffffffffffffff0483118215151615614a6457614a636149e6565b5b828202905092915050565b6000614a7a82613d22565b9150614a8583613d22565b9250827fffffffffffffffffffffffffffffffffffffffffffffffffffffffffffffffff03821115614aba57614ab96149e6565b5b828201905092915050565b6000604082019050614ada6000830185613dc6565b614ae76020830184613d85565b9392505050565b7f4e6f7420656e6f75676820736861726573000000000000000000000000000000600082015250565b6000614b24601183613de0565b9150614b2f82614aee565b602082019050919050565b60006020820190508181036000830152614b5381614b17565b9050919050565b6000614b6582613d22565b9150614b7083613d22565b925082821015614b8357614b826149e6565b5b828203905092915050565b7f4e487b7100000000000000000000000000000000000000000000000000000000600052603260045260246000fd5b6000614bc882613d22565b91507fffffffffffffffffffffffffffffffffffffffffffffffffffffffffffffffff8203614bfa57614bf96149e6565b5b600182019050919050565b600081519050614c1481613d2c565b92915050565b600060208284031215614c3057614c2f613d18565b5b6000614c3e84828501614c05565b91505092915050565b7f6e6f7420656e6f756768206465627420736f6d65686f77000000000000000000600082015250565b6000614c7d601783613de0565b9150614c8882614c47565b602082019050919050565b60006020820190508181036000830152614cac81614c70565b9050919050565b6000606082019050614cc86000830186613dc6565b614cd56020830185613dc6565b614ce26040830184613d85565b949350505050565b7f616c726561647920766f74656400000000000000000000000000000000000000600082015250565b6000614d20600d83613de0565b9150614d2b82614cea565b602082019050919050565b60006020820190508181036000830152614d4f81614d13565b9050919050565b7f4e6f7420656e6f7567682073686172657320746f20766f7465206f6e2061207060008201527f726f706f73616c00000000000000000000000000000000000000000000000000602082015250565b6000614db2602783613de0565b9150614dbd82614d56565b604082019050919050565b60006020820190508181036000830152614de181614da5565b9050919050565b7f566f74696e6720706572696f64206973206f7665720000000000000000000000600082015250565b6000614e1e601583613de0565b9150614e2982614de8565b602082019050919050565b60006020820190508181036000830152614e4d81614e11565b9050919050565b7f566f74696e6720706572696f642069732066696e697368656400000000000000600082015250565b6000614e8a601983613de0565b9150614e9582614e54565b602082019050919050565b60006020820190508181036000830152614eb981614e7d565b9050919050565b6000604082019050614ed56000830185613d85565b614ee26020830184613dc6565b9392505050565b7f4e487b7100000000000000000000000000000000000000000000000000000000600052601260045260246000fd5b6000614f2382613d22565b9150614f2e83613d22565b925082614f3e57614f3d614ee9565b5b828204905092915050565b7f446f6e74206861766520656e6f75676820746f6b656e7320286368616e67652060008201527f7765696768742900000000000000000000000000000000000000000000000000602082015250565b6000614fa5602783613de0565b9150614fb082614f49565b604082019050919050565b60006020820190508181036000830152614fd481614f98565b9050919050565b7f446f6e74206861766520656e6f75676820746f6b656e7320286c69746572616c60008201527f6c79203029000000000000000000000000000000000000000000000000000000602082015250565b6000615037602583613de0565b915061504282614fdb565b604082019050919050565b600060208201905081810360008301526150668161502a565b9050919050565b600061507882613db4565b9050919050565b6150888161506d565b811461509357600080fd5b50565b6000815190506150a58161507f565b92915050565b6000602082840312156150c1576150c0613d18565b5b60006150cf84828501615096565b91505092915050565b60006150e3826147c3565b9050919050565b6150f3816150d8565b82525050565b600060208201905061510e60008301846150ea565b92915050565b600061511f82613db4565b9050919050565b61512f81615114565b811461513a57600080fd5b50565b60008151905061514c81615126565b92915050565b60006020828403121561516857615167613d18565b5b60006151768482850161513d565b91505092915050565b7f4e6f7420656e6f7567682073686172657320746f20637265617465206120707260008201527f6f706f73616c0000000000000000000000000000000000000000000000000000602082015250565b60006151db602683613de0565b91506151e68261517f565b604082019050919050565b6000602082019050818103600083015261520a816151ce565b9050919050565b60008190508160005260206000209050919050565b6000815461523381614840565b61523d8186613de0565b94506001821660008114615258576001811461526a5761529d565b60ff198316865260208601935061529d565b61527385615211565b60005b8381101561529557815481890152600182019150602081019050615276565b808801955050505b50505092915050565b600081549050919050565b60008190508160005260206000209050919050565b600081546152d381614840565b6152dd8186614058565b945060018216600081146152f8576001811461530a5761533d565b60ff198316865260208601935061533d565b61531385615211565b60005b8381101561533557815481890152600182019150602081019050615316565b808801955050505b50505092915050565b600061535283836152c6565b905092915050565b6000600182019050919050565b6000615372826152a6565b61537c8185614037565b93508360208202850161538e856152b1565b8060005b858110156153c9578484038952816153aa8582615346565b94506153b58361535a565b925060208a01995050600181019050615392565b50829750879550505050505092915050565b600081549050919050565b60008190508160005260206000209050919050565b60008160001c9050919050565b6000819050919050565b6000615425615420836153fb565b615408565b9050919050565b60006154388254615412565b9050919050565b6000600182019050919050565b6000615457826153db565b61546181856146c2565b935061546c836153e6565b8060005b838110156154a4576154818261542c565b61548b88826146f2565b97506154968361543f565b925050600181019050615470565b5085935050505092915050565b6000610100820190506154c7600083018b613d85565b6154d4602083018a613dc6565b81810360408301526154e68189615226565b905081810360608301526154fa8188615226565b9050818103608083015261550e8187615367565b905081810360a0830152615522818661544c565b905061553160c0830185613d85565b81810360e08301526155438184615226565b90509998505050505050505050565b600060608201905061556760008301866150ea565b6155746020830185613d85565b6155816040830184613dc6565b94935050505056fea264697066735822122007799854059bae553b74fa7b9f254a2abb4cc6932977ac26015245bb0f40263564736f6c634300080d0033a2646970667358221220c07f8dc912ca715ddbc0cdfbd10e6c84cf8656b3ac1179a4509d3097d72640b164736f6c634300080d0033",
  "immutableReferences": {},
  "source": "// SPDX-License-Identifier: GPL-3.0\r\npragma solidity >=0.7.0 <0.9.0;\r\npragma experimental ABIEncoderV2;\r\n//import \"./DAO.sol\";\r\nimport \"./newDAO1.sol\";\r\nimport \"./itoken.sol\";\r\nimport \"./icreator.sol\";\r\n\r\ncontract DAOFactory {\r\n    address public top_dao;\r\n    mapping(MyDAO => MyDAO[]) public parent_child_daos;\r\n    mapping(MyDAO => uint) public num_children;\r\n    //MyDAO[] public _child_daos;\r\n    //address[] public dao_creators_top;\r\n    mapping(address => bool) public is_a_dao_creator;\r\n    mapping(MyDAO => ISUToken) public dao_tokens_yk;\r\n    mapping(MyDAO => ISUToken) public dao_tokens_voter;\r\n    mapping(MyDAO => address) public dao_first_yk; // for an edge case \r\n    mapping(ISUToken => address) public token_first_yk;\r\n    mapping(MyDAO => bool) public dao_exists;\r\n    mapping (MyDAO => MyDAO) public child_parent;\r\n    //event num_contracts(uint num);\r\n    mapping(uint256 => MyDAO) public all_daos;\r\n    uint256 public next_dao_id; \r\n    icreator my_creator;\r\n    address private yk_token_address;\r\n    address private voter_token_address;\r\n    \r\n    constructor(address myCreator) {\r\n        my_creator = icreator(myCreator);\r\n        is_a_dao_creator[msg.sender] = true;   \r\n        next_dao_id = 0;\r\n    }\r\n\r\n    //so first the dao and the token will be created, factory will have the tokens and dao will have the allowance to use \r\n    //these tokens, the yk will be able to withdraw, send and deposit yk_tokens\r\n    function createDAOTop( string memory dao_name,  string memory dao_description, string memory yk_token_name, string memory yk_token_symbol, string memory voter_token_name, string memory voter_token_symbol) public {\r\n        require(is_a_dao_creator[msg.sender] == true, 'Not added as a DAO Creator');\r\n        //line below mints 1000 tokens to this factory, also makes factory the owner of these tokens\r\n \r\n        //ISUToken yk_token = new ISUToken(yk_token_name, yk_token_symbol, address(this));\r\n        //ISUToken voter_token = new ISUToken(voter_token_name, voter_token_symbol, address(this));\r\n\r\n        (yk_token_address, voter_token_address) = my_creator.createToken(yk_token_name,yk_token_symbol,  voter_token_name,  voter_token_symbol);\r\n\r\n        ISUToken yk_token = ISUToken(yk_token_address);\r\n        ISUToken voter_token = ISUToken(voter_token_address);\r\n        MyDAO c = new MyDAO(dao_name, dao_description,next_dao_id, msg.sender, yk_token, voter_token, this);\r\n        //token.mint(address(c), 1000*10**18);\r\n        //with this function my dao can use the tokens my factory has however it wishes, it is currently only 1000, can add mint later\r\n        yk_token.increaseAllowance(address(c), 1000* 10**18);\r\n        yk_token.increaseAllowance(address(this), 1000* 10**18);\r\n        voter_token.increaseAllowance(address(c), 1000* 10**18);\r\n        voter_token.increaseAllowance(address(this), 1000* 10**18);\r\n        yk_token.assignDAO( address(c));\r\n        voter_token.assignDAO( address(c));\r\n        //we save which dao has which yk tokens and which voter tokens\r\n\r\n        dao_tokens_yk[c] = yk_token;\r\n        dao_tokens_voter[c] = voter_token;\r\n        dao_first_yk[c] = msg.sender;\r\n        token_first_yk[yk_token] = msg.sender;\r\n        top_dao = address(c);\r\n        dao_exists[c] = true;\r\n\r\n        //tokens are minted to factory right, we are sending them to dao so they can utilize it.\r\n        voter_token.transferFrom(address(this), address(c), 1000 * 10**18);\r\n        yk_token.transferFrom(address(this), address(c), (1000 * 10 ** 18));\r\n        all_daos[next_dao_id] = c;\r\n\r\n\r\n\r\n        next_dao_id += 1;\r\n    }\r\n\r\n\r\n    function createChildDAO( MyDAO parent, string memory dao_name,  string memory dao_description, string memory yk_token_name, string memory yk_token_symbol, string memory voter_token_name, string memory voter_token_symbol) public {\r\n        require(parent.has_yk_priviliges(msg.sender) == true, 'Not a YK of parent DAO');\r\n        //line below mints 1000 tokens to this factory, also makes factory the owner of these tokens\r\n \r\n\r\n        (yk_token_address, voter_token_address) = my_creator.createToken(yk_token_name,yk_token_symbol,  voter_token_name,  voter_token_symbol);\r\n        ISUToken yk_token = ISUToken(yk_token_address);\r\n        ISUToken voter_token = ISUToken(voter_token_address);\r\n        MyDAO c = new MyDAO(dao_name, dao_description,next_dao_id, msg.sender, yk_token, voter_token, this);\r\n        //token.mint(address(c), 1000*10**18);\r\n        //with this function my dao can use the tokens my factory has however it wishes, it is currently only 1000, can add mint later\r\n        yk_token.increaseAllowance(address(c), 1000* 10**18);\r\n        yk_token.increaseAllowance(address(this), 1000* 10**18);\r\n        voter_token.increaseAllowance(address(c), 1000* 10**18);\r\n        voter_token.increaseAllowance(address(this), 1000* 10**18);\r\n        //check if assignDAO works with interface\r\n        yk_token.assignDAO( address(c));\r\n        voter_token.assignDAO( address(c));\r\n        //we save which dao has which yk tokens and which voter tokens\r\n\r\n        dao_tokens_yk[c] = yk_token;\r\n        dao_tokens_voter[c] = voter_token;\r\n        dao_first_yk[c] = msg.sender;\r\n        token_first_yk[yk_token] = msg.sender;\r\n        //top_dao = address(c);\r\n        dao_exists[c] = true;\r\n        parent_child_daos[parent].push(c);\r\n        num_children[parent] += 1;\r\n        child_parent[c] = parent;\r\n        \r\n        \r\n\r\n        //tokens are minted to factory right, we are sending them to dao so they can utilize it.\r\n        voter_token.transferFrom(address(this), address(c), 1000 * 10**18);\r\n        yk_token.transferFrom(address(this), address(c), (1000 * 10 ** 18));\r\n\r\n\r\n\r\n\r\n        all_daos[next_dao_id] = c;\r\n        next_dao_id += 1;\r\n    }\r\n\r\n    function mint_dao_yk(MyDAO to_be_minted, uint amount, address sender) public {\r\n        require(to_be_minted.has_yk_priviliges(sender), \"Not YK of selected DAO\");\r\n        //make sure the one who sends this is dao\r\n        require(msg.sender == address(to_be_minted), \"Don't even try\");\r\n        dao_tokens_yk[to_be_minted].mint(address(to_be_minted), amount*10**18);\r\n    }\r\n\r\n    function mint_dao_voter(MyDAO to_be_minted, uint amount, address sender) public {\r\n        require(to_be_minted.has_yk_priviliges(sender), \"Not YK of selected DAO\");\r\n        //make sure the one who sends this is dao\r\n        require(msg.sender == address(to_be_minted), \"Don't even try\");\r\n        dao_tokens_voter[to_be_minted].mint(address(to_be_minted), amount*10**18);\r\n    }\r\n\r\n\r\n\r\n    function addCreator(address input_creator) public\r\n    {\r\n        is_a_dao_creator[input_creator] = true;\r\n    }\r\n    function getParentDAO(MyDAO mydao)  public view returns (MyDAO){\r\n        return child_parent[mydao];\r\n\r\n    }\r\n    function getCurrentDAO(uint256 id)  public view returns (MyDAO){\r\n        return all_daos[id];\r\n\r\n    }\r\n\r\n}",
  "sourcePath": "D:\\Projects\\DAOO\\SU_Govern\\contract_for_front_end\\ui_sol_deneme2\\ui_sol_deneme\\sol_ui\\blockchain1\\contracts\\newFactory1.sol",
  "compiler": {
    "name": "solc",
    "version": "0.8.13+commit.abaa5c0e.Emscripten.clang"
  },
  "schemaVersion": "3.4.7",
  "updatedAt": "2022-12-21T22:07:53.687Z",
  "devdoc": {
    "kind": "dev",
    "methods": {},
    "version": 1
  },
  "userdoc": {
    "kind": "user",
    "methods": {},
    "version": 1
  }
}