{
  "contractName": "DAOFactory",
  "abi": [
    {
      "inputs": [],
      "stateMutability": "nonpayable",
      "type": "constructor"
    },
    {
      "anonymous": false,
      "inputs": [
        {
          "indexed": false,
          "internalType": "uint256",
          "name": "num",
          "type": "uint256"
        }
      ],
      "name": "num_contracts",
      "type": "event"
    },
    {
      "inputs": [
        {
          "internalType": "uint256",
          "name": "",
          "type": "uint256"
        }
      ],
      "name": "all_daos",
      "outputs": [
        {
          "internalType": "contract MyDAO",
          "name": "",
          "type": "address"
        }
      ],
      "stateMutability": "view",
      "type": "function"
    },
    {
      "inputs": [
        {
          "internalType": "contract MyDAO",
          "name": "",
          "type": "address"
        }
      ],
      "name": "child_parent",
      "outputs": [
        {
          "internalType": "contract MyDAO",
          "name": "",
          "type": "address"
        }
      ],
      "stateMutability": "view",
      "type": "function"
    },
    {
      "inputs": [
        {
          "internalType": "contract MyDAO",
          "name": "",
          "type": "address"
        }
      ],
      "name": "dao_exists",
      "outputs": [
        {
          "internalType": "bool",
          "name": "",
          "type": "bool"
        }
      ],
      "stateMutability": "view",
      "type": "function"
    },
    {
      "inputs": [
        {
          "internalType": "contract MyDAO",
          "name": "",
          "type": "address"
        }
      ],
      "name": "dao_first_yk",
      "outputs": [
        {
          "internalType": "address",
          "name": "",
          "type": "address"
        }
      ],
      "stateMutability": "view",
      "type": "function"
    },
    {
      "inputs": [
        {
          "internalType": "contract MyDAO",
          "name": "",
          "type": "address"
        }
      ],
      "name": "dao_tokens_voter",
      "outputs": [
        {
          "internalType": "contract SUToken",
          "name": "",
          "type": "address"
        }
      ],
      "stateMutability": "view",
      "type": "function"
    },
    {
      "inputs": [
        {
          "internalType": "contract MyDAO",
          "name": "",
          "type": "address"
        }
      ],
      "name": "dao_tokens_yk",
      "outputs": [
        {
          "internalType": "contract SUToken",
          "name": "",
          "type": "address"
        }
      ],
      "stateMutability": "view",
      "type": "function"
    },
    {
      "inputs": [
        {
          "internalType": "address",
          "name": "",
          "type": "address"
        }
      ],
      "name": "is_a_dao_creator",
      "outputs": [
        {
          "internalType": "bool",
          "name": "",
          "type": "bool"
        }
      ],
      "stateMutability": "view",
      "type": "function"
    },
    {
      "inputs": [],
      "name": "next_dao_id",
      "outputs": [
        {
          "internalType": "uint256",
          "name": "",
          "type": "uint256"
        }
      ],
      "stateMutability": "view",
      "type": "function"
    },
    {
      "inputs": [
        {
          "internalType": "contract MyDAO",
          "name": "",
          "type": "address"
        }
      ],
      "name": "num_children",
      "outputs": [
        {
          "internalType": "uint256",
          "name": "",
          "type": "uint256"
        }
      ],
      "stateMutability": "view",
      "type": "function"
    },
    {
      "inputs": [
        {
          "internalType": "contract MyDAO",
          "name": "",
          "type": "address"
        },
        {
          "internalType": "uint256",
          "name": "",
          "type": "uint256"
        }
      ],
      "name": "parent_child_daos",
      "outputs": [
        {
          "internalType": "contract MyDAO",
          "name": "",
          "type": "address"
        }
      ],
      "stateMutability": "view",
      "type": "function"
    },
    {
      "inputs": [
        {
          "internalType": "contract SUToken",
          "name": "",
          "type": "address"
        }
      ],
      "name": "token_first_yk",
      "outputs": [
        {
          "internalType": "address",
          "name": "",
          "type": "address"
        }
      ],
      "stateMutability": "view",
      "type": "function"
    },
    {
      "inputs": [],
      "name": "top_dao",
      "outputs": [
        {
          "internalType": "address",
          "name": "",
          "type": "address"
        }
      ],
      "stateMutability": "view",
      "type": "function"
    },
    {
      "inputs": [
        {
          "internalType": "string",
          "name": "dao_name",
          "type": "string"
        },
        {
          "internalType": "string",
          "name": "dao_description",
          "type": "string"
        },
        {
          "internalType": "string",
          "name": "yk_token_name",
          "type": "string"
        },
        {
          "internalType": "string",
          "name": "yk_token_symbol",
          "type": "string"
        },
        {
          "internalType": "string",
          "name": "voter_token_name",
          "type": "string"
        },
        {
          "internalType": "string",
          "name": "voter_token_symbol",
          "type": "string"
        }
      ],
      "name": "createDAOTop",
      "outputs": [],
      "stateMutability": "nonpayable",
      "type": "function"
    },
    {
      "inputs": [
        {
          "internalType": "contract MyDAO",
          "name": "parent",
          "type": "address"
        },
        {
          "internalType": "string",
          "name": "dao_name",
          "type": "string"
        },
        {
          "internalType": "string",
          "name": "dao_description",
          "type": "string"
        },
        {
          "internalType": "string",
          "name": "yk_token_name",
          "type": "string"
        },
        {
          "internalType": "string",
          "name": "yk_token_symbol",
          "type": "string"
        },
        {
          "internalType": "string",
          "name": "voter_token_name",
          "type": "string"
        },
        {
          "internalType": "string",
          "name": "voter_token_symbol",
          "type": "string"
        }
      ],
      "name": "createChildDAO",
      "outputs": [],
      "stateMutability": "nonpayable",
      "type": "function"
    },
    {
      "inputs": [
        {
          "internalType": "contract MyDAO",
          "name": "to_be_minted",
          "type": "address"
        },
        {
          "internalType": "uint256",
          "name": "amount",
          "type": "uint256"
        },
        {
          "internalType": "address",
          "name": "sender",
          "type": "address"
        }
      ],
      "name": "mint_dao_yk",
      "outputs": [],
      "stateMutability": "nonpayable",
      "type": "function"
    },
    {
      "inputs": [
        {
          "internalType": "contract MyDAO",
          "name": "to_be_minted",
          "type": "address"
        },
        {
          "internalType": "uint256",
          "name": "amount",
          "type": "uint256"
        },
        {
          "internalType": "address",
          "name": "sender",
          "type": "address"
        }
      ],
      "name": "mint_dao_voter",
      "outputs": [],
      "stateMutability": "nonpayable",
      "type": "function"
    },
    {
      "inputs": [
        {
          "internalType": "address",
          "name": "input_creator",
          "type": "address"
        }
      ],
      "name": "addCreator",
      "outputs": [],
      "stateMutability": "nonpayable",
      "type": "function"
    }
  ],
  "bytecode": "0x608060405234801561001057600080fd5b506001600360003373ffffffffffffffffffffffffffffffffffffffff1673ffffffffffffffffffffffffffffffffffffffff16815260200190815260200160002060006101000a81548160ff0219169083151502179055506000600b8190555061a215806100806000396000f3fe60806040523480156200001157600080fd5b5060043610620001245760003560e01c80636b84526511620000b1578063af26fc49116200007b578063af26fc491462000331578063ba15cdd91462000351578063eff1f44f1462000387578063f5a353d114620003bd578063fe4524b314620003f35762000124565b80636b845265146200026d5780636d61d4c914620002a357806381a6520a14620002d9578063958c02b4146200030f5762000124565b80634c9a7fa311620000f35780634c9a7fa314620001d557806350ee8e8f14620001f75780635a76df3414620002175780635ab178d914620002375762000124565b8063205cdcff14620001295780632345a8f014620001495780633b9dce05146200017f5780633efb7ae2146200019f575b600080fd5b62000147600480360381019062000141919062001f93565b62000429565b005b62000167600480360381019062000161919062001fef565b620006a8565b6040516200017691906200208c565b60405180910390f35b6200019d6004803603810190620001979190620020a9565b620006db565b005b620001bd6004803603810190620001b79190620020db565b62000736565b604051620001cc919062002132565b60405180910390f35b620001df62000769565b604051620001ee919062002160565b60405180910390f35b6200021560048036038101906200020f919062001f93565b6200078d565b005b6200023560048036038101906200022f9190620022df565b62000a0c565b005b6200025560048036038101906200024f919062001fef565b620012a6565b60405162000264919062002132565b60405180910390f35b6200028b600480360381019062000285919062001fef565b620012d9565b6040516200029a919062002160565b60405180910390f35b620002c16004803603810190620002bb919062001fef565b6200130c565b604051620002d091906200208c565b60405180910390f35b620002f76004803603810190620002f191906200247a565b6200133f565b60405162000306919062002160565b60405180910390f35b6200031962001372565b604051620003289190620024bd565b60405180910390f35b6200034f6004803603810190620003499190620024da565b62001378565b005b6200036f600480360381019062000369919062001fef565b62001dd7565b6040516200037e919062002664565b60405180910390f35b620003a560048036038101906200039f919062001fef565b62001df7565b604051620003b49190620024bd565b60405180910390f35b620003db6004803603810190620003d5919062002681565b62001e0f565b604051620003ea919062002132565b60405180910390f35b6200041160048036038101906200040b9190620020a9565b62001e5e565b60405162000420919062002664565b60405180910390f35b6000600460008573ffffffffffffffffffffffffffffffffffffffff1673ffffffffffffffffffffffffffffffffffffffff16815260200190815260200160002060009054906101000a900473ffffffffffffffffffffffffffffffffffffffff1673ffffffffffffffffffffffffffffffffffffffff166370a08231836040518263ffffffff1660e01b8152600401620004c5919062002160565b602060405180830381865afa158015620004e3573d6000803e3d6000fd5b505050506040513d601f19601f82011682018060405250810190620005099190620026df565b10156200054d576040517f08c379a0000000000000000000000000000000000000000000000000000000008152600401620005449062002772565b60405180910390fd5b8273ffffffffffffffffffffffffffffffffffffffff163373ffffffffffffffffffffffffffffffffffffffff1614620005be576040517f08c379a0000000000000000000000000000000000000000000000000000000008152600401620005b590620027e4565b60405180910390fd5b600460008473ffffffffffffffffffffffffffffffffffffffff1673ffffffffffffffffffffffffffffffffffffffff16815260200190815260200160002060009054906101000a900473ffffffffffffffffffffffffffffffffffffffff1673ffffffffffffffffffffffffffffffffffffffff166340c10f1984670de0b6b3a76400008562000650919062002835565b6040518363ffffffff1660e01b81526004016200066f92919062002896565b600060405180830381600087803b1580156200068a57600080fd5b505af11580156200069f573d6000803e3d6000fd5b50505050505050565b60046020528060005260406000206000915054906101000a900473ffffffffffffffffffffffffffffffffffffffff1681565b6001600360008373ffffffffffffffffffffffffffffffffffffffff1673ffffffffffffffffffffffffffffffffffffffff16815260200190815260200160002060006101000a81548160ff02191690831515021790555050565b600a6020528060005260406000206000915054906101000a900473ffffffffffffffffffffffffffffffffffffffff1681565b60008054906101000a900473ffffffffffffffffffffffffffffffffffffffff1681565b6000600460008573ffffffffffffffffffffffffffffffffffffffff1673ffffffffffffffffffffffffffffffffffffffff16815260200190815260200160002060009054906101000a900473ffffffffffffffffffffffffffffffffffffffff1673ffffffffffffffffffffffffffffffffffffffff166370a08231836040518263ffffffff1660e01b815260040162000829919062002160565b602060405180830381865afa15801562000847573d6000803e3d6000fd5b505050506040513d601f19601f820116820180604052508101906200086d9190620026df565b1015620008b1576040517f08c379a0000000000000000000000000000000000000000000000000000000008152600401620008a89062002772565b60405180910390fd5b8273ffffffffffffffffffffffffffffffffffffffff163373ffffffffffffffffffffffffffffffffffffffff161462000922576040517f08c379a00000000000000000000000000000000000000000000000000000000081526004016200091990620027e4565b60405180910390fd5b600560008473ffffffffffffffffffffffffffffffffffffffff1673ffffffffffffffffffffffffffffffffffffffff16815260200190815260200160002060009054906101000a900473ffffffffffffffffffffffffffffffffffffffff1673ffffffffffffffffffffffffffffffffffffffff166340c10f1984670de0b6b3a764000085620009b4919062002835565b6040518363ffffffff1660e01b8152600401620009d392919062002896565b600060405180830381600087803b158015620009ee57600080fd5b505af115801562000a03573d6000803e3d6000fd5b50505050505050565b60011515600360003373ffffffffffffffffffffffffffffffffffffffff1673ffffffffffffffffffffffffffffffffffffffff16815260200190815260200160002060009054906101000a900460ff1615151462000aa2576040517f08c379a000000000000000000000000000000000000000000000000000000000815260040162000a999062002913565b60405180910390fd5b600084843060405162000ab59062001e7e565b62000ac393929190620029b7565b604051809103906000f08015801562000ae0573d6000803e3d6000fd5b509050600083833060405162000af69062001e7e565b62000b0493929190620029b7565b604051809103906000f08015801562000b21573d6000803e3d6000fd5b509050600088883385853060405162000b3a9062001e8c565b62000b4b9695949392919062002a27565b604051809103906000f08015801562000b68573d6000803e3d6000fd5b5090508273ffffffffffffffffffffffffffffffffffffffff16633950935182683635c9adc5dea000006040518363ffffffff1660e01b815260040162000bb192919062002ae5565b6020604051808303816000875af115801562000bd1573d6000803e3d6000fd5b505050506040513d601f19601f8201168201806040525081019062000bf7919062002b43565b508273ffffffffffffffffffffffffffffffffffffffff16633950935130683635c9adc5dea000006040518363ffffffff1660e01b815260040162000c3e92919062002ae5565b6020604051808303816000875af115801562000c5e573d6000803e3d6000fd5b505050506040513d601f19601f8201168201806040525081019062000c84919062002b43565b508173ffffffffffffffffffffffffffffffffffffffff16633950935182683635c9adc5dea000006040518363ffffffff1660e01b815260040162000ccb92919062002ae5565b6020604051808303816000875af115801562000ceb573d6000803e3d6000fd5b505050506040513d601f19601f8201168201806040525081019062000d11919062002b43565b508173ffffffffffffffffffffffffffffffffffffffff16633950935130683635c9adc5dea000006040518363ffffffff1660e01b815260040162000d5892919062002ae5565b6020604051808303816000875af115801562000d78573d6000803e3d6000fd5b505050506040513d601f19601f8201168201806040525081019062000d9e919062002b43565b508273ffffffffffffffffffffffffffffffffffffffff16638749e2bb826040518263ffffffff1660e01b815260040162000dda919062002160565b600060405180830381600087803b15801562000df557600080fd5b505af115801562000e0a573d6000803e3d6000fd5b505050508173ffffffffffffffffffffffffffffffffffffffff16638749e2bb826040518263ffffffff1660e01b815260040162000e49919062002160565b600060405180830381600087803b15801562000e6457600080fd5b505af115801562000e79573d6000803e3d6000fd5b5050505082600460008373ffffffffffffffffffffffffffffffffffffffff1673ffffffffffffffffffffffffffffffffffffffff16815260200190815260200160002060006101000a81548173ffffffffffffffffffffffffffffffffffffffff021916908373ffffffffffffffffffffffffffffffffffffffff16021790555081600560008373ffffffffffffffffffffffffffffffffffffffff1673ffffffffffffffffffffffffffffffffffffffff16815260200190815260200160002060006101000a81548173ffffffffffffffffffffffffffffffffffffffff021916908373ffffffffffffffffffffffffffffffffffffffff16021790555033600660008373ffffffffffffffffffffffffffffffffffffffff1673ffffffffffffffffffffffffffffffffffffffff16815260200190815260200160002060006101000a81548173ffffffffffffffffffffffffffffffffffffffff021916908373ffffffffffffffffffffffffffffffffffffffff16021790555033600760008573ffffffffffffffffffffffffffffffffffffffff1673ffffffffffffffffffffffffffffffffffffffff16815260200190815260200160002060006101000a81548173ffffffffffffffffffffffffffffffffffffffff021916908373ffffffffffffffffffffffffffffffffffffffff160217905550806000806101000a81548173ffffffffffffffffffffffffffffffffffffffff021916908373ffffffffffffffffffffffffffffffffffffffff1602179055506001600860008373ffffffffffffffffffffffffffffffffffffffff1673ffffffffffffffffffffffffffffffffffffffff16815260200190815260200160002060006101000a81548160ff0219169083151502179055508173ffffffffffffffffffffffffffffffffffffffff166323b872dd3083683635c9adc5dea000006040518463ffffffff1660e01b8152600401620011559392919062002b75565b6020604051808303816000875af115801562001175573d6000803e3d6000fd5b505050506040513d601f19601f820116820180604052508101906200119b919062002b43565b508273ffffffffffffffffffffffffffffffffffffffff166323b872dd3083683635c9adc5dea000006040518463ffffffff1660e01b8152600401620011e49392919062002b75565b6020604051808303816000875af115801562001204573d6000803e3d6000fd5b505050506040513d601f19601f820116820180604052508101906200122a919062002b43565b5080600a6000600b54815260200190815260200160002060006101000a81548173ffffffffffffffffffffffffffffffffffffffff021916908373ffffffffffffffffffffffffffffffffffffffff1602179055506001600b600082825462001294919062002bb2565b92505081905550505050505050505050565b60096020528060005260406000206000915054906101000a900473ffffffffffffffffffffffffffffffffffffffff1681565b60066020528060005260406000206000915054906101000a900473ffffffffffffffffffffffffffffffffffffffff1681565b60056020528060005260406000206000915054906101000a900473ffffffffffffffffffffffffffffffffffffffff1681565b60076020528060005260406000206000915054906101000a900473ffffffffffffffffffffffffffffffffffffffff1681565b600b5481565b6000600460008973ffffffffffffffffffffffffffffffffffffffff1673ffffffffffffffffffffffffffffffffffffffff16815260200190815260200160002060009054906101000a900473ffffffffffffffffffffffffffffffffffffffff1673ffffffffffffffffffffffffffffffffffffffff166370a08231336040518263ffffffff1660e01b815260040162001414919062002160565b602060405180830381865afa15801562001432573d6000803e3d6000fd5b505050506040513d601f19601f82011682018060405250810190620014589190620026df565b116200149b576040517f08c379a0000000000000000000000000000000000000000000000000000000008152600401620014929062002c5f565b60405180910390fd5b6000848430604051620014ae9062001e7e565b620014bc93929190620029b7565b604051809103906000f080158015620014d9573d6000803e3d6000fd5b5090506000838330604051620014ef9062001e7e565b620014fd93929190620029b7565b604051809103906000f0801580156200151a573d6000803e3d6000fd5b5090506000888833858530604051620015339062001e8c565b620015449695949392919062002a27565b604051809103906000f08015801562001561573d6000803e3d6000fd5b5090508273ffffffffffffffffffffffffffffffffffffffff16633950935182683635c9adc5dea000006040518363ffffffff1660e01b8152600401620015aa92919062002ae5565b6020604051808303816000875af1158015620015ca573d6000803e3d6000fd5b505050506040513d601f19601f82011682018060405250810190620015f0919062002b43565b508273ffffffffffffffffffffffffffffffffffffffff16633950935130683635c9adc5dea000006040518363ffffffff1660e01b81526004016200163792919062002ae5565b6020604051808303816000875af115801562001657573d6000803e3d6000fd5b505050506040513d601f19601f820116820180604052508101906200167d919062002b43565b508173ffffffffffffffffffffffffffffffffffffffff16633950935182683635c9adc5dea000006040518363ffffffff1660e01b8152600401620016c492919062002ae5565b6020604051808303816000875af1158015620016e4573d6000803e3d6000fd5b505050506040513d601f19601f820116820180604052508101906200170a919062002b43565b508173ffffffffffffffffffffffffffffffffffffffff16633950935130683635c9adc5dea000006040518363ffffffff1660e01b81526004016200175192919062002ae5565b6020604051808303816000875af115801562001771573d6000803e3d6000fd5b505050506040513d601f19601f8201168201806040525081019062001797919062002b43565b508273ffffffffffffffffffffffffffffffffffffffff16638749e2bb826040518263ffffffff1660e01b8152600401620017d3919062002160565b600060405180830381600087803b158015620017ee57600080fd5b505af115801562001803573d6000803e3d6000fd5b505050508173ffffffffffffffffffffffffffffffffffffffff16638749e2bb826040518263ffffffff1660e01b815260040162001842919062002160565b600060405180830381600087803b1580156200185d57600080fd5b505af115801562001872573d6000803e3d6000fd5b5050505082600460008373ffffffffffffffffffffffffffffffffffffffff1673ffffffffffffffffffffffffffffffffffffffff16815260200190815260200160002060006101000a81548173ffffffffffffffffffffffffffffffffffffffff021916908373ffffffffffffffffffffffffffffffffffffffff16021790555081600560008373ffffffffffffffffffffffffffffffffffffffff1673ffffffffffffffffffffffffffffffffffffffff16815260200190815260200160002060006101000a81548173ffffffffffffffffffffffffffffffffffffffff021916908373ffffffffffffffffffffffffffffffffffffffff16021790555033600660008373ffffffffffffffffffffffffffffffffffffffff1673ffffffffffffffffffffffffffffffffffffffff16815260200190815260200160002060006101000a81548173ffffffffffffffffffffffffffffffffffffffff021916908373ffffffffffffffffffffffffffffffffffffffff16021790555033600760008573ffffffffffffffffffffffffffffffffffffffff1673ffffffffffffffffffffffffffffffffffffffff16815260200190815260200160002060006101000a81548173ffffffffffffffffffffffffffffffffffffffff021916908373ffffffffffffffffffffffffffffffffffffffff1602179055506001600860008373ffffffffffffffffffffffffffffffffffffffff1673ffffffffffffffffffffffffffffffffffffffff16815260200190815260200160002060006101000a81548160ff021916908315150217905550600160008b73ffffffffffffffffffffffffffffffffffffffff1673ffffffffffffffffffffffffffffffffffffffff168152602001908152602001600020819080600181540180825580915050600190039060005260206000200160009091909190916101000a81548173ffffffffffffffffffffffffffffffffffffffff021916908373ffffffffffffffffffffffffffffffffffffffff1602179055506001600260008c73ffffffffffffffffffffffffffffffffffffffff1673ffffffffffffffffffffffffffffffffffffffff168152602001908152602001600020600082825462001bb8919062002bb2565b9250508190555089600960008373ffffffffffffffffffffffffffffffffffffffff1673ffffffffffffffffffffffffffffffffffffffff16815260200190815260200160002060006101000a81548173ffffffffffffffffffffffffffffffffffffffff021916908373ffffffffffffffffffffffffffffffffffffffff1602179055508173ffffffffffffffffffffffffffffffffffffffff166323b872dd3083683635c9adc5dea000006040518463ffffffff1660e01b815260040162001c859392919062002b75565b6020604051808303816000875af115801562001ca5573d6000803e3d6000fd5b505050506040513d601f19601f8201168201806040525081019062001ccb919062002b43565b508273ffffffffffffffffffffffffffffffffffffffff166323b872dd3083683635c9adc5dea000006040518463ffffffff1660e01b815260040162001d149392919062002b75565b6020604051808303816000875af115801562001d34573d6000803e3d6000fd5b505050506040513d601f19601f8201168201806040525081019062001d5a919062002b43565b5080600a6000600b54815260200190815260200160002060006101000a81548173ffffffffffffffffffffffffffffffffffffffff021916908373ffffffffffffffffffffffffffffffffffffffff1602179055506001600b600082825462001dc4919062002bb2565b9250508190555050505050505050505050565b60086020528060005260406000206000915054906101000a900460ff1681565b60026020528060005260406000206000915090505481565b6001602052816000526040600020818154811062001e2c57600080fd5b906000526020600020016000915091509054906101000a900473ffffffffffffffffffffffffffffffffffffffff1681565b60036020528060005260406000206000915054906101000a900460ff1681565b6128c88062002c8283390190565b614c96806200554a83390190565b6000604051905090565b600080fd5b600080fd5b600073ffffffffffffffffffffffffffffffffffffffff82169050919050565b600062001edb8262001eae565b9050919050565b600062001eef8262001ece565b9050919050565b62001f018162001ee2565b811462001f0d57600080fd5b50565b60008135905062001f218162001ef6565b92915050565b6000819050919050565b62001f3c8162001f27565b811462001f4857600080fd5b50565b60008135905062001f5c8162001f31565b92915050565b62001f6d8162001ece565b811462001f7957600080fd5b50565b60008135905062001f8d8162001f62565b92915050565b60008060006060848603121562001faf5762001fae62001ea4565b5b600062001fbf8682870162001f10565b935050602062001fd28682870162001f4b565b925050604062001fe58682870162001f7c565b9150509250925092565b60006020828403121562002008576200200762001ea4565b5b6000620020188482850162001f10565b91505092915050565b6000819050919050565b60006200204c62002046620020408462001eae565b62002021565b62001eae565b9050919050565b600062002060826200202b565b9050919050565b6000620020748262002053565b9050919050565b620020868162002067565b82525050565b6000602082019050620020a360008301846200207b565b92915050565b600060208284031215620020c257620020c162001ea4565b5b6000620020d28482850162001f7c565b91505092915050565b600060208284031215620020f457620020f362001ea4565b5b6000620021048482850162001f4b565b91505092915050565b60006200211a8262002053565b9050919050565b6200212c816200210d565b82525050565b600060208201905062002149600083018462002121565b92915050565b6200215a8162001ece565b82525050565b60006020820190506200217760008301846200214f565b92915050565b600080fd5b600080fd5b6000601f19601f8301169050919050565b7f4e487b7100000000000000000000000000000000000000000000000000000000600052604160045260246000fd5b620021d28262002187565b810181811067ffffffffffffffff82111715620021f457620021f362002198565b5b80604052505050565b60006200220962001e9a565b9050620022178282620021c7565b919050565b600067ffffffffffffffff8211156200223a576200223962002198565b5b620022458262002187565b9050602081019050919050565b82818337600083830152505050565b60006200227862002272846200221c565b620021fd565b90508281526020810184848401111562002297576200229662002182565b5b620022a484828562002252565b509392505050565b600082601f830112620022c457620022c36200217d565b5b8135620022d684826020860162002261565b91505092915050565b60008060008060008060c08789031215620022ff57620022fe62001ea4565b5b600087013567ffffffffffffffff81111562002320576200231f62001ea9565b5b6200232e89828a01620022ac565b965050602087013567ffffffffffffffff81111562002352576200235162001ea9565b5b6200236089828a01620022ac565b955050604087013567ffffffffffffffff81111562002384576200238362001ea9565b5b6200239289828a01620022ac565b945050606087013567ffffffffffffffff811115620023b657620023b562001ea9565b5b620023c489828a01620022ac565b935050608087013567ffffffffffffffff811115620023e857620023e762001ea9565b5b620023f689828a01620022ac565b92505060a087013567ffffffffffffffff8111156200241a576200241962001ea9565b5b6200242889828a01620022ac565b9150509295509295509295565b6000620024428262001ece565b9050919050565b620024548162002435565b81146200246057600080fd5b50565b600081359050620024748162002449565b92915050565b60006020828403121562002493576200249262001ea4565b5b6000620024a38482850162002463565b91505092915050565b620024b78162001f27565b82525050565b6000602082019050620024d46000830184620024ac565b92915050565b600080600080600080600060e0888a031215620024fc57620024fb62001ea4565b5b60006200250c8a828b0162001f10565b975050602088013567ffffffffffffffff81111562002530576200252f62001ea9565b5b6200253e8a828b01620022ac565b965050604088013567ffffffffffffffff81111562002562576200256162001ea9565b5b620025708a828b01620022ac565b955050606088013567ffffffffffffffff81111562002594576200259362001ea9565b5b620025a28a828b01620022ac565b945050608088013567ffffffffffffffff811115620025c657620025c562001ea9565b5b620025d48a828b01620022ac565b93505060a088013567ffffffffffffffff811115620025f857620025f762001ea9565b5b620026068a828b01620022ac565b92505060c088013567ffffffffffffffff8111156200262a576200262962001ea9565b5b620026388a828b01620022ac565b91505092959891949750929550565b60008115159050919050565b6200265e8162002647565b82525050565b60006020820190506200267b600083018462002653565b92915050565b600080604083850312156200269b576200269a62001ea4565b5b6000620026ab8582860162001f10565b9250506020620026be8582860162001f4b565b9150509250929050565b600081519050620026d98162001f31565b92915050565b600060208284031215620026f857620026f762001ea4565b5b60006200270884828501620026c8565b91505092915050565b600082825260208201905092915050565b7f4e6f7420594b206f662073656c65637465642044414f00000000000000000000600082015250565b60006200275a60168362002711565b9150620027678262002722565b602082019050919050565b600060208201905081810360008301526200278d816200274b565b9050919050565b7f446f6e2774206576656e20747279000000000000000000000000000000000000600082015250565b6000620027cc600e8362002711565b9150620027d98262002794565b602082019050919050565b60006020820190508181036000830152620027ff81620027bd565b9050919050565b7f4e487b7100000000000000000000000000000000000000000000000000000000600052601160045260246000fd5b6000620028428262001f27565b91506200284f8362001f27565b9250817fffffffffffffffffffffffffffffffffffffffffffffffffffffffffffffffff04831182151516156200288b576200288a62002806565b5b828202905092915050565b6000604082019050620028ad60008301856200214f565b620028bc6020830184620024ac565b9392505050565b7f4e6f7420616464656420617320612044414f2043726561746f72000000000000600082015250565b6000620028fb601a8362002711565b91506200290882620028c3565b602082019050919050565b600060208201905081810360008301526200292e81620028ec565b9050919050565b600081519050919050565b60005b838110156200296057808201518184015260208101905062002943565b8381111562002970576000848401525b50505050565b6000620029838262002935565b6200298f818562002711565b9350620029a181856020860162002940565b620029ac8162002187565b840191505092915050565b60006060820190508181036000830152620029d3818662002976565b90508181036020830152620029e9818562002976565b9050620029fa60408301846200214f565b949350505050565b600062002a0f8262002053565b9050919050565b62002a218162002a02565b82525050565b600060c082019050818103600083015262002a43818962002976565b9050818103602083015262002a59818862002976565b905062002a6a60408301876200214f565b62002a7960608301866200207b565b62002a8860808301856200207b565b62002a9760a083018462002a16565b979650505050505050565b6000819050919050565b600062002acd62002ac762002ac18462002aa2565b62002021565b62001f27565b9050919050565b62002adf8162002aac565b82525050565b600060408201905062002afc60008301856200214f565b62002b0b602083018462002ad4565b9392505050565b62002b1d8162002647565b811462002b2957600080fd5b50565b60008151905062002b3d8162002b12565b92915050565b60006020828403121562002b5c5762002b5b62001ea4565b5b600062002b6c8482850162002b2c565b91505092915050565b600060608201905062002b8c60008301866200214f565b62002b9b60208301856200214f565b62002baa604083018462002ad4565b949350505050565b600062002bbf8262001f27565b915062002bcc8362001f27565b9250827fffffffffffffffffffffffffffffffffffffffffffffffffffffffffffffffff0382111562002c045762002c0362002806565b5b828201905092915050565b7f4e6f74206120594b206f6620706172656e742044414f00000000000000000000600082015250565b600062002c4760168362002711565b915062002c548262002c0f565b602082019050919050565b6000602082019050818103600083015262002c7a8162002c38565b905091905056fe60806040523480156200001157600080fd5b50604051620028c8380380620028c88339818101604052810190620000379190620005dc565b82828160039080519060200190620000519291906200032a565b5080600490805190602001906200006a9291906200032a565b5050506200008d62000081620000dc60201b60201c565b620000e460201b60201c565b620000cb81620000a2620001aa60201b60201c565b600a620000b0919062000810565b6103e8620000bf919062000861565b620001b360201b60201c565b600060068190555050505062000a34565b600033905090565b6000600560009054906101000a900473ffffffffffffffffffffffffffffffffffffffff16905081600560006101000a81548173ffffffffffffffffffffffffffffffffffffffff021916908373ffffffffffffffffffffffffffffffffffffffff1602179055508173ffffffffffffffffffffffffffffffffffffffff168173ffffffffffffffffffffffffffffffffffffffff167f8be0079c531659141344cd1fd0a4f28419497f9722a3daafe3b4186f6b6457e060405160405180910390a35050565b60006012905090565b600073ffffffffffffffffffffffffffffffffffffffff168273ffffffffffffffffffffffffffffffffffffffff160362000225576040517f08c379a00000000000000000000000000000000000000000000000000000000081526004016200021c9062000923565b60405180910390fd5b62000239600083836200032060201b60201c565b80600260008282546200024d919062000945565b92505081905550806000808473ffffffffffffffffffffffffffffffffffffffff1673ffffffffffffffffffffffffffffffffffffffff168152602001908152602001600020600082825401925050819055508173ffffffffffffffffffffffffffffffffffffffff16600073ffffffffffffffffffffffffffffffffffffffff167fddf252ad1be2c89b69c2b068fc378daa952ba7f163c4a11628f55a4df523b3ef83604051620003009190620009b3565b60405180910390a36200031c600083836200032560201b60201c565b5050565b505050565b505050565b8280546200033890620009ff565b90600052602060002090601f0160209004810192826200035c5760008555620003a8565b82601f106200037757805160ff1916838001178555620003a8565b82800160010185558215620003a8579182015b82811115620003a75782518255916020019190600101906200038a565b5b509050620003b79190620003bb565b5090565b5b80821115620003d6576000816000905550600101620003bc565b5090565b6000604051905090565b600080fd5b600080fd5b600080fd5b600080fd5b6000601f19601f8301169050919050565b7f4e487b7100000000000000000000000000000000000000000000000000000000600052604160045260246000fd5b6200044382620003f8565b810181811067ffffffffffffffff8211171562000465576200046462000409565b5b80604052505050565b60006200047a620003da565b905062000488828262000438565b919050565b600067ffffffffffffffff821115620004ab57620004aa62000409565b5b620004b682620003f8565b9050602081019050919050565b60005b83811015620004e3578082015181840152602081019050620004c6565b83811115620004f3576000848401525b50505050565b6000620005106200050a846200048d565b6200046e565b9050828152602081018484840111156200052f576200052e620003f3565b5b6200053c848285620004c3565b509392505050565b600082601f8301126200055c576200055b620003ee565b5b81516200056e848260208601620004f9565b91505092915050565b600073ffffffffffffffffffffffffffffffffffffffff82169050919050565b6000620005a48262000577565b9050919050565b620005b68162000597565b8114620005c257600080fd5b50565b600081519050620005d681620005ab565b92915050565b600080600060608486031215620005f857620005f7620003e4565b5b600084015167ffffffffffffffff811115620006195762000618620003e9565b5b620006278682870162000544565b935050602084015167ffffffffffffffff8111156200064b576200064a620003e9565b5b620006598682870162000544565b92505060406200066c86828701620005c5565b9150509250925092565b7f4e487b7100000000000000000000000000000000000000000000000000000000600052601160045260246000fd5b60008160011c9050919050565b6000808291508390505b60018511156200070457808604811115620006dc57620006db62000676565b5b6001851615620006ec5780820291505b8081029050620006fc85620006a5565b9450620006bc565b94509492505050565b6000826200071f5760019050620007f2565b816200072f5760009050620007f2565b8160018114620007485760028114620007535762000789565b6001915050620007f2565b60ff84111562000768576200076762000676565b5b8360020a91508482111562000782576200078162000676565b5b50620007f2565b5060208310610133831016604e8410600b8410161715620007c35782820a905083811115620007bd57620007bc62000676565b5b620007f2565b620007d28484846001620006b2565b92509050818404811115620007ec57620007eb62000676565b5b81810290505b9392505050565b6000819050919050565b600060ff82169050919050565b60006200081d82620007f9565b91506200082a8362000803565b9250620008597fffffffffffffffffffffffffffffffffffffffffffffffffffffffffffffffff84846200070d565b905092915050565b60006200086e82620007f9565b91506200087b83620007f9565b9250817fffffffffffffffffffffffffffffffffffffffffffffffffffffffffffffffff0483118215151615620008b757620008b662000676565b5b828202905092915050565b600082825260208201905092915050565b7f45524332303a206d696e7420746f20746865207a65726f206164647265737300600082015250565b60006200090b601f83620008c2565b91506200091882620008d3565b602082019050919050565b600060208201905081810360008301526200093e81620008fc565b9050919050565b60006200095282620007f9565b91506200095f83620007f9565b9250827fffffffffffffffffffffffffffffffffffffffffffffffffffffffffffffffff0382111562000997576200099662000676565b5b828201905092915050565b620009ad81620007f9565b82525050565b6000602082019050620009ca6000830184620009a2565b92915050565b7f4e487b7100000000000000000000000000000000000000000000000000000000600052602260045260246000fd5b6000600282049050600182168062000a1857607f821691505b60208210810362000a2e5762000a2d620009d0565b5b50919050565b611e848062000a446000396000f3fe608060405234801561001057600080fd5b506004361061014d5760003560e01c80638da9e677116100c3578063a9059cbb1161007c578063a9059cbb146103b4578063d2c0ec0e146103e4578063dd62ed3e14610402578063f2fde38b14610432578063fc13d5181461044e578063ff2b5fa11461046a5761014d565b80638da9e677146102cc578063937347d5146102fc57806395d89b411461031a578063a19dea7014610338578063a38e210514610354578063a457c2d7146103845761014d565b80633950935111610115578063395093511461020c57806340c10f191461023c57806370a0823114610258578063715018a6146102885780638749e2bb146102925780638da5cb5b146102ae5761014d565b806306fdde0314610152578063095ea7b31461017057806318160ddd146101a057806323b872dd146101be578063313ce567146101ee575b600080fd5b61015a610486565b604051610167919061148a565b60405180910390f35b61018a60048036038101906101859190611545565b610518565b60405161019791906115a0565b60405180910390f35b6101a861053b565b6040516101b591906115ca565b60405180910390f35b6101d860048036038101906101d391906115e5565b610545565b6040516101e591906115a0565b60405180910390f35b6101f6610574565b6040516102039190611654565b60405180910390f35b61022660048036038101906102219190611545565b61057d565b60405161023391906115a0565b60405180910390f35b61025660048036038101906102519190611545565b6105b4565b005b610272600480360381019061026d919061166f565b6105ca565b60405161027f91906115ca565b60405180910390f35b610290610612565b005b6102ac60048036038101906102a7919061166f565b610626565b005b6102b6610672565b6040516102c391906116ab565b60405180910390f35b6102e660048036038101906102e19190611545565b61069c565b6040516102f391906115a0565b60405180910390f35b610304610719565b60405161031191906116ab565b60405180910390f35b61032261073f565b60405161032f919061148a565b60405180910390f35b610352600480360381019061034d91906116c6565b6107d1565b005b61036e60048036038101906103699190611545565b61083b565b60405161037b91906115a0565b60405180910390f35b61039e60048036038101906103999190611545565b61086a565b6040516103ab91906115a0565b60405180910390f35b6103ce60048036038101906103c99190611545565b6108e1565b6040516103db91906115a0565b60405180910390f35b6103ec6109d0565b6040516103f991906115ca565b60405180910390f35b61041c600480360381019061041791906116f3565b6109d6565b60405161042991906115ca565b60405180910390f35b61044c6004803603810190610447919061166f565b610a5d565b005b61046860048036038101906104639190611733565b610ae0565b005b610484600480360381019061047f9190611733565b610bad565b005b606060038054610495906117a2565b80601f01602080910402602001604051908101604052809291908181526020018280546104c1906117a2565b801561050e5780601f106104e35761010080835404028352916020019161050e565b820191906000526020600020905b8154815290600101906020018083116104f157829003601f168201915b5050505050905090565b600080610523610c7a565b9050610530818585610c82565b600191505092915050565b6000600254905090565b600080610550610c7a565b905061055d858285610e4b565b610568858585610ed7565b60019150509392505050565b60006012905090565b600080610588610c7a565b90506105a981858561059a85896109d6565b6105a49190611802565b610c82565b600191505092915050565b6105bc61114d565b6105c682826111cb565b5050565b60008060008373ffffffffffffffffffffffffffffffffffffffff1673ffffffffffffffffffffffffffffffffffffffff168152602001908152602001600020549050919050565b61061a61114d565b6106246000611321565b565b61062e61114d565b80600760006101000a81548173ffffffffffffffffffffffffffffffffffffffff021916908373ffffffffffffffffffffffffffffffffffffffff16021790555050565b6000600560009054906101000a900473ffffffffffffffffffffffffffffffffffffffff16905090565b6000806106a7610c7a565b9050600760009054906101000a900473ffffffffffffffffffffffffffffffffffffffff1673ffffffffffffffffffffffffffffffffffffffff168173ffffffffffffffffffffffffffffffffffffffff161461070357600080fd5b61070e818585610ed7565b600191505092915050565b600760009054906101000a900473ffffffffffffffffffffffffffffffffffffffff1681565b60606004805461074e906117a2565b80601f016020809104026020016040519081016040528092919081815260200182805461077a906117a2565b80156107c75780601f1061079c576101008083540402835291602001916107c7565b820191906000526020600020905b8154815290600101906020018083116107aa57829003601f168201915b5050505050905090565b6000339050600760009054906101000a900473ffffffffffffffffffffffffffffffffffffffff1673ffffffffffffffffffffffffffffffffffffffff168173ffffffffffffffffffffffffffffffffffffffff161461083057600080fd5b816006819055505050565b60086020528160005260406000206020528060005260406000206000915091509054906101000a900460ff1681565b600080610875610c7a565b9050600061088382866109d6565b9050838110156108c8576040517f08c379a00000000000000000000000000000000000000000000000000000000081526004016108bf906118ca565b60405180910390fd5b6108d58286868403610c82565b60019250505092915050565b6000806108ec610c7a565b905060005b6006548110156109b95760011515600860008473ffffffffffffffffffffffffffffffffffffffff1673ffffffffffffffffffffffffffffffffffffffff168152602001908152602001600020600083815260200190815260200160002060009054906101000a900460ff161515036109a65760006109a5576040517f08c379a000000000000000000000000000000000000000000000000000000000815260040161099c90611936565b60405180910390fd5b5b80806109b190611956565b9150506108f1565b506109c5818585610ed7565b600191505092915050565b60065481565b6000600160008473ffffffffffffffffffffffffffffffffffffffff1673ffffffffffffffffffffffffffffffffffffffff16815260200190815260200160002060008373ffffffffffffffffffffffffffffffffffffffff1673ffffffffffffffffffffffffffffffffffffffff16815260200190815260200160002054905092915050565b610a6561114d565b600073ffffffffffffffffffffffffffffffffffffffff168173ffffffffffffffffffffffffffffffffffffffff1603610ad4576040517f08c379a0000000000000000000000000000000000000000000000000000000008152600401610acb90611a10565b60405180910390fd5b610add81611321565b50565b6000339050600760009054906101000a900473ffffffffffffffffffffffffffffffffffffffff1673ffffffffffffffffffffffffffffffffffffffff168173ffffffffffffffffffffffffffffffffffffffff1614610b3f57600080fd5b6001600860008473ffffffffffffffffffffffffffffffffffffffff1673ffffffffffffffffffffffffffffffffffffffff168152602001908152602001600020600085815260200190815260200160002060006101000a81548160ff021916908315150217905550505050565b6000339050600760009054906101000a900473ffffffffffffffffffffffffffffffffffffffff1673ffffffffffffffffffffffffffffffffffffffff168173ffffffffffffffffffffffffffffffffffffffff1614610c0c57600080fd5b6000600860008473ffffffffffffffffffffffffffffffffffffffff1673ffffffffffffffffffffffffffffffffffffffff168152602001908152602001600020600085815260200190815260200160002060006101000a81548160ff021916908315150217905550505050565b600033905090565b600073ffffffffffffffffffffffffffffffffffffffff168373ffffffffffffffffffffffffffffffffffffffff1603610cf1576040517f08c379a0000000000000000000000000000000000000000000000000000000008152600401610ce890611aa2565b60405180910390fd5b600073ffffffffffffffffffffffffffffffffffffffff168273ffffffffffffffffffffffffffffffffffffffff1603610d60576040517f08c379a0000000000000000000000000000000000000000000000000000000008152600401610d5790611b34565b60405180910390fd5b80600160008573ffffffffffffffffffffffffffffffffffffffff1673ffffffffffffffffffffffffffffffffffffffff16815260200190815260200160002060008473ffffffffffffffffffffffffffffffffffffffff1673ffffffffffffffffffffffffffffffffffffffff168152602001908152602001600020819055508173ffffffffffffffffffffffffffffffffffffffff168373ffffffffffffffffffffffffffffffffffffffff167f8c5be1e5ebec7d5bd14f71427d1e84f3dd0314c0f7b2291e5b200ac8c7c3b92583604051610e3e91906115ca565b60405180910390a3505050565b6000610e5784846109d6565b90507fffffffffffffffffffffffffffffffffffffffffffffffffffffffffffffffff8114610ed15781811015610ec3576040517f08c379a0000000000000000000000000000000000000000000000000000000008152600401610eba90611ba0565b60405180910390fd5b610ed08484848403610c82565b5b50505050565b600073ffffffffffffffffffffffffffffffffffffffff168373ffffffffffffffffffffffffffffffffffffffff1603610f46576040517f08c379a0000000000000000000000000000000000000000000000000000000008152600401610f3d90611c32565b60405180910390fd5b600073ffffffffffffffffffffffffffffffffffffffff168273ffffffffffffffffffffffffffffffffffffffff1603610fb5576040517f08c379a0000000000000000000000000000000000000000000000000000000008152600401610fac90611cc4565b60405180910390fd5b610fc08383836113e7565b60008060008573ffffffffffffffffffffffffffffffffffffffff1673ffffffffffffffffffffffffffffffffffffffff16815260200190815260200160002054905081811015611046576040517f08c379a000000000000000000000000000000000000000000000000000000000815260040161103d90611d56565b60405180910390fd5b8181036000808673ffffffffffffffffffffffffffffffffffffffff1673ffffffffffffffffffffffffffffffffffffffff16815260200190815260200160002081905550816000808573ffffffffffffffffffffffffffffffffffffffff1673ffffffffffffffffffffffffffffffffffffffff168152602001908152602001600020600082825401925050819055508273ffffffffffffffffffffffffffffffffffffffff168473ffffffffffffffffffffffffffffffffffffffff167fddf252ad1be2c89b69c2b068fc378daa952ba7f163c4a11628f55a4df523b3ef8460405161113491906115ca565b60405180910390a36111478484846113ec565b50505050565b611155610c7a565b73ffffffffffffffffffffffffffffffffffffffff16611173610672565b73ffffffffffffffffffffffffffffffffffffffff16146111c9576040517f08c379a00000000000000000000000000000000000000000000000000000000081526004016111c090611dc2565b60405180910390fd5b565b600073ffffffffffffffffffffffffffffffffffffffff168273ffffffffffffffffffffffffffffffffffffffff160361123a576040517f08c379a000000000000000000000000000000000000000000000000000000000815260040161123190611e2e565b60405180910390fd5b611246600083836113e7565b80600260008282546112589190611802565b92505081905550806000808473ffffffffffffffffffffffffffffffffffffffff1673ffffffffffffffffffffffffffffffffffffffff168152602001908152602001600020600082825401925050819055508173ffffffffffffffffffffffffffffffffffffffff16600073ffffffffffffffffffffffffffffffffffffffff167fddf252ad1be2c89b69c2b068fc378daa952ba7f163c4a11628f55a4df523b3ef8360405161130991906115ca565b60405180910390a361131d600083836113ec565b5050565b6000600560009054906101000a900473ffffffffffffffffffffffffffffffffffffffff16905081600560006101000a81548173ffffffffffffffffffffffffffffffffffffffff021916908373ffffffffffffffffffffffffffffffffffffffff1602179055508173ffffffffffffffffffffffffffffffffffffffff168173ffffffffffffffffffffffffffffffffffffffff167f8be0079c531659141344cd1fd0a4f28419497f9722a3daafe3b4186f6b6457e060405160405180910390a35050565b505050565b505050565b600081519050919050565b600082825260208201905092915050565b60005b8381101561142b578082015181840152602081019050611410565b8381111561143a576000848401525b50505050565b6000601f19601f8301169050919050565b600061145c826113f1565b61146681856113fc565b935061147681856020860161140d565b61147f81611440565b840191505092915050565b600060208201905081810360008301526114a48184611451565b905092915050565b600080fd5b600073ffffffffffffffffffffffffffffffffffffffff82169050919050565b60006114dc826114b1565b9050919050565b6114ec816114d1565b81146114f757600080fd5b50565b600081359050611509816114e3565b92915050565b6000819050919050565b6115228161150f565b811461152d57600080fd5b50565b60008135905061153f81611519565b92915050565b6000806040838503121561155c5761155b6114ac565b5b600061156a858286016114fa565b925050602061157b85828601611530565b9150509250929050565b60008115159050919050565b61159a81611585565b82525050565b60006020820190506115b56000830184611591565b92915050565b6115c48161150f565b82525050565b60006020820190506115df60008301846115bb565b92915050565b6000806000606084860312156115fe576115fd6114ac565b5b600061160c868287016114fa565b935050602061161d868287016114fa565b925050604061162e86828701611530565b9150509250925092565b600060ff82169050919050565b61164e81611638565b82525050565b60006020820190506116696000830184611645565b92915050565b600060208284031215611685576116846114ac565b5b6000611693848285016114fa565b91505092915050565b6116a5816114d1565b82525050565b60006020820190506116c0600083018461169c565b92915050565b6000602082840312156116dc576116db6114ac565b5b60006116ea84828501611530565b91505092915050565b6000806040838503121561170a576117096114ac565b5b6000611718858286016114fa565b9250506020611729858286016114fa565b9150509250929050565b6000806040838503121561174a576117496114ac565b5b600061175885828601611530565b9250506020611769858286016114fa565b9150509250929050565b7f4e487b7100000000000000000000000000000000000000000000000000000000600052602260045260246000fd5b600060028204905060018216806117ba57607f821691505b6020821081036117cd576117cc611773565b5b50919050565b7f4e487b7100000000000000000000000000000000000000000000000000000000600052601160045260246000fd5b600061180d8261150f565b91506118188361150f565b9250827fffffffffffffffffffffffffffffffffffffffffffffffffffffffffffffffff0382111561184d5761184c6117d3565b5b828201905092915050565b7f45524332303a2064656372656173656420616c6c6f77616e63652062656c6f7760008201527f207a65726f000000000000000000000000000000000000000000000000000000602082015250565b60006118b46025836113fc565b91506118bf82611858565b604082019050919050565b600060208201905081810360008301526118e3816118a7565b9050919050565b7f686176652061637469766520766f74696e670000000000000000000000000000600082015250565b60006119206012836113fc565b915061192b826118ea565b602082019050919050565b6000602082019050818103600083015261194f81611913565b9050919050565b60006119618261150f565b91507fffffffffffffffffffffffffffffffffffffffffffffffffffffffffffffffff8203611993576119926117d3565b5b600182019050919050565b7f4f776e61626c653a206e6577206f776e657220697320746865207a65726f206160008201527f6464726573730000000000000000000000000000000000000000000000000000602082015250565b60006119fa6026836113fc565b9150611a058261199e565b604082019050919050565b60006020820190508181036000830152611a29816119ed565b9050919050565b7f45524332303a20617070726f76652066726f6d20746865207a65726f2061646460008201527f7265737300000000000000000000000000000000000000000000000000000000602082015250565b6000611a8c6024836113fc565b9150611a9782611a30565b604082019050919050565b60006020820190508181036000830152611abb81611a7f565b9050919050565b7f45524332303a20617070726f766520746f20746865207a65726f20616464726560008201527f7373000000000000000000000000000000000000000000000000000000000000602082015250565b6000611b1e6022836113fc565b9150611b2982611ac2565b604082019050919050565b60006020820190508181036000830152611b4d81611b11565b9050919050565b7f45524332303a20696e73756666696369656e7420616c6c6f77616e6365000000600082015250565b6000611b8a601d836113fc565b9150611b9582611b54565b602082019050919050565b60006020820190508181036000830152611bb981611b7d565b9050919050565b7f45524332303a207472616e736665722066726f6d20746865207a65726f20616460008201527f6472657373000000000000000000000000000000000000000000000000000000602082015250565b6000611c1c6025836113fc565b9150611c2782611bc0565b604082019050919050565b60006020820190508181036000830152611c4b81611c0f565b9050919050565b7f45524332303a207472616e7366657220746f20746865207a65726f206164647260008201527f6573730000000000000000000000000000000000000000000000000000000000602082015250565b6000611cae6023836113fc565b9150611cb982611c52565b604082019050919050565b60006020820190508181036000830152611cdd81611ca1565b9050919050565b7f45524332303a207472616e7366657220616d6f756e742065786365656473206260008201527f616c616e63650000000000000000000000000000000000000000000000000000602082015250565b6000611d406026836113fc565b9150611d4b82611ce4565b604082019050919050565b60006020820190508181036000830152611d6f81611d33565b9050919050565b7f4f776e61626c653a2063616c6c6572206973206e6f7420746865206f776e6572600082015250565b6000611dac6020836113fc565b9150611db782611d76565b602082019050919050565b60006020820190508181036000830152611ddb81611d9f565b9050919050565b7f45524332303a206d696e7420746f20746865207a65726f206164647265737300600082015250565b6000611e18601f836113fc565b9150611e2382611de2565b602082019050919050565b60006020820190508181036000830152611e4781611e0b565b905091905056fea2646970667358221220c38b13b4a5a11e6fbfd481dc9c05ac8f6af9c4433125b07f77ffa9ac377fe34064736f6c634300080d003360806040523480156200001157600080fd5b5060405162004c9638038062004c96833981810160405281019062000037919062000534565b80600260006101000a81548173ffffffffffffffffffffffffffffffffffffffff021916908373ffffffffffffffffffffffffffffffffffffffff160217905550856000908051906020019062000090929190620001f8565b508460019080519060200190620000a9929190620001f8565b5082600a60006101000a81548173ffffffffffffffffffffffffffffffffffffffff021916908373ffffffffffffffffffffffffffffffffffffffff16021790555081600960006101000a81548173ffffffffffffffffffffffffffffffffffffffff021916908373ffffffffffffffffffffffffffffffffffffffff160217905550670de0b6b3a7640000600860008673ffffffffffffffffffffffffffffffffffffffff1673ffffffffffffffffffffffffffffffffffffffff168152602001908152602001600020600082825462000185919062000647565b92505081905550670de0b6b3a7640000600760008673ffffffffffffffffffffffffffffffffffffffff1673ffffffffffffffffffffffffffffffffffffffff1681526020019081526020016000206000828254620001e5919062000647565b9250508190555050505050505062000708565b8280546200020690620006d3565b90600052602060002090601f0160209004810192826200022a576000855562000276565b82601f106200024557805160ff191683800117855562000276565b8280016001018555821562000276579182015b828111156200027557825182559160200191906001019062000258565b5b50905062000285919062000289565b5090565b5b80821115620002a45760008160009055506001016200028a565b5090565b6000604051905090565b600080fd5b600080fd5b600080fd5b600080fd5b6000601f19601f8301169050919050565b7f4e487b7100000000000000000000000000000000000000000000000000000000600052604160045260246000fd5b6200031182620002c6565b810181811067ffffffffffffffff82111715620003335762000332620002d7565b5b80604052505050565b600062000348620002a8565b905062000356828262000306565b919050565b600067ffffffffffffffff821115620003795762000378620002d7565b5b6200038482620002c6565b9050602081019050919050565b60005b83811015620003b157808201518184015260208101905062000394565b83811115620003c1576000848401525b50505050565b6000620003de620003d8846200035b565b6200033c565b905082815260208101848484011115620003fd57620003fc620002c1565b5b6200040a84828562000391565b509392505050565b600082601f8301126200042a5762000429620002bc565b5b81516200043c848260208601620003c7565b91505092915050565b600073ffffffffffffffffffffffffffffffffffffffff82169050919050565b6000620004728262000445565b9050919050565b620004848162000465565b81146200049057600080fd5b50565b600081519050620004a48162000479565b92915050565b6000620004b78262000465565b9050919050565b620004c981620004aa565b8114620004d557600080fd5b50565b600081519050620004e981620004be565b92915050565b6000620004fc8262000465565b9050919050565b6200050e81620004ef565b81146200051a57600080fd5b50565b6000815190506200052e8162000503565b92915050565b60008060008060008060c08789031215620005545762000553620002b2565b5b600087015167ffffffffffffffff811115620005755762000574620002b7565b5b6200058389828a0162000412565b965050602087015167ffffffffffffffff811115620005a757620005a6620002b7565b5b620005b589828a0162000412565b9550506040620005c889828a0162000493565b9450506060620005db89828a01620004d8565b9350506080620005ee89828a01620004d8565b92505060a06200060189828a016200051d565b9150509295509295509295565b6000819050919050565b7f4e487b7100000000000000000000000000000000000000000000000000000000600052601160045260246000fd5b600062000654826200060e565b915062000661836200060e565b9250827fffffffffffffffffffffffffffffffffffffffffffffffffffffffffffffffff0382111562000699576200069862000618565b5b828201905092915050565b7f4e487b7100000000000000000000000000000000000000000000000000000000600052602260045260246000fd5b60006002820490506001821680620006ec57607f821691505b602082108103620007025762000701620006a4565b5b50919050565b61457e80620007186000396000f3fe608060405234801561001057600080fd5b50600436106101cf5760003560e01c80639a5fa0b711610104578063d25129c4116100a2578063e5c28c9011610071578063e5c28c9014610540578063e937688214610570578063f70e51a71461058e578063f9b8a27a146105ac576101cf565b8063d25129c414610492578063d8c6bc21146104c2578063d978ffba146104f2578063dd3bf85c14610522576101cf565b8063a2ded950116100de578063a2ded95014610420578063a44b21ae1461043c578063a9a2a4a314610458578063cf5265d814610488576101cf565b80639a5fa0b7146103b65780639d92c108146103d25780639f2524ee146103f0576101cf565b8063560d09b6116101715780637e11a5561161014b5780637e11a556146103325780638661fa701461034e5780638a19ab351461036a5780638f7c59d014610386576101cf565b8063560d09b6146102b457806362b25fc6146102e457806371df560514610302576101cf565b806323ee2c83116101ad57806323ee2c83146102425780632ab09d141461025e5780632c14ed171461027c57806342b9d7e414610298576101cf565b8063013cf08b146101d457806307e25f271461020a57806314e72f4314610226575b600080fd5b6101ee60048036038101906101e99190612f9a565b6105c8565b6040516102019796959493929190613127565b60405180910390f35b610224600480360381019061021f9190612f9a565b610747565b005b610240600480360381019061023b91906131d0565b610789565b005b61025c600480360381019061025791906131d0565b6108dc565b005b610266610a83565b6040516102739190613210565b60405180910390f35b61029660048036038101906102919190612f9a565b610a89565b005b6102b260048036038101906102ad9190612f9a565b610acb565b005b6102ce60048036038101906102c99190612f9a565b610c89565b6040516102db9190613210565b60405180910390f35b6102ec610cb2565b6040516102f99190613337565b60405180910390f35b61031c60048036038101906103179190613359565b610ded565b6040516103299190613210565b60405180910390f35b61034c600480360381019061034791906131d0565b610e05565b005b61036860048036038101906103639190613664565b610fac565b005b610384600480360381019061037f9190612f9a565b611614565b005b6103a0600480360381019061039b9190612f9a565b6117bf565b6040516103ad9190613337565b60405180910390f35b6103d060048036038101906103cb91906136ef565b611946565b005b6103da611cf0565b6040516103e791906137be565b60405180910390f35b61040a600480360381019061040591906131d0565b611d7e565b60405161041791906137fb565b60405180910390f35b61043a60048036038101906104359190612f9a565b611dad565b005b61045660048036038101906104519190613816565b611def565b005b610472600480360381019061046d91906131d0565b612554565b60405161047f9190613210565b60405180910390f35b610490612579565b005b6104ac60048036038101906104a79190612f9a565b612773565b6040516104b99190613973565b60405180910390f35b6104dc60048036038101906104d79190613359565b61286e565b6040516104e99190613210565b60405180910390f35b61050c60048036038101906105079190612f9a565b612886565b60405161051991906137be565b60405180910390f35b61052a612934565b60405161053791906139f4565b60405180910390f35b61055a600480360381019061055591906131d0565b61295a565b60405161056791906137fb565b60405180910390f35b610578612989565b60405161058591906137be565b60405180910390f35b610596612a17565b6040516105a391906139f4565b60405180910390f35b6105c660048036038101906105c191906131d0565b612a3d565b005b60036020528060005260406000206000915090508060000154908060010160009054906101000a900473ffffffffffffffffffffffffffffffffffffffff169080600201805461061790613a3e565b80601f016020809104026020016040519081016040528092919081815260200182805461064390613a3e565b80156106905780601f1061066557610100808354040283529160200191610690565b820191906000526020600020905b81548152906001019060200180831161067357829003601f168201915b5050505050908060030154908060060160009054906101000a900460ff16908060070154908060080180546106c490613a3e565b80601f01602080910402602001604051908101604052809291908181526020018280546106f090613a3e565b801561073d5780601f106107125761010080835404028352916020019161073d565b820191906000526020600020905b81548152906001019060200180831161072057829003601f168201915b5050505050905087565b60016003600083815260200190815260200160002060060160006101000a81548160ff02191690836002811115610781576107806130b0565b5b021790555050565b670de0b6b3a7640000600a60009054906101000a900473ffffffffffffffffffffffffffffffffffffffff1673ffffffffffffffffffffffffffffffffffffffff166370a08231336040518263ffffffff1660e01b81526004016107ed9190613a6f565b602060405180830381865afa15801561080a573d6000803e3d6000fd5b505050506040513d601f19601f8201168201806040525081019061082e9190613a9f565b101561086f576040517f08c379a000000000000000000000000000000000000000000000000000000000815260040161086690613b18565b60405180910390fd5b670de0b6b3a7640000816108839190613b67565b600860008473ffffffffffffffffffffffffffffffffffffffff1673ffffffffffffffffffffffffffffffffffffffff16815260200190815260200160002060008282546108d19190613bc1565b925050819055505050565b670de0b6b3a7640000600a60009054906101000a900473ffffffffffffffffffffffffffffffffffffffff1673ffffffffffffffffffffffffffffffffffffffff166370a08231336040518263ffffffff1660e01b81526004016109409190613a6f565b602060405180830381865afa15801561095d573d6000803e3d6000fd5b505050506040513d601f19601f820116820180604052508101906109819190613a9f565b10156109c2576040517f08c379a00000000000000000000000000000000000000000000000000000000081526004016109b990613b18565b60405180910390fd5b600960009054906101000a900473ffffffffffffffffffffffffffffffffffffffff1673ffffffffffffffffffffffffffffffffffffffff16638da9e67783670de0b6b3a764000084610a159190613b67565b6040518363ffffffff1660e01b8152600401610a32929190613c17565b6020604051808303816000875af1158015610a51573d6000803e3d6000fd5b505050506040513d601f19601f82011682018060405250810190610a759190613c6c565b50610a7f81612b90565b5050565b600b5481565b60026003600083815260200190815260200160002060060160006101000a81548160ff02191690836002811115610ac357610ac26130b0565b5b021790555050565b670de0b6b3a764000081610adf9190613b67565b600760003373ffffffffffffffffffffffffffffffffffffffff1673ffffffffffffffffffffffffffffffffffffffff168152602001908152602001600020541015610b60576040517f08c379a0000000000000000000000000000000000000000000000000000000008152600401610b5790613ce5565b60405180910390fd5b670de0b6b3a764000081610b749190613b67565b600760003373ffffffffffffffffffffffffffffffffffffffff1673ffffffffffffffffffffffffffffffffffffffff1681526020019081526020016000206000828254610bc29190613d05565b92505081905550600960009054906101000a900473ffffffffffffffffffffffffffffffffffffffff1673ffffffffffffffffffffffffffffffffffffffff16638da9e67733670de0b6b3a764000084610c1c9190613b67565b6040518363ffffffff1660e01b8152600401610c39929190613c17565b6020604051808303816000875af1158015610c58573d6000803e3d6000fd5b505050506040513d601f19601f82011682018060405250810190610c7c9190613c6c565b50610c8681612b90565b50565b600080600090506003600084815260200190815260200160002060070154905080915050919050565b60606000600b5467ffffffffffffffff811115610cd257610cd161338b565b5b604051908082528060200260200182016040528015610d0557816020015b6060815260200190600190039081610cf05790505b50905060005b600b54811015610de557600360008281526020019081526020016000206002018054610d3690613a3e565b80601f0160208091040260200160405190810160405280929190818152602001828054610d6290613a3e565b8015610daf5780601f10610d8457610100808354040283529160200191610daf565b820191906000526020600020905b815481529060010190602001808311610d9257829003601f168201915b5050505050828281518110610dc757610dc6613d39565b5b60200260200101819052508080610ddd90613d68565b915050610d0b565b508091505090565b60086020528060005260406000206000915090505481565b670de0b6b3a7640000600a60009054906101000a900473ffffffffffffffffffffffffffffffffffffffff1673ffffffffffffffffffffffffffffffffffffffff166370a08231336040518263ffffffff1660e01b8152600401610e699190613a6f565b602060405180830381865afa158015610e86573d6000803e3d6000fd5b505050506040513d601f19601f82011682018060405250810190610eaa9190613a9f565b1015610eeb576040517f08c379a0000000000000000000000000000000000000000000000000000000008152600401610ee290613b18565b60405180910390fd5b600a60009054906101000a900473ffffffffffffffffffffffffffffffffffffffff1673ffffffffffffffffffffffffffffffffffffffff16638da9e67783670de0b6b3a764000084610f3e9190613b67565b6040518363ffffffff1660e01b8152600401610f5b929190613c17565b6020604051808303816000875af1158015610f7a573d6000803e3d6000fd5b505050506040513d601f19601f82011682018060405250810190610f9e9190613c6c565b50610fa881612c24565b5050565b600060036000858152602001908152602001600020905060001515600460003373ffffffffffffffffffffffffffffffffffffffff1673ffffffffffffffffffffffffffffffffffffffff168152602001908152602001600020600086815260200190815260200160002060009054906101000a900460ff16151514611067576040517f08c379a000000000000000000000000000000000000000000000000000000000815260040161105e90613dfc565b60405180910390fd5b6000600960009054906101000a900473ffffffffffffffffffffffffffffffffffffffff1673ffffffffffffffffffffffffffffffffffffffff166370a08231336040518263ffffffff1660e01b81526004016110c49190613a6f565b602060405180830381865afa1580156110e1573d6000803e3d6000fd5b505050506040513d601f19601f820116820180604052508101906111059190613a9f565b11611145576040517f08c379a000000000000000000000000000000000000000000000000000000000815260040161113c90613e8e565b60405180910390fd5b62093a8081600301546111589190613bc1565b42111561119a576040517f08c379a000000000000000000000000000000000000000000000000000000000815260040161119190613efa565b60405180910390fd5b6002808111156111ad576111ac6130b0565b5b6003600086815260200190815260200160002060060160009054906101000a900460ff1660028111156111e3576111e26130b0565b5b14611223576040517f08c379a000000000000000000000000000000000000000000000000000000000815260040161121a90613f66565b60405180910390fd5b6000805b835181101561126b5783818151811061124357611242613d39565b5b6020026020010151826112569190613bc1565b9150808061126390613d68565b915050611227565b50816007015481111561127d57600080fd5b6000805b83600401805490508110156113995760005b8651811015611385576113688560040183815481106112b5576112b4613d39565b5b9060005260206000200180546112ca90613a3e565b80601f01602080910402602001604051908101604052809291908181526020018280546112f690613a3e565b80156113435780601f1061131857610100808354040283529160200191611343565b820191906000526020600020905b81548152906001019060200180831161132657829003601f168201915b505050505088838151811061135b5761135a613d39565b5b6020026020010151612cb8565b1561137257600192505b808061137d90613d68565b915050611293565b50808061139190613d68565b915050611281565b5060011515811515146113ab57600080fd5b60005b83600401805490508110156115135760005b86518110156114ff576114958560040183815481106113e2576113e1613d39565b5b9060005260206000200180546113f790613a3e565b80601f016020809104026020016040519081016040528092919081815260200182805461142390613a3e565b80156114705780601f1061144557610100808354040283529160200191611470565b820191906000526020600020905b81548152906001019060200180831161145357829003601f168201915b505050505088838151811061148857611487613d39565b5b6020026020010151612cb8565b156114ec578581815181106114ad576114ac613d39565b5b60200260200101518560050183815481106114cb576114ca613d39565b5b9060005260206000200160008282546114e49190613bc1565b925050819055505b80806114f790613d68565b9150506113c0565b50808061150b90613d68565b9150506113ae565b506001600460003373ffffffffffffffffffffffffffffffffffffffff1673ffffffffffffffffffffffffffffffffffffffff168152602001908152602001600020600088815260200190815260200160002060006101000a81548160ff021916908315150217905550600960009054906101000a900473ffffffffffffffffffffffffffffffffffffffff1673ffffffffffffffffffffffffffffffffffffffff1663fc13d51887336040518363ffffffff1660e01b81526004016115da929190613f86565b600060405180830381600087803b1580156115f457600080fd5b505af1158015611608573d6000803e3d6000fd5b50505050505050505050565b80600860003373ffffffffffffffffffffffffffffffffffffffff1673ffffffffffffffffffffffffffffffffffffffff168152602001908152602001600020541015611696576040517f08c379a000000000000000000000000000000000000000000000000000000000815260040161168d90613ce5565b60405180910390fd5b670de0b6b3a7640000816116aa9190613b67565b600860003373ffffffffffffffffffffffffffffffffffffffff1673ffffffffffffffffffffffffffffffffffffffff16815260200190815260200160002060008282546116f89190613d05565b92505081905550600a60009054906101000a900473ffffffffffffffffffffffffffffffffffffffff1673ffffffffffffffffffffffffffffffffffffffff16638da9e67733670de0b6b3a7640000846117529190613b67565b6040518363ffffffff1660e01b815260040161176f929190613c17565b6020604051808303816000875af115801561178e573d6000803e3d6000fd5b505050506040513d601f19601f820116820180604052508101906117b29190613c6c565b506117bc81612c24565b50565b60606000600360008481526020019081526020016000206004018054905067ffffffffffffffff8111156117f6576117f561338b565b5b60405190808252806020026020018201604052801561182957816020015b60608152602001906001900390816118145790505b50905060005b600360008581526020019081526020016000206004018054905081101561193c5760036000858152602001908152602001600020600401818154811061187857611877613d39565b5b90600052602060002001805461188d90613a3e565b80601f01602080910402602001604051908101604052809291908181526020018280546118b990613a3e565b80156119065780601f106118db57610100808354040283529160200191611906565b820191906000526020600020905b8154815290600101906020018083116118e957829003601f168201915b505050505082828151811061191e5761191d613d39565b5b6020026020010181905250808061193490613d68565b91505061182f565b5080915050919050565b670de0b6b3a7640000600a60009054906101000a900473ffffffffffffffffffffffffffffffffffffffff1673ffffffffffffffffffffffffffffffffffffffff166370a08231336040518263ffffffff1660e01b81526004016119aa9190613a6f565b602060405180830381865afa1580156119c7573d6000803e3d6000fd5b505050506040513d601f19601f820116820180604052508101906119eb9190613a9f565b1015611a2c576040517f08c379a0000000000000000000000000000000000000000000000000000000008152600401611a2390614021565b60405180910390fd5b606060008203611a73576040518060400160405280600681526020017f6e6f726d616c00000000000000000000000000000000000000000000000000008152509050611ab5565b60018203611ab4576040518060400160405280600881526020017f776569676874656400000000000000000000000000000000000000000000000081525090505b5b604051806101200160405280600b5481526020013373ffffffffffffffffffffffffffffffffffffffff168152602001878152602001428152602001868152602001858152602001600280811115611b1057611b0f6130b0565b5b81526020018481526020018281525060036000600b5481526020019081526020016000206000820151816000015560208201518160010160006101000a81548173ffffffffffffffffffffffffffffffffffffffff021916908373ffffffffffffffffffffffffffffffffffffffff1602179055506040820151816002019080519060200190611ba1929190612d9c565b50606082015181600301556080820151816004019080519060200190611bc8929190612e22565b5060a0820151816005019080519060200190611be5929190612e82565b5060c08201518160060160006101000a81548160ff02191690836002811115611c1157611c106130b0565b5b021790555060e08201518160070155610100820151816008019080519060200190611c3d929190612d9c565b50905050600b6000815480929190611c5490613d68565b9190505550600960009054906101000a900473ffffffffffffffffffffffffffffffffffffffff1673ffffffffffffffffffffffffffffffffffffffff1663a19dea70600b546040518263ffffffff1660e01b8152600401611cb69190613210565b600060405180830381600087803b158015611cd057600080fd5b505af1158015611ce4573d6000803e3d6000fd5b50505050505050505050565b60018054611cfd90613a3e565b80601f0160208091040260200160405190810160405280929190818152602001828054611d2990613a3e565b8015611d765780601f10611d4b57610100808354040283529160200191611d76565b820191906000526020600020905b815481529060010190602001808311611d5957829003601f168201915b505050505081565b60046020528160005260406000206020528060005260406000206000915091509054906101000a900460ff1681565b60006003600083815260200190815260200160002060060160006101000a81548160ff02191690836002811115611de757611de66130b0565b5b021790555050565b600060036000868152602001908152602001600020905060001515600460003373ffffffffffffffffffffffffffffffffffffffff1673ffffffffffffffffffffffffffffffffffffffff168152602001908152602001600020600087815260200190815260200160002060009054906101000a900460ff16151514611eaa576040517f08c379a0000000000000000000000000000000000000000000000000000000008152600401611ea190613dfc565b60405180910390fd5b670de0b6b3a7640000600960009054906101000a900473ffffffffffffffffffffffffffffffffffffffff1673ffffffffffffffffffffffffffffffffffffffff166370a08231336040518263ffffffff1660e01b8152600401611f0e9190613a6f565b602060405180830381865afa158015611f2b573d6000803e3d6000fd5b505050506040513d601f19601f82011682018060405250810190611f4f9190613a9f565b611f599190614070565b821115611f9b576040517f08c379a0000000000000000000000000000000000000000000000000000000008152600401611f9290614113565b60405180910390fd5b6000600960009054906101000a900473ffffffffffffffffffffffffffffffffffffffff1673ffffffffffffffffffffffffffffffffffffffff166370a08231336040518263ffffffff1660e01b8152600401611ff89190613a6f565b602060405180830381865afa158015612015573d6000803e3d6000fd5b505050506040513d601f19601f820116820180604052508101906120399190613a9f565b11612079576040517f08c379a0000000000000000000000000000000000000000000000000000000008152600401612070906141a5565b60405180910390fd5b62093a80816003015461208c9190613bc1565b4211156120ce576040517f08c379a00000000000000000000000000000000000000000000000000000000081526004016120c590613efa565b60405180910390fd5b6002808111156120e1576120e06130b0565b5b6003600087815260200190815260200160002060060160009054906101000a900460ff166002811115612117576121166130b0565b5b14612157576040517f08c379a000000000000000000000000000000000000000000000000000000000815260040161214e90613f66565b60405180910390fd5b6000805b845181101561219f5784818151811061217757612176613d39565b5b60200260200101518261218a9190613bc1565b9150808061219790613d68565b91505061215b565b5081600701548111156121b157600080fd5b6000805b83600401805490508110156122cd5760005b87518110156122b95761229c8560040183815481106121e9576121e8613d39565b5b9060005260206000200180546121fe90613a3e565b80601f016020809104026020016040519081016040528092919081815260200182805461222a90613a3e565b80156122775780601f1061224c57610100808354040283529160200191612277565b820191906000526020600020905b81548152906001019060200180831161225a57829003601f168201915b505050505089838151811061228f5761228e613d39565b5b6020026020010151612cb8565b156122a657600192505b80806122b190613d68565b9150506121c7565b5080806122c590613d68565b9150506121b5565b5060011515811515146122df57600080fd5b60005b83600401805490508110156124525760005b875181101561243e576123c985600401838154811061231657612315613d39565b5b90600052602060002001805461232b90613a3e565b80601f016020809104026020016040519081016040528092919081815260200182805461235790613a3e565b80156123a45780601f10612379576101008083540402835291602001916123a4565b820191906000526020600020905b81548152906001019060200180831161238757829003601f168201915b50505050508983815181106123bc576123bb613d39565b5b6020026020010151612cb8565b1561242b57858782815181106123e2576123e1613d39565b5b60200260200101516123f49190613b67565b85600501838154811061240a57612409613d39565b5b9060005260206000200160008282546124239190613bc1565b925050819055505b808061243690613d68565b9150506122f4565b50808061244a90613d68565b9150506122e2565b506001600460003373ffffffffffffffffffffffffffffffffffffffff1673ffffffffffffffffffffffffffffffffffffffff168152602001908152602001600020600089815260200190815260200160002060006101000a81548160ff021916908315150217905550600960009054906101000a900473ffffffffffffffffffffffffffffffffffffffff1673ffffffffffffffffffffffffffffffffffffffff1663fc13d51888336040518363ffffffff1660e01b8152600401612519929190613f86565b600060405180830381600087803b15801561253357600080fd5b505af1158015612547573d6000803e3d6000fd5b5050505050505050505050565b6006602052816000526040600020602052806000526040600020600091509150505481565b60005b600b5481101561277057600280811115612599576125986130b0565b5b6003600083815260200190815260200160002060060160009054906101000a900460ff1660028111156125cf576125ce6130b0565b5b1461266457600960009054906101000a900473ffffffffffffffffffffffffffffffffffffffff1673ffffffffffffffffffffffffffffffffffffffff1663ff2b5fa182336040518363ffffffff1660e01b8152600401612631929190613f86565b600060405180830381600087803b15801561264b57600080fd5b505af115801561265f573d6000803e3d6000fd5b505050505b7f61bf162c6b8b838fa2759708ac7f938260ec056c09518ed3e6c8ddbf47873edd60036000838152602001908152602001600020600001546003600084815260200190815260200160002060010160009054906101000a900473ffffffffffffffffffffffffffffffffffffffff166003600085815260200190815260200160002060020160036000868152602001908152602001600020600401600360008781526020019081526020016000206005016003600088815260200190815260200160002060070154600360008981526020019081526020016000206008016040516127559796959493929190614465565b60405180910390a1808061276890613d68565b91505061257c565b50565b60606000600360008481526020019081526020016000206005018054905067ffffffffffffffff8111156127aa576127a961338b565b5b6040519080825280602002602001820160405280156127d85781602001602082028036833780820191505090505b50905060005b60036000858152602001908152602001600020600501805490508110156128645760036000858152602001908152602001600020600501818154811061282757612826613d39565b5b906000526020600020015482828151811061284557612844613d39565b5b602002602001018181525050808061285c90613d68565b9150506127de565b5080915050919050565b60076020528060005260406000206000915090505481565b606060006003600084815260200190815260200160002060080180546128ab90613a3e565b80601f01602080910402602001604051908101604052809291908181526020018280546128d790613a3e565b80156129245780601f106128f957610100808354040283529160200191612924565b820191906000526020600020905b81548152906001019060200180831161290757829003601f168201915b5050505050905080915050919050565b600960009054906101000a900473ffffffffffffffffffffffffffffffffffffffff1681565b60056020528160005260406000206020528060005260406000206000915091509054906101000a900460ff1681565b6000805461299690613a3e565b80601f01602080910402602001604051908101604052809291908181526020018280546129c290613a3e565b8015612a0f5780601f106129e457610100808354040283529160200191612a0f565b820191906000526020600020905b8154815290600101906020018083116129f257829003601f168201915b505050505081565b600a60009054906101000a900473ffffffffffffffffffffffffffffffffffffffff1681565b670de0b6b3a7640000600a60009054906101000a900473ffffffffffffffffffffffffffffffffffffffff1673ffffffffffffffffffffffffffffffffffffffff166370a08231336040518263ffffffff1660e01b8152600401612aa19190613a6f565b602060405180830381865afa158015612abe573d6000803e3d6000fd5b505050506040513d601f19601f82011682018060405250810190612ae29190613a9f565b1015612b23576040517f08c379a0000000000000000000000000000000000000000000000000000000008152600401612b1a90613b18565b60405180910390fd5b670de0b6b3a764000081612b379190613b67565b600760008473ffffffffffffffffffffffffffffffffffffffff1673ffffffffffffffffffffffffffffffffffffffff1681526020019081526020016000206000828254612b859190613bc1565b925050819055505050565b600260009054906101000a900473ffffffffffffffffffffffffffffffffffffffff1673ffffffffffffffffffffffffffffffffffffffff166350ee8e8f3083336040518463ffffffff1660e01b8152600401612bef93929190614511565b600060405180830381600087803b158015612c0957600080fd5b505af1158015612c1d573d6000803e3d6000fd5b5050505050565b600260009054906101000a900473ffffffffffffffffffffffffffffffffffffffff1673ffffffffffffffffffffffffffffffffffffffff1663205cdcff3083336040518463ffffffff1660e01b8152600401612c8393929190614511565b600060405180830381600087803b158015612c9d57600080fd5b505af1158015612cb1573d6000803e3d6000fd5b5050505050565b600080839050600083905060008251905081518114612cdd5760009350505050612d96565b60005b81811015612d8d57828181518110612cfb57612cfa613d39565b5b602001015160f81c60f81b7effffffffffffffffffffffffffffffffffffffffffffffffffffffffffffff1916848281518110612d3b57612d3a613d39565b5b602001015160f81c60f81b7effffffffffffffffffffffffffffffffffffffffffffffffffffffffffffff191614612d7a576000945050505050612d96565b8080612d8590613d68565b915050612ce0565b50600193505050505b92915050565b828054612da890613a3e565b90600052602060002090601f016020900481019282612dca5760008555612e11565b82601f10612de357805160ff1916838001178555612e11565b82800160010185558215612e11579182015b82811115612e10578251825591602001919060010190612df5565b5b509050612e1e9190612ecf565b5090565b828054828255906000526020600020908101928215612e71579160200282015b82811115612e70578251829080519060200190612e60929190612d9c565b5091602001919060010190612e42565b5b509050612e7e9190612eec565b5090565b828054828255906000526020600020908101928215612ebe579160200282015b82811115612ebd578251825591602001919060010190612ea2565b5b509050612ecb9190612ecf565b5090565b5b80821115612ee8576000816000905550600101612ed0565b5090565b5b80821115612f0c5760008181612f039190612f10565b50600101612eed565b5090565b508054612f1c90613a3e565b6000825580601f10612f2e5750612f4d565b601f016020900490600052602060002090810190612f4c9190612ecf565b5b50565b6000604051905090565b600080fd5b600080fd5b6000819050919050565b612f7781612f64565b8114612f8257600080fd5b50565b600081359050612f9481612f6e565b92915050565b600060208284031215612fb057612faf612f5a565b5b6000612fbe84828501612f85565b91505092915050565b612fd081612f64565b82525050565b600073ffffffffffffffffffffffffffffffffffffffff82169050919050565b600061300182612fd6565b9050919050565b61301181612ff6565b82525050565b600081519050919050565b600082825260208201905092915050565b60005b83811015613051578082015181840152602081019050613036565b83811115613060576000848401525b50505050565b6000601f19601f8301169050919050565b600061308282613017565b61308c8185613022565b935061309c818560208601613033565b6130a581613066565b840191505092915050565b7f4e487b7100000000000000000000000000000000000000000000000000000000600052602160045260246000fd5b600381106130f0576130ef6130b0565b5b50565b6000819050613101826130df565b919050565b6000613111826130f3565b9050919050565b61312181613106565b82525050565b600060e08201905061313c600083018a612fc7565b6131496020830189613008565b818103604083015261315b8188613077565b905061316a6060830187612fc7565b6131776080830186613118565b61318460a0830185612fc7565b81810360c08301526131968184613077565b905098975050505050505050565b6131ad81612ff6565b81146131b857600080fd5b50565b6000813590506131ca816131a4565b92915050565b600080604083850312156131e7576131e6612f5a565b5b60006131f5858286016131bb565b925050602061320685828601612f85565b9150509250929050565b60006020820190506132256000830184612fc7565b92915050565b600081519050919050565b600082825260208201905092915050565b6000819050602082019050919050565b600082825260208201905092915050565b600061327382613017565b61327d8185613257565b935061328d818560208601613033565b61329681613066565b840191505092915050565b60006132ad8383613268565b905092915050565b6000602082019050919050565b60006132cd8261322b565b6132d78185613236565b9350836020820285016132e985613247565b8060005b85811015613325578484038952815161330685826132a1565b9450613311836132b5565b925060208a019950506001810190506132ed565b50829750879550505050505092915050565b6000602082019050818103600083015261335181846132c2565b905092915050565b60006020828403121561336f5761336e612f5a565b5b600061337d848285016131bb565b91505092915050565b600080fd5b7f4e487b7100000000000000000000000000000000000000000000000000000000600052604160045260246000fd5b6133c382613066565b810181811067ffffffffffffffff821117156133e2576133e161338b565b5b80604052505050565b60006133f5612f50565b905061340182826133ba565b919050565b600067ffffffffffffffff8211156134215761342061338b565b5b602082029050602081019050919050565b600080fd5b600080fd5b600067ffffffffffffffff8211156134575761345661338b565b5b61346082613066565b9050602081019050919050565b82818337600083830152505050565b600061348f61348a8461343c565b6133eb565b9050828152602081018484840111156134ab576134aa613437565b5b6134b684828561346d565b509392505050565b600082601f8301126134d3576134d2613386565b5b81356134e384826020860161347c565b91505092915050565b60006134ff6134fa84613406565b6133eb565b9050808382526020820190506020840283018581111561352257613521613432565b5b835b8181101561356957803567ffffffffffffffff81111561354757613546613386565b5b80860161355489826134be565b85526020850194505050602081019050613524565b5050509392505050565b600082601f83011261358857613587613386565b5b81356135988482602086016134ec565b91505092915050565b600067ffffffffffffffff8211156135bc576135bb61338b565b5b602082029050602081019050919050565b60006135e06135db846135a1565b6133eb565b9050808382526020820190506020840283018581111561360357613602613432565b5b835b8181101561362c57806136188882612f85565b845260208401935050602081019050613605565b5050509392505050565b600082601f83011261364b5761364a613386565b5b813561365b8482602086016135cd565b91505092915050565b60008060006060848603121561367d5761367c612f5a565b5b600061368b86828701612f85565b935050602084013567ffffffffffffffff8111156136ac576136ab612f5f565b5b6136b886828701613573565b925050604084013567ffffffffffffffff8111156136d9576136d8612f5f565b5b6136e586828701613636565b9150509250925092565b600080600080600060a0868803121561370b5761370a612f5a565b5b600086013567ffffffffffffffff81111561372957613728612f5f565b5b613735888289016134be565b955050602086013567ffffffffffffffff81111561375657613755612f5f565b5b61376288828901613573565b945050604086013567ffffffffffffffff81111561378357613782612f5f565b5b61378f88828901613636565b93505060606137a088828901612f85565b92505060806137b188828901612f85565b9150509295509295909350565b600060208201905081810360008301526137d88184613077565b905092915050565b60008115159050919050565b6137f5816137e0565b82525050565b600060208201905061381060008301846137ec565b92915050565b600080600080608085870312156138305761382f612f5a565b5b600061383e87828801612f85565b945050602085013567ffffffffffffffff81111561385f5761385e612f5f565b5b61386b87828801613573565b935050604085013567ffffffffffffffff81111561388c5761388b612f5f565b5b61389887828801613636565b92505060606138a987828801612f85565b91505092959194509250565b600081519050919050565b600082825260208201905092915050565b6000819050602082019050919050565b6138ea81612f64565b82525050565b60006138fc83836138e1565b60208301905092915050565b6000602082019050919050565b6000613920826138b5565b61392a81856138c0565b9350613935836138d1565b8060005b8381101561396657815161394d88826138f0565b975061395883613908565b925050600181019050613939565b5085935050505092915050565b6000602082019050818103600083015261398d8184613915565b905092915050565b6000819050919050565b60006139ba6139b56139b084612fd6565b613995565b612fd6565b9050919050565b60006139cc8261399f565b9050919050565b60006139de826139c1565b9050919050565b6139ee816139d3565b82525050565b6000602082019050613a0960008301846139e5565b92915050565b7f4e487b7100000000000000000000000000000000000000000000000000000000600052602260045260246000fd5b60006002820490506001821680613a5657607f821691505b602082108103613a6957613a68613a0f565b5b50919050565b6000602082019050613a846000830184613008565b92915050565b600081519050613a9981612f6e565b92915050565b600060208284031215613ab557613ab4612f5a565b5b6000613ac384828501613a8a565b91505092915050565b7f4e6f74206120594b000000000000000000000000000000000000000000000000600082015250565b6000613b02600883613022565b9150613b0d82613acc565b602082019050919050565b60006020820190508181036000830152613b3181613af5565b9050919050565b7f4e487b7100000000000000000000000000000000000000000000000000000000600052601160045260246000fd5b6000613b7282612f64565b9150613b7d83612f64565b9250817fffffffffffffffffffffffffffffffffffffffffffffffffffffffffffffffff0483118215151615613bb657613bb5613b38565b5b828202905092915050565b6000613bcc82612f64565b9150613bd783612f64565b9250827fffffffffffffffffffffffffffffffffffffffffffffffffffffffffffffffff03821115613c0c57613c0b613b38565b5b828201905092915050565b6000604082019050613c2c6000830185613008565b613c396020830184612fc7565b9392505050565b613c49816137e0565b8114613c5457600080fd5b50565b600081519050613c6681613c40565b92915050565b600060208284031215613c8257613c81612f5a565b5b6000613c9084828501613c57565b91505092915050565b7f4e6f7420656e6f75676820736861726573000000000000000000000000000000600082015250565b6000613ccf601183613022565b9150613cda82613c99565b602082019050919050565b60006020820190508181036000830152613cfe81613cc2565b9050919050565b6000613d1082612f64565b9150613d1b83612f64565b925082821015613d2e57613d2d613b38565b5b828203905092915050565b7f4e487b7100000000000000000000000000000000000000000000000000000000600052603260045260246000fd5b6000613d7382612f64565b91507fffffffffffffffffffffffffffffffffffffffffffffffffffffffffffffffff8203613da557613da4613b38565b5b600182019050919050565b7f616c726561647920766f74656400000000000000000000000000000000000000600082015250565b6000613de6600d83613022565b9150613df182613db0565b602082019050919050565b60006020820190508181036000830152613e1581613dd9565b9050919050565b7f4e6f7420656e6f7567682073686172657320746f20766f7465206f6e2061207060008201527f726f706f73616c00000000000000000000000000000000000000000000000000602082015250565b6000613e78602783613022565b9150613e8382613e1c565b604082019050919050565b60006020820190508181036000830152613ea781613e6b565b9050919050565b7f566f74696e6720706572696f64206973206f7665720000000000000000000000600082015250565b6000613ee4601583613022565b9150613eef82613eae565b602082019050919050565b60006020820190508181036000830152613f1381613ed7565b9050919050565b7f566f74696e6720706572696f642069732066696e697368656400000000000000600082015250565b6000613f50601983613022565b9150613f5b82613f1a565b602082019050919050565b60006020820190508181036000830152613f7f81613f43565b9050919050565b6000604082019050613f9b6000830185612fc7565b613fa86020830184613008565b9392505050565b7f4e6f7420656e6f7567682073686172657320746f20637265617465206120707260008201527f6f706f73616c0000000000000000000000000000000000000000000000000000602082015250565b600061400b602683613022565b915061401682613faf565b604082019050919050565b6000602082019050818103600083015261403a81613ffe565b9050919050565b7f4e487b7100000000000000000000000000000000000000000000000000000000600052601260045260246000fd5b600061407b82612f64565b915061408683612f64565b92508261409657614095614041565b5b828204905092915050565b7f446f6e74206861766520656e6f75676820746f6b656e7320286368616e67652060008201527f7765696768742900000000000000000000000000000000000000000000000000602082015250565b60006140fd602783613022565b9150614108826140a1565b604082019050919050565b6000602082019050818103600083015261412c816140f0565b9050919050565b7f446f6e74206861766520656e6f75676820746f6b656e7320286c69746572616c60008201527f6c79203029000000000000000000000000000000000000000000000000000000602082015250565b600061418f602583613022565b915061419a82614133565b604082019050919050565b600060208201905081810360008301526141be81614182565b9050919050565b60008190508160005260206000209050919050565b600081546141e781613a3e565b6141f18186613022565b9450600182166000811461420c576001811461421e57614251565b60ff1983168652602086019350614251565b614227856141c5565b60005b838110156142495781548189015260018201915060208101905061422a565b808801955050505b50505092915050565b600081549050919050565b60008190508160005260206000209050919050565b6000815461428781613a3e565b6142918186613257565b945060018216600081146142ac57600181146142be576142f1565b60ff19831686526020860193506142f1565b6142c7856141c5565b60005b838110156142e9578154818901526001820191506020810190506142ca565b808801955050505b50505092915050565b6000614306838361427a565b905092915050565b6000600182019050919050565b60006143268261425a565b6143308185613236565b93508360208202850161434285614265565b8060005b8581101561437d5784840389528161435e85826142fa565b94506143698361430e565b925060208a01995050600181019050614346565b50829750879550505050505092915050565b600081549050919050565b60008190508160005260206000209050919050565b60008160001c9050919050565b6000819050919050565b60006143d96143d4836143af565b6143bc565b9050919050565b60006143ec82546143c6565b9050919050565b6000600182019050919050565b600061440b8261438f565b61441581856138c0565b93506144208361439a565b8060005b8381101561445857614435826143e0565b61443f88826138f0565b975061444a836143f3565b925050600181019050614424565b5085935050505092915050565b600060e08201905061447a600083018a612fc7565b6144876020830189613008565b818103604083015261449981886141da565b905081810360608301526144ad818761431b565b905081810360808301526144c18186614400565b90506144d060a0830185612fc7565b81810360c08301526144e281846141da565b905098975050505050505050565b60006144fb826139c1565b9050919050565b61450b816144f0565b82525050565b60006060820190506145266000830186614502565b6145336020830185612fc7565b6145406040830184613008565b94935050505056fea2646970667358221220e4f50e8b9f0d791e0e49d542df8fd0dc8ba56d60ddf4ff0049d0fcbdba0aacb464736f6c634300080d0033a264697066735822122027c1afe5d85cf23d0a0d7bb09df6e186a0f99139ff5e58dc1bc4bcd03da4169064736f6c634300080d0033",
  "immutableReferences": {},
  "source": "// SPDX-License-Identifier: GPL-3.0\r\npragma solidity >=0.7.0 <0.9.0;\r\npragma experimental ABIEncoderV2;\r\n//import \"./DAO.sol\";\r\nimport \"./newDAO1.sol\";\r\nimport \"./token.sol\";\r\n\r\n\r\ncontract DAOFactory {\r\n\r\n    address public top_dao;\r\n    mapping(MyDAO => MyDAO[]) public parent_child_daos;\r\n    mapping(MyDAO => uint) public num_children;\r\n    //MyDAO[] public _child_daos;\r\n    //address[] public dao_creators_top;\r\n    mapping(address => bool) public is_a_dao_creator;\r\n    mapping(MyDAO => SUToken) public dao_tokens_yk;\r\n    mapping(MyDAO => SUToken) public dao_tokens_voter;\r\n    mapping(MyDAO => address) public dao_first_yk;\r\n    mapping(SUToken => address) public token_first_yk;\r\n    mapping(MyDAO => bool) public dao_exists;\r\n    mapping (MyDAO => MyDAO) public child_parent;\r\n    event num_contracts(uint num);\r\n    mapping(uint256 => MyDAO) public all_daos;\r\n    uint256 public next_dao_id; \r\n    \r\n    constructor() {\r\n\r\n        is_a_dao_creator[msg.sender] = true;   \r\n        next_dao_id = 0;\r\n    }\r\n\r\n    //so first the dao and the token will be created, factory will have the tokens and dao will have the allowance to use \r\n    //these tokens, the yk will be able to withdraw, send and deposit yk_tokens\r\n    function createDAOTop( string memory dao_name,  string memory dao_description, string memory yk_token_name, string memory yk_token_symbol, string memory voter_token_name, string memory voter_token_symbol) public {\r\n        require(is_a_dao_creator[msg.sender] == true, 'Not added as a DAO Creator');\r\n        //line below mints 1000 tokens to this factory, also makes factory the owner of these tokens\r\n \r\n        SUToken yk_token = new SUToken(yk_token_name, yk_token_symbol, address(this));\r\n        SUToken voter_token = new SUToken(voter_token_name, voter_token_symbol, address(this));\r\n        MyDAO c = new MyDAO(dao_name, dao_description, msg.sender, yk_token, voter_token, this);\r\n        //token.mint(address(c), 1000*10**18);\r\n        //with this function my dao can use the tokens my factory has however it wishes, it is currently only 1000, can add mint later\r\n        yk_token.increaseAllowance(address(c), 1000* 10**18);\r\n        yk_token.increaseAllowance(address(this), 1000* 10**18);\r\n        voter_token.increaseAllowance(address(c), 1000* 10**18);\r\n        voter_token.increaseAllowance(address(this), 1000* 10**18);\r\n        yk_token.assignDAO( address(c));\r\n        voter_token.assignDAO( address(c));\r\n        //we save which dao has which yk tokens and which voter tokens\r\n\r\n        dao_tokens_yk[c] = yk_token;\r\n        dao_tokens_voter[c] = voter_token;\r\n        dao_first_yk[c] = msg.sender;\r\n        token_first_yk[yk_token] = msg.sender;\r\n        top_dao = address(c);\r\n        dao_exists[c] = true;\r\n\r\n        //tokens are minted to factory right, we are sending them to dao so they can utilize it.\r\n        voter_token.transferFrom(address(this), address(c), 1000 * 10**18);\r\n        yk_token.transferFrom(address(this), address(c), (1000 * 10 ** 18));\r\n        all_daos[next_dao_id] = c;\r\n        next_dao_id += 1;\r\n    }\r\n\r\n\r\n    function createChildDAO( MyDAO parent, string memory dao_name,  string memory dao_description, string memory yk_token_name, string memory yk_token_symbol, string memory voter_token_name, string memory voter_token_symbol) public {\r\n        require(dao_tokens_yk[parent].balanceOf(msg.sender) > 0, 'Not a YK of parent DAO');\r\n        //line below mints 1000 tokens to this factory, also makes factory the owner of these tokens\r\n \r\n        SUToken yk_token = new SUToken(yk_token_name, yk_token_symbol, address(this));\r\n        SUToken voter_token = new SUToken(voter_token_name, voter_token_symbol, address(this));\r\n        MyDAO c = new MyDAO(dao_name, dao_description, msg.sender, yk_token, voter_token, this);\r\n        //token.mint(address(c), 1000*10**18);\r\n        //with this function my dao can use the tokens my factory has however it wishes, it is currently only 1000, can add mint later\r\n        yk_token.increaseAllowance(address(c), 1000* 10**18);\r\n        yk_token.increaseAllowance(address(this), 1000* 10**18);\r\n        voter_token.increaseAllowance(address(c), 1000* 10**18);\r\n        voter_token.increaseAllowance(address(this), 1000* 10**18);\r\n        yk_token.assignDAO( address(c));\r\n        voter_token.assignDAO( address(c));\r\n        //we save which dao has which yk tokens and which voter tokens\r\n\r\n        dao_tokens_yk[c] = yk_token;\r\n        dao_tokens_voter[c] = voter_token;\r\n        dao_first_yk[c] = msg.sender;\r\n        token_first_yk[yk_token] = msg.sender;\r\n        dao_exists[c] = true;\r\n        parent_child_daos[parent].push(c);\r\n        num_children[parent] += 1;\r\n        child_parent[c] = parent;\r\n        \r\n        \r\n\r\n        //tokens are minted to factory right, we are sending them to dao so they can utilize it.\r\n        voter_token.transferFrom(address(this), address(c), 1000 * 10**18);\r\n        yk_token.transferFrom(address(this), address(c), (1000 * 10 ** 18));\r\n\r\n        all_daos[next_dao_id] = c;\r\n        next_dao_id += 1;\r\n    }\r\n\r\n    function mint_dao_yk(MyDAO to_be_minted, uint amount, address sender) public {\r\n        require(dao_tokens_yk[to_be_minted].balanceOf(sender)>= 0, \"Not YK of selected DAO\");\r\n        //make sure the one who sends this is dao\r\n        require(msg.sender == address(to_be_minted), \"Don't even try\");\r\n        dao_tokens_yk[to_be_minted].mint(address(to_be_minted), amount*10**18);\r\n    }\r\n\r\n    function mint_dao_voter(MyDAO to_be_minted, uint amount, address sender) public {\r\n        require(dao_tokens_yk[to_be_minted].balanceOf(sender)>= 0, \"Not YK of selected DAO\");\r\n        //make sure the one who sends this is dao\r\n        require(msg.sender == address(to_be_minted), \"Don't even try\");\r\n        dao_tokens_voter[to_be_minted].mint(address(to_be_minted), amount*10**18);\r\n    }\r\n\r\n\r\n\r\n    function addCreator(address input_creator) public\r\n    {\r\n        is_a_dao_creator[input_creator] = true;\r\n    }\r\n\r\n}",
  "sourcePath": "D:\\Projects\\DAOO\\SU_Govern\\contract_for_front_end\\ui_sol_deneme2\\ui_sol_deneme\\sol_ui\\blockchain1\\contracts\\newFactory1.sol",
  "compiler": {
    "name": "solc",
    "version": "0.8.13+commit.abaa5c0e.Emscripten.clang"
  },
  "schemaVersion": "3.4.7",
  "updatedAt": "2022-11-30T11:03:22.118Z",
  "devdoc": {
    "kind": "dev",
    "methods": {},
    "version": 1
  },
  "userdoc": {
    "kind": "user",
    "methods": {},
    "version": 1
  }
}