{
  "contractName": "MyDAO",
  "abi": [
    {
      "inputs": [
        {
          "internalType": "string",
          "name": "_dao_name",
          "type": "string"
        },
        {
          "internalType": "string",
          "name": "_dao_description",
          "type": "string"
        },
        {
          "internalType": "uint256",
          "name": "_dao_id",
          "type": "uint256"
        },
        {
          "internalType": "address",
          "name": "first_yk",
          "type": "address"
        },
        {
          "internalType": "contract ISUToken",
          "name": "yk_token_in",
          "type": "address"
        },
        {
          "internalType": "contract ISUToken",
          "name": "voter_token_in",
          "type": "address"
        },
        {
          "internalType": "contract DAOFactory",
          "name": "_factory",
          "type": "address"
        }
      ],
      "stateMutability": "nonpayable",
      "type": "constructor"
    },
    {
      "anonymous": false,
      "inputs": [
        {
          "indexed": false,
          "internalType": "uint256",
          "name": "id",
          "type": "uint256"
        },
        {
          "indexed": false,
          "internalType": "address",
          "name": "author",
          "type": "address"
        },
        {
          "indexed": false,
          "internalType": "string",
          "name": "name",
          "type": "string"
        },
        {
          "indexed": false,
          "internalType": "string",
          "name": "proposal_description",
          "type": "string"
        },
        {
          "indexed": false,
          "internalType": "string[]",
          "name": "options",
          "type": "string[]"
        },
        {
          "indexed": false,
          "internalType": "uint256[]",
          "name": "num_options",
          "type": "uint256[]"
        },
        {
          "indexed": false,
          "internalType": "uint256",
          "name": "power",
          "type": "uint256"
        },
        {
          "indexed": false,
          "internalType": "string",
          "name": "proposal_info_type",
          "type": "string"
        }
      ],
      "name": "proposal_info",
      "type": "event"
    },
    {
      "inputs": [],
      "name": "dao_description",
      "outputs": [
        {
          "internalType": "string",
          "name": "",
          "type": "string"
        }
      ],
      "stateMutability": "view",
      "type": "function"
    },
    {
      "inputs": [],
      "name": "dao_name",
      "outputs": [
        {
          "internalType": "string",
          "name": "",
          "type": "string"
        }
      ],
      "stateMutability": "view",
      "type": "function"
    },
    {
      "inputs": [],
      "name": "nextProposalId",
      "outputs": [
        {
          "internalType": "uint256",
          "name": "",
          "type": "uint256"
        }
      ],
      "stateMutability": "view",
      "type": "function"
    },
    {
      "inputs": [
        {
          "internalType": "uint256",
          "name": "",
          "type": "uint256"
        }
      ],
      "name": "proposals",
      "outputs": [
        {
          "internalType": "uint256",
          "name": "id",
          "type": "uint256"
        },
        {
          "internalType": "address",
          "name": "author",
          "type": "address"
        },
        {
          "internalType": "string",
          "name": "name",
          "type": "string"
        },
        {
          "internalType": "string",
          "name": "proposal_description",
          "type": "string"
        },
        {
          "internalType": "uint256",
          "name": "createdAt",
          "type": "uint256"
        },
        {
          "internalType": "enum MyDAO.Status",
          "name": "status",
          "type": "uint8"
        },
        {
          "internalType": "uint256",
          "name": "power",
          "type": "uint256"
        },
        {
          "internalType": "string",
          "name": "proposal_info_type",
          "type": "string"
        }
      ],
      "stateMutability": "view",
      "type": "function"
    },
    {
      "inputs": [
        {
          "internalType": "address",
          "name": "",
          "type": "address"
        },
        {
          "internalType": "uint256",
          "name": "",
          "type": "uint256"
        }
      ],
      "name": "token_amount_to_be_refunded",
      "outputs": [
        {
          "internalType": "uint256",
          "name": "",
          "type": "uint256"
        }
      ],
      "stateMutability": "view",
      "type": "function"
    },
    {
      "inputs": [
        {
          "internalType": "address",
          "name": "",
          "type": "address"
        },
        {
          "internalType": "uint256",
          "name": "",
          "type": "uint256"
        }
      ],
      "name": "tokens_not_refunded",
      "outputs": [
        {
          "internalType": "bool",
          "name": "",
          "type": "bool"
        }
      ],
      "stateMutability": "view",
      "type": "function"
    },
    {
      "inputs": [
        {
          "internalType": "address",
          "name": "",
          "type": "address"
        }
      ],
      "name": "voter_shares_to_be_given",
      "outputs": [
        {
          "internalType": "uint256",
          "name": "",
          "type": "uint256"
        }
      ],
      "stateMutability": "view",
      "type": "function"
    },
    {
      "inputs": [],
      "name": "voter_token",
      "outputs": [
        {
          "internalType": "contract ISUToken",
          "name": "",
          "type": "address"
        }
      ],
      "stateMutability": "view",
      "type": "function"
    },
    {
      "inputs": [
        {
          "internalType": "address",
          "name": "",
          "type": "address"
        },
        {
          "internalType": "uint256",
          "name": "",
          "type": "uint256"
        }
      ],
      "name": "votes",
      "outputs": [
        {
          "internalType": "bool",
          "name": "",
          "type": "bool"
        }
      ],
      "stateMutability": "view",
      "type": "function"
    },
    {
      "inputs": [
        {
          "internalType": "address",
          "name": "",
          "type": "address"
        }
      ],
      "name": "yk_shares_to_be_given",
      "outputs": [
        {
          "internalType": "uint256",
          "name": "",
          "type": "uint256"
        }
      ],
      "stateMutability": "view",
      "type": "function"
    },
    {
      "inputs": [],
      "name": "yk_token",
      "outputs": [
        {
          "internalType": "contract ISUToken",
          "name": "",
          "type": "address"
        }
      ],
      "stateMutability": "view",
      "type": "function"
    },
    {
      "inputs": [],
      "name": "iterate_proposals",
      "outputs": [],
      "stateMutability": "nonpayable",
      "type": "function"
    },
    {
      "inputs": [
        {
          "internalType": "uint256",
          "name": "_proposalId",
          "type": "uint256"
        }
      ],
      "name": "accept_proposal",
      "outputs": [],
      "stateMutability": "nonpayable",
      "type": "function"
    },
    {
      "inputs": [
        {
          "internalType": "uint256",
          "name": "_proposalId",
          "type": "uint256"
        }
      ],
      "name": "reject_proposal",
      "outputs": [],
      "stateMutability": "nonpayable",
      "type": "function"
    },
    {
      "inputs": [
        {
          "internalType": "uint256",
          "name": "_proposalId",
          "type": "uint256"
        }
      ],
      "name": "pending_proposal",
      "outputs": [],
      "stateMutability": "nonpayable",
      "type": "function"
    },
    {
      "inputs": [
        {
          "internalType": "uint256",
          "name": "_amount",
          "type": "uint256"
        }
      ],
      "name": "withdraw_voter_tokens",
      "outputs": [],
      "stateMutability": "nonpayable",
      "type": "function"
    },
    {
      "inputs": [
        {
          "internalType": "uint256",
          "name": "_amount",
          "type": "uint256"
        }
      ],
      "name": "withdraw_yk_tokens",
      "outputs": [],
      "stateMutability": "nonpayable",
      "type": "function"
    },
    {
      "inputs": [
        {
          "internalType": "address",
          "name": "yk_candidate",
          "type": "address"
        },
        {
          "internalType": "uint256",
          "name": "_amount",
          "type": "uint256"
        }
      ],
      "name": "send_yk_tokens_to_address_yk",
      "outputs": [],
      "stateMutability": "nonpayable",
      "type": "function"
    },
    {
      "inputs": [
        {
          "internalType": "address",
          "name": "yk_candidate",
          "type": "address"
        },
        {
          "internalType": "uint256",
          "name": "_amount",
          "type": "uint256"
        }
      ],
      "name": "send_yk_tokens_to_address_yk_directly",
      "outputs": [],
      "stateMutability": "nonpayable",
      "type": "function"
    },
    {
      "inputs": [
        {
          "internalType": "address",
          "name": "voter_candidate",
          "type": "address"
        },
        {
          "internalType": "uint256",
          "name": "_amount",
          "type": "uint256"
        }
      ],
      "name": "send_voter_tokens_to_address_yk",
      "outputs": [],
      "stateMutability": "nonpayable",
      "type": "function"
    },
    {
      "inputs": [
        {
          "internalType": "address",
          "name": "voter_candidate",
          "type": "address"
        },
        {
          "internalType": "uint256",
          "name": "_amount",
          "type": "uint256"
        }
      ],
      "name": "send_voter_tokens_to_address_yk_directly",
      "outputs": [],
      "stateMutability": "nonpayable",
      "type": "function"
    },
    {
      "inputs": [
        {
          "internalType": "string",
          "name": "name",
          "type": "string"
        },
        {
          "internalType": "string",
          "name": "description",
          "type": "string"
        },
        {
          "internalType": "string[]",
          "name": "_options",
          "type": "string[]"
        },
        {
          "internalType": "uint256[]",
          "name": "_options_num",
          "type": "uint256[]"
        },
        {
          "internalType": "uint256",
          "name": "_power",
          "type": "uint256"
        },
        {
          "internalType": "uint256",
          "name": "_type",
          "type": "uint256"
        }
      ],
      "name": "createProposal",
      "outputs": [],
      "stateMutability": "nonpayable",
      "type": "function"
    },
    {
      "inputs": [
        {
          "internalType": "uint256",
          "name": "_proposalId",
          "type": "uint256"
        },
        {
          "internalType": "string[]",
          "name": "_vote",
          "type": "string[]"
        },
        {
          "internalType": "uint256[]",
          "name": "_power",
          "type": "uint256[]"
        }
      ],
      "name": "vote_power",
      "outputs": [],
      "stateMutability": "nonpayable",
      "type": "function"
    },
    {
      "inputs": [
        {
          "internalType": "uint256",
          "name": "_proposalId",
          "type": "uint256"
        },
        {
          "internalType": "string[]",
          "name": "_vote",
          "type": "string[]"
        },
        {
          "internalType": "uint256[]",
          "name": "_power",
          "type": "uint256[]"
        },
        {
          "internalType": "uint256",
          "name": "weight",
          "type": "uint256"
        }
      ],
      "name": "vote_power_weighted",
      "outputs": [],
      "stateMutability": "nonpayable",
      "type": "function"
    },
    {
      "inputs": [],
      "name": "getProposalName",
      "outputs": [
        {
          "internalType": "string[]",
          "name": "",
          "type": "string[]"
        }
      ],
      "stateMutability": "view",
      "type": "function"
    },
    {
      "inputs": [],
      "name": "getDaoid",
      "outputs": [
        {
          "internalType": "uint256",
          "name": "",
          "type": "uint256"
        }
      ],
      "stateMutability": "view",
      "type": "function"
    },
    {
      "inputs": [
        {
          "internalType": "address",
          "name": "chk",
          "type": "address"
        }
      ],
      "name": "has_yk_priviliges",
      "outputs": [
        {
          "internalType": "bool",
          "name": "",
          "type": "bool"
        }
      ],
      "stateMutability": "view",
      "type": "function"
    },
    {
      "inputs": [],
      "name": "getProposalDescription",
      "outputs": [
        {
          "internalType": "string[]",
          "name": "",
          "type": "string[]"
        }
      ],
      "stateMutability": "view",
      "type": "function"
    },
    {
      "inputs": [
        {
          "internalType": "uint256",
          "name": "proposal_idd",
          "type": "uint256"
        }
      ],
      "name": "getProposalVoteNames",
      "outputs": [
        {
          "internalType": "string[]",
          "name": "",
          "type": "string[]"
        }
      ],
      "stateMutability": "view",
      "type": "function"
    },
    {
      "inputs": [
        {
          "internalType": "uint256",
          "name": "proposal_idd",
          "type": "uint256"
        }
      ],
      "name": "getProposalVoteNumbers",
      "outputs": [
        {
          "internalType": "uint256[]",
          "name": "",
          "type": "uint256[]"
        }
      ],
      "stateMutability": "view",
      "type": "function"
    },
    {
      "inputs": [
        {
          "internalType": "uint256",
          "name": "proposal_idd",
          "type": "uint256"
        }
      ],
      "name": "getProposalPower",
      "outputs": [
        {
          "internalType": "uint256",
          "name": "",
          "type": "uint256"
        }
      ],
      "stateMutability": "view",
      "type": "function"
    },
    {
      "inputs": [
        {
          "internalType": "uint256",
          "name": "proposal_idd",
          "type": "uint256"
        }
      ],
      "name": "getProposalType",
      "outputs": [
        {
          "internalType": "string",
          "name": "",
          "type": "string"
        }
      ],
      "stateMutability": "view",
      "type": "function"
    },
    {
      "inputs": [
        {
          "internalType": "address",
          "name": "from",
          "type": "address"
        },
        {
          "internalType": "uint256",
          "name": "amount",
          "type": "uint256"
        }
      ],
      "name": "dao_delegation_single_getback_amount_voter",
      "outputs": [],
      "stateMutability": "nonpayable",
      "type": "function"
    },
    {
      "inputs": [
        {
          "internalType": "address",
          "name": "from",
          "type": "address"
        }
      ],
      "name": "dao_delegation_single_getback_all_voter",
      "outputs": [],
      "stateMutability": "nonpayable",
      "type": "function"
    },
    {
      "inputs": [],
      "name": "dao_delagation_multiple_getback_all_voter",
      "outputs": [],
      "stateMutability": "nonpayable",
      "type": "function"
    },
    {
      "inputs": [
        {
          "internalType": "address",
          "name": "from",
          "type": "address"
        }
      ],
      "name": "dao_clawback_single_voter",
      "outputs": [],
      "stateMutability": "nonpayable",
      "type": "function"
    },
    {
      "inputs": [],
      "name": "dao_clawback_all_voter",
      "outputs": [],
      "stateMutability": "nonpayable",
      "type": "function"
    },
    {
      "inputs": [
        {
          "internalType": "address",
          "name": "from",
          "type": "address"
        },
        {
          "internalType": "uint256",
          "name": "amount",
          "type": "uint256"
        }
      ],
      "name": "dao_delegation_single_getback_amount_yk",
      "outputs": [],
      "stateMutability": "nonpayable",
      "type": "function"
    },
    {
      "inputs": [
        {
          "internalType": "address",
          "name": "from",
          "type": "address"
        }
      ],
      "name": "dao_delegation_single_getback_all_yk",
      "outputs": [],
      "stateMutability": "nonpayable",
      "type": "function"
    },
    {
      "inputs": [],
      "name": "dao_delagation_multiple_getback_all_yk",
      "outputs": [],
      "stateMutability": "nonpayable",
      "type": "function"
    },
    {
      "inputs": [
        {
          "internalType": "address",
          "name": "to",
          "type": "address"
        }
      ],
      "name": "dao_clawback_single_yk",
      "outputs": [],
      "stateMutability": "nonpayable",
      "type": "function"
    },
    {
      "inputs": [],
      "name": "dao_clawback_all_yk",
      "outputs": [],
      "stateMutability": "nonpayable",
      "type": "function"
    },
    {
      "inputs": [],
      "name": "delete_this_dao",
      "outputs": [],
      "stateMutability": "nonpayable",
      "type": "function"
    }
  ],
  "bytecode": "0x60806040523480156200001157600080fd5b506040516200605038038062006050833981810160405281019062000037919062000577565b80600360006101000a81548173ffffffffffffffffffffffffffffffffffffffff021916908373ffffffffffffffffffffffffffffffffffffffff16021790555086600090805190602001906200009092919062000200565b50846002819055508560019080519060200190620000b092919062000200565b5082600b60006101000a81548173ffffffffffffffffffffffffffffffffffffffff021916908373ffffffffffffffffffffffffffffffffffffffff16021790555081600a60006101000a81548173ffffffffffffffffffffffffffffffffffffffff021916908373ffffffffffffffffffffffffffffffffffffffff160217905550670de0b6b3a7640000600960008673ffffffffffffffffffffffffffffffffffffffff1673ffffffffffffffffffffffffffffffffffffffff16815260200190815260200160002060008282546200018c919062000697565b92505081905550670de0b6b3a7640000600860008673ffffffffffffffffffffffffffffffffffffffff1673ffffffffffffffffffffffffffffffffffffffff1681526020019081526020016000206000828254620001ec919062000697565b925050819055505050505050505062000758565b8280546200020e9062000723565b90600052602060002090601f0160209004810192826200023257600085556200027e565b82601f106200024d57805160ff19168380011785556200027e565b828001600101855582156200027e579182015b828111156200027d57825182559160200191906001019062000260565b5b5090506200028d919062000291565b5090565b5b80821115620002ac57600081600090555060010162000292565b5090565b6000604051905090565b600080fd5b600080fd5b600080fd5b600080fd5b6000601f19601f8301169050919050565b7f4e487b7100000000000000000000000000000000000000000000000000000000600052604160045260246000fd5b6200031982620002ce565b810181811067ffffffffffffffff821117156200033b576200033a620002df565b5b80604052505050565b600062000350620002b0565b90506200035e82826200030e565b919050565b600067ffffffffffffffff821115620003815762000380620002df565b5b6200038c82620002ce565b9050602081019050919050565b60005b83811015620003b95780820151818401526020810190506200039c565b83811115620003c9576000848401525b50505050565b6000620003e6620003e08462000363565b62000344565b905082815260208101848484011115620004055762000404620002c9565b5b6200041284828562000399565b509392505050565b600082601f830112620004325762000431620002c4565b5b815162000444848260208601620003cf565b91505092915050565b6000819050919050565b62000462816200044d565b81146200046e57600080fd5b50565b600081519050620004828162000457565b92915050565b600073ffffffffffffffffffffffffffffffffffffffff82169050919050565b6000620004b58262000488565b9050919050565b620004c781620004a8565b8114620004d357600080fd5b50565b600081519050620004e781620004bc565b92915050565b6000620004fa82620004a8565b9050919050565b6200050c81620004ed565b81146200051857600080fd5b50565b6000815190506200052c8162000501565b92915050565b60006200053f82620004a8565b9050919050565b620005518162000532565b81146200055d57600080fd5b50565b600081519050620005718162000546565b92915050565b600080600080600080600060e0888a031215620005995762000598620002ba565b5b600088015167ffffffffffffffff811115620005ba57620005b9620002bf565b5b620005c88a828b016200041a565b975050602088015167ffffffffffffffff811115620005ec57620005eb620002bf565b5b620005fa8a828b016200041a565b96505060406200060d8a828b0162000471565b9550506060620006208a828b01620004d6565b9450506080620006338a828b016200051b565b93505060a0620006468a828b016200051b565b92505060c0620006598a828b0162000560565b91505092959891949750929550565b7f4e487b7100000000000000000000000000000000000000000000000000000000600052601160045260246000fd5b6000620006a4826200044d565b9150620006b1836200044d565b9250827fffffffffffffffffffffffffffffffffffffffffffffffffffffffffffffffff03821115620006e957620006e862000668565b5b828201905092915050565b7f4e487b7100000000000000000000000000000000000000000000000000000000600052602260045260246000fd5b600060028204905060018216806200073c57607f821691505b602082108103620007525762000751620006f4565b5b50919050565b6158e880620007686000396000f3fe608060405234801561001057600080fd5b50600436106102695760003560e01c80638661fa7011610151578063c1bff3e0116100c3578063dd3bf85c11610087578063dd3bf85c146106e7578063e5c28c9014610705578063e937688214610735578063f08c03bc14610753578063f70e51a71461076f578063f9b8a27a1461078d57610269565b8063c1bff3e014610631578063cf5265d81461064d578063d25129c414610657578063d8c6bc2114610687578063d978ffba146106b757610269565b8063a2ded95011610115578063a2ded95014610573578063a38b39d41461058f578063a44b21ae146105ab578063a47eb7cf146105c7578063a9a2a4a3146105f7578063bdf52c221461062757610269565b80638661fa70146104bd5780638a19ab35146104d95780638f7c59d0146104f55780639d92c108146105255780639f2524ee1461054357610269565b806342b9d7e4116101ea57806362b25fc6116101ae57806362b25fc61461042357806364944d4d1461044157806371df56051461044b57806375fd83771461047b5780637b93e652146104975780637e11a556146104a157610269565b806342b9d7e414610391578063451abcec146103ad5780634a9f1575146103cb5780634b4967e8146103d5578063560d09b6146103f357610269565b806319f339611161023157806319f339611461031557806323ee2c831461031f5780632ab09d141461033b5780632c14ed1714610359578063339a9e591461037557610269565b8063013cf08b1461026e57806307e25f27146102a557806310742870146102c1578063114d7756146102dd57806314e72f43146102f9575b600080fd5b61028860048036038101906102839190613fc6565b6107a9565b60405161029c989796959493929190614153565b60405180910390f35b6102bf60048036038101906102ba9190613fc6565b6109b6565b005b6102db60048036038101906102d69190614212565b6109f8565b005b6102f760048036038101906102f29190614212565b610ae2565b005b610313600480360381019061030e919061423f565b610b86565b005b61031d610c3b565b005b6103396004803603810190610334919061423f565b610e94565b005b610343610f9d565b604051610350919061427f565b60405180910390f35b610373600480360381019061036e9190613fc6565b610fa3565b005b61038f600480360381019061038a9190614212565b610fe5565b005b6103ab60048036038101906103a69190613fc6565b611089565b005b6103b5611247565b6040516103c291906143a6565b60405180910390f35b6103d3611382565b005b6103dd611460565b6040516103ea919061427f565b60405180910390f35b61040d60048036038101906104089190613fc6565b61146a565b60405161041a919061427f565b60405180910390f35b61042b611493565b60405161043891906143a6565b60405180910390f35b6104496115ce565b005b61046560048036038101906104609190614212565b6116ac565b604051610472919061427f565b60405180910390f35b6104956004803603810190610490919061423f565b6116c4565b005b61049f611849565b005b6104bb60048036038101906104b6919061423f565b6118ea565b005b6104d760048036038101906104d291906146a6565b6119f3565b005b6104f360048036038101906104ee9190613fc6565b61205b565b005b61050f600480360381019061050a9190613fc6565b612206565b60405161051c91906143a6565b60405180910390f35b61052d61238d565b60405161053a9190614731565b60405180910390f35b61055d6004803603810190610558919061423f565b61241b565b60405161056a919061476e565b60405180910390f35b61058d60048036038101906105889190613fc6565b61244a565b005b6105a960048036038101906105a49190614212565b61248c565b005b6105c560048036038101906105c09190614789565b612576565b005b6105e160048036038101906105dc9190614212565b612cdb565b6040516105ee919061476e565b60405180910390f35b610611600480360381019061060c919061423f565b6130b0565b60405161061e919061427f565b60405180910390f35b61062f6130d5565b005b61064b60048036038101906106469190614828565b613176565b005b6106556134a7565b005b610671600480360381019061066c9190613fc6565b6136b8565b60405161067e91906149e3565b60405180910390f35b6106a1600480360381019061069c9190614212565b6137b3565b6040516106ae919061427f565b60405180910390f35b6106d160048036038101906106cc9190613fc6565b6137cb565b6040516106de9190614731565b60405180910390f35b6106ef613879565b6040516106fc9190614a64565b60405180910390f35b61071f600480360381019061071a919061423f565b61389f565b60405161072c919061476e565b60405180910390f35b61073d6138ce565b60405161074a9190614731565b60405180910390f35b61076d6004803603810190610768919061423f565b61395c565b005b610777613ae1565b6040516107849190614a64565b60405180910390f35b6107a760048036038101906107a2919061423f565b613b07565b005b60046020528060005260406000206000915090508060000154908060010160009054906101000a900473ffffffffffffffffffffffffffffffffffffffff16908060020180546107f890614aae565b80601f016020809104026020016040519081016040528092919081815260200182805461082490614aae565b80156108715780601f1061084657610100808354040283529160200191610871565b820191906000526020600020905b81548152906001019060200180831161085457829003601f168201915b50505050509080600301805461088690614aae565b80601f01602080910402602001604051908101604052809291908181526020018280546108b290614aae565b80156108ff5780601f106108d4576101008083540402835291602001916108ff565b820191906000526020600020905b8154815290600101906020018083116108e257829003601f168201915b5050505050908060040154908060070160009054906101000a900460ff169080600801549080600901805461093390614aae565b80601f016020809104026020016040519081016040528092919081815260200182805461095f90614aae565b80156109ac5780601f10610981576101008083540402835291602001916109ac565b820191906000526020600020905b81548152906001019060200180831161098f57829003601f168201915b5050505050905088565b60016004600083815260200190815260200160002060070160006101000a81548160ff021916908360028111156109f0576109ef6140dc565b5b021790555050565b610a0133612cdb565b610a40576040517f08c379a0000000000000000000000000000000000000000000000000000000008152600401610a3790614b2b565b60405180910390fd5b600b60009054906101000a900473ffffffffffffffffffffffffffffffffffffffff1673ffffffffffffffffffffffffffffffffffffffff16635dc73582826040518263ffffffff1660e01b8152600401610a9b9190614b4b565b6020604051808303816000875af1158015610aba573d6000803e3d6000fd5b505050506040513d601f19601f82011682018060405250810190610ade9190614b92565b5050565b600b60009054906101000a900473ffffffffffffffffffffffffffffffffffffffff1673ffffffffffffffffffffffffffffffffffffffff1663b1d1ea9782336040518363ffffffff1660e01b8152600401610b3f929190614bbf565b6020604051808303816000875af1158015610b5e573d6000803e3d6000fd5b505050506040513d601f19601f82011682018060405250810190610b829190614b92565b5050565b610b8f33612cdb565b610bce576040517f08c379a0000000000000000000000000000000000000000000000000000000008152600401610bc590614c34565b60405180910390fd5b670de0b6b3a764000081610be29190614c83565b600960008473ffffffffffffffffffffffffffffffffffffffff1673ffffffffffffffffffffffffffffffffffffffff1681526020019081526020016000206000828254610c309190614cdd565b925050819055505050565b610c4433612cdb565b80610c9c5750600360009054906101000a900473ffffffffffffffffffffffffffffffffffffffff1673ffffffffffffffffffffffffffffffffffffffff163373ffffffffffffffffffffffffffffffffffffffff16145b610cdb576040517f08c379a0000000000000000000000000000000000000000000000000000000008152600401610cd290614da5565b60405180910390fd5b600a60009054906101000a900473ffffffffffffffffffffffffffffffffffffffff1673ffffffffffffffffffffffffffffffffffffffff1663c3b639b66040518163ffffffff1660e01b81526004016020604051808303816000875af1158015610d4a573d6000803e3d6000fd5b505050506040513d601f19601f82011682018060405250810190610d6e9190614b92565b50600360009054906101000a900473ffffffffffffffffffffffffffffffffffffffff1673ffffffffffffffffffffffffffffffffffffffff166383bef7a930336040518363ffffffff1660e01b8152600401610dcc929190614de6565b600060405180830381600087803b158015610de657600080fd5b505af1158015610dfa573d6000803e3d6000fd5b50505050600b60009054906101000a900473ffffffffffffffffffffffffffffffffffffffff1673ffffffffffffffffffffffffffffffffffffffff1663c3b639b66040518163ffffffff1660e01b81526004016020604051808303816000875af1158015610e6d573d6000803e3d6000fd5b505050506040513d601f19601f82011682018060405250810190610e919190614b92565b50565b610e9d33612cdb565b610edc576040517f08c379a0000000000000000000000000000000000000000000000000000000008152600401610ed390614c34565b60405180910390fd5b600a60009054906101000a900473ffffffffffffffffffffffffffffffffffffffff1673ffffffffffffffffffffffffffffffffffffffff16638da9e67783670de0b6b3a764000084610f2f9190614c83565b6040518363ffffffff1660e01b8152600401610f4c929190614e0f565b6020604051808303816000875af1158015610f6b573d6000803e3d6000fd5b505050506040513d601f19601f82011682018060405250810190610f8f9190614b92565b50610f9981613bbc565b5050565b600c5481565b60026004600083815260200190815260200160002060070160006101000a81548160ff02191690836002811115610fdd57610fdc6140dc565b5b021790555050565b600a60009054906101000a900473ffffffffffffffffffffffffffffffffffffffff1673ffffffffffffffffffffffffffffffffffffffff1663b1d1ea9782336040518363ffffffff1660e01b8152600401611042929190614bbf565b6020604051808303816000875af1158015611061573d6000803e3d6000fd5b505050506040513d601f19601f820116820180604052508101906110859190614b92565b5050565b670de0b6b3a76400008161109d9190614c83565b600860003373ffffffffffffffffffffffffffffffffffffffff1673ffffffffffffffffffffffffffffffffffffffff16815260200190815260200160002054101561111e576040517f08c379a000000000000000000000000000000000000000000000000000000000815260040161111590614e84565b60405180910390fd5b670de0b6b3a7640000816111329190614c83565b600860003373ffffffffffffffffffffffffffffffffffffffff1673ffffffffffffffffffffffffffffffffffffffff16815260200190815260200160002060008282546111809190614ea4565b92505081905550600a60009054906101000a900473ffffffffffffffffffffffffffffffffffffffff1673ffffffffffffffffffffffffffffffffffffffff16638da9e67733670de0b6b3a7640000846111da9190614c83565b6040518363ffffffff1660e01b81526004016111f7929190614e0f565b6020604051808303816000875af1158015611216573d6000803e3d6000fd5b505050506040513d601f19601f8201168201806040525081019061123a9190614b92565b5061124481613bbc565b50565b60606000600c5467ffffffffffffffff811115611267576112666143cd565b5b60405190808252806020026020018201604052801561129a57816020015b60608152602001906001900390816112855790505b50905060005b600c5481101561137a576004600082815260200190815260200160002060030180546112cb90614aae565b80601f01602080910402602001604051908101604052809291908181526020018280546112f790614aae565b80156113445780601f1061131957610100808354040283529160200191611344565b820191906000526020600020905b81548152906001019060200180831161132757829003601f168201915b505050505082828151811061135c5761135b614ed8565b5b6020026020010181905250808061137290614f07565b9150506112a0565b508091505090565b61138b33612cdb565b6113ca576040517f08c379a00000000000000000000000000000000000000000000000000000000081526004016113c190614b2b565b60405180910390fd5b600b60009054906101000a900473ffffffffffffffffffffffffffffffffffffffff1673ffffffffffffffffffffffffffffffffffffffff1663c3b639b66040518163ffffffff1660e01b81526004016020604051808303816000875af1158015611439573d6000803e3d6000fd5b505050506040513d601f19601f8201168201806040525081019061145d9190614b92565b50565b6000600254905090565b600080600090506004600084815260200190815260200160002060080154905080915050919050565b60606000600c5467ffffffffffffffff8111156114b3576114b26143cd565b5b6040519080825280602002602001820160405280156114e657816020015b60608152602001906001900390816114d15790505b50905060005b600c548110156115c65760046000828152602001908152602001600020600201805461151790614aae565b80601f016020809104026020016040519081016040528092919081815260200182805461154390614aae565b80156115905780601f1061156557610100808354040283529160200191611590565b820191906000526020600020905b81548152906001019060200180831161157357829003601f168201915b50505050508282815181106115a8576115a7614ed8565b5b602002602001018190525080806115be90614f07565b9150506114ec565b508091505090565b6115d733612cdb565b611616576040517f08c379a000000000000000000000000000000000000000000000000000000000815260040161160d90614b2b565b60405180910390fd5b600a60009054906101000a900473ffffffffffffffffffffffffffffffffffffffff1673ffffffffffffffffffffffffffffffffffffffff1663c3b639b66040518163ffffffff1660e01b81526004016020604051808303816000875af1158015611685573d6000803e3d6000fd5b505050506040513d601f19601f820116820180604052508101906116a99190614b92565b50565b60096020528060005260406000206000915090505481565b600b60009054906101000a900473ffffffffffffffffffffffffffffffffffffffff1673ffffffffffffffffffffffffffffffffffffffff1663a95bbced836040518263ffffffff1660e01b815260040161171f9190614b4b565b602060405180830381865afa15801561173c573d6000803e3d6000fd5b505050506040513d601f19601f820116820180604052508101906117609190614f64565b8111156117a2576040517f08c379a000000000000000000000000000000000000000000000000000000000815260040161179990614fdd565b60405180910390fd5b600b60009054906101000a900473ffffffffffffffffffffffffffffffffffffffff1673ffffffffffffffffffffffffffffffffffffffff1663490169348333846040518463ffffffff1660e01b815260040161180193929190614ffd565b6020604051808303816000875af1158015611820573d6000803e3d6000fd5b505050506040513d601f19601f820116820180604052508101906118449190614b92565b505050565b600a60009054906101000a900473ffffffffffffffffffffffffffffffffffffffff1673ffffffffffffffffffffffffffffffffffffffff1663396473f7336040518263ffffffff1660e01b81526004016118a49190614b4b565b6020604051808303816000875af11580156118c3573d6000803e3d6000fd5b505050506040513d601f19601f820116820180604052508101906118e79190614b92565b50565b6118f333612cdb565b611932576040517f08c379a000000000000000000000000000000000000000000000000000000000815260040161192990614c34565b60405180910390fd5b600b60009054906101000a900473ffffffffffffffffffffffffffffffffffffffff1673ffffffffffffffffffffffffffffffffffffffff16638da9e67783670de0b6b3a7640000846119859190614c83565b6040518363ffffffff1660e01b81526004016119a2929190614e0f565b6020604051808303816000875af11580156119c1573d6000803e3d6000fd5b505050506040513d601f19601f820116820180604052508101906119e59190614b92565b506119ef81613c50565b5050565b600060046000858152602001908152602001600020905060001515600560003373ffffffffffffffffffffffffffffffffffffffff1673ffffffffffffffffffffffffffffffffffffffff168152602001908152602001600020600086815260200190815260200160002060009054906101000a900460ff16151514611aae576040517f08c379a0000000000000000000000000000000000000000000000000000000008152600401611aa590615080565b60405180910390fd5b6000600a60009054906101000a900473ffffffffffffffffffffffffffffffffffffffff1673ffffffffffffffffffffffffffffffffffffffff166370a08231336040518263ffffffff1660e01b8152600401611b0b9190614b4b565b602060405180830381865afa158015611b28573d6000803e3d6000fd5b505050506040513d601f19601f82011682018060405250810190611b4c9190614f64565b11611b8c576040517f08c379a0000000000000000000000000000000000000000000000000000000008152600401611b8390615112565b60405180910390fd5b62093a808160040154611b9f9190614cdd565b421115611be1576040517f08c379a0000000000000000000000000000000000000000000000000000000008152600401611bd89061517e565b60405180910390fd5b600280811115611bf457611bf36140dc565b5b6004600086815260200190815260200160002060070160009054906101000a900460ff166002811115611c2a57611c296140dc565b5b14611c6a576040517f08c379a0000000000000000000000000000000000000000000000000000000008152600401611c61906151ea565b60405180910390fd5b6000805b8351811015611cb257838181518110611c8a57611c89614ed8565b5b602002602001015182611c9d9190614cdd565b91508080611caa90614f07565b915050611c6e565b508160080154811115611cc457600080fd5b6000805b8360050180549050811015611de05760005b8651811015611dcc57611daf856005018381548110611cfc57611cfb614ed8565b5b906000526020600020018054611d1190614aae565b80601f0160208091040260200160405190810160405280929190818152602001828054611d3d90614aae565b8015611d8a5780601f10611d5f57610100808354040283529160200191611d8a565b820191906000526020600020905b815481529060010190602001808311611d6d57829003601f168201915b5050505050888381518110611da257611da1614ed8565b5b6020026020010151613ce4565b15611db957600192505b8080611dc490614f07565b915050611cda565b508080611dd890614f07565b915050611cc8565b506001151581151514611df257600080fd5b60005b8360050180549050811015611f5a5760005b8651811015611f4657611edc856005018381548110611e2957611e28614ed8565b5b906000526020600020018054611e3e90614aae565b80601f0160208091040260200160405190810160405280929190818152602001828054611e6a90614aae565b8015611eb75780601f10611e8c57610100808354040283529160200191611eb7565b820191906000526020600020905b815481529060010190602001808311611e9a57829003601f168201915b5050505050888381518110611ecf57611ece614ed8565b5b6020026020010151613ce4565b15611f3357858181518110611ef457611ef3614ed8565b5b6020026020010151856006018381548110611f1257611f11614ed8565b5b906000526020600020016000828254611f2b9190614cdd565b925050819055505b8080611f3e90614f07565b915050611e07565b508080611f5290614f07565b915050611df5565b506001600560003373ffffffffffffffffffffffffffffffffffffffff1673ffffffffffffffffffffffffffffffffffffffff168152602001908152602001600020600088815260200190815260200160002060006101000a81548160ff021916908315150217905550600a60009054906101000a900473ffffffffffffffffffffffffffffffffffffffff1673ffffffffffffffffffffffffffffffffffffffff1663fc13d51887336040518363ffffffff1660e01b815260040161202192919061520a565b600060405180830381600087803b15801561203b57600080fd5b505af115801561204f573d6000803e3d6000fd5b50505050505050505050565b80600960003373ffffffffffffffffffffffffffffffffffffffff1673ffffffffffffffffffffffffffffffffffffffff1681526020019081526020016000205410156120dd576040517f08c379a00000000000000000000000000000000000000000000000000000000081526004016120d490614e84565b60405180910390fd5b670de0b6b3a7640000816120f19190614c83565b600960003373ffffffffffffffffffffffffffffffffffffffff1673ffffffffffffffffffffffffffffffffffffffff168152602001908152602001600020600082825461213f9190614ea4565b92505081905550600b60009054906101000a900473ffffffffffffffffffffffffffffffffffffffff1673ffffffffffffffffffffffffffffffffffffffff16638da9e67733670de0b6b3a7640000846121999190614c83565b6040518363ffffffff1660e01b81526004016121b6929190614e0f565b6020604051808303816000875af11580156121d5573d6000803e3d6000fd5b505050506040513d601f19601f820116820180604052508101906121f99190614b92565b5061220381613c50565b50565b60606000600460008481526020019081526020016000206005018054905067ffffffffffffffff81111561223d5761223c6143cd565b5b60405190808252806020026020018201604052801561227057816020015b606081526020019060019003908161225b5790505b50905060005b6004600085815260200190815260200160002060050180549050811015612383576004600085815260200190815260200160002060050181815481106122bf576122be614ed8565b5b9060005260206000200180546122d490614aae565b80601f016020809104026020016040519081016040528092919081815260200182805461230090614aae565b801561234d5780601f106123225761010080835404028352916020019161234d565b820191906000526020600020905b81548152906001019060200180831161233057829003601f168201915b505050505082828151811061236557612364614ed8565b5b6020026020010181905250808061237b90614f07565b915050612276565b5080915050919050565b6001805461239a90614aae565b80601f01602080910402602001604051908101604052809291908181526020018280546123c690614aae565b80156124135780601f106123e857610100808354040283529160200191612413565b820191906000526020600020905b8154815290600101906020018083116123f657829003601f168201915b505050505081565b60056020528160005260406000206020528060005260406000206000915091509054906101000a900460ff1681565b60006004600083815260200190815260200160002060070160006101000a81548160ff02191690836002811115612484576124836140dc565b5b021790555050565b61249533612cdb565b6124d4576040517f08c379a00000000000000000000000000000000000000000000000000000000081526004016124cb90614b2b565b60405180910390fd5b600a60009054906101000a900473ffffffffffffffffffffffffffffffffffffffff1673ffffffffffffffffffffffffffffffffffffffff16635dc73582826040518263ffffffff1660e01b815260040161252f9190614b4b565b6020604051808303816000875af115801561254e573d6000803e3d6000fd5b505050506040513d601f19601f820116820180604052508101906125729190614b92565b5050565b600060046000868152602001908152602001600020905060001515600560003373ffffffffffffffffffffffffffffffffffffffff1673ffffffffffffffffffffffffffffffffffffffff168152602001908152602001600020600087815260200190815260200160002060009054906101000a900460ff16151514612631576040517f08c379a000000000000000000000000000000000000000000000000000000000815260040161262890615080565b60405180910390fd5b670de0b6b3a7640000600a60009054906101000a900473ffffffffffffffffffffffffffffffffffffffff1673ffffffffffffffffffffffffffffffffffffffff166370a08231336040518263ffffffff1660e01b81526004016126959190614b4b565b602060405180830381865afa1580156126b2573d6000803e3d6000fd5b505050506040513d601f19601f820116820180604052508101906126d69190614f64565b6126e09190615262565b821115612722576040517f08c379a000000000000000000000000000000000000000000000000000000000815260040161271990615305565b60405180910390fd5b6000600a60009054906101000a900473ffffffffffffffffffffffffffffffffffffffff1673ffffffffffffffffffffffffffffffffffffffff166370a08231336040518263ffffffff1660e01b815260040161277f9190614b4b565b602060405180830381865afa15801561279c573d6000803e3d6000fd5b505050506040513d601f19601f820116820180604052508101906127c09190614f64565b11612800576040517f08c379a00000000000000000000000000000000000000000000000000000000081526004016127f790615397565b60405180910390fd5b62093a8081600401546128139190614cdd565b421115612855576040517f08c379a000000000000000000000000000000000000000000000000000000000815260040161284c9061517e565b60405180910390fd5b600280811115612868576128676140dc565b5b6004600087815260200190815260200160002060070160009054906101000a900460ff16600281111561289e5761289d6140dc565b5b146128de576040517f08c379a00000000000000000000000000000000000000000000000000000000081526004016128d5906151ea565b60405180910390fd5b6000805b8451811015612926578481815181106128fe576128fd614ed8565b5b6020026020010151826129119190614cdd565b9150808061291e90614f07565b9150506128e2565b50816008015481111561293857600080fd5b6000805b8360050180549050811015612a545760005b8751811015612a4057612a238560050183815481106129705761296f614ed8565b5b90600052602060002001805461298590614aae565b80601f01602080910402602001604051908101604052809291908181526020018280546129b190614aae565b80156129fe5780601f106129d3576101008083540402835291602001916129fe565b820191906000526020600020905b8154815290600101906020018083116129e157829003601f168201915b5050505050898381518110612a1657612a15614ed8565b5b6020026020010151613ce4565b15612a2d57600192505b8080612a3890614f07565b91505061294e565b508080612a4c90614f07565b91505061293c565b506001151581151514612a6657600080fd5b60005b8360050180549050811015612bd95760005b8751811015612bc557612b50856005018381548110612a9d57612a9c614ed8565b5b906000526020600020018054612ab290614aae565b80601f0160208091040260200160405190810160405280929190818152602001828054612ade90614aae565b8015612b2b5780601f10612b0057610100808354040283529160200191612b2b565b820191906000526020600020905b815481529060010190602001808311612b0e57829003601f168201915b5050505050898381518110612b4357612b42614ed8565b5b6020026020010151613ce4565b15612bb25785878281518110612b6957612b68614ed8565b5b6020026020010151612b7b9190614c83565b856006018381548110612b9157612b90614ed8565b5b906000526020600020016000828254612baa9190614cdd565b925050819055505b8080612bbd90614f07565b915050612a7b565b508080612bd190614f07565b915050612a69565b506001600560003373ffffffffffffffffffffffffffffffffffffffff1673ffffffffffffffffffffffffffffffffffffffff168152602001908152602001600020600089815260200190815260200160002060006101000a81548160ff021916908315150217905550600a60009054906101000a900473ffffffffffffffffffffffffffffffffffffffff1673ffffffffffffffffffffffffffffffffffffffff1663fc13d51888336040518363ffffffff1660e01b8152600401612ca092919061520a565b600060405180830381600087803b158015612cba57600080fd5b505af1158015612cce573d6000803e3d6000fd5b5050505050505050505050565b60006001600b60009054906101000a900473ffffffffffffffffffffffffffffffffffffffff1673ffffffffffffffffffffffffffffffffffffffff166370a08231846040518263ffffffff1660e01b8152600401612d3a9190614b4b565b602060405180830381865afa158015612d57573d6000803e3d6000fd5b505050506040513d601f19601f82011682018060405250810190612d7b9190614f64565b10612d8957600190506130ab565b6000600360009054906101000a900473ffffffffffffffffffffffffffffffffffffffff1673ffffffffffffffffffffffffffffffffffffffff16637a57c0ff6002546040518263ffffffff1660e01b8152600401612de8919061427f565b602060405180830381865afa158015612e05573d6000803e3d6000fd5b505050506040513d601f19601f82011682018060405250810190612e2991906153f5565b90506000600360009054906101000a900473ffffffffffffffffffffffffffffffffffffffff1673ffffffffffffffffffffffffffffffffffffffff16632c36b4b4836040518263ffffffff1660e01b8152600401612e889190615422565b602060405180830381865afa158015612ea5573d6000803e3d6000fd5b505050506040513d601f19601f82011682018060405250810190612ec991906153f5565b905060005b600073ffffffffffffffffffffffffffffffffffffffff168273ffffffffffffffffffffffffffffffffffffffff16146130a457670de0b6b3a76400008273ffffffffffffffffffffffffffffffffffffffff1663f70e51a76040518163ffffffff1660e01b8152600401602060405180830381865afa158015612f56573d6000803e3d6000fd5b505050506040513d601f19601f82011682018060405250810190612f7a919061547b565b73ffffffffffffffffffffffffffffffffffffffff166370a08231876040518263ffffffff1660e01b8152600401612fb29190614b4b565b602060405180830381865afa158015612fcf573d6000803e3d6000fd5b505050506040513d601f19601f82011682018060405250810190612ff39190614f64565b1061300157600190506130a4565b600360009054906101000a900473ffffffffffffffffffffffffffffffffffffffff1673ffffffffffffffffffffffffffffffffffffffff16632c36b4b4836040518263ffffffff1660e01b815260040161305c9190615422565b602060405180830381865afa158015613079573d6000803e3d6000fd5b505050506040513d601f19601f8201168201806040525081019061309d91906153f5565b9150612ece565b8093505050505b919050565b6007602052816000526040600020602052806000526040600020600091509150505481565b600b60009054906101000a900473ffffffffffffffffffffffffffffffffffffffff1673ffffffffffffffffffffffffffffffffffffffff1663396473f7336040518263ffffffff1660e01b81526004016131309190614b4b565b6020604051808303816000875af115801561314f573d6000803e3d6000fd5b505050506040513d601f19601f820116820180604052508101906131739190614b92565b50565b61317f33612cdb565b6131be576040517f08c379a00000000000000000000000000000000000000000000000000000000081526004016131b59061551a565b60405180910390fd5b606060008203613205576040518060400160405280600681526020017f6e6f726d616c00000000000000000000000000000000000000000000000000008152509050613247565b60018203613246576040518060400160405280600881526020017f776569676874656400000000000000000000000000000000000000000000000081525090505b5b604051806101400160405280600c5481526020013373ffffffffffffffffffffffffffffffffffffffff1681526020018881526020018781526020014281526020018681526020018581526020016002808111156132a8576132a76140dc565b5b81526020018481526020018281525060046000600c5481526020019081526020016000206000820151816000015560208201518160010160006101000a81548173ffffffffffffffffffffffffffffffffffffffff021916908373ffffffffffffffffffffffffffffffffffffffff1602179055506040820151816002019080519060200190613339929190613dc8565b506060820151816003019080519060200190613356929190613dc8565b506080820151816004015560a082015181600501908051906020019061337d929190613e4e565b5060c082015181600601908051906020019061339a929190613eae565b5060e08201518160070160006101000a81548160ff021916908360028111156133c6576133c56140dc565b5b021790555061010082015181600801556101208201518160090190805190602001906133f3929190613dc8565b50905050600c600081548092919061340a90614f07565b9190505550600a60009054906101000a900473ffffffffffffffffffffffffffffffffffffffff1673ffffffffffffffffffffffffffffffffffffffff1663a19dea70600c546040518263ffffffff1660e01b815260040161346c919061427f565b600060405180830381600087803b15801561348657600080fd5b505af115801561349a573d6000803e3d6000fd5b5050505050505050505050565b60005b600c548110156136b5576002808111156134c7576134c66140dc565b5b6004600083815260200190815260200160002060070160009054906101000a900460ff1660028111156134fd576134fc6140dc565b5b1461359257600a60009054906101000a900473ffffffffffffffffffffffffffffffffffffffff1673ffffffffffffffffffffffffffffffffffffffff1663ff2b5fa182336040518363ffffffff1660e01b815260040161355f92919061520a565b600060405180830381600087803b15801561357957600080fd5b505af115801561358d573d6000803e3d6000fd5b505050505b7f4c42442933829b3de657efc6a23fbe895206dd2453c5a00c3e26d2e969f8272760046000838152602001908152602001600020600001546004600084815260200190815260200160002060010160009054906101000a900473ffffffffffffffffffffffffffffffffffffffff16600460008581526020019081526020016000206002016004600086815260200190815260200160002060030160046000878152602001908152602001600020600501600460008881526020019081526020016000206006016004600089815260200190815260200160002060080154600460008a815260200190815260200160002060090160405161369a9897969594939291906157da565b60405180910390a180806136ad90614f07565b9150506134aa565b50565b60606000600460008481526020019081526020016000206006018054905067ffffffffffffffff8111156136ef576136ee6143cd565b5b60405190808252806020026020018201604052801561371d5781602001602082028036833780820191505090505b50905060005b60046000858152602001908152602001600020600601805490508110156137a95760046000858152602001908152602001600020600601818154811061376c5761376b614ed8565b5b906000526020600020015482828151811061378a57613789614ed8565b5b60200260200101818152505080806137a190614f07565b915050613723565b5080915050919050565b60086020528060005260406000206000915090505481565b606060006004600084815260200190815260200160002060090180546137f090614aae565b80601f016020809104026020016040519081016040528092919081815260200182805461381c90614aae565b80156138695780601f1061383e57610100808354040283529160200191613869565b820191906000526020600020905b81548152906001019060200180831161384c57829003601f168201915b5050505050905080915050919050565b600a60009054906101000a900473ffffffffffffffffffffffffffffffffffffffff1681565b60066020528160005260406000206020528060005260406000206000915091509054906101000a900460ff1681565b600080546138db90614aae565b80601f016020809104026020016040519081016040528092919081815260200182805461390790614aae565b80156139545780601f1061392957610100808354040283529160200191613954565b820191906000526020600020905b81548152906001019060200180831161393757829003601f168201915b505050505081565b600a60009054906101000a900473ffffffffffffffffffffffffffffffffffffffff1673ffffffffffffffffffffffffffffffffffffffff1663a95bbced836040518263ffffffff1660e01b81526004016139b79190614b4b565b602060405180830381865afa1580156139d4573d6000803e3d6000fd5b505050506040513d601f19601f820116820180604052508101906139f89190614f64565b811115613a3a576040517f08c379a0000000000000000000000000000000000000000000000000000000008152600401613a3190614fdd565b60405180910390fd5b600a60009054906101000a900473ffffffffffffffffffffffffffffffffffffffff1673ffffffffffffffffffffffffffffffffffffffff1663490169348333846040518463ffffffff1660e01b8152600401613a9993929190614ffd565b6020604051808303816000875af1158015613ab8573d6000803e3d6000fd5b505050506040513d601f19601f82011682018060405250810190613adc9190614b92565b505050565b600b60009054906101000a900473ffffffffffffffffffffffffffffffffffffffff1681565b613b1033612cdb565b613b4f576040517f08c379a0000000000000000000000000000000000000000000000000000000008152600401613b4690614c34565b60405180910390fd5b670de0b6b3a764000081613b639190614c83565b600860008473ffffffffffffffffffffffffffffffffffffffff1673ffffffffffffffffffffffffffffffffffffffff1681526020019081526020016000206000828254613bb19190614cdd565b925050819055505050565b600360009054906101000a900473ffffffffffffffffffffffffffffffffffffffff1673ffffffffffffffffffffffffffffffffffffffff166350ee8e8f3083336040518463ffffffff1660e01b8152600401613c1b9392919061587b565b600060405180830381600087803b158015613c3557600080fd5b505af1158015613c49573d6000803e3d6000fd5b5050505050565b600360009054906101000a900473ffffffffffffffffffffffffffffffffffffffff1673ffffffffffffffffffffffffffffffffffffffff1663205cdcff3083336040518463ffffffff1660e01b8152600401613caf9392919061587b565b600060405180830381600087803b158015613cc957600080fd5b505af1158015613cdd573d6000803e3d6000fd5b5050505050565b600080839050600083905060008251905081518114613d095760009350505050613dc2565b60005b81811015613db957828181518110613d2757613d26614ed8565b5b602001015160f81c60f81b7effffffffffffffffffffffffffffffffffffffffffffffffffffffffffffff1916848281518110613d6757613d66614ed8565b5b602001015160f81c60f81b7effffffffffffffffffffffffffffffffffffffffffffffffffffffffffffff191614613da6576000945050505050613dc2565b8080613db190614f07565b915050613d0c565b50600193505050505b92915050565b828054613dd490614aae565b90600052602060002090601f016020900481019282613df65760008555613e3d565b82601f10613e0f57805160ff1916838001178555613e3d565b82800160010185558215613e3d579182015b82811115613e3c578251825591602001919060010190613e21565b5b509050613e4a9190613efb565b5090565b828054828255906000526020600020908101928215613e9d579160200282015b82811115613e9c578251829080519060200190613e8c929190613dc8565b5091602001919060010190613e6e565b5b509050613eaa9190613f18565b5090565b828054828255906000526020600020908101928215613eea579160200282015b82811115613ee9578251825591602001919060010190613ece565b5b509050613ef79190613efb565b5090565b5b80821115613f14576000816000905550600101613efc565b5090565b5b80821115613f385760008181613f2f9190613f3c565b50600101613f19565b5090565b508054613f4890614aae565b6000825580601f10613f5a5750613f79565b601f016020900490600052602060002090810190613f789190613efb565b5b50565b6000604051905090565b600080fd5b600080fd5b6000819050919050565b613fa381613f90565b8114613fae57600080fd5b50565b600081359050613fc081613f9a565b92915050565b600060208284031215613fdc57613fdb613f86565b5b6000613fea84828501613fb1565b91505092915050565b613ffc81613f90565b82525050565b600073ffffffffffffffffffffffffffffffffffffffff82169050919050565b600061402d82614002565b9050919050565b61403d81614022565b82525050565b600081519050919050565b600082825260208201905092915050565b60005b8381101561407d578082015181840152602081019050614062565b8381111561408c576000848401525b50505050565b6000601f19601f8301169050919050565b60006140ae82614043565b6140b8818561404e565b93506140c881856020860161405f565b6140d181614092565b840191505092915050565b7f4e487b7100000000000000000000000000000000000000000000000000000000600052602160045260246000fd5b6003811061411c5761411b6140dc565b5b50565b600081905061412d8261410b565b919050565b600061413d8261411f565b9050919050565b61414d81614132565b82525050565b600061010082019050614169600083018b613ff3565b614176602083018a614034565b818103604083015261418881896140a3565b9050818103606083015261419c81886140a3565b90506141ab6080830187613ff3565b6141b860a0830186614144565b6141c560c0830185613ff3565b81810360e08301526141d781846140a3565b90509998505050505050505050565b6141ef81614022565b81146141fa57600080fd5b50565b60008135905061420c816141e6565b92915050565b60006020828403121561422857614227613f86565b5b6000614236848285016141fd565b91505092915050565b6000806040838503121561425657614255613f86565b5b6000614264858286016141fd565b925050602061427585828601613fb1565b9150509250929050565b60006020820190506142946000830184613ff3565b92915050565b600081519050919050565b600082825260208201905092915050565b6000819050602082019050919050565b600082825260208201905092915050565b60006142e282614043565b6142ec81856142c6565b93506142fc81856020860161405f565b61430581614092565b840191505092915050565b600061431c83836142d7565b905092915050565b6000602082019050919050565b600061433c8261429a565b61434681856142a5565b935083602082028501614358856142b6565b8060005b8581101561439457848403895281516143758582614310565b945061438083614324565b925060208a0199505060018101905061435c565b50829750879550505050505092915050565b600060208201905081810360008301526143c08184614331565b905092915050565b600080fd5b7f4e487b7100000000000000000000000000000000000000000000000000000000600052604160045260246000fd5b61440582614092565b810181811067ffffffffffffffff82111715614424576144236143cd565b5b80604052505050565b6000614437613f7c565b905061444382826143fc565b919050565b600067ffffffffffffffff821115614463576144626143cd565b5b602082029050602081019050919050565b600080fd5b600080fd5b600067ffffffffffffffff821115614499576144986143cd565b5b6144a282614092565b9050602081019050919050565b82818337600083830152505050565b60006144d16144cc8461447e565b61442d565b9050828152602081018484840111156144ed576144ec614479565b5b6144f88482856144af565b509392505050565b600082601f830112614515576145146143c8565b5b81356145258482602086016144be565b91505092915050565b600061454161453c84614448565b61442d565b9050808382526020820190506020840283018581111561456457614563614474565b5b835b818110156145ab57803567ffffffffffffffff811115614589576145886143c8565b5b8086016145968982614500565b85526020850194505050602081019050614566565b5050509392505050565b600082601f8301126145ca576145c96143c8565b5b81356145da84826020860161452e565b91505092915050565b600067ffffffffffffffff8211156145fe576145fd6143cd565b5b602082029050602081019050919050565b600061462261461d846145e3565b61442d565b9050808382526020820190506020840283018581111561464557614644614474565b5b835b8181101561466e578061465a8882613fb1565b845260208401935050602081019050614647565b5050509392505050565b600082601f83011261468d5761468c6143c8565b5b813561469d84826020860161460f565b91505092915050565b6000806000606084860312156146bf576146be613f86565b5b60006146cd86828701613fb1565b935050602084013567ffffffffffffffff8111156146ee576146ed613f8b565b5b6146fa868287016145b5565b925050604084013567ffffffffffffffff81111561471b5761471a613f8b565b5b61472786828701614678565b9150509250925092565b6000602082019050818103600083015261474b81846140a3565b905092915050565b60008115159050919050565b61476881614753565b82525050565b6000602082019050614783600083018461475f565b92915050565b600080600080608085870312156147a3576147a2613f86565b5b60006147b187828801613fb1565b945050602085013567ffffffffffffffff8111156147d2576147d1613f8b565b5b6147de878288016145b5565b935050604085013567ffffffffffffffff8111156147ff576147fe613f8b565b5b61480b87828801614678565b925050606061481c87828801613fb1565b91505092959194509250565b60008060008060008060c0878903121561484557614844613f86565b5b600087013567ffffffffffffffff81111561486357614862613f8b565b5b61486f89828a01614500565b965050602087013567ffffffffffffffff8111156148905761488f613f8b565b5b61489c89828a01614500565b955050604087013567ffffffffffffffff8111156148bd576148bc613f8b565b5b6148c989828a016145b5565b945050606087013567ffffffffffffffff8111156148ea576148e9613f8b565b5b6148f689828a01614678565b935050608061490789828a01613fb1565b92505060a061491889828a01613fb1565b9150509295509295509295565b600081519050919050565b600082825260208201905092915050565b6000819050602082019050919050565b61495a81613f90565b82525050565b600061496c8383614951565b60208301905092915050565b6000602082019050919050565b600061499082614925565b61499a8185614930565b93506149a583614941565b8060005b838110156149d65781516149bd8882614960565b97506149c883614978565b9250506001810190506149a9565b5085935050505092915050565b600060208201905081810360008301526149fd8184614985565b905092915050565b6000819050919050565b6000614a2a614a25614a2084614002565b614a05565b614002565b9050919050565b6000614a3c82614a0f565b9050919050565b6000614a4e82614a31565b9050919050565b614a5e81614a43565b82525050565b6000602082019050614a796000830184614a55565b92915050565b7f4e487b7100000000000000000000000000000000000000000000000000000000600052602260045260246000fd5b60006002820490506001821680614ac657607f821691505b602082108103614ad957614ad8614a7f565b5b50919050565b7f646f6573206e6f74206861766520796b2070726976696c696765730000000000600082015250565b6000614b15601b8361404e565b9150614b2082614adf565b602082019050919050565b60006020820190508181036000830152614b4481614b08565b9050919050565b6000602082019050614b606000830184614034565b92915050565b614b6f81614753565b8114614b7a57600080fd5b50565b600081519050614b8c81614b66565b92915050565b600060208284031215614ba857614ba7613f86565b5b6000614bb684828501614b7d565b91505092915050565b6000604082019050614bd46000830185614034565b614be16020830184614034565b9392505050565b7f4e6f74206120594b000000000000000000000000000000000000000000000000600082015250565b6000614c1e60088361404e565b9150614c2982614be8565b602082019050919050565b60006020820190508181036000830152614c4d81614c11565b9050919050565b7f4e487b7100000000000000000000000000000000000000000000000000000000600052601160045260246000fd5b6000614c8e82613f90565b9150614c9983613f90565b9250817fffffffffffffffffffffffffffffffffffffffffffffffffffffffffffffffff0483118215151615614cd257614cd1614c54565b5b828202905092915050565b6000614ce882613f90565b9150614cf383613f90565b9250827fffffffffffffffffffffffffffffffffffffffffffffffffffffffffffffffff03821115614d2857614d27614c54565b5b828201905092915050565b7f646f6573206e6f74206861766520796b2070726976696c69676573206f72206960008201527f73206e6f7420666163746f727900000000000000000000000000000000000000602082015250565b6000614d8f602d8361404e565b9150614d9a82614d33565b604082019050919050565b60006020820190508181036000830152614dbe81614d82565b9050919050565b6000614dd082614a31565b9050919050565b614de081614dc5565b82525050565b6000604082019050614dfb6000830185614dd7565b614e086020830184614034565b9392505050565b6000604082019050614e246000830185614034565b614e316020830184613ff3565b9392505050565b7f4e6f7420656e6f75676820736861726573000000000000000000000000000000600082015250565b6000614e6e60118361404e565b9150614e7982614e38565b602082019050919050565b60006020820190508181036000830152614e9d81614e61565b9050919050565b6000614eaf82613f90565b9150614eba83613f90565b925082821015614ecd57614ecc614c54565b5b828203905092915050565b7f4e487b7100000000000000000000000000000000000000000000000000000000600052603260045260246000fd5b6000614f1282613f90565b91507fffffffffffffffffffffffffffffffffffffffffffffffffffffffffffffffff8203614f4457614f43614c54565b5b600182019050919050565b600081519050614f5e81613f9a565b92915050565b600060208284031215614f7a57614f79613f86565b5b6000614f8884828501614f4f565b91505092915050565b7f6e6f7420656e6f756768206465627420736f6d65686f77000000000000000000600082015250565b6000614fc760178361404e565b9150614fd282614f91565b602082019050919050565b60006020820190508181036000830152614ff681614fba565b9050919050565b60006060820190506150126000830186614034565b61501f6020830185614034565b61502c6040830184613ff3565b949350505050565b7f616c726561647920766f74656400000000000000000000000000000000000000600082015250565b600061506a600d8361404e565b915061507582615034565b602082019050919050565b600060208201905081810360008301526150998161505d565b9050919050565b7f4e6f7420656e6f7567682073686172657320746f20766f7465206f6e2061207060008201527f726f706f73616c00000000000000000000000000000000000000000000000000602082015250565b60006150fc60278361404e565b9150615107826150a0565b604082019050919050565b6000602082019050818103600083015261512b816150ef565b9050919050565b7f566f74696e6720706572696f64206973206f7665720000000000000000000000600082015250565b600061516860158361404e565b915061517382615132565b602082019050919050565b600060208201905081810360008301526151978161515b565b9050919050565b7f566f74696e6720706572696f642069732066696e697368656400000000000000600082015250565b60006151d460198361404e565b91506151df8261519e565b602082019050919050565b60006020820190508181036000830152615203816151c7565b9050919050565b600060408201905061521f6000830185613ff3565b61522c6020830184614034565b9392505050565b7f4e487b7100000000000000000000000000000000000000000000000000000000600052601260045260246000fd5b600061526d82613f90565b915061527883613f90565b92508261528857615287615233565b5b828204905092915050565b7f446f6e74206861766520656e6f75676820746f6b656e7320286368616e67652060008201527f7765696768742900000000000000000000000000000000000000000000000000602082015250565b60006152ef60278361404e565b91506152fa82615293565b604082019050919050565b6000602082019050818103600083015261531e816152e2565b9050919050565b7f446f6e74206861766520656e6f75676820746f6b656e7320286c69746572616c60008201527f6c79203029000000000000000000000000000000000000000000000000000000602082015250565b600061538160258361404e565b915061538c82615325565b604082019050919050565b600060208201905081810360008301526153b081615374565b9050919050565b60006153c282614022565b9050919050565b6153d2816153b7565b81146153dd57600080fd5b50565b6000815190506153ef816153c9565b92915050565b60006020828403121561540b5761540a613f86565b5b6000615419848285016153e0565b91505092915050565b60006020820190506154376000830184614dd7565b92915050565b600061544882614022565b9050919050565b6154588161543d565b811461546357600080fd5b50565b6000815190506154758161544f565b92915050565b60006020828403121561549157615490613f86565b5b600061549f84828501615466565b91505092915050565b7f4e6f7420656e6f7567682073686172657320746f20637265617465206120707260008201527f6f706f73616c0000000000000000000000000000000000000000000000000000602082015250565b600061550460268361404e565b915061550f826154a8565b604082019050919050565b60006020820190508181036000830152615533816154f7565b9050919050565b60008190508160005260206000209050919050565b6000815461555c81614aae565b615566818661404e565b945060018216600081146155815760018114615593576155c6565b60ff19831686526020860193506155c6565b61559c8561553a565b60005b838110156155be5781548189015260018201915060208101905061559f565b808801955050505b50505092915050565b600081549050919050565b60008190508160005260206000209050919050565b600081546155fc81614aae565b61560681866142c6565b94506001821660008114615621576001811461563357615666565b60ff1983168652602086019350615666565b61563c8561553a565b60005b8381101561565e5781548189015260018201915060208101905061563f565b808801955050505b50505092915050565b600061567b83836155ef565b905092915050565b6000600182019050919050565b600061569b826155cf565b6156a581856142a5565b9350836020820285016156b7856155da565b8060005b858110156156f2578484038952816156d3858261566f565b94506156de83615683565b925060208a019950506001810190506156bb565b50829750879550505050505092915050565b600081549050919050565b60008190508160005260206000209050919050565b60008160001c9050919050565b6000819050919050565b600061574e61574983615724565b615731565b9050919050565b6000615761825461573b565b9050919050565b6000600182019050919050565b600061578082615704565b61578a8185614930565b93506157958361570f565b8060005b838110156157cd576157aa82615755565b6157b48882614960565b97506157bf83615768565b925050600181019050615799565b5085935050505092915050565b6000610100820190506157f0600083018b613ff3565b6157fd602083018a614034565b818103604083015261580f818961554f565b90508181036060830152615823818861554f565b905081810360808301526158378187615690565b905081810360a083015261584b8186615775565b905061585a60c0830185613ff3565b81810360e083015261586c818461554f565b90509998505050505050505050565b60006060820190506158906000830186614dd7565b61589d6020830185613ff3565b6158aa6040830184614034565b94935050505056fea2646970667358221220a948132cf46458d669d9976557a67d6a51be62d2c7269fa689f6041f962aa78364736f6c634300080d0033",
  "immutableReferences": {},
  "source": "// SPDX-License-Identifier: GPL-3.0\r\n\r\npragma solidity >=0.7.0 <0.9.0;\r\npragma experimental ABIEncoderV2;\r\n\r\nimport \"./itoken.sol\";\r\nimport \"./newFactory1.sol\";\r\n\r\n\r\n\r\ncontract MyDAO {\r\n    string public dao_name;\r\n    string public dao_description;\r\n    uint256 dao_id;\r\n    enum VotingOptions { Yes, No }\r\n    enum Status     { Accepted, Rejected, Pending }\r\n    \r\n\r\n    \r\n\r\n    struct Proposal {\r\n        uint256 id;\r\n        address author;\r\n        string name;\r\n        string proposal_description;\r\n        uint256 createdAt;\r\n        string[] options;\r\n        uint256[] options_num;\r\n        Status status;\r\n        uint256 power;\r\n        string proposal_info_type;\r\n\r\n    }   \r\n    \r\n\r\n    function stringsEquals(string memory s1, string memory s2) private pure returns (bool) {\r\n        bytes memory b1 = bytes(s1);\r\n        bytes memory b2 = bytes(s2);\r\n        uint256 l1 = b1.length;\r\n        if (l1 != b2.length) return false;\r\n        for (uint256 i=0; i<l1; i++) {\r\n            if (b1[i] != b2[i]) return false;\r\n        }\r\n        return true;\r\n    }\r\n\r\n    DAOFactory factory;\r\n\r\n    // store all proposals\r\n    mapping(uint => Proposal) public proposals;    \r\n    //to print out proposals\r\n    event proposal_info(uint256 id, address author, string name,string proposal_description, string[] options, uint256[] num_options, uint256 power, string proposal_info_type);\r\n    // who already votes for who and to avoid vote twice\r\n    mapping(address => mapping(uint => bool)) public votes;\r\n    mapping(address => mapping(uint => bool)) public tokens_not_refunded;\r\n    mapping(address => mapping(uint => uint)) public token_amount_to_be_refunded;\r\n    // one share for governance tokens\r\n    mapping(address => uint256) public voter_shares_to_be_given;\r\n    mapping(address => uint256) public yk_shares_to_be_given;\r\n\r\n    // the IERC20 allow us to use avax like our governance token.\r\n    ISUToken public voter_token;\r\n    ISUToken public yk_token;\r\n    // the user need minimum 25 AVAX to create a proposal.\r\n    uint constant CREATE_PROPOSAL_MIN_SHARE = 1 * 10 ** 18;\r\n    uint constant VOTING_PERIOD = 7 days;\r\n    uint public nextProposalId;\r\n    \r\n    mapping(address => bool) transferLock;\r\n\r\n    constructor(string memory _dao_name, string memory _dao_description,uint _dao_id, address first_yk, ISUToken yk_token_in, ISUToken voter_token_in, DAOFactory _factory) {\r\n        factory = _factory;\r\n        dao_name = _dao_name;\r\n        dao_id=_dao_id;\r\n        dao_description = _dao_description;\r\n        yk_token = yk_token_in; // AVAX address\r\n        voter_token = voter_token_in;\r\n\r\n        //maybe mintabele amount can be taken as an input and 1000 yerine konabilir\r\n        yk_shares_to_be_given[first_yk] += (1 * 10 ** 18);\r\n        \r\n        voter_shares_to_be_given[first_yk] += (1 * 10 ** 18);\r\n\r\n    }\r\n\r\n    function mint_from_DAO_yk_token(uint _amount) internal {\r\n        factory.mint_dao_yk(this, _amount, msg.sender);\r\n    }\r\n\r\n    function mint_from_DAO_voter_token(uint _amount) internal {\r\n        factory.mint_dao_voter(this, _amount, msg.sender);\r\n    }\r\n\r\n\r\n    function iterate_proposals() public //ama sanirim boyle degilde teker teker yapmamiz gerekcek cok pahali olabilir obur turlu\r\n    {\r\n        for(uint i=0;i<nextProposalId;i++) //degistirmedim cunku artik sirf bunu kullaniriz yani\r\n        {\r\n            if(proposals[i].status != Status.Pending){\r\n                voter_token.update_active_voter_lock_off(i, msg.sender);\r\n            }\r\n\r\n            emit proposal_info(proposals[i].id, proposals[i].author, proposals[i].name,proposals[i].proposal_description, proposals[i].options, proposals[i].options_num, proposals[i].power, proposals[i].proposal_info_type);\r\n\r\n        }\r\n        \r\n    }        \r\n\r\n    function accept_proposal(uint _proposalId) external {\r\n        proposals[_proposalId].status = Status.Accepted;\r\n    }\r\n\r\n    function reject_proposal(uint _proposalId) external {\r\n        proposals[_proposalId].status = Status.Rejected;\r\n    \r\n    }    \r\n\r\n    function pending_proposal(uint _proposalId) external {\r\n        proposals[_proposalId].status = Status.Pending;\r\n    }       \r\n\r\n        \r\n\r\n\r\n    function withdraw_voter_tokens(uint _amount) external {\r\n        require(voter_shares_to_be_given[msg.sender] >= _amount*10**18, 'Not enough shares');\r\n        voter_shares_to_be_given[msg.sender] -= (_amount * 10 ** 18);\r\n        voter_token.transferDAO(msg.sender, (_amount * 10 ** 18));\r\n        mint_from_DAO_voter_token(_amount);\r\n    }    \r\n\r\n\r\n\r\n    \r\n\r\n\r\n    function withdraw_yk_tokens(uint _amount) external {\r\n        require(yk_shares_to_be_given[msg.sender] >= _amount, 'Not enough shares');\r\n        yk_shares_to_be_given[msg.sender] -= (_amount * 10 ** 18);\r\n        yk_token.transferDAO(msg.sender, (_amount * 10 ** 18));\r\n        mint_from_DAO_yk_token(_amount);\r\n\r\n    }    \r\n    \r\n    function send_yk_tokens_to_address_yk(address yk_candidate, uint _amount) external {\r\n        require(has_yk_priviliges(msg.sender), 'Not a YK');\r\n        //yk_shares[msg.sender] -= (_amount * 10 ** 18);\r\n        //totalShares -= (_amount * 10 ** 18);\r\n        //total_yk_shares -= (_amount * 10 ** 18);\r\n        //neden olmuyor bu\r\n        //yk_token.transfer(yk_candidate, _amount * 18 **18);\r\n        yk_shares_to_be_given[yk_candidate] += _amount * 10 ** 18;\r\n        //yk_token.transfer(yk_candidate, (_amount * 10 ** 18));\r\n    } \r\n\r\n    function send_yk_tokens_to_address_yk_directly(address yk_candidate, uint _amount) external {\r\n        require(has_yk_priviliges(msg.sender) , 'Not a YK');\r\n        //yk_shares[msg.sender] -= (_amount * 10 ** 18);\r\n        //totalShares -= (_amount * 10 ** 18);\r\n        //total_yk_shares -= (_amount * 10 ** 18);\r\n        //neden olmuyor bu\r\n        //yk_token.transfer(yk_candidate, _amount * 18 **18);\r\n        //yk_shares_to_be_given[yk_candidate] += _amount * 10 ** 18;\r\n        //yk_token.transfer(yk_candidate, (_amount * 10 ** 18));\r\n        yk_token.transferDAO(yk_candidate, (_amount * 10 ** 18));\r\n        mint_from_DAO_yk_token(_amount);\r\n    } \r\n \r\n \r\n    function send_voter_tokens_to_address_yk(address voter_candidate, uint _amount) external {\r\n        require(has_yk_priviliges(msg.sender), 'Not a YK');\r\n        //yk_shares[msg.sender] -= (_amount * 10 ** 18);\r\n        //totalShares -= (_amount * 10 ** 18);\r\n        //total_yk_shares -= (_amount * 10 ** 18);\r\n        //ones above are in comments becaue this whole process is done in the contract\r\n        voter_shares_to_be_given[voter_candidate] += _amount * 10 ** 18;\r\n        //voter_token.transfer(voter_candidate, (_amount * 10 ** 18));\r\n    }                   \r\n\r\n    function send_voter_tokens_to_address_yk_directly(address voter_candidate, uint _amount) external {\r\n        require(has_yk_priviliges(msg.sender) , 'Not a YK');\r\n        //yk_shares[msg.sender] -= (_amount * 10 ** 18);\r\n        //totalShares -= (_amount * 10 ** 18);\r\n        //total_yk_shares -= (_amount * 10 ** 18);\r\n        //ones above are in comments becaue this whole process is done in the contract\r\n        voter_token.transferDAO(voter_candidate, (_amount * 10 ** 18));\r\n        mint_from_DAO_voter_token(_amount);\r\n\r\n        //voter_token.transfer(voter_candidate, (_amount * 10 ** 18));\r\n    }        \r\n    //in yk functions token verification tokens have to be in the contract however in voter sending function \r\n     \r\n\r\n    function createProposal(string memory name,string memory description, string[] memory _options, uint256[] memory _options_num, uint256 _power, uint256 _type) external {\r\n        // validate the user has enough shares to create a proposal\r\n        //require(yk_token.balanceOf(msg.sender) >= CREATE_PROPOSAL_MIN_SHARE, 'Not enough shares to create a proposal');\r\n        require(has_yk_priviliges(msg.sender), 'Not enough shares to create a proposal');\r\n        string memory proposal_type;\r\n        //sorun olursa buradan\r\n        if(_type == 0){\r\n            proposal_type = \"normal\";\r\n        }\r\n        else if(_type == 1){\r\n            proposal_type = \"weighted\";\r\n        }\r\n\r\n        proposals[nextProposalId] = Proposal(\r\n            nextProposalId,\r\n            msg.sender,\r\n            name,\r\n            description,\r\n            block.timestamp,\r\n            _options,\r\n            _options_num,\r\n            Status.Pending,\r\n            _power,\r\n            proposal_type\r\n        );\r\n        nextProposalId++; //might need\r\n        voter_token.update_proposal_num(nextProposalId);\r\n    }      \r\n\r\n\r\n    function vote_power(uint _proposalId, string[] memory _vote, uint[] memory _power) external {\r\n        Proposal storage proposal = proposals[_proposalId];\r\n        require(votes[msg.sender][_proposalId] == false, 'already voted');\r\n        //i check if the user is a yk or has voter shares\r\n        require(voter_token.balanceOf(msg.sender) > 0, 'Not enough shares to vote on a proposal');\r\n        //bu alttaki sadece 1 kez oylamayi garantilemek icin, teoride bunu kullanmayacakgiz\r\n        //requires(tokens_refunded[msg.sender][_proposalId] == false, 'Already voted);\r\n        require(block.timestamp <= proposal.createdAt + VOTING_PERIOD, 'Voting period is over');\r\n        require(proposals[_proposalId].status == Status.Pending, 'Voting period is finished');\r\n        uint total_power = 0; \r\n        for(uint i=0;i<_power.length;i++) //checks if the amount of votes given is equal to the max amount of votes\r\n        {\r\n            total_power = total_power + _power[i];\r\n        }          \r\n        require(total_power <= proposal.power);\r\n        bool init = false;\r\n        //asagida yaptiklarim: iste yapiyo yazmaya usendim\r\n        for(uint i=0;i<proposal.options.length;i++)\r\n        {\r\n            for(uint y=0; y<_vote.length; y++){\r\n                \r\n                if(stringsEquals(proposal.options[i], _vote[y])){\r\n                    init = true;\r\n                }\r\n            }\r\n        }           \r\n        require(init == true);\r\n        /** make sure to add the necessary require checks */\r\n\r\n        for(uint i=0;i<proposal.options.length;i++)\r\n        {\r\n            for(uint y=0; y<_vote.length; y++){\r\n                if(stringsEquals(proposal.options[i], _vote[y])){\r\n                    proposal.options_num[i]+= _power[y];\r\n                }\r\n            }\r\n        }\r\n\r\n        votes[msg.sender][_proposalId] = true;\r\n        voter_token.update_active_voter_lock_on(_proposalId, msg.sender);\r\n\r\n\r\n        \r\n    }  \r\n\r\n    \r\n\r\n    function vote_power_weighted(uint _proposalId, string[] memory _vote, uint[] memory _power, uint weight) external {\r\n        Proposal storage proposal = proposals[_proposalId];\r\n        require(votes[msg.sender][_proposalId] == false, 'already voted');\r\n        require(weight <= (voter_token.balanceOf(msg.sender) / (10 ** 18)), \"Dont have enough tokens (change weight)\" );\r\n\r\n        //i check if the user is a yk or has voter shares\r\n        require(voter_token.balanceOf(msg.sender) > 0, \"Dont have enough tokens (literally 0)\");\r\n        //bu alttaki sadece 1 kez oylamayi garantilemek icin, teoride bunu kullanmayacakgiz\r\n        //requires(tokens_refunded[msg.sender][_proposalId] == false, 'Already voted);\r\n        require(block.timestamp <= proposal.createdAt + VOTING_PERIOD, 'Voting period is over');\r\n        require(proposals[_proposalId].status == Status.Pending, 'Voting period is finished');\r\n        uint total_power = 0; \r\n        for(uint i=0;i<_power.length;i++) //checks if the amount of votes given is equal to the max amount of votes\r\n        {\r\n            total_power = total_power + _power[i];\r\n        }          \r\n        require(total_power <= proposal.power);\r\n        bool init = false;\r\n        //asagida yaptiklarim: iste yapiyo yazmaya usendim\r\n        for(uint i=0;i<proposal.options.length;i++)\r\n        {\r\n            for(uint y=0; y<_vote.length; y++){\r\n                \r\n                if(stringsEquals(proposal.options[i], _vote[y])){\r\n                    init = true;\r\n                }\r\n            }\r\n        }           \r\n        require(init == true);\r\n        /** make sure to add the necessary require checks */\r\n\r\n        \r\n\r\n        for(uint i=0;i<proposal.options.length;i++)\r\n        {\r\n            for(uint y=0; y<_vote.length; y++){\r\n                if(stringsEquals(proposal.options[i], _vote[y])){\r\n                    proposal.options_num[i]+= _power[y] * weight;\r\n                }\r\n            }\r\n        }\r\n\r\n        votes[msg.sender][_proposalId] = true;\r\n        voter_token.update_active_voter_lock_on(_proposalId, msg.sender);\r\n\r\n\r\n    }   \r\n    //(string[][] memory myproposaloptions, string[][] memory myproposals, string[][] memory myproposalvotes )\r\n    function getProposalName() public view returns (string[] memory){\r\n        //string[][] propoptions;\r\n        string[] memory myprops = new string[](nextProposalId);\r\n        //string[][] propvotes;\r\n        for (uint i = 0; i < nextProposalId; i++) {\r\n            myprops[i] = proposals[i].name;\r\n            //propvotes.push(proposals[i].name);\r\n            //for(uint y = 0; y < proposals[i].options.length; y++){\r\n            //    propvotes[i][y]\r\n            //}\r\n        }\r\n        return myprops;\r\n    }\r\n    function getDaoid() public view returns (uint256){\r\n        return dao_id;\r\n\r\n    }\r\n    //my chk is the person I am checking lol\r\n    function has_yk_priviliges(address chk) public view returns (bool){\r\n\r\n         if(yk_token.balanceOf(chk) >= 1)\r\n         {\r\n            return true;\r\n         }\r\n         MyDAO current_dao=factory.getCurrentDAO(dao_id);\r\n         MyDAO parent_dao= factory.getParentDAO(current_dao);\r\n         \r\n         \r\n         bool exist=false;\r\n         while(address(parent_dao)!=address(0)){\r\n             if(parent_dao.yk_token().balanceOf(chk) >= 1 * 10 **18)\r\n             {\r\n                 exist=true;\r\n                 break;\r\n             }\r\n             parent_dao= factory.getParentDAO( parent_dao );\r\n         }\r\n         return exist;\r\n\r\n    }\r\n    \r\n    function getProposalDescription() public view returns (string[] memory){\r\n        //string[][] propoptions;\r\n        string[] memory myprops = new string[](nextProposalId);\r\n        //string[][] propvotes;\r\n        for (uint i = 0; i < nextProposalId; i++) {\r\n            myprops[i] = proposals[i].proposal_description;\r\n            //propvotes.push(proposals[i].name);\r\n            //for(uint y = 0; y < proposals[i].options.length; y++){\r\n            //    propvotes[i][y]\r\n            //}\r\n        }\r\n        return myprops;\r\n    }\r\n\r\n    function getProposalVoteNames(uint proposal_idd) public view returns (string[] memory){\r\n        //string[][] propoptions;\r\n        string[] memory mypropvotes = new string[](proposals[proposal_idd].options.length);\r\n        //string[][] propvotes;\r\n        for (uint i = 0; i < proposals[proposal_idd].options.length; i++) {\r\n            mypropvotes[i] = proposals[proposal_idd].options[i];\r\n            //propvotes.push(proposals[i].name);\r\n            //for(uint y = 0; y < proposals[i].options.length; y++){\r\n            //    propvotes[i][y]\r\n            //}\r\n        }\r\n        return mypropvotes;\r\n    }    \r\n\r\n    function getProposalVoteNumbers(uint proposal_idd) public view returns (uint[] memory){\r\n        //string[][] propoptions;\r\n        uint[] memory mypropvotenums = new uint[](proposals[proposal_idd].options_num.length);\r\n        //string[][] propvotes;\r\n        for (uint i = 0; i < proposals[proposal_idd].options_num.length; i++) {\r\n            mypropvotenums[i] = proposals[proposal_idd].options_num[i];\r\n            //propvotes.push(proposals[i].name);\r\n            //for(uint y = 0; y < proposals[i].options.length; y++){\r\n            //    propvotes[i][y]\r\n            //}\r\n        }\r\n        return mypropvotenums;\r\n    }    \r\n\r\n    function getProposalPower(uint proposal_idd) public view returns (uint ){\r\n        //string[][] propoptions;\r\n        uint myproppower = 0;\r\n        //string[][] propvotes;\r\n        myproppower = proposals[proposal_idd].power;\r\n\r\n        return myproppower;\r\n    }     \r\n\r\n    function getProposalType(uint proposal_idd) public view returns (string memory){\r\n        //string[][] propoptions;\r\n        \r\n        //string[][] propvotes;\r\n        string memory myproppower = proposals[proposal_idd].proposal_info_type;\r\n\r\n        return myproppower;\r\n    }     \r\n\r\n    \r\n    //form = b tokeni gecici olarak alan kisi to = a tokeni basta gonderen kisi \r\n    function dao_delegation_single_getback_amount_voter(address from, uint256 amount) external{\r\n        require(amount <= voter_token.getDebtToken(from), \"not enough debt somehow\");       \r\n        voter_token. delegation_single_getback_amount(from, msg.sender, amount);        \r\n    }\r\n\r\n    function dao_delegation_single_getback_all_voter(address from ) external  {\r\n        voter_token.delegation_single_getback_all(from, msg.sender);\r\n    }\r\n\r\n    function dao_delagation_multiple_getback_all_voter( ) external{\r\n        voter_token.delagation_multiple_getback_all( msg.sender);\r\n    }\r\n    function dao_clawback_single_voter(address from) external{\r\n        require(has_yk_priviliges(msg.sender), \"does not have yk priviliges\") ;\r\n        voter_token.clawback_single( from);\r\n    }\r\n    function dao_clawback_all_voter() external{\r\n        require(has_yk_priviliges(msg.sender), \"does not have yk priviliges\") ;\r\n        voter_token.clawback_all( );\r\n    }\r\n    \r\n\r\n\r\n\r\n\r\n    \r\n    /////////////////////////////////////////////////////////////////////////////////////\r\n    function dao_delegation_single_getback_amount_yk(address from, uint256 amount) external {\r\n        require(amount <= yk_token.getDebtToken(from), \"not enough debt somehow\");       \r\n        yk_token. delegation_single_getback_amount(from, msg.sender, amount);      \r\n        \r\n    }\r\n    function dao_delegation_single_getback_all_yk(address from) external {\r\n        yk_token.delegation_single_getback_all(from, msg.sender);\r\n\r\n    }\r\n    function dao_delagation_multiple_getback_all_yk() external{\r\n        yk_token.delagation_multiple_getback_all(msg.sender);\r\n    }\r\n    function dao_clawback_single_yk(address to) external{\r\n        require(has_yk_priviliges(msg.sender), \"does not have yk priviliges\") ;\r\n        yk_token.clawback_single( to);\r\n    }\r\n    function dao_clawback_all_yk() external {\r\n        require(has_yk_priviliges(msg.sender), \"does not have yk priviliges\") ;\r\n        yk_token.clawback_all( );\r\n    }\r\n\r\n    function delete_this_dao( ) external {\r\n        require(has_yk_priviliges(msg.sender) || msg.sender == address(factory) , \"does not have yk priviliges or is not factory\") ;\r\n        voter_token.clawback_all( );\r\n        factory.delete_DAO(this, msg.sender);\r\n        yk_token.clawback_all( );\r\n    }\r\n}                   \r\n\r\n\r\n   \r\n",
  "sourcePath": "D:\\Projects\\DAOO\\SU_Govern\\contract_for_front_end\\ui_sol_deneme2\\ui_sol_deneme\\sol_ui\\blockchain1\\contracts\\newDAO1.sol",
  "compiler": {
    "name": "solc",
    "version": "0.8.13+commit.abaa5c0e.Emscripten.clang"
  },
  "schemaVersion": "3.4.7",
  "updatedAt": "2022-12-26T20:03:16.847Z",
  "devdoc": {
    "kind": "dev",
    "methods": {},
    "version": 1
  },
  "userdoc": {
    "kind": "user",
    "methods": {},
    "version": 1
  }
}