{
  "contractName": "MyDAO",
  "abi": [
    {
      "inputs": [
        {
          "internalType": "string",
          "name": "_dao_name",
          "type": "string"
        },
        {
          "internalType": "string",
          "name": "_dao_description",
          "type": "string"
        },
        {
          "internalType": "address",
          "name": "first_yk",
          "type": "address"
        },
        {
          "internalType": "contract SUToken",
          "name": "yk_token_in",
          "type": "address"
        },
        {
          "internalType": "contract SUToken",
          "name": "voter_token_in",
          "type": "address"
        },
        {
          "internalType": "contract DAOFactory",
          "name": "_factory",
          "type": "address"
        }
      ],
      "stateMutability": "nonpayable",
      "type": "constructor"
    },
    {
      "anonymous": false,
      "inputs": [
        {
          "indexed": false,
          "internalType": "uint256",
          "name": "id",
          "type": "uint256"
        },
        {
          "indexed": false,
          "internalType": "address",
          "name": "author",
          "type": "address"
        },
        {
          "indexed": false,
          "internalType": "string",
          "name": "name",
          "type": "string"
        },
        {
          "indexed": false,
          "internalType": "string[]",
          "name": "options",
          "type": "string[]"
        },
        {
          "indexed": false,
          "internalType": "uint256[]",
          "name": "num_options",
          "type": "uint256[]"
        },
        {
          "indexed": false,
          "internalType": "uint256",
          "name": "power",
          "type": "uint256"
        },
        {
          "indexed": false,
          "internalType": "string",
          "name": "proposal_info_type",
          "type": "string"
        }
      ],
      "name": "proposal_info",
      "type": "event"
    },
    {
      "inputs": [],
      "name": "dao_description",
      "outputs": [
        {
          "internalType": "string",
          "name": "",
          "type": "string"
        }
      ],
      "stateMutability": "view",
      "type": "function"
    },
    {
      "inputs": [],
      "name": "dao_name",
      "outputs": [
        {
          "internalType": "string",
          "name": "",
          "type": "string"
        }
      ],
      "stateMutability": "view",
      "type": "function"
    },
    {
      "inputs": [],
      "name": "nextProposalId",
      "outputs": [
        {
          "internalType": "uint256",
          "name": "",
          "type": "uint256"
        }
      ],
      "stateMutability": "view",
      "type": "function"
    },
    {
      "inputs": [
        {
          "internalType": "uint256",
          "name": "",
          "type": "uint256"
        }
      ],
      "name": "proposals",
      "outputs": [
        {
          "internalType": "uint256",
          "name": "id",
          "type": "uint256"
        },
        {
          "internalType": "address",
          "name": "author",
          "type": "address"
        },
        {
          "internalType": "string",
          "name": "name",
          "type": "string"
        },
        {
          "internalType": "uint256",
          "name": "createdAt",
          "type": "uint256"
        },
        {
          "internalType": "enum MyDAO.Status",
          "name": "status",
          "type": "uint8"
        },
        {
          "internalType": "uint256",
          "name": "power",
          "type": "uint256"
        },
        {
          "internalType": "string",
          "name": "proposal_info_type",
          "type": "string"
        }
      ],
      "stateMutability": "view",
      "type": "function"
    },
    {
      "inputs": [
        {
          "internalType": "address",
          "name": "",
          "type": "address"
        },
        {
          "internalType": "uint256",
          "name": "",
          "type": "uint256"
        }
      ],
      "name": "token_amount_to_be_refunded",
      "outputs": [
        {
          "internalType": "uint256",
          "name": "",
          "type": "uint256"
        }
      ],
      "stateMutability": "view",
      "type": "function"
    },
    {
      "inputs": [
        {
          "internalType": "address",
          "name": "",
          "type": "address"
        },
        {
          "internalType": "uint256",
          "name": "",
          "type": "uint256"
        }
      ],
      "name": "tokens_not_refunded",
      "outputs": [
        {
          "internalType": "bool",
          "name": "",
          "type": "bool"
        }
      ],
      "stateMutability": "view",
      "type": "function"
    },
    {
      "inputs": [
        {
          "internalType": "address",
          "name": "",
          "type": "address"
        }
      ],
      "name": "voter_shares_to_be_given",
      "outputs": [
        {
          "internalType": "uint256",
          "name": "",
          "type": "uint256"
        }
      ],
      "stateMutability": "view",
      "type": "function"
    },
    {
      "inputs": [],
      "name": "voter_token",
      "outputs": [
        {
          "internalType": "contract SUToken",
          "name": "",
          "type": "address"
        }
      ],
      "stateMutability": "view",
      "type": "function"
    },
    {
      "inputs": [
        {
          "internalType": "address",
          "name": "",
          "type": "address"
        },
        {
          "internalType": "uint256",
          "name": "",
          "type": "uint256"
        }
      ],
      "name": "votes",
      "outputs": [
        {
          "internalType": "bool",
          "name": "",
          "type": "bool"
        }
      ],
      "stateMutability": "view",
      "type": "function"
    },
    {
      "inputs": [
        {
          "internalType": "address",
          "name": "",
          "type": "address"
        }
      ],
      "name": "yk_shares_to_be_given",
      "outputs": [
        {
          "internalType": "uint256",
          "name": "",
          "type": "uint256"
        }
      ],
      "stateMutability": "view",
      "type": "function"
    },
    {
      "inputs": [],
      "name": "yk_token",
      "outputs": [
        {
          "internalType": "contract SUToken",
          "name": "",
          "type": "address"
        }
      ],
      "stateMutability": "view",
      "type": "function"
    },
    {
      "inputs": [],
      "name": "iterate_proposals",
      "outputs": [],
      "stateMutability": "nonpayable",
      "type": "function"
    },
    {
      "inputs": [
        {
          "internalType": "uint256",
          "name": "_proposalId",
          "type": "uint256"
        }
      ],
      "name": "accept_proposal",
      "outputs": [],
      "stateMutability": "nonpayable",
      "type": "function"
    },
    {
      "inputs": [
        {
          "internalType": "uint256",
          "name": "_proposalId",
          "type": "uint256"
        }
      ],
      "name": "reject_proposal",
      "outputs": [],
      "stateMutability": "nonpayable",
      "type": "function"
    },
    {
      "inputs": [
        {
          "internalType": "uint256",
          "name": "_proposalId",
          "type": "uint256"
        }
      ],
      "name": "pending_proposal",
      "outputs": [],
      "stateMutability": "nonpayable",
      "type": "function"
    },
    {
      "inputs": [
        {
          "internalType": "uint256",
          "name": "_amount",
          "type": "uint256"
        }
      ],
      "name": "withdraw_voter_tokens",
      "outputs": [],
      "stateMutability": "nonpayable",
      "type": "function"
    },
    {
      "inputs": [
        {
          "internalType": "uint256",
          "name": "_amount",
          "type": "uint256"
        }
      ],
      "name": "withdraw_yk_tokens",
      "outputs": [],
      "stateMutability": "nonpayable",
      "type": "function"
    },
    {
      "inputs": [
        {
          "internalType": "address",
          "name": "yk_candidate",
          "type": "address"
        },
        {
          "internalType": "uint256",
          "name": "_amount",
          "type": "uint256"
        }
      ],
      "name": "send_yk_tokens_to_address_yk",
      "outputs": [],
      "stateMutability": "nonpayable",
      "type": "function"
    },
    {
      "inputs": [
        {
          "internalType": "address",
          "name": "yk_candidate",
          "type": "address"
        },
        {
          "internalType": "uint256",
          "name": "_amount",
          "type": "uint256"
        }
      ],
      "name": "send_yk_tokens_to_address_yk_directly",
      "outputs": [],
      "stateMutability": "nonpayable",
      "type": "function"
    },
    {
      "inputs": [
        {
          "internalType": "address",
          "name": "voter_candidate",
          "type": "address"
        },
        {
          "internalType": "uint256",
          "name": "_amount",
          "type": "uint256"
        }
      ],
      "name": "send_voter_tokens_to_address_yk",
      "outputs": [],
      "stateMutability": "nonpayable",
      "type": "function"
    },
    {
      "inputs": [
        {
          "internalType": "address",
          "name": "voter_candidate",
          "type": "address"
        },
        {
          "internalType": "uint256",
          "name": "_amount",
          "type": "uint256"
        }
      ],
      "name": "send_voter_tokens_to_address_yk_directly",
      "outputs": [],
      "stateMutability": "nonpayable",
      "type": "function"
    },
    {
      "inputs": [
        {
          "internalType": "string",
          "name": "name",
          "type": "string"
        },
        {
          "internalType": "string[]",
          "name": "_options",
          "type": "string[]"
        },
        {
          "internalType": "uint256[]",
          "name": "_options_num",
          "type": "uint256[]"
        },
        {
          "internalType": "uint256",
          "name": "_power",
          "type": "uint256"
        },
        {
          "internalType": "uint256",
          "name": "_type",
          "type": "uint256"
        }
      ],
      "name": "createProposal",
      "outputs": [],
      "stateMutability": "nonpayable",
      "type": "function"
    },
    {
      "inputs": [
        {
          "internalType": "uint256",
          "name": "_proposalId",
          "type": "uint256"
        },
        {
          "internalType": "string[]",
          "name": "_vote",
          "type": "string[]"
        },
        {
          "internalType": "uint256[]",
          "name": "_power",
          "type": "uint256[]"
        }
      ],
      "name": "vote_power",
      "outputs": [],
      "stateMutability": "nonpayable",
      "type": "function"
    },
    {
      "inputs": [
        {
          "internalType": "uint256",
          "name": "_proposalId",
          "type": "uint256"
        },
        {
          "internalType": "string[]",
          "name": "_vote",
          "type": "string[]"
        },
        {
          "internalType": "uint256[]",
          "name": "_power",
          "type": "uint256[]"
        },
        {
          "internalType": "uint256",
          "name": "weight",
          "type": "uint256"
        }
      ],
      "name": "vote_power_weighted",
      "outputs": [],
      "stateMutability": "nonpayable",
      "type": "function"
    },
    {
      "inputs": [],
      "name": "getProposalName",
      "outputs": [
        {
          "internalType": "string[]",
          "name": "",
          "type": "string[]"
        }
      ],
      "stateMutability": "view",
      "type": "function"
    },
    {
      "inputs": [
        {
          "internalType": "uint256",
          "name": "proposal_idd",
          "type": "uint256"
        }
      ],
      "name": "getProposalVoteNames",
      "outputs": [
        {
          "internalType": "string[]",
          "name": "",
          "type": "string[]"
        }
      ],
      "stateMutability": "view",
      "type": "function"
    },
    {
      "inputs": [
        {
          "internalType": "uint256",
          "name": "proposal_idd",
          "type": "uint256"
        }
      ],
      "name": "getProposalVoteNumbers",
      "outputs": [
        {
          "internalType": "uint256[]",
          "name": "",
          "type": "uint256[]"
        }
      ],
      "stateMutability": "view",
      "type": "function"
    },
    {
      "inputs": [
        {
          "internalType": "uint256",
          "name": "proposal_idd",
          "type": "uint256"
        }
      ],
      "name": "getProposalPower",
      "outputs": [
        {
          "internalType": "uint256",
          "name": "",
          "type": "uint256"
        }
      ],
      "stateMutability": "view",
      "type": "function"
    },
    {
      "inputs": [
        {
          "internalType": "uint256",
          "name": "proposal_idd",
          "type": "uint256"
        }
      ],
      "name": "getProposalType",
      "outputs": [
        {
          "internalType": "string",
          "name": "",
          "type": "string"
        }
      ],
      "stateMutability": "view",
      "type": "function"
    }
  ],
  "bytecode": "0x60806040523480156200001157600080fd5b5060405162004c9638038062004c96833981810160405281019062000037919062000534565b80600260006101000a81548173ffffffffffffffffffffffffffffffffffffffff021916908373ffffffffffffffffffffffffffffffffffffffff160217905550856000908051906020019062000090929190620001f8565b508460019080519060200190620000a9929190620001f8565b5082600a60006101000a81548173ffffffffffffffffffffffffffffffffffffffff021916908373ffffffffffffffffffffffffffffffffffffffff16021790555081600960006101000a81548173ffffffffffffffffffffffffffffffffffffffff021916908373ffffffffffffffffffffffffffffffffffffffff160217905550670de0b6b3a7640000600860008673ffffffffffffffffffffffffffffffffffffffff1673ffffffffffffffffffffffffffffffffffffffff168152602001908152602001600020600082825462000185919062000647565b92505081905550670de0b6b3a7640000600760008673ffffffffffffffffffffffffffffffffffffffff1673ffffffffffffffffffffffffffffffffffffffff1681526020019081526020016000206000828254620001e5919062000647565b9250508190555050505050505062000708565b8280546200020690620006d3565b90600052602060002090601f0160209004810192826200022a576000855562000276565b82601f106200024557805160ff191683800117855562000276565b8280016001018555821562000276579182015b828111156200027557825182559160200191906001019062000258565b5b50905062000285919062000289565b5090565b5b80821115620002a45760008160009055506001016200028a565b5090565b6000604051905090565b600080fd5b600080fd5b600080fd5b600080fd5b6000601f19601f8301169050919050565b7f4e487b7100000000000000000000000000000000000000000000000000000000600052604160045260246000fd5b6200031182620002c6565b810181811067ffffffffffffffff82111715620003335762000332620002d7565b5b80604052505050565b600062000348620002a8565b905062000356828262000306565b919050565b600067ffffffffffffffff821115620003795762000378620002d7565b5b6200038482620002c6565b9050602081019050919050565b60005b83811015620003b157808201518184015260208101905062000394565b83811115620003c1576000848401525b50505050565b6000620003de620003d8846200035b565b6200033c565b905082815260208101848484011115620003fd57620003fc620002c1565b5b6200040a84828562000391565b509392505050565b600082601f8301126200042a5762000429620002bc565b5b81516200043c848260208601620003c7565b91505092915050565b600073ffffffffffffffffffffffffffffffffffffffff82169050919050565b6000620004728262000445565b9050919050565b620004848162000465565b81146200049057600080fd5b50565b600081519050620004a48162000479565b92915050565b6000620004b78262000465565b9050919050565b620004c981620004aa565b8114620004d557600080fd5b50565b600081519050620004e981620004be565b92915050565b6000620004fc8262000465565b9050919050565b6200050e81620004ef565b81146200051a57600080fd5b50565b6000815190506200052e8162000503565b92915050565b60008060008060008060c08789031215620005545762000553620002b2565b5b600087015167ffffffffffffffff811115620005755762000574620002b7565b5b6200058389828a0162000412565b965050602087015167ffffffffffffffff811115620005a757620005a6620002b7565b5b620005b589828a0162000412565b9550506040620005c889828a0162000493565b9450506060620005db89828a01620004d8565b9350506080620005ee89828a01620004d8565b92505060a06200060189828a016200051d565b9150509295509295509295565b6000819050919050565b7f4e487b7100000000000000000000000000000000000000000000000000000000600052601160045260246000fd5b600062000654826200060e565b915062000661836200060e565b9250827fffffffffffffffffffffffffffffffffffffffffffffffffffffffffffffffff0382111562000699576200069862000618565b5b828201905092915050565b7f4e487b7100000000000000000000000000000000000000000000000000000000600052602260045260246000fd5b60006002820490506001821680620006ec57607f821691505b602082108103620007025762000701620006a4565b5b50919050565b61457e80620007186000396000f3fe608060405234801561001057600080fd5b50600436106101cf5760003560e01c80639a5fa0b711610104578063d25129c4116100a2578063e5c28c9011610071578063e5c28c9014610540578063e937688214610570578063f70e51a71461058e578063f9b8a27a146105ac576101cf565b8063d25129c414610492578063d8c6bc21146104c2578063d978ffba146104f2578063dd3bf85c14610522576101cf565b8063a2ded950116100de578063a2ded95014610420578063a44b21ae1461043c578063a9a2a4a314610458578063cf5265d814610488576101cf565b80639a5fa0b7146103b65780639d92c108146103d25780639f2524ee146103f0576101cf565b8063560d09b6116101715780637e11a5561161014b5780637e11a556146103325780638661fa701461034e5780638a19ab351461036a5780638f7c59d014610386576101cf565b8063560d09b6146102b457806362b25fc6146102e457806371df560514610302576101cf565b806323ee2c83116101ad57806323ee2c83146102425780632ab09d141461025e5780632c14ed171461027c57806342b9d7e414610298576101cf565b8063013cf08b146101d457806307e25f271461020a57806314e72f4314610226575b600080fd5b6101ee60048036038101906101e99190612f9a565b6105c8565b6040516102019796959493929190613127565b60405180910390f35b610224600480360381019061021f9190612f9a565b610747565b005b610240600480360381019061023b91906131d0565b610789565b005b61025c600480360381019061025791906131d0565b6108dc565b005b610266610a83565b6040516102739190613210565b60405180910390f35b61029660048036038101906102919190612f9a565b610a89565b005b6102b260048036038101906102ad9190612f9a565b610acb565b005b6102ce60048036038101906102c99190612f9a565b610c89565b6040516102db9190613210565b60405180910390f35b6102ec610cb2565b6040516102f99190613337565b60405180910390f35b61031c60048036038101906103179190613359565b610ded565b6040516103299190613210565b60405180910390f35b61034c600480360381019061034791906131d0565b610e05565b005b61036860048036038101906103639190613664565b610fac565b005b610384600480360381019061037f9190612f9a565b611614565b005b6103a0600480360381019061039b9190612f9a565b6117bf565b6040516103ad9190613337565b60405180910390f35b6103d060048036038101906103cb91906136ef565b611946565b005b6103da611cf0565b6040516103e791906137be565b60405180910390f35b61040a600480360381019061040591906131d0565b611d7e565b60405161041791906137fb565b60405180910390f35b61043a60048036038101906104359190612f9a565b611dad565b005b61045660048036038101906104519190613816565b611def565b005b610472600480360381019061046d91906131d0565b612554565b60405161047f9190613210565b60405180910390f35b610490612579565b005b6104ac60048036038101906104a79190612f9a565b612773565b6040516104b99190613973565b60405180910390f35b6104dc60048036038101906104d79190613359565b61286e565b6040516104e99190613210565b60405180910390f35b61050c60048036038101906105079190612f9a565b612886565b60405161051991906137be565b60405180910390f35b61052a612934565b60405161053791906139f4565b60405180910390f35b61055a600480360381019061055591906131d0565b61295a565b60405161056791906137fb565b60405180910390f35b610578612989565b60405161058591906137be565b60405180910390f35b610596612a17565b6040516105a391906139f4565b60405180910390f35b6105c660048036038101906105c191906131d0565b612a3d565b005b60036020528060005260406000206000915090508060000154908060010160009054906101000a900473ffffffffffffffffffffffffffffffffffffffff169080600201805461061790613a3e565b80601f016020809104026020016040519081016040528092919081815260200182805461064390613a3e565b80156106905780601f1061066557610100808354040283529160200191610690565b820191906000526020600020905b81548152906001019060200180831161067357829003601f168201915b5050505050908060030154908060060160009054906101000a900460ff16908060070154908060080180546106c490613a3e565b80601f01602080910402602001604051908101604052809291908181526020018280546106f090613a3e565b801561073d5780601f106107125761010080835404028352916020019161073d565b820191906000526020600020905b81548152906001019060200180831161072057829003601f168201915b5050505050905087565b60016003600083815260200190815260200160002060060160006101000a81548160ff02191690836002811115610781576107806130b0565b5b021790555050565b670de0b6b3a7640000600a60009054906101000a900473ffffffffffffffffffffffffffffffffffffffff1673ffffffffffffffffffffffffffffffffffffffff166370a08231336040518263ffffffff1660e01b81526004016107ed9190613a6f565b602060405180830381865afa15801561080a573d6000803e3d6000fd5b505050506040513d601f19601f8201168201806040525081019061082e9190613a9f565b101561086f576040517f08c379a000000000000000000000000000000000000000000000000000000000815260040161086690613b18565b60405180910390fd5b670de0b6b3a7640000816108839190613b67565b600860008473ffffffffffffffffffffffffffffffffffffffff1673ffffffffffffffffffffffffffffffffffffffff16815260200190815260200160002060008282546108d19190613bc1565b925050819055505050565b670de0b6b3a7640000600a60009054906101000a900473ffffffffffffffffffffffffffffffffffffffff1673ffffffffffffffffffffffffffffffffffffffff166370a08231336040518263ffffffff1660e01b81526004016109409190613a6f565b602060405180830381865afa15801561095d573d6000803e3d6000fd5b505050506040513d601f19601f820116820180604052508101906109819190613a9f565b10156109c2576040517f08c379a00000000000000000000000000000000000000000000000000000000081526004016109b990613b18565b60405180910390fd5b600960009054906101000a900473ffffffffffffffffffffffffffffffffffffffff1673ffffffffffffffffffffffffffffffffffffffff16638da9e67783670de0b6b3a764000084610a159190613b67565b6040518363ffffffff1660e01b8152600401610a32929190613c17565b6020604051808303816000875af1158015610a51573d6000803e3d6000fd5b505050506040513d601f19601f82011682018060405250810190610a759190613c6c565b50610a7f81612b90565b5050565b600b5481565b60026003600083815260200190815260200160002060060160006101000a81548160ff02191690836002811115610ac357610ac26130b0565b5b021790555050565b670de0b6b3a764000081610adf9190613b67565b600760003373ffffffffffffffffffffffffffffffffffffffff1673ffffffffffffffffffffffffffffffffffffffff168152602001908152602001600020541015610b60576040517f08c379a0000000000000000000000000000000000000000000000000000000008152600401610b5790613ce5565b60405180910390fd5b670de0b6b3a764000081610b749190613b67565b600760003373ffffffffffffffffffffffffffffffffffffffff1673ffffffffffffffffffffffffffffffffffffffff1681526020019081526020016000206000828254610bc29190613d05565b92505081905550600960009054906101000a900473ffffffffffffffffffffffffffffffffffffffff1673ffffffffffffffffffffffffffffffffffffffff16638da9e67733670de0b6b3a764000084610c1c9190613b67565b6040518363ffffffff1660e01b8152600401610c39929190613c17565b6020604051808303816000875af1158015610c58573d6000803e3d6000fd5b505050506040513d601f19601f82011682018060405250810190610c7c9190613c6c565b50610c8681612b90565b50565b600080600090506003600084815260200190815260200160002060070154905080915050919050565b60606000600b5467ffffffffffffffff811115610cd257610cd161338b565b5b604051908082528060200260200182016040528015610d0557816020015b6060815260200190600190039081610cf05790505b50905060005b600b54811015610de557600360008281526020019081526020016000206002018054610d3690613a3e565b80601f0160208091040260200160405190810160405280929190818152602001828054610d6290613a3e565b8015610daf5780601f10610d8457610100808354040283529160200191610daf565b820191906000526020600020905b815481529060010190602001808311610d9257829003601f168201915b5050505050828281518110610dc757610dc6613d39565b5b60200260200101819052508080610ddd90613d68565b915050610d0b565b508091505090565b60086020528060005260406000206000915090505481565b670de0b6b3a7640000600a60009054906101000a900473ffffffffffffffffffffffffffffffffffffffff1673ffffffffffffffffffffffffffffffffffffffff166370a08231336040518263ffffffff1660e01b8152600401610e699190613a6f565b602060405180830381865afa158015610e86573d6000803e3d6000fd5b505050506040513d601f19601f82011682018060405250810190610eaa9190613a9f565b1015610eeb576040517f08c379a0000000000000000000000000000000000000000000000000000000008152600401610ee290613b18565b60405180910390fd5b600a60009054906101000a900473ffffffffffffffffffffffffffffffffffffffff1673ffffffffffffffffffffffffffffffffffffffff16638da9e67783670de0b6b3a764000084610f3e9190613b67565b6040518363ffffffff1660e01b8152600401610f5b929190613c17565b6020604051808303816000875af1158015610f7a573d6000803e3d6000fd5b505050506040513d601f19601f82011682018060405250810190610f9e9190613c6c565b50610fa881612c24565b5050565b600060036000858152602001908152602001600020905060001515600460003373ffffffffffffffffffffffffffffffffffffffff1673ffffffffffffffffffffffffffffffffffffffff168152602001908152602001600020600086815260200190815260200160002060009054906101000a900460ff16151514611067576040517f08c379a000000000000000000000000000000000000000000000000000000000815260040161105e90613dfc565b60405180910390fd5b6000600960009054906101000a900473ffffffffffffffffffffffffffffffffffffffff1673ffffffffffffffffffffffffffffffffffffffff166370a08231336040518263ffffffff1660e01b81526004016110c49190613a6f565b602060405180830381865afa1580156110e1573d6000803e3d6000fd5b505050506040513d601f19601f820116820180604052508101906111059190613a9f565b11611145576040517f08c379a000000000000000000000000000000000000000000000000000000000815260040161113c90613e8e565b60405180910390fd5b62093a8081600301546111589190613bc1565b42111561119a576040517f08c379a000000000000000000000000000000000000000000000000000000000815260040161119190613efa565b60405180910390fd5b6002808111156111ad576111ac6130b0565b5b6003600086815260200190815260200160002060060160009054906101000a900460ff1660028111156111e3576111e26130b0565b5b14611223576040517f08c379a000000000000000000000000000000000000000000000000000000000815260040161121a90613f66565b60405180910390fd5b6000805b835181101561126b5783818151811061124357611242613d39565b5b6020026020010151826112569190613bc1565b9150808061126390613d68565b915050611227565b50816007015481111561127d57600080fd5b6000805b83600401805490508110156113995760005b8651811015611385576113688560040183815481106112b5576112b4613d39565b5b9060005260206000200180546112ca90613a3e565b80601f01602080910402602001604051908101604052809291908181526020018280546112f690613a3e565b80156113435780601f1061131857610100808354040283529160200191611343565b820191906000526020600020905b81548152906001019060200180831161132657829003601f168201915b505050505088838151811061135b5761135a613d39565b5b6020026020010151612cb8565b1561137257600192505b808061137d90613d68565b915050611293565b50808061139190613d68565b915050611281565b5060011515811515146113ab57600080fd5b60005b83600401805490508110156115135760005b86518110156114ff576114958560040183815481106113e2576113e1613d39565b5b9060005260206000200180546113f790613a3e565b80601f016020809104026020016040519081016040528092919081815260200182805461142390613a3e565b80156114705780601f1061144557610100808354040283529160200191611470565b820191906000526020600020905b81548152906001019060200180831161145357829003601f168201915b505050505088838151811061148857611487613d39565b5b6020026020010151612cb8565b156114ec578581815181106114ad576114ac613d39565b5b60200260200101518560050183815481106114cb576114ca613d39565b5b9060005260206000200160008282546114e49190613bc1565b925050819055505b80806114f790613d68565b9150506113c0565b50808061150b90613d68565b9150506113ae565b506001600460003373ffffffffffffffffffffffffffffffffffffffff1673ffffffffffffffffffffffffffffffffffffffff168152602001908152602001600020600088815260200190815260200160002060006101000a81548160ff021916908315150217905550600960009054906101000a900473ffffffffffffffffffffffffffffffffffffffff1673ffffffffffffffffffffffffffffffffffffffff1663fc13d51887336040518363ffffffff1660e01b81526004016115da929190613f86565b600060405180830381600087803b1580156115f457600080fd5b505af1158015611608573d6000803e3d6000fd5b50505050505050505050565b80600860003373ffffffffffffffffffffffffffffffffffffffff1673ffffffffffffffffffffffffffffffffffffffff168152602001908152602001600020541015611696576040517f08c379a000000000000000000000000000000000000000000000000000000000815260040161168d90613ce5565b60405180910390fd5b670de0b6b3a7640000816116aa9190613b67565b600860003373ffffffffffffffffffffffffffffffffffffffff1673ffffffffffffffffffffffffffffffffffffffff16815260200190815260200160002060008282546116f89190613d05565b92505081905550600a60009054906101000a900473ffffffffffffffffffffffffffffffffffffffff1673ffffffffffffffffffffffffffffffffffffffff16638da9e67733670de0b6b3a7640000846117529190613b67565b6040518363ffffffff1660e01b815260040161176f929190613c17565b6020604051808303816000875af115801561178e573d6000803e3d6000fd5b505050506040513d601f19601f820116820180604052508101906117b29190613c6c565b506117bc81612c24565b50565b60606000600360008481526020019081526020016000206004018054905067ffffffffffffffff8111156117f6576117f561338b565b5b60405190808252806020026020018201604052801561182957816020015b60608152602001906001900390816118145790505b50905060005b600360008581526020019081526020016000206004018054905081101561193c5760036000858152602001908152602001600020600401818154811061187857611877613d39565b5b90600052602060002001805461188d90613a3e565b80601f01602080910402602001604051908101604052809291908181526020018280546118b990613a3e565b80156119065780601f106118db57610100808354040283529160200191611906565b820191906000526020600020905b8154815290600101906020018083116118e957829003601f168201915b505050505082828151811061191e5761191d613d39565b5b6020026020010181905250808061193490613d68565b91505061182f565b5080915050919050565b670de0b6b3a7640000600a60009054906101000a900473ffffffffffffffffffffffffffffffffffffffff1673ffffffffffffffffffffffffffffffffffffffff166370a08231336040518263ffffffff1660e01b81526004016119aa9190613a6f565b602060405180830381865afa1580156119c7573d6000803e3d6000fd5b505050506040513d601f19601f820116820180604052508101906119eb9190613a9f565b1015611a2c576040517f08c379a0000000000000000000000000000000000000000000000000000000008152600401611a2390614021565b60405180910390fd5b606060008203611a73576040518060400160405280600681526020017f6e6f726d616c00000000000000000000000000000000000000000000000000008152509050611ab5565b60018203611ab4576040518060400160405280600881526020017f776569676874656400000000000000000000000000000000000000000000000081525090505b5b604051806101200160405280600b5481526020013373ffffffffffffffffffffffffffffffffffffffff168152602001878152602001428152602001868152602001858152602001600280811115611b1057611b0f6130b0565b5b81526020018481526020018281525060036000600b5481526020019081526020016000206000820151816000015560208201518160010160006101000a81548173ffffffffffffffffffffffffffffffffffffffff021916908373ffffffffffffffffffffffffffffffffffffffff1602179055506040820151816002019080519060200190611ba1929190612d9c565b50606082015181600301556080820151816004019080519060200190611bc8929190612e22565b5060a0820151816005019080519060200190611be5929190612e82565b5060c08201518160060160006101000a81548160ff02191690836002811115611c1157611c106130b0565b5b021790555060e08201518160070155610100820151816008019080519060200190611c3d929190612d9c565b50905050600b6000815480929190611c5490613d68565b9190505550600960009054906101000a900473ffffffffffffffffffffffffffffffffffffffff1673ffffffffffffffffffffffffffffffffffffffff1663a19dea70600b546040518263ffffffff1660e01b8152600401611cb69190613210565b600060405180830381600087803b158015611cd057600080fd5b505af1158015611ce4573d6000803e3d6000fd5b50505050505050505050565b60018054611cfd90613a3e565b80601f0160208091040260200160405190810160405280929190818152602001828054611d2990613a3e565b8015611d765780601f10611d4b57610100808354040283529160200191611d76565b820191906000526020600020905b815481529060010190602001808311611d5957829003601f168201915b505050505081565b60046020528160005260406000206020528060005260406000206000915091509054906101000a900460ff1681565b60006003600083815260200190815260200160002060060160006101000a81548160ff02191690836002811115611de757611de66130b0565b5b021790555050565b600060036000868152602001908152602001600020905060001515600460003373ffffffffffffffffffffffffffffffffffffffff1673ffffffffffffffffffffffffffffffffffffffff168152602001908152602001600020600087815260200190815260200160002060009054906101000a900460ff16151514611eaa576040517f08c379a0000000000000000000000000000000000000000000000000000000008152600401611ea190613dfc565b60405180910390fd5b670de0b6b3a7640000600960009054906101000a900473ffffffffffffffffffffffffffffffffffffffff1673ffffffffffffffffffffffffffffffffffffffff166370a08231336040518263ffffffff1660e01b8152600401611f0e9190613a6f565b602060405180830381865afa158015611f2b573d6000803e3d6000fd5b505050506040513d601f19601f82011682018060405250810190611f4f9190613a9f565b611f599190614070565b821115611f9b576040517f08c379a0000000000000000000000000000000000000000000000000000000008152600401611f9290614113565b60405180910390fd5b6000600960009054906101000a900473ffffffffffffffffffffffffffffffffffffffff1673ffffffffffffffffffffffffffffffffffffffff166370a08231336040518263ffffffff1660e01b8152600401611ff89190613a6f565b602060405180830381865afa158015612015573d6000803e3d6000fd5b505050506040513d601f19601f820116820180604052508101906120399190613a9f565b11612079576040517f08c379a0000000000000000000000000000000000000000000000000000000008152600401612070906141a5565b60405180910390fd5b62093a80816003015461208c9190613bc1565b4211156120ce576040517f08c379a00000000000000000000000000000000000000000000000000000000081526004016120c590613efa565b60405180910390fd5b6002808111156120e1576120e06130b0565b5b6003600087815260200190815260200160002060060160009054906101000a900460ff166002811115612117576121166130b0565b5b14612157576040517f08c379a000000000000000000000000000000000000000000000000000000000815260040161214e90613f66565b60405180910390fd5b6000805b845181101561219f5784818151811061217757612176613d39565b5b60200260200101518261218a9190613bc1565b9150808061219790613d68565b91505061215b565b5081600701548111156121b157600080fd5b6000805b83600401805490508110156122cd5760005b87518110156122b95761229c8560040183815481106121e9576121e8613d39565b5b9060005260206000200180546121fe90613a3e565b80601f016020809104026020016040519081016040528092919081815260200182805461222a90613a3e565b80156122775780601f1061224c57610100808354040283529160200191612277565b820191906000526020600020905b81548152906001019060200180831161225a57829003601f168201915b505050505089838151811061228f5761228e613d39565b5b6020026020010151612cb8565b156122a657600192505b80806122b190613d68565b9150506121c7565b5080806122c590613d68565b9150506121b5565b5060011515811515146122df57600080fd5b60005b83600401805490508110156124525760005b875181101561243e576123c985600401838154811061231657612315613d39565b5b90600052602060002001805461232b90613a3e565b80601f016020809104026020016040519081016040528092919081815260200182805461235790613a3e565b80156123a45780601f10612379576101008083540402835291602001916123a4565b820191906000526020600020905b81548152906001019060200180831161238757829003601f168201915b50505050508983815181106123bc576123bb613d39565b5b6020026020010151612cb8565b1561242b57858782815181106123e2576123e1613d39565b5b60200260200101516123f49190613b67565b85600501838154811061240a57612409613d39565b5b9060005260206000200160008282546124239190613bc1565b925050819055505b808061243690613d68565b9150506122f4565b50808061244a90613d68565b9150506122e2565b506001600460003373ffffffffffffffffffffffffffffffffffffffff1673ffffffffffffffffffffffffffffffffffffffff168152602001908152602001600020600089815260200190815260200160002060006101000a81548160ff021916908315150217905550600960009054906101000a900473ffffffffffffffffffffffffffffffffffffffff1673ffffffffffffffffffffffffffffffffffffffff1663fc13d51888336040518363ffffffff1660e01b8152600401612519929190613f86565b600060405180830381600087803b15801561253357600080fd5b505af1158015612547573d6000803e3d6000fd5b5050505050505050505050565b6006602052816000526040600020602052806000526040600020600091509150505481565b60005b600b5481101561277057600280811115612599576125986130b0565b5b6003600083815260200190815260200160002060060160009054906101000a900460ff1660028111156125cf576125ce6130b0565b5b1461266457600960009054906101000a900473ffffffffffffffffffffffffffffffffffffffff1673ffffffffffffffffffffffffffffffffffffffff1663ff2b5fa182336040518363ffffffff1660e01b8152600401612631929190613f86565b600060405180830381600087803b15801561264b57600080fd5b505af115801561265f573d6000803e3d6000fd5b505050505b7f61bf162c6b8b838fa2759708ac7f938260ec056c09518ed3e6c8ddbf47873edd60036000838152602001908152602001600020600001546003600084815260200190815260200160002060010160009054906101000a900473ffffffffffffffffffffffffffffffffffffffff166003600085815260200190815260200160002060020160036000868152602001908152602001600020600401600360008781526020019081526020016000206005016003600088815260200190815260200160002060070154600360008981526020019081526020016000206008016040516127559796959493929190614465565b60405180910390a1808061276890613d68565b91505061257c565b50565b60606000600360008481526020019081526020016000206005018054905067ffffffffffffffff8111156127aa576127a961338b565b5b6040519080825280602002602001820160405280156127d85781602001602082028036833780820191505090505b50905060005b60036000858152602001908152602001600020600501805490508110156128645760036000858152602001908152602001600020600501818154811061282757612826613d39565b5b906000526020600020015482828151811061284557612844613d39565b5b602002602001018181525050808061285c90613d68565b9150506127de565b5080915050919050565b60076020528060005260406000206000915090505481565b606060006003600084815260200190815260200160002060080180546128ab90613a3e565b80601f01602080910402602001604051908101604052809291908181526020018280546128d790613a3e565b80156129245780601f106128f957610100808354040283529160200191612924565b820191906000526020600020905b81548152906001019060200180831161290757829003601f168201915b5050505050905080915050919050565b600960009054906101000a900473ffffffffffffffffffffffffffffffffffffffff1681565b60056020528160005260406000206020528060005260406000206000915091509054906101000a900460ff1681565b6000805461299690613a3e565b80601f01602080910402602001604051908101604052809291908181526020018280546129c290613a3e565b8015612a0f5780601f106129e457610100808354040283529160200191612a0f565b820191906000526020600020905b8154815290600101906020018083116129f257829003601f168201915b505050505081565b600a60009054906101000a900473ffffffffffffffffffffffffffffffffffffffff1681565b670de0b6b3a7640000600a60009054906101000a900473ffffffffffffffffffffffffffffffffffffffff1673ffffffffffffffffffffffffffffffffffffffff166370a08231336040518263ffffffff1660e01b8152600401612aa19190613a6f565b602060405180830381865afa158015612abe573d6000803e3d6000fd5b505050506040513d601f19601f82011682018060405250810190612ae29190613a9f565b1015612b23576040517f08c379a0000000000000000000000000000000000000000000000000000000008152600401612b1a90613b18565b60405180910390fd5b670de0b6b3a764000081612b379190613b67565b600760008473ffffffffffffffffffffffffffffffffffffffff1673ffffffffffffffffffffffffffffffffffffffff1681526020019081526020016000206000828254612b859190613bc1565b925050819055505050565b600260009054906101000a900473ffffffffffffffffffffffffffffffffffffffff1673ffffffffffffffffffffffffffffffffffffffff166350ee8e8f3083336040518463ffffffff1660e01b8152600401612bef93929190614511565b600060405180830381600087803b158015612c0957600080fd5b505af1158015612c1d573d6000803e3d6000fd5b5050505050565b600260009054906101000a900473ffffffffffffffffffffffffffffffffffffffff1673ffffffffffffffffffffffffffffffffffffffff1663205cdcff3083336040518463ffffffff1660e01b8152600401612c8393929190614511565b600060405180830381600087803b158015612c9d57600080fd5b505af1158015612cb1573d6000803e3d6000fd5b5050505050565b600080839050600083905060008251905081518114612cdd5760009350505050612d96565b60005b81811015612d8d57828181518110612cfb57612cfa613d39565b5b602001015160f81c60f81b7effffffffffffffffffffffffffffffffffffffffffffffffffffffffffffff1916848281518110612d3b57612d3a613d39565b5b602001015160f81c60f81b7effffffffffffffffffffffffffffffffffffffffffffffffffffffffffffff191614612d7a576000945050505050612d96565b8080612d8590613d68565b915050612ce0565b50600193505050505b92915050565b828054612da890613a3e565b90600052602060002090601f016020900481019282612dca5760008555612e11565b82601f10612de357805160ff1916838001178555612e11565b82800160010185558215612e11579182015b82811115612e10578251825591602001919060010190612df5565b5b509050612e1e9190612ecf565b5090565b828054828255906000526020600020908101928215612e71579160200282015b82811115612e70578251829080519060200190612e60929190612d9c565b5091602001919060010190612e42565b5b509050612e7e9190612eec565b5090565b828054828255906000526020600020908101928215612ebe579160200282015b82811115612ebd578251825591602001919060010190612ea2565b5b509050612ecb9190612ecf565b5090565b5b80821115612ee8576000816000905550600101612ed0565b5090565b5b80821115612f0c5760008181612f039190612f10565b50600101612eed565b5090565b508054612f1c90613a3e565b6000825580601f10612f2e5750612f4d565b601f016020900490600052602060002090810190612f4c9190612ecf565b5b50565b6000604051905090565b600080fd5b600080fd5b6000819050919050565b612f7781612f64565b8114612f8257600080fd5b50565b600081359050612f9481612f6e565b92915050565b600060208284031215612fb057612faf612f5a565b5b6000612fbe84828501612f85565b91505092915050565b612fd081612f64565b82525050565b600073ffffffffffffffffffffffffffffffffffffffff82169050919050565b600061300182612fd6565b9050919050565b61301181612ff6565b82525050565b600081519050919050565b600082825260208201905092915050565b60005b83811015613051578082015181840152602081019050613036565b83811115613060576000848401525b50505050565b6000601f19601f8301169050919050565b600061308282613017565b61308c8185613022565b935061309c818560208601613033565b6130a581613066565b840191505092915050565b7f4e487b7100000000000000000000000000000000000000000000000000000000600052602160045260246000fd5b600381106130f0576130ef6130b0565b5b50565b6000819050613101826130df565b919050565b6000613111826130f3565b9050919050565b61312181613106565b82525050565b600060e08201905061313c600083018a612fc7565b6131496020830189613008565b818103604083015261315b8188613077565b905061316a6060830187612fc7565b6131776080830186613118565b61318460a0830185612fc7565b81810360c08301526131968184613077565b905098975050505050505050565b6131ad81612ff6565b81146131b857600080fd5b50565b6000813590506131ca816131a4565b92915050565b600080604083850312156131e7576131e6612f5a565b5b60006131f5858286016131bb565b925050602061320685828601612f85565b9150509250929050565b60006020820190506132256000830184612fc7565b92915050565b600081519050919050565b600082825260208201905092915050565b6000819050602082019050919050565b600082825260208201905092915050565b600061327382613017565b61327d8185613257565b935061328d818560208601613033565b61329681613066565b840191505092915050565b60006132ad8383613268565b905092915050565b6000602082019050919050565b60006132cd8261322b565b6132d78185613236565b9350836020820285016132e985613247565b8060005b85811015613325578484038952815161330685826132a1565b9450613311836132b5565b925060208a019950506001810190506132ed565b50829750879550505050505092915050565b6000602082019050818103600083015261335181846132c2565b905092915050565b60006020828403121561336f5761336e612f5a565b5b600061337d848285016131bb565b91505092915050565b600080fd5b7f4e487b7100000000000000000000000000000000000000000000000000000000600052604160045260246000fd5b6133c382613066565b810181811067ffffffffffffffff821117156133e2576133e161338b565b5b80604052505050565b60006133f5612f50565b905061340182826133ba565b919050565b600067ffffffffffffffff8211156134215761342061338b565b5b602082029050602081019050919050565b600080fd5b600080fd5b600067ffffffffffffffff8211156134575761345661338b565b5b61346082613066565b9050602081019050919050565b82818337600083830152505050565b600061348f61348a8461343c565b6133eb565b9050828152602081018484840111156134ab576134aa613437565b5b6134b684828561346d565b509392505050565b600082601f8301126134d3576134d2613386565b5b81356134e384826020860161347c565b91505092915050565b60006134ff6134fa84613406565b6133eb565b9050808382526020820190506020840283018581111561352257613521613432565b5b835b8181101561356957803567ffffffffffffffff81111561354757613546613386565b5b80860161355489826134be565b85526020850194505050602081019050613524565b5050509392505050565b600082601f83011261358857613587613386565b5b81356135988482602086016134ec565b91505092915050565b600067ffffffffffffffff8211156135bc576135bb61338b565b5b602082029050602081019050919050565b60006135e06135db846135a1565b6133eb565b9050808382526020820190506020840283018581111561360357613602613432565b5b835b8181101561362c57806136188882612f85565b845260208401935050602081019050613605565b5050509392505050565b600082601f83011261364b5761364a613386565b5b813561365b8482602086016135cd565b91505092915050565b60008060006060848603121561367d5761367c612f5a565b5b600061368b86828701612f85565b935050602084013567ffffffffffffffff8111156136ac576136ab612f5f565b5b6136b886828701613573565b925050604084013567ffffffffffffffff8111156136d9576136d8612f5f565b5b6136e586828701613636565b9150509250925092565b600080600080600060a0868803121561370b5761370a612f5a565b5b600086013567ffffffffffffffff81111561372957613728612f5f565b5b613735888289016134be565b955050602086013567ffffffffffffffff81111561375657613755612f5f565b5b61376288828901613573565b945050604086013567ffffffffffffffff81111561378357613782612f5f565b5b61378f88828901613636565b93505060606137a088828901612f85565b92505060806137b188828901612f85565b9150509295509295909350565b600060208201905081810360008301526137d88184613077565b905092915050565b60008115159050919050565b6137f5816137e0565b82525050565b600060208201905061381060008301846137ec565b92915050565b600080600080608085870312156138305761382f612f5a565b5b600061383e87828801612f85565b945050602085013567ffffffffffffffff81111561385f5761385e612f5f565b5b61386b87828801613573565b935050604085013567ffffffffffffffff81111561388c5761388b612f5f565b5b61389887828801613636565b92505060606138a987828801612f85565b91505092959194509250565b600081519050919050565b600082825260208201905092915050565b6000819050602082019050919050565b6138ea81612f64565b82525050565b60006138fc83836138e1565b60208301905092915050565b6000602082019050919050565b6000613920826138b5565b61392a81856138c0565b9350613935836138d1565b8060005b8381101561396657815161394d88826138f0565b975061395883613908565b925050600181019050613939565b5085935050505092915050565b6000602082019050818103600083015261398d8184613915565b905092915050565b6000819050919050565b60006139ba6139b56139b084612fd6565b613995565b612fd6565b9050919050565b60006139cc8261399f565b9050919050565b60006139de826139c1565b9050919050565b6139ee816139d3565b82525050565b6000602082019050613a0960008301846139e5565b92915050565b7f4e487b7100000000000000000000000000000000000000000000000000000000600052602260045260246000fd5b60006002820490506001821680613a5657607f821691505b602082108103613a6957613a68613a0f565b5b50919050565b6000602082019050613a846000830184613008565b92915050565b600081519050613a9981612f6e565b92915050565b600060208284031215613ab557613ab4612f5a565b5b6000613ac384828501613a8a565b91505092915050565b7f4e6f74206120594b000000000000000000000000000000000000000000000000600082015250565b6000613b02600883613022565b9150613b0d82613acc565b602082019050919050565b60006020820190508181036000830152613b3181613af5565b9050919050565b7f4e487b7100000000000000000000000000000000000000000000000000000000600052601160045260246000fd5b6000613b7282612f64565b9150613b7d83612f64565b9250817fffffffffffffffffffffffffffffffffffffffffffffffffffffffffffffffff0483118215151615613bb657613bb5613b38565b5b828202905092915050565b6000613bcc82612f64565b9150613bd783612f64565b9250827fffffffffffffffffffffffffffffffffffffffffffffffffffffffffffffffff03821115613c0c57613c0b613b38565b5b828201905092915050565b6000604082019050613c2c6000830185613008565b613c396020830184612fc7565b9392505050565b613c49816137e0565b8114613c5457600080fd5b50565b600081519050613c6681613c40565b92915050565b600060208284031215613c8257613c81612f5a565b5b6000613c9084828501613c57565b91505092915050565b7f4e6f7420656e6f75676820736861726573000000000000000000000000000000600082015250565b6000613ccf601183613022565b9150613cda82613c99565b602082019050919050565b60006020820190508181036000830152613cfe81613cc2565b9050919050565b6000613d1082612f64565b9150613d1b83612f64565b925082821015613d2e57613d2d613b38565b5b828203905092915050565b7f4e487b7100000000000000000000000000000000000000000000000000000000600052603260045260246000fd5b6000613d7382612f64565b91507fffffffffffffffffffffffffffffffffffffffffffffffffffffffffffffffff8203613da557613da4613b38565b5b600182019050919050565b7f616c726561647920766f74656400000000000000000000000000000000000000600082015250565b6000613de6600d83613022565b9150613df182613db0565b602082019050919050565b60006020820190508181036000830152613e1581613dd9565b9050919050565b7f4e6f7420656e6f7567682073686172657320746f20766f7465206f6e2061207060008201527f726f706f73616c00000000000000000000000000000000000000000000000000602082015250565b6000613e78602783613022565b9150613e8382613e1c565b604082019050919050565b60006020820190508181036000830152613ea781613e6b565b9050919050565b7f566f74696e6720706572696f64206973206f7665720000000000000000000000600082015250565b6000613ee4601583613022565b9150613eef82613eae565b602082019050919050565b60006020820190508181036000830152613f1381613ed7565b9050919050565b7f566f74696e6720706572696f642069732066696e697368656400000000000000600082015250565b6000613f50601983613022565b9150613f5b82613f1a565b602082019050919050565b60006020820190508181036000830152613f7f81613f43565b9050919050565b6000604082019050613f9b6000830185612fc7565b613fa86020830184613008565b9392505050565b7f4e6f7420656e6f7567682073686172657320746f20637265617465206120707260008201527f6f706f73616c0000000000000000000000000000000000000000000000000000602082015250565b600061400b602683613022565b915061401682613faf565b604082019050919050565b6000602082019050818103600083015261403a81613ffe565b9050919050565b7f4e487b7100000000000000000000000000000000000000000000000000000000600052601260045260246000fd5b600061407b82612f64565b915061408683612f64565b92508261409657614095614041565b5b828204905092915050565b7f446f6e74206861766520656e6f75676820746f6b656e7320286368616e67652060008201527f7765696768742900000000000000000000000000000000000000000000000000602082015250565b60006140fd602783613022565b9150614108826140a1565b604082019050919050565b6000602082019050818103600083015261412c816140f0565b9050919050565b7f446f6e74206861766520656e6f75676820746f6b656e7320286c69746572616c60008201527f6c79203029000000000000000000000000000000000000000000000000000000602082015250565b600061418f602583613022565b915061419a82614133565b604082019050919050565b600060208201905081810360008301526141be81614182565b9050919050565b60008190508160005260206000209050919050565b600081546141e781613a3e565b6141f18186613022565b9450600182166000811461420c576001811461421e57614251565b60ff1983168652602086019350614251565b614227856141c5565b60005b838110156142495781548189015260018201915060208101905061422a565b808801955050505b50505092915050565b600081549050919050565b60008190508160005260206000209050919050565b6000815461428781613a3e565b6142918186613257565b945060018216600081146142ac57600181146142be576142f1565b60ff19831686526020860193506142f1565b6142c7856141c5565b60005b838110156142e9578154818901526001820191506020810190506142ca565b808801955050505b50505092915050565b6000614306838361427a565b905092915050565b6000600182019050919050565b60006143268261425a565b6143308185613236565b93508360208202850161434285614265565b8060005b8581101561437d5784840389528161435e85826142fa565b94506143698361430e565b925060208a01995050600181019050614346565b50829750879550505050505092915050565b600081549050919050565b60008190508160005260206000209050919050565b60008160001c9050919050565b6000819050919050565b60006143d96143d4836143af565b6143bc565b9050919050565b60006143ec82546143c6565b9050919050565b6000600182019050919050565b600061440b8261438f565b61441581856138c0565b93506144208361439a565b8060005b8381101561445857614435826143e0565b61443f88826138f0565b975061444a836143f3565b925050600181019050614424565b5085935050505092915050565b600060e08201905061447a600083018a612fc7565b6144876020830189613008565b818103604083015261449981886141da565b905081810360608301526144ad818761431b565b905081810360808301526144c18186614400565b90506144d060a0830185612fc7565b81810360c08301526144e281846141da565b905098975050505050505050565b60006144fb826139c1565b9050919050565b61450b816144f0565b82525050565b60006060820190506145266000830186614502565b6145336020830185612fc7565b6145406040830184613008565b94935050505056fea26469706673582212202e53998693110fa5d9b781d003459f39b37f6313757fb5b9e42fd47b0890f99464736f6c634300080d0033",
  "immutableReferences": {},
  "source": "// SPDX-License-Identifier: GPL-3.0\r\n\r\npragma solidity >=0.7.0 <0.9.0;\r\npragma experimental ABIEncoderV2;\r\n\r\nimport \"./token.sol\";\r\nimport \"./newFactory1.sol\";\r\n\r\n\r\n\r\ncontract MyDAO {\r\n    string public dao_name;\r\n    string public dao_description;\r\n    enum VotingOptions { Yes, No }\r\n    enum Status { Accepted, Rejected, Pending }\r\n    \r\n\r\n    \r\n\r\n    struct Proposal {\r\n        uint256 id;\r\n        address author;\r\n        string name;\r\n        uint256 createdAt;\r\n        string[] options;\r\n        uint256[] options_num;\r\n        Status status;\r\n        uint256 power;\r\n        string proposal_info_type;\r\n\r\n    }   \r\n    \r\n\r\n    function stringsEquals(string memory s1, string memory s2) private pure returns (bool) {\r\n        bytes memory b1 = bytes(s1);\r\n        bytes memory b2 = bytes(s2);\r\n        uint256 l1 = b1.length;\r\n        if (l1 != b2.length) return false;\r\n        for (uint256 i=0; i<l1; i++) {\r\n            if (b1[i] != b2[i]) return false;\r\n        }\r\n        return true;\r\n    }\r\n\r\n    DAOFactory factory;\r\n\r\n    // store all proposals\r\n    mapping(uint => Proposal) public proposals;    \r\n    //to print out proposals\r\n    event proposal_info(uint256 id, address author, string name, string[] options, uint256[] num_options, uint256 power, string proposal_info_type);\r\n    // who already votes for who and to avoid vote twice\r\n    mapping(address => mapping(uint => bool)) public votes;\r\n    mapping(address => mapping(uint => bool)) public tokens_not_refunded;\r\n    mapping(address => mapping(uint => uint)) public token_amount_to_be_refunded;\r\n    // one share for governance tokens\r\n    mapping(address => uint256) public voter_shares_to_be_given;\r\n    mapping(address => uint256) public yk_shares_to_be_given;\r\n\r\n    // the IERC20 allow us to use avax like our governance token.\r\n    SUToken public voter_token;\r\n    SUToken public yk_token;\r\n    // the user need minimum 25 AVAX to create a proposal.\r\n    uint constant CREATE_PROPOSAL_MIN_SHARE = 1 * 10 ** 18;\r\n    uint constant VOTING_PERIOD = 7 days;\r\n    uint public nextProposalId;\r\n    \r\n    mapping(address => bool) transferLock;\r\n\r\n    constructor(string memory _dao_name, string memory _dao_description, address first_yk, SUToken yk_token_in, SUToken voter_token_in, DAOFactory _factory) {\r\n        factory = _factory;\r\n        dao_name = _dao_name;\r\n        dao_description = _dao_description;\r\n        yk_token = yk_token_in; // AVAX address\r\n        voter_token = voter_token_in;\r\n\r\n        //maybe mintabele amount can be taken as an input and 1000 yerine konabilir\r\n        yk_shares_to_be_given[first_yk] += (1 * 10 ** 18);\r\n        \r\n        voter_shares_to_be_given[first_yk] += (1 * 10 ** 18);\r\n\r\n    }\r\n\r\n    function mint_from_DAO_yk_token(uint _amount) internal {\r\n        factory.mint_dao_yk(this, _amount, msg.sender);\r\n    }\r\n\r\n    function mint_from_DAO_voter_token(uint _amount) internal {\r\n        factory.mint_dao_voter(this, _amount, msg.sender);\r\n    }\r\n\r\n\r\n    function iterate_proposals() public //ama sanirim boyle degilde teker teker yapmamiz gerekcek cok pahali olabilir obur turlu\r\n    {\r\n        for(uint i=0;i<nextProposalId;i++) //degistirmedim cunku artik sirf bunu kullaniriz yani\r\n        {\r\n            if(proposals[i].status != Status.Pending){\r\n                voter_token.update_active_voter_lock_off(i, msg.sender);\r\n            }\r\n\r\n            emit proposal_info(proposals[i].id, proposals[i].author, proposals[i].name, proposals[i].options, proposals[i].options_num, proposals[i].power, proposals[i].proposal_info_type);\r\n\r\n        }\r\n        \r\n    }        \r\n\r\n    function accept_proposal(uint _proposalId) external {\r\n        proposals[_proposalId].status = Status.Accepted;\r\n    }\r\n\r\n    function reject_proposal(uint _proposalId) external {\r\n        proposals[_proposalId].status = Status.Rejected;\r\n    }    \r\n\r\n    function pending_proposal(uint _proposalId) external {\r\n        proposals[_proposalId].status = Status.Pending;\r\n    }       \r\n\r\n        \r\n\r\n\r\n    function withdraw_voter_tokens(uint _amount) external {\r\n        require(voter_shares_to_be_given[msg.sender] >= _amount*10**18, 'Not enough shares');\r\n        voter_shares_to_be_given[msg.sender] -= (_amount * 10 ** 18);\r\n        voter_token.transferDAO(msg.sender, (_amount * 10 ** 18));\r\n        mint_from_DAO_voter_token(_amount);\r\n    }    \r\n\r\n\r\n\r\n    \r\n\r\n\r\n    function withdraw_yk_tokens(uint _amount) external {\r\n        require(yk_shares_to_be_given[msg.sender] >= _amount, 'Not enough shares');\r\n        yk_shares_to_be_given[msg.sender] -= (_amount * 10 ** 18);\r\n        yk_token.transferDAO(msg.sender, (_amount * 10 ** 18));\r\n        mint_from_DAO_yk_token(_amount);\r\n\r\n    }    \r\n    \r\n    function send_yk_tokens_to_address_yk(address yk_candidate, uint _amount) external {\r\n        require(yk_token.balanceOf(msg.sender) >= 1 * 10 **18, 'Not a YK');\r\n        //yk_shares[msg.sender] -= (_amount * 10 ** 18);\r\n        //totalShares -= (_amount * 10 ** 18);\r\n        //total_yk_shares -= (_amount * 10 ** 18);\r\n        //neden olmuyor bu\r\n        //yk_token.transfer(yk_candidate, _amount * 18 **18);\r\n        yk_shares_to_be_given[yk_candidate] += _amount * 10 ** 18;\r\n        //yk_token.transfer(yk_candidate, (_amount * 10 ** 18));\r\n    } \r\n\r\n    function send_yk_tokens_to_address_yk_directly(address yk_candidate, uint _amount) external {\r\n        require(yk_token.balanceOf(msg.sender) >= 1 * 10 **18, 'Not a YK');\r\n        //yk_shares[msg.sender] -= (_amount * 10 ** 18);\r\n        //totalShares -= (_amount * 10 ** 18);\r\n        //total_yk_shares -= (_amount * 10 ** 18);\r\n        //neden olmuyor bu\r\n        //yk_token.transfer(yk_candidate, _amount * 18 **18);\r\n        //yk_shares_to_be_given[yk_candidate] += _amount * 10 ** 18;\r\n        //yk_token.transfer(yk_candidate, (_amount * 10 ** 18));\r\n        yk_token.transferDAO(yk_candidate, (_amount * 10 ** 18));\r\n        mint_from_DAO_yk_token(_amount);\r\n    } \r\n \r\n \r\n    function send_voter_tokens_to_address_yk(address voter_candidate, uint _amount) external {\r\n        require(yk_token.balanceOf(msg.sender) >= 1* 10 **18, 'Not a YK');\r\n        //yk_shares[msg.sender] -= (_amount * 10 ** 18);\r\n        //totalShares -= (_amount * 10 ** 18);\r\n        //total_yk_shares -= (_amount * 10 ** 18);\r\n        //ones above are in comments becaue this whole process is done in the contract\r\n        voter_shares_to_be_given[voter_candidate] += _amount * 10 ** 18;\r\n        //voter_token.transfer(voter_candidate, (_amount * 10 ** 18));\r\n    }                   \r\n\r\n    function send_voter_tokens_to_address_yk_directly(address voter_candidate, uint _amount) external {\r\n        require(yk_token.balanceOf(msg.sender) >= 1* 10 **18, 'Not a YK');\r\n        //yk_shares[msg.sender] -= (_amount * 10 ** 18);\r\n        //totalShares -= (_amount * 10 ** 18);\r\n        //total_yk_shares -= (_amount * 10 ** 18);\r\n        //ones above are in comments becaue this whole process is done in the contract\r\n        voter_token.transferDAO(voter_candidate, (_amount * 10 ** 18));\r\n        mint_from_DAO_voter_token(_amount);\r\n\r\n        //voter_token.transfer(voter_candidate, (_amount * 10 ** 18));\r\n    }        \r\n    //in yk functions token verification tokens have to be in the contract however in voter sending function \r\n     \r\n\r\n    function createProposal(string memory name, string[] memory _options, uint256[] memory _options_num, uint256 _power, uint256 _type) external {\r\n        // validate the user has enough shares to create a proposal\r\n        require(yk_token.balanceOf(msg.sender) >= CREATE_PROPOSAL_MIN_SHARE, 'Not enough shares to create a proposal');\r\n        string memory proposal_type;\r\n        //sorun olursa buradan\r\n        if(_type == 0){\r\n            proposal_type = \"normal\";\r\n        }\r\n        else if(_type == 1){\r\n            proposal_type = \"weighted\";\r\n        }\r\n\r\n        proposals[nextProposalId] = Proposal(\r\n            nextProposalId,\r\n            msg.sender,\r\n            name,\r\n            block.timestamp,\r\n            _options,\r\n            _options_num,\r\n            Status.Pending,\r\n            _power,\r\n            proposal_type\r\n        );\r\n        nextProposalId++; //might need\r\n        voter_token.update_proposal_num(nextProposalId);\r\n    }      \r\n\r\n\r\n    function vote_power(uint _proposalId, string[] memory _vote, uint[] memory _power) external {\r\n        Proposal storage proposal = proposals[_proposalId];\r\n        require(votes[msg.sender][_proposalId] == false, 'already voted');\r\n        //i check if the user is a yk or has voter shares\r\n        require(voter_token.balanceOf(msg.sender) > 0, 'Not enough shares to vote on a proposal');\r\n        //bu alttaki sadece 1 kez oylamayi garantilemek icin, teoride bunu kullanmayacakgiz\r\n        //requires(tokens_refunded[msg.sender][_proposalId] == false, 'Already voted);\r\n        require(block.timestamp <= proposal.createdAt + VOTING_PERIOD, 'Voting period is over');\r\n        require(proposals[_proposalId].status == Status.Pending, 'Voting period is finished');\r\n        uint total_power = 0; \r\n        for(uint i=0;i<_power.length;i++) //checks if the amount of votes given is equal to the max amount of votes\r\n        {\r\n            total_power = total_power + _power[i];\r\n        }          \r\n        require(total_power <= proposal.power);\r\n        bool init = false;\r\n        //asagida yaptiklarim: iste yapiyo yazmaya usendim\r\n        for(uint i=0;i<proposal.options.length;i++)\r\n        {\r\n            for(uint y=0; y<_vote.length; y++){\r\n                \r\n                if(stringsEquals(proposal.options[i], _vote[y])){\r\n                    init = true;\r\n                }\r\n            }\r\n        }           \r\n        require(init == true);\r\n        /** make sure to add the necessary require checks */\r\n\r\n        for(uint i=0;i<proposal.options.length;i++)\r\n        {\r\n            for(uint y=0; y<_vote.length; y++){\r\n                if(stringsEquals(proposal.options[i], _vote[y])){\r\n                    proposal.options_num[i]+= _power[y];\r\n                }\r\n            }\r\n        }\r\n\r\n        votes[msg.sender][_proposalId] = true;\r\n        voter_token.update_active_voter_lock_on(_proposalId, msg.sender);\r\n\r\n\r\n        \r\n    }  \r\n\r\n    \r\n\r\n    function vote_power_weighted(uint _proposalId, string[] memory _vote, uint[] memory _power, uint weight) external {\r\n        Proposal storage proposal = proposals[_proposalId];\r\n        require(votes[msg.sender][_proposalId] == false, 'already voted');\r\n        require(weight <= (voter_token.balanceOf(msg.sender) / (10 ** 18)), \"Dont have enough tokens (change weight)\" );\r\n\r\n        //i check if the user is a yk or has voter shares\r\n        require(voter_token.balanceOf(msg.sender) > 0, \"Dont have enough tokens (literally 0)\");\r\n        //bu alttaki sadece 1 kez oylamayi garantilemek icin, teoride bunu kullanmayacakgiz\r\n        //requires(tokens_refunded[msg.sender][_proposalId] == false, 'Already voted);\r\n        require(block.timestamp <= proposal.createdAt + VOTING_PERIOD, 'Voting period is over');\r\n        require(proposals[_proposalId].status == Status.Pending, 'Voting period is finished');\r\n        uint total_power = 0; \r\n        for(uint i=0;i<_power.length;i++) //checks if the amount of votes given is equal to the max amount of votes\r\n        {\r\n            total_power = total_power + _power[i];\r\n        }          \r\n        require(total_power <= proposal.power);\r\n        bool init = false;\r\n        //asagida yaptiklarim: iste yapiyo yazmaya usendim\r\n        for(uint i=0;i<proposal.options.length;i++)\r\n        {\r\n            for(uint y=0; y<_vote.length; y++){\r\n                \r\n                if(stringsEquals(proposal.options[i], _vote[y])){\r\n                    init = true;\r\n                }\r\n            }\r\n        }           \r\n        require(init == true);\r\n        /** make sure to add the necessary require checks */\r\n\r\n        \r\n\r\n        for(uint i=0;i<proposal.options.length;i++)\r\n        {\r\n            for(uint y=0; y<_vote.length; y++){\r\n                if(stringsEquals(proposal.options[i], _vote[y])){\r\n                    proposal.options_num[i]+= _power[y] * weight;\r\n                }\r\n            }\r\n        }\r\n\r\n        votes[msg.sender][_proposalId] = true;\r\n        voter_token.update_active_voter_lock_on(_proposalId, msg.sender);\r\n\r\n\r\n    }   \r\n    //(string[][] memory myproposaloptions, string[][] memory myproposals, string[][] memory myproposalvotes )\r\n    function getProposalName() public view returns (string[] memory){\r\n        //string[][] propoptions;\r\n        string[] memory myprops = new string[](nextProposalId);\r\n        //string[][] propvotes;\r\n        for (uint i = 0; i < nextProposalId; i++) {\r\n            myprops[i] = proposals[i].name;\r\n            //propvotes.push(proposals[i].name);\r\n            //for(uint y = 0; y < proposals[i].options.length; y++){\r\n            //    propvotes[i][y]\r\n            //}\r\n        }\r\n        return myprops;\r\n    }\r\n\r\n    function getProposalVoteNames(uint proposal_idd) public view returns (string[] memory){\r\n        //string[][] propoptions;\r\n        string[] memory mypropvotes = new string[](proposals[proposal_idd].options.length);\r\n        //string[][] propvotes;\r\n        for (uint i = 0; i < proposals[proposal_idd].options.length; i++) {\r\n            mypropvotes[i] = proposals[proposal_idd].options[i];\r\n            //propvotes.push(proposals[i].name);\r\n            //for(uint y = 0; y < proposals[i].options.length; y++){\r\n            //    propvotes[i][y]\r\n            //}\r\n        }\r\n        return mypropvotes;\r\n    }    \r\n\r\n    function getProposalVoteNumbers(uint proposal_idd) public view returns (uint[] memory){\r\n        //string[][] propoptions;\r\n        uint[] memory mypropvotenums = new uint[](proposals[proposal_idd].options_num.length);\r\n        //string[][] propvotes;\r\n        for (uint i = 0; i < proposals[proposal_idd].options_num.length; i++) {\r\n            mypropvotenums[i] = proposals[proposal_idd].options_num[i];\r\n            //propvotes.push(proposals[i].name);\r\n            //for(uint y = 0; y < proposals[i].options.length; y++){\r\n            //    propvotes[i][y]\r\n            //}\r\n        }\r\n        return mypropvotenums;\r\n    }    \r\n\r\n    function getProposalPower(uint proposal_idd) public view returns (uint ){\r\n        //string[][] propoptions;\r\n        uint myproppower = 0;\r\n        //string[][] propvotes;\r\n        myproppower = proposals[proposal_idd].power;\r\n\r\n        return myproppower;\r\n    }     \r\n\r\n    function getProposalType(uint proposal_idd) public view returns (string memory){\r\n        //string[][] propoptions;\r\n        \r\n        //string[][] propvotes;\r\n        string memory myproppower = proposals[proposal_idd].proposal_info_type;\r\n\r\n        return myproppower;\r\n    }          \r\n}                   \r\n\r\n\r\n   \r\n",
  "sourcePath": "D:\\Projects\\DAOO\\SU_Govern\\contract_for_front_end\\ui_sol_deneme2\\ui_sol_deneme\\sol_ui\\blockchain1\\contracts\\newDAO1.sol",
  "compiler": {
    "name": "solc",
    "version": "0.8.13+commit.abaa5c0e.Emscripten.clang"
  },
  "schemaVersion": "3.4.7",
  "updatedAt": "2022-11-29T15:11:47.195Z",
  "devdoc": {
    "kind": "dev",
    "methods": {},
    "version": 1
  },
  "userdoc": {
    "kind": "user",
    "methods": {},
    "version": 1
  }
}