{
  "contractName": "MyDAO",
  "abi": [
    {
      "inputs": [
        {
          "internalType": "string",
          "name": "_dao_name",
          "type": "string"
        },
        {
          "internalType": "string",
          "name": "_dao_description",
          "type": "string"
        },
        {
          "internalType": "uint256",
          "name": "_dao_id",
          "type": "uint256"
        },
        {
          "internalType": "address",
          "name": "first_yk",
          "type": "address"
        },
        {
          "internalType": "contract ISUToken",
          "name": "yk_token_in",
          "type": "address"
        },
        {
          "internalType": "contract ISUToken",
          "name": "voter_token_in",
          "type": "address"
        },
        {
          "internalType": "contract DAOFactory",
          "name": "_factory",
          "type": "address"
        }
      ],
      "stateMutability": "nonpayable",
      "type": "constructor"
    },
    {
      "anonymous": false,
      "inputs": [
        {
          "indexed": false,
          "internalType": "uint256",
          "name": "id",
          "type": "uint256"
        },
        {
          "indexed": false,
          "internalType": "address",
          "name": "author",
          "type": "address"
        },
        {
          "indexed": false,
          "internalType": "string",
          "name": "name",
          "type": "string"
        },
        {
          "indexed": false,
          "internalType": "string",
          "name": "proposal_description",
          "type": "string"
        },
        {
          "indexed": false,
          "internalType": "string[]",
          "name": "options",
          "type": "string[]"
        },
        {
          "indexed": false,
          "internalType": "uint256[]",
          "name": "num_options",
          "type": "uint256[]"
        },
        {
          "indexed": false,
          "internalType": "uint256",
          "name": "power",
          "type": "uint256"
        },
        {
          "indexed": false,
          "internalType": "string",
          "name": "proposal_info_type",
          "type": "string"
        }
      ],
      "name": "proposal_info",
      "type": "event"
    },
    {
      "inputs": [],
      "name": "dao_description",
      "outputs": [
        {
          "internalType": "string",
          "name": "",
          "type": "string"
        }
      ],
      "stateMutability": "view",
      "type": "function"
    },
    {
      "inputs": [],
      "name": "dao_name",
      "outputs": [
        {
          "internalType": "string",
          "name": "",
          "type": "string"
        }
      ],
      "stateMutability": "view",
      "type": "function"
    },
    {
      "inputs": [],
      "name": "nextProposalId",
      "outputs": [
        {
          "internalType": "uint256",
          "name": "",
          "type": "uint256"
        }
      ],
      "stateMutability": "view",
      "type": "function"
    },
    {
      "inputs": [
        {
          "internalType": "uint256",
          "name": "",
          "type": "uint256"
        }
      ],
      "name": "proposals",
      "outputs": [
        {
          "internalType": "uint256",
          "name": "id",
          "type": "uint256"
        },
        {
          "internalType": "address",
          "name": "author",
          "type": "address"
        },
        {
          "internalType": "string",
          "name": "name",
          "type": "string"
        },
        {
          "internalType": "string",
          "name": "proposal_description",
          "type": "string"
        },
        {
          "internalType": "uint256",
          "name": "createdAt",
          "type": "uint256"
        },
        {
          "internalType": "enum MyDAO.Status",
          "name": "status",
          "type": "uint8"
        },
        {
          "internalType": "uint256",
          "name": "power",
          "type": "uint256"
        },
        {
          "internalType": "string",
          "name": "proposal_info_type",
          "type": "string"
        }
      ],
      "stateMutability": "view",
      "type": "function"
    },
    {
      "inputs": [
        {
          "internalType": "address",
          "name": "",
          "type": "address"
        },
        {
          "internalType": "uint256",
          "name": "",
          "type": "uint256"
        }
      ],
      "name": "token_amount_to_be_refunded",
      "outputs": [
        {
          "internalType": "uint256",
          "name": "",
          "type": "uint256"
        }
      ],
      "stateMutability": "view",
      "type": "function"
    },
    {
      "inputs": [
        {
          "internalType": "address",
          "name": "",
          "type": "address"
        },
        {
          "internalType": "uint256",
          "name": "",
          "type": "uint256"
        }
      ],
      "name": "tokens_not_refunded",
      "outputs": [
        {
          "internalType": "bool",
          "name": "",
          "type": "bool"
        }
      ],
      "stateMutability": "view",
      "type": "function"
    },
    {
      "inputs": [
        {
          "internalType": "address",
          "name": "",
          "type": "address"
        }
      ],
      "name": "voter_shares_to_be_given",
      "outputs": [
        {
          "internalType": "uint256",
          "name": "",
          "type": "uint256"
        }
      ],
      "stateMutability": "view",
      "type": "function"
    },
    {
      "inputs": [],
      "name": "voter_token",
      "outputs": [
        {
          "internalType": "contract ISUToken",
          "name": "",
          "type": "address"
        }
      ],
      "stateMutability": "view",
      "type": "function"
    },
    {
      "inputs": [
        {
          "internalType": "address",
          "name": "",
          "type": "address"
        },
        {
          "internalType": "uint256",
          "name": "",
          "type": "uint256"
        }
      ],
      "name": "votes",
      "outputs": [
        {
          "internalType": "bool",
          "name": "",
          "type": "bool"
        }
      ],
      "stateMutability": "view",
      "type": "function"
    },
    {
      "inputs": [
        {
          "internalType": "address",
          "name": "",
          "type": "address"
        }
      ],
      "name": "yk_shares_to_be_given",
      "outputs": [
        {
          "internalType": "uint256",
          "name": "",
          "type": "uint256"
        }
      ],
      "stateMutability": "view",
      "type": "function"
    },
    {
      "inputs": [],
      "name": "yk_token",
      "outputs": [
        {
          "internalType": "contract ISUToken",
          "name": "",
          "type": "address"
        }
      ],
      "stateMutability": "view",
      "type": "function"
    },
    {
      "inputs": [],
      "name": "iterate_proposals",
      "outputs": [],
      "stateMutability": "nonpayable",
      "type": "function"
    },
    {
      "inputs": [
        {
          "internalType": "uint256",
          "name": "_proposalId",
          "type": "uint256"
        }
      ],
      "name": "accept_proposal",
      "outputs": [],
      "stateMutability": "nonpayable",
      "type": "function"
    },
    {
      "inputs": [
        {
          "internalType": "uint256",
          "name": "_proposalId",
          "type": "uint256"
        }
      ],
      "name": "reject_proposal",
      "outputs": [],
      "stateMutability": "nonpayable",
      "type": "function"
    },
    {
      "inputs": [
        {
          "internalType": "uint256",
          "name": "_proposalId",
          "type": "uint256"
        }
      ],
      "name": "pending_proposal",
      "outputs": [],
      "stateMutability": "nonpayable",
      "type": "function"
    },
    {
      "inputs": [
        {
          "internalType": "uint256",
          "name": "_amount",
          "type": "uint256"
        }
      ],
      "name": "withdraw_voter_tokens",
      "outputs": [],
      "stateMutability": "nonpayable",
      "type": "function"
    },
    {
      "inputs": [
        {
          "internalType": "uint256",
          "name": "_amount",
          "type": "uint256"
        }
      ],
      "name": "withdraw_yk_tokens",
      "outputs": [],
      "stateMutability": "nonpayable",
      "type": "function"
    },
    {
      "inputs": [
        {
          "internalType": "address",
          "name": "yk_candidate",
          "type": "address"
        },
        {
          "internalType": "uint256",
          "name": "_amount",
          "type": "uint256"
        }
      ],
      "name": "send_yk_tokens_to_address_yk",
      "outputs": [],
      "stateMutability": "nonpayable",
      "type": "function"
    },
    {
      "inputs": [
        {
          "internalType": "address",
          "name": "yk_candidate",
          "type": "address"
        },
        {
          "internalType": "uint256",
          "name": "_amount",
          "type": "uint256"
        }
      ],
      "name": "send_yk_tokens_to_address_yk_directly",
      "outputs": [],
      "stateMutability": "nonpayable",
      "type": "function"
    },
    {
      "inputs": [
        {
          "internalType": "address",
          "name": "voter_candidate",
          "type": "address"
        },
        {
          "internalType": "uint256",
          "name": "_amount",
          "type": "uint256"
        }
      ],
      "name": "send_voter_tokens_to_address_yk",
      "outputs": [],
      "stateMutability": "nonpayable",
      "type": "function"
    },
    {
      "inputs": [
        {
          "internalType": "address",
          "name": "voter_candidate",
          "type": "address"
        },
        {
          "internalType": "uint256",
          "name": "_amount",
          "type": "uint256"
        }
      ],
      "name": "send_voter_tokens_to_address_yk_directly",
      "outputs": [],
      "stateMutability": "nonpayable",
      "type": "function"
    },
    {
      "inputs": [
        {
          "internalType": "string",
          "name": "name",
          "type": "string"
        },
        {
          "internalType": "string",
          "name": "description",
          "type": "string"
        },
        {
          "internalType": "string[]",
          "name": "_options",
          "type": "string[]"
        },
        {
          "internalType": "uint256[]",
          "name": "_options_num",
          "type": "uint256[]"
        },
        {
          "internalType": "uint256",
          "name": "_power",
          "type": "uint256"
        },
        {
          "internalType": "uint256",
          "name": "_type",
          "type": "uint256"
        }
      ],
      "name": "createProposal",
      "outputs": [],
      "stateMutability": "nonpayable",
      "type": "function"
    },
    {
      "inputs": [
        {
          "internalType": "uint256",
          "name": "_proposalId",
          "type": "uint256"
        },
        {
          "internalType": "string[]",
          "name": "_vote",
          "type": "string[]"
        },
        {
          "internalType": "uint256[]",
          "name": "_power",
          "type": "uint256[]"
        }
      ],
      "name": "vote_power",
      "outputs": [],
      "stateMutability": "nonpayable",
      "type": "function"
    },
    {
      "inputs": [
        {
          "internalType": "uint256",
          "name": "_proposalId",
          "type": "uint256"
        },
        {
          "internalType": "string[]",
          "name": "_vote",
          "type": "string[]"
        },
        {
          "internalType": "uint256[]",
          "name": "_power",
          "type": "uint256[]"
        },
        {
          "internalType": "uint256",
          "name": "weight",
          "type": "uint256"
        }
      ],
      "name": "vote_power_weighted",
      "outputs": [],
      "stateMutability": "nonpayable",
      "type": "function"
    },
    {
      "inputs": [],
      "name": "getProposalName",
      "outputs": [
        {
          "internalType": "string[]",
          "name": "",
          "type": "string[]"
        }
      ],
      "stateMutability": "view",
      "type": "function"
    },
    {
      "inputs": [],
      "name": "getDaoid",
      "outputs": [
        {
          "internalType": "uint256",
          "name": "",
          "type": "uint256"
        }
      ],
      "stateMutability": "view",
      "type": "function"
    },
    {
      "inputs": [
        {
          "internalType": "address",
          "name": "chk",
          "type": "address"
        }
      ],
      "name": "has_yk_priviliges",
      "outputs": [
        {
          "internalType": "bool",
          "name": "",
          "type": "bool"
        }
      ],
      "stateMutability": "view",
      "type": "function"
    },
    {
      "inputs": [],
      "name": "getProposalDescription",
      "outputs": [
        {
          "internalType": "string[]",
          "name": "",
          "type": "string[]"
        }
      ],
      "stateMutability": "view",
      "type": "function"
    },
    {
      "inputs": [
        {
          "internalType": "uint256",
          "name": "proposal_idd",
          "type": "uint256"
        }
      ],
      "name": "getProposalVoteNames",
      "outputs": [
        {
          "internalType": "string[]",
          "name": "",
          "type": "string[]"
        }
      ],
      "stateMutability": "view",
      "type": "function"
    },
    {
      "inputs": [
        {
          "internalType": "uint256",
          "name": "proposal_idd",
          "type": "uint256"
        }
      ],
      "name": "getProposalVoteNumbers",
      "outputs": [
        {
          "internalType": "uint256[]",
          "name": "",
          "type": "uint256[]"
        }
      ],
      "stateMutability": "view",
      "type": "function"
    },
    {
      "inputs": [
        {
          "internalType": "uint256",
          "name": "proposal_idd",
          "type": "uint256"
        }
      ],
      "name": "getProposalPower",
      "outputs": [
        {
          "internalType": "uint256",
          "name": "",
          "type": "uint256"
        }
      ],
      "stateMutability": "view",
      "type": "function"
    },
    {
      "inputs": [
        {
          "internalType": "uint256",
          "name": "proposal_idd",
          "type": "uint256"
        }
      ],
      "name": "getProposalType",
      "outputs": [
        {
          "internalType": "string",
          "name": "",
          "type": "string"
        }
      ],
      "stateMutability": "view",
      "type": "function"
    },
    {
      "inputs": [
        {
          "internalType": "address",
          "name": "from",
          "type": "address"
        },
        {
          "internalType": "uint256",
          "name": "amount",
          "type": "uint256"
        }
      ],
      "name": "dao_delegation_single_getback_amount_voter",
      "outputs": [],
      "stateMutability": "nonpayable",
      "type": "function"
    },
    {
      "inputs": [
        {
          "internalType": "address",
          "name": "from",
          "type": "address"
        }
      ],
      "name": "dao_delegation_single_getback_all_voter",
      "outputs": [],
      "stateMutability": "nonpayable",
      "type": "function"
    },
    {
      "inputs": [],
      "name": "dao_delagation_multiple_getback_all_voter",
      "outputs": [],
      "stateMutability": "nonpayable",
      "type": "function"
    },
    {
      "inputs": [
        {
          "internalType": "address",
          "name": "from",
          "type": "address"
        }
      ],
      "name": "dao_clawback_single_voter",
      "outputs": [],
      "stateMutability": "nonpayable",
      "type": "function"
    },
    {
      "inputs": [],
      "name": "dao_clawback_all_voter",
      "outputs": [],
      "stateMutability": "nonpayable",
      "type": "function"
    },
    {
      "inputs": [
        {
          "internalType": "address",
          "name": "from",
          "type": "address"
        },
        {
          "internalType": "uint256",
          "name": "amount",
          "type": "uint256"
        }
      ],
      "name": "dao_delegation_single_getback_amount_yk",
      "outputs": [],
      "stateMutability": "nonpayable",
      "type": "function"
    },
    {
      "inputs": [
        {
          "internalType": "address",
          "name": "from",
          "type": "address"
        }
      ],
      "name": "dao_delegation_single_getback_all_yk",
      "outputs": [],
      "stateMutability": "nonpayable",
      "type": "function"
    },
    {
      "inputs": [],
      "name": "dao_delagation_multiple_getback_all_yk",
      "outputs": [],
      "stateMutability": "nonpayable",
      "type": "function"
    },
    {
      "inputs": [
        {
          "internalType": "address",
          "name": "to",
          "type": "address"
        }
      ],
      "name": "dao_clawback_single_yk",
      "outputs": [],
      "stateMutability": "nonpayable",
      "type": "function"
    },
    {
      "inputs": [],
      "name": "dao_clawback_all_yk",
      "outputs": [],
      "stateMutability": "nonpayable",
      "type": "function"
    },
    {
      "inputs": [],
      "name": "delete_this_dao",
      "outputs": [],
      "stateMutability": "nonpayable",
      "type": "function"
    },
    {
      "inputs": [
        {
          "internalType": "address[]",
          "name": "voters",
          "type": "address[]"
        }
      ],
      "name": "add_voters_from_string_array",
      "outputs": [],
      "stateMutability": "nonpayable",
      "type": "function"
    },
    {
      "inputs": [
        {
          "internalType": "address[]",
          "name": "yks",
          "type": "address[]"
        }
      ],
      "name": "add_yks_from_string_array",
      "outputs": [],
      "stateMutability": "nonpayable",
      "type": "function"
    }
  ],
  "bytecode": "0x60806040523480156200001157600080fd5b50604051620062ca380380620062ca833981810160405281019062000037919062000577565b80600360006101000a81548173ffffffffffffffffffffffffffffffffffffffff021916908373ffffffffffffffffffffffffffffffffffffffff16021790555086600090805190602001906200009092919062000200565b50846002819055508560019080519060200190620000b092919062000200565b5082600b60006101000a81548173ffffffffffffffffffffffffffffffffffffffff021916908373ffffffffffffffffffffffffffffffffffffffff16021790555081600a60006101000a81548173ffffffffffffffffffffffffffffffffffffffff021916908373ffffffffffffffffffffffffffffffffffffffff160217905550670de0b6b3a7640000600960008673ffffffffffffffffffffffffffffffffffffffff1673ffffffffffffffffffffffffffffffffffffffff16815260200190815260200160002060008282546200018c919062000697565b92505081905550670de0b6b3a7640000600860008673ffffffffffffffffffffffffffffffffffffffff1673ffffffffffffffffffffffffffffffffffffffff1681526020019081526020016000206000828254620001ec919062000697565b925050819055505050505050505062000758565b8280546200020e9062000723565b90600052602060002090601f0160209004810192826200023257600085556200027e565b82601f106200024d57805160ff19168380011785556200027e565b828001600101855582156200027e579182015b828111156200027d57825182559160200191906001019062000260565b5b5090506200028d919062000291565b5090565b5b80821115620002ac57600081600090555060010162000292565b5090565b6000604051905090565b600080fd5b600080fd5b600080fd5b600080fd5b6000601f19601f8301169050919050565b7f4e487b7100000000000000000000000000000000000000000000000000000000600052604160045260246000fd5b6200031982620002ce565b810181811067ffffffffffffffff821117156200033b576200033a620002df565b5b80604052505050565b600062000350620002b0565b90506200035e82826200030e565b919050565b600067ffffffffffffffff821115620003815762000380620002df565b5b6200038c82620002ce565b9050602081019050919050565b60005b83811015620003b95780820151818401526020810190506200039c565b83811115620003c9576000848401525b50505050565b6000620003e6620003e08462000363565b62000344565b905082815260208101848484011115620004055762000404620002c9565b5b6200041284828562000399565b509392505050565b600082601f830112620004325762000431620002c4565b5b815162000444848260208601620003cf565b91505092915050565b6000819050919050565b62000462816200044d565b81146200046e57600080fd5b50565b600081519050620004828162000457565b92915050565b600073ffffffffffffffffffffffffffffffffffffffff82169050919050565b6000620004b58262000488565b9050919050565b620004c781620004a8565b8114620004d357600080fd5b50565b600081519050620004e781620004bc565b92915050565b6000620004fa82620004a8565b9050919050565b6200050c81620004ed565b81146200051857600080fd5b50565b6000815190506200052c8162000501565b92915050565b60006200053f82620004a8565b9050919050565b620005518162000532565b81146200055d57600080fd5b50565b600081519050620005718162000546565b92915050565b600080600080600080600060e0888a031215620005995762000598620002ba565b5b600088015167ffffffffffffffff811115620005ba57620005b9620002bf565b5b620005c88a828b016200041a565b975050602088015167ffffffffffffffff811115620005ec57620005eb620002bf565b5b620005fa8a828b016200041a565b96505060406200060d8a828b0162000471565b9550506060620006208a828b01620004d6565b9450506080620006338a828b016200051b565b93505060a0620006468a828b016200051b565b92505060c0620006598a828b0162000560565b91505092959891949750929550565b7f4e487b7100000000000000000000000000000000000000000000000000000000600052601160045260246000fd5b6000620006a4826200044d565b9150620006b1836200044d565b9250827fffffffffffffffffffffffffffffffffffffffffffffffffffffffffffffffff03821115620006e957620006e862000668565b5b828201905092915050565b7f4e487b7100000000000000000000000000000000000000000000000000000000600052602260045260246000fd5b600060028204905060018216806200073c57607f821691505b602082108103620007525762000751620006f4565b5b50919050565b615b6280620007686000396000f3fe608060405234801561001057600080fd5b506004361061027f5760003560e01c806386c9c01f1161015c578063c1bff3e0116100ce578063dd3bf85c11610087578063dd3bf85c14610735578063e5c28c9014610753578063e937688214610783578063f08c03bc146107a1578063f70e51a7146107bd578063f9b8a27a146107db5761027f565b8063c1bff3e014610663578063c32402611461067f578063cf5265d81461069b578063d25129c4146106a5578063d8c6bc21146106d5578063d978ffba146107055761027f565b8063a2ded95011610120578063a2ded950146105a5578063a38b39d4146105c1578063a44b21ae146105dd578063a47eb7cf146105f9578063a9a2a4a314610629578063bdf52c22146106595761027f565b806386c9c01f146104ef5780638a19ab351461050b5780638f7c59d0146105275780639d92c108146105575780639f2524ee146105755761027f565b8063451abcec116101f557806364944d4d116101b957806364944d4d1461045757806371df56051461046157806375fd8377146104915780637b93e652146104ad5780637e11a556146104b75780638661fa70146104d35761027f565b8063451abcec146103c35780634a9f1575146103e15780634b4967e8146103eb578063560d09b61461040957806362b25fc6146104395761027f565b806319f339611161024757806319f339611461032b57806323ee2c83146103355780632ab09d14146103515780632c14ed171461036f578063339a9e591461038b57806342b9d7e4146103a75761027f565b8063013cf08b1461028457806307e25f27146102bb57806310742870146102d7578063114d7756146102f357806314e72f431461030f575b600080fd5b61029e60048036038101906102999190614134565b6107f7565b6040516102b29897969594939291906142c1565b60405180910390f35b6102d560048036038101906102d09190614134565b610a04565b005b6102f160048036038101906102ec9190614380565b610a46565b005b61030d60048036038101906103089190614380565b610b30565b005b610329600480360381019061032491906143ad565b610bd4565b005b610333610c89565b005b61034f600480360381019061034a91906143ad565b610ee2565b005b610359610feb565b60405161036691906143ed565b60405180910390f35b61038960048036038101906103849190614134565b610ff1565b005b6103a560048036038101906103a09190614380565b611033565b005b6103c160048036038101906103bc9190614134565b6110d7565b005b6103cb611295565b6040516103d89190614514565b60405180910390f35b6103e96113d0565b005b6103f36114ae565b60405161040091906143ed565b60405180910390f35b610423600480360381019061041e9190614134565b6114b8565b60405161043091906143ed565b60405180910390f35b6104416114e1565b60405161044e9190614514565b60405180910390f35b61045f61161c565b005b61047b60048036038101906104769190614380565b6116fa565b60405161048891906143ed565b60405180910390f35b6104ab60048036038101906104a691906143ad565b611712565b005b6104b5611897565b005b6104d160048036038101906104cc91906143ad565b611938565b005b6104ed60048036038101906104e89190614814565b611a41565b005b61050960048036038101906105049190614962565b6120a9565b005b61052560048036038101906105209190614134565b612139565b005b610541600480360381019061053c9190614134565b6122e4565b60405161054e9190614514565b60405180910390f35b61055f61246b565b60405161056c91906149ab565b60405180910390f35b61058f600480360381019061058a91906143ad565b6124f9565b60405161059c91906149e8565b60405180910390f35b6105bf60048036038101906105ba9190614134565b612528565b005b6105db60048036038101906105d69190614380565b61256a565b005b6105f760048036038101906105f29190614a03565b612654565b005b610613600480360381019061060e9190614380565b612db9565b60405161062091906149e8565b60405180910390f35b610643600480360381019061063e91906143ad565b61318e565b60405161065091906143ed565b60405180910390f35b6106616131b3565b005b61067d60048036038101906106789190614aa2565b613254565b005b61069960048036038101906106949190614962565b613585565b005b6106a3613615565b005b6106bf60048036038101906106ba9190614134565b613826565b6040516106cc9190614c5d565b60405180910390f35b6106ef60048036038101906106ea9190614380565b613921565b6040516106fc91906143ed565b60405180910390f35b61071f600480360381019061071a9190614134565b613939565b60405161072c91906149ab565b60405180910390f35b61073d6139e7565b60405161074a9190614cde565b60405180910390f35b61076d600480360381019061076891906143ad565b613a0d565b60405161077a91906149e8565b60405180910390f35b61078b613a3c565b60405161079891906149ab565b60405180910390f35b6107bb60048036038101906107b691906143ad565b613aca565b005b6107c5613c4f565b6040516107d29190614cde565b60405180910390f35b6107f560048036038101906107f091906143ad565b613c75565b005b60046020528060005260406000206000915090508060000154908060010160009054906101000a900473ffffffffffffffffffffffffffffffffffffffff169080600201805461084690614d28565b80601f016020809104026020016040519081016040528092919081815260200182805461087290614d28565b80156108bf5780601f10610894576101008083540402835291602001916108bf565b820191906000526020600020905b8154815290600101906020018083116108a257829003601f168201915b5050505050908060030180546108d490614d28565b80601f016020809104026020016040519081016040528092919081815260200182805461090090614d28565b801561094d5780601f106109225761010080835404028352916020019161094d565b820191906000526020600020905b81548152906001019060200180831161093057829003601f168201915b5050505050908060040154908060070160009054906101000a900460ff169080600801549080600901805461098190614d28565b80601f01602080910402602001604051908101604052809291908181526020018280546109ad90614d28565b80156109fa5780601f106109cf576101008083540402835291602001916109fa565b820191906000526020600020905b8154815290600101906020018083116109dd57829003601f168201915b5050505050905088565b60016004600083815260200190815260200160002060070160006101000a81548160ff02191690836002811115610a3e57610a3d61424a565b5b021790555050565b610a4f33612db9565b610a8e576040517f08c379a0000000000000000000000000000000000000000000000000000000008152600401610a8590614da5565b60405180910390fd5b600b60009054906101000a900473ffffffffffffffffffffffffffffffffffffffff1673ffffffffffffffffffffffffffffffffffffffff16635dc73582826040518263ffffffff1660e01b8152600401610ae99190614dc5565b6020604051808303816000875af1158015610b08573d6000803e3d6000fd5b505050506040513d601f19601f82011682018060405250810190610b2c9190614e0c565b5050565b600b60009054906101000a900473ffffffffffffffffffffffffffffffffffffffff1673ffffffffffffffffffffffffffffffffffffffff1663b1d1ea9782336040518363ffffffff1660e01b8152600401610b8d929190614e39565b6020604051808303816000875af1158015610bac573d6000803e3d6000fd5b505050506040513d601f19601f82011682018060405250810190610bd09190614e0c565b5050565b610bdd33612db9565b610c1c576040517f08c379a0000000000000000000000000000000000000000000000000000000008152600401610c1390614eae565b60405180910390fd5b670de0b6b3a764000081610c309190614efd565b600960008473ffffffffffffffffffffffffffffffffffffffff1673ffffffffffffffffffffffffffffffffffffffff1681526020019081526020016000206000828254610c7e9190614f57565b925050819055505050565b610c9233612db9565b80610cea5750600360009054906101000a900473ffffffffffffffffffffffffffffffffffffffff1673ffffffffffffffffffffffffffffffffffffffff163373ffffffffffffffffffffffffffffffffffffffff16145b610d29576040517f08c379a0000000000000000000000000000000000000000000000000000000008152600401610d209061501f565b60405180910390fd5b600a60009054906101000a900473ffffffffffffffffffffffffffffffffffffffff1673ffffffffffffffffffffffffffffffffffffffff1663c3b639b66040518163ffffffff1660e01b81526004016020604051808303816000875af1158015610d98573d6000803e3d6000fd5b505050506040513d601f19601f82011682018060405250810190610dbc9190614e0c565b50600360009054906101000a900473ffffffffffffffffffffffffffffffffffffffff1673ffffffffffffffffffffffffffffffffffffffff166383bef7a930336040518363ffffffff1660e01b8152600401610e1a929190615060565b600060405180830381600087803b158015610e3457600080fd5b505af1158015610e48573d6000803e3d6000fd5b50505050600b60009054906101000a900473ffffffffffffffffffffffffffffffffffffffff1673ffffffffffffffffffffffffffffffffffffffff1663c3b639b66040518163ffffffff1660e01b81526004016020604051808303816000875af1158015610ebb573d6000803e3d6000fd5b505050506040513d601f19601f82011682018060405250810190610edf9190614e0c565b50565b610eeb33612db9565b610f2a576040517f08c379a0000000000000000000000000000000000000000000000000000000008152600401610f2190614eae565b60405180910390fd5b600a60009054906101000a900473ffffffffffffffffffffffffffffffffffffffff1673ffffffffffffffffffffffffffffffffffffffff16638da9e67783670de0b6b3a764000084610f7d9190614efd565b6040518363ffffffff1660e01b8152600401610f9a929190615089565b6020604051808303816000875af1158015610fb9573d6000803e3d6000fd5b505050506040513d601f19601f82011682018060405250810190610fdd9190614e0c565b50610fe781613d2a565b5050565b600c5481565b60026004600083815260200190815260200160002060070160006101000a81548160ff0219169083600281111561102b5761102a61424a565b5b021790555050565b600a60009054906101000a900473ffffffffffffffffffffffffffffffffffffffff1673ffffffffffffffffffffffffffffffffffffffff1663b1d1ea9782336040518363ffffffff1660e01b8152600401611090929190614e39565b6020604051808303816000875af11580156110af573d6000803e3d6000fd5b505050506040513d601f19601f820116820180604052508101906110d39190614e0c565b5050565b670de0b6b3a7640000816110eb9190614efd565b600860003373ffffffffffffffffffffffffffffffffffffffff1673ffffffffffffffffffffffffffffffffffffffff16815260200190815260200160002054101561116c576040517f08c379a0000000000000000000000000000000000000000000000000000000008152600401611163906150fe565b60405180910390fd5b670de0b6b3a7640000816111809190614efd565b600860003373ffffffffffffffffffffffffffffffffffffffff1673ffffffffffffffffffffffffffffffffffffffff16815260200190815260200160002060008282546111ce919061511e565b92505081905550600a60009054906101000a900473ffffffffffffffffffffffffffffffffffffffff1673ffffffffffffffffffffffffffffffffffffffff16638da9e67733670de0b6b3a7640000846112289190614efd565b6040518363ffffffff1660e01b8152600401611245929190615089565b6020604051808303816000875af1158015611264573d6000803e3d6000fd5b505050506040513d601f19601f820116820180604052508101906112889190614e0c565b5061129281613d2a565b50565b60606000600c5467ffffffffffffffff8111156112b5576112b461453b565b5b6040519080825280602002602001820160405280156112e857816020015b60608152602001906001900390816112d35790505b50905060005b600c548110156113c85760046000828152602001908152602001600020600301805461131990614d28565b80601f016020809104026020016040519081016040528092919081815260200182805461134590614d28565b80156113925780601f1061136757610100808354040283529160200191611392565b820191906000526020600020905b81548152906001019060200180831161137557829003601f168201915b50505050508282815181106113aa576113a9615152565b5b602002602001018190525080806113c090615181565b9150506112ee565b508091505090565b6113d933612db9565b611418576040517f08c379a000000000000000000000000000000000000000000000000000000000815260040161140f90614da5565b60405180910390fd5b600b60009054906101000a900473ffffffffffffffffffffffffffffffffffffffff1673ffffffffffffffffffffffffffffffffffffffff1663c3b639b66040518163ffffffff1660e01b81526004016020604051808303816000875af1158015611487573d6000803e3d6000fd5b505050506040513d601f19601f820116820180604052508101906114ab9190614e0c565b50565b6000600254905090565b600080600090506004600084815260200190815260200160002060080154905080915050919050565b60606000600c5467ffffffffffffffff8111156115015761150061453b565b5b60405190808252806020026020018201604052801561153457816020015b606081526020019060019003908161151f5790505b50905060005b600c548110156116145760046000828152602001908152602001600020600201805461156590614d28565b80601f016020809104026020016040519081016040528092919081815260200182805461159190614d28565b80156115de5780601f106115b3576101008083540402835291602001916115de565b820191906000526020600020905b8154815290600101906020018083116115c157829003601f168201915b50505050508282815181106115f6576115f5615152565b5b6020026020010181905250808061160c90615181565b91505061153a565b508091505090565b61162533612db9565b611664576040517f08c379a000000000000000000000000000000000000000000000000000000000815260040161165b90614da5565b60405180910390fd5b600a60009054906101000a900473ffffffffffffffffffffffffffffffffffffffff1673ffffffffffffffffffffffffffffffffffffffff1663c3b639b66040518163ffffffff1660e01b81526004016020604051808303816000875af11580156116d3573d6000803e3d6000fd5b505050506040513d601f19601f820116820180604052508101906116f79190614e0c565b50565b60096020528060005260406000206000915090505481565b600b60009054906101000a900473ffffffffffffffffffffffffffffffffffffffff1673ffffffffffffffffffffffffffffffffffffffff1663a95bbced836040518263ffffffff1660e01b815260040161176d9190614dc5565b602060405180830381865afa15801561178a573d6000803e3d6000fd5b505050506040513d601f19601f820116820180604052508101906117ae91906151de565b8111156117f0576040517f08c379a00000000000000000000000000000000000000000000000000000000081526004016117e790615257565b60405180910390fd5b600b60009054906101000a900473ffffffffffffffffffffffffffffffffffffffff1673ffffffffffffffffffffffffffffffffffffffff1663490169348333846040518463ffffffff1660e01b815260040161184f93929190615277565b6020604051808303816000875af115801561186e573d6000803e3d6000fd5b505050506040513d601f19601f820116820180604052508101906118929190614e0c565b505050565b600a60009054906101000a900473ffffffffffffffffffffffffffffffffffffffff1673ffffffffffffffffffffffffffffffffffffffff1663396473f7336040518263ffffffff1660e01b81526004016118f29190614dc5565b6020604051808303816000875af1158015611911573d6000803e3d6000fd5b505050506040513d601f19601f820116820180604052508101906119359190614e0c565b50565b61194133612db9565b611980576040517f08c379a000000000000000000000000000000000000000000000000000000000815260040161197790614eae565b60405180910390fd5b600b60009054906101000a900473ffffffffffffffffffffffffffffffffffffffff1673ffffffffffffffffffffffffffffffffffffffff16638da9e67783670de0b6b3a7640000846119d39190614efd565b6040518363ffffffff1660e01b81526004016119f0929190615089565b6020604051808303816000875af1158015611a0f573d6000803e3d6000fd5b505050506040513d601f19601f82011682018060405250810190611a339190614e0c565b50611a3d81613dbe565b5050565b600060046000858152602001908152602001600020905060001515600560003373ffffffffffffffffffffffffffffffffffffffff1673ffffffffffffffffffffffffffffffffffffffff168152602001908152602001600020600086815260200190815260200160002060009054906101000a900460ff16151514611afc576040517f08c379a0000000000000000000000000000000000000000000000000000000008152600401611af3906152fa565b60405180910390fd5b6000600a60009054906101000a900473ffffffffffffffffffffffffffffffffffffffff1673ffffffffffffffffffffffffffffffffffffffff166370a08231336040518263ffffffff1660e01b8152600401611b599190614dc5565b602060405180830381865afa158015611b76573d6000803e3d6000fd5b505050506040513d601f19601f82011682018060405250810190611b9a91906151de565b11611bda576040517f08c379a0000000000000000000000000000000000000000000000000000000008152600401611bd19061538c565b60405180910390fd5b62093a808160040154611bed9190614f57565b421115611c2f576040517f08c379a0000000000000000000000000000000000000000000000000000000008152600401611c26906153f8565b60405180910390fd5b600280811115611c4257611c4161424a565b5b6004600086815260200190815260200160002060070160009054906101000a900460ff166002811115611c7857611c7761424a565b5b14611cb8576040517f08c379a0000000000000000000000000000000000000000000000000000000008152600401611caf90615464565b60405180910390fd5b6000805b8351811015611d0057838181518110611cd857611cd7615152565b5b602002602001015182611ceb9190614f57565b91508080611cf890615181565b915050611cbc565b508160080154811115611d1257600080fd5b6000805b8360050180549050811015611e2e5760005b8651811015611e1a57611dfd856005018381548110611d4a57611d49615152565b5b906000526020600020018054611d5f90614d28565b80601f0160208091040260200160405190810160405280929190818152602001828054611d8b90614d28565b8015611dd85780601f10611dad57610100808354040283529160200191611dd8565b820191906000526020600020905b815481529060010190602001808311611dbb57829003601f168201915b5050505050888381518110611df057611def615152565b5b6020026020010151613e52565b15611e0757600192505b8080611e1290615181565b915050611d28565b508080611e2690615181565b915050611d16565b506001151581151514611e4057600080fd5b60005b8360050180549050811015611fa85760005b8651811015611f9457611f2a856005018381548110611e7757611e76615152565b5b906000526020600020018054611e8c90614d28565b80601f0160208091040260200160405190810160405280929190818152602001828054611eb890614d28565b8015611f055780601f10611eda57610100808354040283529160200191611f05565b820191906000526020600020905b815481529060010190602001808311611ee857829003601f168201915b5050505050888381518110611f1d57611f1c615152565b5b6020026020010151613e52565b15611f8157858181518110611f4257611f41615152565b5b6020026020010151856006018381548110611f6057611f5f615152565b5b906000526020600020016000828254611f799190614f57565b925050819055505b8080611f8c90615181565b915050611e55565b508080611fa090615181565b915050611e43565b506001600560003373ffffffffffffffffffffffffffffffffffffffff1673ffffffffffffffffffffffffffffffffffffffff168152602001908152602001600020600088815260200190815260200160002060006101000a81548160ff021916908315150217905550600a60009054906101000a900473ffffffffffffffffffffffffffffffffffffffff1673ffffffffffffffffffffffffffffffffffffffff1663fc13d51887336040518363ffffffff1660e01b815260040161206f929190615484565b600060405180830381600087803b15801561208957600080fd5b505af115801561209d573d6000803e3d6000fd5b50505050505050505050565b6120b233612db9565b6120f1576040517f08c379a00000000000000000000000000000000000000000000000000000000081526004016120e890614da5565b60405180910390fd5b60005b81518110156121355761212282828151811061211357612112615152565b5b60200260200101516001610ee2565b808061212d90615181565b9150506120f4565b5050565b80600960003373ffffffffffffffffffffffffffffffffffffffff1673ffffffffffffffffffffffffffffffffffffffff1681526020019081526020016000205410156121bb576040517f08c379a00000000000000000000000000000000000000000000000000000000081526004016121b2906150fe565b60405180910390fd5b670de0b6b3a7640000816121cf9190614efd565b600960003373ffffffffffffffffffffffffffffffffffffffff1673ffffffffffffffffffffffffffffffffffffffff168152602001908152602001600020600082825461221d919061511e565b92505081905550600b60009054906101000a900473ffffffffffffffffffffffffffffffffffffffff1673ffffffffffffffffffffffffffffffffffffffff16638da9e67733670de0b6b3a7640000846122779190614efd565b6040518363ffffffff1660e01b8152600401612294929190615089565b6020604051808303816000875af11580156122b3573d6000803e3d6000fd5b505050506040513d601f19601f820116820180604052508101906122d79190614e0c565b506122e181613dbe565b50565b60606000600460008481526020019081526020016000206005018054905067ffffffffffffffff81111561231b5761231a61453b565b5b60405190808252806020026020018201604052801561234e57816020015b60608152602001906001900390816123395790505b50905060005b60046000858152602001908152602001600020600501805490508110156124615760046000858152602001908152602001600020600501818154811061239d5761239c615152565b5b9060005260206000200180546123b290614d28565b80601f01602080910402602001604051908101604052809291908181526020018280546123de90614d28565b801561242b5780601f106124005761010080835404028352916020019161242b565b820191906000526020600020905b81548152906001019060200180831161240e57829003601f168201915b505050505082828151811061244357612442615152565b5b6020026020010181905250808061245990615181565b915050612354565b5080915050919050565b6001805461247890614d28565b80601f01602080910402602001604051908101604052809291908181526020018280546124a490614d28565b80156124f15780601f106124c6576101008083540402835291602001916124f1565b820191906000526020600020905b8154815290600101906020018083116124d457829003601f168201915b505050505081565b60056020528160005260406000206020528060005260406000206000915091509054906101000a900460ff1681565b60006004600083815260200190815260200160002060070160006101000a81548160ff021916908360028111156125625761256161424a565b5b021790555050565b61257333612db9565b6125b2576040517f08c379a00000000000000000000000000000000000000000000000000000000081526004016125a990614da5565b60405180910390fd5b600a60009054906101000a900473ffffffffffffffffffffffffffffffffffffffff1673ffffffffffffffffffffffffffffffffffffffff16635dc73582826040518263ffffffff1660e01b815260040161260d9190614dc5565b6020604051808303816000875af115801561262c573d6000803e3d6000fd5b505050506040513d601f19601f820116820180604052508101906126509190614e0c565b5050565b600060046000868152602001908152602001600020905060001515600560003373ffffffffffffffffffffffffffffffffffffffff1673ffffffffffffffffffffffffffffffffffffffff168152602001908152602001600020600087815260200190815260200160002060009054906101000a900460ff1615151461270f576040517f08c379a0000000000000000000000000000000000000000000000000000000008152600401612706906152fa565b60405180910390fd5b670de0b6b3a7640000600a60009054906101000a900473ffffffffffffffffffffffffffffffffffffffff1673ffffffffffffffffffffffffffffffffffffffff166370a08231336040518263ffffffff1660e01b81526004016127739190614dc5565b602060405180830381865afa158015612790573d6000803e3d6000fd5b505050506040513d601f19601f820116820180604052508101906127b491906151de565b6127be91906154dc565b821115612800576040517f08c379a00000000000000000000000000000000000000000000000000000000081526004016127f79061557f565b60405180910390fd5b6000600a60009054906101000a900473ffffffffffffffffffffffffffffffffffffffff1673ffffffffffffffffffffffffffffffffffffffff166370a08231336040518263ffffffff1660e01b815260040161285d9190614dc5565b602060405180830381865afa15801561287a573d6000803e3d6000fd5b505050506040513d601f19601f8201168201806040525081019061289e91906151de565b116128de576040517f08c379a00000000000000000000000000000000000000000000000000000000081526004016128d590615611565b60405180910390fd5b62093a8081600401546128f19190614f57565b421115612933576040517f08c379a000000000000000000000000000000000000000000000000000000000815260040161292a906153f8565b60405180910390fd5b6002808111156129465761294561424a565b5b6004600087815260200190815260200160002060070160009054906101000a900460ff16600281111561297c5761297b61424a565b5b146129bc576040517f08c379a00000000000000000000000000000000000000000000000000000000081526004016129b390615464565b60405180910390fd5b6000805b8451811015612a04578481815181106129dc576129db615152565b5b6020026020010151826129ef9190614f57565b915080806129fc90615181565b9150506129c0565b508160080154811115612a1657600080fd5b6000805b8360050180549050811015612b325760005b8751811015612b1e57612b01856005018381548110612a4e57612a4d615152565b5b906000526020600020018054612a6390614d28565b80601f0160208091040260200160405190810160405280929190818152602001828054612a8f90614d28565b8015612adc5780601f10612ab157610100808354040283529160200191612adc565b820191906000526020600020905b815481529060010190602001808311612abf57829003601f168201915b5050505050898381518110612af457612af3615152565b5b6020026020010151613e52565b15612b0b57600192505b8080612b1690615181565b915050612a2c565b508080612b2a90615181565b915050612a1a565b506001151581151514612b4457600080fd5b60005b8360050180549050811015612cb75760005b8751811015612ca357612c2e856005018381548110612b7b57612b7a615152565b5b906000526020600020018054612b9090614d28565b80601f0160208091040260200160405190810160405280929190818152602001828054612bbc90614d28565b8015612c095780601f10612bde57610100808354040283529160200191612c09565b820191906000526020600020905b815481529060010190602001808311612bec57829003601f168201915b5050505050898381518110612c2157612c20615152565b5b6020026020010151613e52565b15612c905785878281518110612c4757612c46615152565b5b6020026020010151612c599190614efd565b856006018381548110612c6f57612c6e615152565b5b906000526020600020016000828254612c889190614f57565b925050819055505b8080612c9b90615181565b915050612b59565b508080612caf90615181565b915050612b47565b506001600560003373ffffffffffffffffffffffffffffffffffffffff1673ffffffffffffffffffffffffffffffffffffffff168152602001908152602001600020600089815260200190815260200160002060006101000a81548160ff021916908315150217905550600a60009054906101000a900473ffffffffffffffffffffffffffffffffffffffff1673ffffffffffffffffffffffffffffffffffffffff1663fc13d51888336040518363ffffffff1660e01b8152600401612d7e929190615484565b600060405180830381600087803b158015612d9857600080fd5b505af1158015612dac573d6000803e3d6000fd5b5050505050505050505050565b60006001600b60009054906101000a900473ffffffffffffffffffffffffffffffffffffffff1673ffffffffffffffffffffffffffffffffffffffff166370a08231846040518263ffffffff1660e01b8152600401612e189190614dc5565b602060405180830381865afa158015612e35573d6000803e3d6000fd5b505050506040513d601f19601f82011682018060405250810190612e5991906151de565b10612e675760019050613189565b6000600360009054906101000a900473ffffffffffffffffffffffffffffffffffffffff1673ffffffffffffffffffffffffffffffffffffffff16637a57c0ff6002546040518263ffffffff1660e01b8152600401612ec691906143ed565b602060405180830381865afa158015612ee3573d6000803e3d6000fd5b505050506040513d601f19601f82011682018060405250810190612f07919061566f565b90506000600360009054906101000a900473ffffffffffffffffffffffffffffffffffffffff1673ffffffffffffffffffffffffffffffffffffffff16632c36b4b4836040518263ffffffff1660e01b8152600401612f66919061569c565b602060405180830381865afa158015612f83573d6000803e3d6000fd5b505050506040513d601f19601f82011682018060405250810190612fa7919061566f565b905060005b600073ffffffffffffffffffffffffffffffffffffffff168273ffffffffffffffffffffffffffffffffffffffff161461318257670de0b6b3a76400008273ffffffffffffffffffffffffffffffffffffffff1663f70e51a76040518163ffffffff1660e01b8152600401602060405180830381865afa158015613034573d6000803e3d6000fd5b505050506040513d601f19601f8201168201806040525081019061305891906156f5565b73ffffffffffffffffffffffffffffffffffffffff166370a08231876040518263ffffffff1660e01b81526004016130909190614dc5565b602060405180830381865afa1580156130ad573d6000803e3d6000fd5b505050506040513d601f19601f820116820180604052508101906130d191906151de565b106130df5760019050613182565b600360009054906101000a900473ffffffffffffffffffffffffffffffffffffffff1673ffffffffffffffffffffffffffffffffffffffff16632c36b4b4836040518263ffffffff1660e01b815260040161313a919061569c565b602060405180830381865afa158015613157573d6000803e3d6000fd5b505050506040513d601f19601f8201168201806040525081019061317b919061566f565b9150612fac565b8093505050505b919050565b6007602052816000526040600020602052806000526040600020600091509150505481565b600b60009054906101000a900473ffffffffffffffffffffffffffffffffffffffff1673ffffffffffffffffffffffffffffffffffffffff1663396473f7336040518263ffffffff1660e01b815260040161320e9190614dc5565b6020604051808303816000875af115801561322d573d6000803e3d6000fd5b505050506040513d601f19601f820116820180604052508101906132519190614e0c565b50565b61325d33612db9565b61329c576040517f08c379a000000000000000000000000000000000000000000000000000000000815260040161329390615794565b60405180910390fd5b6060600082036132e3576040518060400160405280600681526020017f6e6f726d616c00000000000000000000000000000000000000000000000000008152509050613325565b60018203613324576040518060400160405280600881526020017f776569676874656400000000000000000000000000000000000000000000000081525090505b5b604051806101400160405280600c5481526020013373ffffffffffffffffffffffffffffffffffffffff1681526020018881526020018781526020014281526020018681526020018581526020016002808111156133865761338561424a565b5b81526020018481526020018281525060046000600c5481526020019081526020016000206000820151816000015560208201518160010160006101000a81548173ffffffffffffffffffffffffffffffffffffffff021916908373ffffffffffffffffffffffffffffffffffffffff1602179055506040820151816002019080519060200190613417929190613f36565b506060820151816003019080519060200190613434929190613f36565b506080820151816004015560a082015181600501908051906020019061345b929190613fbc565b5060c082015181600601908051906020019061347892919061401c565b5060e08201518160070160006101000a81548160ff021916908360028111156134a4576134a361424a565b5b021790555061010082015181600801556101208201518160090190805190602001906134d1929190613f36565b50905050600c60008154809291906134e890615181565b9190505550600a60009054906101000a900473ffffffffffffffffffffffffffffffffffffffff1673ffffffffffffffffffffffffffffffffffffffff1663a19dea70600c546040518263ffffffff1660e01b815260040161354a91906143ed565b600060405180830381600087803b15801561356457600080fd5b505af1158015613578573d6000803e3d6000fd5b5050505050505050505050565b61358e33612db9565b6135cd576040517f08c379a00000000000000000000000000000000000000000000000000000000081526004016135c490614da5565b60405180910390fd5b60005b8151811015613611576135fe8282815181106135ef576135ee615152565b5b60200260200101516001611938565b808061360990615181565b9150506135d0565b5050565b60005b600c54811015613823576002808111156136355761363461424a565b5b6004600083815260200190815260200160002060070160009054906101000a900460ff16600281111561366b5761366a61424a565b5b1461370057600a60009054906101000a900473ffffffffffffffffffffffffffffffffffffffff1673ffffffffffffffffffffffffffffffffffffffff1663ff2b5fa182336040518363ffffffff1660e01b81526004016136cd929190615484565b600060405180830381600087803b1580156136e757600080fd5b505af11580156136fb573d6000803e3d6000fd5b505050505b7f4c42442933829b3de657efc6a23fbe895206dd2453c5a00c3e26d2e969f8272760046000838152602001908152602001600020600001546004600084815260200190815260200160002060010160009054906101000a900473ffffffffffffffffffffffffffffffffffffffff16600460008581526020019081526020016000206002016004600086815260200190815260200160002060030160046000878152602001908152602001600020600501600460008881526020019081526020016000206006016004600089815260200190815260200160002060080154600460008a8152602001908152602001600020600901604051613808989796959493929190615a54565b60405180910390a1808061381b90615181565b915050613618565b50565b60606000600460008481526020019081526020016000206006018054905067ffffffffffffffff81111561385d5761385c61453b565b5b60405190808252806020026020018201604052801561388b5781602001602082028036833780820191505090505b50905060005b6004600085815260200190815260200160002060060180549050811015613917576004600085815260200190815260200160002060060181815481106138da576138d9615152565b5b90600052602060002001548282815181106138f8576138f7615152565b5b602002602001018181525050808061390f90615181565b915050613891565b5080915050919050565b60086020528060005260406000206000915090505481565b6060600060046000848152602001908152602001600020600901805461395e90614d28565b80601f016020809104026020016040519081016040528092919081815260200182805461398a90614d28565b80156139d75780601f106139ac576101008083540402835291602001916139d7565b820191906000526020600020905b8154815290600101906020018083116139ba57829003601f168201915b5050505050905080915050919050565b600a60009054906101000a900473ffffffffffffffffffffffffffffffffffffffff1681565b60066020528160005260406000206020528060005260406000206000915091509054906101000a900460ff1681565b60008054613a4990614d28565b80601f0160208091040260200160405190810160405280929190818152602001828054613a7590614d28565b8015613ac25780601f10613a9757610100808354040283529160200191613ac2565b820191906000526020600020905b815481529060010190602001808311613aa557829003601f168201915b505050505081565b600a60009054906101000a900473ffffffffffffffffffffffffffffffffffffffff1673ffffffffffffffffffffffffffffffffffffffff1663a95bbced836040518263ffffffff1660e01b8152600401613b259190614dc5565b602060405180830381865afa158015613b42573d6000803e3d6000fd5b505050506040513d601f19601f82011682018060405250810190613b6691906151de565b811115613ba8576040517f08c379a0000000000000000000000000000000000000000000000000000000008152600401613b9f90615257565b60405180910390fd5b600a60009054906101000a900473ffffffffffffffffffffffffffffffffffffffff1673ffffffffffffffffffffffffffffffffffffffff1663490169348333846040518463ffffffff1660e01b8152600401613c0793929190615277565b6020604051808303816000875af1158015613c26573d6000803e3d6000fd5b505050506040513d601f19601f82011682018060405250810190613c4a9190614e0c565b505050565b600b60009054906101000a900473ffffffffffffffffffffffffffffffffffffffff1681565b613c7e33612db9565b613cbd576040517f08c379a0000000000000000000000000000000000000000000000000000000008152600401613cb490614eae565b60405180910390fd5b670de0b6b3a764000081613cd19190614efd565b600860008473ffffffffffffffffffffffffffffffffffffffff1673ffffffffffffffffffffffffffffffffffffffff1681526020019081526020016000206000828254613d1f9190614f57565b925050819055505050565b600360009054906101000a900473ffffffffffffffffffffffffffffffffffffffff1673ffffffffffffffffffffffffffffffffffffffff166350ee8e8f3083336040518463ffffffff1660e01b8152600401613d8993929190615af5565b600060405180830381600087803b158015613da357600080fd5b505af1158015613db7573d6000803e3d6000fd5b5050505050565b600360009054906101000a900473ffffffffffffffffffffffffffffffffffffffff1673ffffffffffffffffffffffffffffffffffffffff1663205cdcff3083336040518463ffffffff1660e01b8152600401613e1d93929190615af5565b600060405180830381600087803b158015613e3757600080fd5b505af1158015613e4b573d6000803e3d6000fd5b5050505050565b600080839050600083905060008251905081518114613e775760009350505050613f30565b60005b81811015613f2757828181518110613e9557613e94615152565b5b602001015160f81c60f81b7effffffffffffffffffffffffffffffffffffffffffffffffffffffffffffff1916848281518110613ed557613ed4615152565b5b602001015160f81c60f81b7effffffffffffffffffffffffffffffffffffffffffffffffffffffffffffff191614613f14576000945050505050613f30565b8080613f1f90615181565b915050613e7a565b50600193505050505b92915050565b828054613f4290614d28565b90600052602060002090601f016020900481019282613f645760008555613fab565b82601f10613f7d57805160ff1916838001178555613fab565b82800160010185558215613fab579182015b82811115613faa578251825591602001919060010190613f8f565b5b509050613fb89190614069565b5090565b82805482825590600052602060002090810192821561400b579160200282015b8281111561400a578251829080519060200190613ffa929190613f36565b5091602001919060010190613fdc565b5b5090506140189190614086565b5090565b828054828255906000526020600020908101928215614058579160200282015b8281111561405757825182559160200191906001019061403c565b5b5090506140659190614069565b5090565b5b8082111561408257600081600090555060010161406a565b5090565b5b808211156140a6576000818161409d91906140aa565b50600101614087565b5090565b5080546140b690614d28565b6000825580601f106140c857506140e7565b601f0160209004906000526020600020908101906140e69190614069565b5b50565b6000604051905090565b600080fd5b600080fd5b6000819050919050565b614111816140fe565b811461411c57600080fd5b50565b60008135905061412e81614108565b92915050565b60006020828403121561414a576141496140f4565b5b60006141588482850161411f565b91505092915050565b61416a816140fe565b82525050565b600073ffffffffffffffffffffffffffffffffffffffff82169050919050565b600061419b82614170565b9050919050565b6141ab81614190565b82525050565b600081519050919050565b600082825260208201905092915050565b60005b838110156141eb5780820151818401526020810190506141d0565b838111156141fa576000848401525b50505050565b6000601f19601f8301169050919050565b600061421c826141b1565b61422681856141bc565b93506142368185602086016141cd565b61423f81614200565b840191505092915050565b7f4e487b7100000000000000000000000000000000000000000000000000000000600052602160045260246000fd5b6003811061428a5761428961424a565b5b50565b600081905061429b82614279565b919050565b60006142ab8261428d565b9050919050565b6142bb816142a0565b82525050565b6000610100820190506142d7600083018b614161565b6142e4602083018a6141a2565b81810360408301526142f68189614211565b9050818103606083015261430a8188614211565b90506143196080830187614161565b61432660a08301866142b2565b61433360c0830185614161565b81810360e08301526143458184614211565b90509998505050505050505050565b61435d81614190565b811461436857600080fd5b50565b60008135905061437a81614354565b92915050565b600060208284031215614396576143956140f4565b5b60006143a48482850161436b565b91505092915050565b600080604083850312156143c4576143c36140f4565b5b60006143d28582860161436b565b92505060206143e38582860161411f565b9150509250929050565b60006020820190506144026000830184614161565b92915050565b600081519050919050565b600082825260208201905092915050565b6000819050602082019050919050565b600082825260208201905092915050565b6000614450826141b1565b61445a8185614434565b935061446a8185602086016141cd565b61447381614200565b840191505092915050565b600061448a8383614445565b905092915050565b6000602082019050919050565b60006144aa82614408565b6144b48185614413565b9350836020820285016144c685614424565b8060005b8581101561450257848403895281516144e3858261447e565b94506144ee83614492565b925060208a019950506001810190506144ca565b50829750879550505050505092915050565b6000602082019050818103600083015261452e818461449f565b905092915050565b600080fd5b7f4e487b7100000000000000000000000000000000000000000000000000000000600052604160045260246000fd5b61457382614200565b810181811067ffffffffffffffff821117156145925761459161453b565b5b80604052505050565b60006145a56140ea565b90506145b1828261456a565b919050565b600067ffffffffffffffff8211156145d1576145d061453b565b5b602082029050602081019050919050565b600080fd5b600080fd5b600067ffffffffffffffff8211156146075761460661453b565b5b61461082614200565b9050602081019050919050565b82818337600083830152505050565b600061463f61463a846145ec565b61459b565b90508281526020810184848401111561465b5761465a6145e7565b5b61466684828561461d565b509392505050565b600082601f83011261468357614682614536565b5b813561469384826020860161462c565b91505092915050565b60006146af6146aa846145b6565b61459b565b905080838252602082019050602084028301858111156146d2576146d16145e2565b5b835b8181101561471957803567ffffffffffffffff8111156146f7576146f6614536565b5b808601614704898261466e565b855260208501945050506020810190506146d4565b5050509392505050565b600082601f83011261473857614737614536565b5b813561474884826020860161469c565b91505092915050565b600067ffffffffffffffff82111561476c5761476b61453b565b5b602082029050602081019050919050565b600061479061478b84614751565b61459b565b905080838252602082019050602084028301858111156147b3576147b26145e2565b5b835b818110156147dc57806147c8888261411f565b8452602084019350506020810190506147b5565b5050509392505050565b600082601f8301126147fb576147fa614536565b5b813561480b84826020860161477d565b91505092915050565b60008060006060848603121561482d5761482c6140f4565b5b600061483b8682870161411f565b935050602084013567ffffffffffffffff81111561485c5761485b6140f9565b5b61486886828701614723565b925050604084013567ffffffffffffffff811115614889576148886140f9565b5b614895868287016147e6565b9150509250925092565b600067ffffffffffffffff8211156148ba576148b961453b565b5b602082029050602081019050919050565b60006148de6148d98461489f565b61459b565b90508083825260208201905060208402830185811115614901576149006145e2565b5b835b8181101561492a5780614916888261436b565b845260208401935050602081019050614903565b5050509392505050565b600082601f83011261494957614948614536565b5b81356149598482602086016148cb565b91505092915050565b600060208284031215614978576149776140f4565b5b600082013567ffffffffffffffff811115614996576149956140f9565b5b6149a284828501614934565b91505092915050565b600060208201905081810360008301526149c58184614211565b905092915050565b60008115159050919050565b6149e2816149cd565b82525050565b60006020820190506149fd60008301846149d9565b92915050565b60008060008060808587031215614a1d57614a1c6140f4565b5b6000614a2b8782880161411f565b945050602085013567ffffffffffffffff811115614a4c57614a4b6140f9565b5b614a5887828801614723565b935050604085013567ffffffffffffffff811115614a7957614a786140f9565b5b614a85878288016147e6565b9250506060614a968782880161411f565b91505092959194509250565b60008060008060008060c08789031215614abf57614abe6140f4565b5b600087013567ffffffffffffffff811115614add57614adc6140f9565b5b614ae989828a0161466e565b965050602087013567ffffffffffffffff811115614b0a57614b096140f9565b5b614b1689828a0161466e565b955050604087013567ffffffffffffffff811115614b3757614b366140f9565b5b614b4389828a01614723565b945050606087013567ffffffffffffffff811115614b6457614b636140f9565b5b614b7089828a016147e6565b9350506080614b8189828a0161411f565b92505060a0614b9289828a0161411f565b9150509295509295509295565b600081519050919050565b600082825260208201905092915050565b6000819050602082019050919050565b614bd4816140fe565b82525050565b6000614be68383614bcb565b60208301905092915050565b6000602082019050919050565b6000614c0a82614b9f565b614c148185614baa565b9350614c1f83614bbb565b8060005b83811015614c50578151614c378882614bda565b9750614c4283614bf2565b925050600181019050614c23565b5085935050505092915050565b60006020820190508181036000830152614c778184614bff565b905092915050565b6000819050919050565b6000614ca4614c9f614c9a84614170565b614c7f565b614170565b9050919050565b6000614cb682614c89565b9050919050565b6000614cc882614cab565b9050919050565b614cd881614cbd565b82525050565b6000602082019050614cf36000830184614ccf565b92915050565b7f4e487b7100000000000000000000000000000000000000000000000000000000600052602260045260246000fd5b60006002820490506001821680614d4057607f821691505b602082108103614d5357614d52614cf9565b5b50919050565b7f646f6573206e6f74206861766520796b2070726976696c696765730000000000600082015250565b6000614d8f601b836141bc565b9150614d9a82614d59565b602082019050919050565b60006020820190508181036000830152614dbe81614d82565b9050919050565b6000602082019050614dda60008301846141a2565b92915050565b614de9816149cd565b8114614df457600080fd5b50565b600081519050614e0681614de0565b92915050565b600060208284031215614e2257614e216140f4565b5b6000614e3084828501614df7565b91505092915050565b6000604082019050614e4e60008301856141a2565b614e5b60208301846141a2565b9392505050565b7f4e6f74206120594b000000000000000000000000000000000000000000000000600082015250565b6000614e986008836141bc565b9150614ea382614e62565b602082019050919050565b60006020820190508181036000830152614ec781614e8b565b9050919050565b7f4e487b7100000000000000000000000000000000000000000000000000000000600052601160045260246000fd5b6000614f08826140fe565b9150614f13836140fe565b9250817fffffffffffffffffffffffffffffffffffffffffffffffffffffffffffffffff0483118215151615614f4c57614f4b614ece565b5b828202905092915050565b6000614f62826140fe565b9150614f6d836140fe565b9250827fffffffffffffffffffffffffffffffffffffffffffffffffffffffffffffffff03821115614fa257614fa1614ece565b5b828201905092915050565b7f646f6573206e6f74206861766520796b2070726976696c69676573206f72206960008201527f73206e6f7420666163746f727900000000000000000000000000000000000000602082015250565b6000615009602d836141bc565b915061501482614fad565b604082019050919050565b6000602082019050818103600083015261503881614ffc565b9050919050565b600061504a82614cab565b9050919050565b61505a8161503f565b82525050565b60006040820190506150756000830185615051565b61508260208301846141a2565b9392505050565b600060408201905061509e60008301856141a2565b6150ab6020830184614161565b9392505050565b7f4e6f7420656e6f75676820736861726573000000000000000000000000000000600082015250565b60006150e86011836141bc565b91506150f3826150b2565b602082019050919050565b60006020820190508181036000830152615117816150db565b9050919050565b6000615129826140fe565b9150615134836140fe565b92508282101561514757615146614ece565b5b828203905092915050565b7f4e487b7100000000000000000000000000000000000000000000000000000000600052603260045260246000fd5b600061518c826140fe565b91507fffffffffffffffffffffffffffffffffffffffffffffffffffffffffffffffff82036151be576151bd614ece565b5b600182019050919050565b6000815190506151d881614108565b92915050565b6000602082840312156151f4576151f36140f4565b5b6000615202848285016151c9565b91505092915050565b7f6e6f7420656e6f756768206465627420736f6d65686f77000000000000000000600082015250565b60006152416017836141bc565b915061524c8261520b565b602082019050919050565b6000602082019050818103600083015261527081615234565b9050919050565b600060608201905061528c60008301866141a2565b61529960208301856141a2565b6152a66040830184614161565b949350505050565b7f616c726561647920766f74656400000000000000000000000000000000000000600082015250565b60006152e4600d836141bc565b91506152ef826152ae565b602082019050919050565b60006020820190508181036000830152615313816152d7565b9050919050565b7f4e6f7420656e6f7567682073686172657320746f20766f7465206f6e2061207060008201527f726f706f73616c00000000000000000000000000000000000000000000000000602082015250565b60006153766027836141bc565b91506153818261531a565b604082019050919050565b600060208201905081810360008301526153a581615369565b9050919050565b7f566f74696e6720706572696f64206973206f7665720000000000000000000000600082015250565b60006153e26015836141bc565b91506153ed826153ac565b602082019050919050565b60006020820190508181036000830152615411816153d5565b9050919050565b7f566f74696e6720706572696f642069732066696e697368656400000000000000600082015250565b600061544e6019836141bc565b915061545982615418565b602082019050919050565b6000602082019050818103600083015261547d81615441565b9050919050565b60006040820190506154996000830185614161565b6154a660208301846141a2565b9392505050565b7f4e487b7100000000000000000000000000000000000000000000000000000000600052601260045260246000fd5b60006154e7826140fe565b91506154f2836140fe565b925082615502576155016154ad565b5b828204905092915050565b7f446f6e74206861766520656e6f75676820746f6b656e7320286368616e67652060008201527f7765696768742900000000000000000000000000000000000000000000000000602082015250565b60006155696027836141bc565b91506155748261550d565b604082019050919050565b600060208201905081810360008301526155988161555c565b9050919050565b7f446f6e74206861766520656e6f75676820746f6b656e7320286c69746572616c60008201527f6c79203029000000000000000000000000000000000000000000000000000000602082015250565b60006155fb6025836141bc565b91506156068261559f565b604082019050919050565b6000602082019050818103600083015261562a816155ee565b9050919050565b600061563c82614190565b9050919050565b61564c81615631565b811461565757600080fd5b50565b60008151905061566981615643565b92915050565b600060208284031215615685576156846140f4565b5b60006156938482850161565a565b91505092915050565b60006020820190506156b16000830184615051565b92915050565b60006156c282614190565b9050919050565b6156d2816156b7565b81146156dd57600080fd5b50565b6000815190506156ef816156c9565b92915050565b60006020828403121561570b5761570a6140f4565b5b6000615719848285016156e0565b91505092915050565b7f4e6f7420656e6f7567682073686172657320746f20637265617465206120707260008201527f6f706f73616c0000000000000000000000000000000000000000000000000000602082015250565b600061577e6026836141bc565b915061578982615722565b604082019050919050565b600060208201905081810360008301526157ad81615771565b9050919050565b60008190508160005260206000209050919050565b600081546157d681614d28565b6157e081866141bc565b945060018216600081146157fb576001811461580d57615840565b60ff1983168652602086019350615840565b615816856157b4565b60005b8381101561583857815481890152600182019150602081019050615819565b808801955050505b50505092915050565b600081549050919050565b60008190508160005260206000209050919050565b6000815461587681614d28565b6158808186614434565b9450600182166000811461589b57600181146158ad576158e0565b60ff19831686526020860193506158e0565b6158b6856157b4565b60005b838110156158d8578154818901526001820191506020810190506158b9565b808801955050505b50505092915050565b60006158f58383615869565b905092915050565b6000600182019050919050565b600061591582615849565b61591f8185614413565b93508360208202850161593185615854565b8060005b8581101561596c5784840389528161594d85826158e9565b9450615958836158fd565b925060208a01995050600181019050615935565b50829750879550505050505092915050565b600081549050919050565b60008190508160005260206000209050919050565b60008160001c9050919050565b6000819050919050565b60006159c86159c38361599e565b6159ab565b9050919050565b60006159db82546159b5565b9050919050565b6000600182019050919050565b60006159fa8261597e565b615a048185614baa565b9350615a0f83615989565b8060005b83811015615a4757615a24826159cf565b615a2e8882614bda565b9750615a39836159e2565b925050600181019050615a13565b5085935050505092915050565b600061010082019050615a6a600083018b614161565b615a77602083018a6141a2565b8181036040830152615a8981896157c9565b90508181036060830152615a9d81886157c9565b90508181036080830152615ab1818761590a565b905081810360a0830152615ac581866159ef565b9050615ad460c0830185614161565b81810360e0830152615ae681846157c9565b90509998505050505050505050565b6000606082019050615b0a6000830186615051565b615b176020830185614161565b615b2460408301846141a2565b94935050505056fea264697066735822122050796706d5504e5847d962b3a077c5577d08e865e56695d3727c49fcfda33bc964736f6c634300080d0033",
  "immutableReferences": {},
  "source": "// SPDX-License-Identifier: GPL-3.0\r\n\r\npragma solidity >=0.7.0 <0.9.0;\r\npragma experimental ABIEncoderV2;\r\n\r\nimport \"./itoken.sol\";\r\nimport \"./newFactory1.sol\";\r\n\r\n\r\n\r\ncontract MyDAO {\r\n    string public dao_name;\r\n    string public dao_description;\r\n    uint256 dao_id;\r\n    enum VotingOptions { Yes, No }\r\n    enum Status     { Accepted, Rejected, Pending }\r\n    \r\n\r\n    \r\n\r\n    struct Proposal {\r\n        uint256 id;\r\n        address author;\r\n        string name;\r\n        string proposal_description;\r\n        uint256 createdAt;\r\n        string[] options;\r\n        uint256[] options_num;\r\n        Status status;\r\n        uint256 power;\r\n        string proposal_info_type;\r\n\r\n    }   \r\n    \r\n\r\n    function stringsEquals(string memory s1, string memory s2) private pure returns (bool) {\r\n        bytes memory b1 = bytes(s1);\r\n        bytes memory b2 = bytes(s2);\r\n        uint256 l1 = b1.length;\r\n        if (l1 != b2.length) return false;\r\n        for (uint256 i=0; i<l1; i++) {\r\n            if (b1[i] != b2[i]) return false;\r\n        }\r\n        return true;\r\n    }\r\n\r\n    DAOFactory factory;\r\n\r\n    // store all proposals\r\n    mapping(uint => Proposal) public proposals;    \r\n    //to print out proposals\r\n    event proposal_info(uint256 id, address author, string name,string proposal_description, string[] options, uint256[] num_options, uint256 power, string proposal_info_type);\r\n    // who already votes for who and to avoid vote twice\r\n    mapping(address => mapping(uint => bool)) public votes;\r\n    mapping(address => mapping(uint => bool)) public tokens_not_refunded;\r\n    mapping(address => mapping(uint => uint)) public token_amount_to_be_refunded;\r\n    // one share for governance tokens\r\n    mapping(address => uint256) public voter_shares_to_be_given;\r\n    mapping(address => uint256) public yk_shares_to_be_given;\r\n\r\n    // the IERC20 allow us to use avax like our governance token.\r\n    ISUToken public voter_token;\r\n    ISUToken public yk_token;\r\n    // the user need minimum 25 AVAX to create a proposal.\r\n    uint constant CREATE_PROPOSAL_MIN_SHARE = 1 * 10 ** 18;\r\n    uint constant VOTING_PERIOD = 7 days;\r\n    uint public nextProposalId;\r\n    \r\n    mapping(address => bool) transferLock;\r\n\r\n    constructor(string memory _dao_name, string memory _dao_description,uint _dao_id, address first_yk, ISUToken yk_token_in, ISUToken voter_token_in, DAOFactory _factory) {\r\n        factory = _factory;\r\n        dao_name = _dao_name;\r\n        dao_id=_dao_id;\r\n        dao_description = _dao_description;\r\n        yk_token = yk_token_in; // AVAX address\r\n        voter_token = voter_token_in;\r\n\r\n        //maybe mintabele amount can be taken as an input and 1000 yerine konabilir\r\n        yk_shares_to_be_given[first_yk] += (1 * 10 ** 18);\r\n        \r\n        voter_shares_to_be_given[first_yk] += (1 * 10 ** 18);\r\n\r\n    }\r\n\r\n    function mint_from_DAO_yk_token(uint _amount) internal {\r\n        factory.mint_dao_yk(this, _amount, msg.sender);\r\n    }\r\n\r\n    function mint_from_DAO_voter_token(uint _amount) internal {\r\n        factory.mint_dao_voter(this, _amount, msg.sender);\r\n    }\r\n\r\n\r\n    function iterate_proposals() public //ama sanirim boyle degilde teker teker yapmamiz gerekcek cok pahali olabilir obur turlu\r\n    {\r\n        for(uint i=0;i<nextProposalId;i++) //degistirmedim cunku artik sirf bunu kullaniriz yani\r\n        {\r\n            if(proposals[i].status != Status.Pending){\r\n                voter_token.update_active_voter_lock_off(i, msg.sender);\r\n            }\r\n\r\n            emit proposal_info(proposals[i].id, proposals[i].author, proposals[i].name,proposals[i].proposal_description, proposals[i].options, proposals[i].options_num, proposals[i].power, proposals[i].proposal_info_type);\r\n\r\n        }\r\n        \r\n    }        \r\n\r\n    function accept_proposal(uint _proposalId) external {\r\n        proposals[_proposalId].status = Status.Accepted;\r\n    }\r\n\r\n    function reject_proposal(uint _proposalId) external {\r\n        proposals[_proposalId].status = Status.Rejected;\r\n    \r\n    }    \r\n\r\n    function pending_proposal(uint _proposalId) external {\r\n        proposals[_proposalId].status = Status.Pending;\r\n    }       \r\n\r\n        \r\n\r\n\r\n    function withdraw_voter_tokens(uint _amount) external {\r\n        require(voter_shares_to_be_given[msg.sender] >= _amount*10**18, 'Not enough shares');\r\n        voter_shares_to_be_given[msg.sender] -= (_amount * 10 ** 18);\r\n        voter_token.transferDAO(msg.sender, (_amount * 10 ** 18));\r\n        mint_from_DAO_voter_token(_amount);\r\n    }    \r\n\r\n\r\n\r\n    \r\n\r\n\r\n    function withdraw_yk_tokens(uint _amount) external {\r\n        require(yk_shares_to_be_given[msg.sender] >= _amount, 'Not enough shares');\r\n        yk_shares_to_be_given[msg.sender] -= (_amount * 10 ** 18);\r\n        yk_token.transferDAO(msg.sender, (_amount * 10 ** 18));\r\n        mint_from_DAO_yk_token(_amount);\r\n\r\n    }    \r\n    \r\n    function send_yk_tokens_to_address_yk(address yk_candidate, uint _amount) external {\r\n        require(has_yk_priviliges(msg.sender), 'Not a YK');\r\n        //yk_shares[msg.sender] -= (_amount * 10 ** 18);\r\n        //totalShares -= (_amount * 10 ** 18);\r\n        //total_yk_shares -= (_amount * 10 ** 18);\r\n        //neden olmuyor bu\r\n        //yk_token.transfer(yk_candidate, _amount * 18 **18);\r\n        yk_shares_to_be_given[yk_candidate] += _amount * 10 ** 18;\r\n        //yk_token.transfer(yk_candidate, (_amount * 10 ** 18));\r\n    } \r\n\r\n    function send_yk_tokens_to_address_yk_directly(address yk_candidate, uint _amount) public {\r\n        require(has_yk_priviliges(msg.sender) , 'Not a YK');\r\n        //yk_shares[msg.sender] -= (_amount * 10 ** 18);\r\n        //totalShares -= (_amount * 10 ** 18);\r\n        //total_yk_shares -= (_amount * 10 ** 18);\r\n        //neden olmuyor bu\r\n        //yk_token.transfer(yk_candidate, _amount * 18 **18);\r\n        //yk_shares_to_be_given[yk_candidate] += _amount * 10 ** 18;\r\n        //yk_token.transfer(yk_candidate, (_amount * 10 ** 18));\r\n        yk_token.transferDAO(yk_candidate, (_amount * 10 ** 18));\r\n        mint_from_DAO_yk_token(_amount);\r\n    } \r\n \r\n \r\n    function send_voter_tokens_to_address_yk(address voter_candidate, uint _amount) external {\r\n        require(has_yk_priviliges(msg.sender), 'Not a YK');\r\n        //yk_shares[msg.sender] -= (_amount * 10 ** 18);\r\n        //totalShares -= (_amount * 10 ** 18);\r\n        //total_yk_shares -= (_amount * 10 ** 18);\r\n        //ones above are in comments becaue this whole process is done in the contract\r\n        voter_shares_to_be_given[voter_candidate] += _amount * 10 ** 18;\r\n        //voter_token.transfer(voter_candidate, (_amount * 10 ** 18));\r\n    }                   \r\n\r\n    function send_voter_tokens_to_address_yk_directly(address voter_candidate, uint _amount) public {\r\n        require(has_yk_priviliges(msg.sender) , 'Not a YK');\r\n        //yk_shares[msg.sender] -= (_amount * 10 ** 18);\r\n        //totalShares -= (_amount * 10 ** 18);\r\n        //total_yk_shares -= (_amount * 10 ** 18);\r\n        //ones above are in comments becaue this whole process is done in the contract\r\n        voter_token.transferDAO(voter_candidate, (_amount * 10 ** 18));\r\n        mint_from_DAO_voter_token(_amount);\r\n\r\n        //voter_token.transfer(voter_candidate, (_amount * 10 ** 18));\r\n    }        \r\n    //in yk functions token verification tokens have to be in the contract however in voter sending function \r\n     \r\n\r\n    function createProposal(string memory name,string memory description, string[] memory _options, uint256[] memory _options_num, uint256 _power, uint256 _type) external {\r\n        // validate the user has enough shares to create a proposal\r\n        //require(yk_token.balanceOf(msg.sender) >= CREATE_PROPOSAL_MIN_SHARE, 'Not enough shares to create a proposal');\r\n        require(has_yk_priviliges(msg.sender), 'Not enough shares to create a proposal');\r\n        string memory proposal_type;\r\n        //sorun olursa buradan\r\n        if(_type == 0){\r\n            proposal_type = \"normal\";\r\n        }\r\n        else if(_type == 1){\r\n            proposal_type = \"weighted\";\r\n        }\r\n\r\n        proposals[nextProposalId] = Proposal(\r\n            nextProposalId,\r\n            msg.sender,\r\n            name,\r\n            description,\r\n            block.timestamp,\r\n            _options,\r\n            _options_num,\r\n            Status.Pending,\r\n            _power,\r\n            proposal_type\r\n        );\r\n        nextProposalId++; //might need\r\n        voter_token.update_proposal_num(nextProposalId);\r\n    }      \r\n\r\n\r\n    function vote_power(uint _proposalId, string[] memory _vote, uint[] memory _power) external {\r\n        Proposal storage proposal = proposals[_proposalId];\r\n        require(votes[msg.sender][_proposalId] == false, 'already voted');\r\n        //i check if the user is a yk or has voter shares\r\n        require(voter_token.balanceOf(msg.sender) > 0, 'Not enough shares to vote on a proposal');\r\n        //bu alttaki sadece 1 kez oylamayi garantilemek icin, teoride bunu kullanmayacakgiz\r\n        //requires(tokens_refunded[msg.sender][_proposalId] == false, 'Already voted);\r\n        require(block.timestamp <= proposal.createdAt + VOTING_PERIOD, 'Voting period is over');\r\n        require(proposals[_proposalId].status == Status.Pending, 'Voting period is finished');\r\n        uint total_power = 0; \r\n        for(uint i=0;i<_power.length;i++) //checks if the amount of votes given is equal to the max amount of votes\r\n        {\r\n            total_power = total_power + _power[i];\r\n        }          \r\n        require(total_power <= proposal.power);\r\n        bool init = false;\r\n        //asagida yaptiklarim: iste yapiyo yazmaya usendim\r\n        for(uint i=0;i<proposal.options.length;i++)\r\n        {\r\n            for(uint y=0; y<_vote.length; y++){\r\n                \r\n                if(stringsEquals(proposal.options[i], _vote[y])){\r\n                    init = true;\r\n                }\r\n            }\r\n        }           \r\n        require(init == true);\r\n        /** make sure to add the necessary require checks */\r\n\r\n        for(uint i=0;i<proposal.options.length;i++)\r\n        {\r\n            for(uint y=0; y<_vote.length; y++){\r\n                if(stringsEquals(proposal.options[i], _vote[y])){\r\n                    proposal.options_num[i]+= _power[y];\r\n                }\r\n            }\r\n        }\r\n\r\n        votes[msg.sender][_proposalId] = true;\r\n        voter_token.update_active_voter_lock_on(_proposalId, msg.sender);\r\n\r\n\r\n        \r\n    }  \r\n\r\n    \r\n\r\n    function vote_power_weighted(uint _proposalId, string[] memory _vote, uint[] memory _power, uint weight) external {\r\n        Proposal storage proposal = proposals[_proposalId];\r\n        require(votes[msg.sender][_proposalId] == false, 'already voted');\r\n        require(weight <= (voter_token.balanceOf(msg.sender) / (10 ** 18)), \"Dont have enough tokens (change weight)\" );\r\n\r\n        //i check if the user is a yk or has voter shares\r\n        require(voter_token.balanceOf(msg.sender) > 0, \"Dont have enough tokens (literally 0)\");\r\n        //bu alttaki sadece 1 kez oylamayi garantilemek icin, teoride bunu kullanmayacakgiz\r\n        //requires(tokens_refunded[msg.sender][_proposalId] == false, 'Already voted);\r\n        require(block.timestamp <= proposal.createdAt + VOTING_PERIOD, 'Voting period is over');\r\n        require(proposals[_proposalId].status == Status.Pending, 'Voting period is finished');\r\n        uint total_power = 0; \r\n        for(uint i=0;i<_power.length;i++) //checks if the amount of votes given is equal to the max amount of votes\r\n        {\r\n            total_power = total_power + _power[i];\r\n        }          \r\n        require(total_power <= proposal.power);\r\n        bool init = false;\r\n        //asagida yaptiklarim: iste yapiyo yazmaya usendim\r\n        for(uint i=0;i<proposal.options.length;i++)\r\n        {\r\n            for(uint y=0; y<_vote.length; y++){\r\n                \r\n                if(stringsEquals(proposal.options[i], _vote[y])){\r\n                    init = true;\r\n                }\r\n            }\r\n        }           \r\n        require(init == true);\r\n        /** make sure to add the necessary require checks */\r\n\r\n        \r\n\r\n        for(uint i=0;i<proposal.options.length;i++)\r\n        {\r\n            for(uint y=0; y<_vote.length; y++){\r\n                if(stringsEquals(proposal.options[i], _vote[y])){\r\n                    proposal.options_num[i]+= _power[y] * weight;\r\n                }\r\n            }\r\n        }\r\n\r\n        votes[msg.sender][_proposalId] = true;\r\n        voter_token.update_active_voter_lock_on(_proposalId, msg.sender);\r\n\r\n\r\n    }   \r\n    //(string[][] memory myproposaloptions, string[][] memory myproposals, string[][] memory myproposalvotes )\r\n    function getProposalName() public view returns (string[] memory){\r\n        //string[][] propoptions;\r\n        string[] memory myprops = new string[](nextProposalId);\r\n        //string[][] propvotes;\r\n        for (uint i = 0; i < nextProposalId; i++) {\r\n            myprops[i] = proposals[i].name;\r\n            //propvotes.push(proposals[i].name);\r\n            //for(uint y = 0; y < proposals[i].options.length; y++){\r\n            //    propvotes[i][y]\r\n            //}\r\n        }\r\n        return myprops;\r\n    }\r\n    function getDaoid() public view returns (uint256){\r\n        return dao_id;\r\n\r\n    }\r\n    //my chk is the person I am checking lol\r\n    function has_yk_priviliges(address chk) public view returns (bool){\r\n\r\n         if(yk_token.balanceOf(chk) >= 1)\r\n         {\r\n            return true;\r\n         }\r\n         MyDAO current_dao=factory.getCurrentDAO(dao_id);\r\n         MyDAO parent_dao= factory.getParentDAO(current_dao);\r\n         \r\n         \r\n         bool exist=false;\r\n         while(address(parent_dao)!=address(0)){\r\n             if(parent_dao.yk_token().balanceOf(chk) >= 1 * 10 **18)\r\n             {\r\n                 exist=true;\r\n                 break;\r\n             }\r\n             parent_dao= factory.getParentDAO( parent_dao );\r\n         }\r\n         return exist;\r\n\r\n    }\r\n    \r\n    function getProposalDescription() public view returns (string[] memory){\r\n        //string[][] propoptions;\r\n        string[] memory myprops = new string[](nextProposalId);\r\n        //string[][] propvotes;\r\n        for (uint i = 0; i < nextProposalId; i++) {\r\n            myprops[i] = proposals[i].proposal_description;\r\n            //propvotes.push(proposals[i].name);\r\n            //for(uint y = 0; y < proposals[i].options.length; y++){\r\n            //    propvotes[i][y]\r\n            //}\r\n        }\r\n        return myprops;\r\n    }\r\n\r\n    function getProposalVoteNames(uint proposal_idd) public view returns (string[] memory){\r\n        //string[][] propoptions;\r\n        string[] memory mypropvotes = new string[](proposals[proposal_idd].options.length);\r\n        //string[][] propvotes;\r\n        for (uint i = 0; i < proposals[proposal_idd].options.length; i++) {\r\n            mypropvotes[i] = proposals[proposal_idd].options[i];\r\n            //propvotes.push(proposals[i].name);\r\n            //for(uint y = 0; y < proposals[i].options.length; y++){\r\n            //    propvotes[i][y]\r\n            //}\r\n        }\r\n        return mypropvotes;\r\n    }    \r\n\r\n    function getProposalVoteNumbers(uint proposal_idd) public view returns (uint[] memory){\r\n        //string[][] propoptions;\r\n        uint[] memory mypropvotenums = new uint[](proposals[proposal_idd].options_num.length);\r\n        //string[][] propvotes;\r\n        for (uint i = 0; i < proposals[proposal_idd].options_num.length; i++) {\r\n            mypropvotenums[i] = proposals[proposal_idd].options_num[i];\r\n            //propvotes.push(proposals[i].name);\r\n            //for(uint y = 0; y < proposals[i].options.length; y++){\r\n            //    propvotes[i][y]\r\n            //}\r\n        }\r\n        return mypropvotenums;\r\n    }    \r\n\r\n    function getProposalPower(uint proposal_idd) public view returns (uint ){\r\n        //string[][] propoptions;\r\n        uint myproppower = 0;\r\n        //string[][] propvotes;\r\n        myproppower = proposals[proposal_idd].power;\r\n\r\n        return myproppower;\r\n    }     \r\n\r\n    function getProposalType(uint proposal_idd) public view returns (string memory){\r\n        //string[][] propoptions;\r\n        \r\n        //string[][] propvotes;\r\n        string memory myproppower = proposals[proposal_idd].proposal_info_type;\r\n\r\n        return myproppower;\r\n    }     \r\n\r\n    \r\n    //form = b tokeni gecici olarak alan kisi to = a tokeni basta gonderen kisi \r\n    function dao_delegation_single_getback_amount_voter(address from, uint256 amount) external{\r\n        require(amount <= voter_token.getDebtToken(from), \"not enough debt somehow\");       \r\n        voter_token. delegation_single_getback_amount(from, msg.sender, amount);        \r\n    }\r\n\r\n    function dao_delegation_single_getback_all_voter(address from ) external  {\r\n        voter_token.delegation_single_getback_all(from, msg.sender);\r\n    }\r\n\r\n    function dao_delagation_multiple_getback_all_voter( ) external{\r\n        voter_token.delagation_multiple_getback_all( msg.sender);\r\n    }\r\n    function dao_clawback_single_voter(address from) external{\r\n        require(has_yk_priviliges(msg.sender), \"does not have yk priviliges\") ;\r\n        voter_token.clawback_single( from);\r\n    }\r\n    function dao_clawback_all_voter() external{\r\n        require(has_yk_priviliges(msg.sender), \"does not have yk priviliges\") ;\r\n        voter_token.clawback_all( );\r\n    }\r\n    \r\n\r\n\r\n\r\n\r\n    \r\n    /////////////////////////////////////////////////////////////////////////////////////\r\n    function dao_delegation_single_getback_amount_yk(address from, uint256 amount) external {\r\n        require(amount <= yk_token.getDebtToken(from), \"not enough debt somehow\");       \r\n        yk_token. delegation_single_getback_amount(from, msg.sender, amount);      \r\n        \r\n    }\r\n    function dao_delegation_single_getback_all_yk(address from) external {\r\n        yk_token.delegation_single_getback_all(from, msg.sender);\r\n\r\n    }\r\n    function dao_delagation_multiple_getback_all_yk() external{\r\n        yk_token.delagation_multiple_getback_all(msg.sender);\r\n    }\r\n    function dao_clawback_single_yk(address to) external{\r\n        require(has_yk_priviliges(msg.sender), \"does not have yk priviliges\") ;\r\n        yk_token.clawback_single( to);\r\n    }\r\n    function dao_clawback_all_yk() external {\r\n        require(has_yk_priviliges(msg.sender), \"does not have yk priviliges\") ;\r\n        yk_token.clawback_all( );\r\n    }\r\n\r\n    function delete_this_dao( ) external {\r\n        require(has_yk_priviliges(msg.sender) || msg.sender == address(factory) , \"does not have yk priviliges or is not factory\") ;\r\n        voter_token.clawback_all( );\r\n        factory.delete_DAO(this, msg.sender);\r\n        yk_token.clawback_all( );\r\n    }\r\n   \r\n    \r\n    function add_voters_from_string_array(address[] memory voters) public {\r\n        require(has_yk_priviliges(msg.sender), \"does not have yk priviliges\") ;\r\n        for(uint i = 0; i < voters.length; i++){\r\n            send_voter_tokens_to_address_yk_directly(voters[i], 1);\r\n        }\r\n    }\r\n\r\n    function add_yks_from_string_array(address[] memory yks) public {\r\n        require(has_yk_priviliges(msg.sender), \"does not have yk priviliges\") ;\r\n        for(uint i = 0; i < yks.length; i++){\r\n            send_yk_tokens_to_address_yk_directly(yks[i], 1);\r\n        }\r\n    }\r\n\r\n\r\n\r\n\r\n}                   \r\n\r\n\r\n   \r\n",
  "sourcePath": "D:\\Projects\\DAOOO_baturay\\SU_Govern\\contract_for_front_end\\ui_sol_deneme2\\ui_sol_deneme\\sol_ui\\blockchain1\\contracts\\newDAO1.sol",
  "compiler": {
    "name": "solc",
    "version": "0.8.13+commit.abaa5c0e.Emscripten.clang"
  },
  "schemaVersion": "3.4.7",
  "updatedAt": "2023-01-21T16:41:07.471Z",
  "devdoc": {
    "kind": "dev",
    "methods": {},
    "version": 1
  },
  "userdoc": {
    "kind": "user",
    "methods": {},
    "version": 1
  }
}