{
  "contractName": "MyDAO",
  "abi": [
    {
      "inputs": [
        {
          "internalType": "string",
          "name": "_dao_name",
          "type": "string"
        },
        {
          "internalType": "string",
          "name": "_dao_description",
          "type": "string"
        },
        {
          "internalType": "uint256",
          "name": "_dao_id",
          "type": "uint256"
        },
        {
          "internalType": "address",
          "name": "first_yk",
          "type": "address"
        },
        {
          "internalType": "contract ISUToken",
          "name": "yk_token_in",
          "type": "address"
        },
        {
          "internalType": "contract ISUToken",
          "name": "voter_token_in",
          "type": "address"
        },
        {
          "internalType": "contract DAOFactory",
          "name": "_factory",
          "type": "address"
        }
      ],
      "stateMutability": "nonpayable",
      "type": "constructor"
    },
    {
      "anonymous": false,
      "inputs": [
        {
          "indexed": false,
          "internalType": "uint256",
          "name": "id",
          "type": "uint256"
        },
        {
          "indexed": false,
          "internalType": "address",
          "name": "author",
          "type": "address"
        },
        {
          "indexed": false,
          "internalType": "string",
          "name": "name",
          "type": "string"
        },
        {
          "indexed": false,
          "internalType": "string",
          "name": "proposal_description",
          "type": "string"
        },
        {
          "indexed": false,
          "internalType": "string[]",
          "name": "options",
          "type": "string[]"
        },
        {
          "indexed": false,
          "internalType": "uint256[]",
          "name": "num_options",
          "type": "uint256[]"
        },
        {
          "indexed": false,
          "internalType": "uint256",
          "name": "power",
          "type": "uint256"
        },
        {
          "indexed": false,
          "internalType": "string",
          "name": "proposal_info_type",
          "type": "string"
        }
      ],
      "name": "proposal_info",
      "type": "event"
    },
    {
      "inputs": [],
      "name": "dao_description",
      "outputs": [
        {
          "internalType": "string",
          "name": "",
          "type": "string"
        }
      ],
      "stateMutability": "view",
      "type": "function"
    },
    {
      "inputs": [],
      "name": "dao_name",
      "outputs": [
        {
          "internalType": "string",
          "name": "",
          "type": "string"
        }
      ],
      "stateMutability": "view",
      "type": "function"
    },
    {
      "inputs": [],
      "name": "nextProposalId",
      "outputs": [
        {
          "internalType": "uint256",
          "name": "",
          "type": "uint256"
        }
      ],
      "stateMutability": "view",
      "type": "function"
    },
    {
      "inputs": [
        {
          "internalType": "uint256",
          "name": "",
          "type": "uint256"
        }
      ],
      "name": "proposals",
      "outputs": [
        {
          "internalType": "uint256",
          "name": "id",
          "type": "uint256"
        },
        {
          "internalType": "address",
          "name": "author",
          "type": "address"
        },
        {
          "internalType": "string",
          "name": "name",
          "type": "string"
        },
        {
          "internalType": "string",
          "name": "proposal_description",
          "type": "string"
        },
        {
          "internalType": "uint256",
          "name": "createdAt",
          "type": "uint256"
        },
        {
          "internalType": "enum MyDAO.Status",
          "name": "status",
          "type": "uint8"
        },
        {
          "internalType": "uint256",
          "name": "power",
          "type": "uint256"
        },
        {
          "internalType": "string",
          "name": "proposal_info_type",
          "type": "string"
        }
      ],
      "stateMutability": "view",
      "type": "function"
    },
    {
      "inputs": [
        {
          "internalType": "address",
          "name": "",
          "type": "address"
        },
        {
          "internalType": "uint256",
          "name": "",
          "type": "uint256"
        }
      ],
      "name": "token_amount_to_be_refunded",
      "outputs": [
        {
          "internalType": "uint256",
          "name": "",
          "type": "uint256"
        }
      ],
      "stateMutability": "view",
      "type": "function"
    },
    {
      "inputs": [
        {
          "internalType": "address",
          "name": "",
          "type": "address"
        },
        {
          "internalType": "uint256",
          "name": "",
          "type": "uint256"
        }
      ],
      "name": "tokens_not_refunded",
      "outputs": [
        {
          "internalType": "bool",
          "name": "",
          "type": "bool"
        }
      ],
      "stateMutability": "view",
      "type": "function"
    },
    {
      "inputs": [
        {
          "internalType": "address",
          "name": "",
          "type": "address"
        }
      ],
      "name": "voter_shares_to_be_given",
      "outputs": [
        {
          "internalType": "uint256",
          "name": "",
          "type": "uint256"
        }
      ],
      "stateMutability": "view",
      "type": "function"
    },
    {
      "inputs": [],
      "name": "voter_token",
      "outputs": [
        {
          "internalType": "contract ISUToken",
          "name": "",
          "type": "address"
        }
      ],
      "stateMutability": "view",
      "type": "function"
    },
    {
      "inputs": [
        {
          "internalType": "address",
          "name": "",
          "type": "address"
        },
        {
          "internalType": "uint256",
          "name": "",
          "type": "uint256"
        }
      ],
      "name": "votes",
      "outputs": [
        {
          "internalType": "bool",
          "name": "",
          "type": "bool"
        }
      ],
      "stateMutability": "view",
      "type": "function"
    },
    {
      "inputs": [
        {
          "internalType": "address",
          "name": "",
          "type": "address"
        }
      ],
      "name": "yk_shares_to_be_given",
      "outputs": [
        {
          "internalType": "uint256",
          "name": "",
          "type": "uint256"
        }
      ],
      "stateMutability": "view",
      "type": "function"
    },
    {
      "inputs": [],
      "name": "yk_token",
      "outputs": [
        {
          "internalType": "contract ISUToken",
          "name": "",
          "type": "address"
        }
      ],
      "stateMutability": "view",
      "type": "function"
    },
    {
      "inputs": [],
      "name": "iterate_proposals",
      "outputs": [],
      "stateMutability": "nonpayable",
      "type": "function"
    },
    {
      "inputs": [
        {
          "internalType": "uint256",
          "name": "_proposalId",
          "type": "uint256"
        }
      ],
      "name": "accept_proposal",
      "outputs": [],
      "stateMutability": "nonpayable",
      "type": "function"
    },
    {
      "inputs": [
        {
          "internalType": "uint256",
          "name": "_proposalId",
          "type": "uint256"
        }
      ],
      "name": "reject_proposal",
      "outputs": [],
      "stateMutability": "nonpayable",
      "type": "function"
    },
    {
      "inputs": [
        {
          "internalType": "uint256",
          "name": "_proposalId",
          "type": "uint256"
        }
      ],
      "name": "pending_proposal",
      "outputs": [],
      "stateMutability": "nonpayable",
      "type": "function"
    },
    {
      "inputs": [
        {
          "internalType": "uint256",
          "name": "_amount",
          "type": "uint256"
        }
      ],
      "name": "withdraw_voter_tokens",
      "outputs": [],
      "stateMutability": "nonpayable",
      "type": "function"
    },
    {
      "inputs": [
        {
          "internalType": "uint256",
          "name": "_amount",
          "type": "uint256"
        }
      ],
      "name": "withdraw_yk_tokens",
      "outputs": [],
      "stateMutability": "nonpayable",
      "type": "function"
    },
    {
      "inputs": [
        {
          "internalType": "address",
          "name": "yk_candidate",
          "type": "address"
        },
        {
          "internalType": "uint256",
          "name": "_amount",
          "type": "uint256"
        }
      ],
      "name": "send_yk_tokens_to_address_yk",
      "outputs": [],
      "stateMutability": "nonpayable",
      "type": "function"
    },
    {
      "inputs": [
        {
          "internalType": "address",
          "name": "yk_candidate",
          "type": "address"
        },
        {
          "internalType": "uint256",
          "name": "_amount",
          "type": "uint256"
        }
      ],
      "name": "send_yk_tokens_to_address_yk_directly",
      "outputs": [],
      "stateMutability": "nonpayable",
      "type": "function"
    },
    {
      "inputs": [
        {
          "internalType": "address",
          "name": "voter_candidate",
          "type": "address"
        },
        {
          "internalType": "uint256",
          "name": "_amount",
          "type": "uint256"
        }
      ],
      "name": "send_voter_tokens_to_address_yk",
      "outputs": [],
      "stateMutability": "nonpayable",
      "type": "function"
    },
    {
      "inputs": [
        {
          "internalType": "address",
          "name": "voter_candidate",
          "type": "address"
        },
        {
          "internalType": "uint256",
          "name": "_amount",
          "type": "uint256"
        }
      ],
      "name": "send_voter_tokens_to_address_yk_directly",
      "outputs": [],
      "stateMutability": "nonpayable",
      "type": "function"
    },
    {
      "inputs": [
        {
          "internalType": "string",
          "name": "name",
          "type": "string"
        },
        {
          "internalType": "string",
          "name": "description",
          "type": "string"
        },
        {
          "internalType": "string[]",
          "name": "_options",
          "type": "string[]"
        },
        {
          "internalType": "uint256[]",
          "name": "_options_num",
          "type": "uint256[]"
        },
        {
          "internalType": "uint256",
          "name": "_power",
          "type": "uint256"
        },
        {
          "internalType": "uint256",
          "name": "_type",
          "type": "uint256"
        }
      ],
      "name": "createProposal",
      "outputs": [],
      "stateMutability": "nonpayable",
      "type": "function"
    },
    {
      "inputs": [
        {
          "internalType": "uint256",
          "name": "_proposalId",
          "type": "uint256"
        },
        {
          "internalType": "string[]",
          "name": "_vote",
          "type": "string[]"
        },
        {
          "internalType": "uint256[]",
          "name": "_power",
          "type": "uint256[]"
        }
      ],
      "name": "vote_power",
      "outputs": [],
      "stateMutability": "nonpayable",
      "type": "function"
    },
    {
      "inputs": [
        {
          "internalType": "uint256",
          "name": "_proposalId",
          "type": "uint256"
        },
        {
          "internalType": "string[]",
          "name": "_vote",
          "type": "string[]"
        },
        {
          "internalType": "uint256[]",
          "name": "_power",
          "type": "uint256[]"
        },
        {
          "internalType": "uint256",
          "name": "weight",
          "type": "uint256"
        }
      ],
      "name": "vote_power_weighted",
      "outputs": [],
      "stateMutability": "nonpayable",
      "type": "function"
    },
    {
      "inputs": [],
      "name": "getProposalName",
      "outputs": [
        {
          "internalType": "string[]",
          "name": "",
          "type": "string[]"
        }
      ],
      "stateMutability": "view",
      "type": "function"
    },
    {
      "inputs": [],
      "name": "getDaoid",
      "outputs": [
        {
          "internalType": "uint256",
          "name": "",
          "type": "uint256"
        }
      ],
      "stateMutability": "view",
      "type": "function"
    },
    {
      "inputs": [
        {
          "internalType": "address",
          "name": "chk",
          "type": "address"
        }
      ],
      "name": "has_yk_priviliges",
      "outputs": [
        {
          "internalType": "bool",
          "name": "",
          "type": "bool"
        }
      ],
      "stateMutability": "view",
      "type": "function"
    },
    {
      "inputs": [],
      "name": "getProposalDescription",
      "outputs": [
        {
          "internalType": "string[]",
          "name": "",
          "type": "string[]"
        }
      ],
      "stateMutability": "view",
      "type": "function"
    },
    {
      "inputs": [
        {
          "internalType": "uint256",
          "name": "proposal_idd",
          "type": "uint256"
        }
      ],
      "name": "getProposalVoteNames",
      "outputs": [
        {
          "internalType": "string[]",
          "name": "",
          "type": "string[]"
        }
      ],
      "stateMutability": "view",
      "type": "function"
    },
    {
      "inputs": [
        {
          "internalType": "uint256",
          "name": "proposal_idd",
          "type": "uint256"
        }
      ],
      "name": "getProposalVoteNumbers",
      "outputs": [
        {
          "internalType": "uint256[]",
          "name": "",
          "type": "uint256[]"
        }
      ],
      "stateMutability": "view",
      "type": "function"
    },
    {
      "inputs": [
        {
          "internalType": "uint256",
          "name": "proposal_idd",
          "type": "uint256"
        }
      ],
      "name": "getProposalPower",
      "outputs": [
        {
          "internalType": "uint256",
          "name": "",
          "type": "uint256"
        }
      ],
      "stateMutability": "view",
      "type": "function"
    },
    {
      "inputs": [
        {
          "internalType": "uint256",
          "name": "proposal_idd",
          "type": "uint256"
        }
      ],
      "name": "getProposalType",
      "outputs": [
        {
          "internalType": "string",
          "name": "",
          "type": "string"
        }
      ],
      "stateMutability": "view",
      "type": "function"
    },
    {
      "inputs": [
        {
          "internalType": "address",
          "name": "from",
          "type": "address"
        },
        {
          "internalType": "uint256",
          "name": "amount",
          "type": "uint256"
        }
      ],
      "name": "dao_delegation_single_getback_amount_voter",
      "outputs": [],
      "stateMutability": "nonpayable",
      "type": "function"
    },
    {
      "inputs": [
        {
          "internalType": "address",
          "name": "from",
          "type": "address"
        }
      ],
      "name": "dao_delegation_single_getback_all_voter",
      "outputs": [],
      "stateMutability": "nonpayable",
      "type": "function"
    },
    {
      "inputs": [],
      "name": "dao_delagation_multiple_getback_all_voter",
      "outputs": [],
      "stateMutability": "nonpayable",
      "type": "function"
    },
    {
      "inputs": [
        {
          "internalType": "address",
          "name": "from",
          "type": "address"
        }
      ],
      "name": "dao_clawback_single_voter",
      "outputs": [],
      "stateMutability": "nonpayable",
      "type": "function"
    },
    {
      "inputs": [],
      "name": "dao_clawback_all_voter",
      "outputs": [],
      "stateMutability": "nonpayable",
      "type": "function"
    },
    {
      "inputs": [
        {
          "internalType": "address",
          "name": "from",
          "type": "address"
        },
        {
          "internalType": "uint256",
          "name": "amount",
          "type": "uint256"
        }
      ],
      "name": "dao_delegation_single_getback_amount_yk",
      "outputs": [],
      "stateMutability": "nonpayable",
      "type": "function"
    },
    {
      "inputs": [
        {
          "internalType": "address",
          "name": "from",
          "type": "address"
        }
      ],
      "name": "dao_delegation_single_getback_all_yk",
      "outputs": [],
      "stateMutability": "nonpayable",
      "type": "function"
    },
    {
      "inputs": [],
      "name": "dao_delagation_multiple_getback_all_yk",
      "outputs": [],
      "stateMutability": "nonpayable",
      "type": "function"
    },
    {
      "inputs": [
        {
          "internalType": "address",
          "name": "to",
          "type": "address"
        }
      ],
      "name": "dao_clawback_single_yk",
      "outputs": [],
      "stateMutability": "nonpayable",
      "type": "function"
    },
    {
      "inputs": [],
      "name": "dao_clawback_all_yk",
      "outputs": [],
      "stateMutability": "nonpayable",
      "type": "function"
    }
  ],
  "bytecode": "0x60806040523480156200001157600080fd5b5060405162005d2738038062005d27833981810160405281019062000037919062000577565b80600360006101000a81548173ffffffffffffffffffffffffffffffffffffffff021916908373ffffffffffffffffffffffffffffffffffffffff16021790555086600090805190602001906200009092919062000200565b50846002819055508560019080519060200190620000b092919062000200565b5082600b60006101000a81548173ffffffffffffffffffffffffffffffffffffffff021916908373ffffffffffffffffffffffffffffffffffffffff16021790555081600a60006101000a81548173ffffffffffffffffffffffffffffffffffffffff021916908373ffffffffffffffffffffffffffffffffffffffff160217905550670de0b6b3a7640000600960008673ffffffffffffffffffffffffffffffffffffffff1673ffffffffffffffffffffffffffffffffffffffff16815260200190815260200160002060008282546200018c919062000697565b92505081905550670de0b6b3a7640000600860008673ffffffffffffffffffffffffffffffffffffffff1673ffffffffffffffffffffffffffffffffffffffff1681526020019081526020016000206000828254620001ec919062000697565b925050819055505050505050505062000758565b8280546200020e9062000723565b90600052602060002090601f0160209004810192826200023257600085556200027e565b82601f106200024d57805160ff19168380011785556200027e565b828001600101855582156200027e579182015b828111156200027d57825182559160200191906001019062000260565b5b5090506200028d919062000291565b5090565b5b80821115620002ac57600081600090555060010162000292565b5090565b6000604051905090565b600080fd5b600080fd5b600080fd5b600080fd5b6000601f19601f8301169050919050565b7f4e487b7100000000000000000000000000000000000000000000000000000000600052604160045260246000fd5b6200031982620002ce565b810181811067ffffffffffffffff821117156200033b576200033a620002df565b5b80604052505050565b600062000350620002b0565b90506200035e82826200030e565b919050565b600067ffffffffffffffff821115620003815762000380620002df565b5b6200038c82620002ce565b9050602081019050919050565b60005b83811015620003b95780820151818401526020810190506200039c565b83811115620003c9576000848401525b50505050565b6000620003e6620003e08462000363565b62000344565b905082815260208101848484011115620004055762000404620002c9565b5b6200041284828562000399565b509392505050565b600082601f830112620004325762000431620002c4565b5b815162000444848260208601620003cf565b91505092915050565b6000819050919050565b62000462816200044d565b81146200046e57600080fd5b50565b600081519050620004828162000457565b92915050565b600073ffffffffffffffffffffffffffffffffffffffff82169050919050565b6000620004b58262000488565b9050919050565b620004c781620004a8565b8114620004d357600080fd5b50565b600081519050620004e781620004bc565b92915050565b6000620004fa82620004a8565b9050919050565b6200050c81620004ed565b81146200051857600080fd5b50565b6000815190506200052c8162000501565b92915050565b60006200053f82620004a8565b9050919050565b620005518162000532565b81146200055d57600080fd5b50565b600081519050620005718162000546565b92915050565b600080600080600080600060e0888a031215620005995762000598620002ba565b5b600088015167ffffffffffffffff811115620005ba57620005b9620002bf565b5b620005c88a828b016200041a565b975050602088015167ffffffffffffffff811115620005ec57620005eb620002bf565b5b620005fa8a828b016200041a565b96505060406200060d8a828b0162000471565b9550506060620006208a828b01620004d6565b9450506080620006338a828b016200051b565b93505060a0620006468a828b016200051b565b92505060c0620006598a828b0162000560565b91505092959891949750929550565b7f4e487b7100000000000000000000000000000000000000000000000000000000600052601160045260246000fd5b6000620006a4826200044d565b9150620006b1836200044d565b9250827fffffffffffffffffffffffffffffffffffffffffffffffffffffffffffffffff03821115620006e957620006e862000668565b5b828201905092915050565b7f4e487b7100000000000000000000000000000000000000000000000000000000600052602260045260246000fd5b600060028204905060018216806200073c57607f821691505b602082108103620007525762000751620006f4565b5b50919050565b6155bf80620007686000396000f3fe608060405234801561001057600080fd5b506004361061025e5760003560e01c80638a19ab3511610146578063c1bff3e0116100c3578063dd3bf85c11610087578063dd3bf85c146106d2578063e5c28c90146106f0578063e937688214610720578063f08c03bc1461073e578063f70e51a71461075a578063f9b8a27a146107785761025e565b8063c1bff3e01461061c578063cf5265d814610638578063d25129c414610642578063d8c6bc2114610672578063d978ffba146106a25761025e565b8063a38b39d41161010a578063a38b39d41461057a578063a44b21ae14610596578063a47eb7cf146105b2578063a9a2a4a3146105e2578063bdf52c22146106125761025e565b80638a19ab35146104c45780638f7c59d0146104e05780639d92c108146105105780639f2524ee1461052e578063a2ded9501461055e5761025e565b8063451abcec116101df57806364944d4d116101a357806364944d4d1461042c57806371df56051461043657806375fd8377146104665780637b93e652146104825780637e11a5561461048c5780638661fa70146104a85761025e565b8063451abcec146103985780634a9f1575146103b65780634b4967e8146103c0578063560d09b6146103de57806362b25fc61461040e5761025e565b806323ee2c831161022657806323ee2c831461030a5780632ab09d14146103265780632c14ed1714610344578063339a9e591461036057806342b9d7e41461037c5761025e565b8063013cf08b1461026357806307e25f271461029a57806310742870146102b6578063114d7756146102d257806314e72f43146102ee575b600080fd5b61027d60048036038101906102789190613d58565b610794565b604051610291989796959493929190613ee5565b60405180910390f35b6102b460048036038101906102af9190613d58565b6109a1565b005b6102d060048036038101906102cb9190613fa4565b6109e3565b005b6102ec60048036038101906102e79190613fa4565b610acd565b005b61030860048036038101906103039190613fd1565b610b71565b005b610324600480360381019061031f9190613fd1565b610c26565b005b61032e610d2f565b60405161033b9190614011565b60405180910390f35b61035e60048036038101906103599190613d58565b610d35565b005b61037a60048036038101906103759190613fa4565b610d77565b005b61039660048036038101906103919190613d58565b610e1b565b005b6103a0610fd9565b6040516103ad9190614138565b60405180910390f35b6103be611114565b005b6103c86111f2565b6040516103d59190614011565b60405180910390f35b6103f860048036038101906103f39190613d58565b6111fc565b6040516104059190614011565b60405180910390f35b610416611225565b6040516104239190614138565b60405180910390f35b610434611360565b005b610450600480360381019061044b9190613fa4565b61143e565b60405161045d9190614011565b60405180910390f35b610480600480360381019061047b9190613fd1565b611456565b005b61048a6115db565b005b6104a660048036038101906104a19190613fd1565b61167c565b005b6104c260048036038101906104bd9190614438565b611785565b005b6104de60048036038101906104d99190613d58565b611ded565b005b6104fa60048036038101906104f59190613d58565b611f98565b6040516105079190614138565b60405180910390f35b61051861211f565b60405161052591906144c3565b60405180910390f35b61054860048036038101906105439190613fd1565b6121ad565b6040516105559190614500565b60405180910390f35b61057860048036038101906105739190613d58565b6121dc565b005b610594600480360381019061058f9190613fa4565b61221e565b005b6105b060048036038101906105ab919061451b565b612308565b005b6105cc60048036038101906105c79190613fa4565b612a6d565b6040516105d99190614500565b60405180910390f35b6105fc60048036038101906105f79190613fd1565b612e42565b6040516106099190614011565b60405180910390f35b61061a612e67565b005b610636600480360381019061063191906145ba565b612f08565b005b610640613239565b005b61065c60048036038101906106579190613d58565b61344a565b6040516106699190614775565b60405180910390f35b61068c60048036038101906106879190613fa4565b613545565b6040516106999190614011565b60405180910390f35b6106bc60048036038101906106b79190613d58565b61355d565b6040516106c991906144c3565b60405180910390f35b6106da61360b565b6040516106e791906147f6565b60405180910390f35b61070a60048036038101906107059190613fd1565b613631565b6040516107179190614500565b60405180910390f35b610728613660565b60405161073591906144c3565b60405180910390f35b61075860048036038101906107539190613fd1565b6136ee565b005b610762613873565b60405161076f91906147f6565b60405180910390f35b610792600480360381019061078d9190613fd1565b613899565b005b60046020528060005260406000206000915090508060000154908060010160009054906101000a900473ffffffffffffffffffffffffffffffffffffffff16908060020180546107e390614840565b80601f016020809104026020016040519081016040528092919081815260200182805461080f90614840565b801561085c5780601f106108315761010080835404028352916020019161085c565b820191906000526020600020905b81548152906001019060200180831161083f57829003601f168201915b50505050509080600301805461087190614840565b80601f016020809104026020016040519081016040528092919081815260200182805461089d90614840565b80156108ea5780601f106108bf576101008083540402835291602001916108ea565b820191906000526020600020905b8154815290600101906020018083116108cd57829003601f168201915b5050505050908060040154908060070160009054906101000a900460ff169080600801549080600901805461091e90614840565b80601f016020809104026020016040519081016040528092919081815260200182805461094a90614840565b80156109975780601f1061096c57610100808354040283529160200191610997565b820191906000526020600020905b81548152906001019060200180831161097a57829003601f168201915b5050505050905088565b60016004600083815260200190815260200160002060070160006101000a81548160ff021916908360028111156109db576109da613e6e565b5b021790555050565b6109ec33612a6d565b610a2b576040517f08c379a0000000000000000000000000000000000000000000000000000000008152600401610a22906148bd565b60405180910390fd5b600b60009054906101000a900473ffffffffffffffffffffffffffffffffffffffff1673ffffffffffffffffffffffffffffffffffffffff16635dc73582826040518263ffffffff1660e01b8152600401610a8691906148dd565b6020604051808303816000875af1158015610aa5573d6000803e3d6000fd5b505050506040513d601f19601f82011682018060405250810190610ac99190614924565b5050565b600b60009054906101000a900473ffffffffffffffffffffffffffffffffffffffff1673ffffffffffffffffffffffffffffffffffffffff1663b1d1ea9782336040518363ffffffff1660e01b8152600401610b2a929190614951565b6020604051808303816000875af1158015610b49573d6000803e3d6000fd5b505050506040513d601f19601f82011682018060405250810190610b6d9190614924565b5050565b610b7a33612a6d565b610bb9576040517f08c379a0000000000000000000000000000000000000000000000000000000008152600401610bb0906149c6565b60405180910390fd5b670de0b6b3a764000081610bcd9190614a15565b600960008473ffffffffffffffffffffffffffffffffffffffff1673ffffffffffffffffffffffffffffffffffffffff1681526020019081526020016000206000828254610c1b9190614a6f565b925050819055505050565b610c2f33612a6d565b610c6e576040517f08c379a0000000000000000000000000000000000000000000000000000000008152600401610c65906149c6565b60405180910390fd5b600a60009054906101000a900473ffffffffffffffffffffffffffffffffffffffff1673ffffffffffffffffffffffffffffffffffffffff16638da9e67783670de0b6b3a764000084610cc19190614a15565b6040518363ffffffff1660e01b8152600401610cde929190614ac5565b6020604051808303816000875af1158015610cfd573d6000803e3d6000fd5b505050506040513d601f19601f82011682018060405250810190610d219190614924565b50610d2b8161394e565b5050565b600c5481565b60026004600083815260200190815260200160002060070160006101000a81548160ff02191690836002811115610d6f57610d6e613e6e565b5b021790555050565b600a60009054906101000a900473ffffffffffffffffffffffffffffffffffffffff1673ffffffffffffffffffffffffffffffffffffffff1663b1d1ea9782336040518363ffffffff1660e01b8152600401610dd4929190614951565b6020604051808303816000875af1158015610df3573d6000803e3d6000fd5b505050506040513d601f19601f82011682018060405250810190610e179190614924565b5050565b670de0b6b3a764000081610e2f9190614a15565b600860003373ffffffffffffffffffffffffffffffffffffffff1673ffffffffffffffffffffffffffffffffffffffff168152602001908152602001600020541015610eb0576040517f08c379a0000000000000000000000000000000000000000000000000000000008152600401610ea790614b3a565b60405180910390fd5b670de0b6b3a764000081610ec49190614a15565b600860003373ffffffffffffffffffffffffffffffffffffffff1673ffffffffffffffffffffffffffffffffffffffff1681526020019081526020016000206000828254610f129190614b5a565b92505081905550600a60009054906101000a900473ffffffffffffffffffffffffffffffffffffffff1673ffffffffffffffffffffffffffffffffffffffff16638da9e67733670de0b6b3a764000084610f6c9190614a15565b6040518363ffffffff1660e01b8152600401610f89929190614ac5565b6020604051808303816000875af1158015610fa8573d6000803e3d6000fd5b505050506040513d601f19601f82011682018060405250810190610fcc9190614924565b50610fd68161394e565b50565b60606000600c5467ffffffffffffffff811115610ff957610ff861415f565b5b60405190808252806020026020018201604052801561102c57816020015b60608152602001906001900390816110175790505b50905060005b600c5481101561110c5760046000828152602001908152602001600020600301805461105d90614840565b80601f016020809104026020016040519081016040528092919081815260200182805461108990614840565b80156110d65780601f106110ab576101008083540402835291602001916110d6565b820191906000526020600020905b8154815290600101906020018083116110b957829003601f168201915b50505050508282815181106110ee576110ed614b8e565b5b6020026020010181905250808061110490614bbd565b915050611032565b508091505090565b61111d33612a6d565b61115c576040517f08c379a0000000000000000000000000000000000000000000000000000000008152600401611153906148bd565b60405180910390fd5b600b60009054906101000a900473ffffffffffffffffffffffffffffffffffffffff1673ffffffffffffffffffffffffffffffffffffffff1663c3b639b66040518163ffffffff1660e01b81526004016020604051808303816000875af11580156111cb573d6000803e3d6000fd5b505050506040513d601f19601f820116820180604052508101906111ef9190614924565b50565b6000600254905090565b600080600090506004600084815260200190815260200160002060080154905080915050919050565b60606000600c5467ffffffffffffffff8111156112455761124461415f565b5b60405190808252806020026020018201604052801561127857816020015b60608152602001906001900390816112635790505b50905060005b600c54811015611358576004600082815260200190815260200160002060020180546112a990614840565b80601f01602080910402602001604051908101604052809291908181526020018280546112d590614840565b80156113225780601f106112f757610100808354040283529160200191611322565b820191906000526020600020905b81548152906001019060200180831161130557829003601f168201915b505050505082828151811061133a57611339614b8e565b5b6020026020010181905250808061135090614bbd565b91505061127e565b508091505090565b61136933612a6d565b6113a8576040517f08c379a000000000000000000000000000000000000000000000000000000000815260040161139f906148bd565b60405180910390fd5b600a60009054906101000a900473ffffffffffffffffffffffffffffffffffffffff1673ffffffffffffffffffffffffffffffffffffffff1663c3b639b66040518163ffffffff1660e01b81526004016020604051808303816000875af1158015611417573d6000803e3d6000fd5b505050506040513d601f19601f8201168201806040525081019061143b9190614924565b50565b60096020528060005260406000206000915090505481565b600b60009054906101000a900473ffffffffffffffffffffffffffffffffffffffff1673ffffffffffffffffffffffffffffffffffffffff1663a95bbced836040518263ffffffff1660e01b81526004016114b191906148dd565b602060405180830381865afa1580156114ce573d6000803e3d6000fd5b505050506040513d601f19601f820116820180604052508101906114f29190614c1a565b811115611534576040517f08c379a000000000000000000000000000000000000000000000000000000000815260040161152b90614c93565b60405180910390fd5b600b60009054906101000a900473ffffffffffffffffffffffffffffffffffffffff1673ffffffffffffffffffffffffffffffffffffffff1663490169348333846040518463ffffffff1660e01b815260040161159393929190614cb3565b6020604051808303816000875af11580156115b2573d6000803e3d6000fd5b505050506040513d601f19601f820116820180604052508101906115d69190614924565b505050565b600a60009054906101000a900473ffffffffffffffffffffffffffffffffffffffff1673ffffffffffffffffffffffffffffffffffffffff1663396473f7336040518263ffffffff1660e01b815260040161163691906148dd565b6020604051808303816000875af1158015611655573d6000803e3d6000fd5b505050506040513d601f19601f820116820180604052508101906116799190614924565b50565b61168533612a6d565b6116c4576040517f08c379a00000000000000000000000000000000000000000000000000000000081526004016116bb906149c6565b60405180910390fd5b600b60009054906101000a900473ffffffffffffffffffffffffffffffffffffffff1673ffffffffffffffffffffffffffffffffffffffff16638da9e67783670de0b6b3a7640000846117179190614a15565b6040518363ffffffff1660e01b8152600401611734929190614ac5565b6020604051808303816000875af1158015611753573d6000803e3d6000fd5b505050506040513d601f19601f820116820180604052508101906117779190614924565b50611781816139e2565b5050565b600060046000858152602001908152602001600020905060001515600560003373ffffffffffffffffffffffffffffffffffffffff1673ffffffffffffffffffffffffffffffffffffffff168152602001908152602001600020600086815260200190815260200160002060009054906101000a900460ff16151514611840576040517f08c379a000000000000000000000000000000000000000000000000000000000815260040161183790614d36565b60405180910390fd5b6000600a60009054906101000a900473ffffffffffffffffffffffffffffffffffffffff1673ffffffffffffffffffffffffffffffffffffffff166370a08231336040518263ffffffff1660e01b815260040161189d91906148dd565b602060405180830381865afa1580156118ba573d6000803e3d6000fd5b505050506040513d601f19601f820116820180604052508101906118de9190614c1a565b1161191e576040517f08c379a000000000000000000000000000000000000000000000000000000000815260040161191590614dc8565b60405180910390fd5b62093a8081600401546119319190614a6f565b421115611973576040517f08c379a000000000000000000000000000000000000000000000000000000000815260040161196a90614e34565b60405180910390fd5b60028081111561198657611985613e6e565b5b6004600086815260200190815260200160002060070160009054906101000a900460ff1660028111156119bc576119bb613e6e565b5b146119fc576040517f08c379a00000000000000000000000000000000000000000000000000000000081526004016119f390614ea0565b60405180910390fd5b6000805b8351811015611a4457838181518110611a1c57611a1b614b8e565b5b602002602001015182611a2f9190614a6f565b91508080611a3c90614bbd565b915050611a00565b508160080154811115611a5657600080fd5b6000805b8360050180549050811015611b725760005b8651811015611b5e57611b41856005018381548110611a8e57611a8d614b8e565b5b906000526020600020018054611aa390614840565b80601f0160208091040260200160405190810160405280929190818152602001828054611acf90614840565b8015611b1c5780601f10611af157610100808354040283529160200191611b1c565b820191906000526020600020905b815481529060010190602001808311611aff57829003601f168201915b5050505050888381518110611b3457611b33614b8e565b5b6020026020010151613a76565b15611b4b57600192505b8080611b5690614bbd565b915050611a6c565b508080611b6a90614bbd565b915050611a5a565b506001151581151514611b8457600080fd5b60005b8360050180549050811015611cec5760005b8651811015611cd857611c6e856005018381548110611bbb57611bba614b8e565b5b906000526020600020018054611bd090614840565b80601f0160208091040260200160405190810160405280929190818152602001828054611bfc90614840565b8015611c495780601f10611c1e57610100808354040283529160200191611c49565b820191906000526020600020905b815481529060010190602001808311611c2c57829003601f168201915b5050505050888381518110611c6157611c60614b8e565b5b6020026020010151613a76565b15611cc557858181518110611c8657611c85614b8e565b5b6020026020010151856006018381548110611ca457611ca3614b8e565b5b906000526020600020016000828254611cbd9190614a6f565b925050819055505b8080611cd090614bbd565b915050611b99565b508080611ce490614bbd565b915050611b87565b506001600560003373ffffffffffffffffffffffffffffffffffffffff1673ffffffffffffffffffffffffffffffffffffffff168152602001908152602001600020600088815260200190815260200160002060006101000a81548160ff021916908315150217905550600a60009054906101000a900473ffffffffffffffffffffffffffffffffffffffff1673ffffffffffffffffffffffffffffffffffffffff1663fc13d51887336040518363ffffffff1660e01b8152600401611db3929190614ec0565b600060405180830381600087803b158015611dcd57600080fd5b505af1158015611de1573d6000803e3d6000fd5b50505050505050505050565b80600960003373ffffffffffffffffffffffffffffffffffffffff1673ffffffffffffffffffffffffffffffffffffffff168152602001908152602001600020541015611e6f576040517f08c379a0000000000000000000000000000000000000000000000000000000008152600401611e6690614b3a565b60405180910390fd5b670de0b6b3a764000081611e839190614a15565b600960003373ffffffffffffffffffffffffffffffffffffffff1673ffffffffffffffffffffffffffffffffffffffff1681526020019081526020016000206000828254611ed19190614b5a565b92505081905550600b60009054906101000a900473ffffffffffffffffffffffffffffffffffffffff1673ffffffffffffffffffffffffffffffffffffffff16638da9e67733670de0b6b3a764000084611f2b9190614a15565b6040518363ffffffff1660e01b8152600401611f48929190614ac5565b6020604051808303816000875af1158015611f67573d6000803e3d6000fd5b505050506040513d601f19601f82011682018060405250810190611f8b9190614924565b50611f95816139e2565b50565b60606000600460008481526020019081526020016000206005018054905067ffffffffffffffff811115611fcf57611fce61415f565b5b60405190808252806020026020018201604052801561200257816020015b6060815260200190600190039081611fed5790505b50905060005b60046000858152602001908152602001600020600501805490508110156121155760046000858152602001908152602001600020600501818154811061205157612050614b8e565b5b90600052602060002001805461206690614840565b80601f016020809104026020016040519081016040528092919081815260200182805461209290614840565b80156120df5780601f106120b4576101008083540402835291602001916120df565b820191906000526020600020905b8154815290600101906020018083116120c257829003601f168201915b50505050508282815181106120f7576120f6614b8e565b5b6020026020010181905250808061210d90614bbd565b915050612008565b5080915050919050565b6001805461212c90614840565b80601f016020809104026020016040519081016040528092919081815260200182805461215890614840565b80156121a55780601f1061217a576101008083540402835291602001916121a5565b820191906000526020600020905b81548152906001019060200180831161218857829003601f168201915b505050505081565b60056020528160005260406000206020528060005260406000206000915091509054906101000a900460ff1681565b60006004600083815260200190815260200160002060070160006101000a81548160ff0219169083600281111561221657612215613e6e565b5b021790555050565b61222733612a6d565b612266576040517f08c379a000000000000000000000000000000000000000000000000000000000815260040161225d906148bd565b60405180910390fd5b600a60009054906101000a900473ffffffffffffffffffffffffffffffffffffffff1673ffffffffffffffffffffffffffffffffffffffff16635dc73582826040518263ffffffff1660e01b81526004016122c191906148dd565b6020604051808303816000875af11580156122e0573d6000803e3d6000fd5b505050506040513d601f19601f820116820180604052508101906123049190614924565b5050565b600060046000868152602001908152602001600020905060001515600560003373ffffffffffffffffffffffffffffffffffffffff1673ffffffffffffffffffffffffffffffffffffffff168152602001908152602001600020600087815260200190815260200160002060009054906101000a900460ff161515146123c3576040517f08c379a00000000000000000000000000000000000000000000000000000000081526004016123ba90614d36565b60405180910390fd5b670de0b6b3a7640000600a60009054906101000a900473ffffffffffffffffffffffffffffffffffffffff1673ffffffffffffffffffffffffffffffffffffffff166370a08231336040518263ffffffff1660e01b815260040161242791906148dd565b602060405180830381865afa158015612444573d6000803e3d6000fd5b505050506040513d601f19601f820116820180604052508101906124689190614c1a565b6124729190614f18565b8211156124b4576040517f08c379a00000000000000000000000000000000000000000000000000000000081526004016124ab90614fbb565b60405180910390fd5b6000600a60009054906101000a900473ffffffffffffffffffffffffffffffffffffffff1673ffffffffffffffffffffffffffffffffffffffff166370a08231336040518263ffffffff1660e01b815260040161251191906148dd565b602060405180830381865afa15801561252e573d6000803e3d6000fd5b505050506040513d601f19601f820116820180604052508101906125529190614c1a565b11612592576040517f08c379a00000000000000000000000000000000000000000000000000000000081526004016125899061504d565b60405180910390fd5b62093a8081600401546125a59190614a6f565b4211156125e7576040517f08c379a00000000000000000000000000000000000000000000000000000000081526004016125de90614e34565b60405180910390fd5b6002808111156125fa576125f9613e6e565b5b6004600087815260200190815260200160002060070160009054906101000a900460ff1660028111156126305761262f613e6e565b5b14612670576040517f08c379a000000000000000000000000000000000000000000000000000000000815260040161266790614ea0565b60405180910390fd5b6000805b84518110156126b8578481815181106126905761268f614b8e565b5b6020026020010151826126a39190614a6f565b915080806126b090614bbd565b915050612674565b5081600801548111156126ca57600080fd5b6000805b83600501805490508110156127e65760005b87518110156127d2576127b585600501838154811061270257612701614b8e565b5b90600052602060002001805461271790614840565b80601f016020809104026020016040519081016040528092919081815260200182805461274390614840565b80156127905780601f1061276557610100808354040283529160200191612790565b820191906000526020600020905b81548152906001019060200180831161277357829003601f168201915b50505050508983815181106127a8576127a7614b8e565b5b6020026020010151613a76565b156127bf57600192505b80806127ca90614bbd565b9150506126e0565b5080806127de90614bbd565b9150506126ce565b5060011515811515146127f857600080fd5b60005b836005018054905081101561296b5760005b8751811015612957576128e285600501838154811061282f5761282e614b8e565b5b90600052602060002001805461284490614840565b80601f016020809104026020016040519081016040528092919081815260200182805461287090614840565b80156128bd5780601f10612892576101008083540402835291602001916128bd565b820191906000526020600020905b8154815290600101906020018083116128a057829003601f168201915b50505050508983815181106128d5576128d4614b8e565b5b6020026020010151613a76565b1561294457858782815181106128fb576128fa614b8e565b5b602002602001015161290d9190614a15565b85600601838154811061292357612922614b8e565b5b90600052602060002001600082825461293c9190614a6f565b925050819055505b808061294f90614bbd565b91505061280d565b50808061296390614bbd565b9150506127fb565b506001600560003373ffffffffffffffffffffffffffffffffffffffff1673ffffffffffffffffffffffffffffffffffffffff168152602001908152602001600020600089815260200190815260200160002060006101000a81548160ff021916908315150217905550600a60009054906101000a900473ffffffffffffffffffffffffffffffffffffffff1673ffffffffffffffffffffffffffffffffffffffff1663fc13d51888336040518363ffffffff1660e01b8152600401612a32929190614ec0565b600060405180830381600087803b158015612a4c57600080fd5b505af1158015612a60573d6000803e3d6000fd5b5050505050505050505050565b60006001600b60009054906101000a900473ffffffffffffffffffffffffffffffffffffffff1673ffffffffffffffffffffffffffffffffffffffff166370a08231846040518263ffffffff1660e01b8152600401612acc91906148dd565b602060405180830381865afa158015612ae9573d6000803e3d6000fd5b505050506040513d601f19601f82011682018060405250810190612b0d9190614c1a565b10612b1b5760019050612e3d565b6000600360009054906101000a900473ffffffffffffffffffffffffffffffffffffffff1673ffffffffffffffffffffffffffffffffffffffff16637a57c0ff6002546040518263ffffffff1660e01b8152600401612b7a9190614011565b602060405180830381865afa158015612b97573d6000803e3d6000fd5b505050506040513d601f19601f82011682018060405250810190612bbb91906150ab565b90506000600360009054906101000a900473ffffffffffffffffffffffffffffffffffffffff1673ffffffffffffffffffffffffffffffffffffffff16632c36b4b4836040518263ffffffff1660e01b8152600401612c1a91906150f9565b602060405180830381865afa158015612c37573d6000803e3d6000fd5b505050506040513d601f19601f82011682018060405250810190612c5b91906150ab565b905060005b600073ffffffffffffffffffffffffffffffffffffffff168273ffffffffffffffffffffffffffffffffffffffff1614612e3657670de0b6b3a76400008273ffffffffffffffffffffffffffffffffffffffff1663f70e51a76040518163ffffffff1660e01b8152600401602060405180830381865afa158015612ce8573d6000803e3d6000fd5b505050506040513d601f19601f82011682018060405250810190612d0c9190615152565b73ffffffffffffffffffffffffffffffffffffffff166370a08231876040518263ffffffff1660e01b8152600401612d4491906148dd565b602060405180830381865afa158015612d61573d6000803e3d6000fd5b505050506040513d601f19601f82011682018060405250810190612d859190614c1a565b10612d935760019050612e36565b600360009054906101000a900473ffffffffffffffffffffffffffffffffffffffff1673ffffffffffffffffffffffffffffffffffffffff16632c36b4b4836040518263ffffffff1660e01b8152600401612dee91906150f9565b602060405180830381865afa158015612e0b573d6000803e3d6000fd5b505050506040513d601f19601f82011682018060405250810190612e2f91906150ab565b9150612c60565b8093505050505b919050565b6007602052816000526040600020602052806000526040600020600091509150505481565b600b60009054906101000a900473ffffffffffffffffffffffffffffffffffffffff1673ffffffffffffffffffffffffffffffffffffffff1663396473f7336040518263ffffffff1660e01b8152600401612ec291906148dd565b6020604051808303816000875af1158015612ee1573d6000803e3d6000fd5b505050506040513d601f19601f82011682018060405250810190612f059190614924565b50565b612f1133612a6d565b612f50576040517f08c379a0000000000000000000000000000000000000000000000000000000008152600401612f47906151f1565b60405180910390fd5b606060008203612f97576040518060400160405280600681526020017f6e6f726d616c00000000000000000000000000000000000000000000000000008152509050612fd9565b60018203612fd8576040518060400160405280600881526020017f776569676874656400000000000000000000000000000000000000000000000081525090505b5b604051806101400160405280600c5481526020013373ffffffffffffffffffffffffffffffffffffffff16815260200188815260200187815260200142815260200186815260200185815260200160028081111561303a57613039613e6e565b5b81526020018481526020018281525060046000600c5481526020019081526020016000206000820151816000015560208201518160010160006101000a81548173ffffffffffffffffffffffffffffffffffffffff021916908373ffffffffffffffffffffffffffffffffffffffff16021790555060408201518160020190805190602001906130cb929190613b5a565b5060608201518160030190805190602001906130e8929190613b5a565b506080820151816004015560a082015181600501908051906020019061310f929190613be0565b5060c082015181600601908051906020019061312c929190613c40565b5060e08201518160070160006101000a81548160ff0219169083600281111561315857613157613e6e565b5b02179055506101008201518160080155610120820151816009019080519060200190613185929190613b5a565b50905050600c600081548092919061319c90614bbd565b9190505550600a60009054906101000a900473ffffffffffffffffffffffffffffffffffffffff1673ffffffffffffffffffffffffffffffffffffffff1663a19dea70600c546040518263ffffffff1660e01b81526004016131fe9190614011565b600060405180830381600087803b15801561321857600080fd5b505af115801561322c573d6000803e3d6000fd5b5050505050505050505050565b60005b600c548110156134475760028081111561325957613258613e6e565b5b6004600083815260200190815260200160002060070160009054906101000a900460ff16600281111561328f5761328e613e6e565b5b1461332457600a60009054906101000a900473ffffffffffffffffffffffffffffffffffffffff1673ffffffffffffffffffffffffffffffffffffffff1663ff2b5fa182336040518363ffffffff1660e01b81526004016132f1929190614ec0565b600060405180830381600087803b15801561330b57600080fd5b505af115801561331f573d6000803e3d6000fd5b505050505b7f4c42442933829b3de657efc6a23fbe895206dd2453c5a00c3e26d2e969f8272760046000838152602001908152602001600020600001546004600084815260200190815260200160002060010160009054906101000a900473ffffffffffffffffffffffffffffffffffffffff16600460008581526020019081526020016000206002016004600086815260200190815260200160002060030160046000878152602001908152602001600020600501600460008881526020019081526020016000206006016004600089815260200190815260200160002060080154600460008a815260200190815260200160002060090160405161342c9897969594939291906154b1565b60405180910390a1808061343f90614bbd565b91505061323c565b50565b60606000600460008481526020019081526020016000206006018054905067ffffffffffffffff8111156134815761348061415f565b5b6040519080825280602002602001820160405280156134af5781602001602082028036833780820191505090505b50905060005b600460008581526020019081526020016000206006018054905081101561353b576004600085815260200190815260200160002060060181815481106134fe576134fd614b8e565b5b906000526020600020015482828151811061351c5761351b614b8e565b5b602002602001018181525050808061353390614bbd565b9150506134b5565b5080915050919050565b60086020528060005260406000206000915090505481565b6060600060046000848152602001908152602001600020600901805461358290614840565b80601f01602080910402602001604051908101604052809291908181526020018280546135ae90614840565b80156135fb5780601f106135d0576101008083540402835291602001916135fb565b820191906000526020600020905b8154815290600101906020018083116135de57829003601f168201915b5050505050905080915050919050565b600a60009054906101000a900473ffffffffffffffffffffffffffffffffffffffff1681565b60066020528160005260406000206020528060005260406000206000915091509054906101000a900460ff1681565b6000805461366d90614840565b80601f016020809104026020016040519081016040528092919081815260200182805461369990614840565b80156136e65780601f106136bb576101008083540402835291602001916136e6565b820191906000526020600020905b8154815290600101906020018083116136c957829003601f168201915b505050505081565b600a60009054906101000a900473ffffffffffffffffffffffffffffffffffffffff1673ffffffffffffffffffffffffffffffffffffffff1663a95bbced836040518263ffffffff1660e01b815260040161374991906148dd565b602060405180830381865afa158015613766573d6000803e3d6000fd5b505050506040513d601f19601f8201168201806040525081019061378a9190614c1a565b8111156137cc576040517f08c379a00000000000000000000000000000000000000000000000000000000081526004016137c390614c93565b60405180910390fd5b600a60009054906101000a900473ffffffffffffffffffffffffffffffffffffffff1673ffffffffffffffffffffffffffffffffffffffff1663490169348333846040518463ffffffff1660e01b815260040161382b93929190614cb3565b6020604051808303816000875af115801561384a573d6000803e3d6000fd5b505050506040513d601f19601f8201168201806040525081019061386e9190614924565b505050565b600b60009054906101000a900473ffffffffffffffffffffffffffffffffffffffff1681565b6138a233612a6d565b6138e1576040517f08c379a00000000000000000000000000000000000000000000000000000000081526004016138d8906149c6565b60405180910390fd5b670de0b6b3a7640000816138f59190614a15565b600860008473ffffffffffffffffffffffffffffffffffffffff1673ffffffffffffffffffffffffffffffffffffffff16815260200190815260200160002060008282546139439190614a6f565b925050819055505050565b600360009054906101000a900473ffffffffffffffffffffffffffffffffffffffff1673ffffffffffffffffffffffffffffffffffffffff166350ee8e8f3083336040518463ffffffff1660e01b81526004016139ad93929190615552565b600060405180830381600087803b1580156139c757600080fd5b505af11580156139db573d6000803e3d6000fd5b5050505050565b600360009054906101000a900473ffffffffffffffffffffffffffffffffffffffff1673ffffffffffffffffffffffffffffffffffffffff1663205cdcff3083336040518463ffffffff1660e01b8152600401613a4193929190615552565b600060405180830381600087803b158015613a5b57600080fd5b505af1158015613a6f573d6000803e3d6000fd5b5050505050565b600080839050600083905060008251905081518114613a9b5760009350505050613b54565b60005b81811015613b4b57828181518110613ab957613ab8614b8e565b5b602001015160f81c60f81b7effffffffffffffffffffffffffffffffffffffffffffffffffffffffffffff1916848281518110613af957613af8614b8e565b5b602001015160f81c60f81b7effffffffffffffffffffffffffffffffffffffffffffffffffffffffffffff191614613b38576000945050505050613b54565b8080613b4390614bbd565b915050613a9e565b50600193505050505b92915050565b828054613b6690614840565b90600052602060002090601f016020900481019282613b885760008555613bcf565b82601f10613ba157805160ff1916838001178555613bcf565b82800160010185558215613bcf579182015b82811115613bce578251825591602001919060010190613bb3565b5b509050613bdc9190613c8d565b5090565b828054828255906000526020600020908101928215613c2f579160200282015b82811115613c2e578251829080519060200190613c1e929190613b5a565b5091602001919060010190613c00565b5b509050613c3c9190613caa565b5090565b828054828255906000526020600020908101928215613c7c579160200282015b82811115613c7b578251825591602001919060010190613c60565b5b509050613c899190613c8d565b5090565b5b80821115613ca6576000816000905550600101613c8e565b5090565b5b80821115613cca5760008181613cc19190613cce565b50600101613cab565b5090565b508054613cda90614840565b6000825580601f10613cec5750613d0b565b601f016020900490600052602060002090810190613d0a9190613c8d565b5b50565b6000604051905090565b600080fd5b600080fd5b6000819050919050565b613d3581613d22565b8114613d4057600080fd5b50565b600081359050613d5281613d2c565b92915050565b600060208284031215613d6e57613d6d613d18565b5b6000613d7c84828501613d43565b91505092915050565b613d8e81613d22565b82525050565b600073ffffffffffffffffffffffffffffffffffffffff82169050919050565b6000613dbf82613d94565b9050919050565b613dcf81613db4565b82525050565b600081519050919050565b600082825260208201905092915050565b60005b83811015613e0f578082015181840152602081019050613df4565b83811115613e1e576000848401525b50505050565b6000601f19601f8301169050919050565b6000613e4082613dd5565b613e4a8185613de0565b9350613e5a818560208601613df1565b613e6381613e24565b840191505092915050565b7f4e487b7100000000000000000000000000000000000000000000000000000000600052602160045260246000fd5b60038110613eae57613ead613e6e565b5b50565b6000819050613ebf82613e9d565b919050565b6000613ecf82613eb1565b9050919050565b613edf81613ec4565b82525050565b600061010082019050613efb600083018b613d85565b613f08602083018a613dc6565b8181036040830152613f1a8189613e35565b90508181036060830152613f2e8188613e35565b9050613f3d6080830187613d85565b613f4a60a0830186613ed6565b613f5760c0830185613d85565b81810360e0830152613f698184613e35565b90509998505050505050505050565b613f8181613db4565b8114613f8c57600080fd5b50565b600081359050613f9e81613f78565b92915050565b600060208284031215613fba57613fb9613d18565b5b6000613fc884828501613f8f565b91505092915050565b60008060408385031215613fe857613fe7613d18565b5b6000613ff685828601613f8f565b925050602061400785828601613d43565b9150509250929050565b60006020820190506140266000830184613d85565b92915050565b600081519050919050565b600082825260208201905092915050565b6000819050602082019050919050565b600082825260208201905092915050565b600061407482613dd5565b61407e8185614058565b935061408e818560208601613df1565b61409781613e24565b840191505092915050565b60006140ae8383614069565b905092915050565b6000602082019050919050565b60006140ce8261402c565b6140d88185614037565b9350836020820285016140ea85614048565b8060005b85811015614126578484038952815161410785826140a2565b9450614112836140b6565b925060208a019950506001810190506140ee565b50829750879550505050505092915050565b6000602082019050818103600083015261415281846140c3565b905092915050565b600080fd5b7f4e487b7100000000000000000000000000000000000000000000000000000000600052604160045260246000fd5b61419782613e24565b810181811067ffffffffffffffff821117156141b6576141b561415f565b5b80604052505050565b60006141c9613d0e565b90506141d5828261418e565b919050565b600067ffffffffffffffff8211156141f5576141f461415f565b5b602082029050602081019050919050565b600080fd5b600080fd5b600067ffffffffffffffff82111561422b5761422a61415f565b5b61423482613e24565b9050602081019050919050565b82818337600083830152505050565b600061426361425e84614210565b6141bf565b90508281526020810184848401111561427f5761427e61420b565b5b61428a848285614241565b509392505050565b600082601f8301126142a7576142a661415a565b5b81356142b7848260208601614250565b91505092915050565b60006142d36142ce846141da565b6141bf565b905080838252602082019050602084028301858111156142f6576142f5614206565b5b835b8181101561433d57803567ffffffffffffffff81111561431b5761431a61415a565b5b8086016143288982614292565b855260208501945050506020810190506142f8565b5050509392505050565b600082601f83011261435c5761435b61415a565b5b813561436c8482602086016142c0565b91505092915050565b600067ffffffffffffffff8211156143905761438f61415f565b5b602082029050602081019050919050565b60006143b46143af84614375565b6141bf565b905080838252602082019050602084028301858111156143d7576143d6614206565b5b835b8181101561440057806143ec8882613d43565b8452602084019350506020810190506143d9565b5050509392505050565b600082601f83011261441f5761441e61415a565b5b813561442f8482602086016143a1565b91505092915050565b60008060006060848603121561445157614450613d18565b5b600061445f86828701613d43565b935050602084013567ffffffffffffffff8111156144805761447f613d1d565b5b61448c86828701614347565b925050604084013567ffffffffffffffff8111156144ad576144ac613d1d565b5b6144b98682870161440a565b9150509250925092565b600060208201905081810360008301526144dd8184613e35565b905092915050565b60008115159050919050565b6144fa816144e5565b82525050565b600060208201905061451560008301846144f1565b92915050565b6000806000806080858703121561453557614534613d18565b5b600061454387828801613d43565b945050602085013567ffffffffffffffff81111561456457614563613d1d565b5b61457087828801614347565b935050604085013567ffffffffffffffff81111561459157614590613d1d565b5b61459d8782880161440a565b92505060606145ae87828801613d43565b91505092959194509250565b60008060008060008060c087890312156145d7576145d6613d18565b5b600087013567ffffffffffffffff8111156145f5576145f4613d1d565b5b61460189828a01614292565b965050602087013567ffffffffffffffff81111561462257614621613d1d565b5b61462e89828a01614292565b955050604087013567ffffffffffffffff81111561464f5761464e613d1d565b5b61465b89828a01614347565b945050606087013567ffffffffffffffff81111561467c5761467b613d1d565b5b61468889828a0161440a565b935050608061469989828a01613d43565b92505060a06146aa89828a01613d43565b9150509295509295509295565b600081519050919050565b600082825260208201905092915050565b6000819050602082019050919050565b6146ec81613d22565b82525050565b60006146fe83836146e3565b60208301905092915050565b6000602082019050919050565b6000614722826146b7565b61472c81856146c2565b9350614737836146d3565b8060005b8381101561476857815161474f88826146f2565b975061475a8361470a565b92505060018101905061473b565b5085935050505092915050565b6000602082019050818103600083015261478f8184614717565b905092915050565b6000819050919050565b60006147bc6147b76147b284613d94565b614797565b613d94565b9050919050565b60006147ce826147a1565b9050919050565b60006147e0826147c3565b9050919050565b6147f0816147d5565b82525050565b600060208201905061480b60008301846147e7565b92915050565b7f4e487b7100000000000000000000000000000000000000000000000000000000600052602260045260246000fd5b6000600282049050600182168061485857607f821691505b60208210810361486b5761486a614811565b5b50919050565b7f646f6573206e6f74206861766520796b2070726976696c696765730000000000600082015250565b60006148a7601b83613de0565b91506148b282614871565b602082019050919050565b600060208201905081810360008301526148d68161489a565b9050919050565b60006020820190506148f26000830184613dc6565b92915050565b614901816144e5565b811461490c57600080fd5b50565b60008151905061491e816148f8565b92915050565b60006020828403121561493a57614939613d18565b5b60006149488482850161490f565b91505092915050565b60006040820190506149666000830185613dc6565b6149736020830184613dc6565b9392505050565b7f4e6f74206120594b000000000000000000000000000000000000000000000000600082015250565b60006149b0600883613de0565b91506149bb8261497a565b602082019050919050565b600060208201905081810360008301526149df816149a3565b9050919050565b7f4e487b7100000000000000000000000000000000000000000000000000000000600052601160045260246000fd5b6000614a2082613d22565b9150614a2b83613d22565b9250817fffffffffffffffffffffffffffffffffffffffffffffffffffffffffffffffff0483118215151615614a6457614a636149e6565b5b828202905092915050565b6000614a7a82613d22565b9150614a8583613d22565b9250827fffffffffffffffffffffffffffffffffffffffffffffffffffffffffffffffff03821115614aba57614ab96149e6565b5b828201905092915050565b6000604082019050614ada6000830185613dc6565b614ae76020830184613d85565b9392505050565b7f4e6f7420656e6f75676820736861726573000000000000000000000000000000600082015250565b6000614b24601183613de0565b9150614b2f82614aee565b602082019050919050565b60006020820190508181036000830152614b5381614b17565b9050919050565b6000614b6582613d22565b9150614b7083613d22565b925082821015614b8357614b826149e6565b5b828203905092915050565b7f4e487b7100000000000000000000000000000000000000000000000000000000600052603260045260246000fd5b6000614bc882613d22565b91507fffffffffffffffffffffffffffffffffffffffffffffffffffffffffffffffff8203614bfa57614bf96149e6565b5b600182019050919050565b600081519050614c1481613d2c565b92915050565b600060208284031215614c3057614c2f613d18565b5b6000614c3e84828501614c05565b91505092915050565b7f6e6f7420656e6f756768206465627420736f6d65686f77000000000000000000600082015250565b6000614c7d601783613de0565b9150614c8882614c47565b602082019050919050565b60006020820190508181036000830152614cac81614c70565b9050919050565b6000606082019050614cc86000830186613dc6565b614cd56020830185613dc6565b614ce26040830184613d85565b949350505050565b7f616c726561647920766f74656400000000000000000000000000000000000000600082015250565b6000614d20600d83613de0565b9150614d2b82614cea565b602082019050919050565b60006020820190508181036000830152614d4f81614d13565b9050919050565b7f4e6f7420656e6f7567682073686172657320746f20766f7465206f6e2061207060008201527f726f706f73616c00000000000000000000000000000000000000000000000000602082015250565b6000614db2602783613de0565b9150614dbd82614d56565b604082019050919050565b60006020820190508181036000830152614de181614da5565b9050919050565b7f566f74696e6720706572696f64206973206f7665720000000000000000000000600082015250565b6000614e1e601583613de0565b9150614e2982614de8565b602082019050919050565b60006020820190508181036000830152614e4d81614e11565b9050919050565b7f566f74696e6720706572696f642069732066696e697368656400000000000000600082015250565b6000614e8a601983613de0565b9150614e9582614e54565b602082019050919050565b60006020820190508181036000830152614eb981614e7d565b9050919050565b6000604082019050614ed56000830185613d85565b614ee26020830184613dc6565b9392505050565b7f4e487b7100000000000000000000000000000000000000000000000000000000600052601260045260246000fd5b6000614f2382613d22565b9150614f2e83613d22565b925082614f3e57614f3d614ee9565b5b828204905092915050565b7f446f6e74206861766520656e6f75676820746f6b656e7320286368616e67652060008201527f7765696768742900000000000000000000000000000000000000000000000000602082015250565b6000614fa5602783613de0565b9150614fb082614f49565b604082019050919050565b60006020820190508181036000830152614fd481614f98565b9050919050565b7f446f6e74206861766520656e6f75676820746f6b656e7320286c69746572616c60008201527f6c79203029000000000000000000000000000000000000000000000000000000602082015250565b6000615037602583613de0565b915061504282614fdb565b604082019050919050565b600060208201905081810360008301526150668161502a565b9050919050565b600061507882613db4565b9050919050565b6150888161506d565b811461509357600080fd5b50565b6000815190506150a58161507f565b92915050565b6000602082840312156150c1576150c0613d18565b5b60006150cf84828501615096565b91505092915050565b60006150e3826147c3565b9050919050565b6150f3816150d8565b82525050565b600060208201905061510e60008301846150ea565b92915050565b600061511f82613db4565b9050919050565b61512f81615114565b811461513a57600080fd5b50565b60008151905061514c81615126565b92915050565b60006020828403121561516857615167613d18565b5b60006151768482850161513d565b91505092915050565b7f4e6f7420656e6f7567682073686172657320746f20637265617465206120707260008201527f6f706f73616c0000000000000000000000000000000000000000000000000000602082015250565b60006151db602683613de0565b91506151e68261517f565b604082019050919050565b6000602082019050818103600083015261520a816151ce565b9050919050565b60008190508160005260206000209050919050565b6000815461523381614840565b61523d8186613de0565b94506001821660008114615258576001811461526a5761529d565b60ff198316865260208601935061529d565b61527385615211565b60005b8381101561529557815481890152600182019150602081019050615276565b808801955050505b50505092915050565b600081549050919050565b60008190508160005260206000209050919050565b600081546152d381614840565b6152dd8186614058565b945060018216600081146152f8576001811461530a5761533d565b60ff198316865260208601935061533d565b61531385615211565b60005b8381101561533557815481890152600182019150602081019050615316565b808801955050505b50505092915050565b600061535283836152c6565b905092915050565b6000600182019050919050565b6000615372826152a6565b61537c8185614037565b93508360208202850161538e856152b1565b8060005b858110156153c9578484038952816153aa8582615346565b94506153b58361535a565b925060208a01995050600181019050615392565b50829750879550505050505092915050565b600081549050919050565b60008190508160005260206000209050919050565b60008160001c9050919050565b6000819050919050565b6000615425615420836153fb565b615408565b9050919050565b60006154388254615412565b9050919050565b6000600182019050919050565b6000615457826153db565b61546181856146c2565b935061546c836153e6565b8060005b838110156154a4576154818261542c565b61548b88826146f2565b97506154968361543f565b925050600181019050615470565b5085935050505092915050565b6000610100820190506154c7600083018b613d85565b6154d4602083018a613dc6565b81810360408301526154e68189615226565b905081810360608301526154fa8188615226565b9050818103608083015261550e8187615367565b905081810360a0830152615522818661544c565b905061553160c0830185613d85565b81810360e08301526155438184615226565b90509998505050505050505050565b600060608201905061556760008301866150ea565b6155746020830185613d85565b6155816040830184613dc6565b94935050505056fea264697066735822122007799854059bae553b74fa7b9f254a2abb4cc6932977ac26015245bb0f40263564736f6c634300080d0033",
  "immutableReferences": {},
  "source": "// SPDX-License-Identifier: GPL-3.0\r\n\r\npragma solidity >=0.7.0 <0.9.0;\r\npragma experimental ABIEncoderV2;\r\n\r\nimport \"./itoken.sol\";\r\nimport \"./newFactory1.sol\";\r\n\r\n\r\n\r\ncontract MyDAO {\r\n    string public dao_name;\r\n    string public dao_description;\r\n    uint256 dao_id;\r\n    enum VotingOptions { Yes, No }\r\n    enum Status     { Accepted, Rejected, Pending }\r\n    \r\n\r\n    \r\n\r\n    struct Proposal {\r\n        uint256 id;\r\n        address author;\r\n        string name;\r\n        string proposal_description;\r\n        uint256 createdAt;\r\n        string[] options;\r\n        uint256[] options_num;\r\n        Status status;\r\n        uint256 power;\r\n        string proposal_info_type;\r\n\r\n    }   \r\n    \r\n\r\n    function stringsEquals(string memory s1, string memory s2) private pure returns (bool) {\r\n        bytes memory b1 = bytes(s1);\r\n        bytes memory b2 = bytes(s2);\r\n        uint256 l1 = b1.length;\r\n        if (l1 != b2.length) return false;\r\n        for (uint256 i=0; i<l1; i++) {\r\n            if (b1[i] != b2[i]) return false;\r\n        }\r\n        return true;\r\n    }\r\n\r\n    DAOFactory factory;\r\n\r\n    // store all proposals\r\n    mapping(uint => Proposal) public proposals;    \r\n    //to print out proposals\r\n    event proposal_info(uint256 id, address author, string name,string proposal_description, string[] options, uint256[] num_options, uint256 power, string proposal_info_type);\r\n    // who already votes for who and to avoid vote twice\r\n    mapping(address => mapping(uint => bool)) public votes;\r\n    mapping(address => mapping(uint => bool)) public tokens_not_refunded;\r\n    mapping(address => mapping(uint => uint)) public token_amount_to_be_refunded;\r\n    // one share for governance tokens\r\n    mapping(address => uint256) public voter_shares_to_be_given;\r\n    mapping(address => uint256) public yk_shares_to_be_given;\r\n\r\n    // the IERC20 allow us to use avax like our governance token.\r\n    ISUToken public voter_token;\r\n    ISUToken public yk_token;\r\n    // the user need minimum 25 AVAX to create a proposal.\r\n    uint constant CREATE_PROPOSAL_MIN_SHARE = 1 * 10 ** 18;\r\n    uint constant VOTING_PERIOD = 7 days;\r\n    uint public nextProposalId;\r\n    \r\n    mapping(address => bool) transferLock;\r\n\r\n    constructor(string memory _dao_name, string memory _dao_description,uint _dao_id, address first_yk, ISUToken yk_token_in, ISUToken voter_token_in, DAOFactory _factory) {\r\n        factory = _factory;\r\n        dao_name = _dao_name;\r\n        dao_id=_dao_id;\r\n        dao_description = _dao_description;\r\n        yk_token = yk_token_in; // AVAX address\r\n        voter_token = voter_token_in;\r\n\r\n        //maybe mintabele amount can be taken as an input and 1000 yerine konabilir\r\n        yk_shares_to_be_given[first_yk] += (1 * 10 ** 18);\r\n        \r\n        voter_shares_to_be_given[first_yk] += (1 * 10 ** 18);\r\n\r\n    }\r\n\r\n    function mint_from_DAO_yk_token(uint _amount) internal {\r\n        factory.mint_dao_yk(this, _amount, msg.sender);\r\n    }\r\n\r\n    function mint_from_DAO_voter_token(uint _amount) internal {\r\n        factory.mint_dao_voter(this, _amount, msg.sender);\r\n    }\r\n\r\n\r\n    function iterate_proposals() public //ama sanirim boyle degilde teker teker yapmamiz gerekcek cok pahali olabilir obur turlu\r\n    {\r\n        for(uint i=0;i<nextProposalId;i++) //degistirmedim cunku artik sirf bunu kullaniriz yani\r\n        {\r\n            if(proposals[i].status != Status.Pending){\r\n                voter_token.update_active_voter_lock_off(i, msg.sender);\r\n            }\r\n\r\n            emit proposal_info(proposals[i].id, proposals[i].author, proposals[i].name,proposals[i].proposal_description, proposals[i].options, proposals[i].options_num, proposals[i].power, proposals[i].proposal_info_type);\r\n\r\n        }\r\n        \r\n    }        \r\n\r\n    function accept_proposal(uint _proposalId) external {\r\n        proposals[_proposalId].status = Status.Accepted;\r\n    }\r\n\r\n    function reject_proposal(uint _proposalId) external {\r\n        proposals[_proposalId].status = Status.Rejected;\r\n    \r\n    }    \r\n\r\n    function pending_proposal(uint _proposalId) external {\r\n        proposals[_proposalId].status = Status.Pending;\r\n    }       \r\n\r\n        \r\n\r\n\r\n    function withdraw_voter_tokens(uint _amount) external {\r\n        require(voter_shares_to_be_given[msg.sender] >= _amount*10**18, 'Not enough shares');\r\n        voter_shares_to_be_given[msg.sender] -= (_amount * 10 ** 18);\r\n        voter_token.transferDAO(msg.sender, (_amount * 10 ** 18));\r\n        mint_from_DAO_voter_token(_amount);\r\n    }    \r\n\r\n\r\n\r\n    \r\n\r\n\r\n    function withdraw_yk_tokens(uint _amount) external {\r\n        require(yk_shares_to_be_given[msg.sender] >= _amount, 'Not enough shares');\r\n        yk_shares_to_be_given[msg.sender] -= (_amount * 10 ** 18);\r\n        yk_token.transferDAO(msg.sender, (_amount * 10 ** 18));\r\n        mint_from_DAO_yk_token(_amount);\r\n\r\n    }    \r\n    \r\n    function send_yk_tokens_to_address_yk(address yk_candidate, uint _amount) external {\r\n        require(has_yk_priviliges(msg.sender), 'Not a YK');\r\n        //yk_shares[msg.sender] -= (_amount * 10 ** 18);\r\n        //totalShares -= (_amount * 10 ** 18);\r\n        //total_yk_shares -= (_amount * 10 ** 18);\r\n        //neden olmuyor bu\r\n        //yk_token.transfer(yk_candidate, _amount * 18 **18);\r\n        yk_shares_to_be_given[yk_candidate] += _amount * 10 ** 18;\r\n        //yk_token.transfer(yk_candidate, (_amount * 10 ** 18));\r\n    } \r\n\r\n    function send_yk_tokens_to_address_yk_directly(address yk_candidate, uint _amount) external {\r\n        require(has_yk_priviliges(msg.sender) , 'Not a YK');\r\n        //yk_shares[msg.sender] -= (_amount * 10 ** 18);\r\n        //totalShares -= (_amount * 10 ** 18);\r\n        //total_yk_shares -= (_amount * 10 ** 18);\r\n        //neden olmuyor bu\r\n        //yk_token.transfer(yk_candidate, _amount * 18 **18);\r\n        //yk_shares_to_be_given[yk_candidate] += _amount * 10 ** 18;\r\n        //yk_token.transfer(yk_candidate, (_amount * 10 ** 18));\r\n        yk_token.transferDAO(yk_candidate, (_amount * 10 ** 18));\r\n        mint_from_DAO_yk_token(_amount);\r\n    } \r\n \r\n \r\n    function send_voter_tokens_to_address_yk(address voter_candidate, uint _amount) external {\r\n        require(has_yk_priviliges(msg.sender), 'Not a YK');\r\n        //yk_shares[msg.sender] -= (_amount * 10 ** 18);\r\n        //totalShares -= (_amount * 10 ** 18);\r\n        //total_yk_shares -= (_amount * 10 ** 18);\r\n        //ones above are in comments becaue this whole process is done in the contract\r\n        voter_shares_to_be_given[voter_candidate] += _amount * 10 ** 18;\r\n        //voter_token.transfer(voter_candidate, (_amount * 10 ** 18));\r\n    }                   \r\n\r\n    function send_voter_tokens_to_address_yk_directly(address voter_candidate, uint _amount) external {\r\n        require(has_yk_priviliges(msg.sender) , 'Not a YK');\r\n        //yk_shares[msg.sender] -= (_amount * 10 ** 18);\r\n        //totalShares -= (_amount * 10 ** 18);\r\n        //total_yk_shares -= (_amount * 10 ** 18);\r\n        //ones above are in comments becaue this whole process is done in the contract\r\n        voter_token.transferDAO(voter_candidate, (_amount * 10 ** 18));\r\n        mint_from_DAO_voter_token(_amount);\r\n\r\n        //voter_token.transfer(voter_candidate, (_amount * 10 ** 18));\r\n    }        \r\n    //in yk functions token verification tokens have to be in the contract however in voter sending function \r\n     \r\n\r\n    function createProposal(string memory name,string memory description, string[] memory _options, uint256[] memory _options_num, uint256 _power, uint256 _type) external {\r\n        // validate the user has enough shares to create a proposal\r\n        //require(yk_token.balanceOf(msg.sender) >= CREATE_PROPOSAL_MIN_SHARE, 'Not enough shares to create a proposal');\r\n        require(has_yk_priviliges(msg.sender), 'Not enough shares to create a proposal');\r\n        string memory proposal_type;\r\n        //sorun olursa buradan\r\n        if(_type == 0){\r\n            proposal_type = \"normal\";\r\n        }\r\n        else if(_type == 1){\r\n            proposal_type = \"weighted\";\r\n        }\r\n\r\n        proposals[nextProposalId] = Proposal(\r\n            nextProposalId,\r\n            msg.sender,\r\n            name,\r\n            description,\r\n            block.timestamp,\r\n            _options,\r\n            _options_num,\r\n            Status.Pending,\r\n            _power,\r\n            proposal_type\r\n        );\r\n        nextProposalId++; //might need\r\n        voter_token.update_proposal_num(nextProposalId);\r\n    }      \r\n\r\n\r\n    function vote_power(uint _proposalId, string[] memory _vote, uint[] memory _power) external {\r\n        Proposal storage proposal = proposals[_proposalId];\r\n        require(votes[msg.sender][_proposalId] == false, 'already voted');\r\n        //i check if the user is a yk or has voter shares\r\n        require(voter_token.balanceOf(msg.sender) > 0, 'Not enough shares to vote on a proposal');\r\n        //bu alttaki sadece 1 kez oylamayi garantilemek icin, teoride bunu kullanmayacakgiz\r\n        //requires(tokens_refunded[msg.sender][_proposalId] == false, 'Already voted);\r\n        require(block.timestamp <= proposal.createdAt + VOTING_PERIOD, 'Voting period is over');\r\n        require(proposals[_proposalId].status == Status.Pending, 'Voting period is finished');\r\n        uint total_power = 0; \r\n        for(uint i=0;i<_power.length;i++) //checks if the amount of votes given is equal to the max amount of votes\r\n        {\r\n            total_power = total_power + _power[i];\r\n        }          \r\n        require(total_power <= proposal.power);\r\n        bool init = false;\r\n        //asagida yaptiklarim: iste yapiyo yazmaya usendim\r\n        for(uint i=0;i<proposal.options.length;i++)\r\n        {\r\n            for(uint y=0; y<_vote.length; y++){\r\n                \r\n                if(stringsEquals(proposal.options[i], _vote[y])){\r\n                    init = true;\r\n                }\r\n            }\r\n        }           \r\n        require(init == true);\r\n        /** make sure to add the necessary require checks */\r\n\r\n        for(uint i=0;i<proposal.options.length;i++)\r\n        {\r\n            for(uint y=0; y<_vote.length; y++){\r\n                if(stringsEquals(proposal.options[i], _vote[y])){\r\n                    proposal.options_num[i]+= _power[y];\r\n                }\r\n            }\r\n        }\r\n\r\n        votes[msg.sender][_proposalId] = true;\r\n        voter_token.update_active_voter_lock_on(_proposalId, msg.sender);\r\n\r\n\r\n        \r\n    }  \r\n\r\n    \r\n\r\n    function vote_power_weighted(uint _proposalId, string[] memory _vote, uint[] memory _power, uint weight) external {\r\n        Proposal storage proposal = proposals[_proposalId];\r\n        require(votes[msg.sender][_proposalId] == false, 'already voted');\r\n        require(weight <= (voter_token.balanceOf(msg.sender) / (10 ** 18)), \"Dont have enough tokens (change weight)\" );\r\n\r\n        //i check if the user is a yk or has voter shares\r\n        require(voter_token.balanceOf(msg.sender) > 0, \"Dont have enough tokens (literally 0)\");\r\n        //bu alttaki sadece 1 kez oylamayi garantilemek icin, teoride bunu kullanmayacakgiz\r\n        //requires(tokens_refunded[msg.sender][_proposalId] == false, 'Already voted);\r\n        require(block.timestamp <= proposal.createdAt + VOTING_PERIOD, 'Voting period is over');\r\n        require(proposals[_proposalId].status == Status.Pending, 'Voting period is finished');\r\n        uint total_power = 0; \r\n        for(uint i=0;i<_power.length;i++) //checks if the amount of votes given is equal to the max amount of votes\r\n        {\r\n            total_power = total_power + _power[i];\r\n        }          \r\n        require(total_power <= proposal.power);\r\n        bool init = false;\r\n        //asagida yaptiklarim: iste yapiyo yazmaya usendim\r\n        for(uint i=0;i<proposal.options.length;i++)\r\n        {\r\n            for(uint y=0; y<_vote.length; y++){\r\n                \r\n                if(stringsEquals(proposal.options[i], _vote[y])){\r\n                    init = true;\r\n                }\r\n            }\r\n        }           \r\n        require(init == true);\r\n        /** make sure to add the necessary require checks */\r\n\r\n        \r\n\r\n        for(uint i=0;i<proposal.options.length;i++)\r\n        {\r\n            for(uint y=0; y<_vote.length; y++){\r\n                if(stringsEquals(proposal.options[i], _vote[y])){\r\n                    proposal.options_num[i]+= _power[y] * weight;\r\n                }\r\n            }\r\n        }\r\n\r\n        votes[msg.sender][_proposalId] = true;\r\n        voter_token.update_active_voter_lock_on(_proposalId, msg.sender);\r\n\r\n\r\n    }   \r\n    //(string[][] memory myproposaloptions, string[][] memory myproposals, string[][] memory myproposalvotes )\r\n    function getProposalName() public view returns (string[] memory){\r\n        //string[][] propoptions;\r\n        string[] memory myprops = new string[](nextProposalId);\r\n        //string[][] propvotes;\r\n        for (uint i = 0; i < nextProposalId; i++) {\r\n            myprops[i] = proposals[i].name;\r\n            //propvotes.push(proposals[i].name);\r\n            //for(uint y = 0; y < proposals[i].options.length; y++){\r\n            //    propvotes[i][y]\r\n            //}\r\n        }\r\n        return myprops;\r\n    }\r\n    function getDaoid() public view returns (uint){\r\n        return dao_id;\r\n\r\n    }\r\n    //my chk is the person I am checking lol\r\n    function has_yk_priviliges(address chk) public view returns (bool){\r\n\r\n         if(yk_token.balanceOf(chk) >= 1)\r\n         {\r\n            return true;\r\n         }\r\n         MyDAO current_dao=factory.getCurrentDAO(dao_id);\r\n         MyDAO parent_dao= factory.getParentDAO(current_dao);\r\n         \r\n         \r\n         bool exist=false;\r\n         while(address(parent_dao)!=address(0)){\r\n             if(parent_dao.yk_token().balanceOf(chk) >= 1 * 10 **18)\r\n             {\r\n                 exist=true;\r\n                 break;\r\n             }\r\n             parent_dao= factory.getParentDAO( parent_dao );\r\n         }\r\n         return exist;\r\n\r\n    }\r\n    \r\n    function getProposalDescription() public view returns (string[] memory){\r\n        //string[][] propoptions;\r\n        string[] memory myprops = new string[](nextProposalId);\r\n        //string[][] propvotes;\r\n        for (uint i = 0; i < nextProposalId; i++) {\r\n            myprops[i] = proposals[i].proposal_description;\r\n            //propvotes.push(proposals[i].name);\r\n            //for(uint y = 0; y < proposals[i].options.length; y++){\r\n            //    propvotes[i][y]\r\n            //}\r\n        }\r\n        return myprops;\r\n    }\r\n\r\n    function getProposalVoteNames(uint proposal_idd) public view returns (string[] memory){\r\n        //string[][] propoptions;\r\n        string[] memory mypropvotes = new string[](proposals[proposal_idd].options.length);\r\n        //string[][] propvotes;\r\n        for (uint i = 0; i < proposals[proposal_idd].options.length; i++) {\r\n            mypropvotes[i] = proposals[proposal_idd].options[i];\r\n            //propvotes.push(proposals[i].name);\r\n            //for(uint y = 0; y < proposals[i].options.length; y++){\r\n            //    propvotes[i][y]\r\n            //}\r\n        }\r\n        return mypropvotes;\r\n    }    \r\n\r\n    function getProposalVoteNumbers(uint proposal_idd) public view returns (uint[] memory){\r\n        //string[][] propoptions;\r\n        uint[] memory mypropvotenums = new uint[](proposals[proposal_idd].options_num.length);\r\n        //string[][] propvotes;\r\n        for (uint i = 0; i < proposals[proposal_idd].options_num.length; i++) {\r\n            mypropvotenums[i] = proposals[proposal_idd].options_num[i];\r\n            //propvotes.push(proposals[i].name);\r\n            //for(uint y = 0; y < proposals[i].options.length; y++){\r\n            //    propvotes[i][y]\r\n            //}\r\n        }\r\n        return mypropvotenums;\r\n    }    \r\n\r\n    function getProposalPower(uint proposal_idd) public view returns (uint ){\r\n        //string[][] propoptions;\r\n        uint myproppower = 0;\r\n        //string[][] propvotes;\r\n        myproppower = proposals[proposal_idd].power;\r\n\r\n        return myproppower;\r\n    }     \r\n\r\n    function getProposalType(uint proposal_idd) public view returns (string memory){\r\n        //string[][] propoptions;\r\n        \r\n        //string[][] propvotes;\r\n        string memory myproppower = proposals[proposal_idd].proposal_info_type;\r\n\r\n        return myproppower;\r\n    }     \r\n\r\n    \r\n    //form = b tokeni gecici olarak alan kisi to = a tokeni basta gonderen kisi \r\n    function dao_delegation_single_getback_amount_voter(address from, uint256 amount) external{\r\n        require(amount <= voter_token.getDebtToken(from), \"not enough debt somehow\");       \r\n        voter_token. delegation_single_getback_amount(from, msg.sender, amount);        \r\n    }\r\n\r\n    function dao_delegation_single_getback_all_voter(address from ) external  {\r\n        voter_token.delegation_single_getback_all(from, msg.sender);\r\n    }\r\n\r\n    function dao_delagation_multiple_getback_all_voter( ) external{\r\n        voter_token.delagation_multiple_getback_all( msg.sender);\r\n    }\r\n    function dao_clawback_single_voter(address from) external{\r\n        require(has_yk_priviliges(msg.sender), \"does not have yk priviliges\") ;\r\n        voter_token.clawback_single( from);\r\n    }\r\n    function dao_clawback_all_voter() external{\r\n        require(has_yk_priviliges(msg.sender), \"does not have yk priviliges\") ;\r\n        voter_token.clawback_all( );\r\n    }\r\n    \r\n\r\n\r\n\r\n\r\n    \r\n    /////////////////////////////////////////////////////////////////////////////////////\r\n    function dao_delegation_single_getback_amount_yk(address from, uint256 amount) external {\r\n        require(amount <= yk_token.getDebtToken(from), \"not enough debt somehow\");       \r\n        yk_token. delegation_single_getback_amount(from, msg.sender, amount);      \r\n        \r\n    }\r\n    function dao_delegation_single_getback_all_yk(address from) external {\r\n        yk_token.delegation_single_getback_all(from, msg.sender);\r\n\r\n    }\r\n    function dao_delagation_multiple_getback_all_yk() external{\r\n        yk_token.delagation_multiple_getback_all(msg.sender);\r\n    }\r\n    function dao_clawback_single_yk(address to) external{\r\n        require(has_yk_priviliges(msg.sender), \"does not have yk priviliges\") ;\r\n        yk_token.clawback_single( to);\r\n    }\r\n    function dao_clawback_all_yk() external {\r\n        require(has_yk_priviliges(msg.sender), \"does not have yk priviliges\") ;\r\n        yk_token.clawback_all( );\r\n    }\r\n}                   \r\n\r\n\r\n   \r\n",
  "sourcePath": "D:\\Projects\\DAOO\\SU_Govern\\contract_for_front_end\\ui_sol_deneme2\\ui_sol_deneme\\sol_ui\\blockchain1\\contracts\\newDAO1.sol",
  "compiler": {
    "name": "solc",
    "version": "0.8.13+commit.abaa5c0e.Emscripten.clang"
  },
  "schemaVersion": "3.4.7",
  "updatedAt": "2022-12-21T22:07:53.644Z",
  "devdoc": {
    "kind": "dev",
    "methods": {},
    "version": 1
  },
  "userdoc": {
    "kind": "user",
    "methods": {},
    "version": 1
  }
}