{
  "contractName": "SUToken",
  "abi": [
    {
      "inputs": [
        {
          "internalType": "string",
          "name": "name",
          "type": "string"
        },
        {
          "internalType": "string",
          "name": "symbol",
          "type": "string"
        },
        {
          "internalType": "address",
          "name": "owner",
          "type": "address"
        }
      ],
      "stateMutability": "nonpayable",
      "type": "constructor"
    },
    {
      "anonymous": false,
      "inputs": [
        {
          "indexed": true,
          "internalType": "address",
          "name": "owner",
          "type": "address"
        },
        {
          "indexed": true,
          "internalType": "address",
          "name": "spender",
          "type": "address"
        },
        {
          "indexed": false,
          "internalType": "uint256",
          "name": "value",
          "type": "uint256"
        }
      ],
      "name": "Approval",
      "type": "event"
    },
    {
      "anonymous": false,
      "inputs": [
        {
          "indexed": true,
          "internalType": "address",
          "name": "previousOwner",
          "type": "address"
        },
        {
          "indexed": true,
          "internalType": "address",
          "name": "newOwner",
          "type": "address"
        }
      ],
      "name": "OwnershipTransferred",
      "type": "event"
    },
    {
      "anonymous": false,
      "inputs": [
        {
          "indexed": true,
          "internalType": "address",
          "name": "from",
          "type": "address"
        },
        {
          "indexed": true,
          "internalType": "address",
          "name": "to",
          "type": "address"
        },
        {
          "indexed": false,
          "internalType": "uint256",
          "name": "value",
          "type": "uint256"
        }
      ],
      "name": "Transfer",
      "type": "event"
    },
    {
      "inputs": [
        {
          "internalType": "address",
          "name": "owner",
          "type": "address"
        },
        {
          "internalType": "address",
          "name": "spender",
          "type": "address"
        }
      ],
      "name": "allowance",
      "outputs": [
        {
          "internalType": "uint256",
          "name": "",
          "type": "uint256"
        }
      ],
      "stateMutability": "view",
      "type": "function"
    },
    {
      "inputs": [
        {
          "internalType": "address",
          "name": "spender",
          "type": "address"
        },
        {
          "internalType": "uint256",
          "name": "amount",
          "type": "uint256"
        }
      ],
      "name": "approve",
      "outputs": [
        {
          "internalType": "bool",
          "name": "",
          "type": "bool"
        }
      ],
      "stateMutability": "nonpayable",
      "type": "function"
    },
    {
      "inputs": [
        {
          "internalType": "address",
          "name": "account",
          "type": "address"
        }
      ],
      "name": "balanceOf",
      "outputs": [
        {
          "internalType": "uint256",
          "name": "",
          "type": "uint256"
        }
      ],
      "stateMutability": "view",
      "type": "function"
    },
    {
      "inputs": [],
      "name": "decimals",
      "outputs": [
        {
          "internalType": "uint8",
          "name": "",
          "type": "uint8"
        }
      ],
      "stateMutability": "view",
      "type": "function"
    },
    {
      "inputs": [
        {
          "internalType": "address",
          "name": "spender",
          "type": "address"
        },
        {
          "internalType": "uint256",
          "name": "subtractedValue",
          "type": "uint256"
        }
      ],
      "name": "decreaseAllowance",
      "outputs": [
        {
          "internalType": "bool",
          "name": "",
          "type": "bool"
        }
      ],
      "stateMutability": "nonpayable",
      "type": "function"
    },
    {
      "inputs": [
        {
          "internalType": "address",
          "name": "spender",
          "type": "address"
        },
        {
          "internalType": "uint256",
          "name": "addedValue",
          "type": "uint256"
        }
      ],
      "name": "increaseAllowance",
      "outputs": [
        {
          "internalType": "bool",
          "name": "",
          "type": "bool"
        }
      ],
      "stateMutability": "nonpayable",
      "type": "function"
    },
    {
      "inputs": [],
      "name": "myDAO",
      "outputs": [
        {
          "internalType": "address",
          "name": "",
          "type": "address"
        }
      ],
      "stateMutability": "view",
      "type": "function"
    },
    {
      "inputs": [],
      "name": "name",
      "outputs": [
        {
          "internalType": "string",
          "name": "",
          "type": "string"
        }
      ],
      "stateMutability": "view",
      "type": "function"
    },
    {
      "inputs": [],
      "name": "owner",
      "outputs": [
        {
          "internalType": "address",
          "name": "",
          "type": "address"
        }
      ],
      "stateMutability": "view",
      "type": "function"
    },
    {
      "inputs": [],
      "name": "proposal_num",
      "outputs": [
        {
          "internalType": "uint256",
          "name": "",
          "type": "uint256"
        }
      ],
      "stateMutability": "view",
      "type": "function"
    },
    {
      "inputs": [],
      "name": "renounceOwnership",
      "outputs": [],
      "stateMutability": "nonpayable",
      "type": "function"
    },
    {
      "inputs": [],
      "name": "symbol",
      "outputs": [
        {
          "internalType": "string",
          "name": "",
          "type": "string"
        }
      ],
      "stateMutability": "view",
      "type": "function"
    },
    {
      "inputs": [],
      "name": "totalSupply",
      "outputs": [
        {
          "internalType": "uint256",
          "name": "",
          "type": "uint256"
        }
      ],
      "stateMutability": "view",
      "type": "function"
    },
    {
      "inputs": [
        {
          "internalType": "address",
          "name": "from",
          "type": "address"
        },
        {
          "internalType": "address",
          "name": "to",
          "type": "address"
        },
        {
          "internalType": "uint256",
          "name": "amount",
          "type": "uint256"
        }
      ],
      "name": "transferFrom",
      "outputs": [
        {
          "internalType": "bool",
          "name": "",
          "type": "bool"
        }
      ],
      "stateMutability": "nonpayable",
      "type": "function"
    },
    {
      "inputs": [
        {
          "internalType": "address",
          "name": "",
          "type": "address"
        },
        {
          "internalType": "uint256",
          "name": "",
          "type": "uint256"
        }
      ],
      "name": "transferLock",
      "outputs": [
        {
          "internalType": "bool",
          "name": "",
          "type": "bool"
        }
      ],
      "stateMutability": "view",
      "type": "function"
    },
    {
      "inputs": [
        {
          "internalType": "address",
          "name": "newOwner",
          "type": "address"
        }
      ],
      "name": "transferOwnership",
      "outputs": [],
      "stateMutability": "nonpayable",
      "type": "function"
    },
    {
      "inputs": [
        {
          "internalType": "address",
          "name": "to",
          "type": "address"
        },
        {
          "internalType": "uint256",
          "name": "amount",
          "type": "uint256"
        }
      ],
      "name": "mint",
      "outputs": [],
      "stateMutability": "nonpayable",
      "type": "function"
    },
    {
      "inputs": [
        {
          "internalType": "address",
          "name": "in_dao",
          "type": "address"
        }
      ],
      "name": "assignDAO",
      "outputs": [],
      "stateMutability": "nonpayable",
      "type": "function"
    },
    {
      "inputs": [
        {
          "internalType": "address",
          "name": "to",
          "type": "address"
        },
        {
          "internalType": "uint256",
          "name": "amount",
          "type": "uint256"
        }
      ],
      "name": "transfer",
      "outputs": [
        {
          "internalType": "bool",
          "name": "",
          "type": "bool"
        }
      ],
      "stateMutability": "nonpayable",
      "type": "function"
    },
    {
      "inputs": [
        {
          "internalType": "address",
          "name": "to",
          "type": "address"
        },
        {
          "internalType": "uint256",
          "name": "amount",
          "type": "uint256"
        }
      ],
      "name": "transferDAO",
      "outputs": [
        {
          "internalType": "bool",
          "name": "",
          "type": "bool"
        }
      ],
      "stateMutability": "nonpayable",
      "type": "function"
    },
    {
      "inputs": [
        {
          "internalType": "uint256",
          "name": "proposals",
          "type": "uint256"
        }
      ],
      "name": "update_proposal_num",
      "outputs": [],
      "stateMutability": "nonpayable",
      "type": "function"
    },
    {
      "inputs": [
        {
          "internalType": "uint256",
          "name": "proposal",
          "type": "uint256"
        },
        {
          "internalType": "address",
          "name": "sender",
          "type": "address"
        }
      ],
      "name": "update_active_voter_lock_on",
      "outputs": [],
      "stateMutability": "nonpayable",
      "type": "function"
    },
    {
      "inputs": [
        {
          "internalType": "uint256",
          "name": "proposal",
          "type": "uint256"
        },
        {
          "internalType": "address",
          "name": "sender",
          "type": "address"
        }
      ],
      "name": "update_active_voter_lock_off",
      "outputs": [],
      "stateMutability": "nonpayable",
      "type": "function"
    }
  ],
  "bytecode": "0x60806040523480156200001157600080fd5b50604051620028c8380380620028c88339818101604052810190620000379190620005dc565b82828160039080519060200190620000519291906200032a565b5080600490805190602001906200006a9291906200032a565b5050506200008d62000081620000dc60201b60201c565b620000e460201b60201c565b620000cb81620000a2620001aa60201b60201c565b600a620000b0919062000810565b6103e8620000bf919062000861565b620001b360201b60201c565b600060068190555050505062000a34565b600033905090565b6000600560009054906101000a900473ffffffffffffffffffffffffffffffffffffffff16905081600560006101000a81548173ffffffffffffffffffffffffffffffffffffffff021916908373ffffffffffffffffffffffffffffffffffffffff1602179055508173ffffffffffffffffffffffffffffffffffffffff168173ffffffffffffffffffffffffffffffffffffffff167f8be0079c531659141344cd1fd0a4f28419497f9722a3daafe3b4186f6b6457e060405160405180910390a35050565b60006012905090565b600073ffffffffffffffffffffffffffffffffffffffff168273ffffffffffffffffffffffffffffffffffffffff160362000225576040517f08c379a00000000000000000000000000000000000000000000000000000000081526004016200021c9062000923565b60405180910390fd5b62000239600083836200032060201b60201c565b80600260008282546200024d919062000945565b92505081905550806000808473ffffffffffffffffffffffffffffffffffffffff1673ffffffffffffffffffffffffffffffffffffffff168152602001908152602001600020600082825401925050819055508173ffffffffffffffffffffffffffffffffffffffff16600073ffffffffffffffffffffffffffffffffffffffff167fddf252ad1be2c89b69c2b068fc378daa952ba7f163c4a11628f55a4df523b3ef83604051620003009190620009b3565b60405180910390a36200031c600083836200032560201b60201c565b5050565b505050565b505050565b8280546200033890620009ff565b90600052602060002090601f0160209004810192826200035c5760008555620003a8565b82601f106200037757805160ff1916838001178555620003a8565b82800160010185558215620003a8579182015b82811115620003a75782518255916020019190600101906200038a565b5b509050620003b79190620003bb565b5090565b5b80821115620003d6576000816000905550600101620003bc565b5090565b6000604051905090565b600080fd5b600080fd5b600080fd5b600080fd5b6000601f19601f8301169050919050565b7f4e487b7100000000000000000000000000000000000000000000000000000000600052604160045260246000fd5b6200044382620003f8565b810181811067ffffffffffffffff8211171562000465576200046462000409565b5b80604052505050565b60006200047a620003da565b905062000488828262000438565b919050565b600067ffffffffffffffff821115620004ab57620004aa62000409565b5b620004b682620003f8565b9050602081019050919050565b60005b83811015620004e3578082015181840152602081019050620004c6565b83811115620004f3576000848401525b50505050565b6000620005106200050a846200048d565b6200046e565b9050828152602081018484840111156200052f576200052e620003f3565b5b6200053c848285620004c3565b509392505050565b600082601f8301126200055c576200055b620003ee565b5b81516200056e848260208601620004f9565b91505092915050565b600073ffffffffffffffffffffffffffffffffffffffff82169050919050565b6000620005a48262000577565b9050919050565b620005b68162000597565b8114620005c257600080fd5b50565b600081519050620005d681620005ab565b92915050565b600080600060608486031215620005f857620005f7620003e4565b5b600084015167ffffffffffffffff811115620006195762000618620003e9565b5b620006278682870162000544565b935050602084015167ffffffffffffffff8111156200064b576200064a620003e9565b5b620006598682870162000544565b92505060406200066c86828701620005c5565b9150509250925092565b7f4e487b7100000000000000000000000000000000000000000000000000000000600052601160045260246000fd5b60008160011c9050919050565b6000808291508390505b60018511156200070457808604811115620006dc57620006db62000676565b5b6001851615620006ec5780820291505b8081029050620006fc85620006a5565b9450620006bc565b94509492505050565b6000826200071f5760019050620007f2565b816200072f5760009050620007f2565b8160018114620007485760028114620007535762000789565b6001915050620007f2565b60ff84111562000768576200076762000676565b5b8360020a91508482111562000782576200078162000676565b5b50620007f2565b5060208310610133831016604e8410600b8410161715620007c35782820a905083811115620007bd57620007bc62000676565b5b620007f2565b620007d28484846001620006b2565b92509050818404811115620007ec57620007eb62000676565b5b81810290505b9392505050565b6000819050919050565b600060ff82169050919050565b60006200081d82620007f9565b91506200082a8362000803565b9250620008597fffffffffffffffffffffffffffffffffffffffffffffffffffffffffffffffff84846200070d565b905092915050565b60006200086e82620007f9565b91506200087b83620007f9565b9250817fffffffffffffffffffffffffffffffffffffffffffffffffffffffffffffffff0483118215151615620008b757620008b662000676565b5b828202905092915050565b600082825260208201905092915050565b7f45524332303a206d696e7420746f20746865207a65726f206164647265737300600082015250565b60006200090b601f83620008c2565b91506200091882620008d3565b602082019050919050565b600060208201905081810360008301526200093e81620008fc565b9050919050565b60006200095282620007f9565b91506200095f83620007f9565b9250827fffffffffffffffffffffffffffffffffffffffffffffffffffffffffffffffff0382111562000997576200099662000676565b5b828201905092915050565b620009ad81620007f9565b82525050565b6000602082019050620009ca6000830184620009a2565b92915050565b7f4e487b7100000000000000000000000000000000000000000000000000000000600052602260045260246000fd5b6000600282049050600182168062000a1857607f821691505b60208210810362000a2e5762000a2d620009d0565b5b50919050565b611e848062000a446000396000f3fe608060405234801561001057600080fd5b506004361061014d5760003560e01c80638da9e677116100c3578063a9059cbb1161007c578063a9059cbb146103b4578063d2c0ec0e146103e4578063dd62ed3e14610402578063f2fde38b14610432578063fc13d5181461044e578063ff2b5fa11461046a5761014d565b80638da9e677146102cc578063937347d5146102fc57806395d89b411461031a578063a19dea7014610338578063a38e210514610354578063a457c2d7146103845761014d565b80633950935111610115578063395093511461020c57806340c10f191461023c57806370a0823114610258578063715018a6146102885780638749e2bb146102925780638da5cb5b146102ae5761014d565b806306fdde0314610152578063095ea7b31461017057806318160ddd146101a057806323b872dd146101be578063313ce567146101ee575b600080fd5b61015a610486565b604051610167919061148a565b60405180910390f35b61018a60048036038101906101859190611545565b610518565b60405161019791906115a0565b60405180910390f35b6101a861053b565b6040516101b591906115ca565b60405180910390f35b6101d860048036038101906101d391906115e5565b610545565b6040516101e591906115a0565b60405180910390f35b6101f6610574565b6040516102039190611654565b60405180910390f35b61022660048036038101906102219190611545565b61057d565b60405161023391906115a0565b60405180910390f35b61025660048036038101906102519190611545565b6105b4565b005b610272600480360381019061026d919061166f565b6105ca565b60405161027f91906115ca565b60405180910390f35b610290610612565b005b6102ac60048036038101906102a7919061166f565b610626565b005b6102b6610672565b6040516102c391906116ab565b60405180910390f35b6102e660048036038101906102e19190611545565b61069c565b6040516102f391906115a0565b60405180910390f35b610304610719565b60405161031191906116ab565b60405180910390f35b61032261073f565b60405161032f919061148a565b60405180910390f35b610352600480360381019061034d91906116c6565b6107d1565b005b61036e60048036038101906103699190611545565b61083b565b60405161037b91906115a0565b60405180910390f35b61039e60048036038101906103999190611545565b61086a565b6040516103ab91906115a0565b60405180910390f35b6103ce60048036038101906103c99190611545565b6108e1565b6040516103db91906115a0565b60405180910390f35b6103ec6109d0565b6040516103f991906115ca565b60405180910390f35b61041c600480360381019061041791906116f3565b6109d6565b60405161042991906115ca565b60405180910390f35b61044c6004803603810190610447919061166f565b610a5d565b005b61046860048036038101906104639190611733565b610ae0565b005b610484600480360381019061047f9190611733565b610bad565b005b606060038054610495906117a2565b80601f01602080910402602001604051908101604052809291908181526020018280546104c1906117a2565b801561050e5780601f106104e35761010080835404028352916020019161050e565b820191906000526020600020905b8154815290600101906020018083116104f157829003601f168201915b5050505050905090565b600080610523610c7a565b9050610530818585610c82565b600191505092915050565b6000600254905090565b600080610550610c7a565b905061055d858285610e4b565b610568858585610ed7565b60019150509392505050565b60006012905090565b600080610588610c7a565b90506105a981858561059a85896109d6565b6105a49190611802565b610c82565b600191505092915050565b6105bc61114d565b6105c682826111cb565b5050565b60008060008373ffffffffffffffffffffffffffffffffffffffff1673ffffffffffffffffffffffffffffffffffffffff168152602001908152602001600020549050919050565b61061a61114d565b6106246000611321565b565b61062e61114d565b80600760006101000a81548173ffffffffffffffffffffffffffffffffffffffff021916908373ffffffffffffffffffffffffffffffffffffffff16021790555050565b6000600560009054906101000a900473ffffffffffffffffffffffffffffffffffffffff16905090565b6000806106a7610c7a565b9050600760009054906101000a900473ffffffffffffffffffffffffffffffffffffffff1673ffffffffffffffffffffffffffffffffffffffff168173ffffffffffffffffffffffffffffffffffffffff161461070357600080fd5b61070e818585610ed7565b600191505092915050565b600760009054906101000a900473ffffffffffffffffffffffffffffffffffffffff1681565b60606004805461074e906117a2565b80601f016020809104026020016040519081016040528092919081815260200182805461077a906117a2565b80156107c75780601f1061079c576101008083540402835291602001916107c7565b820191906000526020600020905b8154815290600101906020018083116107aa57829003601f168201915b5050505050905090565b6000339050600760009054906101000a900473ffffffffffffffffffffffffffffffffffffffff1673ffffffffffffffffffffffffffffffffffffffff168173ffffffffffffffffffffffffffffffffffffffff161461083057600080fd5b816006819055505050565b60086020528160005260406000206020528060005260406000206000915091509054906101000a900460ff1681565b600080610875610c7a565b9050600061088382866109d6565b9050838110156108c8576040517f08c379a00000000000000000000000000000000000000000000000000000000081526004016108bf906118ca565b60405180910390fd5b6108d58286868403610c82565b60019250505092915050565b6000806108ec610c7a565b905060005b6006548110156109b95760011515600860008473ffffffffffffffffffffffffffffffffffffffff1673ffffffffffffffffffffffffffffffffffffffff168152602001908152602001600020600083815260200190815260200160002060009054906101000a900460ff161515036109a65760006109a5576040517f08c379a000000000000000000000000000000000000000000000000000000000815260040161099c90611936565b60405180910390fd5b5b80806109b190611956565b9150506108f1565b506109c5818585610ed7565b600191505092915050565b60065481565b6000600160008473ffffffffffffffffffffffffffffffffffffffff1673ffffffffffffffffffffffffffffffffffffffff16815260200190815260200160002060008373ffffffffffffffffffffffffffffffffffffffff1673ffffffffffffffffffffffffffffffffffffffff16815260200190815260200160002054905092915050565b610a6561114d565b600073ffffffffffffffffffffffffffffffffffffffff168173ffffffffffffffffffffffffffffffffffffffff1603610ad4576040517f08c379a0000000000000000000000000000000000000000000000000000000008152600401610acb90611a10565b60405180910390fd5b610add81611321565b50565b6000339050600760009054906101000a900473ffffffffffffffffffffffffffffffffffffffff1673ffffffffffffffffffffffffffffffffffffffff168173ffffffffffffffffffffffffffffffffffffffff1614610b3f57600080fd5b6001600860008473ffffffffffffffffffffffffffffffffffffffff1673ffffffffffffffffffffffffffffffffffffffff168152602001908152602001600020600085815260200190815260200160002060006101000a81548160ff021916908315150217905550505050565b6000339050600760009054906101000a900473ffffffffffffffffffffffffffffffffffffffff1673ffffffffffffffffffffffffffffffffffffffff168173ffffffffffffffffffffffffffffffffffffffff1614610c0c57600080fd5b6000600860008473ffffffffffffffffffffffffffffffffffffffff1673ffffffffffffffffffffffffffffffffffffffff168152602001908152602001600020600085815260200190815260200160002060006101000a81548160ff021916908315150217905550505050565b600033905090565b600073ffffffffffffffffffffffffffffffffffffffff168373ffffffffffffffffffffffffffffffffffffffff1603610cf1576040517f08c379a0000000000000000000000000000000000000000000000000000000008152600401610ce890611aa2565b60405180910390fd5b600073ffffffffffffffffffffffffffffffffffffffff168273ffffffffffffffffffffffffffffffffffffffff1603610d60576040517f08c379a0000000000000000000000000000000000000000000000000000000008152600401610d5790611b34565b60405180910390fd5b80600160008573ffffffffffffffffffffffffffffffffffffffff1673ffffffffffffffffffffffffffffffffffffffff16815260200190815260200160002060008473ffffffffffffffffffffffffffffffffffffffff1673ffffffffffffffffffffffffffffffffffffffff168152602001908152602001600020819055508173ffffffffffffffffffffffffffffffffffffffff168373ffffffffffffffffffffffffffffffffffffffff167f8c5be1e5ebec7d5bd14f71427d1e84f3dd0314c0f7b2291e5b200ac8c7c3b92583604051610e3e91906115ca565b60405180910390a3505050565b6000610e5784846109d6565b90507fffffffffffffffffffffffffffffffffffffffffffffffffffffffffffffffff8114610ed15781811015610ec3576040517f08c379a0000000000000000000000000000000000000000000000000000000008152600401610eba90611ba0565b60405180910390fd5b610ed08484848403610c82565b5b50505050565b600073ffffffffffffffffffffffffffffffffffffffff168373ffffffffffffffffffffffffffffffffffffffff1603610f46576040517f08c379a0000000000000000000000000000000000000000000000000000000008152600401610f3d90611c32565b60405180910390fd5b600073ffffffffffffffffffffffffffffffffffffffff168273ffffffffffffffffffffffffffffffffffffffff1603610fb5576040517f08c379a0000000000000000000000000000000000000000000000000000000008152600401610fac90611cc4565b60405180910390fd5b610fc08383836113e7565b60008060008573ffffffffffffffffffffffffffffffffffffffff1673ffffffffffffffffffffffffffffffffffffffff16815260200190815260200160002054905081811015611046576040517f08c379a000000000000000000000000000000000000000000000000000000000815260040161103d90611d56565b60405180910390fd5b8181036000808673ffffffffffffffffffffffffffffffffffffffff1673ffffffffffffffffffffffffffffffffffffffff16815260200190815260200160002081905550816000808573ffffffffffffffffffffffffffffffffffffffff1673ffffffffffffffffffffffffffffffffffffffff168152602001908152602001600020600082825401925050819055508273ffffffffffffffffffffffffffffffffffffffff168473ffffffffffffffffffffffffffffffffffffffff167fddf252ad1be2c89b69c2b068fc378daa952ba7f163c4a11628f55a4df523b3ef8460405161113491906115ca565b60405180910390a36111478484846113ec565b50505050565b611155610c7a565b73ffffffffffffffffffffffffffffffffffffffff16611173610672565b73ffffffffffffffffffffffffffffffffffffffff16146111c9576040517f08c379a00000000000000000000000000000000000000000000000000000000081526004016111c090611dc2565b60405180910390fd5b565b600073ffffffffffffffffffffffffffffffffffffffff168273ffffffffffffffffffffffffffffffffffffffff160361123a576040517f08c379a000000000000000000000000000000000000000000000000000000000815260040161123190611e2e565b60405180910390fd5b611246600083836113e7565b80600260008282546112589190611802565b92505081905550806000808473ffffffffffffffffffffffffffffffffffffffff1673ffffffffffffffffffffffffffffffffffffffff168152602001908152602001600020600082825401925050819055508173ffffffffffffffffffffffffffffffffffffffff16600073ffffffffffffffffffffffffffffffffffffffff167fddf252ad1be2c89b69c2b068fc378daa952ba7f163c4a11628f55a4df523b3ef8360405161130991906115ca565b60405180910390a361131d600083836113ec565b5050565b6000600560009054906101000a900473ffffffffffffffffffffffffffffffffffffffff16905081600560006101000a81548173ffffffffffffffffffffffffffffffffffffffff021916908373ffffffffffffffffffffffffffffffffffffffff1602179055508173ffffffffffffffffffffffffffffffffffffffff168173ffffffffffffffffffffffffffffffffffffffff167f8be0079c531659141344cd1fd0a4f28419497f9722a3daafe3b4186f6b6457e060405160405180910390a35050565b505050565b505050565b600081519050919050565b600082825260208201905092915050565b60005b8381101561142b578082015181840152602081019050611410565b8381111561143a576000848401525b50505050565b6000601f19601f8301169050919050565b600061145c826113f1565b61146681856113fc565b935061147681856020860161140d565b61147f81611440565b840191505092915050565b600060208201905081810360008301526114a48184611451565b905092915050565b600080fd5b600073ffffffffffffffffffffffffffffffffffffffff82169050919050565b60006114dc826114b1565b9050919050565b6114ec816114d1565b81146114f757600080fd5b50565b600081359050611509816114e3565b92915050565b6000819050919050565b6115228161150f565b811461152d57600080fd5b50565b60008135905061153f81611519565b92915050565b6000806040838503121561155c5761155b6114ac565b5b600061156a858286016114fa565b925050602061157b85828601611530565b9150509250929050565b60008115159050919050565b61159a81611585565b82525050565b60006020820190506115b56000830184611591565b92915050565b6115c48161150f565b82525050565b60006020820190506115df60008301846115bb565b92915050565b6000806000606084860312156115fe576115fd6114ac565b5b600061160c868287016114fa565b935050602061161d868287016114fa565b925050604061162e86828701611530565b9150509250925092565b600060ff82169050919050565b61164e81611638565b82525050565b60006020820190506116696000830184611645565b92915050565b600060208284031215611685576116846114ac565b5b6000611693848285016114fa565b91505092915050565b6116a5816114d1565b82525050565b60006020820190506116c0600083018461169c565b92915050565b6000602082840312156116dc576116db6114ac565b5b60006116ea84828501611530565b91505092915050565b6000806040838503121561170a576117096114ac565b5b6000611718858286016114fa565b9250506020611729858286016114fa565b9150509250929050565b6000806040838503121561174a576117496114ac565b5b600061175885828601611530565b9250506020611769858286016114fa565b9150509250929050565b7f4e487b7100000000000000000000000000000000000000000000000000000000600052602260045260246000fd5b600060028204905060018216806117ba57607f821691505b6020821081036117cd576117cc611773565b5b50919050565b7f4e487b7100000000000000000000000000000000000000000000000000000000600052601160045260246000fd5b600061180d8261150f565b91506118188361150f565b9250827fffffffffffffffffffffffffffffffffffffffffffffffffffffffffffffffff0382111561184d5761184c6117d3565b5b828201905092915050565b7f45524332303a2064656372656173656420616c6c6f77616e63652062656c6f7760008201527f207a65726f000000000000000000000000000000000000000000000000000000602082015250565b60006118b46025836113fc565b91506118bf82611858565b604082019050919050565b600060208201905081810360008301526118e3816118a7565b9050919050565b7f686176652061637469766520766f74696e670000000000000000000000000000600082015250565b60006119206012836113fc565b915061192b826118ea565b602082019050919050565b6000602082019050818103600083015261194f81611913565b9050919050565b60006119618261150f565b91507fffffffffffffffffffffffffffffffffffffffffffffffffffffffffffffffff8203611993576119926117d3565b5b600182019050919050565b7f4f776e61626c653a206e6577206f776e657220697320746865207a65726f206160008201527f6464726573730000000000000000000000000000000000000000000000000000602082015250565b60006119fa6026836113fc565b9150611a058261199e565b604082019050919050565b60006020820190508181036000830152611a29816119ed565b9050919050565b7f45524332303a20617070726f76652066726f6d20746865207a65726f2061646460008201527f7265737300000000000000000000000000000000000000000000000000000000602082015250565b6000611a8c6024836113fc565b9150611a9782611a30565b604082019050919050565b60006020820190508181036000830152611abb81611a7f565b9050919050565b7f45524332303a20617070726f766520746f20746865207a65726f20616464726560008201527f7373000000000000000000000000000000000000000000000000000000000000602082015250565b6000611b1e6022836113fc565b9150611b2982611ac2565b604082019050919050565b60006020820190508181036000830152611b4d81611b11565b9050919050565b7f45524332303a20696e73756666696369656e7420616c6c6f77616e6365000000600082015250565b6000611b8a601d836113fc565b9150611b9582611b54565b602082019050919050565b60006020820190508181036000830152611bb981611b7d565b9050919050565b7f45524332303a207472616e736665722066726f6d20746865207a65726f20616460008201527f6472657373000000000000000000000000000000000000000000000000000000602082015250565b6000611c1c6025836113fc565b9150611c2782611bc0565b604082019050919050565b60006020820190508181036000830152611c4b81611c0f565b9050919050565b7f45524332303a207472616e7366657220746f20746865207a65726f206164647260008201527f6573730000000000000000000000000000000000000000000000000000000000602082015250565b6000611cae6023836113fc565b9150611cb982611c52565b604082019050919050565b60006020820190508181036000830152611cdd81611ca1565b9050919050565b7f45524332303a207472616e7366657220616d6f756e742065786365656473206260008201527f616c616e63650000000000000000000000000000000000000000000000000000602082015250565b6000611d406026836113fc565b9150611d4b82611ce4565b604082019050919050565b60006020820190508181036000830152611d6f81611d33565b9050919050565b7f4f776e61626c653a2063616c6c6572206973206e6f7420746865206f776e6572600082015250565b6000611dac6020836113fc565b9150611db782611d76565b602082019050919050565b60006020820190508181036000830152611ddb81611d9f565b9050919050565b7f45524332303a206d696e7420746f20746865207a65726f206164647265737300600082015250565b6000611e18601f836113fc565b9150611e2382611de2565b602082019050919050565b60006020820190508181036000830152611e4781611e0b565b905091905056fea2646970667358221220c38b13b4a5a11e6fbfd481dc9c05ac8f6af9c4433125b07f77ffa9ac377fe34064736f6c634300080d0033",
  "immutableReferences": {},
  "source": "// SPDX-License-Identifier: MIT\r\npragma solidity ^0.8.7;\r\n\r\nimport \"@openzeppelin/contracts/token/ERC20/ERC20.sol\";\r\nimport \"@openzeppelin/contracts/access/Ownable.sol\";\r\n\r\ncontract SUToken is ERC20, Ownable {\r\n\r\n    //mapping (uint => mapping(address => bool)) public proposalid_to_address_cantusetoken;\r\n    uint256 public proposal_num;\r\n    address public myDAO;\r\n    mapping (address => mapping(uint256 => bool)) public transferLock;\r\n    \r\n\r\n\r\n    constructor(string memory name, string memory symbol, address owner) ERC20(name, symbol) {\r\n        _mint(owner, 1000 * 10 ** decimals());\r\n        proposal_num = 0;\r\n    }\r\n\r\n    function mint(address to, uint256 amount) public onlyOwner {\r\n        //bu function cagirilan, _mint kendisinde iste boylece degisitrebliyorum anladin heralde\r\n        _mint(to, amount);\r\n    }\r\n\r\n    function assignDAO(address in_dao) public onlyOwner{\r\n        myDAO = in_dao;\r\n    }\r\n\r\n    //between people\r\n    function transfer(address to, uint256 amount) public virtual override returns (bool) {\r\n        address owner = _msgSender();\r\n        for (uint i = 0; i < proposal_num; i ++ ){\r\n            if(transferLock[owner][i] == true){\r\n                //address_proposals_cant_vote_on[to][i] = address_proposals_cant_vote_on[owner][i];\r\n                require(false , \"have active voting\");\r\n            }\r\n        }      \r\n        _transfer(owner, to, amount);\r\n        return true;\r\n    }\r\n\r\n    //when DAO does it\r\n    function transferDAO(address to, uint256 amount) public returns (bool) {\r\n        address owner = _msgSender();\r\n        require(owner == myDAO);\r\n        //when dao sends it this is not the case\r\n        _transfer(owner, to, amount);\r\n        return true;\r\n    }\r\n\r\n    function update_proposal_num(uint proposals) public {\r\n        address owner = msg.sender;\r\n        require(owner == myDAO);\r\n        proposal_num = proposals;\r\n    }\r\n\r\n    function update_active_voter_lock_on(uint proposal, address sender) public {\r\n        address owner = msg.sender;\r\n        require(owner == myDAO);\r\n        transferLock[sender][proposal] = true;\r\n    }    \r\n\r\n    function update_active_voter_lock_off(uint proposal, address sender) public {\r\n        address owner = msg.sender;\r\n        require(owner == myDAO);\r\n        transferLock[sender][proposal] = false;\r\n    }    \r\n\r\n    //soyle oncelikle factory de tokenime dao adresim giriliyor, sonra ben yk olarak birine token gonderirsem bir sorun yok, ama normal \r\n    //bir sekilde transfer ile gonderirsem butun oyladigim proposallarda digerininkileri aliyorum, yani onun oy verdiklerine oy veremiyorum ve bu.\r\n    //sirf true olanlarda gecerli yani bos bir adresten transferlede duzeltilemiyor, sonrasinda oy veriyorum oy verirken bu kisininki\r\n    //oyle tutulmus mu diye  checkleniyor. sonrasinda direk ona gore geri donus aliyorum.\r\n\r\n\r\n    //function isContract(address addr) view private returns (bool isContract) {    return addr.code.length > 0; }\r\n\r\n}",
  "sourcePath": "D:\\Projects\\DAOO\\SU_Govern\\contract_for_front_end\\ui_sol_deneme2\\ui_sol_deneme\\sol_ui\\blockchain1\\contracts\\token.sol",
  "compiler": {
    "name": "solc",
    "version": "0.8.13+commit.abaa5c0e.Emscripten.clang"
  },
  "schemaVersion": "3.4.7",
  "updatedAt": "2022-11-30T11:03:22.149Z",
  "devdoc": {
    "kind": "dev",
    "methods": {
      "allowance(address,address)": {
        "details": "See {IERC20-allowance}."
      },
      "approve(address,uint256)": {
        "details": "See {IERC20-approve}. NOTE: If `amount` is the maximum `uint256`, the allowance is not updated on `transferFrom`. This is semantically equivalent to an infinite approval. Requirements: - `spender` cannot be the zero address."
      },
      "balanceOf(address)": {
        "details": "See {IERC20-balanceOf}."
      },
      "decimals()": {
        "details": "Returns the number of decimals used to get its user representation. For example, if `decimals` equals `2`, a balance of `505` tokens should be displayed to a user as `5.05` (`505 / 10 ** 2`). Tokens usually opt for a value of 18, imitating the relationship between Ether and Wei. This is the value {ERC20} uses, unless this function is overridden; NOTE: This information is only used for _display_ purposes: it in no way affects any of the arithmetic of the contract, including {IERC20-balanceOf} and {IERC20-transfer}."
      },
      "decreaseAllowance(address,uint256)": {
        "details": "Atomically decreases the allowance granted to `spender` by the caller. This is an alternative to {approve} that can be used as a mitigation for problems described in {IERC20-approve}. Emits an {Approval} event indicating the updated allowance. Requirements: - `spender` cannot be the zero address. - `spender` must have allowance for the caller of at least `subtractedValue`."
      },
      "increaseAllowance(address,uint256)": {
        "details": "Atomically increases the allowance granted to `spender` by the caller. This is an alternative to {approve} that can be used as a mitigation for problems described in {IERC20-approve}. Emits an {Approval} event indicating the updated allowance. Requirements: - `spender` cannot be the zero address."
      },
      "name()": {
        "details": "Returns the name of the token."
      },
      "owner()": {
        "details": "Returns the address of the current owner."
      },
      "renounceOwnership()": {
        "details": "Leaves the contract without owner. It will not be possible to call `onlyOwner` functions anymore. Can only be called by the current owner. NOTE: Renouncing ownership will leave the contract without an owner, thereby removing any functionality that is only available to the owner."
      },
      "symbol()": {
        "details": "Returns the symbol of the token, usually a shorter version of the name."
      },
      "totalSupply()": {
        "details": "See {IERC20-totalSupply}."
      },
      "transfer(address,uint256)": {
        "details": "See {IERC20-transfer}. Requirements: - `to` cannot be the zero address. - the caller must have a balance of at least `amount`."
      },
      "transferFrom(address,address,uint256)": {
        "details": "See {IERC20-transferFrom}. Emits an {Approval} event indicating the updated allowance. This is not required by the EIP. See the note at the beginning of {ERC20}. NOTE: Does not update the allowance if the current allowance is the maximum `uint256`. Requirements: - `from` and `to` cannot be the zero address. - `from` must have a balance of at least `amount`. - the caller must have allowance for ``from``'s tokens of at least `amount`."
      },
      "transferOwnership(address)": {
        "details": "Transfers ownership of the contract to a new account (`newOwner`). Can only be called by the current owner."
      }
    },
    "version": 1
  },
  "userdoc": {
    "kind": "user",
    "methods": {},
    "version": 1
  }
}