{
  "contractName": "MyDAO",
  "abi": [
    {
      "inputs": [],
      "stateMutability": "nonpayable",
      "type": "constructor"
    },
    {
      "anonymous": false,
      "inputs": [
        {
          "indexed": false,
          "internalType": "uint256",
          "name": "id",
          "type": "uint256"
        },
        {
          "indexed": false,
          "internalType": "address",
          "name": "author",
          "type": "address"
        },
        {
          "indexed": false,
          "internalType": "string",
          "name": "name",
          "type": "string"
        },
        {
          "indexed": false,
          "internalType": "uint256",
          "name": "votesForYes",
          "type": "uint256"
        },
        {
          "indexed": false,
          "internalType": "uint256",
          "name": "votesForNo",
          "type": "uint256"
        }
      ],
      "name": "proposal_info",
      "type": "event"
    },
    {
      "inputs": [],
      "name": "nextProposalId",
      "outputs": [
        {
          "internalType": "uint256",
          "name": "",
          "type": "uint256"
        }
      ],
      "stateMutability": "view",
      "type": "function"
    },
    {
      "inputs": [
        {
          "internalType": "uint256",
          "name": "",
          "type": "uint256"
        }
      ],
      "name": "proposals",
      "outputs": [
        {
          "internalType": "uint256",
          "name": "id",
          "type": "uint256"
        },
        {
          "internalType": "address",
          "name": "author",
          "type": "address"
        },
        {
          "internalType": "string",
          "name": "name",
          "type": "string"
        },
        {
          "internalType": "uint256",
          "name": "createdAt",
          "type": "uint256"
        },
        {
          "internalType": "uint256",
          "name": "votesForYes",
          "type": "uint256"
        },
        {
          "internalType": "uint256",
          "name": "votesForNo",
          "type": "uint256"
        },
        {
          "internalType": "enum MyDAO.Status",
          "name": "status",
          "type": "uint8"
        }
      ],
      "stateMutability": "view",
      "type": "function"
    },
    {
      "inputs": [
        {
          "internalType": "address",
          "name": "",
          "type": "address"
        }
      ],
      "name": "shares",
      "outputs": [
        {
          "internalType": "uint256",
          "name": "",
          "type": "uint256"
        }
      ],
      "stateMutability": "view",
      "type": "function"
    },
    {
      "inputs": [],
      "name": "token",
      "outputs": [
        {
          "internalType": "contract IERC20",
          "name": "",
          "type": "address"
        }
      ],
      "stateMutability": "view",
      "type": "function"
    },
    {
      "inputs": [],
      "name": "totalShares",
      "outputs": [
        {
          "internalType": "uint256",
          "name": "",
          "type": "uint256"
        }
      ],
      "stateMutability": "view",
      "type": "function"
    },
    {
      "inputs": [
        {
          "internalType": "address",
          "name": "",
          "type": "address"
        },
        {
          "internalType": "uint256",
          "name": "",
          "type": "uint256"
        }
      ],
      "name": "votes",
      "outputs": [
        {
          "internalType": "bool",
          "name": "",
          "type": "bool"
        }
      ],
      "stateMutability": "view",
      "type": "function"
    },
    {
      "inputs": [],
      "name": "iterate_proposals",
      "outputs": [],
      "stateMutability": "nonpayable",
      "type": "function"
    },
    {
      "inputs": [
        {
          "internalType": "uint256",
          "name": "_amount",
          "type": "uint256"
        }
      ],
      "name": "deposit",
      "outputs": [],
      "stateMutability": "nonpayable",
      "type": "function"
    },
    {
      "inputs": [
        {
          "internalType": "uint256",
          "name": "_amount",
          "type": "uint256"
        }
      ],
      "name": "deposit_tokens",
      "outputs": [],
      "stateMutability": "nonpayable",
      "type": "function"
    },
    {
      "inputs": [
        {
          "internalType": "uint256",
          "name": "_amount",
          "type": "uint256"
        }
      ],
      "name": "withdraw",
      "outputs": [],
      "stateMutability": "nonpayable",
      "type": "function"
    },
    {
      "inputs": [
        {
          "internalType": "string",
          "name": "name",
          "type": "string"
        },
        {
          "internalType": "string[]",
          "name": "props",
          "type": "string[]"
        }
      ],
      "name": "createProposal",
      "outputs": [],
      "stateMutability": "nonpayable",
      "type": "function"
    },
    {
      "inputs": [
        {
          "internalType": "uint256",
          "name": "_proposalId",
          "type": "uint256"
        },
        {
          "internalType": "enum MyDAO.VotingOptions",
          "name": "_vote",
          "type": "uint8"
        }
      ],
      "name": "vote",
      "outputs": [],
      "stateMutability": "nonpayable",
      "type": "function"
    },
    {
      "inputs": [
        {
          "internalType": "uint256",
          "name": "_proposalId",
          "type": "uint256"
        },
        {
          "internalType": "enum MyDAO.VotingOptions",
          "name": "_vote",
          "type": "uint8"
        }
      ],
      "name": "vote_weighted",
      "outputs": [],
      "stateMutability": "nonpayable",
      "type": "function"
    }
  ],
  "bytecode": "0x608060405234801561001057600080fd5b5073a048b6a5c1be4b81d99c3fd993c98783adc2ef70600460006101000a81548173ffffffffffffffffffffffffffffffffffffffff021916908373ffffffffffffffffffffffffffffffffffffffff160217905550611e5e806100756000396000f3fe608060405234801561001057600080fd5b50600436106100cf5760003560e01c8063943e82161161008c578063ce7c2ac211610066578063ce7c2ac214610202578063cf5265d814610232578063fc0c546a1461023c578063fc4333c31461025a576100cf565b8063943e82161461019a5780639f2524ee146101b6578063b6b55f25146101e6576100cf565b8063013cf08b146100d45780632ab09d141461010a5780632e1a7d4d146101285780633a645c59146101445780633a98ef39146101605780636ca912021461017e575b600080fd5b6100ee60048036038101906100e9919061149b565b610276565b60405161010197969594939291906117c9565b60405180910390f35b61011261036d565b60405161011f91906117ae565b60405180910390f35b610142600480360381019061013d919061149b565b610373565b005b61015e600480360381019061015991906114c8565b610517565b005b610168610920565b60405161017591906117ae565b60405180910390f35b61019860048036038101906101939190611423565b610926565b005b6101b460048036038101906101af91906114c8565b610aff565b005b6101d060048036038101906101cb91906113b6565b610d8e565b6040516101dd91906116f8565b60405180910390f35b61020060048036038101906101fb919061149b565b610dbd565b005b61021c60048036038101906102179190611389565b610ee1565b60405161022991906117ae565b60405180910390f35b61023a610ef9565b005b610244610fe3565b6040516102519190611713565b60405180910390f35b610274600480360381019061026f919061149b565b611009565b005b60006020528060005260406000206000915090508060000154908060010160009054906101000a900473ffffffffffffffffffffffffffffffffffffffff16908060020180546102c590611b34565b80601f01602080910402602001604051908101604052809291908181526020018280546102f190611b34565b801561033e5780601f106103135761010080835404028352916020019161033e565b820191906000526020600020905b81548152906001019060200180831161032157829003601f168201915b5050505050908060030154908060040154908060050154908060060160009054906101000a900460ff16905087565b60055481565b80600260003373ffffffffffffffffffffffffffffffffffffffff1673ffffffffffffffffffffffffffffffffffffffff1681526020019081526020016000205410156103f5576040517f08c379a00000000000000000000000000000000000000000000000000000000081526004016103ec9061176e565b60405180910390fd5b80600260003373ffffffffffffffffffffffffffffffffffffffff1673ffffffffffffffffffffffffffffffffffffffff16815260200190815260200160002060008282546104449190611a2d565b92505081905550806003600082825461045d9190611a2d565b92505081905550600460009054906101000a900473ffffffffffffffffffffffffffffffffffffffff1673ffffffffffffffffffffffffffffffffffffffff1663a9059cbb33836040518363ffffffff1660e01b81526004016104c19291906116cf565b602060405180830381600087803b1580156104db57600080fd5b505af11580156104ef573d6000803e3d6000fd5b505050506040513d601f19601f8201168201806040525081019061051391906113f6565b5050565b6000806000848152602001908152602001600020905060001515600160003373ffffffffffffffffffffffffffffffffffffffff1673ffffffffffffffffffffffffffffffffffffffff168152602001908152602001600020600085815260200190815260200160002060009054906101000a900460ff161515146105d1576040517f08c379a00000000000000000000000000000000000000000000000000000000081526004016105c89061172e565b60405180910390fd5b62093a8081600301546105e4919061194c565b421115610626576040517f08c379a000000000000000000000000000000000000000000000000000000000815260040161061d9061178e565b60405180910390fd5b60018060003373ffffffffffffffffffffffffffffffffffffffff1673ffffffffffffffffffffffffffffffffffffffff168152602001908152602001600020600085815260200190815260200160002060006101000a81548160ff021916908315150217905550600060018111156106a2576106a1611c3e565b5b8260018111156106b5576106b4611c3e565b5b14156107ed5768015af1d78b58c40000600260003373ffffffffffffffffffffffffffffffffffffffff1673ffffffffffffffffffffffffffffffffffffffff168152602001908152602001600020541061072757600381600401600082825461071f919061194c565b925050819055505b68015af1d78b58c40000600260003373ffffffffffffffffffffffffffffffffffffffff1673ffffffffffffffffffffffffffffffffffffffff16815260200190815260200160002054101561079457600181600401600082825461078c919061194c565b925050819055505b6032600354606483600401546107aa91906119d3565b6107b491906119a2565b11156107e85760008160060160006101000a81548160ff021916908360028111156107e2576107e1611c3e565b5b02179055505b61091b565b68015af1d78b58c40000600260003373ffffffffffffffffffffffffffffffffffffffff1673ffffffffffffffffffffffffffffffffffffffff1681526020019081526020016000205410610859576003816005016000828254610851919061194c565b925050819055505b68015af1d78b58c40000600260003373ffffffffffffffffffffffffffffffffffffffff1673ffffffffffffffffffffffffffffffffffffffff1681526020019081526020016000205410156108c65760018160050160008282546108be919061194c565b925050819055505b6032600354606483600501546108dc91906119d3565b6108e691906119a2565b111561091a5760018160060160006101000a81548160ff0219169083600281111561091457610913611c3e565b5b02179055505b5b505050565b60035481565b68015af1d78b58c40000600260003373ffffffffffffffffffffffffffffffffffffffff1673ffffffffffffffffffffffffffffffffffffffff1681526020019081526020016000205410156109b1576040517f08c379a00000000000000000000000000000000000000000000000000000000081526004016109a89061174e565b60405180910390fd5b6040518060e0016040528060055481526020013373ffffffffffffffffffffffffffffffffffffffff1681526020018381526020014281526020016000815260200160008152602001600280811115610a0d57610a0c611c3e565b5b81525060008060055481526020019081526020016000206000820151816000015560208201518160010160006101000a81548173ffffffffffffffffffffffffffffffffffffffff021916908373ffffffffffffffffffffffffffffffffffffffff1602179055506040820151816002019080519060200190610a91929190611166565b50606082015181600301556080820151816004015560a0820151816005015560c08201518160060160006101000a81548160ff02191690836002811115610adb57610ada611c3e565b5b021790555090505060056000815480929190610af690611b97565b91905055505050565b6000806000848152602001908152602001600020905060001515600160003373ffffffffffffffffffffffffffffffffffffffff1673ffffffffffffffffffffffffffffffffffffffff168152602001908152602001600020600085815260200190815260200160002060009054906101000a900460ff16151514610bb9576040517f08c379a0000000000000000000000000000000000000000000000000000000008152600401610bb09061172e565b60405180910390fd5b62093a808160030154610bcc919061194c565b421115610c0e576040517f08c379a0000000000000000000000000000000000000000000000000000000008152600401610c059061178e565b60405180910390fd5b60018060003373ffffffffffffffffffffffffffffffffffffffff1673ffffffffffffffffffffffffffffffffffffffff168152602001908152602001600020600085815260200190815260200160002060006101000a81548160ff02191690831515021790555060006001811115610c8a57610c89611c3e565b5b826001811115610c9d57610c9c611c3e565b5b1415610d18576001816004016000828254610cb8919061194c565b92505081905550603260035460648360040154610cd591906119d3565b610cdf91906119a2565b1115610d135760008160060160006101000a81548160ff02191690836002811115610d0d57610d0c611c3e565b5b02179055505b610d89565b6001816005016000828254610d2d919061194c565b92505081905550603260035460648360050154610d4a91906119d3565b610d5491906119a2565b1115610d885760018160060160006101000a81548160ff02191690836002811115610d8257610d81611c3e565b5b02179055505b5b505050565b60016020528160005260406000206020528060005260406000206000915091509054906101000a900460ff1681565b80600260003373ffffffffffffffffffffffffffffffffffffffff1673ffffffffffffffffffffffffffffffffffffffff1681526020019081526020016000206000828254610e0c919061194c565b925050819055508060036000828254610e25919061194c565b92505081905550600460009054906101000a900473ffffffffffffffffffffffffffffffffffffffff1673ffffffffffffffffffffffffffffffffffffffff166323b872dd3330846040518463ffffffff1660e01b8152600401610e8b93929190611698565b602060405180830381600087803b158015610ea557600080fd5b505af1158015610eb9573d6000803e3d6000fd5b505050506040513d601f19601f82011682018060405250810190610edd91906113f6565b5050565b60026020528060005260406000206000915090505481565b60005b600554811015610fe0577fa386b4e02e6b57104f029cf0afec9c1cbd7aa41e496cc4bdbfc07ffbcf4cf6766000808381526020019081526020016000206000015460008084815260200190815260200160002060010160009054906101000a900473ffffffffffffffffffffffffffffffffffffffff166000808581526020019081526020016000206002016000808681526020019081526020016000206004015460008087815260200190815260200160002060050154604051610fc595949392919061183f565b60405180910390a18080610fd890611b97565b915050610efc565b50565b600460009054906101000a900473ffffffffffffffffffffffffffffffffffffffff1681565b670de0b6b3a76400008161101d91906119d3565b600260003373ffffffffffffffffffffffffffffffffffffffff1673ffffffffffffffffffffffffffffffffffffffff168152602001908152602001600020600082825461106b919061194c565b92505081905550670de0b6b3a76400008161108691906119d3565b60036000828254611097919061194c565b92505081905550600460009054906101000a900473ffffffffffffffffffffffffffffffffffffffff1673ffffffffffffffffffffffffffffffffffffffff166323b872dd3330670de0b6b3a7640000856110f291906119d3565b6040518463ffffffff1660e01b815260040161111093929190611698565b602060405180830381600087803b15801561112a57600080fd5b505af115801561113e573d6000803e3d6000fd5b505050506040513d601f19601f8201168201806040525081019061116291906113f6565b5050565b82805461117290611b34565b90600052602060002090601f01602090048101928261119457600085556111db565b82601f106111ad57805160ff19168380011785556111db565b828001600101855582156111db579182015b828111156111da5782518255916020019190600101906111bf565b5b5090506111e891906111ec565b5090565b5b808211156112055760008160009055506001016111ed565b5090565b600061121c611217846118be565b611899565b9050808382526020820190508285602086028201111561123f5761123e611cd0565b5b60005b8581101561128d57813567ffffffffffffffff81111561126557611264611ccb565b5b8086016112728982611346565b85526020850194506020840193505050600181019050611242565b5050509392505050565b60006112aa6112a5846118ea565b611899565b9050828152602081018484840111156112c6576112c5611cd5565b5b6112d1848285611af2565b509392505050565b6000813590506112e881611dd3565b92915050565b600082601f83011261130357611302611ccb565b5b8135611313848260208601611209565b91505092915050565b60008151905061132b81611dea565b92915050565b60008135905061134081611e01565b92915050565b600082601f83011261135b5761135a611ccb565b5b813561136b848260208601611297565b91505092915050565b60008135905061138381611e11565b92915050565b60006020828403121561139f5761139e611cdf565b5b60006113ad848285016112d9565b91505092915050565b600080604083850312156113cd576113cc611cdf565b5b60006113db858286016112d9565b92505060206113ec85828601611374565b9150509250929050565b60006020828403121561140c5761140b611cdf565b5b600061141a8482850161131c565b91505092915050565b6000806040838503121561143a57611439611cdf565b5b600083013567ffffffffffffffff81111561145857611457611cda565b5b61146485828601611346565b925050602083013567ffffffffffffffff81111561148557611484611cda565b5b611491858286016112ee565b9150509250929050565b6000602082840312156114b1576114b0611cdf565b5b60006114bf84828501611374565b91505092915050565b600080604083850312156114df576114de611cdf565b5b60006114ed85828601611374565b92505060206114fe85828601611331565b9150509250929050565b61151181611a61565b82525050565b61152081611a73565b82525050565b61152f81611abc565b82525050565b61153e81611ae0565b82525050565b600061154f82611930565b611559818561193b565b9350611569818560208601611b01565b61157281611ce4565b840191505092915050565b6000815461158a81611b34565b611594818661193b565b945060018216600081146115af57600181146115c1576115f4565b60ff19831686526020860193506115f4565b6115ca8561191b565b60005b838110156115ec578154818901526001820191506020810190506115cd565b808801955050505b50505092915050565b600061160a600d8361193b565b915061161582611cf5565b602082019050919050565b600061162d60268361193b565b915061163882611d1e565b604082019050919050565b600061165060118361193b565b915061165b82611d6d565b602082019050919050565b600061167360158361193b565b915061167e82611d96565b602082019050919050565b61169281611ab2565b82525050565b60006060820190506116ad6000830186611508565b6116ba6020830185611508565b6116c76040830184611689565b949350505050565b60006040820190506116e46000830185611508565b6116f16020830184611689565b9392505050565b600060208201905061170d6000830184611517565b92915050565b60006020820190506117286000830184611526565b92915050565b60006020820190508181036000830152611747816115fd565b9050919050565b6000602082019050818103600083015261176781611620565b9050919050565b6000602082019050818103600083015261178781611643565b9050919050565b600060208201905081810360008301526117a781611666565b9050919050565b60006020820190506117c36000830184611689565b92915050565b600060e0820190506117de600083018a611689565b6117eb6020830189611508565b81810360408301526117fd8188611544565b905061180c6060830187611689565b6118196080830186611689565b61182660a0830185611689565b61183360c0830184611535565b98975050505050505050565b600060a0820190506118546000830188611689565b6118616020830187611508565b8181036040830152611873818661157d565b90506118826060830185611689565b61188f6080830184611689565b9695505050505050565b60006118a36118b4565b90506118af8282611b66565b919050565b6000604051905090565b600067ffffffffffffffff8211156118d9576118d8611c9c565b5b602082029050602081019050919050565b600067ffffffffffffffff82111561190557611904611c9c565b5b61190e82611ce4565b9050602081019050919050565b60008190508160005260206000209050919050565b600081519050919050565b600082825260208201905092915050565b600061195782611ab2565b915061196283611ab2565b9250827fffffffffffffffffffffffffffffffffffffffffffffffffffffffffffffffff0382111561199757611996611be0565b5b828201905092915050565b60006119ad82611ab2565b91506119b883611ab2565b9250826119c8576119c7611c0f565b5b828204905092915050565b60006119de82611ab2565b91506119e983611ab2565b9250817fffffffffffffffffffffffffffffffffffffffffffffffffffffffffffffffff0483118215151615611a2257611a21611be0565b5b828202905092915050565b6000611a3882611ab2565b9150611a4383611ab2565b925082821015611a5657611a55611be0565b5b828203905092915050565b6000611a6c82611a92565b9050919050565b60008115159050919050565b6000819050611a8d82611dbf565b919050565b600073ffffffffffffffffffffffffffffffffffffffff82169050919050565b6000819050919050565b6000611ac782611ace565b9050919050565b6000611ad982611a92565b9050919050565b6000611aeb82611a7f565b9050919050565b82818337600083830152505050565b60005b83811015611b1f578082015181840152602081019050611b04565b83811115611b2e576000848401525b50505050565b60006002820490506001821680611b4c57607f821691505b60208210811415611b6057611b5f611c6d565b5b50919050565b611b6f82611ce4565b810181811067ffffffffffffffff82111715611b8e57611b8d611c9c565b5b80604052505050565b6000611ba282611ab2565b91507fffffffffffffffffffffffffffffffffffffffffffffffffffffffffffffffff821415611bd557611bd4611be0565b5b600182019050919050565b7f4e487b7100000000000000000000000000000000000000000000000000000000600052601160045260246000fd5b7f4e487b7100000000000000000000000000000000000000000000000000000000600052601260045260246000fd5b7f4e487b7100000000000000000000000000000000000000000000000000000000600052602160045260246000fd5b7f4e487b7100000000000000000000000000000000000000000000000000000000600052602260045260246000fd5b7f4e487b7100000000000000000000000000000000000000000000000000000000600052604160045260246000fd5b600080fd5b600080fd5b600080fd5b600080fd5b600080fd5b6000601f19601f8301169050919050565b7f616c726561647920766f74656400000000000000000000000000000000000000600082015250565b7f4e6f7420656e6f7567682073686172657320746f20637265617465206120707260008201527f6f706f73616c0000000000000000000000000000000000000000000000000000602082015250565b7f4e6f7420656e6f75676820736861726573000000000000000000000000000000600082015250565b7f566f74696e6720706572696f64206973206f7665720000000000000000000000600082015250565b60038110611dd057611dcf611c3e565b5b50565b611ddc81611a61565b8114611de757600080fd5b50565b611df381611a73565b8114611dfe57600080fd5b50565b60028110611e0e57600080fd5b50565b611e1a81611ab2565b8114611e2557600080fd5b5056fea26469706673582212206f6313b4ff4333bec538027b5313f62f45f0fc8242170094f64e000516180ff864736f6c63430008060033",
  "immutableReferences": {},
  "source": "pragma solidity ^0.8.6;\r\n\r\n//import 'https://github.com/OpenZeppelin/openzeppelin-contracts/blob/master/contracts/token/ERC20/IERC20.sol';\r\n\r\n//import 'contracts.sol';\r\n/**\r\n * @dev Interface of the ERC20 standard as defined in the EIP.\r\n */\r\ninterface IERC20 {\r\n    /**\r\n     * @dev Emitted when `value` tokens are moved from one account (`from`) to\r\n     * another (`to`).\r\n     *\r\n     * Note that `value` may be zero.\r\n     */\r\n    event Transfer(address indexed from, address indexed to, uint256 value);\r\n\r\n    /**\r\n     * @dev Emitted when the allowance of a `spender` for an `owner` is set by\r\n     * a call to {approve}. `value` is the new allowance.\r\n     */\r\n    event Approval(address indexed owner, address indexed spender, uint256 value);\r\n\r\n    /**\r\n     * @dev Returns the amount of tokens in existence.\r\n     */\r\n    function totalSupply() external view returns (uint256);\r\n\r\n    /**\r\n     * @dev Returns the amount of tokens owned by `account`.\r\n     */\r\n    function balanceOf(address account) external view returns (uint256);\r\n\r\n    /**\r\n     * @dev Moves `amount` tokens from the caller's account to `to`.\r\n     *\r\n     * Returns a boolean value indicating whether the operation succeeded.\r\n     *\r\n     * Emits a {Transfer} event.\r\n     */\r\n    function transfer(address to, uint256 amount) external returns (bool);\r\n\r\n    /**\r\n     * @dev Returns the remaining number of tokens that `spender` will be\r\n     * allowed to spend on behalf of `owner` through {transferFrom}. This is\r\n     * zero by default.\r\n     *\r\n     * This value changes when {approve} or {transferFrom} are called.\r\n     */\r\n    function allowance(address owner, address spender) external view returns (uint256);\r\n\r\n    /**\r\n     * @dev Sets `amount` as the allowance of `spender` over the caller's tokens.\r\n     *\r\n     * Returns a boolean value indicating whether the operation succeeded.\r\n     *\r\n     * IMPORTANT: Beware that changing an allowance with this method brings the risk\r\n     * that someone may use both the old and the new allowance by unfortunate\r\n     * transaction ordering. One possible solution to mitigate this race\r\n     * condition is to first reduce the spender's allowance to 0 and set the\r\n     * desired value afterwards:\r\n     * https://github.com/ethereum/EIPs/issues/20#issuecomment-263524729\r\n     *\r\n     * Emits an {Approval} event.\r\n     */\r\n    function approve(address spender, uint256 amount) external returns (bool);\r\n\r\n    /**\r\n     * @dev Moves `amount` tokens from `from` to `to` using the\r\n     * allowance mechanism. `amount` is then deducted from the caller's\r\n     * allowance.\r\n     *\r\n     * Returns a boolean value indicating whether the operation succeeded.\r\n     *\r\n     * Emits a {Transfer} event.\r\n     */\r\n    function transferFrom(\r\n        address from,\r\n        address to,\r\n        uint256 amount\r\n    ) external returns (bool);\r\n}\r\ncontract MyDAO {\r\n    \r\n    enum VotingOptions { Yes, No }\r\n    enum Status { Accepted, Rejected, Pending }\r\n    struct Proposal {\r\n        uint256 id;\r\n        address author;\r\n        string name;\r\n        uint256 createdAt;\r\n        uint256 votesForYes;\r\n        uint256 votesForNo;\r\n        Status status;\r\n    }\r\n\r\n    // store all proposals\r\n    mapping(uint => Proposal) public proposals;\r\n    //to print out proposals\r\n    event proposal_info(uint256 id, address author, string name, uint256 votesForYes, uint256 votesForNo);\r\n    // who already votes for who and to avoid vote twice\r\n    mapping(address => mapping(uint => bool)) public votes;\r\n    // one share for governance tokens\r\n    mapping(address => uint256) public shares;\r\n    uint public totalShares;\r\n    // the IERC20 allow us to use avax like our governance token.\r\n    IERC20 public token;\r\n    // the user need minimum 25 AVAX to create a proposal.\r\n    uint constant CREATE_PROPOSAL_MIN_SHARE = 25 * 10 ** 18;\r\n    uint constant VOTING_PERIOD = 7 days;\r\n    uint public nextProposalId;\r\n    \r\n    constructor() {\r\n        token = IERC20(0xA048B6a5c1be4b81d99C3Fd993c98783adC2eF70); // AVAX address\r\n    }\r\n    \r\n    function iterate_proposals() public //ama sanirim boyle degilde teker teker yapmamiz gerekcek cok pahali olabilir obur turlu\r\n    {\r\n        for(uint i=0;i<nextProposalId;i++)\r\n        {\r\n            emit proposal_info(proposals[i].id, proposals[i].author, proposals[i].name, proposals[i].votesForYes, proposals[i].votesForNo);\r\n        }\r\n    }    \r\n    \r\n    function deposit(uint _amount) external {\r\n        shares[msg.sender] += _amount;\r\n        totalShares += _amount;\r\n        token.transferFrom(msg.sender, address(this), _amount);\r\n    }\r\n /** since we need 25 tokens to vote and one token is 25 wei so 25 * 10^18 shares */\r\n    function deposit_tokens(uint _amount) external {\r\n        shares[msg.sender] += (_amount * 10 ** 18);\r\n        totalShares += (_amount * 10 ** 18);\r\n        token.transferFrom(msg.sender, address(this), (_amount * 10 ** 18));\r\n    }\r\n        \r\n    \r\n    function withdraw(uint _amount) external {\r\n        require(shares[msg.sender] >= _amount, 'Not enough shares');\r\n        shares[msg.sender] -= _amount;\r\n        totalShares -= _amount;\r\n        token.transfer(msg.sender, _amount);\r\n    }\r\n\r\n    function createProposal(string memory name,string[] memory props) external {\r\n        // validate the user has enough shares to create a proposal\r\n        require(shares[msg.sender] >= CREATE_PROPOSAL_MIN_SHARE, 'Not enough shares to create a proposal');\r\n        \r\n        proposals[nextProposalId] = Proposal(\r\n            nextProposalId,\r\n            msg.sender,\r\n            name,\r\n            block.timestamp,\r\n            0,\r\n            0,\r\n            Status.Pending\r\n        );\r\n        nextProposalId++;\r\n    }    \r\n\r\n    function vote(uint _proposalId, VotingOptions _vote) external {\r\n        Proposal storage proposal = proposals[_proposalId];\r\n        require(votes[msg.sender][_proposalId] == false, 'already voted');\r\n        require(block.timestamp <= proposal.createdAt + VOTING_PERIOD, 'Voting period is over');\r\n        votes[msg.sender][_proposalId] = true;\r\n        if(_vote == VotingOptions.Yes) {\r\n           /** proposal.votesForYes += shares[msg.sender];*/\r\n            proposal.votesForYes += 1;\r\n\r\n            if(proposal.votesForYes * 100 / totalShares > 50) {\r\n                proposal.status = Status.Accepted;\r\n            }\r\n        } else {\r\n            proposal.votesForNo += 1;\r\n            if(proposal.votesForNo * 100 / totalShares > 50) {\r\n                proposal.status = Status.Rejected;\r\n            }\r\n        }\r\n    }    \r\n    function vote_weighted(uint _proposalId, VotingOptions _vote) external {\r\n        Proposal storage proposal = proposals[_proposalId];\r\n        require(votes[msg.sender][_proposalId] == false, 'already voted');\r\n        require(block.timestamp <= proposal.createdAt + VOTING_PERIOD, 'Voting period is over');\r\n        votes[msg.sender][_proposalId] = true;\r\n        if(_vote == VotingOptions.Yes) {\r\n           /** proposal.votesForYes += shares[msg.sender];*/\r\n            if(shares[msg.sender] >= CREATE_PROPOSAL_MIN_SHARE ){\r\n             proposal.votesForYes += 3;\r\n            }\r\n            if(shares[msg.sender] < CREATE_PROPOSAL_MIN_SHARE){\r\n                proposal.votesForYes += 1;\r\n            }\r\n\r\n            if(proposal.votesForYes * 100 / totalShares > 50) {\r\n                proposal.status = Status.Accepted;\r\n            }\r\n        } else {\r\n            /**proposal.votesForNo += shares[msg.sender];*/\r\n            if(shares[msg.sender] >= CREATE_PROPOSAL_MIN_SHARE ){\r\n                proposal.votesForNo += 3;\r\n            }\r\n            if(shares[msg.sender] < CREATE_PROPOSAL_MIN_SHARE){\r\n                proposal.votesForNo += 1;\r\n            }            \r\n            if(proposal.votesForNo * 100 / totalShares > 50) {\r\n                proposal.status = Status.Rejected;\r\n            }\r\n        }\r\n    }    \r\n}",
  "sourcePath": "D:\\projects\\ui_sol_deneme\\bl\\contracts\\myDao.sol",
  "compiler": {
    "name": "solc",
    "version": "0.8.6+commit.11564f7e.Emscripten.clang"
  },
  "schemaVersion": "3.4.4",
  "updatedAt": "2022-05-21T07:55:19.440Z",
  "devdoc": {
    "kind": "dev",
    "methods": {},
    "version": 1
  },
  "userdoc": {
    "kind": "user",
    "methods": {
      "deposit_tokens(uint256)": {
        "notice": "since we need 25 tokens to vote and one token is 25 wei so 25 * 10^18 shares "
      }
    },
    "version": 1
  }
}